{
	"example7_task2.sol": {
		"AccessModifiers": {
			"abi": [
				{
					"inputs": [],
					"name": "getNumber",
					"outputs": [
						{
							"internalType": "uint8",
							"name": "",
							"type": "uint8"
						}
					],
					"stateMutability": "view",
					"type": "function"
				},
				{
					"inputs": [],
					"name": "number",
					"outputs": [
						{
							"internalType": "uint8",
							"name": "",
							"type": "uint8"
						}
					],
					"stateMutability": "view",
					"type": "function"
				},
				{
					"inputs": [
						{
							"internalType": "uint8",
							"name": "_number",
							"type": "uint8"
						}
					],
					"name": "setNumberExternal",
					"outputs": [],
					"stateMutability": "nonpayable",
					"type": "function"
				},
				{
					"inputs": [
						{
							"internalType": "uint8",
							"name": "_number",
							"type": "uint8"
						}
					],
					"name": "setNumberPublic",
					"outputs": [],
					"stateMutability": "nonpayable",
					"type": "function"
				}
			],
			"devdoc": {
				"kind": "dev",
				"methods": {},
				"version": 1
			},
			"evm": {
				"assembly": "    /* \"example7_task2.sol\":27:814  contract AccessModifiers {... */\n  mstore(0x40, 0x80)\n  callvalue\n  dup1\n  iszero\n  tag_1\n  jumpi\n  0x00\n  dup1\n  revert\ntag_1:\n  pop\n  dataSize(sub_0)\n  dup1\n  dataOffset(sub_0)\n  0x00\n  codecopy\n  0x00\n  return\nstop\n\nsub_0: assembly {\n        /* \"example7_task2.sol\":27:814  contract AccessModifiers {... */\n      mstore(0x40, 0x80)\n      callvalue\n      dup1\n      iszero\n      tag_1\n      jumpi\n      0x00\n      dup1\n      revert\n    tag_1:\n      pop\n      jumpi(tag_2, lt(calldatasize, 0x04))\n      shr(0xe0, calldataload(0x00))\n      dup1\n      0x096acfc4\n      eq\n      tag_3\n      jumpi\n      dup1\n      0x8381f58a\n      eq\n      tag_4\n      jumpi\n      dup1\n      0xa5f8de9f\n      eq\n      tag_5\n      jumpi\n      dup1\n      0xf2c9ecd8\n      eq\n      tag_6\n      jumpi\n    tag_2:\n      0x00\n      dup1\n      revert\n        /* \"example7_task2.sol\":441:563  function setNumberExternal(uint8 _number) external {... */\n    tag_3:\n      tag_7\n      0x04\n      dup1\n      calldatasize\n      sub\n      dup2\n      add\n      swap1\n      tag_8\n      swap2\n      swap1\n      tag_9\n      jump\t// in\n    tag_8:\n      tag_10\n      jump\t// in\n    tag_7:\n      stop\n        /* \"example7_task2.sol\":59:78  uint8 public number */\n    tag_4:\n      tag_11\n      tag_12\n      jump\t// in\n    tag_11:\n      mload(0x40)\n      tag_13\n      swap2\n      swap1\n      tag_14\n      jump\t// in\n    tag_13:\n      mload(0x40)\n      dup1\n      swap2\n      sub\n      swap1\n      return\n        /* \"example7_task2.sol\":118:237  function setNumberPublic(uint8 _number) public {... */\n    tag_5:\n      tag_15\n      0x04\n      dup1\n      calldatasize\n      sub\n      dup2\n      add\n      swap1\n      tag_16\n      swap2\n      swap1\n      tag_9\n      jump\t// in\n    tag_16:\n      tag_17\n      jump\t// in\n    tag_15:\n      stop\n        /* \"example7_task2.sol\":730:811  function getNumber() public view returns (uint8) {... */\n    tag_6:\n      tag_18\n      tag_19\n      jump\t// in\n    tag_18:\n      mload(0x40)\n      tag_20\n      swap2\n      swap1\n      tag_14\n      jump\t// in\n    tag_20:\n      mload(0x40)\n      dup1\n      swap2\n      sub\n      swap1\n      return\n        /* \"example7_task2.sol\":441:563  function setNumberExternal(uint8 _number) external {... */\n    tag_10:\n        /* \"example7_task2.sol\":512:519  _number */\n      dup1\n        /* \"example7_task2.sol\":503:509  number */\n      0x00\n      dup1\n        /* \"example7_task2.sol\":503:519  number = _number */\n      0x0100\n      exp\n      dup2\n      sload\n      dup2\n      0xff\n      mul\n      not\n      and\n      swap1\n      dup4\n      0xff\n      and\n      mul\n      or\n      swap1\n      sstore\n      pop\n        /* \"example7_task2.sol\":530:555  setNumberPrivate(_number) */\n      tag_22\n        /* \"example7_task2.sol\":547:554  _number */\n      dup2\n        /* \"example7_task2.sol\":530:546  setNumberPrivate */\n      tag_23\n        /* \"example7_task2.sol\":530:555  setNumberPrivate(_number) */\n      jump\t// in\n    tag_22:\n        /* \"example7_task2.sol\":441:563  function setNumberExternal(uint8 _number) external {... */\n      pop\n      jump\t// out\n        /* \"example7_task2.sol\":59:78  uint8 public number */\n    tag_12:\n      0x00\n      dup1\n      sload\n      swap1\n      0x0100\n      exp\n      swap1\n      div\n      0xff\n      and\n      dup2\n      jump\t// out\n        /* \"example7_task2.sol\":118:237  function setNumberPublic(uint8 _number) public {... */\n    tag_17:\n        /* \"example7_task2.sol\":185:192  _number */\n      dup1\n        /* \"example7_task2.sol\":176:182  number */\n      0x00\n      dup1\n        /* \"example7_task2.sol\":176:192  number = _number */\n      0x0100\n      exp\n      dup2\n      sload\n      dup2\n      0xff\n      mul\n      not\n      and\n      swap1\n      dup4\n      0xff\n      and\n      mul\n      or\n      swap1\n      sstore\n      pop\n        /* \"example7_task2.sol\":203:229  setNumberInternal(_number) */\n      tag_25\n        /* \"example7_task2.sol\":221:228  _number */\n      dup2\n        /* \"example7_task2.sol\":203:220  setNumberInternal */\n      tag_26\n        /* \"example7_task2.sol\":203:229  setNumberInternal(_number) */\n      jump\t// in\n    tag_25:\n        /* \"example7_task2.sol\":118:237  function setNumberPublic(uint8 _number) public {... */\n      pop\n      jump\t// out\n        /* \"example7_task2.sol\":730:811  function getNumber() public view returns (uint8) {... */\n    tag_19:\n        /* \"example7_task2.sol\":772:777  uint8 */\n      0x00\n        /* \"example7_task2.sol\":797:803  number */\n      dup1\n      0x00\n      swap1\n      sload\n      swap1\n      0x0100\n      exp\n      swap1\n      div\n      0xff\n      and\n        /* \"example7_task2.sol\":790:803  return number */\n      swap1\n      pop\n        /* \"example7_task2.sol\":730:811  function getNumber() public view returns (uint8) {... */\n      swap1\n      jump\t// out\n        /* \"example7_task2.sol\":603:687  function setNumberPrivate(uint8 _number) private {... */\n    tag_23:\n        /* \"example7_task2.sol\":672:679  _number */\n      dup1\n        /* \"example7_task2.sol\":663:669  number */\n      0x00\n      dup1\n        /* \"example7_task2.sol\":663:679  number = _number */\n      0x0100\n      exp\n      dup2\n      sload\n      dup2\n      0xff\n      mul\n      not\n      and\n      swap1\n      dup4\n      0xff\n      and\n      mul\n      or\n      swap1\n      sstore\n      pop\n        /* \"example7_task2.sol\":603:687  function setNumberPrivate(uint8 _number) private {... */\n      pop\n      jump\t// out\n        /* \"example7_task2.sol\":278:400  function setNumberInternal(uint8 _number) internal {... */\n    tag_26:\n        /* \"example7_task2.sol\":349:356  _number */\n      dup1\n        /* \"example7_task2.sol\":340:346  number */\n      0x00\n      dup1\n        /* \"example7_task2.sol\":340:356  number = _number */\n      0x0100\n      exp\n      dup2\n      sload\n      dup2\n      0xff\n      mul\n      not\n      and\n      swap1\n      dup4\n      0xff\n      and\n      mul\n      or\n      swap1\n      sstore\n      pop\n        /* \"example7_task2.sol\":367:392  setNumberPrivate(_number) */\n      tag_30\n        /* \"example7_task2.sol\":384:391  _number */\n      dup2\n        /* \"example7_task2.sol\":367:383  setNumberPrivate */\n      tag_23\n        /* \"example7_task2.sol\":367:392  setNumberPrivate(_number) */\n      jump\t// in\n    tag_30:\n        /* \"example7_task2.sol\":278:400  function setNumberInternal(uint8 _number) internal {... */\n      pop\n      jump\t// out\n        /* \"#utility.yul\":88:205   */\n    tag_32:\n        /* \"#utility.yul\":197:198   */\n      0x00\n        /* \"#utility.yul\":194:195   */\n      dup1\n        /* \"#utility.yul\":187:199   */\n      revert\n        /* \"#utility.yul\":334:420   */\n    tag_34:\n        /* \"#utility.yul\":369:376   */\n      0x00\n        /* \"#utility.yul\":409:413   */\n      0xff\n        /* \"#utility.yul\":402:407   */\n      dup3\n        /* \"#utility.yul\":398:414   */\n      and\n        /* \"#utility.yul\":387:414   */\n      swap1\n      pop\n        /* \"#utility.yul\":334:420   */\n      swap2\n      swap1\n      pop\n      jump\t// out\n        /* \"#utility.yul\":426:544   */\n    tag_35:\n        /* \"#utility.yul\":497:519   */\n      tag_44\n        /* \"#utility.yul\":513:518   */\n      dup2\n        /* \"#utility.yul\":497:519   */\n      tag_34\n      jump\t// in\n    tag_44:\n        /* \"#utility.yul\":490:495   */\n      dup2\n        /* \"#utility.yul\":487:520   */\n      eq\n        /* \"#utility.yul\":477:538   */\n      tag_45\n      jumpi\n        /* \"#utility.yul\":534:535   */\n      0x00\n        /* \"#utility.yul\":531:532   */\n      dup1\n        /* \"#utility.yul\":524:536   */\n      revert\n        /* \"#utility.yul\":477:538   */\n    tag_45:\n        /* \"#utility.yul\":426:544   */\n      pop\n      jump\t// out\n        /* \"#utility.yul\":550:685   */\n    tag_36:\n        /* \"#utility.yul\":594:599   */\n      0x00\n        /* \"#utility.yul\":632:638   */\n      dup2\n        /* \"#utility.yul\":619:639   */\n      calldataload\n        /* \"#utility.yul\":610:639   */\n      swap1\n      pop\n        /* \"#utility.yul\":648:679   */\n      tag_47\n        /* \"#utility.yul\":673:678   */\n      dup2\n        /* \"#utility.yul\":648:679   */\n      tag_35\n      jump\t// in\n    tag_47:\n        /* \"#utility.yul\":550:685   */\n      swap3\n      swap2\n      pop\n      pop\n      jump\t// out\n        /* \"#utility.yul\":691:1016   */\n    tag_9:\n        /* \"#utility.yul\":748:754   */\n      0x00\n        /* \"#utility.yul\":797:799   */\n      0x20\n        /* \"#utility.yul\":785:794   */\n      dup3\n        /* \"#utility.yul\":776:783   */\n      dup5\n        /* \"#utility.yul\":772:795   */\n      sub\n        /* \"#utility.yul\":768:800   */\n      slt\n        /* \"#utility.yul\":765:884   */\n      iszero\n      tag_49\n      jumpi\n        /* \"#utility.yul\":803:882   */\n      tag_50\n      tag_32\n      jump\t// in\n    tag_50:\n        /* \"#utility.yul\":765:884   */\n    tag_49:\n        /* \"#utility.yul\":923:924   */\n      0x00\n        /* \"#utility.yul\":948:999   */\n      tag_51\n        /* \"#utility.yul\":991:998   */\n      dup5\n        /* \"#utility.yul\":982:988   */\n      dup3\n        /* \"#utility.yul\":971:980   */\n      dup6\n        /* \"#utility.yul\":967:989   */\n      add\n        /* \"#utility.yul\":948:999   */\n      tag_36\n      jump\t// in\n    tag_51:\n        /* \"#utility.yul\":938:999   */\n      swap2\n      pop\n        /* \"#utility.yul\":894:1009   */\n      pop\n        /* \"#utility.yul\":691:1016   */\n      swap3\n      swap2\n      pop\n      pop\n      jump\t// out\n        /* \"#utility.yul\":1022:1134   */\n    tag_37:\n        /* \"#utility.yul\":1105:1127   */\n      tag_53\n        /* \"#utility.yul\":1121:1126   */\n      dup2\n        /* \"#utility.yul\":1105:1127   */\n      tag_34\n      jump\t// in\n    tag_53:\n        /* \"#utility.yul\":1100:1103   */\n      dup3\n        /* \"#utility.yul\":1093:1128   */\n      mstore\n        /* \"#utility.yul\":1022:1134   */\n      pop\n      pop\n      jump\t// out\n        /* \"#utility.yul\":1140:1354   */\n    tag_14:\n        /* \"#utility.yul\":1229:1233   */\n      0x00\n        /* \"#utility.yul\":1267:1269   */\n      0x20\n        /* \"#utility.yul\":1256:1265   */\n      dup3\n        /* \"#utility.yul\":1252:1270   */\n      add\n        /* \"#utility.yul\":1244:1270   */\n      swap1\n      pop\n        /* \"#utility.yul\":1280:1347   */\n      tag_55\n        /* \"#utility.yul\":1344:1345   */\n      0x00\n        /* \"#utility.yul\":1333:1342   */\n      dup4\n        /* \"#utility.yul\":1329:1346   */\n      add\n        /* \"#utility.yul\":1320:1326   */\n      dup5\n        /* \"#utility.yul\":1280:1347   */\n      tag_37\n      jump\t// in\n    tag_55:\n        /* \"#utility.yul\":1140:1354   */\n      swap3\n      swap2\n      pop\n      pop\n      jump\t// out\n\n    auxdata: 0xa2646970667358221220db30120da603f178a6c925303e3ce06e7fca8a66c8f9070681bb76d3176cc75c64736f6c634300081a0033\n}\n",
				"bytecode": {
					"linkReferences": {},
					"object": "6080604052348015600e575f80fd5b506102348061001c5f395ff3fe608060405234801561000f575f80fd5b506004361061004a575f3560e01c8063096acfc41461004e5780638381f58a1461006a578063a5f8de9f14610088578063f2c9ecd8146100a4575b5f80fd5b610068600480360381019061006391906101ab565b6100c2565b005b6100726100e7565b60405161007f91906101e5565b60405180910390f35b6100a2600480360381019061009d91906101ab565b6100f7565b005b6100ac61011c565b6040516100b991906101e5565b60405180910390f35b805f806101000a81548160ff021916908360ff1602179055506100e481610130565b50565b5f8054906101000a900460ff1681565b805f806101000a81548160ff021916908360ff1602179055506101198161014c565b50565b5f805f9054906101000a900460ff16905090565b805f806101000a81548160ff021916908360ff16021790555050565b805f806101000a81548160ff021916908360ff16021790555061016e81610130565b50565b5f80fd5b5f60ff82169050919050565b61018a81610175565b8114610194575f80fd5b50565b5f813590506101a581610181565b92915050565b5f602082840312156101c0576101bf610171565b5b5f6101cd84828501610197565b91505092915050565b6101df81610175565b82525050565b5f6020820190506101f85f8301846101d6565b9291505056fea2646970667358221220db30120da603f178a6c925303e3ce06e7fca8a66c8f9070681bb76d3176cc75c64736f6c634300081a0033",
					"opcodes": "PUSH1 0x80 PUSH1 0x40 MSTORE CALLVALUE DUP1 ISZERO PUSH1 0xE JUMPI PUSH0 DUP1 REVERT JUMPDEST POP PUSH2 0x234 DUP1 PUSH2 0x1C PUSH0 CODECOPY PUSH0 RETURN INVALID PUSH1 0x80 PUSH1 0x40 MSTORE CALLVALUE DUP1 ISZERO PUSH2 0xF JUMPI PUSH0 DUP1 REVERT JUMPDEST POP PUSH1 0x4 CALLDATASIZE LT PUSH2 0x4A JUMPI PUSH0 CALLDATALOAD PUSH1 0xE0 SHR DUP1 PUSH4 0x96ACFC4 EQ PUSH2 0x4E JUMPI DUP1 PUSH4 0x8381F58A EQ PUSH2 0x6A JUMPI DUP1 PUSH4 0xA5F8DE9F EQ PUSH2 0x88 JUMPI DUP1 PUSH4 0xF2C9ECD8 EQ PUSH2 0xA4 JUMPI JUMPDEST PUSH0 DUP1 REVERT JUMPDEST PUSH2 0x68 PUSH1 0x4 DUP1 CALLDATASIZE SUB DUP2 ADD SWAP1 PUSH2 0x63 SWAP2 SWAP1 PUSH2 0x1AB JUMP JUMPDEST PUSH2 0xC2 JUMP JUMPDEST STOP JUMPDEST PUSH2 0x72 PUSH2 0xE7 JUMP JUMPDEST PUSH1 0x40 MLOAD PUSH2 0x7F SWAP2 SWAP1 PUSH2 0x1E5 JUMP JUMPDEST PUSH1 0x40 MLOAD DUP1 SWAP2 SUB SWAP1 RETURN JUMPDEST PUSH2 0xA2 PUSH1 0x4 DUP1 CALLDATASIZE SUB DUP2 ADD SWAP1 PUSH2 0x9D SWAP2 SWAP1 PUSH2 0x1AB JUMP JUMPDEST PUSH2 0xF7 JUMP JUMPDEST STOP JUMPDEST PUSH2 0xAC PUSH2 0x11C JUMP JUMPDEST PUSH1 0x40 MLOAD PUSH2 0xB9 SWAP2 SWAP1 PUSH2 0x1E5 JUMP JUMPDEST PUSH1 0x40 MLOAD DUP1 SWAP2 SUB SWAP1 RETURN JUMPDEST DUP1 PUSH0 DUP1 PUSH2 0x100 EXP DUP2 SLOAD DUP2 PUSH1 0xFF MUL NOT AND SWAP1 DUP4 PUSH1 0xFF AND MUL OR SWAP1 SSTORE POP PUSH2 0xE4 DUP2 PUSH2 0x130 JUMP JUMPDEST POP JUMP JUMPDEST PUSH0 DUP1 SLOAD SWAP1 PUSH2 0x100 EXP SWAP1 DIV PUSH1 0xFF AND DUP2 JUMP JUMPDEST DUP1 PUSH0 DUP1 PUSH2 0x100 EXP DUP2 SLOAD DUP2 PUSH1 0xFF MUL NOT AND SWAP1 DUP4 PUSH1 0xFF AND MUL OR SWAP1 SSTORE POP PUSH2 0x119 DUP2 PUSH2 0x14C JUMP JUMPDEST POP JUMP JUMPDEST PUSH0 DUP1 PUSH0 SWAP1 SLOAD SWAP1 PUSH2 0x100 EXP SWAP1 DIV PUSH1 0xFF AND SWAP1 POP SWAP1 JUMP JUMPDEST DUP1 PUSH0 DUP1 PUSH2 0x100 EXP DUP2 SLOAD DUP2 PUSH1 0xFF MUL NOT AND SWAP1 DUP4 PUSH1 0xFF AND MUL OR SWAP1 SSTORE POP POP JUMP JUMPDEST DUP1 PUSH0 DUP1 PUSH2 0x100 EXP DUP2 SLOAD DUP2 PUSH1 0xFF MUL NOT AND SWAP1 DUP4 PUSH1 0xFF AND MUL OR SWAP1 SSTORE POP PUSH2 0x16E DUP2 PUSH2 0x130 JUMP JUMPDEST POP JUMP JUMPDEST PUSH0 DUP1 REVERT JUMPDEST PUSH0 PUSH1 0xFF DUP3 AND SWAP1 POP SWAP2 SWAP1 POP JUMP JUMPDEST PUSH2 0x18A DUP2 PUSH2 0x175 JUMP JUMPDEST DUP2 EQ PUSH2 0x194 JUMPI PUSH0 DUP1 REVERT JUMPDEST POP JUMP JUMPDEST PUSH0 DUP2 CALLDATALOAD SWAP1 POP PUSH2 0x1A5 DUP2 PUSH2 0x181 JUMP JUMPDEST SWAP3 SWAP2 POP POP JUMP JUMPDEST PUSH0 PUSH1 0x20 DUP3 DUP5 SUB SLT ISZERO PUSH2 0x1C0 JUMPI PUSH2 0x1BF PUSH2 0x171 JUMP JUMPDEST JUMPDEST PUSH0 PUSH2 0x1CD DUP5 DUP3 DUP6 ADD PUSH2 0x197 JUMP JUMPDEST SWAP2 POP POP SWAP3 SWAP2 POP POP JUMP JUMPDEST PUSH2 0x1DF DUP2 PUSH2 0x175 JUMP JUMPDEST DUP3 MSTORE POP POP JUMP JUMPDEST PUSH0 PUSH1 0x20 DUP3 ADD SWAP1 POP PUSH2 0x1F8 PUSH0 DUP4 ADD DUP5 PUSH2 0x1D6 JUMP JUMPDEST SWAP3 SWAP2 POP POP JUMP INVALID LOG2 PUSH5 0x6970667358 0x22 SLT KECCAK256 0xDB ADDRESS SLT 0xD 0xA6 SUB CALL PUSH25 0xA6C925303E3CE06E7FCA8A66C8F9070681BB76D3176CC75C64 PUSH20 0x6F6C634300081A00330000000000000000000000 "
				},
				"gasEstimates": {
					"creation": {
						"codeDepositCost": "112800",
						"executionCost": "157",
						"totalCost": "112957"
					},
					"external": {
						"getNumber()": "2517",
						"number()": "2463",
						"setNumberExternal(uint8)": "48946",
						"setNumberPublic(uint8)": "73285"
					},
					"internal": {
						"setNumberInternal(uint8)": "48572",
						"setNumberPrivate(uint8)": "24277"
					}
				},
				"methodIdentifiers": {
					"getNumber()": "f2c9ecd8",
					"number()": "8381f58a",
					"setNumberExternal(uint8)": "096acfc4",
					"setNumberPublic(uint8)": "a5f8de9f"
				}
			},
			"storageLayout": {
				"storage": [
					{
						"astId": 3,
						"contract": "example7_task2.sol:AccessModifiers",
						"label": "number",
						"offset": 0,
						"slot": "0",
						"type": "t_uint8"
					}
				],
				"types": {
					"t_uint8": {
						"encoding": "inplace",
						"label": "uint8",
						"numberOfBytes": "1"
					}
				}
			},
			"userdoc": {
				"kind": "user",
				"methods": {},
				"version": 1
			}
		}
	}
}