{
	"week7example2.sol": {
		"FunctionsBank": {
			"abi": [
				{
					"inputs": [
						{
							"internalType": "function (bytes) pure external returns (bytes)",
							"name": "f",
							"type": "function"
						}
					],
					"name": "addFunction",
					"outputs": [],
					"stateMutability": "nonpayable",
					"type": "function"
				},
				{
					"inputs": [
						{
							"internalType": "bytes",
							"name": "data",
							"type": "bytes"
						}
					],
					"name": "callFunction",
					"outputs": [],
					"stateMutability": "nonpayable",
					"type": "function"
				},
				{
					"inputs": [
						{
							"internalType": "bytes",
							"name": "",
							"type": "bytes"
						}
					],
					"name": "emptyFunction",
					"outputs": [
						{
							"internalType": "bytes",
							"name": "",
							"type": "bytes"
						}
					],
					"stateMutability": "pure",
					"type": "function"
				},
				{
					"inputs": [
						{
							"internalType": "address",
							"name": "",
							"type": "address"
						}
					],
					"name": "functions",
					"outputs": [
						{
							"internalType": "function (bytes) pure external returns (bytes)",
							"name": "func",
							"type": "function"
						},
						{
							"internalType": "bytes",
							"name": "result",
							"type": "bytes"
						},
						{
							"internalType": "bool",
							"name": "isSet",
							"type": "bool"
						}
					],
					"stateMutability": "view",
					"type": "function"
				},
				{
					"inputs": [],
					"name": "getResult",
					"outputs": [
						{
							"internalType": "bytes",
							"name": "",
							"type": "bytes"
						}
					],
					"stateMutability": "view",
					"type": "function"
				}
			],
			"devdoc": {
				"kind": "dev",
				"methods": {},
				"version": 1
			},
			"evm": {
				"assembly": "    /* \"week7example2.sol\":60:1123  contract FunctionsBank {... */\n  mstore(0x40, 0x80)\n  callvalue\n  dup1\n  iszero\n  tag_1\n  jumpi\n  0x00\n  dup1\n  revert\ntag_1:\n  pop\n  dataSize(sub_0)\n  dup1\n  dataOffset(sub_0)\n  0x00\n  codecopy\n  0x00\n  return\nstop\n\nsub_0: assembly {\n        /* \"week7example2.sol\":60:1123  contract FunctionsBank {... */\n      mstore(0x40, 0x80)\n      callvalue\n      dup1\n      iszero\n      tag_1\n      jumpi\n      0x00\n      dup1\n      revert\n    tag_1:\n      pop\n      jumpi(tag_2, lt(calldatasize, 0x04))\n      shr(0xe0, calldataload(0x00))\n      dup1\n      0x0bdf12f1\n      eq\n      tag_3\n      jumpi\n      dup1\n      0xd7603460\n      eq\n      tag_4\n      jumpi\n      dup1\n      0xde292789\n      eq\n      tag_5\n      jumpi\n      dup1\n      0xdef005ec\n      eq\n      tag_6\n      jumpi\n      dup1\n      0xf551e362\n      eq\n      tag_7\n      jumpi\n    tag_2:\n      0x00\n      dup1\n      revert\n        /* \"week7example2.sol\":794:986  function callFunction(bytes memory data) external functionIsSet {... */\n    tag_3:\n      tag_8\n      0x04\n      dup1\n      calldatasize\n      sub\n      dup2\n      add\n      swap1\n      tag_9\n      swap2\n      swap1\n      tag_10\n      jump\t// in\n    tag_9:\n      tag_11\n      jump\t// in\n    tag_8:\n      stop\n        /* \"week7example2.sol\":427:664  function addFunction(function(bytes memory) external pure returns (bytes memory) f) external {... */\n    tag_4:\n      tag_12\n      0x04\n      dup1\n      calldatasize\n      sub\n      dup2\n      add\n      swap1\n      tag_13\n      swap2\n      swap1\n      tag_14\n      jump\t// in\n    tag_13:\n      tag_15\n      jump\t// in\n    tag_12:\n      stop\n        /* \"week7example2.sol\":994:1120  function getResult() external view functionIsSet returns (bytes memory) {... */\n    tag_5:\n      tag_16\n      tag_17\n      jump\t// in\n    tag_16:\n      mload(0x40)\n      tag_18\n      swap2\n      swap1\n      tag_19\n      jump\t// in\n    tag_18:\n      mload(0x40)\n      dup1\n      swap2\n      sub\n      swap1\n      return\n        /* \"week7example2.sol\":241:286  mapping(address => Function) public functions */\n    tag_6:\n      tag_20\n      0x04\n      dup1\n      calldatasize\n      sub\n      dup2\n      add\n      swap1\n      tag_21\n      swap2\n      swap1\n      tag_22\n      jump\t// in\n    tag_21:\n      tag_23\n      jump\t// in\n    tag_20:\n      mload(0x40)\n      tag_24\n      swap5\n      swap4\n      swap3\n      swap2\n      swap1\n      tag_25\n      jump\t// in\n    tag_24:\n      mload(0x40)\n      dup1\n      swap2\n      sub\n      swap1\n      return\n        /* \"week7example2.sol\":343:419  function emptyFunction(bytes memory) external pure returns (bytes memory) {} */\n    tag_7:\n      tag_26\n      0x04\n      dup1\n      calldatasize\n      sub\n      dup2\n      add\n      swap1\n      tag_27\n      swap2\n      swap1\n      tag_10\n      jump\t// in\n    tag_27:\n      tag_28\n      jump\t// in\n    tag_26:\n      mload(0x40)\n      tag_29\n      swap2\n      swap1\n      tag_19\n      jump\t// in\n    tag_29:\n      mload(0x40)\n      dup1\n      swap2\n      sub\n      swap1\n      return\n        /* \"week7example2.sol\":794:986  function callFunction(bytes memory data) external functionIsSet {... */\n    tag_11:\n        /* \"week7example2.sol\":716:725  functions */\n      0x00\n        /* \"week7example2.sol\":716:737  functions[msg.sender] */\n      dup1\n        /* \"week7example2.sol\":726:736  msg.sender */\n      caller\n        /* \"week7example2.sol\":716:737  functions[msg.sender] */\n      0xffffffffffffffffffffffffffffffffffffffff\n      and\n      0xffffffffffffffffffffffffffffffffffffffff\n      and\n      dup2\n      mstore\n      0x20\n      add\n      swap1\n      dup2\n      mstore\n      0x20\n      add\n      0x00\n      keccak256\n        /* \"week7example2.sol\":716:743  functions[msg.sender].isSet */\n      0x02\n      add\n      0x00\n      swap1\n      sload\n      swap1\n      0x0100\n      exp\n      swap1\n      div\n      0xff\n      and\n        /* \"week7example2.sol\":708:766  require(functions[msg.sender].isSet, \"Function not found\") */\n      tag_31\n      jumpi\n      mload(0x40)\n      0x08c379a000000000000000000000000000000000000000000000000000000000\n      dup2\n      mstore\n      0x04\n      add\n      tag_32\n      swap1\n      tag_33\n      jump\t// in\n    tag_32:\n      mload(0x40)\n      dup1\n      swap2\n      sub\n      swap1\n      revert\n    tag_31:\n        /* \"week7example2.sol\":869:898  Function storage userFunction */\n      0x00\n        /* \"week7example2.sol\":901:910  functions */\n      dup1\n        /* \"week7example2.sol\":901:922  functions[msg.sender] */\n      0x00\n        /* \"week7example2.sol\":911:921  msg.sender */\n      caller\n        /* \"week7example2.sol\":901:922  functions[msg.sender] */\n      0xffffffffffffffffffffffffffffffffffffffff\n      and\n      0xffffffffffffffffffffffffffffffffffffffff\n      and\n      dup2\n      mstore\n      0x20\n      add\n      swap1\n      dup2\n      mstore\n      0x20\n      add\n      0x00\n      keccak256\n        /* \"week7example2.sol\":869:922  Function storage userFunction = functions[msg.sender] */\n      swap1\n      pop\n        /* \"week7example2.sol\":955:967  userFunction */\n      dup1\n        /* \"week7example2.sol\":955:972  userFunction.func */\n      0x00\n      add\n      0x00\n      swap1\n      sload\n      swap1\n      0x0100\n      exp\n      swap1\n      div\n      dup1\n      0x20\n      shr\n      0xffffffffffffffffffffffffffffffffffffffff\n      and\n      swap1\n      0xffffffff\n      and\n        /* \"week7example2.sol\":973:977  data */\n      dup4\n        /* \"week7example2.sol\":955:978  userFunction.func(data) */\n      mload(0x40)\n      dup3\n      0xffffffff\n      and\n      0xe0\n      shl\n      dup2\n      mstore\n      0x04\n      add\n      tag_35\n      swap2\n      swap1\n      tag_19\n      jump\t// in\n    tag_35:\n      0x00\n      mload(0x40)\n      dup1\n      dup4\n      sub\n      dup2\n      dup7\n      gas\n      staticcall\n      iszero\n      dup1\n      iszero\n      tag_37\n      jumpi\n      returndatasize\n      0x00\n      dup1\n      returndatacopy\n      revert(0x00, returndatasize)\n    tag_37:\n      pop\n      pop\n      pop\n      pop\n      mload(0x40)\n      returndatasize\n      0x00\n      dup3\n      returndatacopy\n      returndatasize\n      not(0x1f)\n      0x1f\n      dup3\n      add\n      and\n      dup3\n      add\n      dup1\n      0x40\n      mstore\n      pop\n      dup2\n      add\n      swap1\n      tag_38\n      swap2\n      swap1\n      tag_39\n      jump\t// in\n    tag_38:\n        /* \"week7example2.sol\":933:945  userFunction */\n      dup2\n        /* \"week7example2.sol\":933:952  userFunction.result */\n      0x01\n      add\n        /* \"week7example2.sol\":933:978  userFunction.result = userFunction.func(data) */\n      swap1\n      dup2\n      tag_40\n      swap2\n      swap1\n      tag_41\n      jump\t// in\n    tag_40:\n      pop\n        /* \"week7example2.sol\":858:986  {... */\n      pop\n        /* \"week7example2.sol\":794:986  function callFunction(bytes memory data) external functionIsSet {... */\n      pop\n      jump\t// out\n        /* \"week7example2.sol\":427:664  function addFunction(function(bytes memory) external pure returns (bytes memory) f) external {... */\n    tag_15:\n        /* \"week7example2.sol\":555:656  Function({... */\n      mload(0x40)\n      dup1\n      0x60\n      add\n      0x40\n      mstore\n      dup1\n        /* \"week7example2.sol\":585:586  f */\n      dup4\n      dup4\n        /* \"week7example2.sol\":555:656  Function({... */\n      0xffffffff\n      and\n      swap1\n      0x20\n      shl\n      or\n      0x40\n      shl\n      dup2\n      mstore\n      0x20\n      add\n        /* \"week7example2.sol\":609:618  bytes(\"\") */\n      mload(0x40)\n      dup1\n      0x20\n      add\n      0x40\n      mstore\n      dup1\n      0x00\n      dup2\n      mstore\n      pop\n        /* \"week7example2.sol\":555:656  Function({... */\n      dup2\n      mstore\n      0x20\n      add\n        /* \"week7example2.sol\":640:644  true */\n      0x01\n        /* \"week7example2.sol\":555:656  Function({... */\n      iszero\n      iszero\n      dup2\n      mstore\n      pop\n        /* \"week7example2.sol\":531:540  functions */\n      0x00\n        /* \"week7example2.sol\":531:552  functions[msg.sender] */\n      dup1\n        /* \"week7example2.sol\":541:551  msg.sender */\n      caller\n        /* \"week7example2.sol\":531:552  functions[msg.sender] */\n      0xffffffffffffffffffffffffffffffffffffffff\n      and\n      0xffffffffffffffffffffffffffffffffffffffff\n      and\n      dup2\n      mstore\n      0x20\n      add\n      swap1\n      dup2\n      mstore\n      0x20\n      add\n      0x00\n      keccak256\n        /* \"week7example2.sol\":531:656  functions[msg.sender] = Function({... */\n      0x00\n      dup3\n      add\n      mload\n      dup1\n      0x60\n      shr\n      swap1\n      0x40\n      shr\n      0xffffffff\n      and\n      dup3\n      0x00\n      add\n      exp(0x0100, 0x00)\n      dup2\n      sload\n      dup2\n      0xffffffffffffffffffffffffffffffffffffffffffffffff\n      mul\n      not\n      and\n      swap1\n      dup5\n      dup5\n      0xffffffff\n      and\n      swap1\n      0xffffffffffffffffffffffffffffffffffffffff\n      and\n      0x20\n      shl\n      or\n      mul\n      or\n      swap1\n      sstore\n      pop\n      pop\n      0x20\n      dup3\n      add\n      mload\n      dup2\n      0x01\n      add\n      swap1\n      dup2\n      tag_43\n      swap2\n      swap1\n      tag_41\n      jump\t// in\n    tag_43:\n      pop\n      0x40\n      dup3\n      add\n      mload\n      dup2\n      0x02\n      add\n      exp(0x0100, 0x00)\n      dup2\n      sload\n      dup2\n      0xff\n      mul\n      not\n      and\n      swap1\n      dup4\n      iszero\n      iszero\n      mul\n      or\n      swap1\n      sstore\n      pop\n      swap1\n      pop\n      pop\n        /* \"week7example2.sol\":427:664  function addFunction(function(bytes memory) external pure returns (bytes memory) f) external {... */\n      pop\n      pop\n      jump\t// out\n        /* \"week7example2.sol\":994:1120  function getResult() external view functionIsSet returns (bytes memory) {... */\n    tag_17:\n        /* \"week7example2.sol\":1052:1064  bytes memory */\n      0x60\n        /* \"week7example2.sol\":716:725  functions */\n      0x00\n        /* \"week7example2.sol\":716:737  functions[msg.sender] */\n      dup1\n        /* \"week7example2.sol\":726:736  msg.sender */\n      caller\n        /* \"week7example2.sol\":716:737  functions[msg.sender] */\n      0xffffffffffffffffffffffffffffffffffffffff\n      and\n      0xffffffffffffffffffffffffffffffffffffffff\n      and\n      dup2\n      mstore\n      0x20\n      add\n      swap1\n      dup2\n      mstore\n      0x20\n      add\n      0x00\n      keccak256\n        /* \"week7example2.sol\":716:743  functions[msg.sender].isSet */\n      0x02\n      add\n      0x00\n      swap1\n      sload\n      swap1\n      0x0100\n      exp\n      swap1\n      div\n      0xff\n      and\n        /* \"week7example2.sol\":708:766  require(functions[msg.sender].isSet, \"Function not found\") */\n      tag_45\n      jumpi\n      mload(0x40)\n      0x08c379a000000000000000000000000000000000000000000000000000000000\n      dup2\n      mstore\n      0x04\n      add\n      tag_46\n      swap1\n      tag_33\n      jump\t// in\n    tag_46:\n      mload(0x40)\n      dup1\n      swap2\n      sub\n      swap1\n      revert\n    tag_45:\n        /* \"week7example2.sol\":1084:1093  functions */\n      0x00\n        /* \"week7example2.sol\":1084:1105  functions[msg.sender] */\n      dup1\n        /* \"week7example2.sol\":1094:1104  msg.sender */\n      caller\n        /* \"week7example2.sol\":1084:1105  functions[msg.sender] */\n      0xffffffffffffffffffffffffffffffffffffffff\n      and\n      0xffffffffffffffffffffffffffffffffffffffff\n      and\n      dup2\n      mstore\n      0x20\n      add\n      swap1\n      dup2\n      mstore\n      0x20\n      add\n      0x00\n      keccak256\n        /* \"week7example2.sol\":1084:1112  functions[msg.sender].result */\n      0x01\n      add\n        /* \"week7example2.sol\":1077:1112  return functions[msg.sender].result */\n      dup1\n      sload\n      tag_48\n      swap1\n      tag_49\n      jump\t// in\n    tag_48:\n      dup1\n      0x1f\n      add\n      0x20\n      dup1\n      swap2\n      div\n      mul\n      0x20\n      add\n      mload(0x40)\n      swap1\n      dup2\n      add\n      0x40\n      mstore\n      dup1\n      swap3\n      swap2\n      swap1\n      dup2\n      dup2\n      mstore\n      0x20\n      add\n      dup3\n      dup1\n      sload\n      tag_50\n      swap1\n      tag_49\n      jump\t// in\n    tag_50:\n      dup1\n      iszero\n      tag_51\n      jumpi\n      dup1\n      0x1f\n      lt\n      tag_52\n      jumpi\n      0x0100\n      dup1\n      dup4\n      sload\n      div\n      mul\n      dup4\n      mstore\n      swap2\n      0x20\n      add\n      swap2\n      jump(tag_51)\n    tag_52:\n      dup3\n      add\n      swap2\n      swap1\n      0x00\n      mstore\n      keccak256(0x00, 0x20)\n      swap1\n    tag_53:\n      dup2\n      sload\n      dup2\n      mstore\n      swap1\n      0x01\n      add\n      swap1\n      0x20\n      add\n      dup1\n      dup4\n      gt\n      tag_53\n      jumpi\n      dup3\n      swap1\n      sub\n      0x1f\n      and\n      dup3\n      add\n      swap2\n    tag_51:\n      pop\n      pop\n      pop\n      pop\n      pop\n      swap1\n      pop\n        /* \"week7example2.sol\":994:1120  function getResult() external view functionIsSet returns (bytes memory) {... */\n      swap1\n      jump\t// out\n        /* \"week7example2.sol\":241:286  mapping(address => Function) public functions */\n    tag_23:\n      mstore(0x20, 0x00)\n      dup1\n      0x00\n      mstore\n      keccak256(0x00, 0x40)\n      0x00\n      swap2\n      pop\n      swap1\n      pop\n      dup1\n      0x00\n      add\n      0x00\n      swap1\n      sload\n      swap1\n      0x0100\n      exp\n      swap1\n      div\n      dup1\n      0x20\n      shr\n      0xffffffffffffffffffffffffffffffffffffffff\n      and\n      swap1\n      0xffffffff\n      and\n      swap1\n      swap2\n      dup1\n      0x01\n      add\n      dup1\n      sload\n      tag_54\n      swap1\n      tag_49\n      jump\t// in\n    tag_54:\n      dup1\n      0x1f\n      add\n      0x20\n      dup1\n      swap2\n      div\n      mul\n      0x20\n      add\n      mload(0x40)\n      swap1\n      dup2\n      add\n      0x40\n      mstore\n      dup1\n      swap3\n      swap2\n      swap1\n      dup2\n      dup2\n      mstore\n      0x20\n      add\n      dup3\n      dup1\n      sload\n      tag_55\n      swap1\n      tag_49\n      jump\t// in\n    tag_55:\n      dup1\n      iszero\n      tag_56\n      jumpi\n      dup1\n      0x1f\n      lt\n      tag_57\n      jumpi\n      0x0100\n      dup1\n      dup4\n      sload\n      div\n      mul\n      dup4\n      mstore\n      swap2\n      0x20\n      add\n      swap2\n      jump(tag_56)\n    tag_57:\n      dup3\n      add\n      swap2\n      swap1\n      0x00\n      mstore\n      keccak256(0x00, 0x20)\n      swap1\n    tag_58:\n      dup2\n      sload\n      dup2\n      mstore\n      swap1\n      0x01\n      add\n      swap1\n      0x20\n      add\n      dup1\n      dup4\n      gt\n      tag_58\n      jumpi\n      dup3\n      swap1\n      sub\n      0x1f\n      and\n      dup3\n      add\n      swap2\n    tag_56:\n      pop\n      pop\n      pop\n      pop\n      pop\n      swap1\n      dup1\n      0x02\n      add\n      0x00\n      swap1\n      sload\n      swap1\n      0x0100\n      exp\n      swap1\n      div\n      0xff\n      and\n      swap1\n      pop\n      dup5\n      jump\t// out\n        /* \"week7example2.sol\":343:419  function emptyFunction(bytes memory) external pure returns (bytes memory) {} */\n    tag_28:\n        /* \"week7example2.sol\":403:415  bytes memory */\n      0x60\n        /* \"week7example2.sol\":343:419  function emptyFunction(bytes memory) external pure returns (bytes memory) {} */\n      swap2\n      swap1\n      pop\n      jump\t// out\n        /* \"#utility.yul\":7:82   */\n    tag_60:\n        /* \"#utility.yul\":40:46   */\n      0x00\n        /* \"#utility.yul\":73:75   */\n      0x40\n        /* \"#utility.yul\":67:76   */\n      mload\n        /* \"#utility.yul\":57:76   */\n      swap1\n      pop\n        /* \"#utility.yul\":7:82   */\n      swap1\n      jump\t// out\n        /* \"#utility.yul\":88:205   */\n    tag_61:\n        /* \"#utility.yul\":197:198   */\n      0x00\n        /* \"#utility.yul\":194:195   */\n      dup1\n        /* \"#utility.yul\":187:199   */\n      revert\n        /* \"#utility.yul\":211:328   */\n    tag_62:\n        /* \"#utility.yul\":320:321   */\n      0x00\n        /* \"#utility.yul\":317:318   */\n      dup1\n        /* \"#utility.yul\":310:322   */\n      revert\n        /* \"#utility.yul\":334:451   */\n    tag_63:\n        /* \"#utility.yul\":443:444   */\n      0x00\n        /* \"#utility.yul\":440:441   */\n      dup1\n        /* \"#utility.yul\":433:445   */\n      revert\n        /* \"#utility.yul\":457:574   */\n    tag_64:\n        /* \"#utility.yul\":566:567   */\n      0x00\n        /* \"#utility.yul\":563:564   */\n      dup1\n        /* \"#utility.yul\":556:568   */\n      revert\n        /* \"#utility.yul\":580:682   */\n    tag_65:\n        /* \"#utility.yul\":621:627   */\n      0x00\n        /* \"#utility.yul\":672:674   */\n      0x1f\n        /* \"#utility.yul\":668:675   */\n      not\n        /* \"#utility.yul\":663:665   */\n      0x1f\n        /* \"#utility.yul\":656:661   */\n      dup4\n        /* \"#utility.yul\":652:666   */\n      add\n        /* \"#utility.yul\":648:676   */\n      and\n        /* \"#utility.yul\":638:676   */\n      swap1\n      pop\n        /* \"#utility.yul\":580:682   */\n      swap2\n      swap1\n      pop\n      jump\t// out\n        /* \"#utility.yul\":688:868   */\n    tag_66:\n        /* \"#utility.yul\":736:813   */\n      0x4e487b7100000000000000000000000000000000000000000000000000000000\n        /* \"#utility.yul\":733:734   */\n      0x00\n        /* \"#utility.yul\":726:814   */\n      mstore\n        /* \"#utility.yul\":833:837   */\n      0x41\n        /* \"#utility.yul\":830:831   */\n      0x04\n        /* \"#utility.yul\":823:838   */\n      mstore\n        /* \"#utility.yul\":857:861   */\n      0x24\n        /* \"#utility.yul\":854:855   */\n      0x00\n        /* \"#utility.yul\":847:862   */\n      revert\n        /* \"#utility.yul\":874:1155   */\n    tag_67:\n        /* \"#utility.yul\":957:984   */\n      tag_127\n        /* \"#utility.yul\":979:983   */\n      dup3\n        /* \"#utility.yul\":957:984   */\n      tag_65\n      jump\t// in\n    tag_127:\n        /* \"#utility.yul\":949:955   */\n      dup2\n        /* \"#utility.yul\":945:985   */\n      add\n        /* \"#utility.yul\":1087:1093   */\n      dup2\n        /* \"#utility.yul\":1075:1085   */\n      dup2\n        /* \"#utility.yul\":1072:1094   */\n      lt\n        /* \"#utility.yul\":1051:1069   */\n      0xffffffffffffffff\n        /* \"#utility.yul\":1039:1049   */\n      dup3\n        /* \"#utility.yul\":1036:1070   */\n      gt\n        /* \"#utility.yul\":1033:1095   */\n      or\n        /* \"#utility.yul\":1030:1118   */\n      iszero\n      tag_128\n      jumpi\n        /* \"#utility.yul\":1098:1116   */\n      tag_129\n      tag_66\n      jump\t// in\n    tag_129:\n        /* \"#utility.yul\":1030:1118   */\n    tag_128:\n        /* \"#utility.yul\":1138:1148   */\n      dup1\n        /* \"#utility.yul\":1134:1136   */\n      0x40\n        /* \"#utility.yul\":1127:1149   */\n      mstore\n        /* \"#utility.yul\":917:1155   */\n      pop\n        /* \"#utility.yul\":874:1155   */\n      pop\n      pop\n      jump\t// out\n        /* \"#utility.yul\":1161:1290   */\n    tag_68:\n        /* \"#utility.yul\":1195:1201   */\n      0x00\n        /* \"#utility.yul\":1222:1242   */\n      tag_131\n      tag_60\n      jump\t// in\n    tag_131:\n        /* \"#utility.yul\":1212:1242   */\n      swap1\n      pop\n        /* \"#utility.yul\":1251:1284   */\n      tag_132\n        /* \"#utility.yul\":1279:1283   */\n      dup3\n        /* \"#utility.yul\":1271:1277   */\n      dup3\n        /* \"#utility.yul\":1251:1284   */\n      tag_67\n      jump\t// in\n    tag_132:\n        /* \"#utility.yul\":1161:1290   */\n      swap2\n      swap1\n      pop\n      jump\t// out\n        /* \"#utility.yul\":1296:1603   */\n    tag_69:\n        /* \"#utility.yul\":1357:1361   */\n      0x00\n        /* \"#utility.yul\":1447:1465   */\n      0xffffffffffffffff\n        /* \"#utility.yul\":1439:1445   */\n      dup3\n        /* \"#utility.yul\":1436:1466   */\n      gt\n        /* \"#utility.yul\":1433:1489   */\n      iszero\n      tag_134\n      jumpi\n        /* \"#utility.yul\":1469:1487   */\n      tag_135\n      tag_66\n      jump\t// in\n    tag_135:\n        /* \"#utility.yul\":1433:1489   */\n    tag_134:\n        /* \"#utility.yul\":1507:1536   */\n      tag_136\n        /* \"#utility.yul\":1529:1535   */\n      dup3\n        /* \"#utility.yul\":1507:1536   */\n      tag_65\n      jump\t// in\n    tag_136:\n        /* \"#utility.yul\":1499:1536   */\n      swap1\n      pop\n        /* \"#utility.yul\":1591:1595   */\n      0x20\n        /* \"#utility.yul\":1585:1589   */\n      dup2\n        /* \"#utility.yul\":1581:1596   */\n      add\n        /* \"#utility.yul\":1573:1596   */\n      swap1\n      pop\n        /* \"#utility.yul\":1296:1603   */\n      swap2\n      swap1\n      pop\n      jump\t// out\n        /* \"#utility.yul\":1609:1757   */\n    tag_70:\n        /* \"#utility.yul\":1707:1713   */\n      dup3\n        /* \"#utility.yul\":1702:1705   */\n      dup2\n        /* \"#utility.yul\":1697:1700   */\n      dup4\n        /* \"#utility.yul\":1684:1714   */\n      calldatacopy\n        /* \"#utility.yul\":1748:1749   */\n      0x00\n        /* \"#utility.yul\":1739:1745   */\n      dup4\n        /* \"#utility.yul\":1734:1737   */\n      dup4\n        /* \"#utility.yul\":1730:1746   */\n      add\n        /* \"#utility.yul\":1723:1750   */\n      mstore\n        /* \"#utility.yul\":1609:1757   */\n      pop\n      pop\n      pop\n      jump\t// out\n        /* \"#utility.yul\":1763:2186   */\n    tag_71:\n        /* \"#utility.yul\":1840:1845   */\n      0x00\n        /* \"#utility.yul\":1865:1930   */\n      tag_139\n        /* \"#utility.yul\":1881:1929   */\n      tag_140\n        /* \"#utility.yul\":1922:1928   */\n      dup5\n        /* \"#utility.yul\":1881:1929   */\n      tag_69\n      jump\t// in\n    tag_140:\n        /* \"#utility.yul\":1865:1930   */\n      tag_68\n      jump\t// in\n    tag_139:\n        /* \"#utility.yul\":1856:1930   */\n      swap1\n      pop\n        /* \"#utility.yul\":1953:1959   */\n      dup3\n        /* \"#utility.yul\":1946:1951   */\n      dup2\n        /* \"#utility.yul\":1939:1960   */\n      mstore\n        /* \"#utility.yul\":1991:1995   */\n      0x20\n        /* \"#utility.yul\":1984:1989   */\n      dup2\n        /* \"#utility.yul\":1980:1996   */\n      add\n        /* \"#utility.yul\":2029:2032   */\n      dup5\n        /* \"#utility.yul\":2020:2026   */\n      dup5\n        /* \"#utility.yul\":2015:2018   */\n      dup5\n        /* \"#utility.yul\":2011:2027   */\n      add\n        /* \"#utility.yul\":2008:2033   */\n      gt\n        /* \"#utility.yul\":2005:2117   */\n      iszero\n      tag_141\n      jumpi\n        /* \"#utility.yul\":2036:2115   */\n      tag_142\n      tag_64\n      jump\t// in\n    tag_142:\n        /* \"#utility.yul\":2005:2117   */\n    tag_141:\n        /* \"#utility.yul\":2126:2180   */\n      tag_143\n        /* \"#utility.yul\":2173:2179   */\n      dup5\n        /* \"#utility.yul\":2168:2171   */\n      dup3\n        /* \"#utility.yul\":2163:2166   */\n      dup6\n        /* \"#utility.yul\":2126:2180   */\n      tag_70\n      jump\t// in\n    tag_143:\n        /* \"#utility.yul\":1846:2186   */\n      pop\n        /* \"#utility.yul\":1763:2186   */\n      swap4\n      swap3\n      pop\n      pop\n      pop\n      jump\t// out\n        /* \"#utility.yul\":2205:2543   */\n    tag_72:\n        /* \"#utility.yul\":2260:2265   */\n      0x00\n        /* \"#utility.yul\":2309:2312   */\n      dup3\n        /* \"#utility.yul\":2302:2306   */\n      0x1f\n        /* \"#utility.yul\":2294:2300   */\n      dup4\n        /* \"#utility.yul\":2290:2307   */\n      add\n        /* \"#utility.yul\":2286:2313   */\n      slt\n        /* \"#utility.yul\":2276:2398   */\n      tag_145\n      jumpi\n        /* \"#utility.yul\":2317:2396   */\n      tag_146\n      tag_63\n      jump\t// in\n    tag_146:\n        /* \"#utility.yul\":2276:2398   */\n    tag_145:\n        /* \"#utility.yul\":2434:2440   */\n      dup2\n        /* \"#utility.yul\":2421:2441   */\n      calldataload\n        /* \"#utility.yul\":2459:2537   */\n      tag_147\n        /* \"#utility.yul\":2533:2536   */\n      dup5\n        /* \"#utility.yul\":2525:2531   */\n      dup3\n        /* \"#utility.yul\":2518:2522   */\n      0x20\n        /* \"#utility.yul\":2510:2516   */\n      dup7\n        /* \"#utility.yul\":2506:2523   */\n      add\n        /* \"#utility.yul\":2459:2537   */\n      tag_71\n      jump\t// in\n    tag_147:\n        /* \"#utility.yul\":2450:2537   */\n      swap2\n      pop\n        /* \"#utility.yul\":2266:2543   */\n      pop\n        /* \"#utility.yul\":2205:2543   */\n      swap3\n      swap2\n      pop\n      pop\n      jump\t// out\n        /* \"#utility.yul\":2549:3056   */\n    tag_10:\n        /* \"#utility.yul\":2617:2623   */\n      0x00\n        /* \"#utility.yul\":2666:2668   */\n      0x20\n        /* \"#utility.yul\":2654:2663   */\n      dup3\n        /* \"#utility.yul\":2645:2652   */\n      dup5\n        /* \"#utility.yul\":2641:2664   */\n      sub\n        /* \"#utility.yul\":2637:2669   */\n      slt\n        /* \"#utility.yul\":2634:2753   */\n      iszero\n      tag_149\n      jumpi\n        /* \"#utility.yul\":2672:2751   */\n      tag_150\n      tag_61\n      jump\t// in\n    tag_150:\n        /* \"#utility.yul\":2634:2753   */\n    tag_149:\n        /* \"#utility.yul\":2820:2821   */\n      0x00\n        /* \"#utility.yul\":2809:2818   */\n      dup3\n        /* \"#utility.yul\":2805:2822   */\n      add\n        /* \"#utility.yul\":2792:2823   */\n      calldataload\n        /* \"#utility.yul\":2850:2868   */\n      0xffffffffffffffff\n        /* \"#utility.yul\":2842:2848   */\n      dup2\n        /* \"#utility.yul\":2839:2869   */\n      gt\n        /* \"#utility.yul\":2836:2953   */\n      iszero\n      tag_151\n      jumpi\n        /* \"#utility.yul\":2872:2951   */\n      tag_152\n      tag_62\n      jump\t// in\n    tag_152:\n        /* \"#utility.yul\":2836:2953   */\n    tag_151:\n        /* \"#utility.yul\":2977:3039   */\n      tag_153\n        /* \"#utility.yul\":3031:3038   */\n      dup5\n        /* \"#utility.yul\":3022:3028   */\n      dup3\n        /* \"#utility.yul\":3011:3020   */\n      dup6\n        /* \"#utility.yul\":3007:3029   */\n      add\n        /* \"#utility.yul\":2977:3039   */\n      tag_72\n      jump\t// in\n    tag_153:\n        /* \"#utility.yul\":2967:3039   */\n      swap2\n      pop\n        /* \"#utility.yul\":2763:3049   */\n      pop\n        /* \"#utility.yul\":2549:3056   */\n      swap3\n      swap2\n      pop\n      pop\n      jump\t// out\n        /* \"#utility.yul\":3062:3212   */\n    tag_73:\n        /* \"#utility.yul\":3099:3106   */\n      0x00\n        /* \"#utility.yul\":3139:3205   */\n      0xffffffffffffffffffffffffffffffffffffffffffffffff0000000000000000\n        /* \"#utility.yul\":3132:3137   */\n      dup3\n        /* \"#utility.yul\":3128:3206   */\n      and\n        /* \"#utility.yul\":3117:3206   */\n      swap1\n      pop\n        /* \"#utility.yul\":3062:3212   */\n      swap2\n      swap1\n      pop\n      jump\t// out\n        /* \"#utility.yul\":3218:3380   */\n    tag_74:\n        /* \"#utility.yul\":3321:3328   */\n      0x00\n        /* \"#utility.yul\":3350:3374   */\n      tag_156\n        /* \"#utility.yul\":3368:3373   */\n      dup3\n        /* \"#utility.yul\":3350:3374   */\n      tag_73\n      jump\t// in\n    tag_156:\n        /* \"#utility.yul\":3339:3374   */\n      swap1\n      pop\n        /* \"#utility.yul\":3218:3380   */\n      swap2\n      swap1\n      pop\n      jump\t// out\n        /* \"#utility.yul\":3386:3640   */\n    tag_75:\n        /* \"#utility.yul\":3525:3615   */\n      tag_158\n        /* \"#utility.yul\":3609:3614   */\n      dup2\n        /* \"#utility.yul\":3525:3615   */\n      tag_74\n      jump\t// in\n    tag_158:\n        /* \"#utility.yul\":3518:3523   */\n      dup2\n        /* \"#utility.yul\":3515:3616   */\n      eq\n        /* \"#utility.yul\":3505:3634   */\n      tag_159\n      jumpi\n        /* \"#utility.yul\":3630:3631   */\n      0x00\n        /* \"#utility.yul\":3627:3628   */\n      dup1\n        /* \"#utility.yul\":3620:3632   */\n      revert\n        /* \"#utility.yul\":3505:3634   */\n    tag_159:\n        /* \"#utility.yul\":3386:3640   */\n      pop\n      jump\t// out\n        /* \"#utility.yul\":3646:3911   */\n    tag_76:\n        /* \"#utility.yul\":3758:3761   */\n      0x00\n        /* \"#utility.yul\":3792:3798   */\n      dup2\n        /* \"#utility.yul\":3779:3799   */\n      calldataload\n        /* \"#utility.yul\":3772:3799   */\n      swap1\n      pop\n        /* \"#utility.yul\":3808:3905   */\n      tag_161\n        /* \"#utility.yul\":3901:3904   */\n      dup2\n        /* \"#utility.yul\":3808:3905   */\n      tag_75\n      jump\t// in\n    tag_161:\n        /* \"#utility.yul\":3646:3911   */\n      swap3\n      swap2\n      pop\n      pop\n      jump\t// out\n        /* \"#utility.yul\":3917:4021   */\n    tag_77:\n        /* \"#utility.yul\":3960:3968   */\n      0x00\n        /* \"#utility.yul\":4008:4013   */\n      dup2\n        /* \"#utility.yul\":4004:4006   */\n      0x20\n        /* \"#utility.yul\":4000:4014   */\n      shr\n        /* \"#utility.yul\":3979:4014   */\n      swap1\n      pop\n        /* \"#utility.yul\":3917:4021   */\n      swap2\n      swap1\n      pop\n      jump\t// out\n        /* \"#utility.yul\":4027:4131   */\n    tag_78:\n        /* \"#utility.yul\":4070:4078   */\n      0x00\n        /* \"#utility.yul\":4118:4123   */\n      dup2\n        /* \"#utility.yul\":4114:4116   */\n      0x40\n        /* \"#utility.yul\":4110:4124   */\n      shr\n        /* \"#utility.yul\":4089:4124   */\n      swap1\n      pop\n        /* \"#utility.yul\":4027:4131   */\n      swap2\n      swap1\n      pop\n      jump\t// out\n        /* \"#utility.yul\":4137:4358   */\n    tag_79:\n        /* \"#utility.yul\":4186:4190   */\n      0x00\n        /* \"#utility.yul\":4192:4200   */\n      dup1\n        /* \"#utility.yul\":4223:4256   */\n      tag_165\n        /* \"#utility.yul\":4247:4255   */\n      dup4\n        /* \"#utility.yul\":4223:4256   */\n      tag_78\n      jump\t// in\n    tag_165:\n        /* \"#utility.yul\":4211:4256   */\n      swap3\n      pop\n        /* \"#utility.yul\":4291:4301   */\n      0xffffffff\n        /* \"#utility.yul\":4281:4289   */\n      dup4\n        /* \"#utility.yul\":4277:4302   */\n      and\n        /* \"#utility.yul\":4265:4302   */\n      swap1\n      pop\n        /* \"#utility.yul\":4319:4352   */\n      tag_166\n        /* \"#utility.yul\":4343:4351   */\n      dup4\n        /* \"#utility.yul\":4319:4352   */\n      tag_77\n      jump\t// in\n    tag_166:\n        /* \"#utility.yul\":4311:4352   */\n      swap2\n      pop\n        /* \"#utility.yul\":4137:4358   */\n      swap2\n      pop\n      swap2\n      jump\t// out\n        /* \"#utility.yul\":4364:4678   */\n    tag_80:\n        /* \"#utility.yul\":4484:4488   */\n      0x00\n        /* \"#utility.yul\":4490:4507   */\n      dup1\n        /* \"#utility.yul\":4545:4672   */\n      tag_168\n        /* \"#utility.yul\":4572:4671   */\n      tag_169\n        /* \"#utility.yul\":4667:4670   */\n      dup6\n        /* \"#utility.yul\":4659:4665   */\n      dup6\n        /* \"#utility.yul\":4572:4671   */\n      tag_76\n      jump\t// in\n    tag_169:\n        /* \"#utility.yul\":4545:4672   */\n      tag_79\n      jump\t// in\n    tag_168:\n        /* \"#utility.yul\":4518:4672   */\n      swap2\n      pop\n      swap2\n      pop\n        /* \"#utility.yul\":4364:4678   */\n      swap3\n      pop\n      swap3\n      swap1\n      pop\n      jump\t// out\n        /* \"#utility.yul\":4684:5169   */\n    tag_14:\n        /* \"#utility.yul\":4809:4815   */\n      0x00\n        /* \"#utility.yul\":4817:4823   */\n      dup1\n        /* \"#utility.yul\":4866:4868   */\n      0x20\n        /* \"#utility.yul\":4854:4863   */\n      dup4\n        /* \"#utility.yul\":4845:4852   */\n      dup6\n        /* \"#utility.yul\":4841:4864   */\n      sub\n        /* \"#utility.yul\":4837:4869   */\n      slt\n        /* \"#utility.yul\":4834:4953   */\n      iszero\n      tag_171\n      jumpi\n        /* \"#utility.yul\":4872:4951   */\n      tag_172\n      tag_61\n      jump\t// in\n    tag_172:\n        /* \"#utility.yul\":4834:4953   */\n    tag_171:\n        /* \"#utility.yul\":4992:4993   */\n      0x00\n        /* \"#utility.yul\":5025:5152   */\n      tag_173\n        /* \"#utility.yul\":5144:5151   */\n      dup6\n        /* \"#utility.yul\":5135:5141   */\n      dup3\n        /* \"#utility.yul\":5124:5133   */\n      dup7\n        /* \"#utility.yul\":5120:5142   */\n      add\n        /* \"#utility.yul\":5025:5152   */\n      tag_80\n      jump\t// in\n    tag_173:\n        /* \"#utility.yul\":5007:5152   */\n      swap3\n      pop\n      swap3\n      pop\n        /* \"#utility.yul\":4963:5162   */\n      pop\n        /* \"#utility.yul\":4684:5169   */\n      swap3\n      pop\n      swap3\n      swap1\n      pop\n      jump\t// out\n        /* \"#utility.yul\":5175:5273   */\n    tag_81:\n        /* \"#utility.yul\":5226:5232   */\n      0x00\n        /* \"#utility.yul\":5260:5265   */\n      dup2\n        /* \"#utility.yul\":5254:5266   */\n      mload\n        /* \"#utility.yul\":5244:5266   */\n      swap1\n      pop\n        /* \"#utility.yul\":5175:5273   */\n      swap2\n      swap1\n      pop\n      jump\t// out\n        /* \"#utility.yul\":5279:5447   */\n    tag_82:\n        /* \"#utility.yul\":5362:5373   */\n      0x00\n        /* \"#utility.yul\":5396:5402   */\n      dup3\n        /* \"#utility.yul\":5391:5394   */\n      dup3\n        /* \"#utility.yul\":5384:5403   */\n      mstore\n        /* \"#utility.yul\":5436:5440   */\n      0x20\n        /* \"#utility.yul\":5431:5434   */\n      dup3\n        /* \"#utility.yul\":5427:5441   */\n      add\n        /* \"#utility.yul\":5412:5441   */\n      swap1\n      pop\n        /* \"#utility.yul\":5279:5447   */\n      swap3\n      swap2\n      pop\n      pop\n      jump\t// out\n        /* \"#utility.yul\":5453:5592   */\n    tag_83:\n        /* \"#utility.yul\":5542:5548   */\n      dup3\n        /* \"#utility.yul\":5537:5540   */\n      dup2\n        /* \"#utility.yul\":5532:5535   */\n      dup4\n        /* \"#utility.yul\":5526:5549   */\n      mcopy\n        /* \"#utility.yul\":5583:5584   */\n      0x00\n        /* \"#utility.yul\":5574:5580   */\n      dup4\n        /* \"#utility.yul\":5569:5572   */\n      dup4\n        /* \"#utility.yul\":5565:5581   */\n      add\n        /* \"#utility.yul\":5558:5585   */\n      mstore\n        /* \"#utility.yul\":5453:5592   */\n      pop\n      pop\n      pop\n      jump\t// out\n        /* \"#utility.yul\":5598:5971   */\n    tag_84:\n        /* \"#utility.yul\":5684:5687   */\n      0x00\n        /* \"#utility.yul\":5712:5750   */\n      tag_178\n        /* \"#utility.yul\":5744:5749   */\n      dup3\n        /* \"#utility.yul\":5712:5750   */\n      tag_81\n      jump\t// in\n    tag_178:\n        /* \"#utility.yul\":5766:5836   */\n      tag_179\n        /* \"#utility.yul\":5829:5835   */\n      dup2\n        /* \"#utility.yul\":5824:5827   */\n      dup6\n        /* \"#utility.yul\":5766:5836   */\n      tag_82\n      jump\t// in\n    tag_179:\n        /* \"#utility.yul\":5759:5836   */\n      swap4\n      pop\n        /* \"#utility.yul\":5845:5910   */\n      tag_180\n        /* \"#utility.yul\":5903:5909   */\n      dup2\n        /* \"#utility.yul\":5898:5901   */\n      dup6\n        /* \"#utility.yul\":5891:5895   */\n      0x20\n        /* \"#utility.yul\":5884:5889   */\n      dup7\n        /* \"#utility.yul\":5880:5896   */\n      add\n        /* \"#utility.yul\":5845:5910   */\n      tag_83\n      jump\t// in\n    tag_180:\n        /* \"#utility.yul\":5935:5964   */\n      tag_181\n        /* \"#utility.yul\":5957:5963   */\n      dup2\n        /* \"#utility.yul\":5935:5964   */\n      tag_65\n      jump\t// in\n    tag_181:\n        /* \"#utility.yul\":5930:5933   */\n      dup5\n        /* \"#utility.yul\":5926:5965   */\n      add\n        /* \"#utility.yul\":5919:5965   */\n      swap2\n      pop\n        /* \"#utility.yul\":5688:5971   */\n      pop\n        /* \"#utility.yul\":5598:5971   */\n      swap3\n      swap2\n      pop\n      pop\n      jump\t// out\n        /* \"#utility.yul\":5977:6286   */\n    tag_19:\n        /* \"#utility.yul\":6088:6092   */\n      0x00\n        /* \"#utility.yul\":6126:6128   */\n      0x20\n        /* \"#utility.yul\":6115:6124   */\n      dup3\n        /* \"#utility.yul\":6111:6129   */\n      add\n        /* \"#utility.yul\":6103:6129   */\n      swap1\n      pop\n        /* \"#utility.yul\":6175:6184   */\n      dup2\n        /* \"#utility.yul\":6169:6173   */\n      dup2\n        /* \"#utility.yul\":6165:6185   */\n      sub\n        /* \"#utility.yul\":6161:6162   */\n      0x00\n        /* \"#utility.yul\":6150:6159   */\n      dup4\n        /* \"#utility.yul\":6146:6163   */\n      add\n        /* \"#utility.yul\":6139:6186   */\n      mstore\n        /* \"#utility.yul\":6203:6279   */\n      tag_183\n        /* \"#utility.yul\":6274:6278   */\n      dup2\n        /* \"#utility.yul\":6265:6271   */\n      dup5\n        /* \"#utility.yul\":6203:6279   */\n      tag_84\n      jump\t// in\n    tag_183:\n        /* \"#utility.yul\":6195:6279   */\n      swap1\n      pop\n        /* \"#utility.yul\":5977:6286   */\n      swap3\n      swap2\n      pop\n      pop\n      jump\t// out\n        /* \"#utility.yul\":6292:6418   */\n    tag_85:\n        /* \"#utility.yul\":6329:6336   */\n      0x00\n        /* \"#utility.yul\":6369:6411   */\n      0xffffffffffffffffffffffffffffffffffffffff\n        /* \"#utility.yul\":6362:6367   */\n      dup3\n        /* \"#utility.yul\":6358:6412   */\n      and\n        /* \"#utility.yul\":6347:6412   */\n      swap1\n      pop\n        /* \"#utility.yul\":6292:6418   */\n      swap2\n      swap1\n      pop\n      jump\t// out\n        /* \"#utility.yul\":6424:6520   */\n    tag_86:\n        /* \"#utility.yul\":6461:6468   */\n      0x00\n        /* \"#utility.yul\":6490:6514   */\n      tag_186\n        /* \"#utility.yul\":6508:6513   */\n      dup3\n        /* \"#utility.yul\":6490:6514   */\n      tag_85\n      jump\t// in\n    tag_186:\n        /* \"#utility.yul\":6479:6514   */\n      swap1\n      pop\n        /* \"#utility.yul\":6424:6520   */\n      swap2\n      swap1\n      pop\n      jump\t// out\n        /* \"#utility.yul\":6526:6648   */\n    tag_87:\n        /* \"#utility.yul\":6599:6623   */\n      tag_188\n        /* \"#utility.yul\":6617:6622   */\n      dup2\n        /* \"#utility.yul\":6599:6623   */\n      tag_86\n      jump\t// in\n    tag_188:\n        /* \"#utility.yul\":6592:6597   */\n      dup2\n        /* \"#utility.yul\":6589:6624   */\n      eq\n        /* \"#utility.yul\":6579:6642   */\n      tag_189\n      jumpi\n        /* \"#utility.yul\":6638:6639   */\n      0x00\n        /* \"#utility.yul\":6635:6636   */\n      dup1\n        /* \"#utility.yul\":6628:6640   */\n      revert\n        /* \"#utility.yul\":6579:6642   */\n    tag_189:\n        /* \"#utility.yul\":6526:6648   */\n      pop\n      jump\t// out\n        /* \"#utility.yul\":6654:6793   */\n    tag_88:\n        /* \"#utility.yul\":6700:6705   */\n      0x00\n        /* \"#utility.yul\":6738:6744   */\n      dup2\n        /* \"#utility.yul\":6725:6745   */\n      calldataload\n        /* \"#utility.yul\":6716:6745   */\n      swap1\n      pop\n        /* \"#utility.yul\":6754:6787   */\n      tag_191\n        /* \"#utility.yul\":6781:6786   */\n      dup2\n        /* \"#utility.yul\":6754:6787   */\n      tag_87\n      jump\t// in\n    tag_191:\n        /* \"#utility.yul\":6654:6793   */\n      swap3\n      swap2\n      pop\n      pop\n      jump\t// out\n        /* \"#utility.yul\":6799:7128   */\n    tag_22:\n        /* \"#utility.yul\":6858:6864   */\n      0x00\n        /* \"#utility.yul\":6907:6909   */\n      0x20\n        /* \"#utility.yul\":6895:6904   */\n      dup3\n        /* \"#utility.yul\":6886:6893   */\n      dup5\n        /* \"#utility.yul\":6882:6905   */\n      sub\n        /* \"#utility.yul\":6878:6910   */\n      slt\n        /* \"#utility.yul\":6875:6994   */\n      iszero\n      tag_193\n      jumpi\n        /* \"#utility.yul\":6913:6992   */\n      tag_194\n      tag_61\n      jump\t// in\n    tag_194:\n        /* \"#utility.yul\":6875:6994   */\n    tag_193:\n        /* \"#utility.yul\":7033:7034   */\n      0x00\n        /* \"#utility.yul\":7058:7111   */\n      tag_195\n        /* \"#utility.yul\":7103:7110   */\n      dup5\n        /* \"#utility.yul\":7094:7100   */\n      dup3\n        /* \"#utility.yul\":7083:7092   */\n      dup6\n        /* \"#utility.yul\":7079:7101   */\n      add\n        /* \"#utility.yul\":7058:7111   */\n      tag_88\n      jump\t// in\n    tag_195:\n        /* \"#utility.yul\":7048:7111   */\n      swap2\n      pop\n        /* \"#utility.yul\":7004:7121   */\n      pop\n        /* \"#utility.yul\":6799:7128   */\n      swap3\n      swap2\n      pop\n      pop\n      jump\t// out\n        /* \"#utility.yul\":7134:7228   */\n    tag_89:\n        /* \"#utility.yul\":7167:7175   */\n      0x00\n        /* \"#utility.yul\":7215:7220   */\n      dup2\n        /* \"#utility.yul\":7211:7213   */\n      0x20\n        /* \"#utility.yul\":7207:7221   */\n      shl\n        /* \"#utility.yul\":7186:7221   */\n      swap1\n      pop\n        /* \"#utility.yul\":7134:7228   */\n      swap2\n      swap1\n      pop\n      jump\t// out\n        /* \"#utility.yul\":7234:7328   */\n    tag_90:\n        /* \"#utility.yul\":7267:7275   */\n      0x00\n        /* \"#utility.yul\":7315:7320   */\n      dup2\n        /* \"#utility.yul\":7311:7313   */\n      0x40\n        /* \"#utility.yul\":7307:7321   */\n      shl\n        /* \"#utility.yul\":7286:7321   */\n      swap1\n      pop\n        /* \"#utility.yul\":7234:7328   */\n      swap2\n      swap1\n      pop\n      jump\t// out\n        /* \"#utility.yul\":7334:7493   */\n    tag_91:\n        /* \"#utility.yul\":7391:7399   */\n      0x00\n        /* \"#utility.yul\":7422:7487   */\n      tag_199\n        /* \"#utility.yul\":7474:7484   */\n      0xffffffff\n        /* \"#utility.yul\":7464:7472   */\n      dup5\n        /* \"#utility.yul\":7460:7485   */\n      and\n        /* \"#utility.yul\":7439:7458   */\n      tag_200\n        /* \"#utility.yul\":7453:7457   */\n      dup5\n        /* \"#utility.yul\":7439:7458   */\n      tag_89\n      jump\t// in\n    tag_200:\n        /* \"#utility.yul\":7436:7486   */\n      or\n        /* \"#utility.yul\":7422:7487   */\n      tag_90\n      jump\t// in\n    tag_199:\n        /* \"#utility.yul\":7410:7487   */\n      swap1\n      pop\n        /* \"#utility.yul\":7334:7493   */\n      swap3\n      swap2\n      pop\n      pop\n      jump\t// out\n        /* \"#utility.yul\":7499:7782   */\n    tag_92:\n        /* \"#utility.yul\":7692:7699   */\n      0x00\n        /* \"#utility.yul\":7701:7714   */\n      dup1\n        /* \"#utility.yul\":7736:7740   */\n      dup3\n        /* \"#utility.yul\":7725:7740   */\n      swap2\n      pop\n        /* \"#utility.yul\":7766:7776   */\n      dup4\n        /* \"#utility.yul\":7749:7776   */\n      swap1\n      pop\n        /* \"#utility.yul\":7499:7782   */\n      swap3\n      pop\n      swap3\n      swap1\n      pop\n      jump\t// out\n        /* \"#utility.yul\":7788:8284   */\n    tag_93:\n        /* \"#utility.yul\":8028:8209   */\n      tag_203\n        /* \"#utility.yul\":8197:8208   */\n      dup3\n        /* \"#utility.yul\":8191:8195   */\n      dup3\n        /* \"#utility.yul\":8028:8209   */\n      tag_92\n      jump\t// in\n    tag_203:\n        /* \"#utility.yul\":8007:8209   */\n      swap3\n      pop\n      swap1\n      pop\n        /* \"#utility.yul\":8230:8277   */\n      tag_204\n        /* \"#utility.yul\":8265:8276   */\n      dup3\n        /* \"#utility.yul\":8259:8263   */\n      dup3\n        /* \"#utility.yul\":8230:8277   */\n      tag_91\n      jump\t// in\n    tag_204:\n        /* \"#utility.yul\":8225:8228   */\n      dup4\n        /* \"#utility.yul\":8218:8278   */\n      mstore\n        /* \"#utility.yul\":7788:8284   */\n      pop\n      pop\n      pop\n      jump\t// out\n        /* \"#utility.yul\":8290:8380   */\n    tag_94:\n        /* \"#utility.yul\":8324:8331   */\n      0x00\n        /* \"#utility.yul\":8367:8372   */\n      dup2\n        /* \"#utility.yul\":8360:8373   */\n      iszero\n        /* \"#utility.yul\":8353:8374   */\n      iszero\n        /* \"#utility.yul\":8342:8374   */\n      swap1\n      pop\n        /* \"#utility.yul\":8290:8380   */\n      swap2\n      swap1\n      pop\n      jump\t// out\n        /* \"#utility.yul\":8386:8495   */\n    tag_95:\n        /* \"#utility.yul\":8467:8488   */\n      tag_207\n        /* \"#utility.yul\":8482:8487   */\n      dup2\n        /* \"#utility.yul\":8467:8488   */\n      tag_94\n      jump\t// in\n    tag_207:\n        /* \"#utility.yul\":8462:8465   */\n      dup3\n        /* \"#utility.yul\":8455:8489   */\n      mstore\n        /* \"#utility.yul\":8386:8495   */\n      pop\n      pop\n      jump\t// out\n        /* \"#utility.yul\":8501:9298   */\n    tag_25:\n        /* \"#utility.yul\":8802:8806   */\n      0x00\n        /* \"#utility.yul\":8840:8842   */\n      0x60\n        /* \"#utility.yul\":8829:8838   */\n      dup3\n        /* \"#utility.yul\":8825:8843   */\n      add\n        /* \"#utility.yul\":8817:8843   */\n      swap1\n      pop\n        /* \"#utility.yul\":8853:9064   */\n      tag_209\n        /* \"#utility.yul\":9061:9062   */\n      0x00\n        /* \"#utility.yul\":9050:9059   */\n      dup4\n        /* \"#utility.yul\":9046:9063   */\n      add\n        /* \"#utility.yul\":9037:9043   */\n      dup7\n        /* \"#utility.yul\":9029:9035   */\n      dup9\n        /* \"#utility.yul\":8853:9064   */\n      tag_93\n      jump\t// in\n    tag_209:\n        /* \"#utility.yul\":9111:9120   */\n      dup2\n        /* \"#utility.yul\":9105:9109   */\n      dup2\n        /* \"#utility.yul\":9101:9121   */\n      sub\n        /* \"#utility.yul\":9096:9098   */\n      0x20\n        /* \"#utility.yul\":9085:9094   */\n      dup4\n        /* \"#utility.yul\":9081:9099   */\n      add\n        /* \"#utility.yul\":9074:9122   */\n      mstore\n        /* \"#utility.yul\":9139:9215   */\n      tag_210\n        /* \"#utility.yul\":9210:9214   */\n      dup2\n        /* \"#utility.yul\":9201:9207   */\n      dup6\n        /* \"#utility.yul\":9139:9215   */\n      tag_84\n      jump\t// in\n    tag_210:\n        /* \"#utility.yul\":9131:9215   */\n      swap1\n      pop\n        /* \"#utility.yul\":9225:9291   */\n      tag_211\n        /* \"#utility.yul\":9287:9289   */\n      0x40\n        /* \"#utility.yul\":9276:9285   */\n      dup4\n        /* \"#utility.yul\":9272:9290   */\n      add\n        /* \"#utility.yul\":9263:9269   */\n      dup5\n        /* \"#utility.yul\":9225:9291   */\n      tag_95\n      jump\t// in\n    tag_211:\n        /* \"#utility.yul\":8501:9298   */\n      swap6\n      swap5\n      pop\n      pop\n      pop\n      pop\n      pop\n      jump\t// out\n        /* \"#utility.yul\":9304:9473   */\n    tag_96:\n        /* \"#utility.yul\":9388:9399   */\n      0x00\n        /* \"#utility.yul\":9422:9428   */\n      dup3\n        /* \"#utility.yul\":9417:9420   */\n      dup3\n        /* \"#utility.yul\":9410:9429   */\n      mstore\n        /* \"#utility.yul\":9462:9466   */\n      0x20\n        /* \"#utility.yul\":9457:9460   */\n      dup3\n        /* \"#utility.yul\":9453:9467   */\n      add\n        /* \"#utility.yul\":9438:9467   */\n      swap1\n      pop\n        /* \"#utility.yul\":9304:9473   */\n      swap3\n      swap2\n      pop\n      pop\n      jump\t// out\n        /* \"#utility.yul\":9479:9647   */\n    tag_97:\n        /* \"#utility.yul\":9619:9639   */\n      0x46756e6374696f6e206e6f7420666f756e640000000000000000000000000000\n        /* \"#utility.yul\":9615:9616   */\n      0x00\n        /* \"#utility.yul\":9607:9613   */\n      dup3\n        /* \"#utility.yul\":9603:9617   */\n      add\n        /* \"#utility.yul\":9596:9640   */\n      mstore\n        /* \"#utility.yul\":9479:9647   */\n      pop\n      jump\t// out\n        /* \"#utility.yul\":9653:10019   */\n    tag_98:\n        /* \"#utility.yul\":9795:9798   */\n      0x00\n        /* \"#utility.yul\":9816:9883   */\n      tag_215\n        /* \"#utility.yul\":9880:9882   */\n      0x12\n        /* \"#utility.yul\":9875:9878   */\n      dup4\n        /* \"#utility.yul\":9816:9883   */\n      tag_96\n      jump\t// in\n    tag_215:\n        /* \"#utility.yul\":9809:9883   */\n      swap2\n      pop\n        /* \"#utility.yul\":9892:9985   */\n      tag_216\n        /* \"#utility.yul\":9981:9984   */\n      dup3\n        /* \"#utility.yul\":9892:9985   */\n      tag_97\n      jump\t// in\n    tag_216:\n        /* \"#utility.yul\":10010:10012   */\n      0x20\n        /* \"#utility.yul\":10005:10008   */\n      dup3\n        /* \"#utility.yul\":10001:10013   */\n      add\n        /* \"#utility.yul\":9994:10013   */\n      swap1\n      pop\n        /* \"#utility.yul\":9653:10019   */\n      swap2\n      swap1\n      pop\n      jump\t// out\n        /* \"#utility.yul\":10025:10444   */\n    tag_33:\n        /* \"#utility.yul\":10191:10195   */\n      0x00\n        /* \"#utility.yul\":10229:10231   */\n      0x20\n        /* \"#utility.yul\":10218:10227   */\n      dup3\n        /* \"#utility.yul\":10214:10232   */\n      add\n        /* \"#utility.yul\":10206:10232   */\n      swap1\n      pop\n        /* \"#utility.yul\":10278:10287   */\n      dup2\n        /* \"#utility.yul\":10272:10276   */\n      dup2\n        /* \"#utility.yul\":10268:10288   */\n      sub\n        /* \"#utility.yul\":10264:10265   */\n      0x00\n        /* \"#utility.yul\":10253:10262   */\n      dup4\n        /* \"#utility.yul\":10249:10266   */\n      add\n        /* \"#utility.yul\":10242:10289   */\n      mstore\n        /* \"#utility.yul\":10306:10437   */\n      tag_218\n        /* \"#utility.yul\":10432:10436   */\n      dup2\n        /* \"#utility.yul\":10306:10437   */\n      tag_98\n      jump\t// in\n    tag_218:\n        /* \"#utility.yul\":10298:10437   */\n      swap1\n      pop\n        /* \"#utility.yul\":10025:10444   */\n      swap2\n      swap1\n      pop\n      jump\t// out\n        /* \"#utility.yul\":10450:10882   */\n    tag_99:\n        /* \"#utility.yul\":10538:10543   */\n      0x00\n        /* \"#utility.yul\":10563:10628   */\n      tag_220\n        /* \"#utility.yul\":10579:10627   */\n      tag_221\n        /* \"#utility.yul\":10620:10626   */\n      dup5\n        /* \"#utility.yul\":10579:10627   */\n      tag_69\n      jump\t// in\n    tag_221:\n        /* \"#utility.yul\":10563:10628   */\n      tag_68\n      jump\t// in\n    tag_220:\n        /* \"#utility.yul\":10554:10628   */\n      swap1\n      pop\n        /* \"#utility.yul\":10651:10657   */\n      dup3\n        /* \"#utility.yul\":10644:10649   */\n      dup2\n        /* \"#utility.yul\":10637:10658   */\n      mstore\n        /* \"#utility.yul\":10689:10693   */\n      0x20\n        /* \"#utility.yul\":10682:10687   */\n      dup2\n        /* \"#utility.yul\":10678:10694   */\n      add\n        /* \"#utility.yul\":10727:10730   */\n      dup5\n        /* \"#utility.yul\":10718:10724   */\n      dup5\n        /* \"#utility.yul\":10713:10716   */\n      dup5\n        /* \"#utility.yul\":10709:10725   */\n      add\n        /* \"#utility.yul\":10706:10731   */\n      gt\n        /* \"#utility.yul\":10703:10815   */\n      iszero\n      tag_222\n      jumpi\n        /* \"#utility.yul\":10734:10813   */\n      tag_223\n      tag_64\n      jump\t// in\n    tag_223:\n        /* \"#utility.yul\":10703:10815   */\n    tag_222:\n        /* \"#utility.yul\":10824:10876   */\n      tag_224\n        /* \"#utility.yul\":10869:10875   */\n      dup5\n        /* \"#utility.yul\":10864:10867   */\n      dup3\n        /* \"#utility.yul\":10859:10862   */\n      dup6\n        /* \"#utility.yul\":10824:10876   */\n      tag_83\n      jump\t// in\n    tag_224:\n        /* \"#utility.yul\":10544:10882   */\n      pop\n        /* \"#utility.yul\":10450:10882   */\n      swap4\n      swap3\n      pop\n      pop\n      pop\n      jump\t// out\n        /* \"#utility.yul\":10901:11254   */\n    tag_100:\n        /* \"#utility.yul\":10967:10972   */\n      0x00\n        /* \"#utility.yul\":11016:11019   */\n      dup3\n        /* \"#utility.yul\":11009:11013   */\n      0x1f\n        /* \"#utility.yul\":11001:11007   */\n      dup4\n        /* \"#utility.yul\":10997:11014   */\n      add\n        /* \"#utility.yul\":10993:11020   */\n      slt\n        /* \"#utility.yul\":10983:11105   */\n      tag_226\n      jumpi\n        /* \"#utility.yul\":11024:11103   */\n      tag_227\n      tag_63\n      jump\t// in\n    tag_227:\n        /* \"#utility.yul\":10983:11105   */\n    tag_226:\n        /* \"#utility.yul\":11134:11140   */\n      dup2\n        /* \"#utility.yul\":11128:11141   */\n      mload\n        /* \"#utility.yul\":11159:11248   */\n      tag_228\n        /* \"#utility.yul\":11244:11247   */\n      dup5\n        /* \"#utility.yul\":11236:11242   */\n      dup3\n        /* \"#utility.yul\":11229:11233   */\n      0x20\n        /* \"#utility.yul\":11221:11227   */\n      dup7\n        /* \"#utility.yul\":11217:11234   */\n      add\n        /* \"#utility.yul\":11159:11248   */\n      tag_99\n      jump\t// in\n    tag_228:\n        /* \"#utility.yul\":11150:11248   */\n      swap2\n      pop\n        /* \"#utility.yul\":10973:11254   */\n      pop\n        /* \"#utility.yul\":10901:11254   */\n      swap3\n      swap2\n      pop\n      pop\n      jump\t// out\n        /* \"#utility.yul\":11260:11782   */\n    tag_39:\n        /* \"#utility.yul\":11339:11345   */\n      0x00\n        /* \"#utility.yul\":11388:11390   */\n      0x20\n        /* \"#utility.yul\":11376:11385   */\n      dup3\n        /* \"#utility.yul\":11367:11374   */\n      dup5\n        /* \"#utility.yul\":11363:11386   */\n      sub\n        /* \"#utility.yul\":11359:11391   */\n      slt\n        /* \"#utility.yul\":11356:11475   */\n      iszero\n      tag_230\n      jumpi\n        /* \"#utility.yul\":11394:11473   */\n      tag_231\n      tag_61\n      jump\t// in\n    tag_231:\n        /* \"#utility.yul\":11356:11475   */\n    tag_230:\n        /* \"#utility.yul\":11535:11536   */\n      0x00\n        /* \"#utility.yul\":11524:11533   */\n      dup3\n        /* \"#utility.yul\":11520:11537   */\n      add\n        /* \"#utility.yul\":11514:11538   */\n      mload\n        /* \"#utility.yul\":11565:11583   */\n      0xffffffffffffffff\n        /* \"#utility.yul\":11557:11563   */\n      dup2\n        /* \"#utility.yul\":11554:11584   */\n      gt\n        /* \"#utility.yul\":11551:11668   */\n      iszero\n      tag_232\n      jumpi\n        /* \"#utility.yul\":11587:11666   */\n      tag_233\n      tag_62\n      jump\t// in\n    tag_233:\n        /* \"#utility.yul\":11551:11668   */\n    tag_232:\n        /* \"#utility.yul\":11692:11765   */\n      tag_234\n        /* \"#utility.yul\":11757:11764   */\n      dup5\n        /* \"#utility.yul\":11748:11754   */\n      dup3\n        /* \"#utility.yul\":11737:11746   */\n      dup6\n        /* \"#utility.yul\":11733:11755   */\n      add\n        /* \"#utility.yul\":11692:11765   */\n      tag_100\n      jump\t// in\n    tag_234:\n        /* \"#utility.yul\":11682:11765   */\n      swap2\n      pop\n        /* \"#utility.yul\":11485:11775   */\n      pop\n        /* \"#utility.yul\":11260:11782   */\n      swap3\n      swap2\n      pop\n      pop\n      jump\t// out\n        /* \"#utility.yul\":11788:11968   */\n    tag_101:\n        /* \"#utility.yul\":11836:11913   */\n      0x4e487b7100000000000000000000000000000000000000000000000000000000\n        /* \"#utility.yul\":11833:11834   */\n      0x00\n        /* \"#utility.yul\":11826:11914   */\n      mstore\n        /* \"#utility.yul\":11933:11937   */\n      0x22\n        /* \"#utility.yul\":11930:11931   */\n      0x04\n        /* \"#utility.yul\":11923:11938   */\n      mstore\n        /* \"#utility.yul\":11957:11961   */\n      0x24\n        /* \"#utility.yul\":11954:11955   */\n      0x00\n        /* \"#utility.yul\":11947:11962   */\n      revert\n        /* \"#utility.yul\":11974:12294   */\n    tag_49:\n        /* \"#utility.yul\":12018:12024   */\n      0x00\n        /* \"#utility.yul\":12055:12056   */\n      0x02\n        /* \"#utility.yul\":12049:12053   */\n      dup3\n        /* \"#utility.yul\":12045:12057   */\n      div\n        /* \"#utility.yul\":12035:12057   */\n      swap1\n      pop\n        /* \"#utility.yul\":12102:12103   */\n      0x01\n        /* \"#utility.yul\":12096:12100   */\n      dup3\n        /* \"#utility.yul\":12092:12104   */\n      and\n        /* \"#utility.yul\":12123:12141   */\n      dup1\n        /* \"#utility.yul\":12113:12194   */\n      tag_237\n      jumpi\n        /* \"#utility.yul\":12179:12183   */\n      0x7f\n        /* \"#utility.yul\":12171:12177   */\n      dup3\n        /* \"#utility.yul\":12167:12184   */\n      and\n        /* \"#utility.yul\":12157:12184   */\n      swap2\n      pop\n        /* \"#utility.yul\":12113:12194   */\n    tag_237:\n        /* \"#utility.yul\":12241:12243   */\n      0x20\n        /* \"#utility.yul\":12233:12239   */\n      dup3\n        /* \"#utility.yul\":12230:12244   */\n      lt\n        /* \"#utility.yul\":12210:12228   */\n      dup2\n        /* \"#utility.yul\":12207:12245   */\n      sub\n        /* \"#utility.yul\":12204:12288   */\n      tag_238\n      jumpi\n        /* \"#utility.yul\":12260:12278   */\n      tag_239\n      tag_101\n      jump\t// in\n    tag_239:\n        /* \"#utility.yul\":12204:12288   */\n    tag_238:\n        /* \"#utility.yul\":12025:12294   */\n      pop\n        /* \"#utility.yul\":11974:12294   */\n      swap2\n      swap1\n      pop\n      jump\t// out\n        /* \"#utility.yul\":12300:12440   */\n    tag_102:\n        /* \"#utility.yul\":12348:12352   */\n      0x00\n        /* \"#utility.yul\":12371:12374   */\n      dup2\n        /* \"#utility.yul\":12363:12374   */\n      swap1\n      pop\n        /* \"#utility.yul\":12394:12397   */\n      dup2\n        /* \"#utility.yul\":12391:12392   */\n      0x00\n        /* \"#utility.yul\":12384:12398   */\n      mstore\n        /* \"#utility.yul\":12428:12432   */\n      0x20\n        /* \"#utility.yul\":12425:12426   */\n      0x00\n        /* \"#utility.yul\":12415:12433   */\n      keccak256\n        /* \"#utility.yul\":12407:12433   */\n      swap1\n      pop\n        /* \"#utility.yul\":12300:12440   */\n      swap2\n      swap1\n      pop\n      jump\t// out\n        /* \"#utility.yul\":12446:12539   */\n    tag_103:\n        /* \"#utility.yul\":12483:12489   */\n      0x00\n        /* \"#utility.yul\":12530:12532   */\n      0x20\n        /* \"#utility.yul\":12525:12527   */\n      0x1f\n        /* \"#utility.yul\":12518:12523   */\n      dup4\n        /* \"#utility.yul\":12514:12528   */\n      add\n        /* \"#utility.yul\":12510:12533   */\n      div\n        /* \"#utility.yul\":12500:12533   */\n      swap1\n      pop\n        /* \"#utility.yul\":12446:12539   */\n      swap2\n      swap1\n      pop\n      jump\t// out\n        /* \"#utility.yul\":12545:12652   */\n    tag_104:\n        /* \"#utility.yul\":12589:12597   */\n      0x00\n        /* \"#utility.yul\":12639:12644   */\n      dup3\n        /* \"#utility.yul\":12633:12637   */\n      dup3\n        /* \"#utility.yul\":12629:12645   */\n      shl\n        /* \"#utility.yul\":12608:12645   */\n      swap1\n      pop\n        /* \"#utility.yul\":12545:12652   */\n      swap3\n      swap2\n      pop\n      pop\n      jump\t// out\n        /* \"#utility.yul\":12658:13051   */\n    tag_105:\n        /* \"#utility.yul\":12727:12733   */\n      0x00\n        /* \"#utility.yul\":12777:12778   */\n      0x08\n        /* \"#utility.yul\":12765:12775   */\n      dup4\n        /* \"#utility.yul\":12761:12779   */\n      mul\n        /* \"#utility.yul\":12800:12897   */\n      tag_244\n        /* \"#utility.yul\":12830:12896   */\n      0xffffffffffffffffffffffffffffffffffffffffffffffffffffffffffffffff\n        /* \"#utility.yul\":12819:12828   */\n      dup3\n        /* \"#utility.yul\":12800:12897   */\n      tag_104\n      jump\t// in\n    tag_244:\n        /* \"#utility.yul\":12918:12957   */\n      tag_245\n        /* \"#utility.yul\":12948:12956   */\n      dup7\n        /* \"#utility.yul\":12937:12946   */\n      dup4\n        /* \"#utility.yul\":12918:12957   */\n      tag_104\n      jump\t// in\n    tag_245:\n        /* \"#utility.yul\":12906:12957   */\n      swap6\n      pop\n        /* \"#utility.yul\":12990:12994   */\n      dup1\n        /* \"#utility.yul\":12986:12995   */\n      not\n        /* \"#utility.yul\":12979:12984   */\n      dup5\n        /* \"#utility.yul\":12975:12996   */\n      and\n        /* \"#utility.yul\":12966:12996   */\n      swap4\n      pop\n        /* \"#utility.yul\":13039:13043   */\n      dup1\n        /* \"#utility.yul\":13029:13037   */\n      dup7\n        /* \"#utility.yul\":13025:13044   */\n      and\n        /* \"#utility.yul\":13018:13023   */\n      dup5\n        /* \"#utility.yul\":13015:13045   */\n      or\n        /* \"#utility.yul\":13005:13045   */\n      swap3\n      pop\n        /* \"#utility.yul\":12734:13051   */\n      pop\n      pop\n        /* \"#utility.yul\":12658:13051   */\n      swap4\n      swap3\n      pop\n      pop\n      pop\n      jump\t// out\n        /* \"#utility.yul\":13057:13134   */\n    tag_106:\n        /* \"#utility.yul\":13094:13101   */\n      0x00\n        /* \"#utility.yul\":13123:13128   */\n      dup2\n        /* \"#utility.yul\":13112:13128   */\n      swap1\n      pop\n        /* \"#utility.yul\":13057:13134   */\n      swap2\n      swap1\n      pop\n      jump\t// out\n        /* \"#utility.yul\":13140:13200   */\n    tag_107:\n        /* \"#utility.yul\":13168:13171   */\n      0x00\n        /* \"#utility.yul\":13189:13194   */\n      dup2\n        /* \"#utility.yul\":13182:13194   */\n      swap1\n      pop\n        /* \"#utility.yul\":13140:13200   */\n      swap2\n      swap1\n      pop\n      jump\t// out\n        /* \"#utility.yul\":13206:13348   */\n    tag_108:\n        /* \"#utility.yul\":13256:13265   */\n      0x00\n        /* \"#utility.yul\":13289:13342   */\n      tag_249\n        /* \"#utility.yul\":13307:13341   */\n      tag_250\n        /* \"#utility.yul\":13316:13340   */\n      tag_251\n        /* \"#utility.yul\":13334:13339   */\n      dup5\n        /* \"#utility.yul\":13316:13340   */\n      tag_106\n      jump\t// in\n    tag_251:\n        /* \"#utility.yul\":13307:13341   */\n      tag_107\n      jump\t// in\n    tag_250:\n        /* \"#utility.yul\":13289:13342   */\n      tag_106\n      jump\t// in\n    tag_249:\n        /* \"#utility.yul\":13276:13342   */\n      swap1\n      pop\n        /* \"#utility.yul\":13206:13348   */\n      swap2\n      swap1\n      pop\n      jump\t// out\n        /* \"#utility.yul\":13354:13429   */\n    tag_109:\n        /* \"#utility.yul\":13397:13400   */\n      0x00\n        /* \"#utility.yul\":13418:13423   */\n      dup2\n        /* \"#utility.yul\":13411:13423   */\n      swap1\n      pop\n        /* \"#utility.yul\":13354:13429   */\n      swap2\n      swap1\n      pop\n      jump\t// out\n        /* \"#utility.yul\":13435:13704   */\n    tag_110:\n        /* \"#utility.yul\":13545:13584   */\n      tag_254\n        /* \"#utility.yul\":13576:13583   */\n      dup4\n        /* \"#utility.yul\":13545:13584   */\n      tag_108\n      jump\t// in\n    tag_254:\n        /* \"#utility.yul\":13606:13697   */\n      tag_255\n        /* \"#utility.yul\":13655:13696   */\n      tag_256\n        /* \"#utility.yul\":13679:13695   */\n      dup3\n        /* \"#utility.yul\":13655:13696   */\n      tag_109\n      jump\t// in\n    tag_256:\n        /* \"#utility.yul\":13647:13653   */\n      dup5\n        /* \"#utility.yul\":13640:13644   */\n      dup5\n        /* \"#utility.yul\":13634:13645   */\n      sload\n        /* \"#utility.yul\":13606:13697   */\n      tag_105\n      jump\t// in\n    tag_255:\n        /* \"#utility.yul\":13600:13604   */\n      dup3\n        /* \"#utility.yul\":13593:13698   */\n      sstore\n        /* \"#utility.yul\":13511:13704   */\n      pop\n        /* \"#utility.yul\":13435:13704   */\n      pop\n      pop\n      pop\n      jump\t// out\n        /* \"#utility.yul\":13710:13783   */\n    tag_111:\n        /* \"#utility.yul\":13755:13758   */\n      0x00\n        /* \"#utility.yul\":13710:13783   */\n      swap1\n      jump\t// out\n        /* \"#utility.yul\":13789:13978   */\n    tag_112:\n        /* \"#utility.yul\":13866:13898   */\n      tag_259\n      tag_111\n      jump\t// in\n    tag_259:\n        /* \"#utility.yul\":13907:13972   */\n      tag_260\n        /* \"#utility.yul\":13965:13971   */\n      dup2\n        /* \"#utility.yul\":13957:13963   */\n      dup5\n        /* \"#utility.yul\":13951:13955   */\n      dup5\n        /* \"#utility.yul\":13907:13972   */\n      tag_110\n      jump\t// in\n    tag_260:\n        /* \"#utility.yul\":13842:13978   */\n      pop\n        /* \"#utility.yul\":13789:13978   */\n      pop\n      pop\n      jump\t// out\n        /* \"#utility.yul\":13984:14170   */\n    tag_113:\n        /* \"#utility.yul\":14044:14164   */\n    tag_262:\n        /* \"#utility.yul\":14061:14064   */\n      dup2\n        /* \"#utility.yul\":14054:14059   */\n      dup2\n        /* \"#utility.yul\":14051:14065   */\n      lt\n        /* \"#utility.yul\":14044:14164   */\n      iszero\n      tag_264\n      jumpi\n        /* \"#utility.yul\":14115:14154   */\n      tag_265\n        /* \"#utility.yul\":14152:14153   */\n      0x00\n        /* \"#utility.yul\":14145:14150   */\n      dup3\n        /* \"#utility.yul\":14115:14154   */\n      tag_112\n      jump\t// in\n    tag_265:\n        /* \"#utility.yul\":14088:14089   */\n      0x01\n        /* \"#utility.yul\":14081:14086   */\n      dup2\n        /* \"#utility.yul\":14077:14090   */\n      add\n        /* \"#utility.yul\":14068:14090   */\n      swap1\n      pop\n        /* \"#utility.yul\":14044:14164   */\n      jump(tag_262)\n    tag_264:\n        /* \"#utility.yul\":13984:14170   */\n      pop\n      pop\n      jump\t// out\n        /* \"#utility.yul\":14176:14717   */\n    tag_114:\n        /* \"#utility.yul\":14276:14278   */\n      0x1f\n        /* \"#utility.yul\":14271:14274   */\n      dup3\n        /* \"#utility.yul\":14268:14279   */\n      gt\n        /* \"#utility.yul\":14265:14710   */\n      iszero\n      tag_267\n      jumpi\n        /* \"#utility.yul\":14310:14347   */\n      tag_268\n        /* \"#utility.yul\":14341:14346   */\n      dup2\n        /* \"#utility.yul\":14310:14347   */\n      tag_102\n      jump\t// in\n    tag_268:\n        /* \"#utility.yul\":14393:14422   */\n      tag_269\n        /* \"#utility.yul\":14411:14421   */\n      dup5\n        /* \"#utility.yul\":14393:14422   */\n      tag_103\n      jump\t// in\n    tag_269:\n        /* \"#utility.yul\":14383:14391   */\n      dup2\n        /* \"#utility.yul\":14379:14423   */\n      add\n        /* \"#utility.yul\":14576:14578   */\n      0x20\n        /* \"#utility.yul\":14564:14574   */\n      dup6\n        /* \"#utility.yul\":14561:14579   */\n      lt\n        /* \"#utility.yul\":14558:14607   */\n      iszero\n      tag_270\n      jumpi\n        /* \"#utility.yul\":14597:14605   */\n      dup2\n        /* \"#utility.yul\":14582:14605   */\n      swap1\n      pop\n        /* \"#utility.yul\":14558:14607   */\n    tag_270:\n        /* \"#utility.yul\":14620:14700   */\n      tag_271\n        /* \"#utility.yul\":14676:14698   */\n      tag_272\n        /* \"#utility.yul\":14694:14697   */\n      dup6\n        /* \"#utility.yul\":14676:14698   */\n      tag_103\n      jump\t// in\n    tag_272:\n        /* \"#utility.yul\":14666:14674   */\n      dup4\n        /* \"#utility.yul\":14662:14699   */\n      add\n        /* \"#utility.yul\":14649:14660   */\n      dup3\n        /* \"#utility.yul\":14620:14700   */\n      tag_113\n      jump\t// in\n    tag_271:\n        /* \"#utility.yul\":14280:14710   */\n      pop\n      pop\n        /* \"#utility.yul\":14265:14710   */\n    tag_267:\n        /* \"#utility.yul\":14176:14717   */\n      pop\n      pop\n      pop\n      jump\t// out\n        /* \"#utility.yul\":14723:14840   */\n    tag_115:\n        /* \"#utility.yul\":14777:14785   */\n      0x00\n        /* \"#utility.yul\":14827:14832   */\n      dup3\n        /* \"#utility.yul\":14821:14825   */\n      dup3\n        /* \"#utility.yul\":14817:14833   */\n      shr\n        /* \"#utility.yul\":14796:14833   */\n      swap1\n      pop\n        /* \"#utility.yul\":14723:14840   */\n      swap3\n      swap2\n      pop\n      pop\n      jump\t// out\n        /* \"#utility.yul\":14846:15015   */\n    tag_116:\n        /* \"#utility.yul\":14890:14896   */\n      0x00\n        /* \"#utility.yul\":14923:14974   */\n      tag_275\n        /* \"#utility.yul\":14971:14972   */\n      0x00\n        /* \"#utility.yul\":14967:14973   */\n      not\n        /* \"#utility.yul\":14959:14964   */\n      dup5\n        /* \"#utility.yul\":14956:14957   */\n      0x08\n        /* \"#utility.yul\":14952:14965   */\n      mul\n        /* \"#utility.yul\":14923:14974   */\n      tag_115\n      jump\t// in\n    tag_275:\n        /* \"#utility.yul\":14919:14975   */\n      not\n        /* \"#utility.yul\":15004:15008   */\n      dup1\n        /* \"#utility.yul\":14998:15002   */\n      dup4\n        /* \"#utility.yul\":14994:15009   */\n      and\n        /* \"#utility.yul\":14984:15009   */\n      swap2\n      pop\n        /* \"#utility.yul\":14897:15015   */\n      pop\n        /* \"#utility.yul\":14846:15015   */\n      swap3\n      swap2\n      pop\n      pop\n      jump\t// out\n        /* \"#utility.yul\":15020:15315   */\n    tag_117:\n        /* \"#utility.yul\":15096:15100   */\n      0x00\n        /* \"#utility.yul\":15242:15271   */\n      tag_277\n        /* \"#utility.yul\":15267:15270   */\n      dup4\n        /* \"#utility.yul\":15261:15265   */\n      dup4\n        /* \"#utility.yul\":15242:15271   */\n      tag_116\n      jump\t// in\n    tag_277:\n        /* \"#utility.yul\":15234:15271   */\n      swap2\n      pop\n        /* \"#utility.yul\":15304:15307   */\n      dup3\n        /* \"#utility.yul\":15301:15302   */\n      0x02\n        /* \"#utility.yul\":15297:15308   */\n      mul\n        /* \"#utility.yul\":15291:15295   */\n      dup3\n        /* \"#utility.yul\":15288:15309   */\n      or\n        /* \"#utility.yul\":15280:15309   */\n      swap1\n      pop\n        /* \"#utility.yul\":15020:15315   */\n      swap3\n      swap2\n      pop\n      pop\n      jump\t// out\n        /* \"#utility.yul\":15320:16710   */\n    tag_41:\n        /* \"#utility.yul\":15435:15471   */\n      tag_279\n        /* \"#utility.yul\":15467:15470   */\n      dup3\n        /* \"#utility.yul\":15435:15471   */\n      tag_81\n      jump\t// in\n    tag_279:\n        /* \"#utility.yul\":15536:15554   */\n      0xffffffffffffffff\n        /* \"#utility.yul\":15528:15534   */\n      dup2\n        /* \"#utility.yul\":15525:15555   */\n      gt\n        /* \"#utility.yul\":15522:15578   */\n      iszero\n      tag_280\n      jumpi\n        /* \"#utility.yul\":15558:15576   */\n      tag_281\n      tag_66\n      jump\t// in\n    tag_281:\n        /* \"#utility.yul\":15522:15578   */\n    tag_280:\n        /* \"#utility.yul\":15602:15640   */\n      tag_282\n        /* \"#utility.yul\":15634:15638   */\n      dup3\n        /* \"#utility.yul\":15628:15639   */\n      sload\n        /* \"#utility.yul\":15602:15640   */\n      tag_49\n      jump\t// in\n    tag_282:\n        /* \"#utility.yul\":15687:15753   */\n      tag_283\n        /* \"#utility.yul\":15746:15752   */\n      dup3\n        /* \"#utility.yul\":15738:15744   */\n      dup3\n        /* \"#utility.yul\":15732:15736   */\n      dup6\n        /* \"#utility.yul\":15687:15753   */\n      tag_114\n      jump\t// in\n    tag_283:\n        /* \"#utility.yul\":15780:15781   */\n      0x00\n        /* \"#utility.yul\":15804:15808   */\n      0x20\n        /* \"#utility.yul\":15791:15808   */\n      swap1\n      pop\n        /* \"#utility.yul\":15836:15838   */\n      0x1f\n        /* \"#utility.yul\":15828:15834   */\n      dup4\n        /* \"#utility.yul\":15825:15839   */\n      gt\n        /* \"#utility.yul\":15853:15854   */\n      0x01\n        /* \"#utility.yul\":15848:16465   */\n      dup2\n      eq\n      tag_285\n      jumpi\n        /* \"#utility.yul\":16509:16510   */\n      0x00\n        /* \"#utility.yul\":16526:16532   */\n      dup5\n        /* \"#utility.yul\":16523:16600   */\n      iszero\n      tag_286\n      jumpi\n        /* \"#utility.yul\":16575:16584   */\n      dup3\n        /* \"#utility.yul\":16570:16573   */\n      dup8\n        /* \"#utility.yul\":16566:16585   */\n      add\n        /* \"#utility.yul\":16560:16586   */\n      mload\n        /* \"#utility.yul\":16551:16586   */\n      swap1\n      pop\n        /* \"#utility.yul\":16523:16600   */\n    tag_286:\n        /* \"#utility.yul\":16626:16693   */\n      tag_287\n        /* \"#utility.yul\":16686:16692   */\n      dup6\n        /* \"#utility.yul\":16679:16684   */\n      dup3\n        /* \"#utility.yul\":16626:16693   */\n      tag_117\n      jump\t// in\n    tag_287:\n        /* \"#utility.yul\":16620:16624   */\n      dup7\n        /* \"#utility.yul\":16613:16694   */\n      sstore\n        /* \"#utility.yul\":16482:16704   */\n      pop\n        /* \"#utility.yul\":15818:16704   */\n      jump(tag_284)\n        /* \"#utility.yul\":15848:16465   */\n    tag_285:\n        /* \"#utility.yul\":15900:15904   */\n      0x1f\n        /* \"#utility.yul\":15896:15905   */\n      not\n        /* \"#utility.yul\":15888:15894   */\n      dup5\n        /* \"#utility.yul\":15884:15906   */\n      and\n        /* \"#utility.yul\":15934:15970   */\n      tag_288\n        /* \"#utility.yul\":15965:15969   */\n      dup7\n        /* \"#utility.yul\":15934:15970   */\n      tag_102\n      jump\t// in\n    tag_288:\n        /* \"#utility.yul\":15992:15993   */\n      0x00\n        /* \"#utility.yul\":16006:16214   */\n    tag_289:\n        /* \"#utility.yul\":16020:16027   */\n      dup3\n        /* \"#utility.yul\":16017:16018   */\n      dup2\n        /* \"#utility.yul\":16014:16028   */\n      lt\n        /* \"#utility.yul\":16006:16214   */\n      iszero\n      tag_291\n      jumpi\n        /* \"#utility.yul\":16099:16108   */\n      dup5\n        /* \"#utility.yul\":16094:16097   */\n      dup10\n        /* \"#utility.yul\":16090:16109   */\n      add\n        /* \"#utility.yul\":16084:16110   */\n      mload\n        /* \"#utility.yul\":16076:16082   */\n      dup3\n        /* \"#utility.yul\":16069:16111   */\n      sstore\n        /* \"#utility.yul\":16150:16151   */\n      0x01\n        /* \"#utility.yul\":16142:16148   */\n      dup3\n        /* \"#utility.yul\":16138:16152   */\n      add\n        /* \"#utility.yul\":16128:16152   */\n      swap2\n      pop\n        /* \"#utility.yul\":16197:16199   */\n      0x20\n        /* \"#utility.yul\":16186:16195   */\n      dup6\n        /* \"#utility.yul\":16182:16200   */\n      add\n        /* \"#utility.yul\":16169:16200   */\n      swap5\n      pop\n        /* \"#utility.yul\":16043:16047   */\n      0x20\n        /* \"#utility.yul\":16040:16041   */\n      dup2\n        /* \"#utility.yul\":16036:16048   */\n      add\n        /* \"#utility.yul\":16031:16048   */\n      swap1\n      pop\n        /* \"#utility.yul\":16006:16214   */\n      jump(tag_289)\n    tag_291:\n        /* \"#utility.yul\":16242:16248   */\n      dup7\n        /* \"#utility.yul\":16233:16240   */\n      dup4\n        /* \"#utility.yul\":16230:16249   */\n      lt\n        /* \"#utility.yul\":16227:16406   */\n      iszero\n      tag_292\n      jumpi\n        /* \"#utility.yul\":16300:16309   */\n      dup5\n        /* \"#utility.yul\":16295:16298   */\n      dup10\n        /* \"#utility.yul\":16291:16310   */\n      add\n        /* \"#utility.yul\":16285:16311   */\n      mload\n        /* \"#utility.yul\":16343:16391   */\n      tag_293\n        /* \"#utility.yul\":16385:16389   */\n      0x1f\n        /* \"#utility.yul\":16377:16383   */\n      dup10\n        /* \"#utility.yul\":16373:16390   */\n      and\n        /* \"#utility.yul\":16362:16371   */\n      dup3\n        /* \"#utility.yul\":16343:16391   */\n      tag_116\n      jump\t// in\n    tag_293:\n        /* \"#utility.yul\":16335:16341   */\n      dup4\n        /* \"#utility.yul\":16328:16392   */\n      sstore\n        /* \"#utility.yul\":16250:16406   */\n      pop\n        /* \"#utility.yul\":16227:16406   */\n    tag_292:\n        /* \"#utility.yul\":16452:16453   */\n      0x01\n        /* \"#utility.yul\":16448:16449   */\n      0x02\n        /* \"#utility.yul\":16440:16446   */\n      dup9\n        /* \"#utility.yul\":16436:16450   */\n      mul\n        /* \"#utility.yul\":16432:16454   */\n      add\n        /* \"#utility.yul\":16426:16430   */\n      dup9\n        /* \"#utility.yul\":16419:16455   */\n      sstore\n        /* \"#utility.yul\":15855:16465   */\n      pop\n      pop\n      pop\n        /* \"#utility.yul\":15818:16704   */\n    tag_284:\n      pop\n        /* \"#utility.yul\":15410:16710   */\n      pop\n      pop\n      pop\n        /* \"#utility.yul\":15320:16710   */\n      pop\n      pop\n      jump\t// out\n\n    auxdata: 0xa26469706673582212203cf3cd3d9bb9f1dd5067fb25d0c7acd3ed4ba461bdd44594cba85a6caf29f52c64736f6c634300081a0033\n}\n",
				"bytecode": {
					"linkReferences": {},
					"object": "6080604052348015600e575f80fd5b50610e558061001c5f395ff3fe608060405234801561000f575f80fd5b5060043610610055575f3560e01c80630bdf12f114610059578063d760346014610075578063de29278914610091578063def005ec146100af578063f551e362146100e2575b5f80fd5b610073600480360381019061006e9190610722565b610112565b005b61008f600480360381019061008a919061082c565b61027e565b005b610099610394565b6040516100a691906108bb565b60405180910390f35b6100c960048036038101906100c49190610935565b6104ec565b6040516100d994939291906109e2565b60405180910390f35b6100fc60048036038101906100f79190610722565b6105ce565b60405161010991906108bb565b60405180910390f35b5f803373ffffffffffffffffffffffffffffffffffffffff1673ffffffffffffffffffffffffffffffffffffffff1681526020019081526020015f206002015f9054906101000a900460ff1661019d576040517f08c379a000000000000000000000000000000000000000000000000000000000815260040161019490610a7a565b60405180910390fd5b5f805f3373ffffffffffffffffffffffffffffffffffffffff1673ffffffffffffffffffffffffffffffffffffffff1681526020019081526020015f209050805f015f9054906101000a90048060201c73ffffffffffffffffffffffffffffffffffffffff169063ffffffff16836040518263ffffffff1660e01b815260040161022791906108bb565b5f60405180830381865afa158015610241573d5f803e3d5ffd5b505050506040513d5f823e3d601f19601f820116820180604052508101906102699190610b06565b8160010190816102799190610d50565b505050565b6040518060600160405280838363ffffffff169060201b1760401b815260200160405180602001604052805f8152508152602001600115158152505f803373ffffffffffffffffffffffffffffffffffffffff1673ffffffffffffffffffffffffffffffffffffffff1681526020019081526020015f205f8201518060601c9060401c63ffffffff16825f015f6101000a81548177ffffffffffffffffffffffffffffffffffffffffffffffff02191690848463ffffffff169073ffffffffffffffffffffffffffffffffffffffff1660201b17021790555050602082015181600101908161036d9190610d50565b506040820151816002015f6101000a81548160ff0219169083151502179055509050505050565b60605f803373ffffffffffffffffffffffffffffffffffffffff1673ffffffffffffffffffffffffffffffffffffffff1681526020019081526020015f206002015f9054906101000a900460ff16610421576040517f08c379a000000000000000000000000000000000000000000000000000000000815260040161041890610a7a565b60405180910390fd5b5f803373ffffffffffffffffffffffffffffffffffffffff1673ffffffffffffffffffffffffffffffffffffffff1681526020019081526020015f20600101805461046b90610b7a565b80601f016020809104026020016040519081016040528092919081815260200182805461049790610b7a565b80156104e25780601f106104b9576101008083540402835291602001916104e2565b820191905f5260205f20905b8154815290600101906020018083116104c557829003601f168201915b5050505050905090565b5f602052805f5260405f205f91509050805f015f9054906101000a90048060201c73ffffffffffffffffffffffffffffffffffffffff169063ffffffff16909180600101805461053b90610b7a565b80601f016020809104026020016040519081016040528092919081815260200182805461056790610b7a565b80156105b25780601f10610589576101008083540402835291602001916105b2565b820191905f5260205f20905b81548152906001019060200180831161059557829003601f168201915b505050505090806002015f9054906101000a900460ff16905084565b6060919050565b5f604051905090565b5f80fd5b5f80fd5b5f80fd5b5f80fd5b5f601f19601f8301169050919050565b7f4e487b71000000000000000000000000000000000000000000000000000000005f52604160045260245ffd5b610634826105ee565b810181811067ffffffffffffffff82111715610653576106526105fe565b5b80604052505050565b5f6106656105d5565b9050610671828261062b565b919050565b5f67ffffffffffffffff8211156106905761068f6105fe565b5b610699826105ee565b9050602081019050919050565b828183375f83830152505050565b5f6106c66106c184610676565b61065c565b9050828152602081018484840111156106e2576106e16105ea565b5b6106ed8482856106a6565b509392505050565b5f82601f830112610709576107086105e6565b5b81356107198482602086016106b4565b91505092915050565b5f60208284031215610737576107366105de565b5b5f82013567ffffffffffffffff811115610754576107536105e2565b5b610760848285016106f5565b91505092915050565b5f7fffffffffffffffffffffffffffffffffffffffffffffffff000000000000000082169050919050565b5f61079e82610769565b9050919050565b6107ae81610794565b81146107b8575f80fd5b50565b5f813590506107c9816107a5565b92915050565b5f8160201c9050919050565b5f8160401c9050919050565b5f806107f2836107db565b925063ffffffff83169050610806836107cf565b9150915091565b5f8061082161081c85856107bb565b6107e7565b915091509250929050565b5f8060208385031215610842576108416105de565b5b5f61084f8582860161080d565b92509250509250929050565b5f81519050919050565b5f82825260208201905092915050565b8281835e5f83830152505050565b5f61088d8261085b565b6108978185610865565b93506108a7818560208601610875565b6108b0816105ee565b840191505092915050565b5f6020820190508181035f8301526108d38184610883565b905092915050565b5f73ffffffffffffffffffffffffffffffffffffffff82169050919050565b5f610904826108db565b9050919050565b610914816108fa565b811461091e575f80fd5b50565b5f8135905061092f8161090b565b92915050565b5f6020828403121561094a576109496105de565b5b5f61095784828501610921565b91505092915050565b5f8160201b9050919050565b5f8160401b9050919050565b5f61099263ffffffff841661098c84610960565b1761096c565b905092915050565b5f808291508390509250929050565b6109b3828261099a565b925090506109c18282610978565b8352505050565b5f8115159050919050565b6109dc816109c8565b82525050565b5f6060820190506109f65f830186886109a9565b8181036020830152610a088185610883565b9050610a1760408301846109d3565b95945050505050565b5f82825260208201905092915050565b7f46756e6374696f6e206e6f7420666f756e6400000000000000000000000000005f82015250565b5f610a64601283610a20565b9150610a6f82610a30565b602082019050919050565b5f6020820190508181035f830152610a9181610a58565b9050919050565b5f610aaa610aa584610676565b61065c565b905082815260208101848484011115610ac657610ac56105ea565b5b610ad1848285610875565b509392505050565b5f82601f830112610aed57610aec6105e6565b5b8151610afd848260208601610a98565b91505092915050565b5f60208284031215610b1b57610b1a6105de565b5b5f82015167ffffffffffffffff811115610b3857610b376105e2565b5b610b4484828501610ad9565b91505092915050565b7f4e487b71000000000000000000000000000000000000000000000000000000005f52602260045260245ffd5b5f6002820490506001821680610b9157607f821691505b602082108103610ba457610ba3610b4d565b5b50919050565b5f819050815f5260205f209050919050565b5f6020601f8301049050919050565b5f82821b905092915050565b5f60088302610c067fffffffffffffffffffffffffffffffffffffffffffffffffffffffffffffffff82610bcb565b610c108683610bcb565b95508019841693508086168417925050509392505050565b5f819050919050565b5f819050919050565b5f610c54610c4f610c4a84610c28565b610c31565b610c28565b9050919050565b5f819050919050565b610c6d83610c3a565b610c81610c7982610c5b565b848454610bd7565b825550505050565b5f90565b610c95610c89565b610ca0818484610c64565b505050565b5b81811015610cc357610cb85f82610c8d565b600181019050610ca6565b5050565b601f821115610d0857610cd981610baa565b610ce284610bbc565b81016020851015610cf1578190505b610d05610cfd85610bbc565b830182610ca5565b50505b505050565b5f82821c905092915050565b5f610d285f1984600802610d0d565b1980831691505092915050565b5f610d408383610d19565b9150826002028217905092915050565b610d598261085b565b67ffffffffffffffff811115610d7257610d716105fe565b5b610d7c8254610b7a565b610d87828285610cc7565b5f60209050601f831160018114610db8575f8415610da6578287015190505b610db08582610d35565b865550610e17565b601f198416610dc686610baa565b5f5b82811015610ded57848901518255600182019150602085019450602081019050610dc8565b86831015610e0a5784890151610e06601f891682610d19565b8355505b6001600288020188555050505b50505050505056fea26469706673582212203cf3cd3d9bb9f1dd5067fb25d0c7acd3ed4ba461bdd44594cba85a6caf29f52c64736f6c634300081a0033",
					"opcodes": "PUSH1 0x80 PUSH1 0x40 MSTORE CALLVALUE DUP1 ISZERO PUSH1 0xE JUMPI PUSH0 DUP1 REVERT JUMPDEST POP PUSH2 0xE55 DUP1 PUSH2 0x1C PUSH0 CODECOPY PUSH0 RETURN INVALID PUSH1 0x80 PUSH1 0x40 MSTORE CALLVALUE DUP1 ISZERO PUSH2 0xF JUMPI PUSH0 DUP1 REVERT JUMPDEST POP PUSH1 0x4 CALLDATASIZE LT PUSH2 0x55 JUMPI PUSH0 CALLDATALOAD PUSH1 0xE0 SHR DUP1 PUSH4 0xBDF12F1 EQ PUSH2 0x59 JUMPI DUP1 PUSH4 0xD7603460 EQ PUSH2 0x75 JUMPI DUP1 PUSH4 0xDE292789 EQ PUSH2 0x91 JUMPI DUP1 PUSH4 0xDEF005EC EQ PUSH2 0xAF JUMPI DUP1 PUSH4 0xF551E362 EQ PUSH2 0xE2 JUMPI JUMPDEST PUSH0 DUP1 REVERT JUMPDEST PUSH2 0x73 PUSH1 0x4 DUP1 CALLDATASIZE SUB DUP2 ADD SWAP1 PUSH2 0x6E SWAP2 SWAP1 PUSH2 0x722 JUMP JUMPDEST PUSH2 0x112 JUMP JUMPDEST STOP JUMPDEST PUSH2 0x8F PUSH1 0x4 DUP1 CALLDATASIZE SUB DUP2 ADD SWAP1 PUSH2 0x8A SWAP2 SWAP1 PUSH2 0x82C JUMP JUMPDEST PUSH2 0x27E JUMP JUMPDEST STOP JUMPDEST PUSH2 0x99 PUSH2 0x394 JUMP JUMPDEST PUSH1 0x40 MLOAD PUSH2 0xA6 SWAP2 SWAP1 PUSH2 0x8BB JUMP JUMPDEST PUSH1 0x40 MLOAD DUP1 SWAP2 SUB SWAP1 RETURN JUMPDEST PUSH2 0xC9 PUSH1 0x4 DUP1 CALLDATASIZE SUB DUP2 ADD SWAP1 PUSH2 0xC4 SWAP2 SWAP1 PUSH2 0x935 JUMP JUMPDEST PUSH2 0x4EC JUMP JUMPDEST PUSH1 0x40 MLOAD PUSH2 0xD9 SWAP5 SWAP4 SWAP3 SWAP2 SWAP1 PUSH2 0x9E2 JUMP JUMPDEST PUSH1 0x40 MLOAD DUP1 SWAP2 SUB SWAP1 RETURN JUMPDEST PUSH2 0xFC PUSH1 0x4 DUP1 CALLDATASIZE SUB DUP2 ADD SWAP1 PUSH2 0xF7 SWAP2 SWAP1 PUSH2 0x722 JUMP JUMPDEST PUSH2 0x5CE JUMP JUMPDEST PUSH1 0x40 MLOAD PUSH2 0x109 SWAP2 SWAP1 PUSH2 0x8BB JUMP JUMPDEST PUSH1 0x40 MLOAD DUP1 SWAP2 SUB SWAP1 RETURN JUMPDEST PUSH0 DUP1 CALLER PUSH20 0xFFFFFFFFFFFFFFFFFFFFFFFFFFFFFFFFFFFFFFFF AND PUSH20 0xFFFFFFFFFFFFFFFFFFFFFFFFFFFFFFFFFFFFFFFF AND DUP2 MSTORE PUSH1 0x20 ADD SWAP1 DUP2 MSTORE PUSH1 0x20 ADD PUSH0 KECCAK256 PUSH1 0x2 ADD PUSH0 SWAP1 SLOAD SWAP1 PUSH2 0x100 EXP SWAP1 DIV PUSH1 0xFF AND PUSH2 0x19D JUMPI PUSH1 0x40 MLOAD PUSH32 0x8C379A000000000000000000000000000000000000000000000000000000000 DUP2 MSTORE PUSH1 0x4 ADD PUSH2 0x194 SWAP1 PUSH2 0xA7A JUMP JUMPDEST PUSH1 0x40 MLOAD DUP1 SWAP2 SUB SWAP1 REVERT JUMPDEST PUSH0 DUP1 PUSH0 CALLER PUSH20 0xFFFFFFFFFFFFFFFFFFFFFFFFFFFFFFFFFFFFFFFF AND PUSH20 0xFFFFFFFFFFFFFFFFFFFFFFFFFFFFFFFFFFFFFFFF AND DUP2 MSTORE PUSH1 0x20 ADD SWAP1 DUP2 MSTORE PUSH1 0x20 ADD PUSH0 KECCAK256 SWAP1 POP DUP1 PUSH0 ADD PUSH0 SWAP1 SLOAD SWAP1 PUSH2 0x100 EXP SWAP1 DIV DUP1 PUSH1 0x20 SHR PUSH20 0xFFFFFFFFFFFFFFFFFFFFFFFFFFFFFFFFFFFFFFFF AND SWAP1 PUSH4 0xFFFFFFFF AND DUP4 PUSH1 0x40 MLOAD DUP3 PUSH4 0xFFFFFFFF AND PUSH1 0xE0 SHL DUP2 MSTORE PUSH1 0x4 ADD PUSH2 0x227 SWAP2 SWAP1 PUSH2 0x8BB JUMP JUMPDEST PUSH0 PUSH1 0x40 MLOAD DUP1 DUP4 SUB DUP2 DUP7 GAS STATICCALL ISZERO DUP1 ISZERO PUSH2 0x241 JUMPI RETURNDATASIZE PUSH0 DUP1 RETURNDATACOPY RETURNDATASIZE PUSH0 REVERT JUMPDEST POP POP POP POP PUSH1 0x40 MLOAD RETURNDATASIZE PUSH0 DUP3 RETURNDATACOPY RETURNDATASIZE PUSH1 0x1F NOT PUSH1 0x1F DUP3 ADD AND DUP3 ADD DUP1 PUSH1 0x40 MSTORE POP DUP2 ADD SWAP1 PUSH2 0x269 SWAP2 SWAP1 PUSH2 0xB06 JUMP JUMPDEST DUP2 PUSH1 0x1 ADD SWAP1 DUP2 PUSH2 0x279 SWAP2 SWAP1 PUSH2 0xD50 JUMP JUMPDEST POP POP POP JUMP JUMPDEST PUSH1 0x40 MLOAD DUP1 PUSH1 0x60 ADD PUSH1 0x40 MSTORE DUP1 DUP4 DUP4 PUSH4 0xFFFFFFFF AND SWAP1 PUSH1 0x20 SHL OR PUSH1 0x40 SHL DUP2 MSTORE PUSH1 0x20 ADD PUSH1 0x40 MLOAD DUP1 PUSH1 0x20 ADD PUSH1 0x40 MSTORE DUP1 PUSH0 DUP2 MSTORE POP DUP2 MSTORE PUSH1 0x20 ADD PUSH1 0x1 ISZERO ISZERO DUP2 MSTORE POP PUSH0 DUP1 CALLER PUSH20 0xFFFFFFFFFFFFFFFFFFFFFFFFFFFFFFFFFFFFFFFF AND PUSH20 0xFFFFFFFFFFFFFFFFFFFFFFFFFFFFFFFFFFFFFFFF AND DUP2 MSTORE PUSH1 0x20 ADD SWAP1 DUP2 MSTORE PUSH1 0x20 ADD PUSH0 KECCAK256 PUSH0 DUP3 ADD MLOAD DUP1 PUSH1 0x60 SHR SWAP1 PUSH1 0x40 SHR PUSH4 0xFFFFFFFF AND DUP3 PUSH0 ADD PUSH0 PUSH2 0x100 EXP DUP2 SLOAD DUP2 PUSH24 0xFFFFFFFFFFFFFFFFFFFFFFFFFFFFFFFFFFFFFFFFFFFFFFFF MUL NOT AND SWAP1 DUP5 DUP5 PUSH4 0xFFFFFFFF AND SWAP1 PUSH20 0xFFFFFFFFFFFFFFFFFFFFFFFFFFFFFFFFFFFFFFFF AND PUSH1 0x20 SHL OR MUL OR SWAP1 SSTORE POP POP PUSH1 0x20 DUP3 ADD MLOAD DUP2 PUSH1 0x1 ADD SWAP1 DUP2 PUSH2 0x36D SWAP2 SWAP1 PUSH2 0xD50 JUMP JUMPDEST POP PUSH1 0x40 DUP3 ADD MLOAD DUP2 PUSH1 0x2 ADD PUSH0 PUSH2 0x100 EXP DUP2 SLOAD DUP2 PUSH1 0xFF MUL NOT AND SWAP1 DUP4 ISZERO ISZERO MUL OR SWAP1 SSTORE POP SWAP1 POP POP POP POP JUMP JUMPDEST PUSH1 0x60 PUSH0 DUP1 CALLER PUSH20 0xFFFFFFFFFFFFFFFFFFFFFFFFFFFFFFFFFFFFFFFF AND PUSH20 0xFFFFFFFFFFFFFFFFFFFFFFFFFFFFFFFFFFFFFFFF AND DUP2 MSTORE PUSH1 0x20 ADD SWAP1 DUP2 MSTORE PUSH1 0x20 ADD PUSH0 KECCAK256 PUSH1 0x2 ADD PUSH0 SWAP1 SLOAD SWAP1 PUSH2 0x100 EXP SWAP1 DIV PUSH1 0xFF AND PUSH2 0x421 JUMPI PUSH1 0x40 MLOAD PUSH32 0x8C379A000000000000000000000000000000000000000000000000000000000 DUP2 MSTORE PUSH1 0x4 ADD PUSH2 0x418 SWAP1 PUSH2 0xA7A JUMP JUMPDEST PUSH1 0x40 MLOAD DUP1 SWAP2 SUB SWAP1 REVERT JUMPDEST PUSH0 DUP1 CALLER PUSH20 0xFFFFFFFFFFFFFFFFFFFFFFFFFFFFFFFFFFFFFFFF AND PUSH20 0xFFFFFFFFFFFFFFFFFFFFFFFFFFFFFFFFFFFFFFFF AND DUP2 MSTORE PUSH1 0x20 ADD SWAP1 DUP2 MSTORE PUSH1 0x20 ADD PUSH0 KECCAK256 PUSH1 0x1 ADD DUP1 SLOAD PUSH2 0x46B SWAP1 PUSH2 0xB7A JUMP JUMPDEST DUP1 PUSH1 0x1F ADD PUSH1 0x20 DUP1 SWAP2 DIV MUL PUSH1 0x20 ADD PUSH1 0x40 MLOAD SWAP1 DUP2 ADD PUSH1 0x40 MSTORE DUP1 SWAP3 SWAP2 SWAP1 DUP2 DUP2 MSTORE PUSH1 0x20 ADD DUP3 DUP1 SLOAD PUSH2 0x497 SWAP1 PUSH2 0xB7A JUMP JUMPDEST DUP1 ISZERO PUSH2 0x4E2 JUMPI DUP1 PUSH1 0x1F LT PUSH2 0x4B9 JUMPI PUSH2 0x100 DUP1 DUP4 SLOAD DIV MUL DUP4 MSTORE SWAP2 PUSH1 0x20 ADD SWAP2 PUSH2 0x4E2 JUMP JUMPDEST DUP3 ADD SWAP2 SWAP1 PUSH0 MSTORE PUSH1 0x20 PUSH0 KECCAK256 SWAP1 JUMPDEST DUP2 SLOAD DUP2 MSTORE SWAP1 PUSH1 0x1 ADD SWAP1 PUSH1 0x20 ADD DUP1 DUP4 GT PUSH2 0x4C5 JUMPI DUP3 SWAP1 SUB PUSH1 0x1F AND DUP3 ADD SWAP2 JUMPDEST POP POP POP POP POP SWAP1 POP SWAP1 JUMP JUMPDEST PUSH0 PUSH1 0x20 MSTORE DUP1 PUSH0 MSTORE PUSH1 0x40 PUSH0 KECCAK256 PUSH0 SWAP2 POP SWAP1 POP DUP1 PUSH0 ADD PUSH0 SWAP1 SLOAD SWAP1 PUSH2 0x100 EXP SWAP1 DIV DUP1 PUSH1 0x20 SHR PUSH20 0xFFFFFFFFFFFFFFFFFFFFFFFFFFFFFFFFFFFFFFFF AND SWAP1 PUSH4 0xFFFFFFFF AND SWAP1 SWAP2 DUP1 PUSH1 0x1 ADD DUP1 SLOAD PUSH2 0x53B SWAP1 PUSH2 0xB7A JUMP JUMPDEST DUP1 PUSH1 0x1F ADD PUSH1 0x20 DUP1 SWAP2 DIV MUL PUSH1 0x20 ADD PUSH1 0x40 MLOAD SWAP1 DUP2 ADD PUSH1 0x40 MSTORE DUP1 SWAP3 SWAP2 SWAP1 DUP2 DUP2 MSTORE PUSH1 0x20 ADD DUP3 DUP1 SLOAD PUSH2 0x567 SWAP1 PUSH2 0xB7A JUMP JUMPDEST DUP1 ISZERO PUSH2 0x5B2 JUMPI DUP1 PUSH1 0x1F LT PUSH2 0x589 JUMPI PUSH2 0x100 DUP1 DUP4 SLOAD DIV MUL DUP4 MSTORE SWAP2 PUSH1 0x20 ADD SWAP2 PUSH2 0x5B2 JUMP JUMPDEST DUP3 ADD SWAP2 SWAP1 PUSH0 MSTORE PUSH1 0x20 PUSH0 KECCAK256 SWAP1 JUMPDEST DUP2 SLOAD DUP2 MSTORE SWAP1 PUSH1 0x1 ADD SWAP1 PUSH1 0x20 ADD DUP1 DUP4 GT PUSH2 0x595 JUMPI DUP3 SWAP1 SUB PUSH1 0x1F AND DUP3 ADD SWAP2 JUMPDEST POP POP POP POP POP SWAP1 DUP1 PUSH1 0x2 ADD PUSH0 SWAP1 SLOAD SWAP1 PUSH2 0x100 EXP SWAP1 DIV PUSH1 0xFF AND SWAP1 POP DUP5 JUMP JUMPDEST PUSH1 0x60 SWAP2 SWAP1 POP JUMP JUMPDEST PUSH0 PUSH1 0x40 MLOAD SWAP1 POP SWAP1 JUMP JUMPDEST PUSH0 DUP1 REVERT JUMPDEST PUSH0 DUP1 REVERT JUMPDEST PUSH0 DUP1 REVERT JUMPDEST PUSH0 DUP1 REVERT JUMPDEST PUSH0 PUSH1 0x1F NOT PUSH1 0x1F DUP4 ADD AND SWAP1 POP SWAP2 SWAP1 POP JUMP JUMPDEST PUSH32 0x4E487B7100000000000000000000000000000000000000000000000000000000 PUSH0 MSTORE PUSH1 0x41 PUSH1 0x4 MSTORE PUSH1 0x24 PUSH0 REVERT JUMPDEST PUSH2 0x634 DUP3 PUSH2 0x5EE JUMP JUMPDEST DUP2 ADD DUP2 DUP2 LT PUSH8 0xFFFFFFFFFFFFFFFF DUP3 GT OR ISZERO PUSH2 0x653 JUMPI PUSH2 0x652 PUSH2 0x5FE JUMP JUMPDEST JUMPDEST DUP1 PUSH1 0x40 MSTORE POP POP POP JUMP JUMPDEST PUSH0 PUSH2 0x665 PUSH2 0x5D5 JUMP JUMPDEST SWAP1 POP PUSH2 0x671 DUP3 DUP3 PUSH2 0x62B JUMP JUMPDEST SWAP2 SWAP1 POP JUMP JUMPDEST PUSH0 PUSH8 0xFFFFFFFFFFFFFFFF DUP3 GT ISZERO PUSH2 0x690 JUMPI PUSH2 0x68F PUSH2 0x5FE JUMP JUMPDEST JUMPDEST PUSH2 0x699 DUP3 PUSH2 0x5EE JUMP JUMPDEST SWAP1 POP PUSH1 0x20 DUP2 ADD SWAP1 POP SWAP2 SWAP1 POP JUMP JUMPDEST DUP3 DUP2 DUP4 CALLDATACOPY PUSH0 DUP4 DUP4 ADD MSTORE POP POP POP JUMP JUMPDEST PUSH0 PUSH2 0x6C6 PUSH2 0x6C1 DUP5 PUSH2 0x676 JUMP JUMPDEST PUSH2 0x65C JUMP JUMPDEST SWAP1 POP DUP3 DUP2 MSTORE PUSH1 0x20 DUP2 ADD DUP5 DUP5 DUP5 ADD GT ISZERO PUSH2 0x6E2 JUMPI PUSH2 0x6E1 PUSH2 0x5EA JUMP JUMPDEST JUMPDEST PUSH2 0x6ED DUP5 DUP3 DUP6 PUSH2 0x6A6 JUMP JUMPDEST POP SWAP4 SWAP3 POP POP POP JUMP JUMPDEST PUSH0 DUP3 PUSH1 0x1F DUP4 ADD SLT PUSH2 0x709 JUMPI PUSH2 0x708 PUSH2 0x5E6 JUMP JUMPDEST JUMPDEST DUP2 CALLDATALOAD PUSH2 0x719 DUP5 DUP3 PUSH1 0x20 DUP7 ADD PUSH2 0x6B4 JUMP JUMPDEST SWAP2 POP POP SWAP3 SWAP2 POP POP JUMP JUMPDEST PUSH0 PUSH1 0x20 DUP3 DUP5 SUB SLT ISZERO PUSH2 0x737 JUMPI PUSH2 0x736 PUSH2 0x5DE JUMP JUMPDEST JUMPDEST PUSH0 DUP3 ADD CALLDATALOAD PUSH8 0xFFFFFFFFFFFFFFFF DUP2 GT ISZERO PUSH2 0x754 JUMPI PUSH2 0x753 PUSH2 0x5E2 JUMP JUMPDEST JUMPDEST PUSH2 0x760 DUP5 DUP3 DUP6 ADD PUSH2 0x6F5 JUMP JUMPDEST SWAP2 POP POP SWAP3 SWAP2 POP POP JUMP JUMPDEST PUSH0 PUSH32 0xFFFFFFFFFFFFFFFFFFFFFFFFFFFFFFFFFFFFFFFFFFFFFFFF0000000000000000 DUP3 AND SWAP1 POP SWAP2 SWAP1 POP JUMP JUMPDEST PUSH0 PUSH2 0x79E DUP3 PUSH2 0x769 JUMP JUMPDEST SWAP1 POP SWAP2 SWAP1 POP JUMP JUMPDEST PUSH2 0x7AE DUP2 PUSH2 0x794 JUMP JUMPDEST DUP2 EQ PUSH2 0x7B8 JUMPI PUSH0 DUP1 REVERT JUMPDEST POP JUMP JUMPDEST PUSH0 DUP2 CALLDATALOAD SWAP1 POP PUSH2 0x7C9 DUP2 PUSH2 0x7A5 JUMP JUMPDEST SWAP3 SWAP2 POP POP JUMP JUMPDEST PUSH0 DUP2 PUSH1 0x20 SHR SWAP1 POP SWAP2 SWAP1 POP JUMP JUMPDEST PUSH0 DUP2 PUSH1 0x40 SHR SWAP1 POP SWAP2 SWAP1 POP JUMP JUMPDEST PUSH0 DUP1 PUSH2 0x7F2 DUP4 PUSH2 0x7DB JUMP JUMPDEST SWAP3 POP PUSH4 0xFFFFFFFF DUP4 AND SWAP1 POP PUSH2 0x806 DUP4 PUSH2 0x7CF JUMP JUMPDEST SWAP2 POP SWAP2 POP SWAP2 JUMP JUMPDEST PUSH0 DUP1 PUSH2 0x821 PUSH2 0x81C DUP6 DUP6 PUSH2 0x7BB JUMP JUMPDEST PUSH2 0x7E7 JUMP JUMPDEST SWAP2 POP SWAP2 POP SWAP3 POP SWAP3 SWAP1 POP JUMP JUMPDEST PUSH0 DUP1 PUSH1 0x20 DUP4 DUP6 SUB SLT ISZERO PUSH2 0x842 JUMPI PUSH2 0x841 PUSH2 0x5DE JUMP JUMPDEST JUMPDEST PUSH0 PUSH2 0x84F DUP6 DUP3 DUP7 ADD PUSH2 0x80D JUMP JUMPDEST SWAP3 POP SWAP3 POP POP SWAP3 POP SWAP3 SWAP1 POP JUMP JUMPDEST PUSH0 DUP2 MLOAD SWAP1 POP SWAP2 SWAP1 POP JUMP JUMPDEST PUSH0 DUP3 DUP3 MSTORE PUSH1 0x20 DUP3 ADD SWAP1 POP SWAP3 SWAP2 POP POP JUMP JUMPDEST DUP3 DUP2 DUP4 MCOPY PUSH0 DUP4 DUP4 ADD MSTORE POP POP POP JUMP JUMPDEST PUSH0 PUSH2 0x88D DUP3 PUSH2 0x85B JUMP JUMPDEST PUSH2 0x897 DUP2 DUP6 PUSH2 0x865 JUMP JUMPDEST SWAP4 POP PUSH2 0x8A7 DUP2 DUP6 PUSH1 0x20 DUP7 ADD PUSH2 0x875 JUMP JUMPDEST PUSH2 0x8B0 DUP2 PUSH2 0x5EE JUMP JUMPDEST DUP5 ADD SWAP2 POP POP SWAP3 SWAP2 POP POP JUMP JUMPDEST PUSH0 PUSH1 0x20 DUP3 ADD SWAP1 POP DUP2 DUP2 SUB PUSH0 DUP4 ADD MSTORE PUSH2 0x8D3 DUP2 DUP5 PUSH2 0x883 JUMP JUMPDEST SWAP1 POP SWAP3 SWAP2 POP POP JUMP JUMPDEST PUSH0 PUSH20 0xFFFFFFFFFFFFFFFFFFFFFFFFFFFFFFFFFFFFFFFF DUP3 AND SWAP1 POP SWAP2 SWAP1 POP JUMP JUMPDEST PUSH0 PUSH2 0x904 DUP3 PUSH2 0x8DB JUMP JUMPDEST SWAP1 POP SWAP2 SWAP1 POP JUMP JUMPDEST PUSH2 0x914 DUP2 PUSH2 0x8FA JUMP JUMPDEST DUP2 EQ PUSH2 0x91E JUMPI PUSH0 DUP1 REVERT JUMPDEST POP JUMP JUMPDEST PUSH0 DUP2 CALLDATALOAD SWAP1 POP PUSH2 0x92F DUP2 PUSH2 0x90B JUMP JUMPDEST SWAP3 SWAP2 POP POP JUMP JUMPDEST PUSH0 PUSH1 0x20 DUP3 DUP5 SUB SLT ISZERO PUSH2 0x94A JUMPI PUSH2 0x949 PUSH2 0x5DE JUMP JUMPDEST JUMPDEST PUSH0 PUSH2 0x957 DUP5 DUP3 DUP6 ADD PUSH2 0x921 JUMP JUMPDEST SWAP2 POP POP SWAP3 SWAP2 POP POP JUMP JUMPDEST PUSH0 DUP2 PUSH1 0x20 SHL SWAP1 POP SWAP2 SWAP1 POP JUMP JUMPDEST PUSH0 DUP2 PUSH1 0x40 SHL SWAP1 POP SWAP2 SWAP1 POP JUMP JUMPDEST PUSH0 PUSH2 0x992 PUSH4 0xFFFFFFFF DUP5 AND PUSH2 0x98C DUP5 PUSH2 0x960 JUMP JUMPDEST OR PUSH2 0x96C JUMP JUMPDEST SWAP1 POP SWAP3 SWAP2 POP POP JUMP JUMPDEST PUSH0 DUP1 DUP3 SWAP2 POP DUP4 SWAP1 POP SWAP3 POP SWAP3 SWAP1 POP JUMP JUMPDEST PUSH2 0x9B3 DUP3 DUP3 PUSH2 0x99A JUMP JUMPDEST SWAP3 POP SWAP1 POP PUSH2 0x9C1 DUP3 DUP3 PUSH2 0x978 JUMP JUMPDEST DUP4 MSTORE POP POP POP JUMP JUMPDEST PUSH0 DUP2 ISZERO ISZERO SWAP1 POP SWAP2 SWAP1 POP JUMP JUMPDEST PUSH2 0x9DC DUP2 PUSH2 0x9C8 JUMP JUMPDEST DUP3 MSTORE POP POP JUMP JUMPDEST PUSH0 PUSH1 0x60 DUP3 ADD SWAP1 POP PUSH2 0x9F6 PUSH0 DUP4 ADD DUP7 DUP9 PUSH2 0x9A9 JUMP JUMPDEST DUP2 DUP2 SUB PUSH1 0x20 DUP4 ADD MSTORE PUSH2 0xA08 DUP2 DUP6 PUSH2 0x883 JUMP JUMPDEST SWAP1 POP PUSH2 0xA17 PUSH1 0x40 DUP4 ADD DUP5 PUSH2 0x9D3 JUMP JUMPDEST SWAP6 SWAP5 POP POP POP POP POP JUMP JUMPDEST PUSH0 DUP3 DUP3 MSTORE PUSH1 0x20 DUP3 ADD SWAP1 POP SWAP3 SWAP2 POP POP JUMP JUMPDEST PUSH32 0x46756E6374696F6E206E6F7420666F756E640000000000000000000000000000 PUSH0 DUP3 ADD MSTORE POP JUMP JUMPDEST PUSH0 PUSH2 0xA64 PUSH1 0x12 DUP4 PUSH2 0xA20 JUMP JUMPDEST SWAP2 POP PUSH2 0xA6F DUP3 PUSH2 0xA30 JUMP JUMPDEST PUSH1 0x20 DUP3 ADD SWAP1 POP SWAP2 SWAP1 POP JUMP JUMPDEST PUSH0 PUSH1 0x20 DUP3 ADD SWAP1 POP DUP2 DUP2 SUB PUSH0 DUP4 ADD MSTORE PUSH2 0xA91 DUP2 PUSH2 0xA58 JUMP JUMPDEST SWAP1 POP SWAP2 SWAP1 POP JUMP JUMPDEST PUSH0 PUSH2 0xAAA PUSH2 0xAA5 DUP5 PUSH2 0x676 JUMP JUMPDEST PUSH2 0x65C JUMP JUMPDEST SWAP1 POP DUP3 DUP2 MSTORE PUSH1 0x20 DUP2 ADD DUP5 DUP5 DUP5 ADD GT ISZERO PUSH2 0xAC6 JUMPI PUSH2 0xAC5 PUSH2 0x5EA JUMP JUMPDEST JUMPDEST PUSH2 0xAD1 DUP5 DUP3 DUP6 PUSH2 0x875 JUMP JUMPDEST POP SWAP4 SWAP3 POP POP POP JUMP JUMPDEST PUSH0 DUP3 PUSH1 0x1F DUP4 ADD SLT PUSH2 0xAED JUMPI PUSH2 0xAEC PUSH2 0x5E6 JUMP JUMPDEST JUMPDEST DUP2 MLOAD PUSH2 0xAFD DUP5 DUP3 PUSH1 0x20 DUP7 ADD PUSH2 0xA98 JUMP JUMPDEST SWAP2 POP POP SWAP3 SWAP2 POP POP JUMP JUMPDEST PUSH0 PUSH1 0x20 DUP3 DUP5 SUB SLT ISZERO PUSH2 0xB1B JUMPI PUSH2 0xB1A PUSH2 0x5DE JUMP JUMPDEST JUMPDEST PUSH0 DUP3 ADD MLOAD PUSH8 0xFFFFFFFFFFFFFFFF DUP2 GT ISZERO PUSH2 0xB38 JUMPI PUSH2 0xB37 PUSH2 0x5E2 JUMP JUMPDEST JUMPDEST PUSH2 0xB44 DUP5 DUP3 DUP6 ADD PUSH2 0xAD9 JUMP JUMPDEST SWAP2 POP POP SWAP3 SWAP2 POP POP JUMP JUMPDEST PUSH32 0x4E487B7100000000000000000000000000000000000000000000000000000000 PUSH0 MSTORE PUSH1 0x22 PUSH1 0x4 MSTORE PUSH1 0x24 PUSH0 REVERT JUMPDEST PUSH0 PUSH1 0x2 DUP3 DIV SWAP1 POP PUSH1 0x1 DUP3 AND DUP1 PUSH2 0xB91 JUMPI PUSH1 0x7F DUP3 AND SWAP2 POP JUMPDEST PUSH1 0x20 DUP3 LT DUP2 SUB PUSH2 0xBA4 JUMPI PUSH2 0xBA3 PUSH2 0xB4D JUMP JUMPDEST JUMPDEST POP SWAP2 SWAP1 POP JUMP JUMPDEST PUSH0 DUP2 SWAP1 POP DUP2 PUSH0 MSTORE PUSH1 0x20 PUSH0 KECCAK256 SWAP1 POP SWAP2 SWAP1 POP JUMP JUMPDEST PUSH0 PUSH1 0x20 PUSH1 0x1F DUP4 ADD DIV SWAP1 POP SWAP2 SWAP1 POP JUMP JUMPDEST PUSH0 DUP3 DUP3 SHL SWAP1 POP SWAP3 SWAP2 POP POP JUMP JUMPDEST PUSH0 PUSH1 0x8 DUP4 MUL PUSH2 0xC06 PUSH32 0xFFFFFFFFFFFFFFFFFFFFFFFFFFFFFFFFFFFFFFFFFFFFFFFFFFFFFFFFFFFFFFFF DUP3 PUSH2 0xBCB JUMP JUMPDEST PUSH2 0xC10 DUP7 DUP4 PUSH2 0xBCB JUMP JUMPDEST SWAP6 POP DUP1 NOT DUP5 AND SWAP4 POP DUP1 DUP7 AND DUP5 OR SWAP3 POP POP POP SWAP4 SWAP3 POP POP POP JUMP JUMPDEST PUSH0 DUP2 SWAP1 POP SWAP2 SWAP1 POP JUMP JUMPDEST PUSH0 DUP2 SWAP1 POP SWAP2 SWAP1 POP JUMP JUMPDEST PUSH0 PUSH2 0xC54 PUSH2 0xC4F PUSH2 0xC4A DUP5 PUSH2 0xC28 JUMP JUMPDEST PUSH2 0xC31 JUMP JUMPDEST PUSH2 0xC28 JUMP JUMPDEST SWAP1 POP SWAP2 SWAP1 POP JUMP JUMPDEST PUSH0 DUP2 SWAP1 POP SWAP2 SWAP1 POP JUMP JUMPDEST PUSH2 0xC6D DUP4 PUSH2 0xC3A JUMP JUMPDEST PUSH2 0xC81 PUSH2 0xC79 DUP3 PUSH2 0xC5B JUMP JUMPDEST DUP5 DUP5 SLOAD PUSH2 0xBD7 JUMP JUMPDEST DUP3 SSTORE POP POP POP POP JUMP JUMPDEST PUSH0 SWAP1 JUMP JUMPDEST PUSH2 0xC95 PUSH2 0xC89 JUMP JUMPDEST PUSH2 0xCA0 DUP2 DUP5 DUP5 PUSH2 0xC64 JUMP JUMPDEST POP POP POP JUMP JUMPDEST JUMPDEST DUP2 DUP2 LT ISZERO PUSH2 0xCC3 JUMPI PUSH2 0xCB8 PUSH0 DUP3 PUSH2 0xC8D JUMP JUMPDEST PUSH1 0x1 DUP2 ADD SWAP1 POP PUSH2 0xCA6 JUMP JUMPDEST POP POP JUMP JUMPDEST PUSH1 0x1F DUP3 GT ISZERO PUSH2 0xD08 JUMPI PUSH2 0xCD9 DUP2 PUSH2 0xBAA JUMP JUMPDEST PUSH2 0xCE2 DUP5 PUSH2 0xBBC JUMP JUMPDEST DUP2 ADD PUSH1 0x20 DUP6 LT ISZERO PUSH2 0xCF1 JUMPI DUP2 SWAP1 POP JUMPDEST PUSH2 0xD05 PUSH2 0xCFD DUP6 PUSH2 0xBBC JUMP JUMPDEST DUP4 ADD DUP3 PUSH2 0xCA5 JUMP JUMPDEST POP POP JUMPDEST POP POP POP JUMP JUMPDEST PUSH0 DUP3 DUP3 SHR SWAP1 POP SWAP3 SWAP2 POP POP JUMP JUMPDEST PUSH0 PUSH2 0xD28 PUSH0 NOT DUP5 PUSH1 0x8 MUL PUSH2 0xD0D JUMP JUMPDEST NOT DUP1 DUP4 AND SWAP2 POP POP SWAP3 SWAP2 POP POP JUMP JUMPDEST PUSH0 PUSH2 0xD40 DUP4 DUP4 PUSH2 0xD19 JUMP JUMPDEST SWAP2 POP DUP3 PUSH1 0x2 MUL DUP3 OR SWAP1 POP SWAP3 SWAP2 POP POP JUMP JUMPDEST PUSH2 0xD59 DUP3 PUSH2 0x85B JUMP JUMPDEST PUSH8 0xFFFFFFFFFFFFFFFF DUP2 GT ISZERO PUSH2 0xD72 JUMPI PUSH2 0xD71 PUSH2 0x5FE JUMP JUMPDEST JUMPDEST PUSH2 0xD7C DUP3 SLOAD PUSH2 0xB7A JUMP JUMPDEST PUSH2 0xD87 DUP3 DUP3 DUP6 PUSH2 0xCC7 JUMP JUMPDEST PUSH0 PUSH1 0x20 SWAP1 POP PUSH1 0x1F DUP4 GT PUSH1 0x1 DUP2 EQ PUSH2 0xDB8 JUMPI PUSH0 DUP5 ISZERO PUSH2 0xDA6 JUMPI DUP3 DUP8 ADD MLOAD SWAP1 POP JUMPDEST PUSH2 0xDB0 DUP6 DUP3 PUSH2 0xD35 JUMP JUMPDEST DUP7 SSTORE POP PUSH2 0xE17 JUMP JUMPDEST PUSH1 0x1F NOT DUP5 AND PUSH2 0xDC6 DUP7 PUSH2 0xBAA JUMP JUMPDEST PUSH0 JUMPDEST DUP3 DUP2 LT ISZERO PUSH2 0xDED JUMPI DUP5 DUP10 ADD MLOAD DUP3 SSTORE PUSH1 0x1 DUP3 ADD SWAP2 POP PUSH1 0x20 DUP6 ADD SWAP5 POP PUSH1 0x20 DUP2 ADD SWAP1 POP PUSH2 0xDC8 JUMP JUMPDEST DUP7 DUP4 LT ISZERO PUSH2 0xE0A JUMPI DUP5 DUP10 ADD MLOAD PUSH2 0xE06 PUSH1 0x1F DUP10 AND DUP3 PUSH2 0xD19 JUMP JUMPDEST DUP4 SSTORE POP JUMPDEST PUSH1 0x1 PUSH1 0x2 DUP9 MUL ADD DUP9 SSTORE POP POP POP JUMPDEST POP POP POP POP POP POP JUMP INVALID LOG2 PUSH5 0x6970667358 0x22 SLT KECCAK256 EXTCODECOPY RETURN 0xCD RETURNDATASIZE SWAP12 0xB9 CALL 0xDD POP PUSH8 0xFB25D0C7ACD3ED4B LOG4 PUSH2 0xBDD4 GASLIMIT SWAP5 0xCB 0xA8 GAS PUSH13 0xAF29F52C64736F6C634300081A STOP CALLER "
				},
				"gasEstimates": {
					"creation": {
						"codeDepositCost": "733800",
						"executionCost": "764",
						"totalCost": "734564"
					},
					"external": {
						"addFunction(function)": "infinite",
						"callFunction(bytes)": "infinite",
						"emptyFunction(bytes)": "infinite",
						"functions(address)": "infinite",
						"getResult()": "infinite"
					}
				},
				"methodIdentifiers": {
					"addFunction(function)": "d7603460",
					"callFunction(bytes)": "0bdf12f1",
					"emptyFunction(bytes)": "f551e362",
					"functions(address)": "def005ec",
					"getResult()": "de292789"
				}
			},
			"storageLayout": {
				"storage": [
					{
						"astId": 19,
						"contract": "week7example2.sol:FunctionsBank",
						"label": "functions",
						"offset": 0,
						"slot": "0",
						"type": "t_mapping(t_address,t_struct(Function)14_storage)"
					}
				],
				"types": {
					"t_address": {
						"encoding": "inplace",
						"label": "address",
						"numberOfBytes": "20"
					},
					"t_bool": {
						"encoding": "inplace",
						"label": "bool",
						"numberOfBytes": "1"
					},
					"t_bytes_storage": {
						"encoding": "bytes",
						"label": "bytes",
						"numberOfBytes": "32"
					},
					"t_function_external_pure(t_bytes_memory_ptr)returns(t_bytes_memory_ptr)": {
						"encoding": "inplace",
						"label": "function (bytes) pure external returns (bytes)",
						"numberOfBytes": "24"
					},
					"t_mapping(t_address,t_struct(Function)14_storage)": {
						"encoding": "mapping",
						"key": "t_address",
						"label": "mapping(address => struct FunctionsBank.Function)",
						"numberOfBytes": "32",
						"value": "t_struct(Function)14_storage"
					},
					"t_struct(Function)14_storage": {
						"encoding": "inplace",
						"label": "struct FunctionsBank.Function",
						"members": [
							{
								"astId": 9,
								"contract": "week7example2.sol:FunctionsBank",
								"label": "func",
								"offset": 0,
								"slot": "0",
								"type": "t_function_external_pure(t_bytes_memory_ptr)returns(t_bytes_memory_ptr)"
							},
							{
								"astId": 11,
								"contract": "week7example2.sol:FunctionsBank",
								"label": "result",
								"offset": 0,
								"slot": "1",
								"type": "t_bytes_storage"
							},
							{
								"astId": 13,
								"contract": "week7example2.sol:FunctionsBank",
								"label": "isSet",
								"offset": 0,
								"slot": "2",
								"type": "t_bool"
							}
						],
						"numberOfBytes": "96"
					}
				}
			},
			"userdoc": {
				"kind": "user",
				"methods": {},
				"version": 1
			}
		}
	}
}