{
	"week7example1.sol": {
		"ArrayManipulationContract": {
			"abi": [
				{
					"inputs": [
						{
							"internalType": "uint256",
							"name": "length",
							"type": "uint256"
						}
					],
					"name": "initializeAndSum",
					"outputs": [
						{
							"internalType": "int256",
							"name": "",
							"type": "int256"
						}
					],
					"stateMutability": "pure",
					"type": "function"
				},
				{
					"inputs": [
						{
							"internalType": "int256[]",
							"name": "data",
							"type": "int256[]"
						}
					],
					"name": "mapAndReverse",
					"outputs": [
						{
							"internalType": "int256[]",
							"name": "",
							"type": "int256[]"
						}
					],
					"stateMutability": "pure",
					"type": "function"
				},
				{
					"inputs": [
						{
							"internalType": "int256[]",
							"name": "data",
							"type": "int256[]"
						}
					],
					"name": "reduceAndMultiply",
					"outputs": [
						{
							"internalType": "int256",
							"name": "",
							"type": "int256"
						}
					],
					"stateMutability": "pure",
					"type": "function"
				},
				{
					"inputs": [
						{
							"internalType": "int256[]",
							"name": "data",
							"type": "int256[]"
						}
					],
					"name": "reverseArray",
					"outputs": [
						{
							"internalType": "int256[]",
							"name": "",
							"type": "int256[]"
						}
					],
					"stateMutability": "pure",
					"type": "function"
				},
				{
					"inputs": [
						{
							"internalType": "int256[]",
							"name": "data",
							"type": "int256[]"
						}
					],
					"name": "sumAndReverse",
					"outputs": [
						{
							"internalType": "int256",
							"name": "",
							"type": "int256"
						}
					],
					"stateMutability": "pure",
					"type": "function"
				}
			],
			"devdoc": {
				"kind": "dev",
				"methods": {},
				"version": 1
			},
			"evm": {
				"assembly": "    /* \"week7example1.sol\":1632:2532  contract ArrayManipulationContract {... */\n  mstore(0x40, 0x80)\n  callvalue\n  dup1\n  iszero\n  tag_1\n  jumpi\n  0x00\n  dup1\n  revert\ntag_1:\n  pop\n  dataSize(sub_0)\n  dup1\n  dataOffset(sub_0)\n  0x00\n  codecopy\n  0x00\n  return\nstop\n\nsub_0: assembly {\n        /* \"week7example1.sol\":1632:2532  contract ArrayManipulationContract {... */\n      mstore(0x40, 0x80)\n      callvalue\n      dup1\n      iszero\n      tag_1\n      jumpi\n      0x00\n      dup1\n      revert\n    tag_1:\n      pop\n      jumpi(tag_2, lt(calldatasize, 0x04))\n      shr(0xe0, calldataload(0x00))\n      dup1\n      0x06694a0a\n      eq\n      tag_3\n      jumpi\n      dup1\n      0x3713c898\n      eq\n      tag_4\n      jumpi\n      dup1\n      0x8a70c2ba\n      eq\n      tag_5\n      jumpi\n      dup1\n      0x9e7369e8\n      eq\n      tag_6\n      jumpi\n      dup1\n      0xe8e2341d\n      eq\n      tag_7\n      jumpi\n    tag_2:\n      0x00\n      dup1\n      revert\n        /* \"week7example1.sol\":2400:2529  function reverseArray(int256[] memory data) external pure returns (int256[] memory) {... */\n    tag_3:\n      tag_8\n      0x04\n      dup1\n      calldatasize\n      sub\n      dup2\n      add\n      swap1\n      tag_9\n      swap2\n      swap1\n      tag_10\n      jump\t// in\n    tag_9:\n      tag_11\n      jump\t// in\n    tag_8:\n      mload(0x40)\n      tag_12\n      swap2\n      swap1\n      tag_13\n      jump\t// in\n    tag_12:\n      mload(0x40)\n      dup1\n      swap2\n      sub\n      swap1\n      return\n        /* \"week7example1.sol\":1720:1896  function initializeAndSum(uint256 length) external pure returns (int256) {... */\n    tag_4:\n      tag_14\n      0x04\n      dup1\n      calldatasize\n      sub\n      dup2\n      add\n      swap1\n      tag_15\n      swap2\n      swap1\n      tag_16\n      jump\t// in\n    tag_15:\n      tag_17\n      jump\t// in\n    tag_14:\n      mload(0x40)\n      tag_18\n      swap2\n      swap1\n      tag_19\n      jump\t// in\n    tag_18:\n      mload(0x40)\n      dup1\n      swap2\n      sub\n      swap1\n      return\n        /* \"week7example1.sol\":1904:2051  function mapAndReverse(int256[] memory data) external pure returns (int256[] memory) {... */\n    tag_5:\n      tag_20\n      0x04\n      dup1\n      calldatasize\n      sub\n      dup2\n      add\n      swap1\n      tag_21\n      swap2\n      swap1\n      tag_10\n      jump\t// in\n    tag_21:\n      tag_22\n      jump\t// in\n    tag_20:\n      mload(0x40)\n      tag_23\n      swap2\n      swap1\n      tag_13\n      jump\t// in\n    tag_23:\n      mload(0x40)\n      dup1\n      swap2\n      sub\n      swap1\n      return\n        /* \"week7example1.sol\":2209:2392  function sumAndReverse(int256[] memory data) external pure returns (int256) {... */\n    tag_6:\n      tag_24\n      0x04\n      dup1\n      calldatasize\n      sub\n      dup2\n      add\n      swap1\n      tag_25\n      swap2\n      swap1\n      tag_10\n      jump\t// in\n    tag_25:\n      tag_26\n      jump\t// in\n    tag_24:\n      mload(0x40)\n      tag_27\n      swap2\n      swap1\n      tag_19\n      jump\t// in\n    tag_27:\n      mload(0x40)\n      dup1\n      swap2\n      sub\n      swap1\n      return\n        /* \"week7example1.sol\":2059:2201  function reduceAndMultiply(int256[] memory data) external pure returns (int256) {... */\n    tag_7:\n      tag_28\n      0x04\n      dup1\n      calldatasize\n      sub\n      dup2\n      add\n      swap1\n      tag_29\n      swap2\n      swap1\n      tag_10\n      jump\t// in\n    tag_29:\n      tag_30\n      jump\t// in\n    tag_28:\n      mload(0x40)\n      tag_31\n      swap2\n      swap1\n      tag_19\n      jump\t// in\n    tag_31:\n      mload(0x40)\n      dup1\n      swap2\n      sub\n      swap1\n      return\n        /* \"week7example1.sol\":2400:2529  function reverseArray(int256[] memory data) external pure returns (int256[] memory) {... */\n    tag_11:\n        /* \"week7example1.sol\":2467:2482  int256[] memory */\n      0x60\n        /* \"week7example1.sol\":2502:2521  data.reverseArray() */\n      tag_33\n        /* \"week7example1.sol\":2502:2506  data */\n      dup3\n        /* \"week7example1.sol\":2502:2519  data.reverseArray */\n      tag_34\n        /* \"week7example1.sol\":2502:2521  data.reverseArray() */\n      jump\t// in\n    tag_33:\n        /* \"week7example1.sol\":2495:2521  return data.reverseArray() */\n      swap1\n      pop\n        /* \"week7example1.sol\":2400:2529  function reverseArray(int256[] memory data) external pure returns (int256[] memory) {... */\n      swap2\n      swap1\n      pop\n      jump\t// out\n        /* \"week7example1.sol\":1720:1896  function initializeAndSum(uint256 length) external pure returns (int256) {... */\n    tag_17:\n        /* \"week7example1.sol\":1785:1791  int256 */\n      0x00\n        /* \"week7example1.sol\":1804:1825  int256[] memory array */\n      dup1\n        /* \"week7example1.sol\":1828:1859  Int256ArrayLibrary.init(length) */\n      tag_36\n        /* \"week7example1.sol\":1852:1858  length */\n      dup4\n        /* \"week7example1.sol\":1828:1851  Int256ArrayLibrary.init */\n      tag_37\n        /* \"week7example1.sol\":1828:1859  Int256ArrayLibrary.init(length) */\n      jump\t// in\n    tag_36:\n        /* \"week7example1.sol\":1804:1859  int256[] memory array = Int256ArrayLibrary.init(length) */\n      swap1\n      pop\n        /* \"week7example1.sol\":1877:1888  array.sum() */\n      tag_38\n        /* \"week7example1.sol\":1877:1882  array */\n      dup2\n        /* \"week7example1.sol\":1877:1886  array.sum */\n      tag_39\n        /* \"week7example1.sol\":1877:1888  array.sum() */\n      jump\t// in\n    tag_38:\n        /* \"week7example1.sol\":1870:1888  return array.sum() */\n      swap2\n      pop\n      pop\n        /* \"week7example1.sol\":1720:1896  function initializeAndSum(uint256 length) external pure returns (int256) {... */\n      swap2\n      swap1\n      pop\n      jump\t// out\n        /* \"week7example1.sol\":1904:2051  function mapAndReverse(int256[] memory data) external pure returns (int256[] memory) {... */\n    tag_22:\n        /* \"week7example1.sol\":1972:1987  int256[] memory */\n      0x60\n        /* \"week7example1.sol\":2007:2043  data.map(Int256ArrayLibrary.reverse) */\n      tag_41\n        /* \"week7example1.sol\":2016:2042  Int256ArrayLibrary.reverse */\n      tag_42\n        /* \"week7example1.sol\":2007:2011  data */\n      dup4\n        /* \"week7example1.sol\":2007:2015  data.map */\n      tag_43\n      swap1\n        /* \"week7example1.sol\":2007:2043  data.map(Int256ArrayLibrary.reverse) */\n      swap2\n      swap1\n      0xffffffff\n      and\n      jump\t// in\n    tag_41:\n        /* \"week7example1.sol\":2000:2043  return data.map(Int256ArrayLibrary.reverse) */\n      swap1\n      pop\n        /* \"week7example1.sol\":1904:2051  function mapAndReverse(int256[] memory data) external pure returns (int256[] memory) {... */\n      swap2\n      swap1\n      pop\n      jump\t// out\n        /* \"week7example1.sol\":2209:2392  function sumAndReverse(int256[] memory data) external pure returns (int256) {... */\n    tag_26:\n        /* \"week7example1.sol\":2277:2283  int256 */\n      0x00\n        /* \"week7example1.sol\":2296:2325  int256[] memory reversedArray */\n      dup1\n        /* \"week7example1.sol\":2328:2347  data.reverseArray() */\n      tag_45\n        /* \"week7example1.sol\":2328:2332  data */\n      dup4\n        /* \"week7example1.sol\":2328:2345  data.reverseArray */\n      tag_34\n        /* \"week7example1.sol\":2328:2347  data.reverseArray() */\n      jump\t// in\n    tag_45:\n        /* \"week7example1.sol\":2296:2347  int256[] memory reversedArray = data.reverseArray() */\n      swap1\n      pop\n        /* \"week7example1.sol\":2365:2384  reversedArray.sum() */\n      tag_46\n        /* \"week7example1.sol\":2365:2378  reversedArray */\n      dup2\n        /* \"week7example1.sol\":2365:2382  reversedArray.sum */\n      tag_39\n        /* \"week7example1.sol\":2365:2384  reversedArray.sum() */\n      jump\t// in\n    tag_46:\n        /* \"week7example1.sol\":2358:2384  return reversedArray.sum() */\n      swap2\n      pop\n      pop\n        /* \"week7example1.sol\":2209:2392  function sumAndReverse(int256[] memory data) external pure returns (int256) {... */\n      swap2\n      swap1\n      pop\n      jump\t// out\n        /* \"week7example1.sol\":2059:2201  function reduceAndMultiply(int256[] memory data) external pure returns (int256) {... */\n    tag_30:\n        /* \"week7example1.sol\":2131:2137  int256 */\n      0x00\n        /* \"week7example1.sol\":2157:2193  data.reduce(Int256ArrayLibrary.mult) */\n      tag_48\n        /* \"week7example1.sol\":2169:2192  Int256ArrayLibrary.mult */\n      tag_49\n        /* \"week7example1.sol\":2157:2161  data */\n      dup4\n        /* \"week7example1.sol\":2157:2168  data.reduce */\n      tag_50\n      swap1\n        /* \"week7example1.sol\":2157:2193  data.reduce(Int256ArrayLibrary.mult) */\n      swap2\n      swap1\n      0xffffffff\n      and\n      jump\t// in\n    tag_48:\n        /* \"week7example1.sol\":2150:2193  return data.reduce(Int256ArrayLibrary.mult) */\n      swap1\n      pop\n        /* \"week7example1.sol\":2059:2201  function reduceAndMultiply(int256[] memory data) external pure returns (int256) {... */\n      swap2\n      swap1\n      pop\n      jump\t// out\n        /* \"week7example1.sol\":1341:1625  function reverseArray(int256[] memory data) internal pure returns (int256[] memory) {... */\n    tag_34:\n        /* \"week7example1.sol\":1408:1423  int256[] memory */\n      0x60\n        /* \"week7example1.sol\":1436:1458  int256[] memory result */\n      0x00\n        /* \"week7example1.sol\":1474:1478  data */\n      dup3\n        /* \"week7example1.sol\":1474:1485  data.length */\n      mload\n        /* \"week7example1.sol\":1461:1486  new int256[](data.length) */\n      0xffffffffffffffff\n      dup2\n      gt\n      iszero\n      tag_52\n      jumpi\n      tag_53\n      tag_54\n      jump\t// in\n    tag_53:\n    tag_52:\n      mload(0x40)\n      swap1\n      dup1\n      dup3\n      mstore\n      dup1\n      0x20\n      mul\n      0x20\n      add\n      dup3\n      add\n      0x40\n      mstore\n      dup1\n      iszero\n      tag_55\n      jumpi\n      dup2\n      0x20\n      add\n      0x20\n      dup3\n      mul\n      dup1\n      calldatasize\n      dup4\n      calldatacopy\n      dup1\n      dup3\n      add\n      swap2\n      pop\n      pop\n      swap1\n      pop\n    tag_55:\n      pop\n        /* \"week7example1.sol\":1436:1486  int256[] memory result = new int256[](data.length) */\n      swap1\n      pop\n        /* \"week7example1.sol\":1502:1511  uint256 i */\n      0x00\n        /* \"week7example1.sol\":1497:1594  for (uint256 i = 0; i < data.length; i++) {... */\n    tag_56:\n        /* \"week7example1.sol\":1521:1525  data */\n      dup4\n        /* \"week7example1.sol\":1521:1532  data.length */\n      mload\n        /* \"week7example1.sol\":1517:1518  i */\n      dup2\n        /* \"week7example1.sol\":1517:1532  i < data.length */\n      lt\n        /* \"week7example1.sol\":1497:1594  for (uint256 i = 0; i < data.length; i++) {... */\n      iszero\n      tag_57\n      jumpi\n        /* \"week7example1.sol\":1566:1582  reverse(data[i]) */\n      tag_59\n        /* \"week7example1.sol\":1574:1578  data */\n      dup5\n        /* \"week7example1.sol\":1579:1580  i */\n      dup3\n        /* \"week7example1.sol\":1574:1581  data[i] */\n      dup2\n      mload\n      dup2\n      lt\n      tag_60\n      jumpi\n      tag_61\n      tag_62\n      jump\t// in\n    tag_61:\n    tag_60:\n      0x20\n      mul\n      0x20\n      add\n      add\n      mload\n        /* \"week7example1.sol\":1566:1573  reverse */\n      tag_42\n        /* \"week7example1.sol\":1566:1582  reverse(data[i]) */\n      jump\t// in\n    tag_59:\n        /* \"week7example1.sol\":1554:1560  result */\n      dup3\n        /* \"week7example1.sol\":1561:1562  i */\n      dup3\n        /* \"week7example1.sol\":1554:1563  result[i] */\n      dup2\n      mload\n      dup2\n      lt\n      tag_63\n      jumpi\n      tag_64\n      tag_62\n      jump\t// in\n    tag_64:\n    tag_63:\n      0x20\n      mul\n      0x20\n      add\n      add\n        /* \"week7example1.sol\":1554:1582  result[i] = reverse(data[i]) */\n      dup2\n      dup2\n      mstore\n      pop\n      pop\n        /* \"week7example1.sol\":1534:1537  i++ */\n      dup1\n      dup1\n      0x01\n      add\n      swap2\n      pop\n      pop\n        /* \"week7example1.sol\":1497:1594  for (uint256 i = 0; i < data.length; i++) {... */\n      jump(tag_56)\n    tag_57:\n      pop\n        /* \"week7example1.sol\":1611:1617  result */\n      dup1\n        /* \"week7example1.sol\":1604:1617  return result */\n      swap2\n      pop\n      pop\n        /* \"week7example1.sol\":1341:1625  function reverseArray(int256[] memory data) internal pure returns (int256[] memory) {... */\n      swap2\n      swap1\n      pop\n      jump\t// out\n        /* \"week7example1.sol\":94:353  function init(uint256 length) internal pure returns (int256[] memory) {... */\n    tag_37:\n        /* \"week7example1.sol\":147:162  int256[] memory */\n      0x60\n        /* \"week7example1.sol\":175:199  int256[] memory newArray */\n      0x00\n        /* \"week7example1.sol\":215:221  length */\n      dup3\n        /* \"week7example1.sol\":202:222  new int256[](length) */\n      0xffffffffffffffff\n      dup2\n      gt\n      iszero\n      tag_66\n      jumpi\n      tag_67\n      tag_54\n      jump\t// in\n    tag_67:\n    tag_66:\n      mload(0x40)\n      swap1\n      dup1\n      dup3\n      mstore\n      dup1\n      0x20\n      mul\n      0x20\n      add\n      dup3\n      add\n      0x40\n      mstore\n      dup1\n      iszero\n      tag_68\n      jumpi\n      dup2\n      0x20\n      add\n      0x20\n      dup3\n      mul\n      dup1\n      calldatasize\n      dup4\n      calldatacopy\n      dup1\n      dup3\n      add\n      swap2\n      pop\n      pop\n      swap1\n      pop\n    tag_68:\n      pop\n        /* \"week7example1.sol\":175:222  int256[] memory newArray = new int256[](length) */\n      swap1\n      pop\n        /* \"week7example1.sol\":238:247  uint256 i */\n      0x00\n        /* \"week7example1.sol\":233:320  for (uint256 i = 0; i < length; i++) {... */\n    tag_69:\n        /* \"week7example1.sol\":257:263  length */\n      dup4\n        /* \"week7example1.sol\":253:254  i */\n      dup2\n        /* \"week7example1.sol\":253:263  i < length */\n      lt\n        /* \"week7example1.sol\":233:320  for (uint256 i = 0; i < length; i++) {... */\n      iszero\n      tag_70\n      jumpi\n        /* \"week7example1.sol\":306:307  i */\n      dup1\n        /* \"week7example1.sol\":285:293  newArray */\n      dup3\n        /* \"week7example1.sol\":294:295  i */\n      dup3\n        /* \"week7example1.sol\":285:296  newArray[i] */\n      dup2\n      mload\n      dup2\n      lt\n      tag_72\n      jumpi\n      tag_73\n      tag_62\n      jump\t// in\n    tag_73:\n    tag_72:\n      0x20\n      mul\n      0x20\n      add\n      add\n        /* \"week7example1.sol\":285:308  newArray[i] = int256(i) */\n      dup2\n      dup2\n      mstore\n      pop\n      pop\n        /* \"week7example1.sol\":265:268  i++ */\n      dup1\n      dup1\n      0x01\n      add\n      swap2\n      pop\n      pop\n        /* \"week7example1.sol\":233:320  for (uint256 i = 0; i < length; i++) {... */\n      jump(tag_69)\n    tag_70:\n      pop\n        /* \"week7example1.sol\":337:345  newArray */\n      dup1\n        /* \"week7example1.sol\":330:345  return newArray */\n      swap2\n      pop\n      pop\n        /* \"week7example1.sol\":94:353  function init(uint256 length) internal pure returns (int256[] memory) {... */\n      swap2\n      swap1\n      pop\n      jump\t// out\n        /* \"week7example1.sol\":774:996  function sum(int256[] memory data) internal pure returns (int256) {... */\n    tag_39:\n        /* \"week7example1.sol\":832:838  int256 */\n      0x00\n        /* \"week7example1.sol\":851:864  int256 result */\n      dup1\n        /* \"week7example1.sol\":867:868  0 */\n      0x00\n        /* \"week7example1.sol\":851:868  int256 result = 0 */\n      swap1\n      pop\n        /* \"week7example1.sol\":884:893  uint256 i */\n      0x00\n        /* \"week7example1.sol\":879:965  for (uint256 i = 0; i < data.length; i++) {... */\n    tag_75:\n        /* \"week7example1.sol\":903:907  data */\n      dup4\n        /* \"week7example1.sol\":903:914  data.length */\n      mload\n        /* \"week7example1.sol\":899:900  i */\n      dup2\n        /* \"week7example1.sol\":899:914  i < data.length */\n      lt\n        /* \"week7example1.sol\":879:965  for (uint256 i = 0; i < data.length; i++) {... */\n      iszero\n      tag_76\n      jumpi\n        /* \"week7example1.sol\":946:950  data */\n      dup4\n        /* \"week7example1.sol\":951:952  i */\n      dup2\n        /* \"week7example1.sol\":946:953  data[i] */\n      dup2\n      mload\n      dup2\n      lt\n      tag_78\n      jumpi\n      tag_79\n      tag_62\n      jump\t// in\n    tag_79:\n    tag_78:\n      0x20\n      mul\n      0x20\n      add\n      add\n      mload\n        /* \"week7example1.sol\":936:953  result += data[i] */\n      dup3\n      tag_80\n      swap2\n      swap1\n      tag_81\n      jump\t// in\n    tag_80:\n      swap2\n      pop\n        /* \"week7example1.sol\":916:919  i++ */\n      dup1\n      dup1\n      0x01\n      add\n      swap2\n      pop\n      pop\n        /* \"week7example1.sol\":879:965  for (uint256 i = 0; i < data.length; i++) {... */\n      jump(tag_75)\n    tag_76:\n      pop\n        /* \"week7example1.sol\":982:988  result */\n      dup1\n        /* \"week7example1.sol\":975:988  return result */\n      swap2\n      pop\n      pop\n        /* \"week7example1.sol\":774:996  function sum(int256[] memory data) internal pure returns (int256) {... */\n      swap2\n      swap1\n      pop\n      jump\t// out\n        /* \"week7example1.sol\":1235:1333  function reverse(int256 value) internal pure returns (int256) {... */\n    tag_42:\n        /* \"week7example1.sol\":1289:1295  int256 */\n      0x00\n        /* \"week7example1.sol\":1323:1325  -1 */\n      0xffffffffffffffffffffffffffffffffffffffffffffffffffffffffffffffff\n        /* \"week7example1.sol\":1315:1320  value */\n      dup3\n        /* \"week7example1.sol\":1315:1325  value * -1 */\n      tag_83\n      swap2\n      swap1\n      tag_84\n      jump\t// in\n    tag_83:\n        /* \"week7example1.sol\":1308:1325  return value * -1 */\n      swap1\n      pop\n        /* \"week7example1.sol\":1235:1333  function reverse(int256 value) internal pure returns (int256) {... */\n      swap2\n      swap1\n      pop\n      jump\t// out\n        /* \"week7example1.sol\":361:606  function map(int256[] memory data, function(int256) pure returns(int256) f) internal pure returns (int256[] memory) {... */\n    tag_43:\n        /* \"week7example1.sol\":460:475  int256[] memory */\n      0x60\n        /* \"week7example1.sol\":493:502  uint256 i */\n      0x00\n        /* \"week7example1.sol\":488:577  for (uint256 i = 0; i < data.length; i++) {... */\n    tag_86:\n        /* \"week7example1.sol\":512:516  data */\n      dup4\n        /* \"week7example1.sol\":512:523  data.length */\n      mload\n        /* \"week7example1.sol\":508:509  i */\n      dup2\n        /* \"week7example1.sol\":508:523  i < data.length */\n      lt\n        /* \"week7example1.sol\":488:577  for (uint256 i = 0; i < data.length; i++) {... */\n      iszero\n      tag_87\n      jumpi\n        /* \"week7example1.sol\":555:565  f(data[i]) */\n      tag_89\n        /* \"week7example1.sol\":557:561  data */\n      dup5\n        /* \"week7example1.sol\":562:563  i */\n      dup3\n        /* \"week7example1.sol\":557:564  data[i] */\n      dup2\n      mload\n      dup2\n      lt\n      tag_90\n      jumpi\n      tag_91\n      tag_62\n      jump\t// in\n    tag_91:\n    tag_90:\n      0x20\n      mul\n      0x20\n      add\n      add\n      mload\n        /* \"week7example1.sol\":555:556  f */\n      dup5\n        /* \"week7example1.sol\":555:565  f(data[i]) */\n      0xffffffff\n      and\n      jump\t// in\n    tag_89:\n        /* \"week7example1.sol\":545:549  data */\n      dup5\n        /* \"week7example1.sol\":550:551  i */\n      dup3\n        /* \"week7example1.sol\":545:552  data[i] */\n      dup2\n      mload\n      dup2\n      lt\n      tag_92\n      jumpi\n      tag_93\n      tag_62\n      jump\t// in\n    tag_93:\n    tag_92:\n      0x20\n      mul\n      0x20\n      add\n      add\n        /* \"week7example1.sol\":545:565  data[i] = f(data[i]) */\n      dup2\n      dup2\n      mstore\n      pop\n      pop\n        /* \"week7example1.sol\":525:528  i++ */\n      dup1\n      dup1\n      0x01\n      add\n      swap2\n      pop\n      pop\n        /* \"week7example1.sol\":488:577  for (uint256 i = 0; i < data.length; i++) {... */\n      jump(tag_86)\n    tag_87:\n      pop\n        /* \"week7example1.sol\":594:598  data */\n      dup3\n        /* \"week7example1.sol\":587:598  return data */\n      swap1\n      pop\n        /* \"week7example1.sol\":361:606  function map(int256[] memory data, function(int256) pure returns(int256) f) internal pure returns (int256[] memory) {... */\n      swap3\n      swap2\n      pop\n      pop\n      jump\t// out\n        /* \"week7example1.sol\":1004:1227  function mult(int256[] memory data) internal pure returns (int256) {... */\n    tag_49:\n        /* \"week7example1.sol\":1063:1069  int256 */\n      0x00\n        /* \"week7example1.sol\":1082:1095  int256 result */\n      dup1\n        /* \"week7example1.sol\":1098:1099  1 */\n      0x01\n        /* \"week7example1.sol\":1082:1099  int256 result = 1 */\n      swap1\n      pop\n        /* \"week7example1.sol\":1115:1124  uint256 i */\n      0x00\n        /* \"week7example1.sol\":1110:1196  for (uint256 i = 0; i < data.length; i++) {... */\n    tag_95:\n        /* \"week7example1.sol\":1134:1138  data */\n      dup4\n        /* \"week7example1.sol\":1134:1145  data.length */\n      mload\n        /* \"week7example1.sol\":1130:1131  i */\n      dup2\n        /* \"week7example1.sol\":1130:1145  i < data.length */\n      lt\n        /* \"week7example1.sol\":1110:1196  for (uint256 i = 0; i < data.length; i++) {... */\n      iszero\n      tag_96\n      jumpi\n        /* \"week7example1.sol\":1177:1181  data */\n      dup4\n        /* \"week7example1.sol\":1182:1183  i */\n      dup2\n        /* \"week7example1.sol\":1177:1184  data[i] */\n      dup2\n      mload\n      dup2\n      lt\n      tag_98\n      jumpi\n      tag_99\n      tag_62\n      jump\t// in\n    tag_99:\n    tag_98:\n      0x20\n      mul\n      0x20\n      add\n      add\n      mload\n        /* \"week7example1.sol\":1167:1184  result *= data[i] */\n      dup3\n      tag_100\n      swap2\n      swap1\n      tag_84\n      jump\t// in\n    tag_100:\n      swap2\n      pop\n        /* \"week7example1.sol\":1147:1150  i++ */\n      dup1\n      dup1\n      0x01\n      add\n      swap2\n      pop\n      pop\n        /* \"week7example1.sol\":1110:1196  for (uint256 i = 0; i < data.length; i++) {... */\n      jump(tag_95)\n    tag_96:\n      pop\n        /* \"week7example1.sol\":1213:1219  result */\n      dup1\n        /* \"week7example1.sol\":1206:1219  return result */\n      swap2\n      pop\n      pop\n        /* \"week7example1.sol\":1004:1227  function mult(int256[] memory data) internal pure returns (int256) {... */\n      swap2\n      swap1\n      pop\n      jump\t// out\n        /* \"week7example1.sol\":614:766  function reduce(int256[] memory data, function(int256[] memory) pure returns(int256) f) internal pure returns (int256) {... */\n    tag_50:\n        /* \"week7example1.sol\":725:731  int256 */\n      0x00\n        /* \"week7example1.sol\":751:758  f(data) */\n      tag_102\n        /* \"week7example1.sol\":753:757  data */\n      dup4\n        /* \"week7example1.sol\":751:752  f */\n      dup4\n        /* \"week7example1.sol\":751:758  f(data) */\n      0xffffffff\n      and\n      jump\t// in\n    tag_102:\n        /* \"week7example1.sol\":744:758  return f(data) */\n      swap1\n      pop\n        /* \"week7example1.sol\":614:766  function reduce(int256[] memory data, function(int256[] memory) pure returns(int256) f) internal pure returns (int256) {... */\n      swap3\n      swap2\n      pop\n      pop\n      jump\t// out\n        /* \"#utility.yul\":7:82   */\n    tag_103:\n        /* \"#utility.yul\":40:46   */\n      0x00\n        /* \"#utility.yul\":73:75   */\n      0x40\n        /* \"#utility.yul\":67:76   */\n      mload\n        /* \"#utility.yul\":57:76   */\n      swap1\n      pop\n        /* \"#utility.yul\":7:82   */\n      swap1\n      jump\t// out\n        /* \"#utility.yul\":88:205   */\n    tag_104:\n        /* \"#utility.yul\":197:198   */\n      0x00\n        /* \"#utility.yul\":194:195   */\n      dup1\n        /* \"#utility.yul\":187:199   */\n      revert\n        /* \"#utility.yul\":211:328   */\n    tag_105:\n        /* \"#utility.yul\":320:321   */\n      0x00\n        /* \"#utility.yul\":317:318   */\n      dup1\n        /* \"#utility.yul\":310:322   */\n      revert\n        /* \"#utility.yul\":334:451   */\n    tag_106:\n        /* \"#utility.yul\":443:444   */\n      0x00\n        /* \"#utility.yul\":440:441   */\n      dup1\n        /* \"#utility.yul\":433:445   */\n      revert\n        /* \"#utility.yul\":457:559   */\n    tag_107:\n        /* \"#utility.yul\":498:504   */\n      0x00\n        /* \"#utility.yul\":549:551   */\n      0x1f\n        /* \"#utility.yul\":545:552   */\n      not\n        /* \"#utility.yul\":540:542   */\n      0x1f\n        /* \"#utility.yul\":533:538   */\n      dup4\n        /* \"#utility.yul\":529:543   */\n      add\n        /* \"#utility.yul\":525:553   */\n      and\n        /* \"#utility.yul\":515:553   */\n      swap1\n      pop\n        /* \"#utility.yul\":457:559   */\n      swap2\n      swap1\n      pop\n      jump\t// out\n        /* \"#utility.yul\":565:745   */\n    tag_54:\n        /* \"#utility.yul\":613:690   */\n      0x4e487b7100000000000000000000000000000000000000000000000000000000\n        /* \"#utility.yul\":610:611   */\n      0x00\n        /* \"#utility.yul\":603:691   */\n      mstore\n        /* \"#utility.yul\":710:714   */\n      0x41\n        /* \"#utility.yul\":707:708   */\n      0x04\n        /* \"#utility.yul\":700:715   */\n      mstore\n        /* \"#utility.yul\":734:738   */\n      0x24\n        /* \"#utility.yul\":731:732   */\n      0x00\n        /* \"#utility.yul\":724:739   */\n      revert\n        /* \"#utility.yul\":751:1032   */\n    tag_108:\n        /* \"#utility.yul\":834:861   */\n      tag_137\n        /* \"#utility.yul\":856:860   */\n      dup3\n        /* \"#utility.yul\":834:861   */\n      tag_107\n      jump\t// in\n    tag_137:\n        /* \"#utility.yul\":826:832   */\n      dup2\n        /* \"#utility.yul\":822:862   */\n      add\n        /* \"#utility.yul\":964:970   */\n      dup2\n        /* \"#utility.yul\":952:962   */\n      dup2\n        /* \"#utility.yul\":949:971   */\n      lt\n        /* \"#utility.yul\":928:946   */\n      0xffffffffffffffff\n        /* \"#utility.yul\":916:926   */\n      dup3\n        /* \"#utility.yul\":913:947   */\n      gt\n        /* \"#utility.yul\":910:972   */\n      or\n        /* \"#utility.yul\":907:995   */\n      iszero\n      tag_138\n      jumpi\n        /* \"#utility.yul\":975:993   */\n      tag_139\n      tag_54\n      jump\t// in\n    tag_139:\n        /* \"#utility.yul\":907:995   */\n    tag_138:\n        /* \"#utility.yul\":1015:1025   */\n      dup1\n        /* \"#utility.yul\":1011:1013   */\n      0x40\n        /* \"#utility.yul\":1004:1026   */\n      mstore\n        /* \"#utility.yul\":794:1032   */\n      pop\n        /* \"#utility.yul\":751:1032   */\n      pop\n      pop\n      jump\t// out\n        /* \"#utility.yul\":1038:1167   */\n    tag_109:\n        /* \"#utility.yul\":1072:1078   */\n      0x00\n        /* \"#utility.yul\":1099:1119   */\n      tag_141\n      tag_103\n      jump\t// in\n    tag_141:\n        /* \"#utility.yul\":1089:1119   */\n      swap1\n      pop\n        /* \"#utility.yul\":1128:1161   */\n      tag_142\n        /* \"#utility.yul\":1156:1160   */\n      dup3\n        /* \"#utility.yul\":1148:1154   */\n      dup3\n        /* \"#utility.yul\":1128:1161   */\n      tag_108\n      jump\t// in\n    tag_142:\n        /* \"#utility.yul\":1038:1167   */\n      swap2\n      swap1\n      pop\n      jump\t// out\n        /* \"#utility.yul\":1173:1483   */\n    tag_110:\n        /* \"#utility.yul\":1249:1253   */\n      0x00\n        /* \"#utility.yul\":1339:1357   */\n      0xffffffffffffffff\n        /* \"#utility.yul\":1331:1337   */\n      dup3\n        /* \"#utility.yul\":1328:1358   */\n      gt\n        /* \"#utility.yul\":1325:1381   */\n      iszero\n      tag_144\n      jumpi\n        /* \"#utility.yul\":1361:1379   */\n      tag_145\n      tag_54\n      jump\t// in\n    tag_145:\n        /* \"#utility.yul\":1325:1381   */\n    tag_144:\n        /* \"#utility.yul\":1411:1415   */\n      0x20\n        /* \"#utility.yul\":1403:1409   */\n      dup3\n        /* \"#utility.yul\":1399:1416   */\n      mul\n        /* \"#utility.yul\":1391:1416   */\n      swap1\n      pop\n        /* \"#utility.yul\":1471:1475   */\n      0x20\n        /* \"#utility.yul\":1465:1469   */\n      dup2\n        /* \"#utility.yul\":1461:1476   */\n      add\n        /* \"#utility.yul\":1453:1476   */\n      swap1\n      pop\n        /* \"#utility.yul\":1173:1483   */\n      swap2\n      swap1\n      pop\n      jump\t// out\n        /* \"#utility.yul\":1489:1606   */\n    tag_111:\n        /* \"#utility.yul\":1598:1599   */\n      0x00\n        /* \"#utility.yul\":1595:1596   */\n      dup1\n        /* \"#utility.yul\":1588:1600   */\n      revert\n        /* \"#utility.yul\":1612:1688   */\n    tag_112:\n        /* \"#utility.yul\":1648:1655   */\n      0x00\n        /* \"#utility.yul\":1677:1682   */\n      dup2\n        /* \"#utility.yul\":1666:1682   */\n      swap1\n      pop\n        /* \"#utility.yul\":1612:1688   */\n      swap2\n      swap1\n      pop\n      jump\t// out\n        /* \"#utility.yul\":1694:1814   */\n    tag_113:\n        /* \"#utility.yul\":1766:1789   */\n      tag_149\n        /* \"#utility.yul\":1783:1788   */\n      dup2\n        /* \"#utility.yul\":1766:1789   */\n      tag_112\n      jump\t// in\n    tag_149:\n        /* \"#utility.yul\":1759:1764   */\n      dup2\n        /* \"#utility.yul\":1756:1790   */\n      eq\n        /* \"#utility.yul\":1746:1808   */\n      tag_150\n      jumpi\n        /* \"#utility.yul\":1804:1805   */\n      0x00\n        /* \"#utility.yul\":1801:1802   */\n      dup1\n        /* \"#utility.yul\":1794:1806   */\n      revert\n        /* \"#utility.yul\":1746:1808   */\n    tag_150:\n        /* \"#utility.yul\":1694:1814   */\n      pop\n      jump\t// out\n        /* \"#utility.yul\":1820:1957   */\n    tag_114:\n        /* \"#utility.yul\":1865:1870   */\n      0x00\n        /* \"#utility.yul\":1903:1909   */\n      dup2\n        /* \"#utility.yul\":1890:1910   */\n      calldataload\n        /* \"#utility.yul\":1881:1910   */\n      swap1\n      pop\n        /* \"#utility.yul\":1919:1951   */\n      tag_152\n        /* \"#utility.yul\":1945:1950   */\n      dup2\n        /* \"#utility.yul\":1919:1951   */\n      tag_113\n      jump\t// in\n    tag_152:\n        /* \"#utility.yul\":1820:1957   */\n      swap3\n      swap2\n      pop\n      pop\n      jump\t// out\n        /* \"#utility.yul\":1979:2686   */\n    tag_115:\n        /* \"#utility.yul\":2074:2079   */\n      0x00\n        /* \"#utility.yul\":2099:2179   */\n      tag_154\n        /* \"#utility.yul\":2115:2178   */\n      tag_155\n        /* \"#utility.yul\":2171:2177   */\n      dup5\n        /* \"#utility.yul\":2115:2178   */\n      tag_110\n      jump\t// in\n    tag_155:\n        /* \"#utility.yul\":2099:2179   */\n      tag_109\n      jump\t// in\n    tag_154:\n        /* \"#utility.yul\":2090:2179   */\n      swap1\n      pop\n        /* \"#utility.yul\":2199:2204   */\n      dup1\n        /* \"#utility.yul\":2228:2234   */\n      dup4\n        /* \"#utility.yul\":2221:2226   */\n      dup3\n        /* \"#utility.yul\":2214:2235   */\n      mstore\n        /* \"#utility.yul\":2262:2266   */\n      0x20\n        /* \"#utility.yul\":2255:2260   */\n      dup3\n        /* \"#utility.yul\":2251:2267   */\n      add\n        /* \"#utility.yul\":2244:2267   */\n      swap1\n      pop\n        /* \"#utility.yul\":2315:2319   */\n      0x20\n        /* \"#utility.yul\":2307:2313   */\n      dup5\n        /* \"#utility.yul\":2303:2320   */\n      mul\n        /* \"#utility.yul\":2295:2301   */\n      dup4\n        /* \"#utility.yul\":2291:2321   */\n      add\n        /* \"#utility.yul\":2344:2347   */\n      dup6\n        /* \"#utility.yul\":2336:2342   */\n      dup2\n        /* \"#utility.yul\":2333:2348   */\n      gt\n        /* \"#utility.yul\":2330:2452   */\n      iszero\n      tag_156\n      jumpi\n        /* \"#utility.yul\":2363:2442   */\n      tag_157\n      tag_111\n      jump\t// in\n    tag_157:\n        /* \"#utility.yul\":2330:2452   */\n    tag_156:\n        /* \"#utility.yul\":2478:2484   */\n      dup4\n        /* \"#utility.yul\":2461:2680   */\n    tag_158:\n        /* \"#utility.yul\":2495:2501   */\n      dup2\n        /* \"#utility.yul\":2490:2493   */\n      dup2\n        /* \"#utility.yul\":2487:2502   */\n      lt\n        /* \"#utility.yul\":2461:2680   */\n      iszero\n      tag_160\n      jumpi\n        /* \"#utility.yul\":2570:2573   */\n      dup1\n        /* \"#utility.yul\":2599:2635   */\n      tag_161\n        /* \"#utility.yul\":2631:2634   */\n      dup9\n        /* \"#utility.yul\":2619:2629   */\n      dup3\n        /* \"#utility.yul\":2599:2635   */\n      tag_114\n      jump\t// in\n    tag_161:\n        /* \"#utility.yul\":2594:2597   */\n      dup5\n        /* \"#utility.yul\":2587:2636   */\n      mstore\n        /* \"#utility.yul\":2665:2669   */\n      0x20\n        /* \"#utility.yul\":2660:2663   */\n      dup5\n        /* \"#utility.yul\":2656:2670   */\n      add\n        /* \"#utility.yul\":2649:2670   */\n      swap4\n      pop\n        /* \"#utility.yul\":2537:2680   */\n      pop\n        /* \"#utility.yul\":2521:2525   */\n      0x20\n        /* \"#utility.yul\":2516:2519   */\n      dup2\n        /* \"#utility.yul\":2512:2526   */\n      add\n        /* \"#utility.yul\":2505:2526   */\n      swap1\n      pop\n        /* \"#utility.yul\":2461:2680   */\n      jump(tag_158)\n    tag_160:\n        /* \"#utility.yul\":2465:2486   */\n      pop\n        /* \"#utility.yul\":2080:2686   */\n      pop\n      pop\n        /* \"#utility.yul\":1979:2686   */\n      swap4\n      swap3\n      pop\n      pop\n      pop\n      jump\t// out\n        /* \"#utility.yul\":2708:3076   */\n    tag_116:\n        /* \"#utility.yul\":2778:2783   */\n      0x00\n        /* \"#utility.yul\":2827:2830   */\n      dup3\n        /* \"#utility.yul\":2820:2824   */\n      0x1f\n        /* \"#utility.yul\":2812:2818   */\n      dup4\n        /* \"#utility.yul\":2808:2825   */\n      add\n        /* \"#utility.yul\":2804:2831   */\n      slt\n        /* \"#utility.yul\":2794:2916   */\n      tag_163\n      jumpi\n        /* \"#utility.yul\":2835:2914   */\n      tag_164\n      tag_106\n      jump\t// in\n    tag_164:\n        /* \"#utility.yul\":2794:2916   */\n    tag_163:\n        /* \"#utility.yul\":2952:2958   */\n      dup2\n        /* \"#utility.yul\":2939:2959   */\n      calldataload\n        /* \"#utility.yul\":2977:3070   */\n      tag_165\n        /* \"#utility.yul\":3066:3069   */\n      dup5\n        /* \"#utility.yul\":3058:3064   */\n      dup3\n        /* \"#utility.yul\":3051:3055   */\n      0x20\n        /* \"#utility.yul\":3043:3049   */\n      dup7\n        /* \"#utility.yul\":3039:3056   */\n      add\n        /* \"#utility.yul\":2977:3070   */\n      tag_115\n      jump\t// in\n    tag_165:\n        /* \"#utility.yul\":2968:3070   */\n      swap2\n      pop\n        /* \"#utility.yul\":2784:3076   */\n      pop\n        /* \"#utility.yul\":2708:3076   */\n      swap3\n      swap2\n      pop\n      pop\n      jump\t// out\n        /* \"#utility.yul\":3082:3619   */\n    tag_10:\n        /* \"#utility.yul\":3165:3171   */\n      0x00\n        /* \"#utility.yul\":3214:3216   */\n      0x20\n        /* \"#utility.yul\":3202:3211   */\n      dup3\n        /* \"#utility.yul\":3193:3200   */\n      dup5\n        /* \"#utility.yul\":3189:3212   */\n      sub\n        /* \"#utility.yul\":3185:3217   */\n      slt\n        /* \"#utility.yul\":3182:3301   */\n      iszero\n      tag_167\n      jumpi\n        /* \"#utility.yul\":3220:3299   */\n      tag_168\n      tag_104\n      jump\t// in\n    tag_168:\n        /* \"#utility.yul\":3182:3301   */\n    tag_167:\n        /* \"#utility.yul\":3368:3369   */\n      0x00\n        /* \"#utility.yul\":3357:3366   */\n      dup3\n        /* \"#utility.yul\":3353:3370   */\n      add\n        /* \"#utility.yul\":3340:3371   */\n      calldataload\n        /* \"#utility.yul\":3398:3416   */\n      0xffffffffffffffff\n        /* \"#utility.yul\":3390:3396   */\n      dup2\n        /* \"#utility.yul\":3387:3417   */\n      gt\n        /* \"#utility.yul\":3384:3501   */\n      iszero\n      tag_169\n      jumpi\n        /* \"#utility.yul\":3420:3499   */\n      tag_170\n      tag_105\n      jump\t// in\n    tag_170:\n        /* \"#utility.yul\":3384:3501   */\n    tag_169:\n        /* \"#utility.yul\":3525:3602   */\n      tag_171\n        /* \"#utility.yul\":3594:3601   */\n      dup5\n        /* \"#utility.yul\":3585:3591   */\n      dup3\n        /* \"#utility.yul\":3574:3583   */\n      dup6\n        /* \"#utility.yul\":3570:3592   */\n      add\n        /* \"#utility.yul\":3525:3602   */\n      tag_116\n      jump\t// in\n    tag_171:\n        /* \"#utility.yul\":3515:3602   */\n      swap2\n      pop\n        /* \"#utility.yul\":3311:3612   */\n      pop\n        /* \"#utility.yul\":3082:3619   */\n      swap3\n      swap2\n      pop\n      pop\n      jump\t// out\n        /* \"#utility.yul\":3625:3738   */\n    tag_117:\n        /* \"#utility.yul\":3691:3697   */\n      0x00\n        /* \"#utility.yul\":3725:3730   */\n      dup2\n        /* \"#utility.yul\":3719:3731   */\n      mload\n        /* \"#utility.yul\":3709:3731   */\n      swap1\n      pop\n        /* \"#utility.yul\":3625:3738   */\n      swap2\n      swap1\n      pop\n      jump\t// out\n        /* \"#utility.yul\":3744:3927   */\n    tag_118:\n        /* \"#utility.yul\":3842:3853   */\n      0x00\n        /* \"#utility.yul\":3876:3882   */\n      dup3\n        /* \"#utility.yul\":3871:3874   */\n      dup3\n        /* \"#utility.yul\":3864:3883   */\n      mstore\n        /* \"#utility.yul\":3916:3920   */\n      0x20\n        /* \"#utility.yul\":3911:3914   */\n      dup3\n        /* \"#utility.yul\":3907:3921   */\n      add\n        /* \"#utility.yul\":3892:3921   */\n      swap1\n      pop\n        /* \"#utility.yul\":3744:3927   */\n      swap3\n      swap2\n      pop\n      pop\n      jump\t// out\n        /* \"#utility.yul\":3933:4064   */\n    tag_119:\n        /* \"#utility.yul\":3999:4003   */\n      0x00\n        /* \"#utility.yul\":4022:4025   */\n      dup2\n        /* \"#utility.yul\":4014:4025   */\n      swap1\n      pop\n        /* \"#utility.yul\":4052:4056   */\n      0x20\n        /* \"#utility.yul\":4047:4050   */\n      dup3\n        /* \"#utility.yul\":4043:4057   */\n      add\n        /* \"#utility.yul\":4035:4057   */\n      swap1\n      pop\n        /* \"#utility.yul\":3933:4064   */\n      swap2\n      swap1\n      pop\n      jump\t// out\n        /* \"#utility.yul\":4070:4175   */\n    tag_120:\n        /* \"#utility.yul\":4145:4168   */\n      tag_176\n        /* \"#utility.yul\":4162:4167   */\n      dup2\n        /* \"#utility.yul\":4145:4168   */\n      tag_112\n      jump\t// in\n    tag_176:\n        /* \"#utility.yul\":4140:4143   */\n      dup3\n        /* \"#utility.yul\":4133:4169   */\n      mstore\n        /* \"#utility.yul\":4070:4175   */\n      pop\n      pop\n      jump\t// out\n        /* \"#utility.yul\":4181:4356   */\n    tag_121:\n        /* \"#utility.yul\":4248:4258   */\n      0x00\n        /* \"#utility.yul\":4269:4313   */\n      tag_178\n        /* \"#utility.yul\":4309:4312   */\n      dup4\n        /* \"#utility.yul\":4301:4307   */\n      dup4\n        /* \"#utility.yul\":4269:4313   */\n      tag_120\n      jump\t// in\n    tag_178:\n        /* \"#utility.yul\":4345:4349   */\n      0x20\n        /* \"#utility.yul\":4340:4343   */\n      dup4\n        /* \"#utility.yul\":4336:4350   */\n      add\n        /* \"#utility.yul\":4322:4350   */\n      swap1\n      pop\n        /* \"#utility.yul\":4181:4356   */\n      swap3\n      swap2\n      pop\n      pop\n      jump\t// out\n        /* \"#utility.yul\":4362:4474   */\n    tag_122:\n        /* \"#utility.yul\":4431:4435   */\n      0x00\n        /* \"#utility.yul\":4463:4467   */\n      0x20\n        /* \"#utility.yul\":4458:4461   */\n      dup3\n        /* \"#utility.yul\":4454:4468   */\n      add\n        /* \"#utility.yul\":4446:4468   */\n      swap1\n      pop\n        /* \"#utility.yul\":4362:4474   */\n      swap2\n      swap1\n      pop\n      jump\t// out\n        /* \"#utility.yul\":4508:5232   */\n    tag_123:\n        /* \"#utility.yul\":4625:4628   */\n      0x00\n        /* \"#utility.yul\":4654:4707   */\n      tag_181\n        /* \"#utility.yul\":4701:4706   */\n      dup3\n        /* \"#utility.yul\":4654:4707   */\n      tag_117\n      jump\t// in\n    tag_181:\n        /* \"#utility.yul\":4723:4808   */\n      tag_182\n        /* \"#utility.yul\":4801:4807   */\n      dup2\n        /* \"#utility.yul\":4796:4799   */\n      dup6\n        /* \"#utility.yul\":4723:4808   */\n      tag_118\n      jump\t// in\n    tag_182:\n        /* \"#utility.yul\":4716:4808   */\n      swap4\n      pop\n        /* \"#utility.yul\":4832:4887   */\n      tag_183\n        /* \"#utility.yul\":4881:4886   */\n      dup4\n        /* \"#utility.yul\":4832:4887   */\n      tag_119\n      jump\t// in\n    tag_183:\n        /* \"#utility.yul\":4910:4917   */\n      dup1\n        /* \"#utility.yul\":4941:4942   */\n      0x00\n        /* \"#utility.yul\":4926:5207   */\n    tag_184:\n        /* \"#utility.yul\":4951:4957   */\n      dup4\n        /* \"#utility.yul\":4948:4949   */\n      dup2\n        /* \"#utility.yul\":4945:4958   */\n      lt\n        /* \"#utility.yul\":4926:5207   */\n      iszero\n      tag_186\n      jumpi\n        /* \"#utility.yul\":5027:5033   */\n      dup2\n        /* \"#utility.yul\":5021:5034   */\n      mload\n        /* \"#utility.yul\":5054:5115   */\n      tag_187\n        /* \"#utility.yul\":5111:5114   */\n      dup9\n        /* \"#utility.yul\":5096:5109   */\n      dup3\n        /* \"#utility.yul\":5054:5115   */\n      tag_121\n      jump\t// in\n    tag_187:\n        /* \"#utility.yul\":5047:5115   */\n      swap8\n      pop\n        /* \"#utility.yul\":5138:5197   */\n      tag_188\n        /* \"#utility.yul\":5190:5196   */\n      dup4\n        /* \"#utility.yul\":5138:5197   */\n      tag_122\n      jump\t// in\n    tag_188:\n        /* \"#utility.yul\":5128:5197   */\n      swap3\n      pop\n        /* \"#utility.yul\":4986:5207   */\n      pop\n        /* \"#utility.yul\":4973:4974   */\n      0x01\n        /* \"#utility.yul\":4970:4971   */\n      dup2\n        /* \"#utility.yul\":4966:4975   */\n      add\n        /* \"#utility.yul\":4961:4975   */\n      swap1\n      pop\n        /* \"#utility.yul\":4926:5207   */\n      jump(tag_184)\n    tag_186:\n        /* \"#utility.yul\":4930:4944   */\n      pop\n        /* \"#utility.yul\":5223:5226   */\n      dup6\n        /* \"#utility.yul\":5216:5226   */\n      swap4\n      pop\n        /* \"#utility.yul\":4630:5232   */\n      pop\n      pop\n      pop\n        /* \"#utility.yul\":4508:5232   */\n      swap3\n      swap2\n      pop\n      pop\n      jump\t// out\n        /* \"#utility.yul\":5238:5607   */\n    tag_13:\n        /* \"#utility.yul\":5379:5383   */\n      0x00\n        /* \"#utility.yul\":5417:5419   */\n      0x20\n        /* \"#utility.yul\":5406:5415   */\n      dup3\n        /* \"#utility.yul\":5402:5420   */\n      add\n        /* \"#utility.yul\":5394:5420   */\n      swap1\n      pop\n        /* \"#utility.yul\":5466:5475   */\n      dup2\n        /* \"#utility.yul\":5460:5464   */\n      dup2\n        /* \"#utility.yul\":5456:5476   */\n      sub\n        /* \"#utility.yul\":5452:5453   */\n      0x00\n        /* \"#utility.yul\":5441:5450   */\n      dup4\n        /* \"#utility.yul\":5437:5454   */\n      add\n        /* \"#utility.yul\":5430:5477   */\n      mstore\n        /* \"#utility.yul\":5494:5600   */\n      tag_190\n        /* \"#utility.yul\":5595:5599   */\n      dup2\n        /* \"#utility.yul\":5586:5592   */\n      dup5\n        /* \"#utility.yul\":5494:5600   */\n      tag_123\n      jump\t// in\n    tag_190:\n        /* \"#utility.yul\":5486:5600   */\n      swap1\n      pop\n        /* \"#utility.yul\":5238:5607   */\n      swap3\n      swap2\n      pop\n      pop\n      jump\t// out\n        /* \"#utility.yul\":5613:5690   */\n    tag_124:\n        /* \"#utility.yul\":5650:5657   */\n      0x00\n        /* \"#utility.yul\":5679:5684   */\n      dup2\n        /* \"#utility.yul\":5668:5684   */\n      swap1\n      pop\n        /* \"#utility.yul\":5613:5690   */\n      swap2\n      swap1\n      pop\n      jump\t// out\n        /* \"#utility.yul\":5696:5818   */\n    tag_125:\n        /* \"#utility.yul\":5769:5793   */\n      tag_193\n        /* \"#utility.yul\":5787:5792   */\n      dup2\n        /* \"#utility.yul\":5769:5793   */\n      tag_124\n      jump\t// in\n    tag_193:\n        /* \"#utility.yul\":5762:5767   */\n      dup2\n        /* \"#utility.yul\":5759:5794   */\n      eq\n        /* \"#utility.yul\":5749:5812   */\n      tag_194\n      jumpi\n        /* \"#utility.yul\":5808:5809   */\n      0x00\n        /* \"#utility.yul\":5805:5806   */\n      dup1\n        /* \"#utility.yul\":5798:5810   */\n      revert\n        /* \"#utility.yul\":5749:5812   */\n    tag_194:\n        /* \"#utility.yul\":5696:5818   */\n      pop\n      jump\t// out\n        /* \"#utility.yul\":5824:5963   */\n    tag_126:\n        /* \"#utility.yul\":5870:5875   */\n      0x00\n        /* \"#utility.yul\":5908:5914   */\n      dup2\n        /* \"#utility.yul\":5895:5915   */\n      calldataload\n        /* \"#utility.yul\":5886:5915   */\n      swap1\n      pop\n        /* \"#utility.yul\":5924:5957   */\n      tag_196\n        /* \"#utility.yul\":5951:5956   */\n      dup2\n        /* \"#utility.yul\":5924:5957   */\n      tag_125\n      jump\t// in\n    tag_196:\n        /* \"#utility.yul\":5824:5963   */\n      swap3\n      swap2\n      pop\n      pop\n      jump\t// out\n        /* \"#utility.yul\":5969:6298   */\n    tag_16:\n        /* \"#utility.yul\":6028:6034   */\n      0x00\n        /* \"#utility.yul\":6077:6079   */\n      0x20\n        /* \"#utility.yul\":6065:6074   */\n      dup3\n        /* \"#utility.yul\":6056:6063   */\n      dup5\n        /* \"#utility.yul\":6052:6075   */\n      sub\n        /* \"#utility.yul\":6048:6080   */\n      slt\n        /* \"#utility.yul\":6045:6164   */\n      iszero\n      tag_198\n      jumpi\n        /* \"#utility.yul\":6083:6162   */\n      tag_199\n      tag_104\n      jump\t// in\n    tag_199:\n        /* \"#utility.yul\":6045:6164   */\n    tag_198:\n        /* \"#utility.yul\":6203:6204   */\n      0x00\n        /* \"#utility.yul\":6228:6281   */\n      tag_200\n        /* \"#utility.yul\":6273:6280   */\n      dup5\n        /* \"#utility.yul\":6264:6270   */\n      dup3\n        /* \"#utility.yul\":6253:6262   */\n      dup6\n        /* \"#utility.yul\":6249:6271   */\n      add\n        /* \"#utility.yul\":6228:6281   */\n      tag_126\n      jump\t// in\n    tag_200:\n        /* \"#utility.yul\":6218:6281   */\n      swap2\n      pop\n        /* \"#utility.yul\":6174:6291   */\n      pop\n        /* \"#utility.yul\":5969:6298   */\n      swap3\n      swap2\n      pop\n      pop\n      jump\t// out\n        /* \"#utility.yul\":6304:6419   */\n    tag_127:\n        /* \"#utility.yul\":6389:6412   */\n      tag_202\n        /* \"#utility.yul\":6406:6411   */\n      dup2\n        /* \"#utility.yul\":6389:6412   */\n      tag_112\n      jump\t// in\n    tag_202:\n        /* \"#utility.yul\":6384:6387   */\n      dup3\n        /* \"#utility.yul\":6377:6413   */\n      mstore\n        /* \"#utility.yul\":6304:6419   */\n      pop\n      pop\n      jump\t// out\n        /* \"#utility.yul\":6425:6643   */\n    tag_19:\n        /* \"#utility.yul\":6516:6520   */\n      0x00\n        /* \"#utility.yul\":6554:6556   */\n      0x20\n        /* \"#utility.yul\":6543:6552   */\n      dup3\n        /* \"#utility.yul\":6539:6557   */\n      add\n        /* \"#utility.yul\":6531:6557   */\n      swap1\n      pop\n        /* \"#utility.yul\":6567:6636   */\n      tag_204\n        /* \"#utility.yul\":6633:6634   */\n      0x00\n        /* \"#utility.yul\":6622:6631   */\n      dup4\n        /* \"#utility.yul\":6618:6635   */\n      add\n        /* \"#utility.yul\":6609:6615   */\n      dup5\n        /* \"#utility.yul\":6567:6636   */\n      tag_127\n      jump\t// in\n    tag_204:\n        /* \"#utility.yul\":6425:6643   */\n      swap3\n      swap2\n      pop\n      pop\n      jump\t// out\n        /* \"#utility.yul\":6649:6829   */\n    tag_62:\n        /* \"#utility.yul\":6697:6774   */\n      0x4e487b7100000000000000000000000000000000000000000000000000000000\n        /* \"#utility.yul\":6694:6695   */\n      0x00\n        /* \"#utility.yul\":6687:6775   */\n      mstore\n        /* \"#utility.yul\":6794:6798   */\n      0x32\n        /* \"#utility.yul\":6791:6792   */\n      0x04\n        /* \"#utility.yul\":6784:6799   */\n      mstore\n        /* \"#utility.yul\":6818:6822   */\n      0x24\n        /* \"#utility.yul\":6815:6816   */\n      0x00\n        /* \"#utility.yul\":6808:6823   */\n      revert\n        /* \"#utility.yul\":6835:7015   */\n    tag_128:\n        /* \"#utility.yul\":6883:6960   */\n      0x4e487b7100000000000000000000000000000000000000000000000000000000\n        /* \"#utility.yul\":6880:6881   */\n      0x00\n        /* \"#utility.yul\":6873:6961   */\n      mstore\n        /* \"#utility.yul\":6980:6984   */\n      0x11\n        /* \"#utility.yul\":6977:6978   */\n      0x04\n        /* \"#utility.yul\":6970:6985   */\n      mstore\n        /* \"#utility.yul\":7004:7008   */\n      0x24\n        /* \"#utility.yul\":7001:7002   */\n      0x00\n        /* \"#utility.yul\":6994:7009   */\n      revert\n        /* \"#utility.yul\":7021:7396   */\n    tag_81:\n        /* \"#utility.yul\":7060:7063   */\n      0x00\n        /* \"#utility.yul\":7079:7098   */\n      tag_208\n        /* \"#utility.yul\":7096:7097   */\n      dup3\n        /* \"#utility.yul\":7079:7098   */\n      tag_112\n      jump\t// in\n    tag_208:\n        /* \"#utility.yul\":7074:7098   */\n      swap2\n      pop\n        /* \"#utility.yul\":7112:7131   */\n      tag_209\n        /* \"#utility.yul\":7129:7130   */\n      dup4\n        /* \"#utility.yul\":7112:7131   */\n      tag_112\n      jump\t// in\n    tag_209:\n        /* \"#utility.yul\":7107:7131   */\n      swap3\n      pop\n        /* \"#utility.yul\":7154:7155   */\n      dup3\n        /* \"#utility.yul\":7151:7152   */\n      dup3\n        /* \"#utility.yul\":7147:7156   */\n      add\n        /* \"#utility.yul\":7140:7156   */\n      swap1\n      pop\n        /* \"#utility.yul\":7352:7353   */\n      dup3\n        /* \"#utility.yul\":7347:7350   */\n      dup2\n        /* \"#utility.yul\":7343:7354   */\n      slt\n        /* \"#utility.yul\":7336:7355   */\n      iszero\n        /* \"#utility.yul\":7332:7333   */\n      0x00\n        /* \"#utility.yul\":7329:7330   */\n      dup4\n        /* \"#utility.yul\":7325:7334   */\n      slt\n        /* \"#utility.yul\":7321:7356   */\n      and\n        /* \"#utility.yul\":7304:7305   */\n      dup4\n        /* \"#utility.yul\":7299:7302   */\n      dup3\n        /* \"#utility.yul\":7295:7306   */\n      slt\n        /* \"#utility.yul\":7290:7291   */\n      0x00\n        /* \"#utility.yul\":7287:7288   */\n      dup5\n        /* \"#utility.yul\":7283:7292   */\n      slt\n        /* \"#utility.yul\":7276:7293   */\n      iszero\n        /* \"#utility.yul\":7272:7307   */\n      and\n        /* \"#utility.yul\":7256:7366   */\n      or\n        /* \"#utility.yul\":7253:7389   */\n      iszero\n      tag_210\n      jumpi\n        /* \"#utility.yul\":7369:7387   */\n      tag_211\n      tag_128\n      jump\t// in\n    tag_211:\n        /* \"#utility.yul\":7253:7389   */\n    tag_210:\n        /* \"#utility.yul\":7021:7396   */\n      swap3\n      swap2\n      pop\n      pop\n      jump\t// out\n        /* \"#utility.yul\":7402:7958   */\n    tag_84:\n        /* \"#utility.yul\":7441:7448   */\n      0x00\n        /* \"#utility.yul\":7464:7483   */\n      tag_213\n        /* \"#utility.yul\":7481:7482   */\n      dup3\n        /* \"#utility.yul\":7464:7483   */\n      tag_112\n      jump\t// in\n    tag_213:\n        /* \"#utility.yul\":7459:7483   */\n      swap2\n      pop\n        /* \"#utility.yul\":7497:7516   */\n      tag_214\n        /* \"#utility.yul\":7514:7515   */\n      dup4\n        /* \"#utility.yul\":7497:7516   */\n      tag_112\n      jump\t// in\n    tag_214:\n        /* \"#utility.yul\":7492:7516   */\n      swap3\n      pop\n        /* \"#utility.yul\":7551:7552   */\n      dup3\n        /* \"#utility.yul\":7548:7549   */\n      dup3\n        /* \"#utility.yul\":7544:7553   */\n      mul\n        /* \"#utility.yul\":7573:7602   */\n      tag_215\n        /* \"#utility.yul\":7590:7601   */\n      dup2\n        /* \"#utility.yul\":7573:7602   */\n      tag_112\n      jump\t// in\n    tag_215:\n        /* \"#utility.yul\":7562:7602   */\n      swap2\n      pop\n        /* \"#utility.yul\":7660:7726   */\n      0x8000000000000000000000000000000000000000000000000000000000000000\n        /* \"#utility.yul\":7657:7658   */\n      dup5\n        /* \"#utility.yul\":7654:7727   */\n      eq\n        /* \"#utility.yul\":7650:7651   */\n      0x00\n        /* \"#utility.yul\":7647:7648   */\n      dup5\n        /* \"#utility.yul\":7643:7652   */\n      slt\n        /* \"#utility.yul\":7639:7728   */\n      and\n        /* \"#utility.yul\":7636:7751   */\n      iszero\n      tag_216\n      jumpi\n        /* \"#utility.yul\":7731:7749   */\n      tag_217\n      tag_128\n      jump\t// in\n    tag_217:\n        /* \"#utility.yul\":7636:7751   */\n    tag_216:\n        /* \"#utility.yul\":7901:7902   */\n      dup3\n        /* \"#utility.yul\":7892:7899   */\n      dup3\n        /* \"#utility.yul\":7887:7903   */\n      sdiv\n        /* \"#utility.yul\":7884:7885   */\n      dup5\n        /* \"#utility.yul\":7881:7904   */\n      eq\n        /* \"#utility.yul\":7861:7862   */\n      dup4\n        /* \"#utility.yul\":7854:7863   */\n      iszero\n        /* \"#utility.yul\":7834:7918   */\n      or\n        /* \"#utility.yul\":7811:7951   */\n      tag_218\n      jumpi\n        /* \"#utility.yul\":7931:7949   */\n      tag_219\n      tag_128\n      jump\t// in\n    tag_219:\n        /* \"#utility.yul\":7811:7951   */\n    tag_218:\n        /* \"#utility.yul\":7449:7958   */\n      pop\n        /* \"#utility.yul\":7402:7958   */\n      swap3\n      swap2\n      pop\n      pop\n      jump\t// out\n\n    auxdata: 0xa2646970667358221220ed6ab701d021a9f85aff4cf2f1ed358078c83d9d2de526cd5ec15571d8ef2ce564736f6c634300081a0033\n}\n",
				"bytecode": {
					"linkReferences": {},
					"object": "6080604052348015600e575f80fd5b506108e68061001c5f395ff3fe608060405234801561000f575f80fd5b5060043610610055575f3560e01c806306694a0a146100595780633713c898146100895780638a70c2ba146100b95780639e7369e8146100e9578063e8e2341d14610119575b5f80fd5b610073600480360381019061006e91906105fb565b610149565b60405161008091906106f9565b60405180910390f35b6100a3600480360381019061009e919061074c565b61015b565b6040516100b09190610786565b60405180910390f35b6100d360048036038101906100ce91906105fb565b610179565b6040516100e091906106f9565b60405180910390f35b61010360048036038101906100fe91906105fb565b610197565b6040516101109190610786565b60405180910390f35b610133600480360381019061012e91906105fb565b6101b5565b6040516101409190610786565b60405180910390f35b6060610154826101d2565b9050919050565b5f8061016683610285565b905061017181610314565b915050919050565b60606101906103638361039790919063ffffffff16565b9050919050565b5f806101a2836101d2565b90506101ad81610314565b915050919050565b5f6101cb6104018361045190919063ffffffff16565b9050919050565b60605f825167ffffffffffffffff8111156101f0576101ef61048c565b5b60405190808252806020026020018201604052801561021e5781602001602082028036833780820191505090505b5090505f5b835181101561027b5761024f8482815181106102425761024161079f565b5b6020026020010151610363565b8282815181106102625761026161079f565b5b6020026020010181815250508080600101915050610223565b5080915050919050565b60605f8267ffffffffffffffff8111156102a2576102a161048c565b5b6040519080825280602002602001820160405280156102d05781602001602082028036833780820191505090505b5090505f5b8381101561030a57808282815181106102f1576102f061079f565b5b60200260200101818152505080806001019150506102d5565b5080915050919050565b5f805f90505f5b8351811015610359578381815181106103375761033661079f565b5b60200260200101518261034a91906107f9565b9150808060010191505061031b565b5080915050919050565b5f7fffffffffffffffffffffffffffffffffffffffffffffffffffffffffffffffff82610390919061083a565b9050919050565b60605f5b83518110156103f7576103cb8482815181106103ba576103b961079f565b5b60200260200101518463ffffffff16565b8482815181106103de576103dd61079f565b5b602002602001018181525050808060010191505061039b565b5082905092915050565b5f80600190505f5b8351811015610447578381815181106104255761042461079f565b5b602002602001015182610438919061083a565b91508080600101915050610409565b5080915050919050565b5f61045f838363ffffffff16565b905092915050565b5f604051905090565b5f80fd5b5f80fd5b5f80fd5b5f601f19601f8301169050919050565b7f4e487b71000000000000000000000000000000000000000000000000000000005f52604160045260245ffd5b6104c28261047c565b810181811067ffffffffffffffff821117156104e1576104e061048c565b5b80604052505050565b5f6104f3610467565b90506104ff82826104b9565b919050565b5f67ffffffffffffffff82111561051e5761051d61048c565b5b602082029050602081019050919050565b5f80fd5b5f819050919050565b61054581610533565b811461054f575f80fd5b50565b5f813590506105608161053c565b92915050565b5f61057861057384610504565b6104ea565b9050808382526020820190506020840283018581111561059b5761059a61052f565b5b835b818110156105c457806105b08882610552565b84526020840193505060208101905061059d565b5050509392505050565b5f82601f8301126105e2576105e1610478565b5b81356105f2848260208601610566565b91505092915050565b5f602082840312156106105761060f610470565b5b5f82013567ffffffffffffffff81111561062d5761062c610474565b5b610639848285016105ce565b91505092915050565b5f81519050919050565b5f82825260208201905092915050565b5f819050602082019050919050565b61067481610533565b82525050565b5f610685838361066b565b60208301905092915050565b5f602082019050919050565b5f6106a782610642565b6106b1818561064c565b93506106bc8361065c565b805f5b838110156106ec5781516106d3888261067a565b97506106de83610691565b9250506001810190506106bf565b5085935050505092915050565b5f6020820190508181035f830152610711818461069d565b905092915050565b5f819050919050565b61072b81610719565b8114610735575f80fd5b50565b5f8135905061074681610722565b92915050565b5f6020828403121561076157610760610470565b5b5f61076e84828501610738565b91505092915050565b61078081610533565b82525050565b5f6020820190506107995f830184610777565b92915050565b7f4e487b71000000000000000000000000000000000000000000000000000000005f52603260045260245ffd5b7f4e487b71000000000000000000000000000000000000000000000000000000005f52601160045260245ffd5b5f61080382610533565b915061080e83610533565b92508282019050828112155f8312168382125f841215161715610834576108336107cc565b5b92915050565b5f61084482610533565b915061084f83610533565b925082820261085d81610533565b91507f800000000000000000000000000000000000000000000000000000000000000084145f84121615610894576108936107cc565b5b82820584148315176108a9576108a86107cc565b5b509291505056fea2646970667358221220ed6ab701d021a9f85aff4cf2f1ed358078c83d9d2de526cd5ec15571d8ef2ce564736f6c634300081a0033",
					"opcodes": "PUSH1 0x80 PUSH1 0x40 MSTORE CALLVALUE DUP1 ISZERO PUSH1 0xE JUMPI PUSH0 DUP1 REVERT JUMPDEST POP PUSH2 0x8E6 DUP1 PUSH2 0x1C PUSH0 CODECOPY PUSH0 RETURN INVALID PUSH1 0x80 PUSH1 0x40 MSTORE CALLVALUE DUP1 ISZERO PUSH2 0xF JUMPI PUSH0 DUP1 REVERT JUMPDEST POP PUSH1 0x4 CALLDATASIZE LT PUSH2 0x55 JUMPI PUSH0 CALLDATALOAD PUSH1 0xE0 SHR DUP1 PUSH4 0x6694A0A EQ PUSH2 0x59 JUMPI DUP1 PUSH4 0x3713C898 EQ PUSH2 0x89 JUMPI DUP1 PUSH4 0x8A70C2BA EQ PUSH2 0xB9 JUMPI DUP1 PUSH4 0x9E7369E8 EQ PUSH2 0xE9 JUMPI DUP1 PUSH4 0xE8E2341D EQ PUSH2 0x119 JUMPI JUMPDEST PUSH0 DUP1 REVERT JUMPDEST PUSH2 0x73 PUSH1 0x4 DUP1 CALLDATASIZE SUB DUP2 ADD SWAP1 PUSH2 0x6E SWAP2 SWAP1 PUSH2 0x5FB JUMP JUMPDEST PUSH2 0x149 JUMP JUMPDEST PUSH1 0x40 MLOAD PUSH2 0x80 SWAP2 SWAP1 PUSH2 0x6F9 JUMP JUMPDEST PUSH1 0x40 MLOAD DUP1 SWAP2 SUB SWAP1 RETURN JUMPDEST PUSH2 0xA3 PUSH1 0x4 DUP1 CALLDATASIZE SUB DUP2 ADD SWAP1 PUSH2 0x9E SWAP2 SWAP1 PUSH2 0x74C JUMP JUMPDEST PUSH2 0x15B JUMP JUMPDEST PUSH1 0x40 MLOAD PUSH2 0xB0 SWAP2 SWAP1 PUSH2 0x786 JUMP JUMPDEST PUSH1 0x40 MLOAD DUP1 SWAP2 SUB SWAP1 RETURN JUMPDEST PUSH2 0xD3 PUSH1 0x4 DUP1 CALLDATASIZE SUB DUP2 ADD SWAP1 PUSH2 0xCE SWAP2 SWAP1 PUSH2 0x5FB JUMP JUMPDEST PUSH2 0x179 JUMP JUMPDEST PUSH1 0x40 MLOAD PUSH2 0xE0 SWAP2 SWAP1 PUSH2 0x6F9 JUMP JUMPDEST PUSH1 0x40 MLOAD DUP1 SWAP2 SUB SWAP1 RETURN JUMPDEST PUSH2 0x103 PUSH1 0x4 DUP1 CALLDATASIZE SUB DUP2 ADD SWAP1 PUSH2 0xFE SWAP2 SWAP1 PUSH2 0x5FB JUMP JUMPDEST PUSH2 0x197 JUMP JUMPDEST PUSH1 0x40 MLOAD PUSH2 0x110 SWAP2 SWAP1 PUSH2 0x786 JUMP JUMPDEST PUSH1 0x40 MLOAD DUP1 SWAP2 SUB SWAP1 RETURN JUMPDEST PUSH2 0x133 PUSH1 0x4 DUP1 CALLDATASIZE SUB DUP2 ADD SWAP1 PUSH2 0x12E SWAP2 SWAP1 PUSH2 0x5FB JUMP JUMPDEST PUSH2 0x1B5 JUMP JUMPDEST PUSH1 0x40 MLOAD PUSH2 0x140 SWAP2 SWAP1 PUSH2 0x786 JUMP JUMPDEST PUSH1 0x40 MLOAD DUP1 SWAP2 SUB SWAP1 RETURN JUMPDEST PUSH1 0x60 PUSH2 0x154 DUP3 PUSH2 0x1D2 JUMP JUMPDEST SWAP1 POP SWAP2 SWAP1 POP JUMP JUMPDEST PUSH0 DUP1 PUSH2 0x166 DUP4 PUSH2 0x285 JUMP JUMPDEST SWAP1 POP PUSH2 0x171 DUP2 PUSH2 0x314 JUMP JUMPDEST SWAP2 POP POP SWAP2 SWAP1 POP JUMP JUMPDEST PUSH1 0x60 PUSH2 0x190 PUSH2 0x363 DUP4 PUSH2 0x397 SWAP1 SWAP2 SWAP1 PUSH4 0xFFFFFFFF AND JUMP JUMPDEST SWAP1 POP SWAP2 SWAP1 POP JUMP JUMPDEST PUSH0 DUP1 PUSH2 0x1A2 DUP4 PUSH2 0x1D2 JUMP JUMPDEST SWAP1 POP PUSH2 0x1AD DUP2 PUSH2 0x314 JUMP JUMPDEST SWAP2 POP POP SWAP2 SWAP1 POP JUMP JUMPDEST PUSH0 PUSH2 0x1CB PUSH2 0x401 DUP4 PUSH2 0x451 SWAP1 SWAP2 SWAP1 PUSH4 0xFFFFFFFF AND JUMP JUMPDEST SWAP1 POP SWAP2 SWAP1 POP JUMP JUMPDEST PUSH1 0x60 PUSH0 DUP3 MLOAD PUSH8 0xFFFFFFFFFFFFFFFF DUP2 GT ISZERO PUSH2 0x1F0 JUMPI PUSH2 0x1EF PUSH2 0x48C JUMP JUMPDEST JUMPDEST PUSH1 0x40 MLOAD SWAP1 DUP1 DUP3 MSTORE DUP1 PUSH1 0x20 MUL PUSH1 0x20 ADD DUP3 ADD PUSH1 0x40 MSTORE DUP1 ISZERO PUSH2 0x21E JUMPI DUP2 PUSH1 0x20 ADD PUSH1 0x20 DUP3 MUL DUP1 CALLDATASIZE DUP4 CALLDATACOPY DUP1 DUP3 ADD SWAP2 POP POP SWAP1 POP JUMPDEST POP SWAP1 POP PUSH0 JUMPDEST DUP4 MLOAD DUP2 LT ISZERO PUSH2 0x27B JUMPI PUSH2 0x24F DUP5 DUP3 DUP2 MLOAD DUP2 LT PUSH2 0x242 JUMPI PUSH2 0x241 PUSH2 0x79F JUMP JUMPDEST JUMPDEST PUSH1 0x20 MUL PUSH1 0x20 ADD ADD MLOAD PUSH2 0x363 JUMP JUMPDEST DUP3 DUP3 DUP2 MLOAD DUP2 LT PUSH2 0x262 JUMPI PUSH2 0x261 PUSH2 0x79F JUMP JUMPDEST JUMPDEST PUSH1 0x20 MUL PUSH1 0x20 ADD ADD DUP2 DUP2 MSTORE POP POP DUP1 DUP1 PUSH1 0x1 ADD SWAP2 POP POP PUSH2 0x223 JUMP JUMPDEST POP DUP1 SWAP2 POP POP SWAP2 SWAP1 POP JUMP JUMPDEST PUSH1 0x60 PUSH0 DUP3 PUSH8 0xFFFFFFFFFFFFFFFF DUP2 GT ISZERO PUSH2 0x2A2 JUMPI PUSH2 0x2A1 PUSH2 0x48C JUMP JUMPDEST JUMPDEST PUSH1 0x40 MLOAD SWAP1 DUP1 DUP3 MSTORE DUP1 PUSH1 0x20 MUL PUSH1 0x20 ADD DUP3 ADD PUSH1 0x40 MSTORE DUP1 ISZERO PUSH2 0x2D0 JUMPI DUP2 PUSH1 0x20 ADD PUSH1 0x20 DUP3 MUL DUP1 CALLDATASIZE DUP4 CALLDATACOPY DUP1 DUP3 ADD SWAP2 POP POP SWAP1 POP JUMPDEST POP SWAP1 POP PUSH0 JUMPDEST DUP4 DUP2 LT ISZERO PUSH2 0x30A JUMPI DUP1 DUP3 DUP3 DUP2 MLOAD DUP2 LT PUSH2 0x2F1 JUMPI PUSH2 0x2F0 PUSH2 0x79F JUMP JUMPDEST JUMPDEST PUSH1 0x20 MUL PUSH1 0x20 ADD ADD DUP2 DUP2 MSTORE POP POP DUP1 DUP1 PUSH1 0x1 ADD SWAP2 POP POP PUSH2 0x2D5 JUMP JUMPDEST POP DUP1 SWAP2 POP POP SWAP2 SWAP1 POP JUMP JUMPDEST PUSH0 DUP1 PUSH0 SWAP1 POP PUSH0 JUMPDEST DUP4 MLOAD DUP2 LT ISZERO PUSH2 0x359 JUMPI DUP4 DUP2 DUP2 MLOAD DUP2 LT PUSH2 0x337 JUMPI PUSH2 0x336 PUSH2 0x79F JUMP JUMPDEST JUMPDEST PUSH1 0x20 MUL PUSH1 0x20 ADD ADD MLOAD DUP3 PUSH2 0x34A SWAP2 SWAP1 PUSH2 0x7F9 JUMP JUMPDEST SWAP2 POP DUP1 DUP1 PUSH1 0x1 ADD SWAP2 POP POP PUSH2 0x31B JUMP JUMPDEST POP DUP1 SWAP2 POP POP SWAP2 SWAP1 POP JUMP JUMPDEST PUSH0 PUSH32 0xFFFFFFFFFFFFFFFFFFFFFFFFFFFFFFFFFFFFFFFFFFFFFFFFFFFFFFFFFFFFFFFF DUP3 PUSH2 0x390 SWAP2 SWAP1 PUSH2 0x83A JUMP JUMPDEST SWAP1 POP SWAP2 SWAP1 POP JUMP JUMPDEST PUSH1 0x60 PUSH0 JUMPDEST DUP4 MLOAD DUP2 LT ISZERO PUSH2 0x3F7 JUMPI PUSH2 0x3CB DUP5 DUP3 DUP2 MLOAD DUP2 LT PUSH2 0x3BA JUMPI PUSH2 0x3B9 PUSH2 0x79F JUMP JUMPDEST JUMPDEST PUSH1 0x20 MUL PUSH1 0x20 ADD ADD MLOAD DUP5 PUSH4 0xFFFFFFFF AND JUMP JUMPDEST DUP5 DUP3 DUP2 MLOAD DUP2 LT PUSH2 0x3DE JUMPI PUSH2 0x3DD PUSH2 0x79F JUMP JUMPDEST JUMPDEST PUSH1 0x20 MUL PUSH1 0x20 ADD ADD DUP2 DUP2 MSTORE POP POP DUP1 DUP1 PUSH1 0x1 ADD SWAP2 POP POP PUSH2 0x39B JUMP JUMPDEST POP DUP3 SWAP1 POP SWAP3 SWAP2 POP POP JUMP JUMPDEST PUSH0 DUP1 PUSH1 0x1 SWAP1 POP PUSH0 JUMPDEST DUP4 MLOAD DUP2 LT ISZERO PUSH2 0x447 JUMPI DUP4 DUP2 DUP2 MLOAD DUP2 LT PUSH2 0x425 JUMPI PUSH2 0x424 PUSH2 0x79F JUMP JUMPDEST JUMPDEST PUSH1 0x20 MUL PUSH1 0x20 ADD ADD MLOAD DUP3 PUSH2 0x438 SWAP2 SWAP1 PUSH2 0x83A JUMP JUMPDEST SWAP2 POP DUP1 DUP1 PUSH1 0x1 ADD SWAP2 POP POP PUSH2 0x409 JUMP JUMPDEST POP DUP1 SWAP2 POP POP SWAP2 SWAP1 POP JUMP JUMPDEST PUSH0 PUSH2 0x45F DUP4 DUP4 PUSH4 0xFFFFFFFF AND JUMP JUMPDEST SWAP1 POP SWAP3 SWAP2 POP POP JUMP JUMPDEST PUSH0 PUSH1 0x40 MLOAD SWAP1 POP SWAP1 JUMP JUMPDEST PUSH0 DUP1 REVERT JUMPDEST PUSH0 DUP1 REVERT JUMPDEST PUSH0 DUP1 REVERT JUMPDEST PUSH0 PUSH1 0x1F NOT PUSH1 0x1F DUP4 ADD AND SWAP1 POP SWAP2 SWAP1 POP JUMP JUMPDEST PUSH32 0x4E487B7100000000000000000000000000000000000000000000000000000000 PUSH0 MSTORE PUSH1 0x41 PUSH1 0x4 MSTORE PUSH1 0x24 PUSH0 REVERT JUMPDEST PUSH2 0x4C2 DUP3 PUSH2 0x47C JUMP JUMPDEST DUP2 ADD DUP2 DUP2 LT PUSH8 0xFFFFFFFFFFFFFFFF DUP3 GT OR ISZERO PUSH2 0x4E1 JUMPI PUSH2 0x4E0 PUSH2 0x48C JUMP JUMPDEST JUMPDEST DUP1 PUSH1 0x40 MSTORE POP POP POP JUMP JUMPDEST PUSH0 PUSH2 0x4F3 PUSH2 0x467 JUMP JUMPDEST SWAP1 POP PUSH2 0x4FF DUP3 DUP3 PUSH2 0x4B9 JUMP JUMPDEST SWAP2 SWAP1 POP JUMP JUMPDEST PUSH0 PUSH8 0xFFFFFFFFFFFFFFFF DUP3 GT ISZERO PUSH2 0x51E JUMPI PUSH2 0x51D PUSH2 0x48C JUMP JUMPDEST JUMPDEST PUSH1 0x20 DUP3 MUL SWAP1 POP PUSH1 0x20 DUP2 ADD SWAP1 POP SWAP2 SWAP1 POP JUMP JUMPDEST PUSH0 DUP1 REVERT JUMPDEST PUSH0 DUP2 SWAP1 POP SWAP2 SWAP1 POP JUMP JUMPDEST PUSH2 0x545 DUP2 PUSH2 0x533 JUMP JUMPDEST DUP2 EQ PUSH2 0x54F JUMPI PUSH0 DUP1 REVERT JUMPDEST POP JUMP JUMPDEST PUSH0 DUP2 CALLDATALOAD SWAP1 POP PUSH2 0x560 DUP2 PUSH2 0x53C JUMP JUMPDEST SWAP3 SWAP2 POP POP JUMP JUMPDEST PUSH0 PUSH2 0x578 PUSH2 0x573 DUP5 PUSH2 0x504 JUMP JUMPDEST PUSH2 0x4EA JUMP JUMPDEST SWAP1 POP DUP1 DUP4 DUP3 MSTORE PUSH1 0x20 DUP3 ADD SWAP1 POP PUSH1 0x20 DUP5 MUL DUP4 ADD DUP6 DUP2 GT ISZERO PUSH2 0x59B JUMPI PUSH2 0x59A PUSH2 0x52F JUMP JUMPDEST JUMPDEST DUP4 JUMPDEST DUP2 DUP2 LT ISZERO PUSH2 0x5C4 JUMPI DUP1 PUSH2 0x5B0 DUP9 DUP3 PUSH2 0x552 JUMP JUMPDEST DUP5 MSTORE PUSH1 0x20 DUP5 ADD SWAP4 POP POP PUSH1 0x20 DUP2 ADD SWAP1 POP PUSH2 0x59D JUMP JUMPDEST POP POP POP SWAP4 SWAP3 POP POP POP JUMP JUMPDEST PUSH0 DUP3 PUSH1 0x1F DUP4 ADD SLT PUSH2 0x5E2 JUMPI PUSH2 0x5E1 PUSH2 0x478 JUMP JUMPDEST JUMPDEST DUP2 CALLDATALOAD PUSH2 0x5F2 DUP5 DUP3 PUSH1 0x20 DUP7 ADD PUSH2 0x566 JUMP JUMPDEST SWAP2 POP POP SWAP3 SWAP2 POP POP JUMP JUMPDEST PUSH0 PUSH1 0x20 DUP3 DUP5 SUB SLT ISZERO PUSH2 0x610 JUMPI PUSH2 0x60F PUSH2 0x470 JUMP JUMPDEST JUMPDEST PUSH0 DUP3 ADD CALLDATALOAD PUSH8 0xFFFFFFFFFFFFFFFF DUP2 GT ISZERO PUSH2 0x62D JUMPI PUSH2 0x62C PUSH2 0x474 JUMP JUMPDEST JUMPDEST PUSH2 0x639 DUP5 DUP3 DUP6 ADD PUSH2 0x5CE JUMP JUMPDEST SWAP2 POP POP SWAP3 SWAP2 POP POP JUMP JUMPDEST PUSH0 DUP2 MLOAD SWAP1 POP SWAP2 SWAP1 POP JUMP JUMPDEST PUSH0 DUP3 DUP3 MSTORE PUSH1 0x20 DUP3 ADD SWAP1 POP SWAP3 SWAP2 POP POP JUMP JUMPDEST PUSH0 DUP2 SWAP1 POP PUSH1 0x20 DUP3 ADD SWAP1 POP SWAP2 SWAP1 POP JUMP JUMPDEST PUSH2 0x674 DUP2 PUSH2 0x533 JUMP JUMPDEST DUP3 MSTORE POP POP JUMP JUMPDEST PUSH0 PUSH2 0x685 DUP4 DUP4 PUSH2 0x66B JUMP JUMPDEST PUSH1 0x20 DUP4 ADD SWAP1 POP SWAP3 SWAP2 POP POP JUMP JUMPDEST PUSH0 PUSH1 0x20 DUP3 ADD SWAP1 POP SWAP2 SWAP1 POP JUMP JUMPDEST PUSH0 PUSH2 0x6A7 DUP3 PUSH2 0x642 JUMP JUMPDEST PUSH2 0x6B1 DUP2 DUP6 PUSH2 0x64C JUMP JUMPDEST SWAP4 POP PUSH2 0x6BC DUP4 PUSH2 0x65C JUMP JUMPDEST DUP1 PUSH0 JUMPDEST DUP4 DUP2 LT ISZERO PUSH2 0x6EC JUMPI DUP2 MLOAD PUSH2 0x6D3 DUP9 DUP3 PUSH2 0x67A JUMP JUMPDEST SWAP8 POP PUSH2 0x6DE DUP4 PUSH2 0x691 JUMP JUMPDEST SWAP3 POP POP PUSH1 0x1 DUP2 ADD SWAP1 POP PUSH2 0x6BF JUMP JUMPDEST POP DUP6 SWAP4 POP POP POP POP SWAP3 SWAP2 POP POP JUMP JUMPDEST PUSH0 PUSH1 0x20 DUP3 ADD SWAP1 POP DUP2 DUP2 SUB PUSH0 DUP4 ADD MSTORE PUSH2 0x711 DUP2 DUP5 PUSH2 0x69D JUMP JUMPDEST SWAP1 POP SWAP3 SWAP2 POP POP JUMP JUMPDEST PUSH0 DUP2 SWAP1 POP SWAP2 SWAP1 POP JUMP JUMPDEST PUSH2 0x72B DUP2 PUSH2 0x719 JUMP JUMPDEST DUP2 EQ PUSH2 0x735 JUMPI PUSH0 DUP1 REVERT JUMPDEST POP JUMP JUMPDEST PUSH0 DUP2 CALLDATALOAD SWAP1 POP PUSH2 0x746 DUP2 PUSH2 0x722 JUMP JUMPDEST SWAP3 SWAP2 POP POP JUMP JUMPDEST PUSH0 PUSH1 0x20 DUP3 DUP5 SUB SLT ISZERO PUSH2 0x761 JUMPI PUSH2 0x760 PUSH2 0x470 JUMP JUMPDEST JUMPDEST PUSH0 PUSH2 0x76E DUP5 DUP3 DUP6 ADD PUSH2 0x738 JUMP JUMPDEST SWAP2 POP POP SWAP3 SWAP2 POP POP JUMP JUMPDEST PUSH2 0x780 DUP2 PUSH2 0x533 JUMP JUMPDEST DUP3 MSTORE POP POP JUMP JUMPDEST PUSH0 PUSH1 0x20 DUP3 ADD SWAP1 POP PUSH2 0x799 PUSH0 DUP4 ADD DUP5 PUSH2 0x777 JUMP JUMPDEST SWAP3 SWAP2 POP POP JUMP JUMPDEST PUSH32 0x4E487B7100000000000000000000000000000000000000000000000000000000 PUSH0 MSTORE PUSH1 0x32 PUSH1 0x4 MSTORE PUSH1 0x24 PUSH0 REVERT JUMPDEST PUSH32 0x4E487B7100000000000000000000000000000000000000000000000000000000 PUSH0 MSTORE PUSH1 0x11 PUSH1 0x4 MSTORE PUSH1 0x24 PUSH0 REVERT JUMPDEST PUSH0 PUSH2 0x803 DUP3 PUSH2 0x533 JUMP JUMPDEST SWAP2 POP PUSH2 0x80E DUP4 PUSH2 0x533 JUMP JUMPDEST SWAP3 POP DUP3 DUP3 ADD SWAP1 POP DUP3 DUP2 SLT ISZERO PUSH0 DUP4 SLT AND DUP4 DUP3 SLT PUSH0 DUP5 SLT ISZERO AND OR ISZERO PUSH2 0x834 JUMPI PUSH2 0x833 PUSH2 0x7CC JUMP JUMPDEST JUMPDEST SWAP3 SWAP2 POP POP JUMP JUMPDEST PUSH0 PUSH2 0x844 DUP3 PUSH2 0x533 JUMP JUMPDEST SWAP2 POP PUSH2 0x84F DUP4 PUSH2 0x533 JUMP JUMPDEST SWAP3 POP DUP3 DUP3 MUL PUSH2 0x85D DUP2 PUSH2 0x533 JUMP JUMPDEST SWAP2 POP PUSH32 0x8000000000000000000000000000000000000000000000000000000000000000 DUP5 EQ PUSH0 DUP5 SLT AND ISZERO PUSH2 0x894 JUMPI PUSH2 0x893 PUSH2 0x7CC JUMP JUMPDEST JUMPDEST DUP3 DUP3 SDIV DUP5 EQ DUP4 ISZERO OR PUSH2 0x8A9 JUMPI PUSH2 0x8A8 PUSH2 0x7CC JUMP JUMPDEST JUMPDEST POP SWAP3 SWAP2 POP POP JUMP INVALID LOG2 PUSH5 0x6970667358 0x22 SLT KECCAK256 0xED PUSH11 0xB701D021A9F85AFF4CF2F1 0xED CALLDATALOAD DUP1 PUSH25 0xC83D9D2DE526CD5EC15571D8EF2CE564736F6C634300081A00 CALLER "
				},
				"gasEstimates": {
					"creation": {
						"codeDepositCost": "455600",
						"executionCost": "491",
						"totalCost": "456091"
					},
					"external": {
						"initializeAndSum(uint256)": "infinite",
						"mapAndReverse(int256[])": "infinite",
						"reduceAndMultiply(int256[])": "infinite",
						"reverseArray(int256[])": "infinite",
						"sumAndReverse(int256[])": "infinite"
					}
				},
				"methodIdentifiers": {
					"initializeAndSum(uint256)": "3713c898",
					"mapAndReverse(int256[])": "8a70c2ba",
					"reduceAndMultiply(int256[])": "e8e2341d",
					"reverseArray(int256[])": "06694a0a",
					"sumAndReverse(int256[])": "9e7369e8"
				}
			},
			"storageLayout": {
				"storage": [],
				"types": null
			},
			"userdoc": {
				"kind": "user",
				"methods": {},
				"version": 1
			}
		}
	}
}