{
	"assignment2_4task.sol": {
		"VotingSystem": {
			"abi": [
				{
					"inputs": [],
					"name": "getVotes",
					"outputs": [
						{
							"internalType": "uint256",
							"name": "",
							"type": "uint256"
						},
						{
							"internalType": "uint256",
							"name": "",
							"type": "uint256"
						}
					],
					"stateMutability": "view",
					"type": "function"
				},
				{
					"inputs": [],
					"name": "voteAgainst",
					"outputs": [],
					"stateMutability": "nonpayable",
					"type": "function"
				},
				{
					"inputs": [],
					"name": "voteFor",
					"outputs": [],
					"stateMutability": "nonpayable",
					"type": "function"
				},
				{
					"inputs": [],
					"name": "votesAgainst",
					"outputs": [
						{
							"internalType": "uint256",
							"name": "",
							"type": "uint256"
						}
					],
					"stateMutability": "view",
					"type": "function"
				},
				{
					"inputs": [],
					"name": "votesFor",
					"outputs": [
						{
							"internalType": "uint256",
							"name": "",
							"type": "uint256"
						}
					],
					"stateMutability": "view",
					"type": "function"
				}
			],
			"devdoc": {
				"kind": "dev",
				"methods": {},
				"version": 1
			},
			"evm": {
				"assembly": "    /* \"assignment2_4task.sol\":27:677  contract VotingSystem {... */\n  mstore(0x40, 0x80)\n  callvalue\n  dup1\n  iszero\n  tag_1\n  jumpi\n  0x00\n  dup1\n  revert\ntag_1:\n  pop\n  dataSize(sub_0)\n  dup1\n  dataOffset(sub_0)\n  0x00\n  codecopy\n  0x00\n  return\nstop\n\nsub_0: assembly {\n        /* \"assignment2_4task.sol\":27:677  contract VotingSystem {... */\n      mstore(0x40, 0x80)\n      callvalue\n      dup1\n      iszero\n      tag_1\n      jumpi\n      0x00\n      dup1\n      revert\n    tag_1:\n      pop\n      jumpi(tag_2, lt(calldatasize, 0x04))\n      shr(0xe0, calldataload(0x00))\n      dup1\n      0x0dc96015\n      eq\n      tag_3\n      jumpi\n      dup1\n      0x91b4384d\n      eq\n      tag_4\n      jumpi\n      dup1\n      0x9f396cff\n      eq\n      tag_5\n      jumpi\n      dup1\n      0xfd4f623c\n      eq\n      tag_6\n      jumpi\n      dup1\n      0xffaa3608\n      eq\n      tag_7\n      jumpi\n    tag_2:\n      0x00\n      dup1\n      revert\n        /* \"assignment2_4task.sol\":409:518  function getVotes() public view returns (uint256, uint256) {... */\n    tag_3:\n      tag_8\n      tag_9\n      jump\t// in\n    tag_8:\n      mload(0x40)\n      tag_10\n      swap3\n      swap2\n      swap1\n      tag_11\n      jump\t// in\n    tag_10:\n      mload(0x40)\n      dup1\n      swap2\n      sub\n      swap1\n      return\n        /* \"assignment2_4task.sol\":86:113  uint256 public votesAgainst */\n    tag_4:\n      tag_12\n      tag_13\n      jump\t// in\n    tag_12:\n      mload(0x40)\n      tag_14\n      swap2\n      swap1\n      tag_15\n      jump\t// in\n    tag_14:\n      mload(0x40)\n      dup1\n      swap2\n      sub\n      swap1\n      return\n        /* \"assignment2_4task.sol\":270:336  function voteAgainst() public {... */\n    tag_5:\n      tag_16\n      tag_17\n      jump\t// in\n    tag_16:\n      stop\n        /* \"assignment2_4task.sol\":56:79  uint256 public votesFor */\n    tag_6:\n      tag_18\n      tag_19\n      jump\t// in\n    tag_18:\n      mload(0x40)\n      tag_20\n      swap2\n      swap1\n      tag_15\n      jump\t// in\n    tag_20:\n      mload(0x40)\n      dup1\n      swap2\n      sub\n      swap1\n      return\n        /* \"assignment2_4task.sol\":161:219  function voteFor() public {... */\n    tag_7:\n      tag_21\n      tag_22\n      jump\t// in\n    tag_21:\n      stop\n        /* \"assignment2_4task.sol\":409:518  function getVotes() public view returns (uint256, uint256) {... */\n    tag_9:\n        /* \"assignment2_4task.sol\":450:457  uint256 */\n      0x00\n        /* \"assignment2_4task.sol\":459:466  uint256 */\n      dup1\n        /* \"assignment2_4task.sol\":487:495  votesFor */\n      sload(0x00)\n        /* \"assignment2_4task.sol\":497:509  votesAgainst */\n      sload(0x01)\n        /* \"assignment2_4task.sol\":479:510  return (votesFor, votesAgainst) */\n      swap2\n      pop\n      swap2\n      pop\n        /* \"assignment2_4task.sol\":409:518  function getVotes() public view returns (uint256, uint256) {... */\n      swap1\n      swap2\n      jump\t// out\n        /* \"assignment2_4task.sol\":86:113  uint256 public votesAgainst */\n    tag_13:\n      sload(0x01)\n      dup2\n      jump\t// out\n        /* \"assignment2_4task.sol\":270:336  function voteAgainst() public {... */\n    tag_17:\n        /* \"assignment2_4task.sol\":327:328  1 */\n      0x01\n        /* \"assignment2_4task.sol\":311:323  votesAgainst */\n      dup1\n      0x00\n        /* \"assignment2_4task.sol\":311:328  votesAgainst += 1 */\n      dup3\n      dup3\n      sload\n      tag_25\n      swap2\n      swap1\n      tag_26\n      jump\t// in\n    tag_25:\n      swap3\n      pop\n      pop\n      dup2\n      swap1\n      sstore\n      pop\n        /* \"assignment2_4task.sol\":270:336  function voteAgainst() public {... */\n      jump\t// out\n        /* \"assignment2_4task.sol\":56:79  uint256 public votesFor */\n    tag_19:\n      sload(0x00)\n      dup2\n      jump\t// out\n        /* \"assignment2_4task.sol\":161:219  function voteFor() public {... */\n    tag_22:\n        /* \"assignment2_4task.sol\":210:211  1 */\n      0x01\n        /* \"assignment2_4task.sol\":198:206  votesFor */\n      0x00\n      dup1\n        /* \"assignment2_4task.sol\":198:211  votesFor += 1 */\n      dup3\n      dup3\n      sload\n      tag_28\n      swap2\n      swap1\n      tag_26\n      jump\t// in\n    tag_28:\n      swap3\n      pop\n      pop\n      dup2\n      swap1\n      sstore\n      pop\n        /* \"assignment2_4task.sol\":161:219  function voteFor() public {... */\n      jump\t// out\n        /* \"#utility.yul\":7:84   */\n    tag_29:\n        /* \"#utility.yul\":44:51   */\n      0x00\n        /* \"#utility.yul\":73:78   */\n      dup2\n        /* \"#utility.yul\":62:78   */\n      swap1\n      pop\n        /* \"#utility.yul\":7:84   */\n      swap2\n      swap1\n      pop\n      jump\t// out\n        /* \"#utility.yul\":90:208   */\n    tag_30:\n        /* \"#utility.yul\":177:201   */\n      tag_35\n        /* \"#utility.yul\":195:200   */\n      dup2\n        /* \"#utility.yul\":177:201   */\n      tag_29\n      jump\t// in\n    tag_35:\n        /* \"#utility.yul\":172:175   */\n      dup3\n        /* \"#utility.yul\":165:202   */\n      mstore\n        /* \"#utility.yul\":90:208   */\n      pop\n      pop\n      jump\t// out\n        /* \"#utility.yul\":214:546   */\n    tag_11:\n        /* \"#utility.yul\":335:339   */\n      0x00\n        /* \"#utility.yul\":373:375   */\n      0x40\n        /* \"#utility.yul\":362:371   */\n      dup3\n        /* \"#utility.yul\":358:376   */\n      add\n        /* \"#utility.yul\":350:376   */\n      swap1\n      pop\n        /* \"#utility.yul\":386:457   */\n      tag_37\n        /* \"#utility.yul\":454:455   */\n      0x00\n        /* \"#utility.yul\":443:452   */\n      dup4\n        /* \"#utility.yul\":439:456   */\n      add\n        /* \"#utility.yul\":430:436   */\n      dup6\n        /* \"#utility.yul\":386:457   */\n      tag_30\n      jump\t// in\n    tag_37:\n        /* \"#utility.yul\":467:539   */\n      tag_38\n        /* \"#utility.yul\":535:537   */\n      0x20\n        /* \"#utility.yul\":524:533   */\n      dup4\n        /* \"#utility.yul\":520:538   */\n      add\n        /* \"#utility.yul\":511:517   */\n      dup5\n        /* \"#utility.yul\":467:539   */\n      tag_30\n      jump\t// in\n    tag_38:\n        /* \"#utility.yul\":214:546   */\n      swap4\n      swap3\n      pop\n      pop\n      pop\n      jump\t// out\n        /* \"#utility.yul\":552:774   */\n    tag_15:\n        /* \"#utility.yul\":645:649   */\n      0x00\n        /* \"#utility.yul\":683:685   */\n      0x20\n        /* \"#utility.yul\":672:681   */\n      dup3\n        /* \"#utility.yul\":668:686   */\n      add\n        /* \"#utility.yul\":660:686   */\n      swap1\n      pop\n        /* \"#utility.yul\":696:767   */\n      tag_40\n        /* \"#utility.yul\":764:765   */\n      0x00\n        /* \"#utility.yul\":753:762   */\n      dup4\n        /* \"#utility.yul\":749:766   */\n      add\n        /* \"#utility.yul\":740:746   */\n      dup5\n        /* \"#utility.yul\":696:767   */\n      tag_30\n      jump\t// in\n    tag_40:\n        /* \"#utility.yul\":552:774   */\n      swap3\n      swap2\n      pop\n      pop\n      jump\t// out\n        /* \"#utility.yul\":780:960   */\n    tag_31:\n        /* \"#utility.yul\":828:905   */\n      0x4e487b7100000000000000000000000000000000000000000000000000000000\n        /* \"#utility.yul\":825:826   */\n      0x00\n        /* \"#utility.yul\":818:906   */\n      mstore\n        /* \"#utility.yul\":925:929   */\n      0x11\n        /* \"#utility.yul\":922:923   */\n      0x04\n        /* \"#utility.yul\":915:930   */\n      mstore\n        /* \"#utility.yul\":949:953   */\n      0x24\n        /* \"#utility.yul\":946:947   */\n      0x00\n        /* \"#utility.yul\":939:954   */\n      revert\n        /* \"#utility.yul\":966:1157   */\n    tag_26:\n        /* \"#utility.yul\":1006:1009   */\n      0x00\n        /* \"#utility.yul\":1025:1045   */\n      tag_43\n        /* \"#utility.yul\":1043:1044   */\n      dup3\n        /* \"#utility.yul\":1025:1045   */\n      tag_29\n      jump\t// in\n    tag_43:\n        /* \"#utility.yul\":1020:1045   */\n      swap2\n      pop\n        /* \"#utility.yul\":1059:1079   */\n      tag_44\n        /* \"#utility.yul\":1077:1078   */\n      dup4\n        /* \"#utility.yul\":1059:1079   */\n      tag_29\n      jump\t// in\n    tag_44:\n        /* \"#utility.yul\":1054:1079   */\n      swap3\n      pop\n        /* \"#utility.yul\":1102:1103   */\n      dup3\n        /* \"#utility.yul\":1099:1100   */\n      dup3\n        /* \"#utility.yul\":1095:1104   */\n      add\n        /* \"#utility.yul\":1088:1104   */\n      swap1\n      pop\n        /* \"#utility.yul\":1123:1126   */\n      dup1\n        /* \"#utility.yul\":1120:1121   */\n      dup3\n        /* \"#utility.yul\":1117:1127   */\n      gt\n        /* \"#utility.yul\":1114:1150   */\n      iszero\n      tag_45\n      jumpi\n        /* \"#utility.yul\":1130:1148   */\n      tag_46\n      tag_31\n      jump\t// in\n    tag_46:\n        /* \"#utility.yul\":1114:1150   */\n    tag_45:\n        /* \"#utility.yul\":966:1157   */\n      swap3\n      swap2\n      pop\n      pop\n      jump\t// out\n\n    auxdata: 0xa2646970667358221220b5a537b1e1ba877c0c36adb7699534a35550880ad695694d6781582b612043ca64736f6c634300081a0033\n}\n",
				"bytecode": {
					"linkReferences": {},
					"object": "6080604052348015600e575f80fd5b506102048061001c5f395ff3fe608060405234801561000f575f80fd5b5060043610610055575f3560e01c80630dc960151461005957806391b4384d146100785780639f396cff14610096578063fd4f623c146100a0578063ffaa3608146100be575b5f80fd5b6100616100c8565b60405161006f92919061012e565b60405180910390f35b6100806100d7565b60405161008d9190610155565b60405180910390f35b61009e6100dd565b005b6100a86100f7565b6040516100b59190610155565b60405180910390f35b6100c66100fc565b005b5f805f54600154915091509091565b60015481565b6001805f8282546100ee919061019b565b92505081905550565b5f5481565b60015f8082825461010d919061019b565b92505081905550565b5f819050919050565b61012881610116565b82525050565b5f6040820190506101415f83018561011f565b61014e602083018461011f565b9392505050565b5f6020820190506101685f83018461011f565b92915050565b7f4e487b71000000000000000000000000000000000000000000000000000000005f52601160045260245ffd5b5f6101a582610116565b91506101b083610116565b92508282019050808211156101c8576101c761016e565b5b9291505056fea2646970667358221220b5a537b1e1ba877c0c36adb7699534a35550880ad695694d6781582b612043ca64736f6c634300081a0033",
					"opcodes": "PUSH1 0x80 PUSH1 0x40 MSTORE CALLVALUE DUP1 ISZERO PUSH1 0xE JUMPI PUSH0 DUP1 REVERT JUMPDEST POP PUSH2 0x204 DUP1 PUSH2 0x1C PUSH0 CODECOPY PUSH0 RETURN INVALID PUSH1 0x80 PUSH1 0x40 MSTORE CALLVALUE DUP1 ISZERO PUSH2 0xF JUMPI PUSH0 DUP1 REVERT JUMPDEST POP PUSH1 0x4 CALLDATASIZE LT PUSH2 0x55 JUMPI PUSH0 CALLDATALOAD PUSH1 0xE0 SHR DUP1 PUSH4 0xDC96015 EQ PUSH2 0x59 JUMPI DUP1 PUSH4 0x91B4384D EQ PUSH2 0x78 JUMPI DUP1 PUSH4 0x9F396CFF EQ PUSH2 0x96 JUMPI DUP1 PUSH4 0xFD4F623C EQ PUSH2 0xA0 JUMPI DUP1 PUSH4 0xFFAA3608 EQ PUSH2 0xBE JUMPI JUMPDEST PUSH0 DUP1 REVERT JUMPDEST PUSH2 0x61 PUSH2 0xC8 JUMP JUMPDEST PUSH1 0x40 MLOAD PUSH2 0x6F SWAP3 SWAP2 SWAP1 PUSH2 0x12E JUMP JUMPDEST PUSH1 0x40 MLOAD DUP1 SWAP2 SUB SWAP1 RETURN JUMPDEST PUSH2 0x80 PUSH2 0xD7 JUMP JUMPDEST PUSH1 0x40 MLOAD PUSH2 0x8D SWAP2 SWAP1 PUSH2 0x155 JUMP JUMPDEST PUSH1 0x40 MLOAD DUP1 SWAP2 SUB SWAP1 RETURN JUMPDEST PUSH2 0x9E PUSH2 0xDD JUMP JUMPDEST STOP JUMPDEST PUSH2 0xA8 PUSH2 0xF7 JUMP JUMPDEST PUSH1 0x40 MLOAD PUSH2 0xB5 SWAP2 SWAP1 PUSH2 0x155 JUMP JUMPDEST PUSH1 0x40 MLOAD DUP1 SWAP2 SUB SWAP1 RETURN JUMPDEST PUSH2 0xC6 PUSH2 0xFC JUMP JUMPDEST STOP JUMPDEST PUSH0 DUP1 PUSH0 SLOAD PUSH1 0x1 SLOAD SWAP2 POP SWAP2 POP SWAP1 SWAP2 JUMP JUMPDEST PUSH1 0x1 SLOAD DUP2 JUMP JUMPDEST PUSH1 0x1 DUP1 PUSH0 DUP3 DUP3 SLOAD PUSH2 0xEE SWAP2 SWAP1 PUSH2 0x19B JUMP JUMPDEST SWAP3 POP POP DUP2 SWAP1 SSTORE POP JUMP JUMPDEST PUSH0 SLOAD DUP2 JUMP JUMPDEST PUSH1 0x1 PUSH0 DUP1 DUP3 DUP3 SLOAD PUSH2 0x10D SWAP2 SWAP1 PUSH2 0x19B JUMP JUMPDEST SWAP3 POP POP DUP2 SWAP1 SSTORE POP JUMP JUMPDEST PUSH0 DUP2 SWAP1 POP SWAP2 SWAP1 POP JUMP JUMPDEST PUSH2 0x128 DUP2 PUSH2 0x116 JUMP JUMPDEST DUP3 MSTORE POP POP JUMP JUMPDEST PUSH0 PUSH1 0x40 DUP3 ADD SWAP1 POP PUSH2 0x141 PUSH0 DUP4 ADD DUP6 PUSH2 0x11F JUMP JUMPDEST PUSH2 0x14E PUSH1 0x20 DUP4 ADD DUP5 PUSH2 0x11F JUMP JUMPDEST SWAP4 SWAP3 POP POP POP JUMP JUMPDEST PUSH0 PUSH1 0x20 DUP3 ADD SWAP1 POP PUSH2 0x168 PUSH0 DUP4 ADD DUP5 PUSH2 0x11F JUMP JUMPDEST SWAP3 SWAP2 POP POP JUMP JUMPDEST PUSH32 0x4E487B7100000000000000000000000000000000000000000000000000000000 PUSH0 MSTORE PUSH1 0x11 PUSH1 0x4 MSTORE PUSH1 0x24 PUSH0 REVERT JUMPDEST PUSH0 PUSH2 0x1A5 DUP3 PUSH2 0x116 JUMP JUMPDEST SWAP2 POP PUSH2 0x1B0 DUP4 PUSH2 0x116 JUMP JUMPDEST SWAP3 POP DUP3 DUP3 ADD SWAP1 POP DUP1 DUP3 GT ISZERO PUSH2 0x1C8 JUMPI PUSH2 0x1C7 PUSH2 0x16E JUMP JUMPDEST JUMPDEST SWAP3 SWAP2 POP POP JUMP INVALID LOG2 PUSH5 0x6970667358 0x22 SLT KECCAK256 0xB5 0xA5 CALLDATACOPY 0xB1 0xE1 0xBA DUP8 PUSH29 0xC36ADB7699534A35550880AD695694D6781582B612043CA64736F6C63 NUMBER STOP ADDMOD BYTE STOP CALLER "
				},
				"gasEstimates": {
					"creation": {
						"codeDepositCost": "103200",
						"executionCost": "151",
						"totalCost": "103351"
					},
					"external": {
						"getVotes()": "infinite",
						"voteAgainst()": "infinite",
						"voteFor()": "infinite",
						"votesAgainst()": "2425",
						"votesFor()": "2468"
					},
					"internal": {
						"resetVotes()": "infinite"
					}
				},
				"methodIdentifiers": {
					"getVotes()": "0dc96015",
					"voteAgainst()": "9f396cff",
					"voteFor()": "ffaa3608",
					"votesAgainst()": "91b4384d",
					"votesFor()": "fd4f623c"
				}
			},
			"storageLayout": {
				"storage": [
					{
						"astId": 3,
						"contract": "assignment2_4task.sol:VotingSystem",
						"label": "votesFor",
						"offset": 0,
						"slot": "0",
						"type": "t_uint256"
					},
					{
						"astId": 5,
						"contract": "assignment2_4task.sol:VotingSystem",
						"label": "votesAgainst",
						"offset": 0,
						"slot": "1",
						"type": "t_uint256"
					}
				],
				"types": {
					"t_uint256": {
						"encoding": "inplace",
						"label": "uint256",
						"numberOfBytes": "32"
					}
				}
			},
			"userdoc": {
				"kind": "user",
				"methods": {},
				"version": 1
			}
		}
	}
}