{
	"assignment3_4task.sol": {
		"Palindrome": {
			"abi": [
				{
					"inputs": [
						{
							"internalType": "int256",
							"name": "n",
							"type": "int256"
						}
					],
					"name": "isPalindrome",
					"outputs": [
						{
							"internalType": "bool",
							"name": "",
							"type": "bool"
						}
					],
					"stateMutability": "pure",
					"type": "function"
				}
			],
			"devdoc": {
				"kind": "dev",
				"methods": {},
				"version": 1
			},
			"evm": {
				"assembly": "    /* \"assignment3_4task.sol\":27:409  contract Palindrome {... */\n  mstore(0x40, 0x80)\n  callvalue\n  dup1\n  iszero\n  tag_1\n  jumpi\n  0x00\n  dup1\n  revert\ntag_1:\n  pop\n  dataSize(sub_0)\n  dup1\n  dataOffset(sub_0)\n  0x00\n  codecopy\n  0x00\n  return\nstop\n\nsub_0: assembly {\n        /* \"assignment3_4task.sol\":27:409  contract Palindrome {... */\n      mstore(0x40, 0x80)\n      callvalue\n      dup1\n      iszero\n      tag_1\n      jumpi\n      0x00\n      dup1\n      revert\n    tag_1:\n      pop\n      jumpi(tag_2, lt(calldatasize, 0x04))\n      shr(0xe0, calldataload(0x00))\n      dup1\n      0xb6654c9c\n      eq\n      tag_3\n      jumpi\n    tag_2:\n      0x00\n      dup1\n      revert\n        /* \"assignment3_4task.sol\":111:406  function isPalindrome(int n) public pure returns (bool) {... */\n    tag_3:\n      tag_4\n      0x04\n      dup1\n      calldatasize\n      sub\n      dup2\n      add\n      swap1\n      tag_5\n      swap2\n      swap1\n      tag_6\n      jump\t// in\n    tag_5:\n      tag_7\n      jump\t// in\n    tag_4:\n      mload(0x40)\n      tag_8\n      swap2\n      swap1\n      tag_9\n      jump\t// in\n    tag_8:\n      mload(0x40)\n      dup1\n      swap2\n      sub\n      swap1\n      return\n    tag_7:\n        /* \"assignment3_4task.sol\":161:165  bool */\n      0x00\n        /* \"assignment3_4task.sol\":178:190  int original */\n      dup1\n        /* \"assignment3_4task.sol\":193:194  n */\n      dup3\n        /* \"assignment3_4task.sol\":178:194  int original = n */\n      swap1\n      pop\n        /* \"assignment3_4task.sol\":205:217  int reversed */\n      0x00\n        /* \"assignment3_4task.sol\":232:361  while (n != 0) {... */\n    tag_11:\n        /* \"assignment3_4task.sol\":244:245  0 */\n      0x00\n        /* \"assignment3_4task.sol\":239:240  n */\n      dup5\n        /* \"assignment3_4task.sol\":239:245  n != 0 */\n      eq\n        /* \"assignment3_4task.sol\":232:361  while (n != 0) {... */\n      tag_12\n      jumpi\n        /* \"assignment3_4task.sol\":262:271  int digit */\n      0x00\n        /* \"assignment3_4task.sol\":278:280  10 */\n      0x0a\n        /* \"assignment3_4task.sol\":274:275  n */\n      dup6\n        /* \"assignment3_4task.sol\":274:280  n % 10 */\n      tag_13\n      swap2\n      swap1\n      tag_14\n      jump\t// in\n    tag_13:\n        /* \"assignment3_4task.sol\":262:280  int digit = n % 10 */\n      swap1\n      pop\n        /* \"assignment3_4task.sol\":322:327  digit */\n      dup1\n        /* \"assignment3_4task.sol\":317:319  10 */\n      0x0a\n        /* \"assignment3_4task.sol\":306:314  reversed */\n      dup4\n        /* \"assignment3_4task.sol\":306:319  reversed * 10 */\n      tag_15\n      swap2\n      swap1\n      tag_16\n      jump\t// in\n    tag_15:\n        /* \"assignment3_4task.sol\":306:327  reversed * 10 + digit */\n      tag_17\n      swap2\n      swap1\n      tag_18\n      jump\t// in\n    tag_17:\n        /* \"assignment3_4task.sol\":295:327  reversed = reversed * 10 + digit */\n      swap2\n      pop\n        /* \"assignment3_4task.sol\":347:349  10 */\n      0x0a\n        /* \"assignment3_4task.sol\":342:349  n /= 10 */\n      dup6\n      tag_19\n      swap2\n      swap1\n      tag_20\n      jump\t// in\n    tag_19:\n      swap5\n      pop\n        /* \"assignment3_4task.sol\":247:361  {... */\n      pop\n        /* \"assignment3_4task.sol\":232:361  while (n != 0) {... */\n      jump(tag_11)\n    tag_12:\n        /* \"assignment3_4task.sol\":390:398  reversed */\n      dup1\n        /* \"assignment3_4task.sol\":378:386  original */\n      dup3\n        /* \"assignment3_4task.sol\":378:398  original == reversed */\n      eq\n        /* \"assignment3_4task.sol\":371:398  return original == reversed */\n      swap3\n      pop\n      pop\n      pop\n        /* \"assignment3_4task.sol\":111:406  function isPalindrome(int n) public pure returns (bool) {... */\n      swap2\n      swap1\n      pop\n      jump\t// out\n        /* \"#utility.yul\":88:205   */\n    tag_22:\n        /* \"#utility.yul\":197:198   */\n      0x00\n        /* \"#utility.yul\":194:195   */\n      dup1\n        /* \"#utility.yul\":187:199   */\n      revert\n        /* \"#utility.yul\":334:410   */\n    tag_24:\n        /* \"#utility.yul\":370:377   */\n      0x00\n        /* \"#utility.yul\":399:404   */\n      dup2\n        /* \"#utility.yul\":388:404   */\n      swap1\n      pop\n        /* \"#utility.yul\":334:410   */\n      swap2\n      swap1\n      pop\n      jump\t// out\n        /* \"#utility.yul\":416:536   */\n    tag_25:\n        /* \"#utility.yul\":488:511   */\n      tag_37\n        /* \"#utility.yul\":505:510   */\n      dup2\n        /* \"#utility.yul\":488:511   */\n      tag_24\n      jump\t// in\n    tag_37:\n        /* \"#utility.yul\":481:486   */\n      dup2\n        /* \"#utility.yul\":478:512   */\n      eq\n        /* \"#utility.yul\":468:530   */\n      tag_38\n      jumpi\n        /* \"#utility.yul\":526:527   */\n      0x00\n        /* \"#utility.yul\":523:524   */\n      dup1\n        /* \"#utility.yul\":516:528   */\n      revert\n        /* \"#utility.yul\":468:530   */\n    tag_38:\n        /* \"#utility.yul\":416:536   */\n      pop\n      jump\t// out\n        /* \"#utility.yul\":542:679   */\n    tag_26:\n        /* \"#utility.yul\":587:592   */\n      0x00\n        /* \"#utility.yul\":625:631   */\n      dup2\n        /* \"#utility.yul\":612:632   */\n      calldataload\n        /* \"#utility.yul\":603:632   */\n      swap1\n      pop\n        /* \"#utility.yul\":641:673   */\n      tag_40\n        /* \"#utility.yul\":667:672   */\n      dup2\n        /* \"#utility.yul\":641:673   */\n      tag_25\n      jump\t// in\n    tag_40:\n        /* \"#utility.yul\":542:679   */\n      swap3\n      swap2\n      pop\n      pop\n      jump\t// out\n        /* \"#utility.yul\":685:1012   */\n    tag_6:\n        /* \"#utility.yul\":743:749   */\n      0x00\n        /* \"#utility.yul\":792:794   */\n      0x20\n        /* \"#utility.yul\":780:789   */\n      dup3\n        /* \"#utility.yul\":771:778   */\n      dup5\n        /* \"#utility.yul\":767:790   */\n      sub\n        /* \"#utility.yul\":763:795   */\n      slt\n        /* \"#utility.yul\":760:879   */\n      iszero\n      tag_42\n      jumpi\n        /* \"#utility.yul\":798:877   */\n      tag_43\n      tag_22\n      jump\t// in\n    tag_43:\n        /* \"#utility.yul\":760:879   */\n    tag_42:\n        /* \"#utility.yul\":918:919   */\n      0x00\n        /* \"#utility.yul\":943:995   */\n      tag_44\n        /* \"#utility.yul\":987:994   */\n      dup5\n        /* \"#utility.yul\":978:984   */\n      dup3\n        /* \"#utility.yul\":967:976   */\n      dup6\n        /* \"#utility.yul\":963:985   */\n      add\n        /* \"#utility.yul\":943:995   */\n      tag_26\n      jump\t// in\n    tag_44:\n        /* \"#utility.yul\":933:995   */\n      swap2\n      pop\n        /* \"#utility.yul\":889:1005   */\n      pop\n        /* \"#utility.yul\":685:1012   */\n      swap3\n      swap2\n      pop\n      pop\n      jump\t// out\n        /* \"#utility.yul\":1018:1108   */\n    tag_27:\n        /* \"#utility.yul\":1052:1059   */\n      0x00\n        /* \"#utility.yul\":1095:1100   */\n      dup2\n        /* \"#utility.yul\":1088:1101   */\n      iszero\n        /* \"#utility.yul\":1081:1102   */\n      iszero\n        /* \"#utility.yul\":1070:1102   */\n      swap1\n      pop\n        /* \"#utility.yul\":1018:1108   */\n      swap2\n      swap1\n      pop\n      jump\t// out\n        /* \"#utility.yul\":1114:1223   */\n    tag_28:\n        /* \"#utility.yul\":1195:1216   */\n      tag_47\n        /* \"#utility.yul\":1210:1215   */\n      dup2\n        /* \"#utility.yul\":1195:1216   */\n      tag_27\n      jump\t// in\n    tag_47:\n        /* \"#utility.yul\":1190:1193   */\n      dup3\n        /* \"#utility.yul\":1183:1217   */\n      mstore\n        /* \"#utility.yul\":1114:1223   */\n      pop\n      pop\n      jump\t// out\n        /* \"#utility.yul\":1229:1439   */\n    tag_9:\n        /* \"#utility.yul\":1316:1320   */\n      0x00\n        /* \"#utility.yul\":1354:1356   */\n      0x20\n        /* \"#utility.yul\":1343:1352   */\n      dup3\n        /* \"#utility.yul\":1339:1357   */\n      add\n        /* \"#utility.yul\":1331:1357   */\n      swap1\n      pop\n        /* \"#utility.yul\":1367:1432   */\n      tag_49\n        /* \"#utility.yul\":1429:1430   */\n      0x00\n        /* \"#utility.yul\":1418:1427   */\n      dup4\n        /* \"#utility.yul\":1414:1431   */\n      add\n        /* \"#utility.yul\":1405:1411   */\n      dup5\n        /* \"#utility.yul\":1367:1432   */\n      tag_28\n      jump\t// in\n    tag_49:\n        /* \"#utility.yul\":1229:1439   */\n      swap3\n      swap2\n      pop\n      pop\n      jump\t// out\n        /* \"#utility.yul\":1445:1625   */\n    tag_29:\n        /* \"#utility.yul\":1493:1570   */\n      0x4e487b7100000000000000000000000000000000000000000000000000000000\n        /* \"#utility.yul\":1490:1491   */\n      0x00\n        /* \"#utility.yul\":1483:1571   */\n      mstore\n        /* \"#utility.yul\":1590:1594   */\n      0x12\n        /* \"#utility.yul\":1587:1588   */\n      0x04\n        /* \"#utility.yul\":1580:1595   */\n      mstore\n        /* \"#utility.yul\":1614:1618   */\n      0x24\n        /* \"#utility.yul\":1611:1612   */\n      0x00\n        /* \"#utility.yul\":1604:1619   */\n      revert\n        /* \"#utility.yul\":1631:1805   */\n    tag_14:\n        /* \"#utility.yul\":1662:1663   */\n      0x00\n        /* \"#utility.yul\":1679:1698   */\n      tag_52\n        /* \"#utility.yul\":1696:1697   */\n      dup3\n        /* \"#utility.yul\":1679:1698   */\n      tag_24\n      jump\t// in\n    tag_52:\n        /* \"#utility.yul\":1674:1698   */\n      swap2\n      pop\n        /* \"#utility.yul\":1712:1731   */\n      tag_53\n        /* \"#utility.yul\":1729:1730   */\n      dup4\n        /* \"#utility.yul\":1712:1731   */\n      tag_24\n      jump\t// in\n    tag_53:\n        /* \"#utility.yul\":1707:1731   */\n      swap3\n      pop\n        /* \"#utility.yul\":1750:1751   */\n      dup3\n        /* \"#utility.yul\":1740:1775   */\n      tag_54\n      jumpi\n        /* \"#utility.yul\":1755:1773   */\n      tag_55\n      tag_29\n      jump\t// in\n    tag_55:\n        /* \"#utility.yul\":1740:1775   */\n    tag_54:\n        /* \"#utility.yul\":1797:1798   */\n      dup3\n        /* \"#utility.yul\":1794:1795   */\n      dup3\n        /* \"#utility.yul\":1789:1799   */\n      smod\n        /* \"#utility.yul\":1784:1799   */\n      swap1\n      pop\n        /* \"#utility.yul\":1631:1805   */\n      swap3\n      swap2\n      pop\n      pop\n      jump\t// out\n        /* \"#utility.yul\":1811:1991   */\n    tag_30:\n        /* \"#utility.yul\":1859:1936   */\n      0x4e487b7100000000000000000000000000000000000000000000000000000000\n        /* \"#utility.yul\":1856:1857   */\n      0x00\n        /* \"#utility.yul\":1849:1937   */\n      mstore\n        /* \"#utility.yul\":1956:1960   */\n      0x11\n        /* \"#utility.yul\":1953:1954   */\n      0x04\n        /* \"#utility.yul\":1946:1961   */\n      mstore\n        /* \"#utility.yul\":1980:1984   */\n      0x24\n        /* \"#utility.yul\":1977:1978   */\n      0x00\n        /* \"#utility.yul\":1970:1985   */\n      revert\n        /* \"#utility.yul\":1997:2553   */\n    tag_16:\n        /* \"#utility.yul\":2036:2043   */\n      0x00\n        /* \"#utility.yul\":2059:2078   */\n      tag_58\n        /* \"#utility.yul\":2076:2077   */\n      dup3\n        /* \"#utility.yul\":2059:2078   */\n      tag_24\n      jump\t// in\n    tag_58:\n        /* \"#utility.yul\":2054:2078   */\n      swap2\n      pop\n        /* \"#utility.yul\":2092:2111   */\n      tag_59\n        /* \"#utility.yul\":2109:2110   */\n      dup4\n        /* \"#utility.yul\":2092:2111   */\n      tag_24\n      jump\t// in\n    tag_59:\n        /* \"#utility.yul\":2087:2111   */\n      swap3\n      pop\n        /* \"#utility.yul\":2146:2147   */\n      dup3\n        /* \"#utility.yul\":2143:2144   */\n      dup3\n        /* \"#utility.yul\":2139:2148   */\n      mul\n        /* \"#utility.yul\":2168:2197   */\n      tag_60\n        /* \"#utility.yul\":2185:2196   */\n      dup2\n        /* \"#utility.yul\":2168:2197   */\n      tag_24\n      jump\t// in\n    tag_60:\n        /* \"#utility.yul\":2157:2197   */\n      swap2\n      pop\n        /* \"#utility.yul\":2255:2321   */\n      0x8000000000000000000000000000000000000000000000000000000000000000\n        /* \"#utility.yul\":2252:2253   */\n      dup5\n        /* \"#utility.yul\":2249:2322   */\n      eq\n        /* \"#utility.yul\":2245:2246   */\n      0x00\n        /* \"#utility.yul\":2242:2243   */\n      dup5\n        /* \"#utility.yul\":2238:2247   */\n      slt\n        /* \"#utility.yul\":2234:2323   */\n      and\n        /* \"#utility.yul\":2231:2346   */\n      iszero\n      tag_61\n      jumpi\n        /* \"#utility.yul\":2326:2344   */\n      tag_62\n      tag_30\n      jump\t// in\n    tag_62:\n        /* \"#utility.yul\":2231:2346   */\n    tag_61:\n        /* \"#utility.yul\":2496:2497   */\n      dup3\n        /* \"#utility.yul\":2487:2494   */\n      dup3\n        /* \"#utility.yul\":2482:2498   */\n      sdiv\n        /* \"#utility.yul\":2479:2480   */\n      dup5\n        /* \"#utility.yul\":2476:2499   */\n      eq\n        /* \"#utility.yul\":2456:2457   */\n      dup4\n        /* \"#utility.yul\":2449:2458   */\n      iszero\n        /* \"#utility.yul\":2429:2513   */\n      or\n        /* \"#utility.yul\":2406:2546   */\n      tag_63\n      jumpi\n        /* \"#utility.yul\":2526:2544   */\n      tag_64\n      tag_30\n      jump\t// in\n    tag_64:\n        /* \"#utility.yul\":2406:2546   */\n    tag_63:\n        /* \"#utility.yul\":2044:2553   */\n      pop\n        /* \"#utility.yul\":1997:2553   */\n      swap3\n      swap2\n      pop\n      pop\n      jump\t// out\n        /* \"#utility.yul\":2559:2934   */\n    tag_18:\n        /* \"#utility.yul\":2598:2601   */\n      0x00\n        /* \"#utility.yul\":2617:2636   */\n      tag_66\n        /* \"#utility.yul\":2634:2635   */\n      dup3\n        /* \"#utility.yul\":2617:2636   */\n      tag_24\n      jump\t// in\n    tag_66:\n        /* \"#utility.yul\":2612:2636   */\n      swap2\n      pop\n        /* \"#utility.yul\":2650:2669   */\n      tag_67\n        /* \"#utility.yul\":2667:2668   */\n      dup4\n        /* \"#utility.yul\":2650:2669   */\n      tag_24\n      jump\t// in\n    tag_67:\n        /* \"#utility.yul\":2645:2669   */\n      swap3\n      pop\n        /* \"#utility.yul\":2692:2693   */\n      dup3\n        /* \"#utility.yul\":2689:2690   */\n      dup3\n        /* \"#utility.yul\":2685:2694   */\n      add\n        /* \"#utility.yul\":2678:2694   */\n      swap1\n      pop\n        /* \"#utility.yul\":2890:2891   */\n      dup3\n        /* \"#utility.yul\":2885:2888   */\n      dup2\n        /* \"#utility.yul\":2881:2892   */\n      slt\n        /* \"#utility.yul\":2874:2893   */\n      iszero\n        /* \"#utility.yul\":2870:2871   */\n      0x00\n        /* \"#utility.yul\":2867:2868   */\n      dup4\n        /* \"#utility.yul\":2863:2872   */\n      slt\n        /* \"#utility.yul\":2859:2894   */\n      and\n        /* \"#utility.yul\":2842:2843   */\n      dup4\n        /* \"#utility.yul\":2837:2840   */\n      dup3\n        /* \"#utility.yul\":2833:2844   */\n      slt\n        /* \"#utility.yul\":2828:2829   */\n      0x00\n        /* \"#utility.yul\":2825:2826   */\n      dup5\n        /* \"#utility.yul\":2821:2830   */\n      slt\n        /* \"#utility.yul\":2814:2831   */\n      iszero\n        /* \"#utility.yul\":2810:2845   */\n      and\n        /* \"#utility.yul\":2794:2904   */\n      or\n        /* \"#utility.yul\":2791:2927   */\n      iszero\n      tag_68\n      jumpi\n        /* \"#utility.yul\":2907:2925   */\n      tag_69\n      tag_30\n      jump\t// in\n    tag_69:\n        /* \"#utility.yul\":2791:2927   */\n    tag_68:\n        /* \"#utility.yul\":2559:2934   */\n      swap3\n      swap2\n      pop\n      pop\n      jump\t// out\n        /* \"#utility.yul\":2940:3325   */\n    tag_20:\n        /* \"#utility.yul\":2979:2980   */\n      0x00\n        /* \"#utility.yul\":2996:3015   */\n      tag_71\n        /* \"#utility.yul\":3013:3014   */\n      dup3\n        /* \"#utility.yul\":2996:3015   */\n      tag_24\n      jump\t// in\n    tag_71:\n        /* \"#utility.yul\":2991:3015   */\n      swap2\n      pop\n        /* \"#utility.yul\":3029:3048   */\n      tag_72\n        /* \"#utility.yul\":3046:3047   */\n      dup4\n        /* \"#utility.yul\":3029:3048   */\n      tag_24\n      jump\t// in\n    tag_72:\n        /* \"#utility.yul\":3024:3048   */\n      swap3\n      pop\n        /* \"#utility.yul\":3067:3068   */\n      dup3\n        /* \"#utility.yul\":3057:3092   */\n      tag_73\n      jumpi\n        /* \"#utility.yul\":3072:3090   */\n      tag_74\n      tag_29\n      jump\t// in\n    tag_74:\n        /* \"#utility.yul\":3057:3092   */\n    tag_73:\n        /* \"#utility.yul\":3258:3259   */\n      0x01\n        /* \"#utility.yul\":3255:3256   */\n      0x00\n        /* \"#utility.yul\":3251:3260   */\n      sub\n        /* \"#utility.yul\":3248:3249   */\n      dup4\n        /* \"#utility.yul\":3245:3261   */\n      eq\n        /* \"#utility.yul\":3164:3230   */\n      0x8000000000000000000000000000000000000000000000000000000000000000\n        /* \"#utility.yul\":3161:3162   */\n      dup4\n        /* \"#utility.yul\":3158:3231   */\n      eq\n        /* \"#utility.yul\":3141:3271   */\n      and\n        /* \"#utility.yul\":3138:3294   */\n      iszero\n      tag_75\n      jumpi\n        /* \"#utility.yul\":3274:3292   */\n      tag_76\n      tag_30\n      jump\t// in\n    tag_76:\n        /* \"#utility.yul\":3138:3294   */\n    tag_75:\n        /* \"#utility.yul\":3317:3318   */\n      dup3\n        /* \"#utility.yul\":3314:3315   */\n      dup3\n        /* \"#utility.yul\":3309:3319   */\n      sdiv\n        /* \"#utility.yul\":3304:3319   */\n      swap1\n      pop\n        /* \"#utility.yul\":2940:3325   */\n      swap3\n      swap2\n      pop\n      pop\n      jump\t// out\n\n    auxdata: 0xa2646970667358221220b4a7734c1c981f3373c1ec6b5eb324357eea9431163b80570b65a8684a16b45664736f6c634300081a0033\n}\n",
				"bytecode": {
					"linkReferences": {},
					"object": "6080604052348015600e575f80fd5b5061032a8061001c5f395ff3fe608060405234801561000f575f80fd5b5060043610610029575f3560e01c8063b6654c9c1461002d575b5f80fd5b610047600480360381019061004291906100ed565b61005d565b6040516100549190610132565b60405180910390f35b5f808290505f5b5f84146100aa575f600a856100799190610178565b905080600a8361008991906101d5565b610093919061024b565b9150600a856100a2919061028c565b945050610064565b80821492505050919050565b5f80fd5b5f819050919050565b6100cc816100ba565b81146100d6575f80fd5b50565b5f813590506100e7816100c3565b92915050565b5f60208284031215610102576101016100b6565b5b5f61010f848285016100d9565b91505092915050565b5f8115159050919050565b61012c81610118565b82525050565b5f6020820190506101455f830184610123565b92915050565b7f4e487b71000000000000000000000000000000000000000000000000000000005f52601260045260245ffd5b5f610182826100ba565b915061018d836100ba565b92508261019d5761019c61014b565b5b828207905092915050565b7f4e487b71000000000000000000000000000000000000000000000000000000005f52601160045260245ffd5b5f6101df826100ba565b91506101ea836100ba565b92508282026101f8816100ba565b91507f800000000000000000000000000000000000000000000000000000000000000084145f8412161561022f5761022e6101a8565b5b8282058414831517610244576102436101a8565b5b5092915050565b5f610255826100ba565b9150610260836100ba565b92508282019050828112155f8312168382125f841215161715610286576102856101a8565b5b92915050565b5f610296826100ba565b91506102a1836100ba565b9250826102b1576102b061014b565b5b60015f0383147f8000000000000000000000000000000000000000000000000000000000000000831416156102e9576102e86101a8565b5b82820590509291505056fea2646970667358221220b4a7734c1c981f3373c1ec6b5eb324357eea9431163b80570b65a8684a16b45664736f6c634300081a0033",
					"opcodes": "PUSH1 0x80 PUSH1 0x40 MSTORE CALLVALUE DUP1 ISZERO PUSH1 0xE JUMPI PUSH0 DUP1 REVERT JUMPDEST POP PUSH2 0x32A DUP1 PUSH2 0x1C PUSH0 CODECOPY PUSH0 RETURN INVALID PUSH1 0x80 PUSH1 0x40 MSTORE CALLVALUE DUP1 ISZERO PUSH2 0xF JUMPI PUSH0 DUP1 REVERT JUMPDEST POP PUSH1 0x4 CALLDATASIZE LT PUSH2 0x29 JUMPI PUSH0 CALLDATALOAD PUSH1 0xE0 SHR DUP1 PUSH4 0xB6654C9C EQ PUSH2 0x2D JUMPI JUMPDEST PUSH0 DUP1 REVERT JUMPDEST PUSH2 0x47 PUSH1 0x4 DUP1 CALLDATASIZE SUB DUP2 ADD SWAP1 PUSH2 0x42 SWAP2 SWAP1 PUSH2 0xED JUMP JUMPDEST PUSH2 0x5D JUMP JUMPDEST PUSH1 0x40 MLOAD PUSH2 0x54 SWAP2 SWAP1 PUSH2 0x132 JUMP JUMPDEST PUSH1 0x40 MLOAD DUP1 SWAP2 SUB SWAP1 RETURN JUMPDEST PUSH0 DUP1 DUP3 SWAP1 POP PUSH0 JUMPDEST PUSH0 DUP5 EQ PUSH2 0xAA JUMPI PUSH0 PUSH1 0xA DUP6 PUSH2 0x79 SWAP2 SWAP1 PUSH2 0x178 JUMP JUMPDEST SWAP1 POP DUP1 PUSH1 0xA DUP4 PUSH2 0x89 SWAP2 SWAP1 PUSH2 0x1D5 JUMP JUMPDEST PUSH2 0x93 SWAP2 SWAP1 PUSH2 0x24B JUMP JUMPDEST SWAP2 POP PUSH1 0xA DUP6 PUSH2 0xA2 SWAP2 SWAP1 PUSH2 0x28C JUMP JUMPDEST SWAP5 POP POP PUSH2 0x64 JUMP JUMPDEST DUP1 DUP3 EQ SWAP3 POP POP POP SWAP2 SWAP1 POP JUMP JUMPDEST PUSH0 DUP1 REVERT JUMPDEST PUSH0 DUP2 SWAP1 POP SWAP2 SWAP1 POP JUMP JUMPDEST PUSH2 0xCC DUP2 PUSH2 0xBA JUMP JUMPDEST DUP2 EQ PUSH2 0xD6 JUMPI PUSH0 DUP1 REVERT JUMPDEST POP JUMP JUMPDEST PUSH0 DUP2 CALLDATALOAD SWAP1 POP PUSH2 0xE7 DUP2 PUSH2 0xC3 JUMP JUMPDEST SWAP3 SWAP2 POP POP JUMP JUMPDEST PUSH0 PUSH1 0x20 DUP3 DUP5 SUB SLT ISZERO PUSH2 0x102 JUMPI PUSH2 0x101 PUSH2 0xB6 JUMP JUMPDEST JUMPDEST PUSH0 PUSH2 0x10F DUP5 DUP3 DUP6 ADD PUSH2 0xD9 JUMP JUMPDEST SWAP2 POP POP SWAP3 SWAP2 POP POP JUMP JUMPDEST PUSH0 DUP2 ISZERO ISZERO SWAP1 POP SWAP2 SWAP1 POP JUMP JUMPDEST PUSH2 0x12C DUP2 PUSH2 0x118 JUMP JUMPDEST DUP3 MSTORE POP POP JUMP JUMPDEST PUSH0 PUSH1 0x20 DUP3 ADD SWAP1 POP PUSH2 0x145 PUSH0 DUP4 ADD DUP5 PUSH2 0x123 JUMP JUMPDEST SWAP3 SWAP2 POP POP JUMP JUMPDEST PUSH32 0x4E487B7100000000000000000000000000000000000000000000000000000000 PUSH0 MSTORE PUSH1 0x12 PUSH1 0x4 MSTORE PUSH1 0x24 PUSH0 REVERT JUMPDEST PUSH0 PUSH2 0x182 DUP3 PUSH2 0xBA JUMP JUMPDEST SWAP2 POP PUSH2 0x18D DUP4 PUSH2 0xBA JUMP JUMPDEST SWAP3 POP DUP3 PUSH2 0x19D JUMPI PUSH2 0x19C PUSH2 0x14B JUMP JUMPDEST JUMPDEST DUP3 DUP3 SMOD SWAP1 POP SWAP3 SWAP2 POP POP JUMP JUMPDEST PUSH32 0x4E487B7100000000000000000000000000000000000000000000000000000000 PUSH0 MSTORE PUSH1 0x11 PUSH1 0x4 MSTORE PUSH1 0x24 PUSH0 REVERT JUMPDEST PUSH0 PUSH2 0x1DF DUP3 PUSH2 0xBA JUMP JUMPDEST SWAP2 POP PUSH2 0x1EA DUP4 PUSH2 0xBA JUMP JUMPDEST SWAP3 POP DUP3 DUP3 MUL PUSH2 0x1F8 DUP2 PUSH2 0xBA JUMP JUMPDEST SWAP2 POP PUSH32 0x8000000000000000000000000000000000000000000000000000000000000000 DUP5 EQ PUSH0 DUP5 SLT AND ISZERO PUSH2 0x22F JUMPI PUSH2 0x22E PUSH2 0x1A8 JUMP JUMPDEST JUMPDEST DUP3 DUP3 SDIV DUP5 EQ DUP4 ISZERO OR PUSH2 0x244 JUMPI PUSH2 0x243 PUSH2 0x1A8 JUMP JUMPDEST JUMPDEST POP SWAP3 SWAP2 POP POP JUMP JUMPDEST PUSH0 PUSH2 0x255 DUP3 PUSH2 0xBA JUMP JUMPDEST SWAP2 POP PUSH2 0x260 DUP4 PUSH2 0xBA JUMP JUMPDEST SWAP3 POP DUP3 DUP3 ADD SWAP1 POP DUP3 DUP2 SLT ISZERO PUSH0 DUP4 SLT AND DUP4 DUP3 SLT PUSH0 DUP5 SLT ISZERO AND OR ISZERO PUSH2 0x286 JUMPI PUSH2 0x285 PUSH2 0x1A8 JUMP JUMPDEST JUMPDEST SWAP3 SWAP2 POP POP JUMP JUMPDEST PUSH0 PUSH2 0x296 DUP3 PUSH2 0xBA JUMP JUMPDEST SWAP2 POP PUSH2 0x2A1 DUP4 PUSH2 0xBA JUMP JUMPDEST SWAP3 POP DUP3 PUSH2 0x2B1 JUMPI PUSH2 0x2B0 PUSH2 0x14B JUMP JUMPDEST JUMPDEST PUSH1 0x1 PUSH0 SUB DUP4 EQ PUSH32 0x8000000000000000000000000000000000000000000000000000000000000000 DUP4 EQ AND ISZERO PUSH2 0x2E9 JUMPI PUSH2 0x2E8 PUSH2 0x1A8 JUMP JUMPDEST JUMPDEST DUP3 DUP3 SDIV SWAP1 POP SWAP3 SWAP2 POP POP JUMP INVALID LOG2 PUSH5 0x6970667358 0x22 SLT KECCAK256 0xB4 0xA7 PUSH20 0x4C1C981F3373C1EC6B5EB324357EEA9431163B80 JUMPI SIGNEXTEND PUSH6 0xA8684A16B456 PUSH5 0x736F6C6343 STOP ADDMOD BYTE STOP CALLER "
				},
				"gasEstimates": {
					"creation": {
						"codeDepositCost": "162000",
						"executionCost": "206",
						"totalCost": "162206"
					},
					"external": {
						"isPalindrome(int256)": "infinite"
					}
				},
				"methodIdentifiers": {
					"isPalindrome(int256)": "b6654c9c"
				}
			},
			"storageLayout": {
				"storage": [],
				"types": null
			},
			"userdoc": {
				"kind": "user",
				"methods": {},
				"version": 1
			}
		}
	}
}