{
	"code5_3.sol": {
		"task1": {
			"abi": [
				{
					"inputs": [
						{
							"internalType": "int128",
							"name": "number",
							"type": "int128"
						}
					],
					"name": "division",
					"outputs": [
						{
							"internalType": "int128",
							"name": "",
							"type": "int128"
						}
					],
					"stateMutability": "view",
					"type": "function"
				},
				{
					"inputs": [
						{
							"internalType": "int128",
							"name": "number",
							"type": "int128"
						}
					],
					"name": "multiplication",
					"outputs": [
						{
							"internalType": "int128",
							"name": "",
							"type": "int128"
						}
					],
					"stateMutability": "view",
					"type": "function"
				},
				{
					"inputs": [
						{
							"internalType": "int128",
							"name": "number",
							"type": "int128"
						}
					],
					"name": "remainder",
					"outputs": [
						{
							"internalType": "int128",
							"name": "",
							"type": "int128"
						}
					],
					"stateMutability": "view",
					"type": "function"
				},
				{
					"inputs": [
						{
							"internalType": "int128",
							"name": "number",
							"type": "int128"
						}
					],
					"name": "saveValue",
					"outputs": [],
					"stateMutability": "nonpayable",
					"type": "function"
				},
				{
					"inputs": [
						{
							"internalType": "int128",
							"name": "number",
							"type": "int128"
						}
					],
					"name": "substraction",
					"outputs": [
						{
							"internalType": "int128",
							"name": "",
							"type": "int128"
						}
					],
					"stateMutability": "view",
					"type": "function"
				},
				{
					"inputs": [
						{
							"internalType": "int128",
							"name": "number",
							"type": "int128"
						}
					],
					"name": "summa",
					"outputs": [
						{
							"internalType": "int128",
							"name": "",
							"type": "int128"
						}
					],
					"stateMutability": "view",
					"type": "function"
				}
			],
			"devdoc": {
				"kind": "dev",
				"methods": {},
				"version": 1
			},
			"evm": {
				"assembly": "    /* \"code5_3.sol\":26:659  contract task1 {... */\n  mstore(0x40, 0x80)\n  callvalue\n  dup1\n  iszero\n  tag_1\n  jumpi\n  0x00\n  dup1\n  revert\ntag_1:\n  pop\n  dataSize(sub_0)\n  dup1\n  dataOffset(sub_0)\n  0x00\n  codecopy\n  0x00\n  return\nstop\n\nsub_0: assembly {\n        /* \"code5_3.sol\":26:659  contract task1 {... */\n      mstore(0x40, 0x80)\n      callvalue\n      dup1\n      iszero\n      tag_1\n      jumpi\n      0x00\n      dup1\n      revert\n    tag_1:\n      pop\n      jumpi(tag_2, lt(calldatasize, 0x04))\n      shr(0xe0, calldataload(0x00))\n      dup1\n      0x32dfa731\n      eq\n      tag_3\n      jumpi\n      dup1\n      0x62f63612\n      eq\n      tag_4\n      jumpi\n      dup1\n      0x64890207\n      eq\n      tag_5\n      jumpi\n      dup1\n      0x9360894b\n      eq\n      tag_6\n      jumpi\n      dup1\n      0xb2f1669d\n      eq\n      tag_7\n      jumpi\n      dup1\n      0xe06226e5\n      eq\n      tag_8\n      jumpi\n    tag_2:\n      0x00\n      dup1\n      revert\n        /* \"code5_3.sol\":347:451  function multiplication  (int128 number) public view returns (int128) {... */\n    tag_3:\n      tag_9\n      0x04\n      dup1\n      calldatasize\n      sub\n      dup2\n      add\n      swap1\n      tag_10\n      swap2\n      swap1\n      tag_11\n      jump\t// in\n    tag_10:\n      tag_12\n      jump\t// in\n    tag_9:\n      mload(0x40)\n      tag_13\n      swap2\n      swap1\n      tag_14\n      jump\t// in\n    tag_13:\n      mload(0x40)\n      dup1\n      swap2\n      sub\n      swap1\n      return\n        /* \"code5_3.sol\":557:656  function remainder  (int128 number) public view returns (int128) {... */\n    tag_4:\n      tag_15\n      0x04\n      dup1\n      calldatasize\n      sub\n      dup2\n      add\n      swap1\n      tag_16\n      swap2\n      swap1\n      tag_11\n      jump\t// in\n    tag_16:\n      tag_17\n      jump\t// in\n    tag_15:\n      mload(0x40)\n      tag_18\n      swap2\n      swap1\n      tag_14\n      jump\t// in\n    tag_18:\n      mload(0x40)\n      dup1\n      swap2\n      sub\n      swap1\n      return\n        /* \"code5_3.sol\":147:239  function summa (int128 number) public view returns (int128) {... */\n    tag_5:\n      tag_19\n      0x04\n      dup1\n      calldatasize\n      sub\n      dup2\n      add\n      swap1\n      tag_20\n      swap2\n      swap1\n      tag_11\n      jump\t// in\n    tag_20:\n      tag_21\n      jump\t// in\n    tag_19:\n      mload(0x40)\n      tag_22\n      swap2\n      swap1\n      tag_14\n      jump\t// in\n    tag_22:\n      mload(0x40)\n      dup1\n      swap2\n      sub\n      swap1\n      return\n        /* \"code5_3.sol\":67:143  function saveValue (int128  number) public {... */\n    tag_6:\n      tag_23\n      0x04\n      dup1\n      calldatasize\n      sub\n      dup2\n      add\n      swap1\n      tag_24\n      swap2\n      swap1\n      tag_11\n      jump\t// in\n    tag_24:\n      tag_25\n      jump\t// in\n    tag_23:\n      stop\n        /* \"code5_3.sol\":455:553  function division  (int128 number) public view returns (int128) {... */\n    tag_7:\n      tag_26\n      0x04\n      dup1\n      calldatasize\n      sub\n      dup2\n      add\n      swap1\n      tag_27\n      swap2\n      swap1\n      tag_11\n      jump\t// in\n    tag_27:\n      tag_28\n      jump\t// in\n    tag_26:\n      mload(0x40)\n      tag_29\n      swap2\n      swap1\n      tag_14\n      jump\t// in\n    tag_29:\n      mload(0x40)\n      dup1\n      swap2\n      sub\n      swap1\n      return\n        /* \"code5_3.sol\":244:345  function substraction (int128 number) public view returns (int128) {... */\n    tag_8:\n      tag_30\n      0x04\n      dup1\n      calldatasize\n      sub\n      dup2\n      add\n      swap1\n      tag_31\n      swap2\n      swap1\n      tag_11\n      jump\t// in\n    tag_31:\n      tag_32\n      jump\t// in\n    tag_30:\n      mload(0x40)\n      tag_33\n      swap2\n      swap1\n      tag_14\n      jump\t// in\n    tag_33:\n      mload(0x40)\n      dup1\n      swap2\n      sub\n      swap1\n      return\n        /* \"code5_3.sol\":347:451  function multiplication  (int128 number) public view returns (int128) {... */\n    tag_12:\n        /* \"code5_3.sol\":409:415  int128 */\n      0x00\n        /* \"code5_3.sol\":437:443  number */\n      dup2\n        /* \"code5_3.sol\":431:436  value */\n      0x00\n      dup1\n      sload\n      swap1\n      0x0100\n      exp\n      swap1\n      div\n      0x0f\n      signextend\n        /* \"code5_3.sol\":431:443  value*number */\n      tag_35\n      swap2\n      swap1\n      tag_36\n      jump\t// in\n    tag_35:\n        /* \"code5_3.sol\":424:443  return value*number */\n      swap1\n      pop\n        /* \"code5_3.sol\":347:451  function multiplication  (int128 number) public view returns (int128) {... */\n      swap2\n      swap1\n      pop\n      jump\t// out\n        /* \"code5_3.sol\":557:656  function remainder  (int128 number) public view returns (int128) {... */\n    tag_17:\n        /* \"code5_3.sol\":614:620  int128 */\n      0x00\n        /* \"code5_3.sol\":642:648  number */\n      dup2\n        /* \"code5_3.sol\":636:641  value */\n      0x00\n      dup1\n      sload\n      swap1\n      0x0100\n      exp\n      swap1\n      div\n      0x0f\n      signextend\n        /* \"code5_3.sol\":636:648  value%number */\n      tag_38\n      swap2\n      swap1\n      tag_39\n      jump\t// in\n    tag_38:\n        /* \"code5_3.sol\":629:648  return value%number */\n      swap1\n      pop\n        /* \"code5_3.sol\":557:656  function remainder  (int128 number) public view returns (int128) {... */\n      swap2\n      swap1\n      pop\n      jump\t// out\n        /* \"code5_3.sol\":147:239  function summa (int128 number) public view returns (int128) {... */\n    tag_21:\n        /* \"code5_3.sol\":199:205  int128 */\n      0x00\n        /* \"code5_3.sol\":227:233  number */\n      dup2\n        /* \"code5_3.sol\":221:226  value */\n      0x00\n      dup1\n      sload\n      swap1\n      0x0100\n      exp\n      swap1\n      div\n      0x0f\n      signextend\n        /* \"code5_3.sol\":221:233  value+number */\n      tag_41\n      swap2\n      swap1\n      tag_42\n      jump\t// in\n    tag_41:\n        /* \"code5_3.sol\":214:233  return value+number */\n      swap1\n      pop\n        /* \"code5_3.sol\":147:239  function summa (int128 number) public view returns (int128) {... */\n      swap2\n      swap1\n      pop\n      jump\t// out\n        /* \"code5_3.sol\":67:143  function saveValue (int128  number) public {... */\n    tag_25:\n        /* \"code5_3.sol\":129:135  number */\n      dup1\n        /* \"code5_3.sol\":121:126  value */\n      0x00\n      dup1\n        /* \"code5_3.sol\":121:135  value = number */\n      0x0100\n      exp\n      dup2\n      sload\n      dup2\n      0xffffffffffffffffffffffffffffffff\n      mul\n      not\n      and\n      swap1\n      dup4\n      0x0f\n      signextend\n      0xffffffffffffffffffffffffffffffff\n      and\n      mul\n      or\n      swap1\n      sstore\n      pop\n        /* \"code5_3.sol\":67:143  function saveValue (int128  number) public {... */\n      pop\n      jump\t// out\n        /* \"code5_3.sol\":455:553  function division  (int128 number) public view returns (int128) {... */\n    tag_28:\n        /* \"code5_3.sol\":511:517  int128 */\n      0x00\n        /* \"code5_3.sol\":539:545  number */\n      dup2\n        /* \"code5_3.sol\":533:538  value */\n      0x00\n      dup1\n      sload\n      swap1\n      0x0100\n      exp\n      swap1\n      div\n      0x0f\n      signextend\n        /* \"code5_3.sol\":533:545  value/number */\n      tag_45\n      swap2\n      swap1\n      tag_46\n      jump\t// in\n    tag_45:\n        /* \"code5_3.sol\":526:545  return value/number */\n      swap1\n      pop\n        /* \"code5_3.sol\":455:553  function division  (int128 number) public view returns (int128) {... */\n      swap2\n      swap1\n      pop\n      jump\t// out\n        /* \"code5_3.sol\":244:345  function substraction (int128 number) public view returns (int128) {... */\n    tag_32:\n        /* \"code5_3.sol\":303:309  int128 */\n      0x00\n        /* \"code5_3.sol\":331:337  number */\n      dup2\n        /* \"code5_3.sol\":325:330  value */\n      0x00\n      dup1\n      sload\n      swap1\n      0x0100\n      exp\n      swap1\n      div\n      0x0f\n      signextend\n        /* \"code5_3.sol\":325:337  value-number */\n      tag_48\n      swap2\n      swap1\n      tag_49\n      jump\t// in\n    tag_48:\n        /* \"code5_3.sol\":318:337  return value-number */\n      swap1\n      pop\n        /* \"code5_3.sol\":244:345  function substraction (int128 number) public view returns (int128) {... */\n      swap2\n      swap1\n      pop\n      jump\t// out\n        /* \"#utility.yul\":88:205   */\n    tag_51:\n        /* \"#utility.yul\":197:198   */\n      0x00\n        /* \"#utility.yul\":194:195   */\n      dup1\n        /* \"#utility.yul\":187:199   */\n      revert\n        /* \"#utility.yul\":334:426   */\n    tag_53:\n        /* \"#utility.yul\":370:377   */\n      0x00\n        /* \"#utility.yul\":414:419   */\n      dup2\n        /* \"#utility.yul\":410:412   */\n      0x0f\n        /* \"#utility.yul\":399:420   */\n      signextend\n        /* \"#utility.yul\":388:420   */\n      swap1\n      pop\n        /* \"#utility.yul\":334:426   */\n      swap2\n      swap1\n      pop\n      jump\t// out\n        /* \"#utility.yul\":432:552   */\n    tag_54:\n        /* \"#utility.yul\":504:527   */\n      tag_65\n        /* \"#utility.yul\":521:526   */\n      dup2\n        /* \"#utility.yul\":504:527   */\n      tag_53\n      jump\t// in\n    tag_65:\n        /* \"#utility.yul\":497:502   */\n      dup2\n        /* \"#utility.yul\":494:528   */\n      eq\n        /* \"#utility.yul\":484:546   */\n      tag_66\n      jumpi\n        /* \"#utility.yul\":542:543   */\n      0x00\n        /* \"#utility.yul\":539:540   */\n      dup1\n        /* \"#utility.yul\":532:544   */\n      revert\n        /* \"#utility.yul\":484:546   */\n    tag_66:\n        /* \"#utility.yul\":432:552   */\n      pop\n      jump\t// out\n        /* \"#utility.yul\":558:695   */\n    tag_55:\n        /* \"#utility.yul\":603:608   */\n      0x00\n        /* \"#utility.yul\":641:647   */\n      dup2\n        /* \"#utility.yul\":628:648   */\n      calldataload\n        /* \"#utility.yul\":619:648   */\n      swap1\n      pop\n        /* \"#utility.yul\":657:689   */\n      tag_68\n        /* \"#utility.yul\":683:688   */\n      dup2\n        /* \"#utility.yul\":657:689   */\n      tag_54\n      jump\t// in\n    tag_68:\n        /* \"#utility.yul\":558:695   */\n      swap3\n      swap2\n      pop\n      pop\n      jump\t// out\n        /* \"#utility.yul\":701:1028   */\n    tag_11:\n        /* \"#utility.yul\":759:765   */\n      0x00\n        /* \"#utility.yul\":808:810   */\n      0x20\n        /* \"#utility.yul\":796:805   */\n      dup3\n        /* \"#utility.yul\":787:794   */\n      dup5\n        /* \"#utility.yul\":783:806   */\n      sub\n        /* \"#utility.yul\":779:811   */\n      slt\n        /* \"#utility.yul\":776:895   */\n      iszero\n      tag_70\n      jumpi\n        /* \"#utility.yul\":814:893   */\n      tag_71\n      tag_51\n      jump\t// in\n    tag_71:\n        /* \"#utility.yul\":776:895   */\n    tag_70:\n        /* \"#utility.yul\":934:935   */\n      0x00\n        /* \"#utility.yul\":959:1011   */\n      tag_72\n        /* \"#utility.yul\":1003:1010   */\n      dup5\n        /* \"#utility.yul\":994:1000   */\n      dup3\n        /* \"#utility.yul\":983:992   */\n      dup6\n        /* \"#utility.yul\":979:1001   */\n      add\n        /* \"#utility.yul\":959:1011   */\n      tag_55\n      jump\t// in\n    tag_72:\n        /* \"#utility.yul\":949:1011   */\n      swap2\n      pop\n        /* \"#utility.yul\":905:1021   */\n      pop\n        /* \"#utility.yul\":701:1028   */\n      swap3\n      swap2\n      pop\n      pop\n      jump\t// out\n        /* \"#utility.yul\":1034:1149   */\n    tag_56:\n        /* \"#utility.yul\":1119:1142   */\n      tag_74\n        /* \"#utility.yul\":1136:1141   */\n      dup2\n        /* \"#utility.yul\":1119:1142   */\n      tag_53\n      jump\t// in\n    tag_74:\n        /* \"#utility.yul\":1114:1117   */\n      dup3\n        /* \"#utility.yul\":1107:1143   */\n      mstore\n        /* \"#utility.yul\":1034:1149   */\n      pop\n      pop\n      jump\t// out\n        /* \"#utility.yul\":1155:1373   */\n    tag_14:\n        /* \"#utility.yul\":1246:1250   */\n      0x00\n        /* \"#utility.yul\":1284:1286   */\n      0x20\n        /* \"#utility.yul\":1273:1282   */\n      dup3\n        /* \"#utility.yul\":1269:1287   */\n      add\n        /* \"#utility.yul\":1261:1287   */\n      swap1\n      pop\n        /* \"#utility.yul\":1297:1366   */\n      tag_76\n        /* \"#utility.yul\":1363:1364   */\n      0x00\n        /* \"#utility.yul\":1352:1361   */\n      dup4\n        /* \"#utility.yul\":1348:1365   */\n      add\n        /* \"#utility.yul\":1339:1345   */\n      dup5\n        /* \"#utility.yul\":1297:1366   */\n      tag_56\n      jump\t// in\n    tag_76:\n        /* \"#utility.yul\":1155:1373   */\n      swap3\n      swap2\n      pop\n      pop\n      jump\t// out\n        /* \"#utility.yul\":1379:1559   */\n    tag_57:\n        /* \"#utility.yul\":1427:1504   */\n      0x4e487b7100000000000000000000000000000000000000000000000000000000\n        /* \"#utility.yul\":1424:1425   */\n      0x00\n        /* \"#utility.yul\":1417:1505   */\n      mstore\n        /* \"#utility.yul\":1524:1528   */\n      0x11\n        /* \"#utility.yul\":1521:1522   */\n      0x04\n        /* \"#utility.yul\":1514:1529   */\n      mstore\n        /* \"#utility.yul\":1548:1552   */\n      0x24\n        /* \"#utility.yul\":1545:1546   */\n      0x00\n        /* \"#utility.yul\":1538:1553   */\n      revert\n        /* \"#utility.yul\":1565:1840   */\n    tag_36:\n        /* \"#utility.yul\":1604:1611   */\n      0x00\n        /* \"#utility.yul\":1627:1646   */\n      tag_79\n        /* \"#utility.yul\":1644:1645   */\n      dup3\n        /* \"#utility.yul\":1627:1646   */\n      tag_53\n      jump\t// in\n    tag_79:\n        /* \"#utility.yul\":1622:1646   */\n      swap2\n      pop\n        /* \"#utility.yul\":1660:1679   */\n      tag_80\n        /* \"#utility.yul\":1677:1678   */\n      dup4\n        /* \"#utility.yul\":1660:1679   */\n      tag_53\n      jump\t// in\n    tag_80:\n        /* \"#utility.yul\":1655:1679   */\n      swap3\n      pop\n        /* \"#utility.yul\":1714:1715   */\n      dup3\n        /* \"#utility.yul\":1711:1712   */\n      dup3\n        /* \"#utility.yul\":1707:1716   */\n      mul\n        /* \"#utility.yul\":1736:1765   */\n      tag_81\n        /* \"#utility.yul\":1753:1764   */\n      dup2\n        /* \"#utility.yul\":1736:1765   */\n      tag_53\n      jump\t// in\n    tag_81:\n        /* \"#utility.yul\":1725:1765   */\n      swap2\n      pop\n        /* \"#utility.yul\":1797:1808   */\n      dup1\n        /* \"#utility.yul\":1788:1795   */\n      dup3\n        /* \"#utility.yul\":1785:1809   */\n      eq\n        /* \"#utility.yul\":1775:1833   */\n      tag_82\n      jumpi\n        /* \"#utility.yul\":1813:1831   */\n      tag_83\n      tag_57\n      jump\t// in\n    tag_83:\n        /* \"#utility.yul\":1775:1833   */\n    tag_82:\n        /* \"#utility.yul\":1612:1840   */\n      pop\n        /* \"#utility.yul\":1565:1840   */\n      swap3\n      swap2\n      pop\n      pop\n      jump\t// out\n        /* \"#utility.yul\":1846:2026   */\n    tag_58:\n        /* \"#utility.yul\":1894:1971   */\n      0x4e487b7100000000000000000000000000000000000000000000000000000000\n        /* \"#utility.yul\":1891:1892   */\n      0x00\n        /* \"#utility.yul\":1884:1972   */\n      mstore\n        /* \"#utility.yul\":1991:1995   */\n      0x12\n        /* \"#utility.yul\":1988:1989   */\n      0x04\n        /* \"#utility.yul\":1981:1996   */\n      mstore\n        /* \"#utility.yul\":2015:2019   */\n      0x24\n        /* \"#utility.yul\":2012:2013   */\n      0x00\n        /* \"#utility.yul\":2005:2020   */\n      revert\n        /* \"#utility.yul\":2032:2206   */\n    tag_39:\n        /* \"#utility.yul\":2063:2064   */\n      0x00\n        /* \"#utility.yul\":2080:2099   */\n      tag_86\n        /* \"#utility.yul\":2097:2098   */\n      dup3\n        /* \"#utility.yul\":2080:2099   */\n      tag_53\n      jump\t// in\n    tag_86:\n        /* \"#utility.yul\":2075:2099   */\n      swap2\n      pop\n        /* \"#utility.yul\":2113:2132   */\n      tag_87\n        /* \"#utility.yul\":2130:2131   */\n      dup4\n        /* \"#utility.yul\":2113:2132   */\n      tag_53\n      jump\t// in\n    tag_87:\n        /* \"#utility.yul\":2108:2132   */\n      swap3\n      pop\n        /* \"#utility.yul\":2151:2152   */\n      dup3\n        /* \"#utility.yul\":2141:2176   */\n      tag_88\n      jumpi\n        /* \"#utility.yul\":2156:2174   */\n      tag_89\n      tag_58\n      jump\t// in\n    tag_89:\n        /* \"#utility.yul\":2141:2176   */\n    tag_88:\n        /* \"#utility.yul\":2198:2199   */\n      dup3\n        /* \"#utility.yul\":2195:2196   */\n      dup3\n        /* \"#utility.yul\":2190:2200   */\n      smod\n        /* \"#utility.yul\":2185:2200   */\n      swap1\n      pop\n        /* \"#utility.yul\":2032:2206   */\n      swap3\n      swap2\n      pop\n      pop\n      jump\t// out\n        /* \"#utility.yul\":2212:2550   */\n    tag_42:\n        /* \"#utility.yul\":2251:2254   */\n      0x00\n        /* \"#utility.yul\":2270:2289   */\n      tag_91\n        /* \"#utility.yul\":2287:2288   */\n      dup3\n        /* \"#utility.yul\":2270:2289   */\n      tag_53\n      jump\t// in\n    tag_91:\n        /* \"#utility.yul\":2265:2289   */\n      swap2\n      pop\n        /* \"#utility.yul\":2303:2322   */\n      tag_92\n        /* \"#utility.yul\":2320:2321   */\n      dup4\n        /* \"#utility.yul\":2303:2322   */\n      tag_53\n      jump\t// in\n    tag_92:\n        /* \"#utility.yul\":2298:2322   */\n      swap3\n      pop\n        /* \"#utility.yul\":2345:2346   */\n      dup3\n        /* \"#utility.yul\":2342:2343   */\n      dup3\n        /* \"#utility.yul\":2338:2347   */\n      add\n        /* \"#utility.yul\":2331:2347   */\n      swap1\n      pop\n        /* \"#utility.yul\":2443:2509   */\n      0xffffffffffffffffffffffffffffffff80000000000000000000000000000000\n        /* \"#utility.yul\":2438:2441   */\n      dup2\n        /* \"#utility.yul\":2434:2510   */\n      slt\n        /* \"#utility.yul\":2385:2419   */\n      0x7fffffffffffffffffffffffffffffff\n        /* \"#utility.yul\":2380:2383   */\n      dup3\n        /* \"#utility.yul\":2376:2420   */\n      sgt\n        /* \"#utility.yul\":2360:2520   */\n      or\n        /* \"#utility.yul\":2357:2543   */\n      iszero\n      tag_93\n      jumpi\n        /* \"#utility.yul\":2523:2541   */\n      tag_94\n      tag_57\n      jump\t// in\n    tag_94:\n        /* \"#utility.yul\":2357:2543   */\n    tag_93:\n        /* \"#utility.yul\":2212:2550   */\n      swap3\n      swap2\n      pop\n      pop\n      jump\t// out\n        /* \"#utility.yul\":2556:2941   */\n    tag_46:\n        /* \"#utility.yul\":2595:2596   */\n      0x00\n        /* \"#utility.yul\":2612:2631   */\n      tag_96\n        /* \"#utility.yul\":2629:2630   */\n      dup3\n        /* \"#utility.yul\":2612:2631   */\n      tag_53\n      jump\t// in\n    tag_96:\n        /* \"#utility.yul\":2607:2631   */\n      swap2\n      pop\n        /* \"#utility.yul\":2645:2664   */\n      tag_97\n        /* \"#utility.yul\":2662:2663   */\n      dup4\n        /* \"#utility.yul\":2645:2664   */\n      tag_53\n      jump\t// in\n    tag_97:\n        /* \"#utility.yul\":2640:2664   */\n      swap3\n      pop\n        /* \"#utility.yul\":2683:2684   */\n      dup3\n        /* \"#utility.yul\":2673:2708   */\n      tag_98\n      jumpi\n        /* \"#utility.yul\":2688:2706   */\n      tag_99\n      tag_58\n      jump\t// in\n    tag_99:\n        /* \"#utility.yul\":2673:2708   */\n    tag_98:\n        /* \"#utility.yul\":2874:2875   */\n      0x01\n        /* \"#utility.yul\":2871:2872   */\n      0x00\n        /* \"#utility.yul\":2867:2876   */\n      sub\n        /* \"#utility.yul\":2864:2865   */\n      dup4\n        /* \"#utility.yul\":2861:2877   */\n      eq\n        /* \"#utility.yul\":2780:2846   */\n      0xffffffffffffffffffffffffffffffff80000000000000000000000000000000\n        /* \"#utility.yul\":2777:2778   */\n      dup4\n        /* \"#utility.yul\":2774:2847   */\n      eq\n        /* \"#utility.yul\":2757:2887   */\n      and\n        /* \"#utility.yul\":2754:2910   */\n      iszero\n      tag_100\n      jumpi\n        /* \"#utility.yul\":2890:2908   */\n      tag_101\n      tag_57\n      jump\t// in\n    tag_101:\n        /* \"#utility.yul\":2754:2910   */\n    tag_100:\n        /* \"#utility.yul\":2933:2934   */\n      dup3\n        /* \"#utility.yul\":2930:2931   */\n      dup3\n        /* \"#utility.yul\":2925:2935   */\n      sdiv\n        /* \"#utility.yul\":2920:2935   */\n      swap1\n      pop\n        /* \"#utility.yul\":2556:2941   */\n      swap3\n      swap2\n      pop\n      pop\n      jump\t// out\n        /* \"#utility.yul\":2947:3289   */\n    tag_49:\n        /* \"#utility.yul\":2986:2990   */\n      0x00\n        /* \"#utility.yul\":3006:3025   */\n      tag_103\n        /* \"#utility.yul\":3023:3024   */\n      dup3\n        /* \"#utility.yul\":3006:3025   */\n      tag_53\n      jump\t// in\n    tag_103:\n        /* \"#utility.yul\":3001:3025   */\n      swap2\n      pop\n        /* \"#utility.yul\":3039:3058   */\n      tag_104\n        /* \"#utility.yul\":3056:3057   */\n      dup4\n        /* \"#utility.yul\":3039:3058   */\n      tag_53\n      jump\t// in\n    tag_104:\n        /* \"#utility.yul\":3034:3058   */\n      swap3\n      pop\n        /* \"#utility.yul\":3082:3083   */\n      dup3\n        /* \"#utility.yul\":3079:3080   */\n      dup3\n        /* \"#utility.yul\":3075:3084   */\n      sub\n        /* \"#utility.yul\":3067:3084   */\n      swap1\n      pop\n        /* \"#utility.yul\":3214:3248   */\n      0x7fffffffffffffffffffffffffffffff\n        /* \"#utility.yul\":3208:3212   */\n      dup2\n        /* \"#utility.yul\":3204:3249   */\n      sgt\n        /* \"#utility.yul\":3123:3189   */\n      0xffffffffffffffffffffffffffffffff80000000000000000000000000000000\n        /* \"#utility.yul\":3117:3121   */\n      dup3\n        /* \"#utility.yul\":3113:3190   */\n      slt\n        /* \"#utility.yul\":3097:3259   */\n      or\n        /* \"#utility.yul\":3094:3282   */\n      iszero\n      tag_105\n      jumpi\n        /* \"#utility.yul\":3262:3280   */\n      tag_106\n      tag_57\n      jump\t// in\n    tag_106:\n        /* \"#utility.yul\":3094:3282   */\n    tag_105:\n        /* \"#utility.yul\":2947:3289   */\n      swap3\n      swap2\n      pop\n      pop\n      jump\t// out\n\n    auxdata: 0xa2646970667358221220c9ad728f1879f8b2f7308698a360518ccff01af49038fd8b1b3dd9453e653e6764736f6c634300081a0033\n}\n",
				"bytecode": {
					"linkReferences": {},
					"object": "6080604052348015600e575f80fd5b5061050c8061001c5f395ff3fe608060405234801561000f575f80fd5b5060043610610060575f3560e01c806332dfa7311461006457806362f636121461009457806364890207146100c45780639360894b146100f4578063b2f1669d14610110578063e06226e514610140575b5f80fd5b61007e60048036038101906100799190610287565b610170565b60405161008b91906102c1565b60405180910390f35b6100ae60048036038101906100a99190610287565b610190565b6040516100bb91906102c1565b60405180910390f35b6100de60048036038101906100d99190610287565b6101b0565b6040516100eb91906102c1565b60405180910390f35b61010e60048036038101906101099190610287565b6101d0565b005b61012a60048036038101906101259190610287565b61020d565b60405161013791906102c1565b60405180910390f35b61015a60048036038101906101559190610287565b61022d565b60405161016791906102c1565b60405180910390f35b5f815f8054906101000a9004600f0b6101899190610307565b9050919050565b5f815f8054906101000a9004600f0b6101a99190610370565b9050919050565b5f815f8054906101000a9004600f0b6101c991906103a0565b9050919050565b805f806101000a8154816fffffffffffffffffffffffffffffffff0219169083600f0b6fffffffffffffffffffffffffffffffff16021790555050565b5f815f8054906101000a9004600f0b6102269190610407565b9050919050565b5f815f8054906101000a9004600f0b610246919061046f565b9050919050565b5f80fd5b5f81600f0b9050919050565b61026681610251565b8114610270575f80fd5b50565b5f813590506102818161025d565b92915050565b5f6020828403121561029c5761029b61024d565b5b5f6102a984828501610273565b91505092915050565b6102bb81610251565b82525050565b5f6020820190506102d45f8301846102b2565b92915050565b7f4e487b71000000000000000000000000000000000000000000000000000000005f52601160045260245ffd5b5f61031182610251565b915061031c83610251565b925082820261032a81610251565b915080821461033c5761033b6102da565b5b5092915050565b7f4e487b71000000000000000000000000000000000000000000000000000000005f52601260045260245ffd5b5f61037a82610251565b915061038583610251565b92508261039557610394610343565b5b828207905092915050565b5f6103aa82610251565b91506103b583610251565b925082820190507fffffffffffffffffffffffffffffffff8000000000000000000000000000000081126f7fffffffffffffffffffffffffffffff82131715610401576104006102da565b5b92915050565b5f61041182610251565b915061041c83610251565b92508261042c5761042b610343565b5b60015f0383147fffffffffffffffffffffffffffffffff8000000000000000000000000000000083141615610464576104636102da565b5b828205905092915050565b5f61047982610251565b915061048483610251565b925082820390506f7fffffffffffffffffffffffffffffff81137fffffffffffffffffffffffffffffffff80000000000000000000000000000000821217156104d0576104cf6102da565b5b9291505056fea2646970667358221220c9ad728f1879f8b2f7308698a360518ccff01af49038fd8b1b3dd9453e653e6764736f6c634300081a0033",
					"opcodes": "PUSH1 0x80 PUSH1 0x40 MSTORE CALLVALUE DUP1 ISZERO PUSH1 0xE JUMPI PUSH0 DUP1 REVERT JUMPDEST POP PUSH2 0x50C DUP1 PUSH2 0x1C PUSH0 CODECOPY PUSH0 RETURN INVALID PUSH1 0x80 PUSH1 0x40 MSTORE CALLVALUE DUP1 ISZERO PUSH2 0xF JUMPI PUSH0 DUP1 REVERT JUMPDEST POP PUSH1 0x4 CALLDATASIZE LT PUSH2 0x60 JUMPI PUSH0 CALLDATALOAD PUSH1 0xE0 SHR DUP1 PUSH4 0x32DFA731 EQ PUSH2 0x64 JUMPI DUP1 PUSH4 0x62F63612 EQ PUSH2 0x94 JUMPI DUP1 PUSH4 0x64890207 EQ PUSH2 0xC4 JUMPI DUP1 PUSH4 0x9360894B EQ PUSH2 0xF4 JUMPI DUP1 PUSH4 0xB2F1669D EQ PUSH2 0x110 JUMPI DUP1 PUSH4 0xE06226E5 EQ PUSH2 0x140 JUMPI JUMPDEST PUSH0 DUP1 REVERT JUMPDEST PUSH2 0x7E PUSH1 0x4 DUP1 CALLDATASIZE SUB DUP2 ADD SWAP1 PUSH2 0x79 SWAP2 SWAP1 PUSH2 0x287 JUMP JUMPDEST PUSH2 0x170 JUMP JUMPDEST PUSH1 0x40 MLOAD PUSH2 0x8B SWAP2 SWAP1 PUSH2 0x2C1 JUMP JUMPDEST PUSH1 0x40 MLOAD DUP1 SWAP2 SUB SWAP1 RETURN JUMPDEST PUSH2 0xAE PUSH1 0x4 DUP1 CALLDATASIZE SUB DUP2 ADD SWAP1 PUSH2 0xA9 SWAP2 SWAP1 PUSH2 0x287 JUMP JUMPDEST PUSH2 0x190 JUMP JUMPDEST PUSH1 0x40 MLOAD PUSH2 0xBB SWAP2 SWAP1 PUSH2 0x2C1 JUMP JUMPDEST PUSH1 0x40 MLOAD DUP1 SWAP2 SUB SWAP1 RETURN JUMPDEST PUSH2 0xDE PUSH1 0x4 DUP1 CALLDATASIZE SUB DUP2 ADD SWAP1 PUSH2 0xD9 SWAP2 SWAP1 PUSH2 0x287 JUMP JUMPDEST PUSH2 0x1B0 JUMP JUMPDEST PUSH1 0x40 MLOAD PUSH2 0xEB SWAP2 SWAP1 PUSH2 0x2C1 JUMP JUMPDEST PUSH1 0x40 MLOAD DUP1 SWAP2 SUB SWAP1 RETURN JUMPDEST PUSH2 0x10E PUSH1 0x4 DUP1 CALLDATASIZE SUB DUP2 ADD SWAP1 PUSH2 0x109 SWAP2 SWAP1 PUSH2 0x287 JUMP JUMPDEST PUSH2 0x1D0 JUMP JUMPDEST STOP JUMPDEST PUSH2 0x12A PUSH1 0x4 DUP1 CALLDATASIZE SUB DUP2 ADD SWAP1 PUSH2 0x125 SWAP2 SWAP1 PUSH2 0x287 JUMP JUMPDEST PUSH2 0x20D JUMP JUMPDEST PUSH1 0x40 MLOAD PUSH2 0x137 SWAP2 SWAP1 PUSH2 0x2C1 JUMP JUMPDEST PUSH1 0x40 MLOAD DUP1 SWAP2 SUB SWAP1 RETURN JUMPDEST PUSH2 0x15A PUSH1 0x4 DUP1 CALLDATASIZE SUB DUP2 ADD SWAP1 PUSH2 0x155 SWAP2 SWAP1 PUSH2 0x287 JUMP JUMPDEST PUSH2 0x22D JUMP JUMPDEST PUSH1 0x40 MLOAD PUSH2 0x167 SWAP2 SWAP1 PUSH2 0x2C1 JUMP JUMPDEST PUSH1 0x40 MLOAD DUP1 SWAP2 SUB SWAP1 RETURN JUMPDEST PUSH0 DUP2 PUSH0 DUP1 SLOAD SWAP1 PUSH2 0x100 EXP SWAP1 DIV PUSH1 0xF SIGNEXTEND PUSH2 0x189 SWAP2 SWAP1 PUSH2 0x307 JUMP JUMPDEST SWAP1 POP SWAP2 SWAP1 POP JUMP JUMPDEST PUSH0 DUP2 PUSH0 DUP1 SLOAD SWAP1 PUSH2 0x100 EXP SWAP1 DIV PUSH1 0xF SIGNEXTEND PUSH2 0x1A9 SWAP2 SWAP1 PUSH2 0x370 JUMP JUMPDEST SWAP1 POP SWAP2 SWAP1 POP JUMP JUMPDEST PUSH0 DUP2 PUSH0 DUP1 SLOAD SWAP1 PUSH2 0x100 EXP SWAP1 DIV PUSH1 0xF SIGNEXTEND PUSH2 0x1C9 SWAP2 SWAP1 PUSH2 0x3A0 JUMP JUMPDEST SWAP1 POP SWAP2 SWAP1 POP JUMP JUMPDEST DUP1 PUSH0 DUP1 PUSH2 0x100 EXP DUP2 SLOAD DUP2 PUSH16 0xFFFFFFFFFFFFFFFFFFFFFFFFFFFFFFFF MUL NOT AND SWAP1 DUP4 PUSH1 0xF SIGNEXTEND PUSH16 0xFFFFFFFFFFFFFFFFFFFFFFFFFFFFFFFF AND MUL OR SWAP1 SSTORE POP POP JUMP JUMPDEST PUSH0 DUP2 PUSH0 DUP1 SLOAD SWAP1 PUSH2 0x100 EXP SWAP1 DIV PUSH1 0xF SIGNEXTEND PUSH2 0x226 SWAP2 SWAP1 PUSH2 0x407 JUMP JUMPDEST SWAP1 POP SWAP2 SWAP1 POP JUMP JUMPDEST PUSH0 DUP2 PUSH0 DUP1 SLOAD SWAP1 PUSH2 0x100 EXP SWAP1 DIV PUSH1 0xF SIGNEXTEND PUSH2 0x246 SWAP2 SWAP1 PUSH2 0x46F JUMP JUMPDEST SWAP1 POP SWAP2 SWAP1 POP JUMP JUMPDEST PUSH0 DUP1 REVERT JUMPDEST PUSH0 DUP2 PUSH1 0xF SIGNEXTEND SWAP1 POP SWAP2 SWAP1 POP JUMP JUMPDEST PUSH2 0x266 DUP2 PUSH2 0x251 JUMP JUMPDEST DUP2 EQ PUSH2 0x270 JUMPI PUSH0 DUP1 REVERT JUMPDEST POP JUMP JUMPDEST PUSH0 DUP2 CALLDATALOAD SWAP1 POP PUSH2 0x281 DUP2 PUSH2 0x25D JUMP JUMPDEST SWAP3 SWAP2 POP POP JUMP JUMPDEST PUSH0 PUSH1 0x20 DUP3 DUP5 SUB SLT ISZERO PUSH2 0x29C JUMPI PUSH2 0x29B PUSH2 0x24D JUMP JUMPDEST JUMPDEST PUSH0 PUSH2 0x2A9 DUP5 DUP3 DUP6 ADD PUSH2 0x273 JUMP JUMPDEST SWAP2 POP POP SWAP3 SWAP2 POP POP JUMP JUMPDEST PUSH2 0x2BB DUP2 PUSH2 0x251 JUMP JUMPDEST DUP3 MSTORE POP POP JUMP JUMPDEST PUSH0 PUSH1 0x20 DUP3 ADD SWAP1 POP PUSH2 0x2D4 PUSH0 DUP4 ADD DUP5 PUSH2 0x2B2 JUMP JUMPDEST SWAP3 SWAP2 POP POP JUMP JUMPDEST PUSH32 0x4E487B7100000000000000000000000000000000000000000000000000000000 PUSH0 MSTORE PUSH1 0x11 PUSH1 0x4 MSTORE PUSH1 0x24 PUSH0 REVERT JUMPDEST PUSH0 PUSH2 0x311 DUP3 PUSH2 0x251 JUMP JUMPDEST SWAP2 POP PUSH2 0x31C DUP4 PUSH2 0x251 JUMP JUMPDEST SWAP3 POP DUP3 DUP3 MUL PUSH2 0x32A DUP2 PUSH2 0x251 JUMP JUMPDEST SWAP2 POP DUP1 DUP3 EQ PUSH2 0x33C JUMPI PUSH2 0x33B PUSH2 0x2DA JUMP JUMPDEST JUMPDEST POP SWAP3 SWAP2 POP POP JUMP JUMPDEST PUSH32 0x4E487B7100000000000000000000000000000000000000000000000000000000 PUSH0 MSTORE PUSH1 0x12 PUSH1 0x4 MSTORE PUSH1 0x24 PUSH0 REVERT JUMPDEST PUSH0 PUSH2 0x37A DUP3 PUSH2 0x251 JUMP JUMPDEST SWAP2 POP PUSH2 0x385 DUP4 PUSH2 0x251 JUMP JUMPDEST SWAP3 POP DUP3 PUSH2 0x395 JUMPI PUSH2 0x394 PUSH2 0x343 JUMP JUMPDEST JUMPDEST DUP3 DUP3 SMOD SWAP1 POP SWAP3 SWAP2 POP POP JUMP JUMPDEST PUSH0 PUSH2 0x3AA DUP3 PUSH2 0x251 JUMP JUMPDEST SWAP2 POP PUSH2 0x3B5 DUP4 PUSH2 0x251 JUMP JUMPDEST SWAP3 POP DUP3 DUP3 ADD SWAP1 POP PUSH32 0xFFFFFFFFFFFFFFFFFFFFFFFFFFFFFFFF80000000000000000000000000000000 DUP2 SLT PUSH16 0x7FFFFFFFFFFFFFFFFFFFFFFFFFFFFFFF DUP3 SGT OR ISZERO PUSH2 0x401 JUMPI PUSH2 0x400 PUSH2 0x2DA JUMP JUMPDEST JUMPDEST SWAP3 SWAP2 POP POP JUMP JUMPDEST PUSH0 PUSH2 0x411 DUP3 PUSH2 0x251 JUMP JUMPDEST SWAP2 POP PUSH2 0x41C DUP4 PUSH2 0x251 JUMP JUMPDEST SWAP3 POP DUP3 PUSH2 0x42C JUMPI PUSH2 0x42B PUSH2 0x343 JUMP JUMPDEST JUMPDEST PUSH1 0x1 PUSH0 SUB DUP4 EQ PUSH32 0xFFFFFFFFFFFFFFFFFFFFFFFFFFFFFFFF80000000000000000000000000000000 DUP4 EQ AND ISZERO PUSH2 0x464 JUMPI PUSH2 0x463 PUSH2 0x2DA JUMP JUMPDEST JUMPDEST DUP3 DUP3 SDIV SWAP1 POP SWAP3 SWAP2 POP POP JUMP JUMPDEST PUSH0 PUSH2 0x479 DUP3 PUSH2 0x251 JUMP JUMPDEST SWAP2 POP PUSH2 0x484 DUP4 PUSH2 0x251 JUMP JUMPDEST SWAP3 POP DUP3 DUP3 SUB SWAP1 POP PUSH16 0x7FFFFFFFFFFFFFFFFFFFFFFFFFFFFFFF DUP2 SGT PUSH32 0xFFFFFFFFFFFFFFFFFFFFFFFFFFFFFFFF80000000000000000000000000000000 DUP3 SLT OR ISZERO PUSH2 0x4D0 JUMPI PUSH2 0x4CF PUSH2 0x2DA JUMP JUMPDEST JUMPDEST SWAP3 SWAP2 POP POP JUMP INVALID LOG2 PUSH5 0x6970667358 0x22 SLT KECCAK256 0xC9 0xAD PUSH19 0x8F1879F8B2F7308698A360518CCFF01AF49038 REVERT DUP12 SHL RETURNDATASIZE 0xD9 GASLIMIT RETURNDATACOPY PUSH6 0x3E6764736F6C PUSH4 0x4300081A STOP CALLER "
				},
				"gasEstimates": {
					"creation": {
						"codeDepositCost": "258400",
						"executionCost": "298",
						"totalCost": "258698"
					},
					"external": {
						"division(int128)": "infinite",
						"multiplication(int128)": "infinite",
						"remainder(int128)": "infinite",
						"saveValue(int128)": "24727",
						"substraction(int128)": "infinite",
						"summa(int128)": "infinite"
					}
				},
				"methodIdentifiers": {
					"division(int128)": "b2f1669d",
					"multiplication(int128)": "32dfa731",
					"remainder(int128)": "62f63612",
					"saveValue(int128)": "9360894b",
					"substraction(int128)": "e06226e5",
					"summa(int128)": "64890207"
				}
			},
			"storageLayout": {
				"storage": [
					{
						"astId": 3,
						"contract": "code5_3.sol:task1",
						"label": "value",
						"offset": 0,
						"slot": "0",
						"type": "t_int128"
					}
				],
				"types": {
					"t_int128": {
						"encoding": "inplace",
						"label": "int128",
						"numberOfBytes": "16"
					}
				}
			},
			"userdoc": {
				"kind": "user",
				"methods": {},
				"version": 1
			}
		}
	}
}