{
	"code7_3.sol": {
		"task3": {
			"abi": [
				{
					"inputs": [],
					"name": "iteration",
					"outputs": [
						{
							"internalType": "int256",
							"name": "",
							"type": "int256"
						}
					],
					"stateMutability": "nonpayable",
					"type": "function"
				},
				{
					"inputs": [],
					"name": "iterator",
					"outputs": [
						{
							"internalType": "int256",
							"name": "",
							"type": "int256"
						}
					],
					"stateMutability": "view",
					"type": "function"
				},
				{
					"inputs": [],
					"name": "number",
					"outputs": [
						{
							"internalType": "int256",
							"name": "",
							"type": "int256"
						}
					],
					"stateMutability": "view",
					"type": "function"
				},
				{
					"inputs": [
						{
							"internalType": "int256",
							"name": "_number",
							"type": "int256"
						}
					],
					"name": "setNumber",
					"outputs": [
						{
							"internalType": "int256",
							"name": "",
							"type": "int256"
						}
					],
					"stateMutability": "nonpayable",
					"type": "function"
				}
			],
			"devdoc": {
				"kind": "dev",
				"methods": {},
				"version": 1
			},
			"evm": {
				"assembly": "    /* \"code7_3.sol\":66:427  contract task3 {... */\n  mstore(0x40, 0x80)\n  callvalue\n  dup1\n  iszero\n  tag_1\n  jumpi\n  0x00\n  dup1\n  revert\ntag_1:\n  pop\n  dataSize(sub_0)\n  dup1\n  dataOffset(sub_0)\n  0x00\n  codecopy\n  0x00\n  return\nstop\n\nsub_0: assembly {\n        /* \"code7_3.sol\":66:427  contract task3 {... */\n      mstore(0x40, 0x80)\n      callvalue\n      dup1\n      iszero\n      tag_1\n      jumpi\n      0x00\n      dup1\n      revert\n    tag_1:\n      pop\n      jumpi(tag_2, lt(calldatasize, 0x04))\n      shr(0xe0, calldataload(0x00))\n      dup1\n      0x0c0399a4\n      eq\n      tag_3\n      jumpi\n      dup1\n      0x8381f58a\n      eq\n      tag_4\n      jumpi\n      dup1\n      0x9cf27f37\n      eq\n      tag_5\n      jumpi\n      dup1\n      0xfddcc148\n      eq\n      tag_6\n      jumpi\n    tag_2:\n      0x00\n      dup1\n      revert\n        /* \"code7_3.sol\":316:424  function iteration () public returns (int256) { ... */\n    tag_3:\n      tag_7\n      tag_8\n      jump\t// in\n    tag_7:\n      mload(0x40)\n      tag_9\n      swap2\n      swap1\n      tag_10\n      jump\t// in\n    tag_9:\n      mload(0x40)\n      dup1\n      swap2\n      sub\n      swap1\n      return\n        /* \"code7_3.sol\":90:107  int public number */\n    tag_4:\n      tag_11\n      tag_12\n      jump\t// in\n    tag_11:\n      mload(0x40)\n      tag_13\n      swap2\n      swap1\n      tag_10\n      jump\t// in\n    tag_13:\n      mload(0x40)\n      dup1\n      swap2\n      sub\n      swap1\n      return\n        /* \"code7_3.sol\":146:307  function setNumber (int  _number) public returns (int256) {... */\n    tag_5:\n      tag_14\n      0x04\n      dup1\n      calldatasize\n      sub\n      dup2\n      add\n      swap1\n      tag_15\n      swap2\n      swap1\n      tag_16\n      jump\t// in\n    tag_15:\n      tag_17\n      jump\t// in\n    tag_14:\n      mload(0x40)\n      tag_18\n      swap2\n      swap1\n      tag_10\n      jump\t// in\n    tag_18:\n      mload(0x40)\n      dup1\n      swap2\n      sub\n      swap1\n      return\n        /* \"code7_3.sol\":117:136  int public iterator */\n    tag_6:\n      tag_19\n      tag_20\n      jump\t// in\n    tag_19:\n      mload(0x40)\n      tag_21\n      swap2\n      swap1\n      tag_10\n      jump\t// in\n    tag_21:\n      mload(0x40)\n      dup1\n      swap2\n      sub\n      swap1\n      return\n        /* \"code7_3.sol\":316:424  function iteration () public returns (int256) { ... */\n    tag_8:\n        /* \"code7_3.sol\":354:360  int256 */\n      0x00\n        /* \"code7_3.sol\":386:387  1 */\n      0x01\n        /* \"code7_3.sol\":374:382  iterator */\n      dup1\n      0x00\n        /* \"code7_3.sol\":374:387  iterator += 1 */\n      dup3\n      dup3\n      sload\n      tag_23\n      swap2\n      swap1\n      tag_24\n      jump\t// in\n    tag_23:\n      swap3\n      pop\n      pop\n      dup2\n      swap1\n      sstore\n      pop\n        /* \"code7_3.sol\":405:413  iterator */\n      sload(0x01)\n        /* \"code7_3.sol\":398:413  return iterator */\n      swap1\n      pop\n        /* \"code7_3.sol\":316:424  function iteration () public returns (int256) { ... */\n      swap1\n      jump\t// out\n        /* \"code7_3.sol\":90:107  int public number */\n    tag_12:\n      sload(0x00)\n      dup2\n      jump\t// out\n        /* \"code7_3.sol\":146:307  function setNumber (int  _number) public returns (int256) {... */\n    tag_17:\n        /* \"code7_3.sol\":196:202  int256 */\n      0x00\n        /* \"code7_3.sol\":224:231  _number */\n      dup2\n        /* \"code7_3.sol\":215:221  number */\n      0x00\n        /* \"code7_3.sol\":215:231  number = _number */\n      dup2\n      swap1\n      sstore\n      pop\n        /* \"code7_3.sol\":244:257  int _iterator */\n      0x00\n        /* \"code7_3.sol\":260:271  iteration() */\n      tag_26\n        /* \"code7_3.sol\":260:269  iteration */\n      tag_8\n        /* \"code7_3.sol\":260:271  iteration() */\n      jump\t// in\n    tag_26:\n        /* \"code7_3.sol\":244:271  int _iterator = iteration() */\n      swap1\n      pop\n        /* \"code7_3.sol\":289:298  _iterator */\n      dup1\n        /* \"code7_3.sol\":282:298  return _iterator */\n      swap2\n      pop\n      pop\n        /* \"code7_3.sol\":146:307  function setNumber (int  _number) public returns (int256) {... */\n      swap2\n      swap1\n      pop\n      jump\t// out\n        /* \"code7_3.sol\":117:136  int public iterator */\n    tag_20:\n      sload(0x01)\n      dup2\n      jump\t// out\n        /* \"#utility.yul\":7:83   */\n    tag_27:\n        /* \"#utility.yul\":43:50   */\n      0x00\n        /* \"#utility.yul\":72:77   */\n      dup2\n        /* \"#utility.yul\":61:77   */\n      swap1\n      pop\n        /* \"#utility.yul\":7:83   */\n      swap2\n      swap1\n      pop\n      jump\t// out\n        /* \"#utility.yul\":89:204   */\n    tag_28:\n        /* \"#utility.yul\":174:197   */\n      tag_38\n        /* \"#utility.yul\":191:196   */\n      dup2\n        /* \"#utility.yul\":174:197   */\n      tag_27\n      jump\t// in\n    tag_38:\n        /* \"#utility.yul\":169:172   */\n      dup3\n        /* \"#utility.yul\":162:198   */\n      mstore\n        /* \"#utility.yul\":89:204   */\n      pop\n      pop\n      jump\t// out\n        /* \"#utility.yul\":210:428   */\n    tag_10:\n        /* \"#utility.yul\":301:305   */\n      0x00\n        /* \"#utility.yul\":339:341   */\n      0x20\n        /* \"#utility.yul\":328:337   */\n      dup3\n        /* \"#utility.yul\":324:342   */\n      add\n        /* \"#utility.yul\":316:342   */\n      swap1\n      pop\n        /* \"#utility.yul\":352:421   */\n      tag_40\n        /* \"#utility.yul\":418:419   */\n      0x00\n        /* \"#utility.yul\":407:416   */\n      dup4\n        /* \"#utility.yul\":403:420   */\n      add\n        /* \"#utility.yul\":394:400   */\n      dup5\n        /* \"#utility.yul\":352:421   */\n      tag_28\n      jump\t// in\n    tag_40:\n        /* \"#utility.yul\":210:428   */\n      swap3\n      swap2\n      pop\n      pop\n      jump\t// out\n        /* \"#utility.yul\":515:632   */\n    tag_30:\n        /* \"#utility.yul\":624:625   */\n      0x00\n        /* \"#utility.yul\":621:622   */\n      dup1\n        /* \"#utility.yul\":614:626   */\n      revert\n        /* \"#utility.yul\":761:881   */\n    tag_32:\n        /* \"#utility.yul\":833:856   */\n      tag_45\n        /* \"#utility.yul\":850:855   */\n      dup2\n        /* \"#utility.yul\":833:856   */\n      tag_27\n      jump\t// in\n    tag_45:\n        /* \"#utility.yul\":826:831   */\n      dup2\n        /* \"#utility.yul\":823:857   */\n      eq\n        /* \"#utility.yul\":813:875   */\n      tag_46\n      jumpi\n        /* \"#utility.yul\":871:872   */\n      0x00\n        /* \"#utility.yul\":868:869   */\n      dup1\n        /* \"#utility.yul\":861:873   */\n      revert\n        /* \"#utility.yul\":813:875   */\n    tag_46:\n        /* \"#utility.yul\":761:881   */\n      pop\n      jump\t// out\n        /* \"#utility.yul\":887:1024   */\n    tag_33:\n        /* \"#utility.yul\":932:937   */\n      0x00\n        /* \"#utility.yul\":970:976   */\n      dup2\n        /* \"#utility.yul\":957:977   */\n      calldataload\n        /* \"#utility.yul\":948:977   */\n      swap1\n      pop\n        /* \"#utility.yul\":986:1018   */\n      tag_48\n        /* \"#utility.yul\":1012:1017   */\n      dup2\n        /* \"#utility.yul\":986:1018   */\n      tag_32\n      jump\t// in\n    tag_48:\n        /* \"#utility.yul\":887:1024   */\n      swap3\n      swap2\n      pop\n      pop\n      jump\t// out\n        /* \"#utility.yul\":1030:1357   */\n    tag_16:\n        /* \"#utility.yul\":1088:1094   */\n      0x00\n        /* \"#utility.yul\":1137:1139   */\n      0x20\n        /* \"#utility.yul\":1125:1134   */\n      dup3\n        /* \"#utility.yul\":1116:1123   */\n      dup5\n        /* \"#utility.yul\":1112:1135   */\n      sub\n        /* \"#utility.yul\":1108:1140   */\n      slt\n        /* \"#utility.yul\":1105:1224   */\n      iszero\n      tag_50\n      jumpi\n        /* \"#utility.yul\":1143:1222   */\n      tag_51\n      tag_30\n      jump\t// in\n    tag_51:\n        /* \"#utility.yul\":1105:1224   */\n    tag_50:\n        /* \"#utility.yul\":1263:1264   */\n      0x00\n        /* \"#utility.yul\":1288:1340   */\n      tag_52\n        /* \"#utility.yul\":1332:1339   */\n      dup5\n        /* \"#utility.yul\":1323:1329   */\n      dup3\n        /* \"#utility.yul\":1312:1321   */\n      dup6\n        /* \"#utility.yul\":1308:1330   */\n      add\n        /* \"#utility.yul\":1288:1340   */\n      tag_33\n      jump\t// in\n    tag_52:\n        /* \"#utility.yul\":1278:1340   */\n      swap2\n      pop\n        /* \"#utility.yul\":1234:1350   */\n      pop\n        /* \"#utility.yul\":1030:1357   */\n      swap3\n      swap2\n      pop\n      pop\n      jump\t// out\n        /* \"#utility.yul\":1363:1543   */\n    tag_34:\n        /* \"#utility.yul\":1411:1488   */\n      0x4e487b7100000000000000000000000000000000000000000000000000000000\n        /* \"#utility.yul\":1408:1409   */\n      0x00\n        /* \"#utility.yul\":1401:1489   */\n      mstore\n        /* \"#utility.yul\":1508:1512   */\n      0x11\n        /* \"#utility.yul\":1505:1506   */\n      0x04\n        /* \"#utility.yul\":1498:1513   */\n      mstore\n        /* \"#utility.yul\":1532:1536   */\n      0x24\n        /* \"#utility.yul\":1529:1530   */\n      0x00\n        /* \"#utility.yul\":1522:1537   */\n      revert\n        /* \"#utility.yul\":1549:1924   */\n    tag_24:\n        /* \"#utility.yul\":1588:1591   */\n      0x00\n        /* \"#utility.yul\":1607:1626   */\n      tag_55\n        /* \"#utility.yul\":1624:1625   */\n      dup3\n        /* \"#utility.yul\":1607:1626   */\n      tag_27\n      jump\t// in\n    tag_55:\n        /* \"#utility.yul\":1602:1626   */\n      swap2\n      pop\n        /* \"#utility.yul\":1640:1659   */\n      tag_56\n        /* \"#utility.yul\":1657:1658   */\n      dup4\n        /* \"#utility.yul\":1640:1659   */\n      tag_27\n      jump\t// in\n    tag_56:\n        /* \"#utility.yul\":1635:1659   */\n      swap3\n      pop\n        /* \"#utility.yul\":1682:1683   */\n      dup3\n        /* \"#utility.yul\":1679:1680   */\n      dup3\n        /* \"#utility.yul\":1675:1684   */\n      add\n        /* \"#utility.yul\":1668:1684   */\n      swap1\n      pop\n        /* \"#utility.yul\":1880:1881   */\n      dup3\n        /* \"#utility.yul\":1875:1878   */\n      dup2\n        /* \"#utility.yul\":1871:1882   */\n      slt\n        /* \"#utility.yul\":1864:1883   */\n      iszero\n        /* \"#utility.yul\":1860:1861   */\n      0x00\n        /* \"#utility.yul\":1857:1858   */\n      dup4\n        /* \"#utility.yul\":1853:1862   */\n      slt\n        /* \"#utility.yul\":1849:1884   */\n      and\n        /* \"#utility.yul\":1832:1833   */\n      dup4\n        /* \"#utility.yul\":1827:1830   */\n      dup3\n        /* \"#utility.yul\":1823:1834   */\n      slt\n        /* \"#utility.yul\":1818:1819   */\n      0x00\n        /* \"#utility.yul\":1815:1816   */\n      dup5\n        /* \"#utility.yul\":1811:1820   */\n      slt\n        /* \"#utility.yul\":1804:1821   */\n      iszero\n        /* \"#utility.yul\":1800:1835   */\n      and\n        /* \"#utility.yul\":1784:1894   */\n      or\n        /* \"#utility.yul\":1781:1917   */\n      iszero\n      tag_57\n      jumpi\n        /* \"#utility.yul\":1897:1915   */\n      tag_58\n      tag_34\n      jump\t// in\n    tag_58:\n        /* \"#utility.yul\":1781:1917   */\n    tag_57:\n        /* \"#utility.yul\":1549:1924   */\n      swap3\n      swap2\n      pop\n      pop\n      jump\t// out\n\n    auxdata: 0xa26469706673582212200b9fa47ba6f5b4f2961439d84d313bd4646f902a18c5192cc1375dcb95e86fab64736f6c634300081a0033\n}\n",
				"bytecode": {
					"linkReferences": {},
					"object": "6080604052348015600e575f80fd5b5061024d8061001c5f395ff3fe608060405234801561000f575f80fd5b506004361061004a575f3560e01c80630c0399a41461004e5780638381f58a1461006c5780639cf27f371461008a578063fddcc148146100ba575b5f80fd5b6100566100d8565b6040516100639190610137565b60405180910390f35b6100746100f9565b6040516100819190610137565b60405180910390f35b6100a4600480360381019061009f919061017e565b6100fe565b6040516100b19190610137565b60405180910390f35b6100c2610119565b6040516100cf9190610137565b60405180910390f35b5f6001805f8282546100ea91906101d6565b92505081905550600154905090565b5f5481565b5f815f819055505f61010e6100d8565b905080915050919050565b60015481565b5f819050919050565b6101318161011f565b82525050565b5f60208201905061014a5f830184610128565b92915050565b5f80fd5b61015d8161011f565b8114610167575f80fd5b50565b5f8135905061017881610154565b92915050565b5f6020828403121561019357610192610150565b5b5f6101a08482850161016a565b91505092915050565b7f4e487b71000000000000000000000000000000000000000000000000000000005f52601160045260245ffd5b5f6101e08261011f565b91506101eb8361011f565b92508282019050828112155f8312168382125f841215161715610211576102106101a9565b5b9291505056fea26469706673582212200b9fa47ba6f5b4f2961439d84d313bd4646f902a18c5192cc1375dcb95e86fab64736f6c634300081a0033",
					"opcodes": "PUSH1 0x80 PUSH1 0x40 MSTORE CALLVALUE DUP1 ISZERO PUSH1 0xE JUMPI PUSH0 DUP1 REVERT JUMPDEST POP PUSH2 0x24D DUP1 PUSH2 0x1C PUSH0 CODECOPY PUSH0 RETURN INVALID PUSH1 0x80 PUSH1 0x40 MSTORE CALLVALUE DUP1 ISZERO PUSH2 0xF JUMPI PUSH0 DUP1 REVERT JUMPDEST POP PUSH1 0x4 CALLDATASIZE LT PUSH2 0x4A JUMPI PUSH0 CALLDATALOAD PUSH1 0xE0 SHR DUP1 PUSH4 0xC0399A4 EQ PUSH2 0x4E JUMPI DUP1 PUSH4 0x8381F58A EQ PUSH2 0x6C JUMPI DUP1 PUSH4 0x9CF27F37 EQ PUSH2 0x8A JUMPI DUP1 PUSH4 0xFDDCC148 EQ PUSH2 0xBA JUMPI JUMPDEST PUSH0 DUP1 REVERT JUMPDEST PUSH2 0x56 PUSH2 0xD8 JUMP JUMPDEST PUSH1 0x40 MLOAD PUSH2 0x63 SWAP2 SWAP1 PUSH2 0x137 JUMP JUMPDEST PUSH1 0x40 MLOAD DUP1 SWAP2 SUB SWAP1 RETURN JUMPDEST PUSH2 0x74 PUSH2 0xF9 JUMP JUMPDEST PUSH1 0x40 MLOAD PUSH2 0x81 SWAP2 SWAP1 PUSH2 0x137 JUMP JUMPDEST PUSH1 0x40 MLOAD DUP1 SWAP2 SUB SWAP1 RETURN JUMPDEST PUSH2 0xA4 PUSH1 0x4 DUP1 CALLDATASIZE SUB DUP2 ADD SWAP1 PUSH2 0x9F SWAP2 SWAP1 PUSH2 0x17E JUMP JUMPDEST PUSH2 0xFE JUMP JUMPDEST PUSH1 0x40 MLOAD PUSH2 0xB1 SWAP2 SWAP1 PUSH2 0x137 JUMP JUMPDEST PUSH1 0x40 MLOAD DUP1 SWAP2 SUB SWAP1 RETURN JUMPDEST PUSH2 0xC2 PUSH2 0x119 JUMP JUMPDEST PUSH1 0x40 MLOAD PUSH2 0xCF SWAP2 SWAP1 PUSH2 0x137 JUMP JUMPDEST PUSH1 0x40 MLOAD DUP1 SWAP2 SUB SWAP1 RETURN JUMPDEST PUSH0 PUSH1 0x1 DUP1 PUSH0 DUP3 DUP3 SLOAD PUSH2 0xEA SWAP2 SWAP1 PUSH2 0x1D6 JUMP JUMPDEST SWAP3 POP POP DUP2 SWAP1 SSTORE POP PUSH1 0x1 SLOAD SWAP1 POP SWAP1 JUMP JUMPDEST PUSH0 SLOAD DUP2 JUMP JUMPDEST PUSH0 DUP2 PUSH0 DUP2 SWAP1 SSTORE POP PUSH0 PUSH2 0x10E PUSH2 0xD8 JUMP JUMPDEST SWAP1 POP DUP1 SWAP2 POP POP SWAP2 SWAP1 POP JUMP JUMPDEST PUSH1 0x1 SLOAD DUP2 JUMP JUMPDEST PUSH0 DUP2 SWAP1 POP SWAP2 SWAP1 POP JUMP JUMPDEST PUSH2 0x131 DUP2 PUSH2 0x11F JUMP JUMPDEST DUP3 MSTORE POP POP JUMP JUMPDEST PUSH0 PUSH1 0x20 DUP3 ADD SWAP1 POP PUSH2 0x14A PUSH0 DUP4 ADD DUP5 PUSH2 0x128 JUMP JUMPDEST SWAP3 SWAP2 POP POP JUMP JUMPDEST PUSH0 DUP1 REVERT JUMPDEST PUSH2 0x15D DUP2 PUSH2 0x11F JUMP JUMPDEST DUP2 EQ PUSH2 0x167 JUMPI PUSH0 DUP1 REVERT JUMPDEST POP JUMP JUMPDEST PUSH0 DUP2 CALLDATALOAD SWAP1 POP PUSH2 0x178 DUP2 PUSH2 0x154 JUMP JUMPDEST SWAP3 SWAP2 POP POP JUMP JUMPDEST PUSH0 PUSH1 0x20 DUP3 DUP5 SUB SLT ISZERO PUSH2 0x193 JUMPI PUSH2 0x192 PUSH2 0x150 JUMP JUMPDEST JUMPDEST PUSH0 PUSH2 0x1A0 DUP5 DUP3 DUP6 ADD PUSH2 0x16A JUMP JUMPDEST SWAP2 POP POP SWAP3 SWAP2 POP POP JUMP JUMPDEST PUSH32 0x4E487B7100000000000000000000000000000000000000000000000000000000 PUSH0 MSTORE PUSH1 0x11 PUSH1 0x4 MSTORE PUSH1 0x24 PUSH0 REVERT JUMPDEST PUSH0 PUSH2 0x1E0 DUP3 PUSH2 0x11F JUMP JUMPDEST SWAP2 POP PUSH2 0x1EB DUP4 PUSH2 0x11F JUMP JUMPDEST SWAP3 POP DUP3 DUP3 ADD SWAP1 POP DUP3 DUP2 SLT ISZERO PUSH0 DUP4 SLT AND DUP4 DUP3 SLT PUSH0 DUP5 SLT ISZERO AND OR ISZERO PUSH2 0x211 JUMPI PUSH2 0x210 PUSH2 0x1A9 JUMP JUMPDEST JUMPDEST SWAP3 SWAP2 POP POP JUMP INVALID LOG2 PUSH5 0x6970667358 0x22 SLT KECCAK256 SIGNEXTEND SWAP16 LOG4 PUSH28 0xA6F5B4F2961439D84D313BD4646F902A18C5192CC1375DCB95E86FAB PUSH5 0x736F6C6343 STOP ADDMOD BYTE STOP CALLER "
				},
				"gasEstimates": {
					"creation": {
						"codeDepositCost": "117800",
						"executionCost": "163",
						"totalCost": "117963"
					},
					"external": {
						"iteration()": "infinite",
						"iterator()": "2469",
						"number()": "2424",
						"setNumber(int256)": "infinite"
					}
				},
				"methodIdentifiers": {
					"iteration()": "0c0399a4",
					"iterator()": "fddcc148",
					"number()": "8381f58a",
					"setNumber(int256)": "9cf27f37"
				}
			},
			"storageLayout": {
				"storage": [
					{
						"astId": 3,
						"contract": "code7_3.sol:task3",
						"label": "number",
						"offset": 0,
						"slot": "0",
						"type": "t_int256"
					},
					{
						"astId": 5,
						"contract": "code7_3.sol:task3",
						"label": "iterator",
						"offset": 0,
						"slot": "1",
						"type": "t_int256"
					}
				],
				"types": {
					"t_int256": {
						"encoding": "inplace",
						"label": "int256",
						"numberOfBytes": "32"
					}
				}
			},
			"userdoc": {
				"kind": "user",
				"methods": {},
				"version": 1
			}
		}
	}
}