{
	"code10_3.sol": {
		"task4": {
			"abi": [
				{
					"inputs": [
						{
							"internalType": "string",
							"name": "name",
							"type": "string"
						},
						{
							"internalType": "uint8",
							"name": "grade",
							"type": "uint8"
						}
					],
					"name": "addGrade",
					"outputs": [],
					"stateMutability": "nonpayable",
					"type": "function"
				},
				{
					"inputs": [
						{
							"internalType": "string",
							"name": "name",
							"type": "string"
						},
						{
							"internalType": "uint8",
							"name": "age",
							"type": "uint8"
						}
					],
					"name": "addStudent",
					"outputs": [],
					"stateMutability": "nonpayable",
					"type": "function"
				},
				{
					"inputs": [
						{
							"internalType": "uint256",
							"name": "",
							"type": "uint256"
						}
					],
					"name": "students",
					"outputs": [
						{
							"internalType": "string",
							"name": "name",
							"type": "string"
						},
						{
							"internalType": "uint8",
							"name": "age",
							"type": "uint8"
						}
					],
					"stateMutability": "view",
					"type": "function"
				}
			],
			"devdoc": {
				"kind": "dev",
				"methods": {},
				"version": 1
			},
			"evm": {
				"assembly": "    /* \"code10_3.sol\":26:616  contract task4 {... */\n  mstore(0x40, 0x80)\n  callvalue\n  dup1\n  iszero\n  tag_1\n  jumpi\n  0x00\n  dup1\n  revert\ntag_1:\n  pop\n  dataSize(sub_0)\n  dup1\n  dataOffset(sub_0)\n  0x00\n  codecopy\n  0x00\n  return\nstop\n\nsub_0: assembly {\n        /* \"code10_3.sol\":26:616  contract task4 {... */\n      mstore(0x40, 0x80)\n      callvalue\n      dup1\n      iszero\n      tag_1\n      jumpi\n      0x00\n      dup1\n      revert\n    tag_1:\n      pop\n      jumpi(tag_2, lt(calldatasize, 0x04))\n      shr(0xe0, calldataload(0x00))\n      dup1\n      0x06ead22e\n      eq\n      tag_3\n      jumpi\n      dup1\n      0x62dc146b\n      eq\n      tag_4\n      jumpi\n      dup1\n      0xc3845792\n      eq\n      tag_5\n      jumpi\n    tag_2:\n      0x00\n      dup1\n      revert\n        /* \"code10_3.sol\":150:175  Student[] public students */\n    tag_3:\n      tag_6\n      0x04\n      dup1\n      calldatasize\n      sub\n      dup2\n      add\n      swap1\n      tag_7\n      swap2\n      swap1\n      tag_8\n      jump\t// in\n    tag_7:\n      tag_9\n      jump\t// in\n    tag_6:\n      mload(0x40)\n      tag_10\n      swap3\n      swap2\n      swap1\n      tag_11\n      jump\t// in\n    tag_10:\n      mload(0x40)\n      dup1\n      swap2\n      sub\n      swap1\n      return\n        /* \"code10_3.sol\":184:309  function addStudent (string memory name, uint8 age) public {... */\n    tag_4:\n      tag_12\n      0x04\n      dup1\n      calldatasize\n      sub\n      dup2\n      add\n      swap1\n      tag_13\n      swap2\n      swap1\n      tag_14\n      jump\t// in\n    tag_13:\n      tag_15\n      jump\t// in\n    tag_12:\n      stop\n        /* \"code10_3.sol\":317:613  function addGrade (string memory name,uint8 grade) public{... */\n    tag_5:\n      tag_16\n      0x04\n      dup1\n      calldatasize\n      sub\n      dup2\n      add\n      swap1\n      tag_17\n      swap2\n      swap1\n      tag_14\n      jump\t// in\n    tag_17:\n      tag_18\n      jump\t// in\n    tag_16:\n      stop\n        /* \"code10_3.sol\":150:175  Student[] public students */\n    tag_9:\n      0x00\n      dup2\n      dup2\n      sload\n      dup2\n      lt\n      tag_19\n      jumpi\n      0x00\n      dup1\n      revert\n    tag_19:\n      swap1\n      0x00\n      mstore\n      keccak256(0x00, 0x20)\n      swap1\n      0x03\n      mul\n      add\n      0x00\n      swap2\n      pop\n      swap1\n      pop\n      dup1\n      0x00\n      add\n      dup1\n      sload\n      tag_21\n      swap1\n      tag_22\n      jump\t// in\n    tag_21:\n      dup1\n      0x1f\n      add\n      0x20\n      dup1\n      swap2\n      div\n      mul\n      0x20\n      add\n      mload(0x40)\n      swap1\n      dup2\n      add\n      0x40\n      mstore\n      dup1\n      swap3\n      swap2\n      swap1\n      dup2\n      dup2\n      mstore\n      0x20\n      add\n      dup3\n      dup1\n      sload\n      tag_23\n      swap1\n      tag_22\n      jump\t// in\n    tag_23:\n      dup1\n      iszero\n      tag_24\n      jumpi\n      dup1\n      0x1f\n      lt\n      tag_25\n      jumpi\n      0x0100\n      dup1\n      dup4\n      sload\n      div\n      mul\n      dup4\n      mstore\n      swap2\n      0x20\n      add\n      swap2\n      jump(tag_24)\n    tag_25:\n      dup3\n      add\n      swap2\n      swap1\n      0x00\n      mstore\n      keccak256(0x00, 0x20)\n      swap1\n    tag_26:\n      dup2\n      sload\n      dup2\n      mstore\n      swap1\n      0x01\n      add\n      swap1\n      0x20\n      add\n      dup1\n      dup4\n      gt\n      tag_26\n      jumpi\n      dup3\n      swap1\n      sub\n      0x1f\n      and\n      dup3\n      add\n      swap2\n    tag_24:\n      pop\n      pop\n      pop\n      pop\n      pop\n      swap1\n      dup1\n      0x01\n      add\n      0x00\n      swap1\n      sload\n      swap1\n      0x0100\n      exp\n      swap1\n      div\n      0xff\n      and\n      swap1\n      pop\n      dup3\n      jump\t// out\n        /* \"code10_3.sol\":184:309  function addStudent (string memory name, uint8 age) public {... */\n    tag_15:\n        /* \"code10_3.sol\":254:262  students */\n      0x00\n        /* \"code10_3.sol\":268:300  Student(name,age,new uint8[](0)) */\n      mload(0x40)\n      dup1\n      0x60\n      add\n      0x40\n      mstore\n      dup1\n        /* \"code10_3.sol\":276:280  name */\n      dup5\n        /* \"code10_3.sol\":268:300  Student(name,age,new uint8[](0)) */\n      dup2\n      mstore\n      0x20\n      add\n        /* \"code10_3.sol\":281:284  age */\n      dup4\n        /* \"code10_3.sol\":268:300  Student(name,age,new uint8[](0)) */\n      0xff\n      and\n      dup2\n      mstore\n      0x20\n      add\n        /* \"code10_3.sol\":297:298  0 */\n      0x00\n        /* \"code10_3.sol\":285:299  new uint8[](0) */\n      0xffffffffffffffff\n      dup2\n      gt\n      iszero\n      tag_28\n      jumpi\n      tag_29\n      tag_30\n      jump\t// in\n    tag_29:\n    tag_28:\n      mload(0x40)\n      swap1\n      dup1\n      dup3\n      mstore\n      dup1\n      0x20\n      mul\n      0x20\n      add\n      dup3\n      add\n      0x40\n      mstore\n      dup1\n      iszero\n      tag_31\n      jumpi\n      dup2\n      0x20\n      add\n      0x20\n      dup3\n      mul\n      dup1\n      calldatasize\n      dup4\n      calldatacopy\n      dup1\n      dup3\n      add\n      swap2\n      pop\n      pop\n      swap1\n      pop\n    tag_31:\n      pop\n        /* \"code10_3.sol\":268:300  Student(name,age,new uint8[](0)) */\n      dup2\n      mstore\n      pop\n        /* \"code10_3.sol\":254:301  students.push(Student(name,age,new uint8[](0))) */\n      swap1\n      dup1\n      0x01\n      dup2\n      sload\n      add\n      dup1\n      dup3\n      sstore\n      dup1\n      swap2\n      pop\n      pop\n      0x01\n      swap1\n      sub\n      swap1\n      0x00\n      mstore\n      keccak256(0x00, 0x20)\n      swap1\n      0x03\n      mul\n      add\n      0x00\n      swap1\n      swap2\n      swap1\n      swap2\n      swap1\n      swap2\n      pop\n      0x00\n      dup3\n      add\n      mload\n      dup2\n      0x00\n      add\n      swap1\n      dup2\n      tag_33\n      swap2\n      swap1\n      tag_34\n      jump\t// in\n    tag_33:\n      pop\n      0x20\n      dup3\n      add\n      mload\n      dup2\n      0x01\n      add\n      exp(0x0100, 0x00)\n      dup2\n      sload\n      dup2\n      0xff\n      mul\n      not\n      and\n      swap1\n      dup4\n      0xff\n      and\n      mul\n      or\n      swap1\n      sstore\n      pop\n      0x40\n      dup3\n      add\n      mload\n      dup2\n      0x02\n      add\n      swap1\n      dup1\n      mload\n      swap1\n      0x20\n      add\n      swap1\n      tag_35\n      swap3\n      swap2\n      swap1\n      tag_36\n      jump\t// in\n    tag_35:\n      pop\n      pop\n      pop\n        /* \"code10_3.sol\":184:309  function addStudent (string memory name, uint8 age) public {... */\n      pop\n      pop\n      jump\t// out\n        /* \"code10_3.sol\":317:613  function addGrade (string memory name,uint8 grade) public{... */\n    tag_18:\n        /* \"code10_3.sol\":390:399  uint256 i */\n      0x00\n        /* \"code10_3.sol\":385:606  for (uint256 i = 0; i<students.length; i++){... */\n    tag_38:\n        /* \"code10_3.sol\":407:415  students */\n      0x00\n        /* \"code10_3.sol\":407:422  students.length */\n      dup1\n      sload\n      swap1\n      pop\n        /* \"code10_3.sol\":405:406  i */\n      dup2\n        /* \"code10_3.sol\":405:422  i<students.length */\n      lt\n        /* \"code10_3.sol\":385:606  for (uint256 i = 0; i<students.length; i++){... */\n      iszero\n      tag_39\n      jumpi\n        /* \"code10_3.sol\":523:527  name */\n      dup3\n        /* \"code10_3.sol\":506:528  abi.encodePacked(name) */\n      add(0x20, mload(0x40))\n      tag_41\n      swap2\n      swap1\n      tag_42\n      jump\t// in\n    tag_41:\n      mload(0x40)\n      0x20\n      dup2\n      dup4\n      sub\n      sub\n      dup2\n      mstore\n      swap1\n      0x40\n      mstore\n        /* \"code10_3.sol\":496:529  keccak256(abi.encodePacked(name)) */\n      dup1\n      mload\n      swap1\n      0x20\n      add\n      keccak256\n        /* \"code10_3.sol\":474:482  students */\n      0x00\n        /* \"code10_3.sol\":483:484  i */\n      dup3\n        /* \"code10_3.sol\":474:485  students[i] */\n      dup2\n      sload\n      dup2\n      lt\n      tag_43\n      jumpi\n      tag_44\n      tag_45\n      jump\t// in\n    tag_44:\n    tag_43:\n      swap1\n      0x00\n      mstore\n      keccak256(0x00, 0x20)\n      swap1\n      0x03\n      mul\n      add\n        /* \"code10_3.sol\":474:490  students[i].name */\n      0x00\n      add\n        /* \"code10_3.sol\":457:491  abi.encodePacked(students[i].name) */\n      add(0x20, mload(0x40))\n      tag_47\n      swap2\n      swap1\n      tag_48\n      jump\t// in\n    tag_47:\n      mload(0x40)\n      0x20\n      dup2\n      dup4\n      sub\n      sub\n      dup2\n      mstore\n      swap1\n      0x40\n      mstore\n        /* \"code10_3.sol\":447:492  keccak256(abi.encodePacked(students[i].name)) */\n      dup1\n      mload\n      swap1\n      0x20\n      add\n      keccak256\n        /* \"code10_3.sol\":447:529  keccak256(abi.encodePacked(students[i].name)) == keccak256(abi.encodePacked(name)) */\n      sub\n        /* \"code10_3.sol\":443:595  if (keccak256(abi.encodePacked(students[i].name)) == keccak256(abi.encodePacked(name))){... */\n      tag_49\n      jumpi\n        /* \"code10_3.sol\":549:557  students */\n      0x00\n        /* \"code10_3.sol\":558:559  i */\n      dup2\n        /* \"code10_3.sol\":549:560  students[i] */\n      dup2\n      sload\n      dup2\n      lt\n      tag_50\n      jumpi\n      tag_51\n      tag_45\n      jump\t// in\n    tag_51:\n    tag_50:\n      swap1\n      0x00\n      mstore\n      keccak256(0x00, 0x20)\n      swap1\n      0x03\n      mul\n      add\n        /* \"code10_3.sol\":549:567  students[i].grades */\n      0x02\n      add\n        /* \"code10_3.sol\":573:578  grade */\n      dup3\n        /* \"code10_3.sol\":549:579  students[i].grades.push(grade) */\n      swap1\n      dup1\n      0x01\n      dup2\n      sload\n      add\n      dup1\n      dup3\n      sstore\n      dup1\n      swap2\n      pop\n      pop\n      0x01\n      swap1\n      sub\n      swap1\n      0x00\n      mstore\n      keccak256(0x00, 0x20)\n      swap1\n      0x20\n      swap2\n      dup3\n      dup3\n      div\n      add\n      swap2\n      swap1\n      mod\n      swap1\n      swap2\n      swap1\n      swap2\n      swap1\n      swap2\n      0x0100\n      exp\n      dup2\n      sload\n      dup2\n      0xff\n      mul\n      not\n      and\n      swap1\n      dup4\n      0xff\n      and\n      mul\n      or\n      swap1\n      sstore\n      pop\n        /* \"code10_3.sol\":443:595  if (keccak256(abi.encodePacked(students[i].name)) == keccak256(abi.encodePacked(name))){... */\n    tag_49:\n        /* \"code10_3.sol\":424:427  i++ */\n      dup1\n      dup1\n      0x01\n      add\n      swap2\n      pop\n      pop\n        /* \"code10_3.sol\":385:606  for (uint256 i = 0; i<students.length; i++){... */\n      jump(tag_38)\n    tag_39:\n      pop\n        /* \"code10_3.sol\":317:613  function addGrade (string memory name,uint8 grade) public{... */\n      pop\n      pop\n      jump\t// out\n    tag_36:\n      dup3\n      dup1\n      sload\n      dup3\n      dup3\n      sstore\n      swap1\n      0x00\n      mstore\n      keccak256(0x00, 0x20)\n      swap1\n      0x1f\n      add\n      0x20\n      swap1\n      div\n      dup2\n      add\n      swap3\n      dup3\n      iszero\n      tag_54\n      jumpi\n      swap2\n      0x20\n      mul\n      dup3\n      add\n      0x00\n    tag_55:\n      dup4\n      dup3\n      gt\n      iszero\n      tag_56\n      jumpi\n      dup4\n      mload\n      dup4\n      dup3\n      0x0100\n      exp\n      dup2\n      sload\n      dup2\n      0xff\n      mul\n      not\n      and\n      swap1\n      dup4\n      0xff\n      and\n      mul\n      or\n      swap1\n      sstore\n      pop\n      swap3\n      0x20\n      add\n      swap3\n      0x01\n      add\n      0x20\n      dup2\n      0x00\n      add\n      div\n      swap3\n      dup4\n      add\n      swap3\n      0x01\n      sub\n      mul\n      jump(tag_55)\n    tag_56:\n      dup1\n      iszero\n      tag_57\n      jumpi\n      dup3\n      dup2\n      0x0100\n      exp\n      dup2\n      sload\n      swap1\n      0xff\n      mul\n      not\n      and\n      swap1\n      sstore\n      0x01\n      add\n      0x20\n      dup2\n      0x00\n      add\n      div\n      swap3\n      dup4\n      add\n      swap3\n      0x01\n      sub\n      mul\n      jump(tag_56)\n    tag_57:\n      pop\n    tag_54:\n      pop\n      swap1\n      pop\n      tag_58\n      swap2\n      swap1\n      tag_59\n      jump\t// in\n    tag_58:\n      pop\n      swap1\n      jump\t// out\n    tag_59:\n    tag_60:\n      dup1\n      dup3\n      gt\n      iszero\n      tag_61\n      jumpi\n      0x00\n      dup2\n      0x00\n      swap1\n      sstore\n      pop\n      0x01\n      add\n      jump(tag_60)\n    tag_61:\n      pop\n      swap1\n      jump\t// out\n        /* \"#utility.yul\":7:82   */\n    tag_62:\n        /* \"#utility.yul\":40:46   */\n      0x00\n        /* \"#utility.yul\":73:75   */\n      0x40\n        /* \"#utility.yul\":67:76   */\n      mload\n        /* \"#utility.yul\":57:76   */\n      swap1\n      pop\n        /* \"#utility.yul\":7:82   */\n      swap1\n      jump\t// out\n        /* \"#utility.yul\":88:205   */\n    tag_63:\n        /* \"#utility.yul\":197:198   */\n      0x00\n        /* \"#utility.yul\":194:195   */\n      dup1\n        /* \"#utility.yul\":187:199   */\n      revert\n        /* \"#utility.yul\":211:328   */\n    tag_64:\n        /* \"#utility.yul\":320:321   */\n      0x00\n        /* \"#utility.yul\":317:318   */\n      dup1\n        /* \"#utility.yul\":310:322   */\n      revert\n        /* \"#utility.yul\":334:411   */\n    tag_65:\n        /* \"#utility.yul\":371:378   */\n      0x00\n        /* \"#utility.yul\":400:405   */\n      dup2\n        /* \"#utility.yul\":389:405   */\n      swap1\n      pop\n        /* \"#utility.yul\":334:411   */\n      swap2\n      swap1\n      pop\n      jump\t// out\n        /* \"#utility.yul\":417:539   */\n    tag_66:\n        /* \"#utility.yul\":490:514   */\n      tag_110\n        /* \"#utility.yul\":508:513   */\n      dup2\n        /* \"#utility.yul\":490:514   */\n      tag_65\n      jump\t// in\n    tag_110:\n        /* \"#utility.yul\":483:488   */\n      dup2\n        /* \"#utility.yul\":480:515   */\n      eq\n        /* \"#utility.yul\":470:533   */\n      tag_111\n      jumpi\n        /* \"#utility.yul\":529:530   */\n      0x00\n        /* \"#utility.yul\":526:527   */\n      dup1\n        /* \"#utility.yul\":519:531   */\n      revert\n        /* \"#utility.yul\":470:533   */\n    tag_111:\n        /* \"#utility.yul\":417:539   */\n      pop\n      jump\t// out\n        /* \"#utility.yul\":545:684   */\n    tag_67:\n        /* \"#utility.yul\":591:596   */\n      0x00\n        /* \"#utility.yul\":629:635   */\n      dup2\n        /* \"#utility.yul\":616:636   */\n      calldataload\n        /* \"#utility.yul\":607:636   */\n      swap1\n      pop\n        /* \"#utility.yul\":645:678   */\n      tag_113\n        /* \"#utility.yul\":672:677   */\n      dup2\n        /* \"#utility.yul\":645:678   */\n      tag_66\n      jump\t// in\n    tag_113:\n        /* \"#utility.yul\":545:684   */\n      swap3\n      swap2\n      pop\n      pop\n      jump\t// out\n        /* \"#utility.yul\":690:1019   */\n    tag_8:\n        /* \"#utility.yul\":749:755   */\n      0x00\n        /* \"#utility.yul\":798:800   */\n      0x20\n        /* \"#utility.yul\":786:795   */\n      dup3\n        /* \"#utility.yul\":777:784   */\n      dup5\n        /* \"#utility.yul\":773:796   */\n      sub\n        /* \"#utility.yul\":769:801   */\n      slt\n        /* \"#utility.yul\":766:885   */\n      iszero\n      tag_115\n      jumpi\n        /* \"#utility.yul\":804:883   */\n      tag_116\n      tag_63\n      jump\t// in\n    tag_116:\n        /* \"#utility.yul\":766:885   */\n    tag_115:\n        /* \"#utility.yul\":924:925   */\n      0x00\n        /* \"#utility.yul\":949:1002   */\n      tag_117\n        /* \"#utility.yul\":994:1001   */\n      dup5\n        /* \"#utility.yul\":985:991   */\n      dup3\n        /* \"#utility.yul\":974:983   */\n      dup6\n        /* \"#utility.yul\":970:992   */\n      add\n        /* \"#utility.yul\":949:1002   */\n      tag_67\n      jump\t// in\n    tag_117:\n        /* \"#utility.yul\":939:1002   */\n      swap2\n      pop\n        /* \"#utility.yul\":895:1012   */\n      pop\n        /* \"#utility.yul\":690:1019   */\n      swap3\n      swap2\n      pop\n      pop\n      jump\t// out\n        /* \"#utility.yul\":1025:1124   */\n    tag_68:\n        /* \"#utility.yul\":1077:1083   */\n      0x00\n        /* \"#utility.yul\":1111:1116   */\n      dup2\n        /* \"#utility.yul\":1105:1117   */\n      mload\n        /* \"#utility.yul\":1095:1117   */\n      swap1\n      pop\n        /* \"#utility.yul\":1025:1124   */\n      swap2\n      swap1\n      pop\n      jump\t// out\n        /* \"#utility.yul\":1130:1299   */\n    tag_69:\n        /* \"#utility.yul\":1214:1225   */\n      0x00\n        /* \"#utility.yul\":1248:1254   */\n      dup3\n        /* \"#utility.yul\":1243:1246   */\n      dup3\n        /* \"#utility.yul\":1236:1255   */\n      mstore\n        /* \"#utility.yul\":1288:1292   */\n      0x20\n        /* \"#utility.yul\":1283:1286   */\n      dup3\n        /* \"#utility.yul\":1279:1293   */\n      add\n        /* \"#utility.yul\":1264:1293   */\n      swap1\n      pop\n        /* \"#utility.yul\":1130:1299   */\n      swap3\n      swap2\n      pop\n      pop\n      jump\t// out\n        /* \"#utility.yul\":1305:1444   */\n    tag_70:\n        /* \"#utility.yul\":1394:1400   */\n      dup3\n        /* \"#utility.yul\":1389:1392   */\n      dup2\n        /* \"#utility.yul\":1384:1387   */\n      dup4\n        /* \"#utility.yul\":1378:1401   */\n      mcopy\n        /* \"#utility.yul\":1435:1436   */\n      0x00\n        /* \"#utility.yul\":1426:1432   */\n      dup4\n        /* \"#utility.yul\":1421:1424   */\n      dup4\n        /* \"#utility.yul\":1417:1433   */\n      add\n        /* \"#utility.yul\":1410:1437   */\n      mstore\n        /* \"#utility.yul\":1305:1444   */\n      pop\n      pop\n      pop\n      jump\t// out\n        /* \"#utility.yul\":1450:1552   */\n    tag_71:\n        /* \"#utility.yul\":1491:1497   */\n      0x00\n        /* \"#utility.yul\":1542:1544   */\n      0x1f\n        /* \"#utility.yul\":1538:1545   */\n      not\n        /* \"#utility.yul\":1533:1535   */\n      0x1f\n        /* \"#utility.yul\":1526:1531   */\n      dup4\n        /* \"#utility.yul\":1522:1536   */\n      add\n        /* \"#utility.yul\":1518:1546   */\n      and\n        /* \"#utility.yul\":1508:1546   */\n      swap1\n      pop\n        /* \"#utility.yul\":1450:1552   */\n      swap2\n      swap1\n      pop\n      jump\t// out\n        /* \"#utility.yul\":1558:1935   */\n    tag_72:\n        /* \"#utility.yul\":1646:1649   */\n      0x00\n        /* \"#utility.yul\":1674:1713   */\n      tag_123\n        /* \"#utility.yul\":1707:1712   */\n      dup3\n        /* \"#utility.yul\":1674:1713   */\n      tag_68\n      jump\t// in\n    tag_123:\n        /* \"#utility.yul\":1729:1800   */\n      tag_124\n        /* \"#utility.yul\":1793:1799   */\n      dup2\n        /* \"#utility.yul\":1788:1791   */\n      dup6\n        /* \"#utility.yul\":1729:1800   */\n      tag_69\n      jump\t// in\n    tag_124:\n        /* \"#utility.yul\":1722:1800   */\n      swap4\n      pop\n        /* \"#utility.yul\":1809:1874   */\n      tag_125\n        /* \"#utility.yul\":1867:1873   */\n      dup2\n        /* \"#utility.yul\":1862:1865   */\n      dup6\n        /* \"#utility.yul\":1855:1859   */\n      0x20\n        /* \"#utility.yul\":1848:1853   */\n      dup7\n        /* \"#utility.yul\":1844:1860   */\n      add\n        /* \"#utility.yul\":1809:1874   */\n      tag_70\n      jump\t// in\n    tag_125:\n        /* \"#utility.yul\":1899:1928   */\n      tag_126\n        /* \"#utility.yul\":1921:1927   */\n      dup2\n        /* \"#utility.yul\":1899:1928   */\n      tag_71\n      jump\t// in\n    tag_126:\n        /* \"#utility.yul\":1894:1897   */\n      dup5\n        /* \"#utility.yul\":1890:1929   */\n      add\n        /* \"#utility.yul\":1883:1929   */\n      swap2\n      pop\n        /* \"#utility.yul\":1650:1935   */\n      pop\n        /* \"#utility.yul\":1558:1935   */\n      swap3\n      swap2\n      pop\n      pop\n      jump\t// out\n        /* \"#utility.yul\":1941:2027   */\n    tag_73:\n        /* \"#utility.yul\":1976:1983   */\n      0x00\n        /* \"#utility.yul\":2016:2020   */\n      0xff\n        /* \"#utility.yul\":2009:2014   */\n      dup3\n        /* \"#utility.yul\":2005:2021   */\n      and\n        /* \"#utility.yul\":1994:2021   */\n      swap1\n      pop\n        /* \"#utility.yul\":1941:2027   */\n      swap2\n      swap1\n      pop\n      jump\t// out\n        /* \"#utility.yul\":2033:2145   */\n    tag_74:\n        /* \"#utility.yul\":2116:2138   */\n      tag_129\n        /* \"#utility.yul\":2132:2137   */\n      dup2\n        /* \"#utility.yul\":2116:2138   */\n      tag_73\n      jump\t// in\n    tag_129:\n        /* \"#utility.yul\":2111:2114   */\n      dup3\n        /* \"#utility.yul\":2104:2139   */\n      mstore\n        /* \"#utility.yul\":2033:2145   */\n      pop\n      pop\n      jump\t// out\n        /* \"#utility.yul\":2151:2566   */\n    tag_11:\n        /* \"#utility.yul\":2288:2292   */\n      0x00\n        /* \"#utility.yul\":2326:2328   */\n      0x40\n        /* \"#utility.yul\":2315:2324   */\n      dup3\n        /* \"#utility.yul\":2311:2329   */\n      add\n        /* \"#utility.yul\":2303:2329   */\n      swap1\n      pop\n        /* \"#utility.yul\":2375:2384   */\n      dup2\n        /* \"#utility.yul\":2369:2373   */\n      dup2\n        /* \"#utility.yul\":2365:2385   */\n      sub\n        /* \"#utility.yul\":2361:2362   */\n      0x00\n        /* \"#utility.yul\":2350:2359   */\n      dup4\n        /* \"#utility.yul\":2346:2363   */\n      add\n        /* \"#utility.yul\":2339:2386   */\n      mstore\n        /* \"#utility.yul\":2403:2481   */\n      tag_131\n        /* \"#utility.yul\":2476:2480   */\n      dup2\n        /* \"#utility.yul\":2467:2473   */\n      dup6\n        /* \"#utility.yul\":2403:2481   */\n      tag_72\n      jump\t// in\n    tag_131:\n        /* \"#utility.yul\":2395:2481   */\n      swap1\n      pop\n        /* \"#utility.yul\":2491:2559   */\n      tag_132\n        /* \"#utility.yul\":2555:2557   */\n      0x20\n        /* \"#utility.yul\":2544:2553   */\n      dup4\n        /* \"#utility.yul\":2540:2558   */\n      add\n        /* \"#utility.yul\":2531:2537   */\n      dup5\n        /* \"#utility.yul\":2491:2559   */\n      tag_74\n      jump\t// in\n    tag_132:\n        /* \"#utility.yul\":2151:2566   */\n      swap4\n      swap3\n      pop\n      pop\n      pop\n      jump\t// out\n        /* \"#utility.yul\":2572:2689   */\n    tag_75:\n        /* \"#utility.yul\":2681:2682   */\n      0x00\n        /* \"#utility.yul\":2678:2679   */\n      dup1\n        /* \"#utility.yul\":2671:2683   */\n      revert\n        /* \"#utility.yul\":2695:2812   */\n    tag_76:\n        /* \"#utility.yul\":2804:2805   */\n      0x00\n        /* \"#utility.yul\":2801:2802   */\n      dup1\n        /* \"#utility.yul\":2794:2806   */\n      revert\n        /* \"#utility.yul\":2818:2998   */\n    tag_30:\n        /* \"#utility.yul\":2866:2943   */\n      0x4e487b7100000000000000000000000000000000000000000000000000000000\n        /* \"#utility.yul\":2863:2864   */\n      0x00\n        /* \"#utility.yul\":2856:2944   */\n      mstore\n        /* \"#utility.yul\":2963:2967   */\n      0x41\n        /* \"#utility.yul\":2960:2961   */\n      0x04\n        /* \"#utility.yul\":2953:2968   */\n      mstore\n        /* \"#utility.yul\":2987:2991   */\n      0x24\n        /* \"#utility.yul\":2984:2985   */\n      0x00\n        /* \"#utility.yul\":2977:2992   */\n      revert\n        /* \"#utility.yul\":3004:3285   */\n    tag_77:\n        /* \"#utility.yul\":3087:3114   */\n      tag_137\n        /* \"#utility.yul\":3109:3113   */\n      dup3\n        /* \"#utility.yul\":3087:3114   */\n      tag_71\n      jump\t// in\n    tag_137:\n        /* \"#utility.yul\":3079:3085   */\n      dup2\n        /* \"#utility.yul\":3075:3115   */\n      add\n        /* \"#utility.yul\":3217:3223   */\n      dup2\n        /* \"#utility.yul\":3205:3215   */\n      dup2\n        /* \"#utility.yul\":3202:3224   */\n      lt\n        /* \"#utility.yul\":3181:3199   */\n      0xffffffffffffffff\n        /* \"#utility.yul\":3169:3179   */\n      dup3\n        /* \"#utility.yul\":3166:3200   */\n      gt\n        /* \"#utility.yul\":3163:3225   */\n      or\n        /* \"#utility.yul\":3160:3248   */\n      iszero\n      tag_138\n      jumpi\n        /* \"#utility.yul\":3228:3246   */\n      tag_139\n      tag_30\n      jump\t// in\n    tag_139:\n        /* \"#utility.yul\":3160:3248   */\n    tag_138:\n        /* \"#utility.yul\":3268:3278   */\n      dup1\n        /* \"#utility.yul\":3264:3266   */\n      0x40\n        /* \"#utility.yul\":3257:3279   */\n      mstore\n        /* \"#utility.yul\":3047:3285   */\n      pop\n        /* \"#utility.yul\":3004:3285   */\n      pop\n      pop\n      jump\t// out\n        /* \"#utility.yul\":3291:3420   */\n    tag_78:\n        /* \"#utility.yul\":3325:3331   */\n      0x00\n        /* \"#utility.yul\":3352:3372   */\n      tag_141\n      tag_62\n      jump\t// in\n    tag_141:\n        /* \"#utility.yul\":3342:3372   */\n      swap1\n      pop\n        /* \"#utility.yul\":3381:3414   */\n      tag_142\n        /* \"#utility.yul\":3409:3413   */\n      dup3\n        /* \"#utility.yul\":3401:3407   */\n      dup3\n        /* \"#utility.yul\":3381:3414   */\n      tag_77\n      jump\t// in\n    tag_142:\n        /* \"#utility.yul\":3291:3420   */\n      swap2\n      swap1\n      pop\n      jump\t// out\n        /* \"#utility.yul\":3426:3734   */\n    tag_79:\n        /* \"#utility.yul\":3488:3492   */\n      0x00\n        /* \"#utility.yul\":3578:3596   */\n      0xffffffffffffffff\n        /* \"#utility.yul\":3570:3576   */\n      dup3\n        /* \"#utility.yul\":3567:3597   */\n      gt\n        /* \"#utility.yul\":3564:3620   */\n      iszero\n      tag_144\n      jumpi\n        /* \"#utility.yul\":3600:3618   */\n      tag_145\n      tag_30\n      jump\t// in\n    tag_145:\n        /* \"#utility.yul\":3564:3620   */\n    tag_144:\n        /* \"#utility.yul\":3638:3667   */\n      tag_146\n        /* \"#utility.yul\":3660:3666   */\n      dup3\n        /* \"#utility.yul\":3638:3667   */\n      tag_71\n      jump\t// in\n    tag_146:\n        /* \"#utility.yul\":3630:3667   */\n      swap1\n      pop\n        /* \"#utility.yul\":3722:3726   */\n      0x20\n        /* \"#utility.yul\":3716:3720   */\n      dup2\n        /* \"#utility.yul\":3712:3727   */\n      add\n        /* \"#utility.yul\":3704:3727   */\n      swap1\n      pop\n        /* \"#utility.yul\":3426:3734   */\n      swap2\n      swap1\n      pop\n      jump\t// out\n        /* \"#utility.yul\":3740:3888   */\n    tag_80:\n        /* \"#utility.yul\":3838:3844   */\n      dup3\n        /* \"#utility.yul\":3833:3836   */\n      dup2\n        /* \"#utility.yul\":3828:3831   */\n      dup4\n        /* \"#utility.yul\":3815:3845   */\n      calldatacopy\n        /* \"#utility.yul\":3879:3880   */\n      0x00\n        /* \"#utility.yul\":3870:3876   */\n      dup4\n        /* \"#utility.yul\":3865:3868   */\n      dup4\n        /* \"#utility.yul\":3861:3877   */\n      add\n        /* \"#utility.yul\":3854:3881   */\n      mstore\n        /* \"#utility.yul\":3740:3888   */\n      pop\n      pop\n      pop\n      jump\t// out\n        /* \"#utility.yul\":3894:4319   */\n    tag_81:\n        /* \"#utility.yul\":3972:3977   */\n      0x00\n        /* \"#utility.yul\":3997:4063   */\n      tag_149\n        /* \"#utility.yul\":4013:4062   */\n      tag_150\n        /* \"#utility.yul\":4055:4061   */\n      dup5\n        /* \"#utility.yul\":4013:4062   */\n      tag_79\n      jump\t// in\n    tag_150:\n        /* \"#utility.yul\":3997:4063   */\n      tag_78\n      jump\t// in\n    tag_149:\n        /* \"#utility.yul\":3988:4063   */\n      swap1\n      pop\n        /* \"#utility.yul\":4086:4092   */\n      dup3\n        /* \"#utility.yul\":4079:4084   */\n      dup2\n        /* \"#utility.yul\":4072:4093   */\n      mstore\n        /* \"#utility.yul\":4124:4128   */\n      0x20\n        /* \"#utility.yul\":4117:4122   */\n      dup2\n        /* \"#utility.yul\":4113:4129   */\n      add\n        /* \"#utility.yul\":4162:4165   */\n      dup5\n        /* \"#utility.yul\":4153:4159   */\n      dup5\n        /* \"#utility.yul\":4148:4151   */\n      dup5\n        /* \"#utility.yul\":4144:4160   */\n      add\n        /* \"#utility.yul\":4141:4166   */\n      gt\n        /* \"#utility.yul\":4138:4250   */\n      iszero\n      tag_151\n      jumpi\n        /* \"#utility.yul\":4169:4248   */\n      tag_152\n      tag_76\n      jump\t// in\n    tag_152:\n        /* \"#utility.yul\":4138:4250   */\n    tag_151:\n        /* \"#utility.yul\":4259:4313   */\n      tag_153\n        /* \"#utility.yul\":4306:4312   */\n      dup5\n        /* \"#utility.yul\":4301:4304   */\n      dup3\n        /* \"#utility.yul\":4296:4299   */\n      dup6\n        /* \"#utility.yul\":4259:4313   */\n      tag_80\n      jump\t// in\n    tag_153:\n        /* \"#utility.yul\":3978:4319   */\n      pop\n        /* \"#utility.yul\":3894:4319   */\n      swap4\n      swap3\n      pop\n      pop\n      pop\n      jump\t// out\n        /* \"#utility.yul\":4339:4679   */\n    tag_82:\n        /* \"#utility.yul\":4395:4400   */\n      0x00\n        /* \"#utility.yul\":4444:4447   */\n      dup3\n        /* \"#utility.yul\":4437:4441   */\n      0x1f\n        /* \"#utility.yul\":4429:4435   */\n      dup4\n        /* \"#utility.yul\":4425:4442   */\n      add\n        /* \"#utility.yul\":4421:4448   */\n      slt\n        /* \"#utility.yul\":4411:4533   */\n      tag_155\n      jumpi\n        /* \"#utility.yul\":4452:4531   */\n      tag_156\n      tag_75\n      jump\t// in\n    tag_156:\n        /* \"#utility.yul\":4411:4533   */\n    tag_155:\n        /* \"#utility.yul\":4569:4575   */\n      dup2\n        /* \"#utility.yul\":4556:4576   */\n      calldataload\n        /* \"#utility.yul\":4594:4673   */\n      tag_157\n        /* \"#utility.yul\":4669:4672   */\n      dup5\n        /* \"#utility.yul\":4661:4667   */\n      dup3\n        /* \"#utility.yul\":4654:4658   */\n      0x20\n        /* \"#utility.yul\":4646:4652   */\n      dup7\n        /* \"#utility.yul\":4642:4659   */\n      add\n        /* \"#utility.yul\":4594:4673   */\n      tag_81\n      jump\t// in\n    tag_157:\n        /* \"#utility.yul\":4585:4673   */\n      swap2\n      pop\n        /* \"#utility.yul\":4401:4679   */\n      pop\n        /* \"#utility.yul\":4339:4679   */\n      swap3\n      swap2\n      pop\n      pop\n      jump\t// out\n        /* \"#utility.yul\":4685:4803   */\n    tag_83:\n        /* \"#utility.yul\":4756:4778   */\n      tag_159\n        /* \"#utility.yul\":4772:4777   */\n      dup2\n        /* \"#utility.yul\":4756:4778   */\n      tag_73\n      jump\t// in\n    tag_159:\n        /* \"#utility.yul\":4749:4754   */\n      dup2\n        /* \"#utility.yul\":4746:4779   */\n      eq\n        /* \"#utility.yul\":4736:4797   */\n      tag_160\n      jumpi\n        /* \"#utility.yul\":4793:4794   */\n      0x00\n        /* \"#utility.yul\":4790:4791   */\n      dup1\n        /* \"#utility.yul\":4783:4795   */\n      revert\n        /* \"#utility.yul\":4736:4797   */\n    tag_160:\n        /* \"#utility.yul\":4685:4803   */\n      pop\n      jump\t// out\n        /* \"#utility.yul\":4809:4944   */\n    tag_84:\n        /* \"#utility.yul\":4853:4858   */\n      0x00\n        /* \"#utility.yul\":4891:4897   */\n      dup2\n        /* \"#utility.yul\":4878:4898   */\n      calldataload\n        /* \"#utility.yul\":4869:4898   */\n      swap1\n      pop\n        /* \"#utility.yul\":4907:4938   */\n      tag_162\n        /* \"#utility.yul\":4932:4937   */\n      dup2\n        /* \"#utility.yul\":4907:4938   */\n      tag_83\n      jump\t// in\n    tag_162:\n        /* \"#utility.yul\":4809:4944   */\n      swap3\n      swap2\n      pop\n      pop\n      jump\t// out\n        /* \"#utility.yul\":4950:5600   */\n    tag_14:\n        /* \"#utility.yul\":5026:5032   */\n      0x00\n        /* \"#utility.yul\":5034:5040   */\n      dup1\n        /* \"#utility.yul\":5083:5085   */\n      0x40\n        /* \"#utility.yul\":5071:5080   */\n      dup4\n        /* \"#utility.yul\":5062:5069   */\n      dup6\n        /* \"#utility.yul\":5058:5081   */\n      sub\n        /* \"#utility.yul\":5054:5086   */\n      slt\n        /* \"#utility.yul\":5051:5170   */\n      iszero\n      tag_164\n      jumpi\n        /* \"#utility.yul\":5089:5168   */\n      tag_165\n      tag_63\n      jump\t// in\n    tag_165:\n        /* \"#utility.yul\":5051:5170   */\n    tag_164:\n        /* \"#utility.yul\":5237:5238   */\n      0x00\n        /* \"#utility.yul\":5226:5235   */\n      dup4\n        /* \"#utility.yul\":5222:5239   */\n      add\n        /* \"#utility.yul\":5209:5240   */\n      calldataload\n        /* \"#utility.yul\":5267:5285   */\n      0xffffffffffffffff\n        /* \"#utility.yul\":5259:5265   */\n      dup2\n        /* \"#utility.yul\":5256:5286   */\n      gt\n        /* \"#utility.yul\":5253:5370   */\n      iszero\n      tag_166\n      jumpi\n        /* \"#utility.yul\":5289:5368   */\n      tag_167\n      tag_64\n      jump\t// in\n    tag_167:\n        /* \"#utility.yul\":5253:5370   */\n    tag_166:\n        /* \"#utility.yul\":5394:5457   */\n      tag_168\n        /* \"#utility.yul\":5449:5456   */\n      dup6\n        /* \"#utility.yul\":5440:5446   */\n      dup3\n        /* \"#utility.yul\":5429:5438   */\n      dup7\n        /* \"#utility.yul\":5425:5447   */\n      add\n        /* \"#utility.yul\":5394:5457   */\n      tag_82\n      jump\t// in\n    tag_168:\n        /* \"#utility.yul\":5384:5457   */\n      swap3\n      pop\n        /* \"#utility.yul\":5180:5467   */\n      pop\n        /* \"#utility.yul\":5506:5508   */\n      0x20\n        /* \"#utility.yul\":5532:5583   */\n      tag_169\n        /* \"#utility.yul\":5575:5582   */\n      dup6\n        /* \"#utility.yul\":5566:5572   */\n      dup3\n        /* \"#utility.yul\":5555:5564   */\n      dup7\n        /* \"#utility.yul\":5551:5573   */\n      add\n        /* \"#utility.yul\":5532:5583   */\n      tag_84\n      jump\t// in\n    tag_169:\n        /* \"#utility.yul\":5522:5583   */\n      swap2\n      pop\n        /* \"#utility.yul\":5477:5593   */\n      pop\n        /* \"#utility.yul\":4950:5600   */\n      swap3\n      pop\n      swap3\n      swap1\n      pop\n      jump\t// out\n        /* \"#utility.yul\":5606:5786   */\n    tag_85:\n        /* \"#utility.yul\":5654:5731   */\n      0x4e487b7100000000000000000000000000000000000000000000000000000000\n        /* \"#utility.yul\":5651:5652   */\n      0x00\n        /* \"#utility.yul\":5644:5732   */\n      mstore\n        /* \"#utility.yul\":5751:5755   */\n      0x22\n        /* \"#utility.yul\":5748:5749   */\n      0x04\n        /* \"#utility.yul\":5741:5756   */\n      mstore\n        /* \"#utility.yul\":5775:5779   */\n      0x24\n        /* \"#utility.yul\":5772:5773   */\n      0x00\n        /* \"#utility.yul\":5765:5780   */\n      revert\n        /* \"#utility.yul\":5792:6112   */\n    tag_22:\n        /* \"#utility.yul\":5836:5842   */\n      0x00\n        /* \"#utility.yul\":5873:5874   */\n      0x02\n        /* \"#utility.yul\":5867:5871   */\n      dup3\n        /* \"#utility.yul\":5863:5875   */\n      div\n        /* \"#utility.yul\":5853:5875   */\n      swap1\n      pop\n        /* \"#utility.yul\":5920:5921   */\n      0x01\n        /* \"#utility.yul\":5914:5918   */\n      dup3\n        /* \"#utility.yul\":5910:5922   */\n      and\n        /* \"#utility.yul\":5941:5959   */\n      dup1\n        /* \"#utility.yul\":5931:6012   */\n      tag_172\n      jumpi\n        /* \"#utility.yul\":5997:6001   */\n      0x7f\n        /* \"#utility.yul\":5989:5995   */\n      dup3\n        /* \"#utility.yul\":5985:6002   */\n      and\n        /* \"#utility.yul\":5975:6002   */\n      swap2\n      pop\n        /* \"#utility.yul\":5931:6012   */\n    tag_172:\n        /* \"#utility.yul\":6059:6061   */\n      0x20\n        /* \"#utility.yul\":6051:6057   */\n      dup3\n        /* \"#utility.yul\":6048:6062   */\n      lt\n        /* \"#utility.yul\":6028:6046   */\n      dup2\n        /* \"#utility.yul\":6025:6063   */\n      sub\n        /* \"#utility.yul\":6022:6106   */\n      tag_173\n      jumpi\n        /* \"#utility.yul\":6078:6096   */\n      tag_174\n      tag_85\n      jump\t// in\n    tag_174:\n        /* \"#utility.yul\":6022:6106   */\n    tag_173:\n        /* \"#utility.yul\":5843:6112   */\n      pop\n        /* \"#utility.yul\":5792:6112   */\n      swap2\n      swap1\n      pop\n      jump\t// out\n        /* \"#utility.yul\":6118:6259   */\n    tag_86:\n        /* \"#utility.yul\":6167:6171   */\n      0x00\n        /* \"#utility.yul\":6190:6193   */\n      dup2\n        /* \"#utility.yul\":6182:6193   */\n      swap1\n      pop\n        /* \"#utility.yul\":6213:6216   */\n      dup2\n        /* \"#utility.yul\":6210:6211   */\n      0x00\n        /* \"#utility.yul\":6203:6217   */\n      mstore\n        /* \"#utility.yul\":6247:6251   */\n      0x20\n        /* \"#utility.yul\":6244:6245   */\n      0x00\n        /* \"#utility.yul\":6234:6252   */\n      keccak256\n        /* \"#utility.yul\":6226:6252   */\n      swap1\n      pop\n        /* \"#utility.yul\":6118:6259   */\n      swap2\n      swap1\n      pop\n      jump\t// out\n        /* \"#utility.yul\":6265:6358   */\n    tag_87:\n        /* \"#utility.yul\":6302:6308   */\n      0x00\n        /* \"#utility.yul\":6349:6351   */\n      0x20\n        /* \"#utility.yul\":6344:6346   */\n      0x1f\n        /* \"#utility.yul\":6337:6342   */\n      dup4\n        /* \"#utility.yul\":6333:6347   */\n      add\n        /* \"#utility.yul\":6329:6352   */\n      div\n        /* \"#utility.yul\":6319:6352   */\n      swap1\n      pop\n        /* \"#utility.yul\":6265:6358   */\n      swap2\n      swap1\n      pop\n      jump\t// out\n        /* \"#utility.yul\":6364:6471   */\n    tag_88:\n        /* \"#utility.yul\":6408:6416   */\n      0x00\n        /* \"#utility.yul\":6458:6463   */\n      dup3\n        /* \"#utility.yul\":6452:6456   */\n      dup3\n        /* \"#utility.yul\":6448:6464   */\n      shl\n        /* \"#utility.yul\":6427:6464   */\n      swap1\n      pop\n        /* \"#utility.yul\":6364:6471   */\n      swap3\n      swap2\n      pop\n      pop\n      jump\t// out\n        /* \"#utility.yul\":6477:6870   */\n    tag_89:\n        /* \"#utility.yul\":6546:6552   */\n      0x00\n        /* \"#utility.yul\":6596:6597   */\n      0x08\n        /* \"#utility.yul\":6584:6594   */\n      dup4\n        /* \"#utility.yul\":6580:6598   */\n      mul\n        /* \"#utility.yul\":6619:6716   */\n      tag_179\n        /* \"#utility.yul\":6649:6715   */\n      0xffffffffffffffffffffffffffffffffffffffffffffffffffffffffffffffff\n        /* \"#utility.yul\":6638:6647   */\n      dup3\n        /* \"#utility.yul\":6619:6716   */\n      tag_88\n      jump\t// in\n    tag_179:\n        /* \"#utility.yul\":6737:6776   */\n      tag_180\n        /* \"#utility.yul\":6767:6775   */\n      dup7\n        /* \"#utility.yul\":6756:6765   */\n      dup4\n        /* \"#utility.yul\":6737:6776   */\n      tag_88\n      jump\t// in\n    tag_180:\n        /* \"#utility.yul\":6725:6776   */\n      swap6\n      pop\n        /* \"#utility.yul\":6809:6813   */\n      dup1\n        /* \"#utility.yul\":6805:6814   */\n      not\n        /* \"#utility.yul\":6798:6803   */\n      dup5\n        /* \"#utility.yul\":6794:6815   */\n      and\n        /* \"#utility.yul\":6785:6815   */\n      swap4\n      pop\n        /* \"#utility.yul\":6858:6862   */\n      dup1\n        /* \"#utility.yul\":6848:6856   */\n      dup7\n        /* \"#utility.yul\":6844:6863   */\n      and\n        /* \"#utility.yul\":6837:6842   */\n      dup5\n        /* \"#utility.yul\":6834:6864   */\n      or\n        /* \"#utility.yul\":6824:6864   */\n      swap3\n      pop\n        /* \"#utility.yul\":6553:6870   */\n      pop\n      pop\n        /* \"#utility.yul\":6477:6870   */\n      swap4\n      swap3\n      pop\n      pop\n      pop\n      jump\t// out\n        /* \"#utility.yul\":6876:6936   */\n    tag_90:\n        /* \"#utility.yul\":6904:6907   */\n      0x00\n        /* \"#utility.yul\":6925:6930   */\n      dup2\n        /* \"#utility.yul\":6918:6930   */\n      swap1\n      pop\n        /* \"#utility.yul\":6876:6936   */\n      swap2\n      swap1\n      pop\n      jump\t// out\n        /* \"#utility.yul\":6942:7084   */\n    tag_91:\n        /* \"#utility.yul\":6992:7001   */\n      0x00\n        /* \"#utility.yul\":7025:7078   */\n      tag_183\n        /* \"#utility.yul\":7043:7077   */\n      tag_184\n        /* \"#utility.yul\":7052:7076   */\n      tag_185\n        /* \"#utility.yul\":7070:7075   */\n      dup5\n        /* \"#utility.yul\":7052:7076   */\n      tag_65\n      jump\t// in\n    tag_185:\n        /* \"#utility.yul\":7043:7077   */\n      tag_90\n      jump\t// in\n    tag_184:\n        /* \"#utility.yul\":7025:7078   */\n      tag_65\n      jump\t// in\n    tag_183:\n        /* \"#utility.yul\":7012:7078   */\n      swap1\n      pop\n        /* \"#utility.yul\":6942:7084   */\n      swap2\n      swap1\n      pop\n      jump\t// out\n        /* \"#utility.yul\":7090:7165   */\n    tag_92:\n        /* \"#utility.yul\":7133:7136   */\n      0x00\n        /* \"#utility.yul\":7154:7159   */\n      dup2\n        /* \"#utility.yul\":7147:7159   */\n      swap1\n      pop\n        /* \"#utility.yul\":7090:7165   */\n      swap2\n      swap1\n      pop\n      jump\t// out\n        /* \"#utility.yul\":7171:7440   */\n    tag_93:\n        /* \"#utility.yul\":7281:7320   */\n      tag_188\n        /* \"#utility.yul\":7312:7319   */\n      dup4\n        /* \"#utility.yul\":7281:7320   */\n      tag_91\n      jump\t// in\n    tag_188:\n        /* \"#utility.yul\":7342:7433   */\n      tag_189\n        /* \"#utility.yul\":7391:7432   */\n      tag_190\n        /* \"#utility.yul\":7415:7431   */\n      dup3\n        /* \"#utility.yul\":7391:7432   */\n      tag_92\n      jump\t// in\n    tag_190:\n        /* \"#utility.yul\":7383:7389   */\n      dup5\n        /* \"#utility.yul\":7376:7380   */\n      dup5\n        /* \"#utility.yul\":7370:7381   */\n      sload\n        /* \"#utility.yul\":7342:7433   */\n      tag_89\n      jump\t// in\n    tag_189:\n        /* \"#utility.yul\":7336:7340   */\n      dup3\n        /* \"#utility.yul\":7329:7434   */\n      sstore\n        /* \"#utility.yul\":7247:7440   */\n      pop\n        /* \"#utility.yul\":7171:7440   */\n      pop\n      pop\n      pop\n      jump\t// out\n        /* \"#utility.yul\":7446:7519   */\n    tag_94:\n        /* \"#utility.yul\":7491:7494   */\n      0x00\n        /* \"#utility.yul\":7446:7519   */\n      swap1\n      jump\t// out\n        /* \"#utility.yul\":7525:7714   */\n    tag_95:\n        /* \"#utility.yul\":7602:7634   */\n      tag_193\n      tag_94\n      jump\t// in\n    tag_193:\n        /* \"#utility.yul\":7643:7708   */\n      tag_194\n        /* \"#utility.yul\":7701:7707   */\n      dup2\n        /* \"#utility.yul\":7693:7699   */\n      dup5\n        /* \"#utility.yul\":7687:7691   */\n      dup5\n        /* \"#utility.yul\":7643:7708   */\n      tag_93\n      jump\t// in\n    tag_194:\n        /* \"#utility.yul\":7578:7714   */\n      pop\n        /* \"#utility.yul\":7525:7714   */\n      pop\n      pop\n      jump\t// out\n        /* \"#utility.yul\":7720:7906   */\n    tag_96:\n        /* \"#utility.yul\":7780:7900   */\n    tag_196:\n        /* \"#utility.yul\":7797:7800   */\n      dup2\n        /* \"#utility.yul\":7790:7795   */\n      dup2\n        /* \"#utility.yul\":7787:7801   */\n      lt\n        /* \"#utility.yul\":7780:7900   */\n      iszero\n      tag_198\n      jumpi\n        /* \"#utility.yul\":7851:7890   */\n      tag_199\n        /* \"#utility.yul\":7888:7889   */\n      0x00\n        /* \"#utility.yul\":7881:7886   */\n      dup3\n        /* \"#utility.yul\":7851:7890   */\n      tag_95\n      jump\t// in\n    tag_199:\n        /* \"#utility.yul\":7824:7825   */\n      0x01\n        /* \"#utility.yul\":7817:7822   */\n      dup2\n        /* \"#utility.yul\":7813:7826   */\n      add\n        /* \"#utility.yul\":7804:7826   */\n      swap1\n      pop\n        /* \"#utility.yul\":7780:7900   */\n      jump(tag_196)\n    tag_198:\n        /* \"#utility.yul\":7720:7906   */\n      pop\n      pop\n      jump\t// out\n        /* \"#utility.yul\":7912:8455   */\n    tag_97:\n        /* \"#utility.yul\":8013:8015   */\n      0x1f\n        /* \"#utility.yul\":8008:8011   */\n      dup3\n        /* \"#utility.yul\":8005:8016   */\n      gt\n        /* \"#utility.yul\":8002:8448   */\n      iszero\n      tag_201\n      jumpi\n        /* \"#utility.yul\":8047:8085   */\n      tag_202\n        /* \"#utility.yul\":8079:8084   */\n      dup2\n        /* \"#utility.yul\":8047:8085   */\n      tag_86\n      jump\t// in\n    tag_202:\n        /* \"#utility.yul\":8131:8160   */\n      tag_203\n        /* \"#utility.yul\":8149:8159   */\n      dup5\n        /* \"#utility.yul\":8131:8160   */\n      tag_87\n      jump\t// in\n    tag_203:\n        /* \"#utility.yul\":8121:8129   */\n      dup2\n        /* \"#utility.yul\":8117:8161   */\n      add\n        /* \"#utility.yul\":8314:8316   */\n      0x20\n        /* \"#utility.yul\":8302:8312   */\n      dup6\n        /* \"#utility.yul\":8299:8317   */\n      lt\n        /* \"#utility.yul\":8296:8345   */\n      iszero\n      tag_204\n      jumpi\n        /* \"#utility.yul\":8335:8343   */\n      dup2\n        /* \"#utility.yul\":8320:8343   */\n      swap1\n      pop\n        /* \"#utility.yul\":8296:8345   */\n    tag_204:\n        /* \"#utility.yul\":8358:8438   */\n      tag_205\n        /* \"#utility.yul\":8414:8436   */\n      tag_206\n        /* \"#utility.yul\":8432:8435   */\n      dup6\n        /* \"#utility.yul\":8414:8436   */\n      tag_87\n      jump\t// in\n    tag_206:\n        /* \"#utility.yul\":8404:8412   */\n      dup4\n        /* \"#utility.yul\":8400:8437   */\n      add\n        /* \"#utility.yul\":8387:8398   */\n      dup3\n        /* \"#utility.yul\":8358:8438   */\n      tag_96\n      jump\t// in\n    tag_205:\n        /* \"#utility.yul\":8017:8448   */\n      pop\n      pop\n        /* \"#utility.yul\":8002:8448   */\n    tag_201:\n        /* \"#utility.yul\":7912:8455   */\n      pop\n      pop\n      pop\n      jump\t// out\n        /* \"#utility.yul\":8461:8578   */\n    tag_98:\n        /* \"#utility.yul\":8515:8523   */\n      0x00\n        /* \"#utility.yul\":8565:8570   */\n      dup3\n        /* \"#utility.yul\":8559:8563   */\n      dup3\n        /* \"#utility.yul\":8555:8571   */\n      shr\n        /* \"#utility.yul\":8534:8571   */\n      swap1\n      pop\n        /* \"#utility.yul\":8461:8578   */\n      swap3\n      swap2\n      pop\n      pop\n      jump\t// out\n        /* \"#utility.yul\":8584:8753   */\n    tag_99:\n        /* \"#utility.yul\":8628:8634   */\n      0x00\n        /* \"#utility.yul\":8661:8712   */\n      tag_209\n        /* \"#utility.yul\":8709:8710   */\n      0x00\n        /* \"#utility.yul\":8705:8711   */\n      not\n        /* \"#utility.yul\":8697:8702   */\n      dup5\n        /* \"#utility.yul\":8694:8695   */\n      0x08\n        /* \"#utility.yul\":8690:8703   */\n      mul\n        /* \"#utility.yul\":8661:8712   */\n      tag_98\n      jump\t// in\n    tag_209:\n        /* \"#utility.yul\":8657:8713   */\n      not\n        /* \"#utility.yul\":8742:8746   */\n      dup1\n        /* \"#utility.yul\":8736:8740   */\n      dup4\n        /* \"#utility.yul\":8732:8747   */\n      and\n        /* \"#utility.yul\":8722:8747   */\n      swap2\n      pop\n        /* \"#utility.yul\":8635:8753   */\n      pop\n        /* \"#utility.yul\":8584:8753   */\n      swap3\n      swap2\n      pop\n      pop\n      jump\t// out\n        /* \"#utility.yul\":8758:9053   */\n    tag_100:\n        /* \"#utility.yul\":8834:8838   */\n      0x00\n        /* \"#utility.yul\":8980:9009   */\n      tag_211\n        /* \"#utility.yul\":9005:9008   */\n      dup4\n        /* \"#utility.yul\":8999:9003   */\n      dup4\n        /* \"#utility.yul\":8980:9009   */\n      tag_99\n      jump\t// in\n    tag_211:\n        /* \"#utility.yul\":8972:9009   */\n      swap2\n      pop\n        /* \"#utility.yul\":9042:9045   */\n      dup3\n        /* \"#utility.yul\":9039:9040   */\n      0x02\n        /* \"#utility.yul\":9035:9046   */\n      mul\n        /* \"#utility.yul\":9029:9033   */\n      dup3\n        /* \"#utility.yul\":9026:9047   */\n      or\n        /* \"#utility.yul\":9018:9047   */\n      swap1\n      pop\n        /* \"#utility.yul\":8758:9053   */\n      swap3\n      swap2\n      pop\n      pop\n      jump\t// out\n        /* \"#utility.yul\":9058:10453   */\n    tag_34:\n        /* \"#utility.yul\":9175:9212   */\n      tag_213\n        /* \"#utility.yul\":9208:9211   */\n      dup3\n        /* \"#utility.yul\":9175:9212   */\n      tag_68\n      jump\t// in\n    tag_213:\n        /* \"#utility.yul\":9277:9295   */\n      0xffffffffffffffff\n        /* \"#utility.yul\":9269:9275   */\n      dup2\n        /* \"#utility.yul\":9266:9296   */\n      gt\n        /* \"#utility.yul\":9263:9319   */\n      iszero\n      tag_214\n      jumpi\n        /* \"#utility.yul\":9299:9317   */\n      tag_215\n      tag_30\n      jump\t// in\n    tag_215:\n        /* \"#utility.yul\":9263:9319   */\n    tag_214:\n        /* \"#utility.yul\":9343:9381   */\n      tag_216\n        /* \"#utility.yul\":9375:9379   */\n      dup3\n        /* \"#utility.yul\":9369:9380   */\n      sload\n        /* \"#utility.yul\":9343:9381   */\n      tag_22\n      jump\t// in\n    tag_216:\n        /* \"#utility.yul\":9428:9495   */\n      tag_217\n        /* \"#utility.yul\":9488:9494   */\n      dup3\n        /* \"#utility.yul\":9480:9486   */\n      dup3\n        /* \"#utility.yul\":9474:9478   */\n      dup6\n        /* \"#utility.yul\":9428:9495   */\n      tag_97\n      jump\t// in\n    tag_217:\n        /* \"#utility.yul\":9522:9523   */\n      0x00\n        /* \"#utility.yul\":9546:9550   */\n      0x20\n        /* \"#utility.yul\":9533:9550   */\n      swap1\n      pop\n        /* \"#utility.yul\":9578:9580   */\n      0x1f\n        /* \"#utility.yul\":9570:9576   */\n      dup4\n        /* \"#utility.yul\":9567:9581   */\n      gt\n        /* \"#utility.yul\":9595:9596   */\n      0x01\n        /* \"#utility.yul\":9590:10208   */\n      dup2\n      eq\n      tag_219\n      jumpi\n        /* \"#utility.yul\":10252:10253   */\n      0x00\n        /* \"#utility.yul\":10269:10275   */\n      dup5\n        /* \"#utility.yul\":10266:10343   */\n      iszero\n      tag_220\n      jumpi\n        /* \"#utility.yul\":10318:10327   */\n      dup3\n        /* \"#utility.yul\":10313:10316   */\n      dup8\n        /* \"#utility.yul\":10309:10328   */\n      add\n        /* \"#utility.yul\":10303:10329   */\n      mload\n        /* \"#utility.yul\":10294:10329   */\n      swap1\n      pop\n        /* \"#utility.yul\":10266:10343   */\n    tag_220:\n        /* \"#utility.yul\":10369:10436   */\n      tag_221\n        /* \"#utility.yul\":10429:10435   */\n      dup6\n        /* \"#utility.yul\":10422:10427   */\n      dup3\n        /* \"#utility.yul\":10369:10436   */\n      tag_100\n      jump\t// in\n    tag_221:\n        /* \"#utility.yul\":10363:10367   */\n      dup7\n        /* \"#utility.yul\":10356:10437   */\n      sstore\n        /* \"#utility.yul\":10225:10447   */\n      pop\n        /* \"#utility.yul\":9560:10447   */\n      jump(tag_218)\n        /* \"#utility.yul\":9590:10208   */\n    tag_219:\n        /* \"#utility.yul\":9642:9646   */\n      0x1f\n        /* \"#utility.yul\":9638:9647   */\n      not\n        /* \"#utility.yul\":9630:9636   */\n      dup5\n        /* \"#utility.yul\":9626:9648   */\n      and\n        /* \"#utility.yul\":9676:9713   */\n      tag_222\n        /* \"#utility.yul\":9708:9712   */\n      dup7\n        /* \"#utility.yul\":9676:9713   */\n      tag_86\n      jump\t// in\n    tag_222:\n        /* \"#utility.yul\":9735:9736   */\n      0x00\n        /* \"#utility.yul\":9749:9957   */\n    tag_223:\n        /* \"#utility.yul\":9763:9770   */\n      dup3\n        /* \"#utility.yul\":9760:9761   */\n      dup2\n        /* \"#utility.yul\":9757:9771   */\n      lt\n        /* \"#utility.yul\":9749:9957   */\n      iszero\n      tag_225\n      jumpi\n        /* \"#utility.yul\":9842:9851   */\n      dup5\n        /* \"#utility.yul\":9837:9840   */\n      dup10\n        /* \"#utility.yul\":9833:9852   */\n      add\n        /* \"#utility.yul\":9827:9853   */\n      mload\n        /* \"#utility.yul\":9819:9825   */\n      dup3\n        /* \"#utility.yul\":9812:9854   */\n      sstore\n        /* \"#utility.yul\":9893:9894   */\n      0x01\n        /* \"#utility.yul\":9885:9891   */\n      dup3\n        /* \"#utility.yul\":9881:9895   */\n      add\n        /* \"#utility.yul\":9871:9895   */\n      swap2\n      pop\n        /* \"#utility.yul\":9940:9942   */\n      0x20\n        /* \"#utility.yul\":9929:9938   */\n      dup6\n        /* \"#utility.yul\":9925:9943   */\n      add\n        /* \"#utility.yul\":9912:9943   */\n      swap5\n      pop\n        /* \"#utility.yul\":9786:9790   */\n      0x20\n        /* \"#utility.yul\":9783:9784   */\n      dup2\n        /* \"#utility.yul\":9779:9791   */\n      add\n        /* \"#utility.yul\":9774:9791   */\n      swap1\n      pop\n        /* \"#utility.yul\":9749:9957   */\n      jump(tag_223)\n    tag_225:\n        /* \"#utility.yul\":9985:9991   */\n      dup7\n        /* \"#utility.yul\":9976:9983   */\n      dup4\n        /* \"#utility.yul\":9973:9992   */\n      lt\n        /* \"#utility.yul\":9970:10149   */\n      iszero\n      tag_226\n      jumpi\n        /* \"#utility.yul\":10043:10052   */\n      dup5\n        /* \"#utility.yul\":10038:10041   */\n      dup10\n        /* \"#utility.yul\":10034:10053   */\n      add\n        /* \"#utility.yul\":10028:10054   */\n      mload\n        /* \"#utility.yul\":10086:10134   */\n      tag_227\n        /* \"#utility.yul\":10128:10132   */\n      0x1f\n        /* \"#utility.yul\":10120:10126   */\n      dup10\n        /* \"#utility.yul\":10116:10133   */\n      and\n        /* \"#utility.yul\":10105:10114   */\n      dup3\n        /* \"#utility.yul\":10086:10134   */\n      tag_99\n      jump\t// in\n    tag_227:\n        /* \"#utility.yul\":10078:10084   */\n      dup4\n        /* \"#utility.yul\":10071:10135   */\n      sstore\n        /* \"#utility.yul\":9993:10149   */\n      pop\n        /* \"#utility.yul\":9970:10149   */\n    tag_226:\n        /* \"#utility.yul\":10195:10196   */\n      0x01\n        /* \"#utility.yul\":10191:10192   */\n      0x02\n        /* \"#utility.yul\":10183:10189   */\n      dup9\n        /* \"#utility.yul\":10179:10193   */\n      mul\n        /* \"#utility.yul\":10175:10197   */\n      add\n        /* \"#utility.yul\":10169:10173   */\n      dup9\n        /* \"#utility.yul\":10162:10198   */\n      sstore\n        /* \"#utility.yul\":9597:10208   */\n      pop\n      pop\n      pop\n        /* \"#utility.yul\":9560:10447   */\n    tag_218:\n      pop\n        /* \"#utility.yul\":9150:10453   */\n      pop\n      pop\n      pop\n        /* \"#utility.yul\":9058:10453   */\n      pop\n      pop\n      jump\t// out\n        /* \"#utility.yul\":10459:10607   */\n    tag_101:\n        /* \"#utility.yul\":10561:10572   */\n      0x00\n        /* \"#utility.yul\":10598:10601   */\n      dup2\n        /* \"#utility.yul\":10583:10601   */\n      swap1\n      pop\n        /* \"#utility.yul\":10459:10607   */\n      swap3\n      swap2\n      pop\n      pop\n      jump\t// out\n        /* \"#utility.yul\":10613:11003   */\n    tag_102:\n        /* \"#utility.yul\":10719:10722   */\n      0x00\n        /* \"#utility.yul\":10747:10786   */\n      tag_230\n        /* \"#utility.yul\":10780:10785   */\n      dup3\n        /* \"#utility.yul\":10747:10786   */\n      tag_68\n      jump\t// in\n    tag_230:\n        /* \"#utility.yul\":10802:10891   */\n      tag_231\n        /* \"#utility.yul\":10884:10890   */\n      dup2\n        /* \"#utility.yul\":10879:10882   */\n      dup6\n        /* \"#utility.yul\":10802:10891   */\n      tag_101\n      jump\t// in\n    tag_231:\n        /* \"#utility.yul\":10795:10891   */\n      swap4\n      pop\n        /* \"#utility.yul\":10900:10965   */\n      tag_232\n        /* \"#utility.yul\":10958:10964   */\n      dup2\n        /* \"#utility.yul\":10953:10956   */\n      dup6\n        /* \"#utility.yul\":10946:10950   */\n      0x20\n        /* \"#utility.yul\":10939:10944   */\n      dup7\n        /* \"#utility.yul\":10935:10951   */\n      add\n        /* \"#utility.yul\":10900:10965   */\n      tag_70\n      jump\t// in\n    tag_232:\n        /* \"#utility.yul\":10990:10996   */\n      dup1\n        /* \"#utility.yul\":10985:10988   */\n      dup5\n        /* \"#utility.yul\":10981:10997   */\n      add\n        /* \"#utility.yul\":10974:10997   */\n      swap2\n      pop\n        /* \"#utility.yul\":10723:11003   */\n      pop\n        /* \"#utility.yul\":10613:11003   */\n      swap3\n      swap2\n      pop\n      pop\n      jump\t// out\n        /* \"#utility.yul\":11009:11284   */\n    tag_42:\n        /* \"#utility.yul\":11141:11144   */\n      0x00\n        /* \"#utility.yul\":11163:11258   */\n      tag_234\n        /* \"#utility.yul\":11254:11257   */\n      dup3\n        /* \"#utility.yul\":11245:11251   */\n      dup5\n        /* \"#utility.yul\":11163:11258   */\n      tag_102\n      jump\t// in\n    tag_234:\n        /* \"#utility.yul\":11156:11258   */\n      swap2\n      pop\n        /* \"#utility.yul\":11275:11278   */\n      dup2\n        /* \"#utility.yul\":11268:11278   */\n      swap1\n      pop\n        /* \"#utility.yul\":11009:11284   */\n      swap3\n      swap2\n      pop\n      pop\n      jump\t// out\n        /* \"#utility.yul\":11290:11470   */\n    tag_45:\n        /* \"#utility.yul\":11338:11415   */\n      0x4e487b7100000000000000000000000000000000000000000000000000000000\n        /* \"#utility.yul\":11335:11336   */\n      0x00\n        /* \"#utility.yul\":11328:11416   */\n      mstore\n        /* \"#utility.yul\":11435:11439   */\n      0x32\n        /* \"#utility.yul\":11432:11433   */\n      0x04\n        /* \"#utility.yul\":11425:11440   */\n      mstore\n        /* \"#utility.yul\":11459:11463   */\n      0x24\n        /* \"#utility.yul\":11456:11457   */\n      0x00\n        /* \"#utility.yul\":11449:11464   */\n      revert\n        /* \"#utility.yul\":11500:12374   */\n    tag_103:\n        /* \"#utility.yul\":11603:11606   */\n      0x00\n        /* \"#utility.yul\":11640:11645   */\n      dup2\n        /* \"#utility.yul\":11634:11646   */\n      sload\n        /* \"#utility.yul\":11669:11705   */\n      tag_237\n        /* \"#utility.yul\":11695:11704   */\n      dup2\n        /* \"#utility.yul\":11669:11705   */\n      tag_22\n      jump\t// in\n    tag_237:\n        /* \"#utility.yul\":11721:11810   */\n      tag_238\n        /* \"#utility.yul\":11803:11809   */\n      dup2\n        /* \"#utility.yul\":11798:11801   */\n      dup7\n        /* \"#utility.yul\":11721:11810   */\n      tag_101\n      jump\t// in\n    tag_238:\n        /* \"#utility.yul\":11714:11810   */\n      swap5\n      pop\n        /* \"#utility.yul\":11841:11842   */\n      0x01\n        /* \"#utility.yul\":11830:11839   */\n      dup3\n        /* \"#utility.yul\":11826:11843   */\n      and\n        /* \"#utility.yul\":11857:11858   */\n      0x00\n        /* \"#utility.yul\":11852:12018   */\n      dup2\n      eq\n      tag_240\n      jumpi\n        /* \"#utility.yul\":12032:12033   */\n      0x01\n        /* \"#utility.yul\":12027:12368   */\n      dup2\n      eq\n      tag_241\n      jumpi\n        /* \"#utility.yul\":11819:12368   */\n      jump(tag_239)\n        /* \"#utility.yul\":11852:12018   */\n    tag_240:\n        /* \"#utility.yul\":11936:11940   */\n      0xff\n        /* \"#utility.yul\":11932:11941   */\n      not\n        /* \"#utility.yul\":11921:11930   */\n      dup4\n        /* \"#utility.yul\":11917:11942   */\n      and\n        /* \"#utility.yul\":11912:11915   */\n      dup7\n        /* \"#utility.yul\":11905:11943   */\n      mstore\n        /* \"#utility.yul\":11998:12004   */\n      dup2\n        /* \"#utility.yul\":11991:12005   */\n      iszero\n        /* \"#utility.yul\":11984:12006   */\n      iszero\n        /* \"#utility.yul\":11976:11982   */\n      dup3\n        /* \"#utility.yul\":11972:12007   */\n      mul\n        /* \"#utility.yul\":11967:11970   */\n      dup7\n        /* \"#utility.yul\":11963:12008   */\n      add\n        /* \"#utility.yul\":11956:12008   */\n      swap4\n      pop\n        /* \"#utility.yul\":11852:12018   */\n      jump(tag_239)\n        /* \"#utility.yul\":12027:12368   */\n    tag_241:\n        /* \"#utility.yul\":12094:12132   */\n      tag_242\n        /* \"#utility.yul\":12126:12131   */\n      dup6\n        /* \"#utility.yul\":12094:12132   */\n      tag_86\n      jump\t// in\n    tag_242:\n        /* \"#utility.yul\":12154:12155   */\n      0x00\n        /* \"#utility.yul\":12168:12322   */\n    tag_243:\n        /* \"#utility.yul\":12182:12188   */\n      dup4\n        /* \"#utility.yul\":12179:12180   */\n      dup2\n        /* \"#utility.yul\":12176:12189   */\n      lt\n        /* \"#utility.yul\":12168:12322   */\n      iszero\n      tag_245\n      jumpi\n        /* \"#utility.yul\":12256:12263   */\n      dup2\n        /* \"#utility.yul\":12250:12264   */\n      sload\n        /* \"#utility.yul\":12246:12247   */\n      dup2\n        /* \"#utility.yul\":12241:12244   */\n      dup10\n        /* \"#utility.yul\":12237:12248   */\n      add\n        /* \"#utility.yul\":12230:12265   */\n      mstore\n        /* \"#utility.yul\":12306:12307   */\n      0x01\n        /* \"#utility.yul\":12297:12304   */\n      dup3\n        /* \"#utility.yul\":12293:12308   */\n      add\n        /* \"#utility.yul\":12282:12308   */\n      swap2\n      pop\n        /* \"#utility.yul\":12204:12208   */\n      0x20\n        /* \"#utility.yul\":12201:12202   */\n      dup2\n        /* \"#utility.yul\":12197:12209   */\n      add\n        /* \"#utility.yul\":12192:12209   */\n      swap1\n      pop\n        /* \"#utility.yul\":12168:12322   */\n      jump(tag_243)\n    tag_245:\n        /* \"#utility.yul\":12351:12357   */\n      dup4\n        /* \"#utility.yul\":12346:12349   */\n      dup9\n        /* \"#utility.yul\":12342:12358   */\n      add\n        /* \"#utility.yul\":12335:12358   */\n      swap6\n      pop\n        /* \"#utility.yul\":12034:12368   */\n      pop\n      pop\n        /* \"#utility.yul\":11819:12368   */\n    tag_239:\n      pop\n        /* \"#utility.yul\":11607:12374   */\n      pop\n      pop\n        /* \"#utility.yul\":11500:12374   */\n      swap3\n      swap2\n      pop\n      pop\n      jump\t// out\n        /* \"#utility.yul\":12380:12649   */\n    tag_48:\n        /* \"#utility.yul\":12509:12512   */\n      0x00\n        /* \"#utility.yul\":12531:12623   */\n      tag_247\n        /* \"#utility.yul\":12619:12622   */\n      dup3\n        /* \"#utility.yul\":12610:12616   */\n      dup5\n        /* \"#utility.yul\":12531:12623   */\n      tag_103\n      jump\t// in\n    tag_247:\n        /* \"#utility.yul\":12524:12623   */\n      swap2\n      pop\n        /* \"#utility.yul\":12640:12643   */\n      dup2\n        /* \"#utility.yul\":12633:12643   */\n      swap1\n      pop\n        /* \"#utility.yul\":12380:12649   */\n      swap3\n      swap2\n      pop\n      pop\n      jump\t// out\n\n    auxdata: 0xa26469706673582212203e231a299a1c3f4520c7aa9195601bd80b7ba4f331dd69113b5407b2d6b24af764736f6c634300081a0033\n}\n",
				"bytecode": {
					"linkReferences": {},
					"object": "6080604052348015600e575f80fd5b50610aee8061001c5f395ff3fe608060405234801561000f575f80fd5b506004361061003f575f3560e01c806306ead22e1461004357806362dc146b14610074578063c384579214610090575b5f80fd5b61005d60048036038101906100589190610448565b6100ac565b60405161006b9291906104fe565b60405180910390f35b61008e60048036038101906100899190610682565b61016c565b005b6100aa60048036038101906100a59190610682565b610250565b005b5f81815481106100ba575f80fd5b905f5260205f2090600302015f91509050805f0180546100d990610709565b80601f016020809104026020016040519081016040528092919081815260200182805461010590610709565b80156101505780601f1061012757610100808354040283529160200191610150565b820191905f5260205f20905b81548152906001019060200180831161013357829003601f168201915b505050505090806001015f9054906101000a900460ff16905082565b5f60405180606001604052808481526020018360ff1681526020015f67ffffffffffffffff8111156101a1576101a0610534565b5b6040519080825280602002602001820160405280156101cf5781602001602082028036833780820191505090505b50815250908060018154018082558091505060019003905f5260205f2090600302015f909190919091505f820151815f01908161020c91906108d6565b506020820151816001015f6101000a81548160ff021916908360ff1602179055506040820151816002019080519060200190610249929190610347565b5050505050565b5f5b5f80549050811015610342578260405160200161026f91906109df565b604051602081830303815290604052805190602001205f8281548110610298576102976109f5565b5b905f5260205f2090600302015f016040516020016102b69190610aa2565b6040516020818303038152906040528051906020012003610335575f81815481106102e4576102e36109f5565b5b905f5260205f20906003020160020182908060018154018082558091505060019003905f5260205f2090602091828204019190069091909190916101000a81548160ff021916908360ff1602179055505b8080600101915050610252565b505050565b828054828255905f5260205f2090601f016020900481019282156103d8579160200282015f5b838211156103aa57835183826101000a81548160ff021916908360ff16021790555092602001926001016020815f0104928301926001030261036d565b80156103d65782816101000a81549060ff02191690556001016020815f010492830192600103026103aa565b505b5090506103e591906103e9565b5090565b5b80821115610400575f815f9055506001016103ea565b5090565b5f604051905090565b5f80fd5b5f80fd5b5f819050919050565b61042781610415565b8114610431575f80fd5b50565b5f813590506104428161041e565b92915050565b5f6020828403121561045d5761045c61040d565b5b5f61046a84828501610434565b91505092915050565b5f81519050919050565b5f82825260208201905092915050565b8281835e5f83830152505050565b5f601f19601f8301169050919050565b5f6104b582610473565b6104bf818561047d565b93506104cf81856020860161048d565b6104d88161049b565b840191505092915050565b5f60ff82169050919050565b6104f8816104e3565b82525050565b5f6040820190508181035f83015261051681856104ab565b905061052560208301846104ef565b9392505050565b5f80fd5b5f80fd5b7f4e487b71000000000000000000000000000000000000000000000000000000005f52604160045260245ffd5b61056a8261049b565b810181811067ffffffffffffffff8211171561058957610588610534565b5b80604052505050565b5f61059b610404565b90506105a78282610561565b919050565b5f67ffffffffffffffff8211156105c6576105c5610534565b5b6105cf8261049b565b9050602081019050919050565b828183375f83830152505050565b5f6105fc6105f7846105ac565b610592565b90508281526020810184848401111561061857610617610530565b5b6106238482856105dc565b509392505050565b5f82601f83011261063f5761063e61052c565b5b813561064f8482602086016105ea565b91505092915050565b610661816104e3565b811461066b575f80fd5b50565b5f8135905061067c81610658565b92915050565b5f80604083850312156106985761069761040d565b5b5f83013567ffffffffffffffff8111156106b5576106b4610411565b5b6106c18582860161062b565b92505060206106d28582860161066e565b9150509250929050565b7f4e487b71000000000000000000000000000000000000000000000000000000005f52602260045260245ffd5b5f600282049050600182168061072057607f821691505b602082108103610733576107326106dc565b5b50919050565b5f819050815f5260205f209050919050565b5f6020601f8301049050919050565b5f82821b905092915050565b5f600883026107957fffffffffffffffffffffffffffffffffffffffffffffffffffffffffffffffff8261075a565b61079f868361075a565b95508019841693508086168417925050509392505050565b5f819050919050565b5f6107da6107d56107d084610415565b6107b7565b610415565b9050919050565b5f819050919050565b6107f3836107c0565b6108076107ff826107e1565b848454610766565b825550505050565b5f90565b61081b61080f565b6108268184846107ea565b505050565b5b818110156108495761083e5f82610813565b60018101905061082c565b5050565b601f82111561088e5761085f81610739565b6108688461074b565b81016020851015610877578190505b61088b6108838561074b565b83018261082b565b50505b505050565b5f82821c905092915050565b5f6108ae5f1984600802610893565b1980831691505092915050565b5f6108c6838361089f565b9150826002028217905092915050565b6108df82610473565b67ffffffffffffffff8111156108f8576108f7610534565b5b6109028254610709565b61090d82828561084d565b5f60209050601f83116001811461093e575f841561092c578287015190505b61093685826108bb565b86555061099d565b601f19841661094c86610739565b5f5b828110156109735784890151825560018201915060208501945060208101905061094e565b86831015610990578489015161098c601f89168261089f565b8355505b6001600288020188555050505b505050505050565b5f81905092915050565b5f6109b982610473565b6109c381856109a5565b93506109d381856020860161048d565b80840191505092915050565b5f6109ea82846109af565b915081905092915050565b7f4e487b71000000000000000000000000000000000000000000000000000000005f52603260045260245ffd5b5f8154610a2e81610709565b610a3881866109a5565b9450600182165f8114610a525760018114610a6757610a99565b60ff1983168652811515820286019350610a99565b610a7085610739565b5f5b83811015610a9157815481890152600182019150602081019050610a72565b838801955050505b50505092915050565b5f610aad8284610a22565b91508190509291505056fea26469706673582212203e231a299a1c3f4520c7aa9195601bd80b7ba4f331dd69113b5407b2d6b24af764736f6c634300081a0033",
					"opcodes": "PUSH1 0x80 PUSH1 0x40 MSTORE CALLVALUE DUP1 ISZERO PUSH1 0xE JUMPI PUSH0 DUP1 REVERT JUMPDEST POP PUSH2 0xAEE DUP1 PUSH2 0x1C PUSH0 CODECOPY PUSH0 RETURN INVALID PUSH1 0x80 PUSH1 0x40 MSTORE CALLVALUE DUP1 ISZERO PUSH2 0xF JUMPI PUSH0 DUP1 REVERT JUMPDEST POP PUSH1 0x4 CALLDATASIZE LT PUSH2 0x3F JUMPI PUSH0 CALLDATALOAD PUSH1 0xE0 SHR DUP1 PUSH4 0x6EAD22E EQ PUSH2 0x43 JUMPI DUP1 PUSH4 0x62DC146B EQ PUSH2 0x74 JUMPI DUP1 PUSH4 0xC3845792 EQ PUSH2 0x90 JUMPI JUMPDEST PUSH0 DUP1 REVERT JUMPDEST PUSH2 0x5D PUSH1 0x4 DUP1 CALLDATASIZE SUB DUP2 ADD SWAP1 PUSH2 0x58 SWAP2 SWAP1 PUSH2 0x448 JUMP JUMPDEST PUSH2 0xAC JUMP JUMPDEST PUSH1 0x40 MLOAD PUSH2 0x6B SWAP3 SWAP2 SWAP1 PUSH2 0x4FE JUMP JUMPDEST PUSH1 0x40 MLOAD DUP1 SWAP2 SUB SWAP1 RETURN JUMPDEST PUSH2 0x8E PUSH1 0x4 DUP1 CALLDATASIZE SUB DUP2 ADD SWAP1 PUSH2 0x89 SWAP2 SWAP1 PUSH2 0x682 JUMP JUMPDEST PUSH2 0x16C JUMP JUMPDEST STOP JUMPDEST PUSH2 0xAA PUSH1 0x4 DUP1 CALLDATASIZE SUB DUP2 ADD SWAP1 PUSH2 0xA5 SWAP2 SWAP1 PUSH2 0x682 JUMP JUMPDEST PUSH2 0x250 JUMP JUMPDEST STOP JUMPDEST PUSH0 DUP2 DUP2 SLOAD DUP2 LT PUSH2 0xBA JUMPI PUSH0 DUP1 REVERT JUMPDEST SWAP1 PUSH0 MSTORE PUSH1 0x20 PUSH0 KECCAK256 SWAP1 PUSH1 0x3 MUL ADD PUSH0 SWAP2 POP SWAP1 POP DUP1 PUSH0 ADD DUP1 SLOAD PUSH2 0xD9 SWAP1 PUSH2 0x709 JUMP JUMPDEST DUP1 PUSH1 0x1F ADD PUSH1 0x20 DUP1 SWAP2 DIV MUL PUSH1 0x20 ADD PUSH1 0x40 MLOAD SWAP1 DUP2 ADD PUSH1 0x40 MSTORE DUP1 SWAP3 SWAP2 SWAP1 DUP2 DUP2 MSTORE PUSH1 0x20 ADD DUP3 DUP1 SLOAD PUSH2 0x105 SWAP1 PUSH2 0x709 JUMP JUMPDEST DUP1 ISZERO PUSH2 0x150 JUMPI DUP1 PUSH1 0x1F LT PUSH2 0x127 JUMPI PUSH2 0x100 DUP1 DUP4 SLOAD DIV MUL DUP4 MSTORE SWAP2 PUSH1 0x20 ADD SWAP2 PUSH2 0x150 JUMP JUMPDEST DUP3 ADD SWAP2 SWAP1 PUSH0 MSTORE PUSH1 0x20 PUSH0 KECCAK256 SWAP1 JUMPDEST DUP2 SLOAD DUP2 MSTORE SWAP1 PUSH1 0x1 ADD SWAP1 PUSH1 0x20 ADD DUP1 DUP4 GT PUSH2 0x133 JUMPI DUP3 SWAP1 SUB PUSH1 0x1F AND DUP3 ADD SWAP2 JUMPDEST POP POP POP POP POP SWAP1 DUP1 PUSH1 0x1 ADD PUSH0 SWAP1 SLOAD SWAP1 PUSH2 0x100 EXP SWAP1 DIV PUSH1 0xFF AND SWAP1 POP DUP3 JUMP JUMPDEST PUSH0 PUSH1 0x40 MLOAD DUP1 PUSH1 0x60 ADD PUSH1 0x40 MSTORE DUP1 DUP5 DUP2 MSTORE PUSH1 0x20 ADD DUP4 PUSH1 0xFF AND DUP2 MSTORE PUSH1 0x20 ADD PUSH0 PUSH8 0xFFFFFFFFFFFFFFFF DUP2 GT ISZERO PUSH2 0x1A1 JUMPI PUSH2 0x1A0 PUSH2 0x534 JUMP JUMPDEST JUMPDEST PUSH1 0x40 MLOAD SWAP1 DUP1 DUP3 MSTORE DUP1 PUSH1 0x20 MUL PUSH1 0x20 ADD DUP3 ADD PUSH1 0x40 MSTORE DUP1 ISZERO PUSH2 0x1CF JUMPI DUP2 PUSH1 0x20 ADD PUSH1 0x20 DUP3 MUL DUP1 CALLDATASIZE DUP4 CALLDATACOPY DUP1 DUP3 ADD SWAP2 POP POP SWAP1 POP JUMPDEST POP DUP2 MSTORE POP SWAP1 DUP1 PUSH1 0x1 DUP2 SLOAD ADD DUP1 DUP3 SSTORE DUP1 SWAP2 POP POP PUSH1 0x1 SWAP1 SUB SWAP1 PUSH0 MSTORE PUSH1 0x20 PUSH0 KECCAK256 SWAP1 PUSH1 0x3 MUL ADD PUSH0 SWAP1 SWAP2 SWAP1 SWAP2 SWAP1 SWAP2 POP PUSH0 DUP3 ADD MLOAD DUP2 PUSH0 ADD SWAP1 DUP2 PUSH2 0x20C SWAP2 SWAP1 PUSH2 0x8D6 JUMP JUMPDEST POP PUSH1 0x20 DUP3 ADD MLOAD DUP2 PUSH1 0x1 ADD PUSH0 PUSH2 0x100 EXP DUP2 SLOAD DUP2 PUSH1 0xFF MUL NOT AND SWAP1 DUP4 PUSH1 0xFF AND MUL OR SWAP1 SSTORE POP PUSH1 0x40 DUP3 ADD MLOAD DUP2 PUSH1 0x2 ADD SWAP1 DUP1 MLOAD SWAP1 PUSH1 0x20 ADD SWAP1 PUSH2 0x249 SWAP3 SWAP2 SWAP1 PUSH2 0x347 JUMP JUMPDEST POP POP POP POP POP JUMP JUMPDEST PUSH0 JUMPDEST PUSH0 DUP1 SLOAD SWAP1 POP DUP2 LT ISZERO PUSH2 0x342 JUMPI DUP3 PUSH1 0x40 MLOAD PUSH1 0x20 ADD PUSH2 0x26F SWAP2 SWAP1 PUSH2 0x9DF JUMP JUMPDEST PUSH1 0x40 MLOAD PUSH1 0x20 DUP2 DUP4 SUB SUB DUP2 MSTORE SWAP1 PUSH1 0x40 MSTORE DUP1 MLOAD SWAP1 PUSH1 0x20 ADD KECCAK256 PUSH0 DUP3 DUP2 SLOAD DUP2 LT PUSH2 0x298 JUMPI PUSH2 0x297 PUSH2 0x9F5 JUMP JUMPDEST JUMPDEST SWAP1 PUSH0 MSTORE PUSH1 0x20 PUSH0 KECCAK256 SWAP1 PUSH1 0x3 MUL ADD PUSH0 ADD PUSH1 0x40 MLOAD PUSH1 0x20 ADD PUSH2 0x2B6 SWAP2 SWAP1 PUSH2 0xAA2 JUMP JUMPDEST PUSH1 0x40 MLOAD PUSH1 0x20 DUP2 DUP4 SUB SUB DUP2 MSTORE SWAP1 PUSH1 0x40 MSTORE DUP1 MLOAD SWAP1 PUSH1 0x20 ADD KECCAK256 SUB PUSH2 0x335 JUMPI PUSH0 DUP2 DUP2 SLOAD DUP2 LT PUSH2 0x2E4 JUMPI PUSH2 0x2E3 PUSH2 0x9F5 JUMP JUMPDEST JUMPDEST SWAP1 PUSH0 MSTORE PUSH1 0x20 PUSH0 KECCAK256 SWAP1 PUSH1 0x3 MUL ADD PUSH1 0x2 ADD DUP3 SWAP1 DUP1 PUSH1 0x1 DUP2 SLOAD ADD DUP1 DUP3 SSTORE DUP1 SWAP2 POP POP PUSH1 0x1 SWAP1 SUB SWAP1 PUSH0 MSTORE PUSH1 0x20 PUSH0 KECCAK256 SWAP1 PUSH1 0x20 SWAP2 DUP3 DUP3 DIV ADD SWAP2 SWAP1 MOD SWAP1 SWAP2 SWAP1 SWAP2 SWAP1 SWAP2 PUSH2 0x100 EXP DUP2 SLOAD DUP2 PUSH1 0xFF MUL NOT AND SWAP1 DUP4 PUSH1 0xFF AND MUL OR SWAP1 SSTORE POP JUMPDEST DUP1 DUP1 PUSH1 0x1 ADD SWAP2 POP POP PUSH2 0x252 JUMP JUMPDEST POP POP POP JUMP JUMPDEST DUP3 DUP1 SLOAD DUP3 DUP3 SSTORE SWAP1 PUSH0 MSTORE PUSH1 0x20 PUSH0 KECCAK256 SWAP1 PUSH1 0x1F ADD PUSH1 0x20 SWAP1 DIV DUP2 ADD SWAP3 DUP3 ISZERO PUSH2 0x3D8 JUMPI SWAP2 PUSH1 0x20 MUL DUP3 ADD PUSH0 JUMPDEST DUP4 DUP3 GT ISZERO PUSH2 0x3AA JUMPI DUP4 MLOAD DUP4 DUP3 PUSH2 0x100 EXP DUP2 SLOAD DUP2 PUSH1 0xFF MUL NOT AND SWAP1 DUP4 PUSH1 0xFF AND MUL OR SWAP1 SSTORE POP SWAP3 PUSH1 0x20 ADD SWAP3 PUSH1 0x1 ADD PUSH1 0x20 DUP2 PUSH0 ADD DIV SWAP3 DUP4 ADD SWAP3 PUSH1 0x1 SUB MUL PUSH2 0x36D JUMP JUMPDEST DUP1 ISZERO PUSH2 0x3D6 JUMPI DUP3 DUP2 PUSH2 0x100 EXP DUP2 SLOAD SWAP1 PUSH1 0xFF MUL NOT AND SWAP1 SSTORE PUSH1 0x1 ADD PUSH1 0x20 DUP2 PUSH0 ADD DIV SWAP3 DUP4 ADD SWAP3 PUSH1 0x1 SUB MUL PUSH2 0x3AA JUMP JUMPDEST POP JUMPDEST POP SWAP1 POP PUSH2 0x3E5 SWAP2 SWAP1 PUSH2 0x3E9 JUMP JUMPDEST POP SWAP1 JUMP JUMPDEST JUMPDEST DUP1 DUP3 GT ISZERO PUSH2 0x400 JUMPI PUSH0 DUP2 PUSH0 SWAP1 SSTORE POP PUSH1 0x1 ADD PUSH2 0x3EA JUMP JUMPDEST POP SWAP1 JUMP JUMPDEST PUSH0 PUSH1 0x40 MLOAD SWAP1 POP SWAP1 JUMP JUMPDEST PUSH0 DUP1 REVERT JUMPDEST PUSH0 DUP1 REVERT JUMPDEST PUSH0 DUP2 SWAP1 POP SWAP2 SWAP1 POP JUMP JUMPDEST PUSH2 0x427 DUP2 PUSH2 0x415 JUMP JUMPDEST DUP2 EQ PUSH2 0x431 JUMPI PUSH0 DUP1 REVERT JUMPDEST POP JUMP JUMPDEST PUSH0 DUP2 CALLDATALOAD SWAP1 POP PUSH2 0x442 DUP2 PUSH2 0x41E JUMP JUMPDEST SWAP3 SWAP2 POP POP JUMP JUMPDEST PUSH0 PUSH1 0x20 DUP3 DUP5 SUB SLT ISZERO PUSH2 0x45D JUMPI PUSH2 0x45C PUSH2 0x40D JUMP JUMPDEST JUMPDEST PUSH0 PUSH2 0x46A DUP5 DUP3 DUP6 ADD PUSH2 0x434 JUMP JUMPDEST SWAP2 POP POP SWAP3 SWAP2 POP POP JUMP JUMPDEST PUSH0 DUP2 MLOAD SWAP1 POP SWAP2 SWAP1 POP JUMP JUMPDEST PUSH0 DUP3 DUP3 MSTORE PUSH1 0x20 DUP3 ADD SWAP1 POP SWAP3 SWAP2 POP POP JUMP JUMPDEST DUP3 DUP2 DUP4 MCOPY PUSH0 DUP4 DUP4 ADD MSTORE POP POP POP JUMP JUMPDEST PUSH0 PUSH1 0x1F NOT PUSH1 0x1F DUP4 ADD AND SWAP1 POP SWAP2 SWAP1 POP JUMP JUMPDEST PUSH0 PUSH2 0x4B5 DUP3 PUSH2 0x473 JUMP JUMPDEST PUSH2 0x4BF DUP2 DUP6 PUSH2 0x47D JUMP JUMPDEST SWAP4 POP PUSH2 0x4CF DUP2 DUP6 PUSH1 0x20 DUP7 ADD PUSH2 0x48D JUMP JUMPDEST PUSH2 0x4D8 DUP2 PUSH2 0x49B JUMP JUMPDEST DUP5 ADD SWAP2 POP POP SWAP3 SWAP2 POP POP JUMP JUMPDEST PUSH0 PUSH1 0xFF DUP3 AND SWAP1 POP SWAP2 SWAP1 POP JUMP JUMPDEST PUSH2 0x4F8 DUP2 PUSH2 0x4E3 JUMP JUMPDEST DUP3 MSTORE POP POP JUMP JUMPDEST PUSH0 PUSH1 0x40 DUP3 ADD SWAP1 POP DUP2 DUP2 SUB PUSH0 DUP4 ADD MSTORE PUSH2 0x516 DUP2 DUP6 PUSH2 0x4AB JUMP JUMPDEST SWAP1 POP PUSH2 0x525 PUSH1 0x20 DUP4 ADD DUP5 PUSH2 0x4EF JUMP JUMPDEST SWAP4 SWAP3 POP POP POP JUMP JUMPDEST PUSH0 DUP1 REVERT JUMPDEST PUSH0 DUP1 REVERT JUMPDEST PUSH32 0x4E487B7100000000000000000000000000000000000000000000000000000000 PUSH0 MSTORE PUSH1 0x41 PUSH1 0x4 MSTORE PUSH1 0x24 PUSH0 REVERT JUMPDEST PUSH2 0x56A DUP3 PUSH2 0x49B JUMP JUMPDEST DUP2 ADD DUP2 DUP2 LT PUSH8 0xFFFFFFFFFFFFFFFF DUP3 GT OR ISZERO PUSH2 0x589 JUMPI PUSH2 0x588 PUSH2 0x534 JUMP JUMPDEST JUMPDEST DUP1 PUSH1 0x40 MSTORE POP POP POP JUMP JUMPDEST PUSH0 PUSH2 0x59B PUSH2 0x404 JUMP JUMPDEST SWAP1 POP PUSH2 0x5A7 DUP3 DUP3 PUSH2 0x561 JUMP JUMPDEST SWAP2 SWAP1 POP JUMP JUMPDEST PUSH0 PUSH8 0xFFFFFFFFFFFFFFFF DUP3 GT ISZERO PUSH2 0x5C6 JUMPI PUSH2 0x5C5 PUSH2 0x534 JUMP JUMPDEST JUMPDEST PUSH2 0x5CF DUP3 PUSH2 0x49B JUMP JUMPDEST SWAP1 POP PUSH1 0x20 DUP2 ADD SWAP1 POP SWAP2 SWAP1 POP JUMP JUMPDEST DUP3 DUP2 DUP4 CALLDATACOPY PUSH0 DUP4 DUP4 ADD MSTORE POP POP POP JUMP JUMPDEST PUSH0 PUSH2 0x5FC PUSH2 0x5F7 DUP5 PUSH2 0x5AC JUMP JUMPDEST PUSH2 0x592 JUMP JUMPDEST SWAP1 POP DUP3 DUP2 MSTORE PUSH1 0x20 DUP2 ADD DUP5 DUP5 DUP5 ADD GT ISZERO PUSH2 0x618 JUMPI PUSH2 0x617 PUSH2 0x530 JUMP JUMPDEST JUMPDEST PUSH2 0x623 DUP5 DUP3 DUP6 PUSH2 0x5DC JUMP JUMPDEST POP SWAP4 SWAP3 POP POP POP JUMP JUMPDEST PUSH0 DUP3 PUSH1 0x1F DUP4 ADD SLT PUSH2 0x63F JUMPI PUSH2 0x63E PUSH2 0x52C JUMP JUMPDEST JUMPDEST DUP2 CALLDATALOAD PUSH2 0x64F DUP5 DUP3 PUSH1 0x20 DUP7 ADD PUSH2 0x5EA JUMP JUMPDEST SWAP2 POP POP SWAP3 SWAP2 POP POP JUMP JUMPDEST PUSH2 0x661 DUP2 PUSH2 0x4E3 JUMP JUMPDEST DUP2 EQ PUSH2 0x66B JUMPI PUSH0 DUP1 REVERT JUMPDEST POP JUMP JUMPDEST PUSH0 DUP2 CALLDATALOAD SWAP1 POP PUSH2 0x67C DUP2 PUSH2 0x658 JUMP JUMPDEST SWAP3 SWAP2 POP POP JUMP JUMPDEST PUSH0 DUP1 PUSH1 0x40 DUP4 DUP6 SUB SLT ISZERO PUSH2 0x698 JUMPI PUSH2 0x697 PUSH2 0x40D JUMP JUMPDEST JUMPDEST PUSH0 DUP4 ADD CALLDATALOAD PUSH8 0xFFFFFFFFFFFFFFFF DUP2 GT ISZERO PUSH2 0x6B5 JUMPI PUSH2 0x6B4 PUSH2 0x411 JUMP JUMPDEST JUMPDEST PUSH2 0x6C1 DUP6 DUP3 DUP7 ADD PUSH2 0x62B JUMP JUMPDEST SWAP3 POP POP PUSH1 0x20 PUSH2 0x6D2 DUP6 DUP3 DUP7 ADD PUSH2 0x66E JUMP JUMPDEST SWAP2 POP POP SWAP3 POP SWAP3 SWAP1 POP JUMP JUMPDEST PUSH32 0x4E487B7100000000000000000000000000000000000000000000000000000000 PUSH0 MSTORE PUSH1 0x22 PUSH1 0x4 MSTORE PUSH1 0x24 PUSH0 REVERT JUMPDEST PUSH0 PUSH1 0x2 DUP3 DIV SWAP1 POP PUSH1 0x1 DUP3 AND DUP1 PUSH2 0x720 JUMPI PUSH1 0x7F DUP3 AND SWAP2 POP JUMPDEST PUSH1 0x20 DUP3 LT DUP2 SUB PUSH2 0x733 JUMPI PUSH2 0x732 PUSH2 0x6DC JUMP JUMPDEST JUMPDEST POP SWAP2 SWAP1 POP JUMP JUMPDEST PUSH0 DUP2 SWAP1 POP DUP2 PUSH0 MSTORE PUSH1 0x20 PUSH0 KECCAK256 SWAP1 POP SWAP2 SWAP1 POP JUMP JUMPDEST PUSH0 PUSH1 0x20 PUSH1 0x1F DUP4 ADD DIV SWAP1 POP SWAP2 SWAP1 POP JUMP JUMPDEST PUSH0 DUP3 DUP3 SHL SWAP1 POP SWAP3 SWAP2 POP POP JUMP JUMPDEST PUSH0 PUSH1 0x8 DUP4 MUL PUSH2 0x795 PUSH32 0xFFFFFFFFFFFFFFFFFFFFFFFFFFFFFFFFFFFFFFFFFFFFFFFFFFFFFFFFFFFFFFFF DUP3 PUSH2 0x75A JUMP JUMPDEST PUSH2 0x79F DUP7 DUP4 PUSH2 0x75A JUMP JUMPDEST SWAP6 POP DUP1 NOT DUP5 AND SWAP4 POP DUP1 DUP7 AND DUP5 OR SWAP3 POP POP POP SWAP4 SWAP3 POP POP POP JUMP JUMPDEST PUSH0 DUP2 SWAP1 POP SWAP2 SWAP1 POP JUMP JUMPDEST PUSH0 PUSH2 0x7DA PUSH2 0x7D5 PUSH2 0x7D0 DUP5 PUSH2 0x415 JUMP JUMPDEST PUSH2 0x7B7 JUMP JUMPDEST PUSH2 0x415 JUMP JUMPDEST SWAP1 POP SWAP2 SWAP1 POP JUMP JUMPDEST PUSH0 DUP2 SWAP1 POP SWAP2 SWAP1 POP JUMP JUMPDEST PUSH2 0x7F3 DUP4 PUSH2 0x7C0 JUMP JUMPDEST PUSH2 0x807 PUSH2 0x7FF DUP3 PUSH2 0x7E1 JUMP JUMPDEST DUP5 DUP5 SLOAD PUSH2 0x766 JUMP JUMPDEST DUP3 SSTORE POP POP POP POP JUMP JUMPDEST PUSH0 SWAP1 JUMP JUMPDEST PUSH2 0x81B PUSH2 0x80F JUMP JUMPDEST PUSH2 0x826 DUP2 DUP5 DUP5 PUSH2 0x7EA JUMP JUMPDEST POP POP POP JUMP JUMPDEST JUMPDEST DUP2 DUP2 LT ISZERO PUSH2 0x849 JUMPI PUSH2 0x83E PUSH0 DUP3 PUSH2 0x813 JUMP JUMPDEST PUSH1 0x1 DUP2 ADD SWAP1 POP PUSH2 0x82C JUMP JUMPDEST POP POP JUMP JUMPDEST PUSH1 0x1F DUP3 GT ISZERO PUSH2 0x88E JUMPI PUSH2 0x85F DUP2 PUSH2 0x739 JUMP JUMPDEST PUSH2 0x868 DUP5 PUSH2 0x74B JUMP JUMPDEST DUP2 ADD PUSH1 0x20 DUP6 LT ISZERO PUSH2 0x877 JUMPI DUP2 SWAP1 POP JUMPDEST PUSH2 0x88B PUSH2 0x883 DUP6 PUSH2 0x74B JUMP JUMPDEST DUP4 ADD DUP3 PUSH2 0x82B JUMP JUMPDEST POP POP JUMPDEST POP POP POP JUMP JUMPDEST PUSH0 DUP3 DUP3 SHR SWAP1 POP SWAP3 SWAP2 POP POP JUMP JUMPDEST PUSH0 PUSH2 0x8AE PUSH0 NOT DUP5 PUSH1 0x8 MUL PUSH2 0x893 JUMP JUMPDEST NOT DUP1 DUP4 AND SWAP2 POP POP SWAP3 SWAP2 POP POP JUMP JUMPDEST PUSH0 PUSH2 0x8C6 DUP4 DUP4 PUSH2 0x89F JUMP JUMPDEST SWAP2 POP DUP3 PUSH1 0x2 MUL DUP3 OR SWAP1 POP SWAP3 SWAP2 POP POP JUMP JUMPDEST PUSH2 0x8DF DUP3 PUSH2 0x473 JUMP JUMPDEST PUSH8 0xFFFFFFFFFFFFFFFF DUP2 GT ISZERO PUSH2 0x8F8 JUMPI PUSH2 0x8F7 PUSH2 0x534 JUMP JUMPDEST JUMPDEST PUSH2 0x902 DUP3 SLOAD PUSH2 0x709 JUMP JUMPDEST PUSH2 0x90D DUP3 DUP3 DUP6 PUSH2 0x84D JUMP JUMPDEST PUSH0 PUSH1 0x20 SWAP1 POP PUSH1 0x1F DUP4 GT PUSH1 0x1 DUP2 EQ PUSH2 0x93E JUMPI PUSH0 DUP5 ISZERO PUSH2 0x92C JUMPI DUP3 DUP8 ADD MLOAD SWAP1 POP JUMPDEST PUSH2 0x936 DUP6 DUP3 PUSH2 0x8BB JUMP JUMPDEST DUP7 SSTORE POP PUSH2 0x99D JUMP JUMPDEST PUSH1 0x1F NOT DUP5 AND PUSH2 0x94C DUP7 PUSH2 0x739 JUMP JUMPDEST PUSH0 JUMPDEST DUP3 DUP2 LT ISZERO PUSH2 0x973 JUMPI DUP5 DUP10 ADD MLOAD DUP3 SSTORE PUSH1 0x1 DUP3 ADD SWAP2 POP PUSH1 0x20 DUP6 ADD SWAP5 POP PUSH1 0x20 DUP2 ADD SWAP1 POP PUSH2 0x94E JUMP JUMPDEST DUP7 DUP4 LT ISZERO PUSH2 0x990 JUMPI DUP5 DUP10 ADD MLOAD PUSH2 0x98C PUSH1 0x1F DUP10 AND DUP3 PUSH2 0x89F JUMP JUMPDEST DUP4 SSTORE POP JUMPDEST PUSH1 0x1 PUSH1 0x2 DUP9 MUL ADD DUP9 SSTORE POP POP POP JUMPDEST POP POP POP POP POP POP JUMP JUMPDEST PUSH0 DUP2 SWAP1 POP SWAP3 SWAP2 POP POP JUMP JUMPDEST PUSH0 PUSH2 0x9B9 DUP3 PUSH2 0x473 JUMP JUMPDEST PUSH2 0x9C3 DUP2 DUP6 PUSH2 0x9A5 JUMP JUMPDEST SWAP4 POP PUSH2 0x9D3 DUP2 DUP6 PUSH1 0x20 DUP7 ADD PUSH2 0x48D JUMP JUMPDEST DUP1 DUP5 ADD SWAP2 POP POP SWAP3 SWAP2 POP POP JUMP JUMPDEST PUSH0 PUSH2 0x9EA DUP3 DUP5 PUSH2 0x9AF JUMP JUMPDEST SWAP2 POP DUP2 SWAP1 POP SWAP3 SWAP2 POP POP JUMP JUMPDEST PUSH32 0x4E487B7100000000000000000000000000000000000000000000000000000000 PUSH0 MSTORE PUSH1 0x32 PUSH1 0x4 MSTORE PUSH1 0x24 PUSH0 REVERT JUMPDEST PUSH0 DUP2 SLOAD PUSH2 0xA2E DUP2 PUSH2 0x709 JUMP JUMPDEST PUSH2 0xA38 DUP2 DUP7 PUSH2 0x9A5 JUMP JUMPDEST SWAP5 POP PUSH1 0x1 DUP3 AND PUSH0 DUP2 EQ PUSH2 0xA52 JUMPI PUSH1 0x1 DUP2 EQ PUSH2 0xA67 JUMPI PUSH2 0xA99 JUMP JUMPDEST PUSH1 0xFF NOT DUP4 AND DUP7 MSTORE DUP2 ISZERO ISZERO DUP3 MUL DUP7 ADD SWAP4 POP PUSH2 0xA99 JUMP JUMPDEST PUSH2 0xA70 DUP6 PUSH2 0x739 JUMP JUMPDEST PUSH0 JUMPDEST DUP4 DUP2 LT ISZERO PUSH2 0xA91 JUMPI DUP2 SLOAD DUP2 DUP10 ADD MSTORE PUSH1 0x1 DUP3 ADD SWAP2 POP PUSH1 0x20 DUP2 ADD SWAP1 POP PUSH2 0xA72 JUMP JUMPDEST DUP4 DUP9 ADD SWAP6 POP POP POP JUMPDEST POP POP POP SWAP3 SWAP2 POP POP JUMP JUMPDEST PUSH0 PUSH2 0xAAD DUP3 DUP5 PUSH2 0xA22 JUMP JUMPDEST SWAP2 POP DUP2 SWAP1 POP SWAP3 SWAP2 POP POP JUMP INVALID LOG2 PUSH5 0x6970667358 0x22 SLT KECCAK256 RETURNDATACOPY 0x23 BYTE 0x29 SWAP11 SHR EXTCODEHASH GASLIMIT KECCAK256 0xC7 0xAA SWAP2 SWAP6 PUSH1 0x1B 0xD8 SIGNEXTEND PUSH28 0xA4F331DD69113B5407B2D6B24AF764736F6C634300081A0033000000 "
				},
				"gasEstimates": {
					"creation": {
						"codeDepositCost": "559600",
						"executionCost": "592",
						"totalCost": "560192"
					},
					"external": {
						"addGrade(string,uint8)": "infinite",
						"addStudent(string,uint8)": "infinite",
						"students(uint256)": "infinite"
					}
				},
				"methodIdentifiers": {
					"addGrade(string,uint8)": "c3845792",
					"addStudent(string,uint8)": "62dc146b",
					"students(uint256)": "06ead22e"
				}
			},
			"storageLayout": {
				"storage": [
					{
						"astId": 13,
						"contract": "code10_3.sol:task4",
						"label": "students",
						"offset": 0,
						"slot": "0",
						"type": "t_array(t_struct(Student)9_storage)dyn_storage"
					}
				],
				"types": {
					"t_array(t_struct(Student)9_storage)dyn_storage": {
						"base": "t_struct(Student)9_storage",
						"encoding": "dynamic_array",
						"label": "struct task4.Student[]",
						"numberOfBytes": "32"
					},
					"t_array(t_uint8)dyn_storage": {
						"base": "t_uint8",
						"encoding": "dynamic_array",
						"label": "uint8[]",
						"numberOfBytes": "32"
					},
					"t_string_storage": {
						"encoding": "bytes",
						"label": "string",
						"numberOfBytes": "32"
					},
					"t_struct(Student)9_storage": {
						"encoding": "inplace",
						"label": "struct task4.Student",
						"members": [
							{
								"astId": 3,
								"contract": "code10_3.sol:task4",
								"label": "name",
								"offset": 0,
								"slot": "0",
								"type": "t_string_storage"
							},
							{
								"astId": 5,
								"contract": "code10_3.sol:task4",
								"label": "age",
								"offset": 0,
								"slot": "1",
								"type": "t_uint8"
							},
							{
								"astId": 8,
								"contract": "code10_3.sol:task4",
								"label": "grades",
								"offset": 0,
								"slot": "2",
								"type": "t_array(t_uint8)dyn_storage"
							}
						],
						"numberOfBytes": "96"
					},
					"t_uint8": {
						"encoding": "inplace",
						"label": "uint8",
						"numberOfBytes": "1"
					}
				}
			},
			"userdoc": {
				"kind": "user",
				"methods": {},
				"version": 1
			}
		}
	}
}