{
	"code13_6.sol": {
		"task6": {
			"abi": [
				{
					"inputs": [
						{
							"internalType": "address",
							"name": "adr",
							"type": "address"
						}
					],
					"name": "getAddressBalance",
					"outputs": [
						{
							"internalType": "uint256",
							"name": "",
							"type": "uint256"
						}
					],
					"stateMutability": "view",
					"type": "function"
				},
				{
					"inputs": [],
					"name": "getContractBalance",
					"outputs": [
						{
							"internalType": "uint256",
							"name": "",
							"type": "uint256"
						}
					],
					"stateMutability": "view",
					"type": "function"
				},
				{
					"inputs": [],
					"name": "getMyBalance",
					"outputs": [
						{
							"internalType": "uint256",
							"name": "",
							"type": "uint256"
						}
					],
					"stateMutability": "view",
					"type": "function"
				},
				{
					"inputs": [
						{
							"internalType": "uint256",
							"name": "value",
							"type": "uint256"
						}
					],
					"name": "giveMeEth",
					"outputs": [],
					"stateMutability": "nonpayable",
					"type": "function"
				},
				{
					"inputs": [
						{
							"internalType": "uint256",
							"name": "value",
							"type": "uint256"
						},
						{
							"internalType": "address payable",
							"name": "adr",
							"type": "address"
						}
					],
					"name": "transferEthToAddress",
					"outputs": [],
					"stateMutability": "nonpayable",
					"type": "function"
				},
				{
					"stateMutability": "payable",
					"type": "receive"
				}
			],
			"devdoc": {
				"kind": "dev",
				"methods": {},
				"version": 1
			},
			"evm": {
				"assembly": "    /* \"code13_6.sol\":26:789  contract task6 {... */\n  mstore(0x40, 0x80)\n  callvalue\n  dup1\n  iszero\n  tag_1\n  jumpi\n  0x00\n  dup1\n  revert\ntag_1:\n  pop\n  dataSize(sub_0)\n  dup1\n  dataOffset(sub_0)\n  0x00\n  codecopy\n  0x00\n  return\nstop\n\nsub_0: assembly {\n        /* \"code13_6.sol\":26:789  contract task6 {... */\n      mstore(0x40, 0x80)\n      jumpi(tag_1, lt(calldatasize, 0x04))\n      shr(0xe0, calldataload(0x00))\n      dup1\n      0x35046722\n      eq\n      tag_3\n      jumpi\n      dup1\n      0x4c738909\n      eq\n      tag_4\n      jumpi\n      dup1\n      0x6f9fb98a\n      eq\n      tag_5\n      jumpi\n      dup1\n      0x9bfb7ca9\n      eq\n      tag_6\n      jumpi\n      dup1\n      0xc7af8462\n      eq\n      tag_7\n      jumpi\n      jump(tag_2)\n    tag_1:\n      jumpi(tag_2, calldatasize)\n      stop\n    tag_2:\n      0x00\n      dup1\n      revert\n        /* \"code13_6.sol\":310:420  function getAddressBalance(address adr) external view returns (uint256){... */\n    tag_3:\n      callvalue\n      dup1\n      iszero\n      tag_10\n      jumpi\n      0x00\n      dup1\n      revert\n    tag_10:\n      pop\n      tag_11\n      0x04\n      dup1\n      calldatasize\n      sub\n      dup2\n      add\n      swap1\n      tag_12\n      swap2\n      swap1\n      tag_13\n      jump\t// in\n    tag_12:\n      tag_14\n      jump\t// in\n    tag_11:\n      mload(0x40)\n      tag_15\n      swap2\n      swap1\n      tag_16\n      jump\t// in\n    tag_15:\n      mload(0x40)\n      dup1\n      swap2\n      sub\n      swap1\n      return\n        /* \"code13_6.sol\":203:302  function getMyBalance() external view returns (uint256){... */\n    tag_4:\n      callvalue\n      dup1\n      iszero\n      tag_17\n      jumpi\n      0x00\n      dup1\n      revert\n    tag_17:\n      pop\n      tag_18\n      tag_19\n      jump\t// in\n    tag_18:\n      mload(0x40)\n      tag_20\n      swap2\n      swap1\n      tag_16\n      jump\t// in\n    tag_20:\n      mload(0x40)\n      dup1\n      swap2\n      sub\n      swap1\n      return\n        /* \"code13_6.sol\":85:195  function getContractBalance() external view returns (uint256){... */\n    tag_5:\n      callvalue\n      dup1\n      iszero\n      tag_21\n      jumpi\n      0x00\n      dup1\n      revert\n    tag_21:\n      pop\n      tag_22\n      tag_23\n      jump\t// in\n    tag_22:\n      mload(0x40)\n      tag_24\n      swap2\n      swap1\n      tag_16\n      jump\t// in\n    tag_24:\n      mload(0x40)\n      dup1\n      swap2\n      sub\n      swap1\n      return\n        /* \"code13_6.sol\":428:593  function giveMeEth(uint256 value) external{... */\n    tag_6:\n      callvalue\n      dup1\n      iszero\n      tag_25\n      jumpi\n      0x00\n      dup1\n      revert\n    tag_25:\n      pop\n      tag_26\n      0x04\n      dup1\n      calldatasize\n      sub\n      dup2\n      add\n      swap1\n      tag_27\n      swap2\n      swap1\n      tag_28\n      jump\t// in\n    tag_27:\n      tag_29\n      jump\t// in\n    tag_26:\n      stop\n        /* \"code13_6.sol\":601:780  function transferEthToAddress(uint256 value,address payable adr) external {... */\n    tag_7:\n      callvalue\n      dup1\n      iszero\n      tag_30\n      jumpi\n      0x00\n      dup1\n      revert\n    tag_30:\n      pop\n      tag_31\n      0x04\n      dup1\n      calldatasize\n      sub\n      dup2\n      add\n      swap1\n      tag_32\n      swap2\n      swap1\n      tag_33\n      jump\t// in\n    tag_32:\n      tag_34\n      jump\t// in\n    tag_31:\n      stop\n        /* \"code13_6.sol\":310:420  function getAddressBalance(address adr) external view returns (uint256){... */\n    tag_14:\n        /* \"code13_6.sol\":373:380  uint256 */\n      0x00\n        /* \"code13_6.sol\":401:404  adr */\n      dup2\n        /* \"code13_6.sol\":401:412  adr.balance */\n      0xffffffffffffffffffffffffffffffffffffffff\n      and\n      balance\n        /* \"code13_6.sol\":394:412  return adr.balance */\n      swap1\n      pop\n        /* \"code13_6.sol\":310:420  function getAddressBalance(address adr) external view returns (uint256){... */\n      swap2\n      swap1\n      pop\n      jump\t// out\n        /* \"code13_6.sol\":203:302  function getMyBalance() external view returns (uint256){... */\n    tag_19:\n        /* \"code13_6.sol\":250:257  uint256 */\n      0x00\n        /* \"code13_6.sol\":276:286  msg.sender */\n      caller\n        /* \"code13_6.sol\":276:294  msg.sender.balance */\n      0xffffffffffffffffffffffffffffffffffffffff\n      and\n      balance\n        /* \"code13_6.sol\":269:294  return msg.sender.balance */\n      swap1\n      pop\n        /* \"code13_6.sol\":203:302  function getMyBalance() external view returns (uint256){... */\n      swap1\n      jump\t// out\n        /* \"code13_6.sol\":85:195  function getContractBalance() external view returns (uint256){... */\n    tag_23:\n        /* \"code13_6.sol\":138:145  uint256 */\n      0x00\n        /* \"code13_6.sol\":166:187  address(this).balance */\n      selfbalance\n        /* \"code13_6.sol\":159:187  return address(this).balance */\n      swap1\n      pop\n        /* \"code13_6.sol\":85:195  function getContractBalance() external view returns (uint256){... */\n      swap1\n      jump\t// out\n        /* \"code13_6.sol\":428:593  function giveMeEth(uint256 value) external{... */\n    tag_29:\n        /* \"code13_6.sol\":513:518  value */\n      dup1\n        /* \"code13_6.sol\":489:510  address(this).balance */\n      selfbalance\n        /* \"code13_6.sol\":489:518  address(this).balance >=value */\n      lt\n      iszero\n        /* \"code13_6.sol\":481:539  require(address(this).balance >=value, \"Not enough funds\") */\n      tag_39\n      jumpi\n      mload(0x40)\n      0x08c379a000000000000000000000000000000000000000000000000000000000\n      dup2\n      mstore\n      0x04\n      add\n      tag_40\n      swap1\n      tag_41\n      jump\t// in\n    tag_40:\n      mload(0x40)\n      dup1\n      swap2\n      sub\n      swap1\n      revert\n    tag_39:\n        /* \"code13_6.sol\":558:568  msg.sender */\n      caller\n        /* \"code13_6.sol\":550:578  payable(msg.sender).transfer */\n      0xffffffffffffffffffffffffffffffffffffffff\n      and\n        /* \"code13_6.sol\":550:585  payable(msg.sender).transfer(value) */\n      0x08fc\n        /* \"code13_6.sol\":579:584  value */\n      dup3\n        /* \"code13_6.sol\":550:585  payable(msg.sender).transfer(value) */\n      swap1\n      dup2\n      iszero\n      mul\n      swap1\n      mload(0x40)\n      0x00\n      mload(0x40)\n      dup1\n      dup4\n      sub\n      dup2\n      dup6\n      dup9\n      dup9\n      call\n      swap4\n      pop\n      pop\n      pop\n      pop\n      iszero\n      dup1\n      iszero\n      tag_43\n      jumpi\n      returndatasize\n      0x00\n      dup1\n      returndatacopy\n      revert(0x00, returndatasize)\n    tag_43:\n      pop\n        /* \"code13_6.sol\":428:593  function giveMeEth(uint256 value) external{... */\n      pop\n      jump\t// out\n        /* \"code13_6.sol\":601:780  function transferEthToAddress(uint256 value,address payable adr) external {... */\n    tag_34:\n        /* \"code13_6.sol\":716:721  value */\n      dup2\n        /* \"code13_6.sol\":692:713  address(this).balance */\n      selfbalance\n        /* \"code13_6.sol\":692:721  address(this).balance >=value */\n      lt\n      iszero\n        /* \"code13_6.sol\":684:742  require(address(this).balance >=value, \"Not enough funds\") */\n      tag_45\n      jumpi\n      mload(0x40)\n      0x08c379a000000000000000000000000000000000000000000000000000000000\n      dup2\n      mstore\n      0x04\n      add\n      tag_46\n      swap1\n      tag_41\n      jump\t// in\n    tag_46:\n      mload(0x40)\n      dup1\n      swap2\n      sub\n      swap1\n      revert\n    tag_45:\n        /* \"code13_6.sol\":753:756  adr */\n      dup1\n        /* \"code13_6.sol\":753:765  adr.transfer */\n      0xffffffffffffffffffffffffffffffffffffffff\n      and\n        /* \"code13_6.sol\":753:772  adr.transfer(value) */\n      0x08fc\n        /* \"code13_6.sol\":766:771  value */\n      dup4\n        /* \"code13_6.sol\":753:772  adr.transfer(value) */\n      swap1\n      dup2\n      iszero\n      mul\n      swap1\n      mload(0x40)\n      0x00\n      mload(0x40)\n      dup1\n      dup4\n      sub\n      dup2\n      dup6\n      dup9\n      dup9\n      call\n      swap4\n      pop\n      pop\n      pop\n      pop\n      iszero\n      dup1\n      iszero\n      tag_48\n      jumpi\n      returndatasize\n      0x00\n      dup1\n      returndatacopy\n      revert(0x00, returndatasize)\n    tag_48:\n      pop\n        /* \"code13_6.sol\":601:780  function transferEthToAddress(uint256 value,address payable adr) external {... */\n      pop\n      pop\n      jump\t// out\n        /* \"#utility.yul\":88:205   */\n    tag_50:\n        /* \"#utility.yul\":197:198   */\n      0x00\n        /* \"#utility.yul\":194:195   */\n      dup1\n        /* \"#utility.yul\":187:199   */\n      revert\n        /* \"#utility.yul\":334:460   */\n    tag_52:\n        /* \"#utility.yul\":371:378   */\n      0x00\n        /* \"#utility.yul\":411:453   */\n      0xffffffffffffffffffffffffffffffffffffffff\n        /* \"#utility.yul\":404:409   */\n      dup3\n        /* \"#utility.yul\":400:454   */\n      and\n        /* \"#utility.yul\":389:454   */\n      swap1\n      pop\n        /* \"#utility.yul\":334:460   */\n      swap2\n      swap1\n      pop\n      jump\t// out\n        /* \"#utility.yul\":466:562   */\n    tag_53:\n        /* \"#utility.yul\":503:510   */\n      0x00\n        /* \"#utility.yul\":532:556   */\n      tag_72\n        /* \"#utility.yul\":550:555   */\n      dup3\n        /* \"#utility.yul\":532:556   */\n      tag_52\n      jump\t// in\n    tag_72:\n        /* \"#utility.yul\":521:556   */\n      swap1\n      pop\n        /* \"#utility.yul\":466:562   */\n      swap2\n      swap1\n      pop\n      jump\t// out\n        /* \"#utility.yul\":568:690   */\n    tag_54:\n        /* \"#utility.yul\":641:665   */\n      tag_74\n        /* \"#utility.yul\":659:664   */\n      dup2\n        /* \"#utility.yul\":641:665   */\n      tag_53\n      jump\t// in\n    tag_74:\n        /* \"#utility.yul\":634:639   */\n      dup2\n        /* \"#utility.yul\":631:666   */\n      eq\n        /* \"#utility.yul\":621:684   */\n      tag_75\n      jumpi\n        /* \"#utility.yul\":680:681   */\n      0x00\n        /* \"#utility.yul\":677:678   */\n      dup1\n        /* \"#utility.yul\":670:682   */\n      revert\n        /* \"#utility.yul\":621:684   */\n    tag_75:\n        /* \"#utility.yul\":568:690   */\n      pop\n      jump\t// out\n        /* \"#utility.yul\":696:835   */\n    tag_55:\n        /* \"#utility.yul\":742:747   */\n      0x00\n        /* \"#utility.yul\":780:786   */\n      dup2\n        /* \"#utility.yul\":767:787   */\n      calldataload\n        /* \"#utility.yul\":758:787   */\n      swap1\n      pop\n        /* \"#utility.yul\":796:829   */\n      tag_77\n        /* \"#utility.yul\":823:828   */\n      dup2\n        /* \"#utility.yul\":796:829   */\n      tag_54\n      jump\t// in\n    tag_77:\n        /* \"#utility.yul\":696:835   */\n      swap3\n      swap2\n      pop\n      pop\n      jump\t// out\n        /* \"#utility.yul\":841:1170   */\n    tag_13:\n        /* \"#utility.yul\":900:906   */\n      0x00\n        /* \"#utility.yul\":949:951   */\n      0x20\n        /* \"#utility.yul\":937:946   */\n      dup3\n        /* \"#utility.yul\":928:935   */\n      dup5\n        /* \"#utility.yul\":924:947   */\n      sub\n        /* \"#utility.yul\":920:952   */\n      slt\n        /* \"#utility.yul\":917:1036   */\n      iszero\n      tag_79\n      jumpi\n        /* \"#utility.yul\":955:1034   */\n      tag_80\n      tag_50\n      jump\t// in\n    tag_80:\n        /* \"#utility.yul\":917:1036   */\n    tag_79:\n        /* \"#utility.yul\":1075:1076   */\n      0x00\n        /* \"#utility.yul\":1100:1153   */\n      tag_81\n        /* \"#utility.yul\":1145:1152   */\n      dup5\n        /* \"#utility.yul\":1136:1142   */\n      dup3\n        /* \"#utility.yul\":1125:1134   */\n      dup6\n        /* \"#utility.yul\":1121:1143   */\n      add\n        /* \"#utility.yul\":1100:1153   */\n      tag_55\n      jump\t// in\n    tag_81:\n        /* \"#utility.yul\":1090:1153   */\n      swap2\n      pop\n        /* \"#utility.yul\":1046:1163   */\n      pop\n        /* \"#utility.yul\":841:1170   */\n      swap3\n      swap2\n      pop\n      pop\n      jump\t// out\n        /* \"#utility.yul\":1176:1253   */\n    tag_56:\n        /* \"#utility.yul\":1213:1220   */\n      0x00\n        /* \"#utility.yul\":1242:1247   */\n      dup2\n        /* \"#utility.yul\":1231:1247   */\n      swap1\n      pop\n        /* \"#utility.yul\":1176:1253   */\n      swap2\n      swap1\n      pop\n      jump\t// out\n        /* \"#utility.yul\":1259:1377   */\n    tag_57:\n        /* \"#utility.yul\":1346:1370   */\n      tag_84\n        /* \"#utility.yul\":1364:1369   */\n      dup2\n        /* \"#utility.yul\":1346:1370   */\n      tag_56\n      jump\t// in\n    tag_84:\n        /* \"#utility.yul\":1341:1344   */\n      dup3\n        /* \"#utility.yul\":1334:1371   */\n      mstore\n        /* \"#utility.yul\":1259:1377   */\n      pop\n      pop\n      jump\t// out\n        /* \"#utility.yul\":1383:1605   */\n    tag_16:\n        /* \"#utility.yul\":1476:1480   */\n      0x00\n        /* \"#utility.yul\":1514:1516   */\n      0x20\n        /* \"#utility.yul\":1503:1512   */\n      dup3\n        /* \"#utility.yul\":1499:1517   */\n      add\n        /* \"#utility.yul\":1491:1517   */\n      swap1\n      pop\n        /* \"#utility.yul\":1527:1598   */\n      tag_86\n        /* \"#utility.yul\":1595:1596   */\n      0x00\n        /* \"#utility.yul\":1584:1593   */\n      dup4\n        /* \"#utility.yul\":1580:1597   */\n      add\n        /* \"#utility.yul\":1571:1577   */\n      dup5\n        /* \"#utility.yul\":1527:1598   */\n      tag_57\n      jump\t// in\n    tag_86:\n        /* \"#utility.yul\":1383:1605   */\n      swap3\n      swap2\n      pop\n      pop\n      jump\t// out\n        /* \"#utility.yul\":1611:1733   */\n    tag_58:\n        /* \"#utility.yul\":1684:1708   */\n      tag_88\n        /* \"#utility.yul\":1702:1707   */\n      dup2\n        /* \"#utility.yul\":1684:1708   */\n      tag_56\n      jump\t// in\n    tag_88:\n        /* \"#utility.yul\":1677:1682   */\n      dup2\n        /* \"#utility.yul\":1674:1709   */\n      eq\n        /* \"#utility.yul\":1664:1727   */\n      tag_89\n      jumpi\n        /* \"#utility.yul\":1723:1724   */\n      0x00\n        /* \"#utility.yul\":1720:1721   */\n      dup1\n        /* \"#utility.yul\":1713:1725   */\n      revert\n        /* \"#utility.yul\":1664:1727   */\n    tag_89:\n        /* \"#utility.yul\":1611:1733   */\n      pop\n      jump\t// out\n        /* \"#utility.yul\":1739:1878   */\n    tag_59:\n        /* \"#utility.yul\":1785:1790   */\n      0x00\n        /* \"#utility.yul\":1823:1829   */\n      dup2\n        /* \"#utility.yul\":1810:1830   */\n      calldataload\n        /* \"#utility.yul\":1801:1830   */\n      swap1\n      pop\n        /* \"#utility.yul\":1839:1872   */\n      tag_91\n        /* \"#utility.yul\":1866:1871   */\n      dup2\n        /* \"#utility.yul\":1839:1872   */\n      tag_58\n      jump\t// in\n    tag_91:\n        /* \"#utility.yul\":1739:1878   */\n      swap3\n      swap2\n      pop\n      pop\n      jump\t// out\n        /* \"#utility.yul\":1884:2213   */\n    tag_28:\n        /* \"#utility.yul\":1943:1949   */\n      0x00\n        /* \"#utility.yul\":1992:1994   */\n      0x20\n        /* \"#utility.yul\":1980:1989   */\n      dup3\n        /* \"#utility.yul\":1971:1978   */\n      dup5\n        /* \"#utility.yul\":1967:1990   */\n      sub\n        /* \"#utility.yul\":1963:1995   */\n      slt\n        /* \"#utility.yul\":1960:2079   */\n      iszero\n      tag_93\n      jumpi\n        /* \"#utility.yul\":1998:2077   */\n      tag_94\n      tag_50\n      jump\t// in\n    tag_94:\n        /* \"#utility.yul\":1960:2079   */\n    tag_93:\n        /* \"#utility.yul\":2118:2119   */\n      0x00\n        /* \"#utility.yul\":2143:2196   */\n      tag_95\n        /* \"#utility.yul\":2188:2195   */\n      dup5\n        /* \"#utility.yul\":2179:2185   */\n      dup3\n        /* \"#utility.yul\":2168:2177   */\n      dup6\n        /* \"#utility.yul\":2164:2186   */\n      add\n        /* \"#utility.yul\":2143:2196   */\n      tag_59\n      jump\t// in\n    tag_95:\n        /* \"#utility.yul\":2133:2196   */\n      swap2\n      pop\n        /* \"#utility.yul\":2089:2206   */\n      pop\n        /* \"#utility.yul\":1884:2213   */\n      swap3\n      swap2\n      pop\n      pop\n      jump\t// out\n        /* \"#utility.yul\":2219:2323   */\n    tag_60:\n        /* \"#utility.yul\":2264:2271   */\n      0x00\n        /* \"#utility.yul\":2293:2317   */\n      tag_97\n        /* \"#utility.yul\":2311:2316   */\n      dup3\n        /* \"#utility.yul\":2293:2317   */\n      tag_52\n      jump\t// in\n    tag_97:\n        /* \"#utility.yul\":2282:2317   */\n      swap1\n      pop\n        /* \"#utility.yul\":2219:2323   */\n      swap2\n      swap1\n      pop\n      jump\t// out\n        /* \"#utility.yul\":2329:2467   */\n    tag_61:\n        /* \"#utility.yul\":2410:2442   */\n      tag_99\n        /* \"#utility.yul\":2436:2441   */\n      dup2\n        /* \"#utility.yul\":2410:2442   */\n      tag_60\n      jump\t// in\n    tag_99:\n        /* \"#utility.yul\":2403:2408   */\n      dup2\n        /* \"#utility.yul\":2400:2443   */\n      eq\n        /* \"#utility.yul\":2390:2461   */\n      tag_100\n      jumpi\n        /* \"#utility.yul\":2457:2458   */\n      0x00\n        /* \"#utility.yul\":2454:2455   */\n      dup1\n        /* \"#utility.yul\":2447:2459   */\n      revert\n        /* \"#utility.yul\":2390:2461   */\n    tag_100:\n        /* \"#utility.yul\":2329:2467   */\n      pop\n      jump\t// out\n        /* \"#utility.yul\":2473:2628   */\n    tag_62:\n        /* \"#utility.yul\":2527:2532   */\n      0x00\n        /* \"#utility.yul\":2565:2571   */\n      dup2\n        /* \"#utility.yul\":2552:2572   */\n      calldataload\n        /* \"#utility.yul\":2543:2572   */\n      swap1\n      pop\n        /* \"#utility.yul\":2581:2622   */\n      tag_102\n        /* \"#utility.yul\":2616:2621   */\n      dup2\n        /* \"#utility.yul\":2581:2622   */\n      tag_61\n      jump\t// in\n    tag_102:\n        /* \"#utility.yul\":2473:2628   */\n      swap3\n      swap2\n      pop\n      pop\n      jump\t// out\n        /* \"#utility.yul\":2634:3124   */\n    tag_33:\n        /* \"#utility.yul\":2710:2716   */\n      0x00\n        /* \"#utility.yul\":2718:2724   */\n      dup1\n        /* \"#utility.yul\":2767:2769   */\n      0x40\n        /* \"#utility.yul\":2755:2764   */\n      dup4\n        /* \"#utility.yul\":2746:2753   */\n      dup6\n        /* \"#utility.yul\":2742:2765   */\n      sub\n        /* \"#utility.yul\":2738:2770   */\n      slt\n        /* \"#utility.yul\":2735:2854   */\n      iszero\n      tag_104\n      jumpi\n        /* \"#utility.yul\":2773:2852   */\n      tag_105\n      tag_50\n      jump\t// in\n    tag_105:\n        /* \"#utility.yul\":2735:2854   */\n    tag_104:\n        /* \"#utility.yul\":2893:2894   */\n      0x00\n        /* \"#utility.yul\":2918:2971   */\n      tag_106\n        /* \"#utility.yul\":2963:2970   */\n      dup6\n        /* \"#utility.yul\":2954:2960   */\n      dup3\n        /* \"#utility.yul\":2943:2952   */\n      dup7\n        /* \"#utility.yul\":2939:2961   */\n      add\n        /* \"#utility.yul\":2918:2971   */\n      tag_59\n      jump\t// in\n    tag_106:\n        /* \"#utility.yul\":2908:2971   */\n      swap3\n      pop\n        /* \"#utility.yul\":2864:2981   */\n      pop\n        /* \"#utility.yul\":3020:3022   */\n      0x20\n        /* \"#utility.yul\":3046:3107   */\n      tag_107\n        /* \"#utility.yul\":3099:3106   */\n      dup6\n        /* \"#utility.yul\":3090:3096   */\n      dup3\n        /* \"#utility.yul\":3079:3088   */\n      dup7\n        /* \"#utility.yul\":3075:3097   */\n      add\n        /* \"#utility.yul\":3046:3107   */\n      tag_62\n      jump\t// in\n    tag_107:\n        /* \"#utility.yul\":3036:3107   */\n      swap2\n      pop\n        /* \"#utility.yul\":2991:3117   */\n      pop\n        /* \"#utility.yul\":2634:3124   */\n      swap3\n      pop\n      swap3\n      swap1\n      pop\n      jump\t// out\n        /* \"#utility.yul\":3130:3299   */\n    tag_63:\n        /* \"#utility.yul\":3214:3225   */\n      0x00\n        /* \"#utility.yul\":3248:3254   */\n      dup3\n        /* \"#utility.yul\":3243:3246   */\n      dup3\n        /* \"#utility.yul\":3236:3255   */\n      mstore\n        /* \"#utility.yul\":3288:3292   */\n      0x20\n        /* \"#utility.yul\":3283:3286   */\n      dup3\n        /* \"#utility.yul\":3279:3293   */\n      add\n        /* \"#utility.yul\":3264:3293   */\n      swap1\n      pop\n        /* \"#utility.yul\":3130:3299   */\n      swap3\n      swap2\n      pop\n      pop\n      jump\t// out\n        /* \"#utility.yul\":3305:3471   */\n    tag_64:\n        /* \"#utility.yul\":3445:3463   */\n      0x4e6f7420656e6f7567682066756e647300000000000000000000000000000000\n        /* \"#utility.yul\":3441:3442   */\n      0x00\n        /* \"#utility.yul\":3433:3439   */\n      dup3\n        /* \"#utility.yul\":3429:3443   */\n      add\n        /* \"#utility.yul\":3422:3464   */\n      mstore\n        /* \"#utility.yul\":3305:3471   */\n      pop\n      jump\t// out\n        /* \"#utility.yul\":3477:3843   */\n    tag_65:\n        /* \"#utility.yul\":3619:3622   */\n      0x00\n        /* \"#utility.yul\":3640:3707   */\n      tag_111\n        /* \"#utility.yul\":3704:3706   */\n      0x10\n        /* \"#utility.yul\":3699:3702   */\n      dup4\n        /* \"#utility.yul\":3640:3707   */\n      tag_63\n      jump\t// in\n    tag_111:\n        /* \"#utility.yul\":3633:3707   */\n      swap2\n      pop\n        /* \"#utility.yul\":3716:3809   */\n      tag_112\n        /* \"#utility.yul\":3805:3808   */\n      dup3\n        /* \"#utility.yul\":3716:3809   */\n      tag_64\n      jump\t// in\n    tag_112:\n        /* \"#utility.yul\":3834:3836   */\n      0x20\n        /* \"#utility.yul\":3829:3832   */\n      dup3\n        /* \"#utility.yul\":3825:3837   */\n      add\n        /* \"#utility.yul\":3818:3837   */\n      swap1\n      pop\n        /* \"#utility.yul\":3477:3843   */\n      swap2\n      swap1\n      pop\n      jump\t// out\n        /* \"#utility.yul\":3849:4268   */\n    tag_41:\n        /* \"#utility.yul\":4015:4019   */\n      0x00\n        /* \"#utility.yul\":4053:4055   */\n      0x20\n        /* \"#utility.yul\":4042:4051   */\n      dup3\n        /* \"#utility.yul\":4038:4056   */\n      add\n        /* \"#utility.yul\":4030:4056   */\n      swap1\n      pop\n        /* \"#utility.yul\":4102:4111   */\n      dup2\n        /* \"#utility.yul\":4096:4100   */\n      dup2\n        /* \"#utility.yul\":4092:4112   */\n      sub\n        /* \"#utility.yul\":4088:4089   */\n      0x00\n        /* \"#utility.yul\":4077:4086   */\n      dup4\n        /* \"#utility.yul\":4073:4090   */\n      add\n        /* \"#utility.yul\":4066:4113   */\n      mstore\n        /* \"#utility.yul\":4130:4261   */\n      tag_114\n        /* \"#utility.yul\":4256:4260   */\n      dup2\n        /* \"#utility.yul\":4130:4261   */\n      tag_65\n      jump\t// in\n    tag_114:\n        /* \"#utility.yul\":4122:4261   */\n      swap1\n      pop\n        /* \"#utility.yul\":3849:4268   */\n      swap2\n      swap1\n      pop\n      jump\t// out\n\n    auxdata: 0xa26469706673582212208f01b69f563a892d072f7489a3c09191aa9cc79caaef606e9b8bbb9eea02c6c264736f6c634300081a0033\n}\n",
				"bytecode": {
					"linkReferences": {},
					"object": "6080604052348015600e575f80fd5b506104c88061001c5f395ff3fe60806040526004361061004d575f3560e01c806335046722146100585780634c738909146100945780636f9fb98a146100be5780639bfb7ca9146100e8578063c7af84621461011057610054565b3661005457005b5f80fd5b348015610063575f80fd5b5061007e600480360381019061007991906102f0565b610138565b60405161008b9190610333565b60405180910390f35b34801561009f575f80fd5b506100a8610158565b6040516100b59190610333565b60405180910390f35b3480156100c9575f80fd5b506100d2610176565b6040516100df9190610333565b60405180910390f35b3480156100f3575f80fd5b5061010e60048036038101906101099190610376565b61017d565b005b34801561011b575f80fd5b50610136600480360381019061013191906103dc565b610207565b005b5f8173ffffffffffffffffffffffffffffffffffffffff16319050919050565b5f3373ffffffffffffffffffffffffffffffffffffffff1631905090565b5f47905090565b804710156101c0576040517f08c379a00000000000000000000000000000000000000000000000000000000081526004016101b790610474565b60405180910390fd5b3373ffffffffffffffffffffffffffffffffffffffff166108fc8290811502906040515f60405180830381858888f19350505050158015610203573d5f803e3d5ffd5b5050565b8147101561024a576040517f08c379a000000000000000000000000000000000000000000000000000000000815260040161024190610474565b60405180910390fd5b8073ffffffffffffffffffffffffffffffffffffffff166108fc8390811502906040515f60405180830381858888f1935050505015801561028d573d5f803e3d5ffd5b505050565b5f80fd5b5f73ffffffffffffffffffffffffffffffffffffffff82169050919050565b5f6102bf82610296565b9050919050565b6102cf816102b5565b81146102d9575f80fd5b50565b5f813590506102ea816102c6565b92915050565b5f6020828403121561030557610304610292565b5b5f610312848285016102dc565b91505092915050565b5f819050919050565b61032d8161031b565b82525050565b5f6020820190506103465f830184610324565b92915050565b6103558161031b565b811461035f575f80fd5b50565b5f813590506103708161034c565b92915050565b5f6020828403121561038b5761038a610292565b5b5f61039884828501610362565b91505092915050565b5f6103ab82610296565b9050919050565b6103bb816103a1565b81146103c5575f80fd5b50565b5f813590506103d6816103b2565b92915050565b5f80604083850312156103f2576103f1610292565b5b5f6103ff85828601610362565b9250506020610410858286016103c8565b9150509250929050565b5f82825260208201905092915050565b7f4e6f7420656e6f7567682066756e6473000000000000000000000000000000005f82015250565b5f61045e60108361041a565b91506104698261042a565b602082019050919050565b5f6020820190508181035f83015261048b81610452565b905091905056fea26469706673582212208f01b69f563a892d072f7489a3c09191aa9cc79caaef606e9b8bbb9eea02c6c264736f6c634300081a0033",
					"opcodes": "PUSH1 0x80 PUSH1 0x40 MSTORE CALLVALUE DUP1 ISZERO PUSH1 0xE JUMPI PUSH0 DUP1 REVERT JUMPDEST POP PUSH2 0x4C8 DUP1 PUSH2 0x1C PUSH0 CODECOPY PUSH0 RETURN INVALID PUSH1 0x80 PUSH1 0x40 MSTORE PUSH1 0x4 CALLDATASIZE LT PUSH2 0x4D JUMPI PUSH0 CALLDATALOAD PUSH1 0xE0 SHR DUP1 PUSH4 0x35046722 EQ PUSH2 0x58 JUMPI DUP1 PUSH4 0x4C738909 EQ PUSH2 0x94 JUMPI DUP1 PUSH4 0x6F9FB98A EQ PUSH2 0xBE JUMPI DUP1 PUSH4 0x9BFB7CA9 EQ PUSH2 0xE8 JUMPI DUP1 PUSH4 0xC7AF8462 EQ PUSH2 0x110 JUMPI PUSH2 0x54 JUMP JUMPDEST CALLDATASIZE PUSH2 0x54 JUMPI STOP JUMPDEST PUSH0 DUP1 REVERT JUMPDEST CALLVALUE DUP1 ISZERO PUSH2 0x63 JUMPI PUSH0 DUP1 REVERT JUMPDEST POP PUSH2 0x7E PUSH1 0x4 DUP1 CALLDATASIZE SUB DUP2 ADD SWAP1 PUSH2 0x79 SWAP2 SWAP1 PUSH2 0x2F0 JUMP JUMPDEST PUSH2 0x138 JUMP JUMPDEST PUSH1 0x40 MLOAD PUSH2 0x8B SWAP2 SWAP1 PUSH2 0x333 JUMP JUMPDEST PUSH1 0x40 MLOAD DUP1 SWAP2 SUB SWAP1 RETURN JUMPDEST CALLVALUE DUP1 ISZERO PUSH2 0x9F JUMPI PUSH0 DUP1 REVERT JUMPDEST POP PUSH2 0xA8 PUSH2 0x158 JUMP JUMPDEST PUSH1 0x40 MLOAD PUSH2 0xB5 SWAP2 SWAP1 PUSH2 0x333 JUMP JUMPDEST PUSH1 0x40 MLOAD DUP1 SWAP2 SUB SWAP1 RETURN JUMPDEST CALLVALUE DUP1 ISZERO PUSH2 0xC9 JUMPI PUSH0 DUP1 REVERT JUMPDEST POP PUSH2 0xD2 PUSH2 0x176 JUMP JUMPDEST PUSH1 0x40 MLOAD PUSH2 0xDF SWAP2 SWAP1 PUSH2 0x333 JUMP JUMPDEST PUSH1 0x40 MLOAD DUP1 SWAP2 SUB SWAP1 RETURN JUMPDEST CALLVALUE DUP1 ISZERO PUSH2 0xF3 JUMPI PUSH0 DUP1 REVERT JUMPDEST POP PUSH2 0x10E PUSH1 0x4 DUP1 CALLDATASIZE SUB DUP2 ADD SWAP1 PUSH2 0x109 SWAP2 SWAP1 PUSH2 0x376 JUMP JUMPDEST PUSH2 0x17D JUMP JUMPDEST STOP JUMPDEST CALLVALUE DUP1 ISZERO PUSH2 0x11B JUMPI PUSH0 DUP1 REVERT JUMPDEST POP PUSH2 0x136 PUSH1 0x4 DUP1 CALLDATASIZE SUB DUP2 ADD SWAP1 PUSH2 0x131 SWAP2 SWAP1 PUSH2 0x3DC JUMP JUMPDEST PUSH2 0x207 JUMP JUMPDEST STOP JUMPDEST PUSH0 DUP2 PUSH20 0xFFFFFFFFFFFFFFFFFFFFFFFFFFFFFFFFFFFFFFFF AND BALANCE SWAP1 POP SWAP2 SWAP1 POP JUMP JUMPDEST PUSH0 CALLER PUSH20 0xFFFFFFFFFFFFFFFFFFFFFFFFFFFFFFFFFFFFFFFF AND BALANCE SWAP1 POP SWAP1 JUMP JUMPDEST PUSH0 SELFBALANCE SWAP1 POP SWAP1 JUMP JUMPDEST DUP1 SELFBALANCE LT ISZERO PUSH2 0x1C0 JUMPI PUSH1 0x40 MLOAD PUSH32 0x8C379A000000000000000000000000000000000000000000000000000000000 DUP2 MSTORE PUSH1 0x4 ADD PUSH2 0x1B7 SWAP1 PUSH2 0x474 JUMP JUMPDEST PUSH1 0x40 MLOAD DUP1 SWAP2 SUB SWAP1 REVERT JUMPDEST CALLER PUSH20 0xFFFFFFFFFFFFFFFFFFFFFFFFFFFFFFFFFFFFFFFF AND PUSH2 0x8FC DUP3 SWAP1 DUP2 ISZERO MUL SWAP1 PUSH1 0x40 MLOAD PUSH0 PUSH1 0x40 MLOAD DUP1 DUP4 SUB DUP2 DUP6 DUP9 DUP9 CALL SWAP4 POP POP POP POP ISZERO DUP1 ISZERO PUSH2 0x203 JUMPI RETURNDATASIZE PUSH0 DUP1 RETURNDATACOPY RETURNDATASIZE PUSH0 REVERT JUMPDEST POP POP JUMP JUMPDEST DUP2 SELFBALANCE LT ISZERO PUSH2 0x24A JUMPI PUSH1 0x40 MLOAD PUSH32 0x8C379A000000000000000000000000000000000000000000000000000000000 DUP2 MSTORE PUSH1 0x4 ADD PUSH2 0x241 SWAP1 PUSH2 0x474 JUMP JUMPDEST PUSH1 0x40 MLOAD DUP1 SWAP2 SUB SWAP1 REVERT JUMPDEST DUP1 PUSH20 0xFFFFFFFFFFFFFFFFFFFFFFFFFFFFFFFFFFFFFFFF AND PUSH2 0x8FC DUP4 SWAP1 DUP2 ISZERO MUL SWAP1 PUSH1 0x40 MLOAD PUSH0 PUSH1 0x40 MLOAD DUP1 DUP4 SUB DUP2 DUP6 DUP9 DUP9 CALL SWAP4 POP POP POP POP ISZERO DUP1 ISZERO PUSH2 0x28D JUMPI RETURNDATASIZE PUSH0 DUP1 RETURNDATACOPY RETURNDATASIZE PUSH0 REVERT JUMPDEST POP POP POP JUMP JUMPDEST PUSH0 DUP1 REVERT JUMPDEST PUSH0 PUSH20 0xFFFFFFFFFFFFFFFFFFFFFFFFFFFFFFFFFFFFFFFF DUP3 AND SWAP1 POP SWAP2 SWAP1 POP JUMP JUMPDEST PUSH0 PUSH2 0x2BF DUP3 PUSH2 0x296 JUMP JUMPDEST SWAP1 POP SWAP2 SWAP1 POP JUMP JUMPDEST PUSH2 0x2CF DUP2 PUSH2 0x2B5 JUMP JUMPDEST DUP2 EQ PUSH2 0x2D9 JUMPI PUSH0 DUP1 REVERT JUMPDEST POP JUMP JUMPDEST PUSH0 DUP2 CALLDATALOAD SWAP1 POP PUSH2 0x2EA DUP2 PUSH2 0x2C6 JUMP JUMPDEST SWAP3 SWAP2 POP POP JUMP JUMPDEST PUSH0 PUSH1 0x20 DUP3 DUP5 SUB SLT ISZERO PUSH2 0x305 JUMPI PUSH2 0x304 PUSH2 0x292 JUMP JUMPDEST JUMPDEST PUSH0 PUSH2 0x312 DUP5 DUP3 DUP6 ADD PUSH2 0x2DC JUMP JUMPDEST SWAP2 POP POP SWAP3 SWAP2 POP POP JUMP JUMPDEST PUSH0 DUP2 SWAP1 POP SWAP2 SWAP1 POP JUMP JUMPDEST PUSH2 0x32D DUP2 PUSH2 0x31B JUMP JUMPDEST DUP3 MSTORE POP POP JUMP JUMPDEST PUSH0 PUSH1 0x20 DUP3 ADD SWAP1 POP PUSH2 0x346 PUSH0 DUP4 ADD DUP5 PUSH2 0x324 JUMP JUMPDEST SWAP3 SWAP2 POP POP JUMP JUMPDEST PUSH2 0x355 DUP2 PUSH2 0x31B JUMP JUMPDEST DUP2 EQ PUSH2 0x35F JUMPI PUSH0 DUP1 REVERT JUMPDEST POP JUMP JUMPDEST PUSH0 DUP2 CALLDATALOAD SWAP1 POP PUSH2 0x370 DUP2 PUSH2 0x34C JUMP JUMPDEST SWAP3 SWAP2 POP POP JUMP JUMPDEST PUSH0 PUSH1 0x20 DUP3 DUP5 SUB SLT ISZERO PUSH2 0x38B JUMPI PUSH2 0x38A PUSH2 0x292 JUMP JUMPDEST JUMPDEST PUSH0 PUSH2 0x398 DUP5 DUP3 DUP6 ADD PUSH2 0x362 JUMP JUMPDEST SWAP2 POP POP SWAP3 SWAP2 POP POP JUMP JUMPDEST PUSH0 PUSH2 0x3AB DUP3 PUSH2 0x296 JUMP JUMPDEST SWAP1 POP SWAP2 SWAP1 POP JUMP JUMPDEST PUSH2 0x3BB DUP2 PUSH2 0x3A1 JUMP JUMPDEST DUP2 EQ PUSH2 0x3C5 JUMPI PUSH0 DUP1 REVERT JUMPDEST POP JUMP JUMPDEST PUSH0 DUP2 CALLDATALOAD SWAP1 POP PUSH2 0x3D6 DUP2 PUSH2 0x3B2 JUMP JUMPDEST SWAP3 SWAP2 POP POP JUMP JUMPDEST PUSH0 DUP1 PUSH1 0x40 DUP4 DUP6 SUB SLT ISZERO PUSH2 0x3F2 JUMPI PUSH2 0x3F1 PUSH2 0x292 JUMP JUMPDEST JUMPDEST PUSH0 PUSH2 0x3FF DUP6 DUP3 DUP7 ADD PUSH2 0x362 JUMP JUMPDEST SWAP3 POP POP PUSH1 0x20 PUSH2 0x410 DUP6 DUP3 DUP7 ADD PUSH2 0x3C8 JUMP JUMPDEST SWAP2 POP POP SWAP3 POP SWAP3 SWAP1 POP JUMP JUMPDEST PUSH0 DUP3 DUP3 MSTORE PUSH1 0x20 DUP3 ADD SWAP1 POP SWAP3 SWAP2 POP POP JUMP JUMPDEST PUSH32 0x4E6F7420656E6F7567682066756E647300000000000000000000000000000000 PUSH0 DUP3 ADD MSTORE POP JUMP JUMPDEST PUSH0 PUSH2 0x45E PUSH1 0x10 DUP4 PUSH2 0x41A JUMP JUMPDEST SWAP2 POP PUSH2 0x469 DUP3 PUSH2 0x42A JUMP JUMPDEST PUSH1 0x20 DUP3 ADD SWAP1 POP SWAP2 SWAP1 POP JUMP JUMPDEST PUSH0 PUSH1 0x20 DUP3 ADD SWAP1 POP DUP2 DUP2 SUB PUSH0 DUP4 ADD MSTORE PUSH2 0x48B DUP2 PUSH2 0x452 JUMP JUMPDEST SWAP1 POP SWAP2 SWAP1 POP JUMP INVALID LOG2 PUSH5 0x6970667358 0x22 SLT KECCAK256 DUP16 ADD 0xB6 SWAP16 JUMP GASPRICE DUP10 0x2D SMOD 0x2F PUSH21 0x89A3C09191AA9CC79CAAEF606E9B8BBB9EEA02C6C2 PUSH5 0x736F6C6343 STOP ADDMOD BYTE STOP CALLER "
				},
				"gasEstimates": {
					"creation": {
						"codeDepositCost": "244800",
						"executionCost": "285",
						"totalCost": "245085"
					},
					"external": {
						"getAddressBalance(address)": "3225",
						"getContractBalance()": "356",
						"getMyBalance()": "2937",
						"giveMeEth(uint256)": "infinite",
						"transferEthToAddress(uint256,address)": "infinite"
					}
				},
				"methodIdentifiers": {
					"getAddressBalance(address)": "35046722",
					"getContractBalance()": "6f9fb98a",
					"getMyBalance()": "4c738909",
					"giveMeEth(uint256)": "9bfb7ca9",
					"transferEthToAddress(uint256,address)": "c7af8462"
				}
			},
			"storageLayout": {
				"storage": [],
				"types": null
			},
			"userdoc": {
				"kind": "user",
				"methods": {},
				"version": 1
			}
		}
	}
}