{
	"code13_8.sol": {
		"task8": {
			"abi": [
				{
					"inputs": [
						{
							"internalType": "address[]",
							"name": "addresses",
							"type": "address[]"
						}
					],
					"name": "distributeEth",
					"outputs": [],
					"stateMutability": "payable",
					"type": "function"
				},
				{
					"inputs": [
						{
							"internalType": "address",
							"name": "adr",
							"type": "address"
						}
					],
					"name": "getAddressBalance",
					"outputs": [
						{
							"internalType": "uint256",
							"name": "",
							"type": "uint256"
						}
					],
					"stateMutability": "view",
					"type": "function"
				},
				{
					"inputs": [],
					"name": "getContractBalance",
					"outputs": [
						{
							"internalType": "uint256",
							"name": "",
							"type": "uint256"
						}
					],
					"stateMutability": "view",
					"type": "function"
				},
				{
					"stateMutability": "payable",
					"type": "receive"
				}
			],
			"devdoc": {
				"kind": "dev",
				"methods": {},
				"version": 1
			},
			"evm": {
				"assembly": "    /* \"code13_8.sol\":27:863  contract task8 {... */\n  mstore(0x40, 0x80)\n  callvalue\n  dup1\n  iszero\n  tag_1\n  jumpi\n  0x00\n  dup1\n  revert\ntag_1:\n  pop\n  dataSize(sub_0)\n  dup1\n  dataOffset(sub_0)\n  0x00\n  codecopy\n  0x00\n  return\nstop\n\nsub_0: assembly {\n        /* \"code13_8.sol\":27:863  contract task8 {... */\n      mstore(0x40, 0x80)\n      jumpi(tag_1, lt(calldatasize, 0x04))\n      shr(0xe0, calldataload(0x00))\n      dup1\n      0x35046722\n      eq\n      tag_3\n      jumpi\n      dup1\n      0x6af94f69\n      eq\n      tag_4\n      jumpi\n      dup1\n      0x6f9fb98a\n      eq\n      tag_5\n      jumpi\n      jump(tag_2)\n    tag_1:\n      jumpi(tag_2, calldatasize)\n      stop\n    tag_2:\n      0x00\n      dup1\n      revert\n        /* \"code13_8.sol\":204:314  function getAddressBalance(address adr) external view returns(uint256){... */\n    tag_3:\n      callvalue\n      dup1\n      iszero\n      tag_8\n      jumpi\n      0x00\n      dup1\n      revert\n    tag_8:\n      pop\n      tag_9\n      0x04\n      dup1\n      calldatasize\n      sub\n      dup2\n      add\n      swap1\n      tag_10\n      swap2\n      swap1\n      tag_11\n      jump\t// in\n    tag_10:\n      tag_12\n      jump\t// in\n    tag_9:\n      mload(0x40)\n      tag_13\n      swap2\n      swap1\n      tag_14\n      jump\t// in\n    tag_13:\n      mload(0x40)\n      dup1\n      swap2\n      sub\n      swap1\n      return\n        /* \"code13_8.sol\":323:860  function distributeEth(address[] memory addresses) external payable  {... */\n    tag_4:\n      tag_15\n      0x04\n      dup1\n      calldatasize\n      sub\n      dup2\n      add\n      swap1\n      tag_16\n      swap2\n      swap1\n      tag_17\n      jump\t// in\n    tag_16:\n      tag_18\n      jump\t// in\n    tag_15:\n      stop\n        /* \"code13_8.sol\":85:195  function getContractBalance() external view returns (uint256){... */\n    tag_5:\n      callvalue\n      dup1\n      iszero\n      tag_19\n      jumpi\n      0x00\n      dup1\n      revert\n    tag_19:\n      pop\n      tag_20\n      tag_21\n      jump\t// in\n    tag_20:\n      mload(0x40)\n      tag_22\n      swap2\n      swap1\n      tag_14\n      jump\t// in\n    tag_22:\n      mload(0x40)\n      dup1\n      swap2\n      sub\n      swap1\n      return\n        /* \"code13_8.sol\":204:314  function getAddressBalance(address adr) external view returns(uint256){... */\n    tag_12:\n        /* \"code13_8.sol\":266:273  uint256 */\n      0x00\n        /* \"code13_8.sol\":294:297  adr */\n      dup2\n        /* \"code13_8.sol\":294:305  adr.balance */\n      0xffffffffffffffffffffffffffffffffffffffff\n      and\n      balance\n        /* \"code13_8.sol\":287:305  return adr.balance */\n      swap1\n      pop\n        /* \"code13_8.sol\":204:314  function getAddressBalance(address adr) external view returns(uint256){... */\n      swap2\n      swap1\n      pop\n      jump\t// out\n        /* \"code13_8.sol\":323:860  function distributeEth(address[] memory addresses) external payable  {... */\n    tag_18:\n        /* \"code13_8.sol\":405:421  uint256 totalEth */\n      0x00\n        /* \"code13_8.sol\":424:433  msg.value */\n      callvalue\n        /* \"code13_8.sol\":405:433  uint256 totalEth = msg.value */\n      swap1\n      pop\n        /* \"code13_8.sol\":444:470  uint256 numberOfRecepients */\n      0x00\n        /* \"code13_8.sol\":492:493  1 */\n      0x01\n        /* \"code13_8.sol\":473:482  addresses */\n      dup4\n        /* \"code13_8.sol\":473:489  addresses.length */\n      mload\n        /* \"code13_8.sol\":473:493  addresses.length + 1 */\n      tag_25\n      swap2\n      swap1\n      tag_26\n      jump\t// in\n    tag_25:\n        /* \"code13_8.sol\":444:493  uint256 numberOfRecepients = addresses.length + 1 */\n      swap1\n      pop\n        /* \"code13_8.sol\":504:530  uint256 amountPerRecepient */\n      0x00\n        /* \"code13_8.sol\":544:562  numberOfRecepients */\n      dup2\n        /* \"code13_8.sol\":533:541  totalEth */\n      dup4\n        /* \"code13_8.sol\":533:562  totalEth / numberOfRecepients */\n      tag_27\n      swap2\n      swap1\n      tag_28\n      jump\t// in\n    tag_27:\n        /* \"code13_8.sol\":504:562  uint256 amountPerRecepient = totalEth / numberOfRecepients */\n      swap1\n      pop\n        /* \"code13_8.sol\":573:597  uint256 remainingBalance */\n      0x00\n        /* \"code13_8.sol\":611:629  numberOfRecepients */\n      dup3\n        /* \"code13_8.sol\":600:608  totalEth */\n      dup5\n        /* \"code13_8.sol\":600:629  totalEth % numberOfRecepients */\n      tag_29\n      swap2\n      swap1\n      tag_30\n      jump\t// in\n    tag_29:\n        /* \"code13_8.sol\":573:629  uint256 remainingBalance = totalEth % numberOfRecepients */\n      swap1\n      pop\n        /* \"code13_8.sol\":646:655  uint256 i */\n      0x00\n        /* \"code13_8.sol\":641:766  for (uint256 i = 0;i < numberOfRecepients; i++){... */\n    tag_31:\n        /* \"code13_8.sol\":664:682  numberOfRecepients */\n      dup4\n        /* \"code13_8.sol\":660:661  i */\n      dup2\n        /* \"code13_8.sol\":660:682  i < numberOfRecepients */\n      lt\n        /* \"code13_8.sol\":641:766  for (uint256 i = 0;i < numberOfRecepients; i++){... */\n      iszero\n      tag_32\n      jumpi\n        /* \"code13_8.sol\":711:720  addresses */\n      dup6\n        /* \"code13_8.sol\":721:722  i */\n      dup2\n        /* \"code13_8.sol\":711:723  addresses[i] */\n      dup2\n      mload\n      dup2\n      lt\n      tag_34\n      jumpi\n      tag_35\n      tag_36\n      jump\t// in\n    tag_35:\n    tag_34:\n      0x20\n      mul\n      0x20\n      add\n      add\n      mload\n        /* \"code13_8.sol\":703:733  payable(addresses[i]).transfer */\n      0xffffffffffffffffffffffffffffffffffffffff\n      and\n        /* \"code13_8.sol\":703:753  payable(addresses[i]).transfer(amountPerRecepient) */\n      0x08fc\n        /* \"code13_8.sol\":734:752  amountPerRecepient */\n      dup5\n        /* \"code13_8.sol\":703:753  payable(addresses[i]).transfer(amountPerRecepient) */\n      swap1\n      dup2\n      iszero\n      mul\n      swap1\n      mload(0x40)\n      0x00\n      mload(0x40)\n      dup1\n      dup4\n      sub\n      dup2\n      dup6\n      dup9\n      dup9\n      call\n      swap4\n      pop\n      pop\n      pop\n      pop\n      iszero\n      dup1\n      iszero\n      tag_38\n      jumpi\n      returndatasize\n      0x00\n      dup1\n      returndatacopy\n      revert(0x00, returndatasize)\n    tag_38:\n      pop\n        /* \"code13_8.sol\":684:687  i++ */\n      dup1\n      dup1\n      0x01\n      add\n      swap2\n      pop\n      pop\n        /* \"code13_8.sol\":641:766  for (uint256 i = 0;i < numberOfRecepients; i++){... */\n      jump(tag_31)\n    tag_32:\n      pop\n        /* \"code13_8.sol\":793:797  this */\n      address\n        /* \"code13_8.sol\":777:808  payable(address(this)).transfer */\n      0xffffffffffffffffffffffffffffffffffffffff\n      and\n        /* \"code13_8.sol\":777:847  payable(address(this)).transfer(amountPerRecepient + remainingBalance) */\n      0x08fc\n        /* \"code13_8.sol\":830:846  remainingBalance */\n      dup3\n        /* \"code13_8.sol\":809:827  amountPerRecepient */\n      dup5\n        /* \"code13_8.sol\":809:846  amountPerRecepient + remainingBalance */\n      tag_39\n      swap2\n      swap1\n      tag_26\n      jump\t// in\n    tag_39:\n        /* \"code13_8.sol\":777:847  payable(address(this)).transfer(amountPerRecepient + remainingBalance) */\n      swap1\n      dup2\n      iszero\n      mul\n      swap1\n      mload(0x40)\n      0x00\n      mload(0x40)\n      dup1\n      dup4\n      sub\n      dup2\n      dup6\n      dup9\n      dup9\n      call\n      swap4\n      pop\n      pop\n      pop\n      pop\n      iszero\n      dup1\n      iszero\n      tag_41\n      jumpi\n      returndatasize\n      0x00\n      dup1\n      returndatacopy\n      revert(0x00, returndatasize)\n    tag_41:\n      pop\n        /* \"code13_8.sol\":392:860  {... */\n      pop\n      pop\n      pop\n      pop\n        /* \"code13_8.sol\":323:860  function distributeEth(address[] memory addresses) external payable  {... */\n      pop\n      jump\t// out\n        /* \"code13_8.sol\":85:195  function getContractBalance() external view returns (uint256){... */\n    tag_21:\n        /* \"code13_8.sol\":138:145  uint256 */\n      0x00\n        /* \"code13_8.sol\":166:187  address(this).balance */\n      selfbalance\n        /* \"code13_8.sol\":159:187  return address(this).balance */\n      swap1\n      pop\n        /* \"code13_8.sol\":85:195  function getContractBalance() external view returns (uint256){... */\n      swap1\n      jump\t// out\n        /* \"#utility.yul\":7:82   */\n    tag_43:\n        /* \"#utility.yul\":40:46   */\n      0x00\n        /* \"#utility.yul\":73:75   */\n      0x40\n        /* \"#utility.yul\":67:76   */\n      mload\n        /* \"#utility.yul\":57:76   */\n      swap1\n      pop\n        /* \"#utility.yul\":7:82   */\n      swap1\n      jump\t// out\n        /* \"#utility.yul\":88:205   */\n    tag_44:\n        /* \"#utility.yul\":197:198   */\n      0x00\n        /* \"#utility.yul\":194:195   */\n      dup1\n        /* \"#utility.yul\":187:199   */\n      revert\n        /* \"#utility.yul\":211:328   */\n    tag_45:\n        /* \"#utility.yul\":320:321   */\n      0x00\n        /* \"#utility.yul\":317:318   */\n      dup1\n        /* \"#utility.yul\":310:322   */\n      revert\n        /* \"#utility.yul\":334:460   */\n    tag_46:\n        /* \"#utility.yul\":371:378   */\n      0x00\n        /* \"#utility.yul\":411:453   */\n      0xffffffffffffffffffffffffffffffffffffffff\n        /* \"#utility.yul\":404:409   */\n      dup3\n        /* \"#utility.yul\":400:454   */\n      and\n        /* \"#utility.yul\":389:454   */\n      swap1\n      pop\n        /* \"#utility.yul\":334:460   */\n      swap2\n      swap1\n      pop\n      jump\t// out\n        /* \"#utility.yul\":466:562   */\n    tag_47:\n        /* \"#utility.yul\":503:510   */\n      0x00\n        /* \"#utility.yul\":532:556   */\n      tag_69\n        /* \"#utility.yul\":550:555   */\n      dup3\n        /* \"#utility.yul\":532:556   */\n      tag_46\n      jump\t// in\n    tag_69:\n        /* \"#utility.yul\":521:556   */\n      swap1\n      pop\n        /* \"#utility.yul\":466:562   */\n      swap2\n      swap1\n      pop\n      jump\t// out\n        /* \"#utility.yul\":568:690   */\n    tag_48:\n        /* \"#utility.yul\":641:665   */\n      tag_71\n        /* \"#utility.yul\":659:664   */\n      dup2\n        /* \"#utility.yul\":641:665   */\n      tag_47\n      jump\t// in\n    tag_71:\n        /* \"#utility.yul\":634:639   */\n      dup2\n        /* \"#utility.yul\":631:666   */\n      eq\n        /* \"#utility.yul\":621:684   */\n      tag_72\n      jumpi\n        /* \"#utility.yul\":680:681   */\n      0x00\n        /* \"#utility.yul\":677:678   */\n      dup1\n        /* \"#utility.yul\":670:682   */\n      revert\n        /* \"#utility.yul\":621:684   */\n    tag_72:\n        /* \"#utility.yul\":568:690   */\n      pop\n      jump\t// out\n        /* \"#utility.yul\":696:835   */\n    tag_49:\n        /* \"#utility.yul\":742:747   */\n      0x00\n        /* \"#utility.yul\":780:786   */\n      dup2\n        /* \"#utility.yul\":767:787   */\n      calldataload\n        /* \"#utility.yul\":758:787   */\n      swap1\n      pop\n        /* \"#utility.yul\":796:829   */\n      tag_74\n        /* \"#utility.yul\":823:828   */\n      dup2\n        /* \"#utility.yul\":796:829   */\n      tag_48\n      jump\t// in\n    tag_74:\n        /* \"#utility.yul\":696:835   */\n      swap3\n      swap2\n      pop\n      pop\n      jump\t// out\n        /* \"#utility.yul\":841:1170   */\n    tag_11:\n        /* \"#utility.yul\":900:906   */\n      0x00\n        /* \"#utility.yul\":949:951   */\n      0x20\n        /* \"#utility.yul\":937:946   */\n      dup3\n        /* \"#utility.yul\":928:935   */\n      dup5\n        /* \"#utility.yul\":924:947   */\n      sub\n        /* \"#utility.yul\":920:952   */\n      slt\n        /* \"#utility.yul\":917:1036   */\n      iszero\n      tag_76\n      jumpi\n        /* \"#utility.yul\":955:1034   */\n      tag_77\n      tag_44\n      jump\t// in\n    tag_77:\n        /* \"#utility.yul\":917:1036   */\n    tag_76:\n        /* \"#utility.yul\":1075:1076   */\n      0x00\n        /* \"#utility.yul\":1100:1153   */\n      tag_78\n        /* \"#utility.yul\":1145:1152   */\n      dup5\n        /* \"#utility.yul\":1136:1142   */\n      dup3\n        /* \"#utility.yul\":1125:1134   */\n      dup6\n        /* \"#utility.yul\":1121:1143   */\n      add\n        /* \"#utility.yul\":1100:1153   */\n      tag_49\n      jump\t// in\n    tag_78:\n        /* \"#utility.yul\":1090:1153   */\n      swap2\n      pop\n        /* \"#utility.yul\":1046:1163   */\n      pop\n        /* \"#utility.yul\":841:1170   */\n      swap3\n      swap2\n      pop\n      pop\n      jump\t// out\n        /* \"#utility.yul\":1176:1253   */\n    tag_50:\n        /* \"#utility.yul\":1213:1220   */\n      0x00\n        /* \"#utility.yul\":1242:1247   */\n      dup2\n        /* \"#utility.yul\":1231:1247   */\n      swap1\n      pop\n        /* \"#utility.yul\":1176:1253   */\n      swap2\n      swap1\n      pop\n      jump\t// out\n        /* \"#utility.yul\":1259:1377   */\n    tag_51:\n        /* \"#utility.yul\":1346:1370   */\n      tag_81\n        /* \"#utility.yul\":1364:1369   */\n      dup2\n        /* \"#utility.yul\":1346:1370   */\n      tag_50\n      jump\t// in\n    tag_81:\n        /* \"#utility.yul\":1341:1344   */\n      dup3\n        /* \"#utility.yul\":1334:1371   */\n      mstore\n        /* \"#utility.yul\":1259:1377   */\n      pop\n      pop\n      jump\t// out\n        /* \"#utility.yul\":1383:1605   */\n    tag_14:\n        /* \"#utility.yul\":1476:1480   */\n      0x00\n        /* \"#utility.yul\":1514:1516   */\n      0x20\n        /* \"#utility.yul\":1503:1512   */\n      dup3\n        /* \"#utility.yul\":1499:1517   */\n      add\n        /* \"#utility.yul\":1491:1517   */\n      swap1\n      pop\n        /* \"#utility.yul\":1527:1598   */\n      tag_83\n        /* \"#utility.yul\":1595:1596   */\n      0x00\n        /* \"#utility.yul\":1584:1593   */\n      dup4\n        /* \"#utility.yul\":1580:1597   */\n      add\n        /* \"#utility.yul\":1571:1577   */\n      dup5\n        /* \"#utility.yul\":1527:1598   */\n      tag_51\n      jump\t// in\n    tag_83:\n        /* \"#utility.yul\":1383:1605   */\n      swap3\n      swap2\n      pop\n      pop\n      jump\t// out\n        /* \"#utility.yul\":1611:1728   */\n    tag_52:\n        /* \"#utility.yul\":1720:1721   */\n      0x00\n        /* \"#utility.yul\":1717:1718   */\n      dup1\n        /* \"#utility.yul\":1710:1722   */\n      revert\n        /* \"#utility.yul\":1734:1836   */\n    tag_53:\n        /* \"#utility.yul\":1775:1781   */\n      0x00\n        /* \"#utility.yul\":1826:1828   */\n      0x1f\n        /* \"#utility.yul\":1822:1829   */\n      not\n        /* \"#utility.yul\":1817:1819   */\n      0x1f\n        /* \"#utility.yul\":1810:1815   */\n      dup4\n        /* \"#utility.yul\":1806:1820   */\n      add\n        /* \"#utility.yul\":1802:1830   */\n      and\n        /* \"#utility.yul\":1792:1830   */\n      swap1\n      pop\n        /* \"#utility.yul\":1734:1836   */\n      swap2\n      swap1\n      pop\n      jump\t// out\n        /* \"#utility.yul\":1842:2022   */\n    tag_54:\n        /* \"#utility.yul\":1890:1967   */\n      0x4e487b7100000000000000000000000000000000000000000000000000000000\n        /* \"#utility.yul\":1887:1888   */\n      0x00\n        /* \"#utility.yul\":1880:1968   */\n      mstore\n        /* \"#utility.yul\":1987:1991   */\n      0x41\n        /* \"#utility.yul\":1984:1985   */\n      0x04\n        /* \"#utility.yul\":1977:1992   */\n      mstore\n        /* \"#utility.yul\":2011:2015   */\n      0x24\n        /* \"#utility.yul\":2008:2009   */\n      0x00\n        /* \"#utility.yul\":2001:2016   */\n      revert\n        /* \"#utility.yul\":2028:2309   */\n    tag_55:\n        /* \"#utility.yul\":2111:2138   */\n      tag_88\n        /* \"#utility.yul\":2133:2137   */\n      dup3\n        /* \"#utility.yul\":2111:2138   */\n      tag_53\n      jump\t// in\n    tag_88:\n        /* \"#utility.yul\":2103:2109   */\n      dup2\n        /* \"#utility.yul\":2099:2139   */\n      add\n        /* \"#utility.yul\":2241:2247   */\n      dup2\n        /* \"#utility.yul\":2229:2239   */\n      dup2\n        /* \"#utility.yul\":2226:2248   */\n      lt\n        /* \"#utility.yul\":2205:2223   */\n      0xffffffffffffffff\n        /* \"#utility.yul\":2193:2203   */\n      dup3\n        /* \"#utility.yul\":2190:2224   */\n      gt\n        /* \"#utility.yul\":2187:2249   */\n      or\n        /* \"#utility.yul\":2184:2272   */\n      iszero\n      tag_89\n      jumpi\n        /* \"#utility.yul\":2252:2270   */\n      tag_90\n      tag_54\n      jump\t// in\n    tag_90:\n        /* \"#utility.yul\":2184:2272   */\n    tag_89:\n        /* \"#utility.yul\":2292:2302   */\n      dup1\n        /* \"#utility.yul\":2288:2290   */\n      0x40\n        /* \"#utility.yul\":2281:2303   */\n      mstore\n        /* \"#utility.yul\":2071:2309   */\n      pop\n        /* \"#utility.yul\":2028:2309   */\n      pop\n      pop\n      jump\t// out\n        /* \"#utility.yul\":2315:2444   */\n    tag_56:\n        /* \"#utility.yul\":2349:2355   */\n      0x00\n        /* \"#utility.yul\":2376:2396   */\n      tag_92\n      tag_43\n      jump\t// in\n    tag_92:\n        /* \"#utility.yul\":2366:2396   */\n      swap1\n      pop\n        /* \"#utility.yul\":2405:2438   */\n      tag_93\n        /* \"#utility.yul\":2433:2437   */\n      dup3\n        /* \"#utility.yul\":2425:2431   */\n      dup3\n        /* \"#utility.yul\":2405:2438   */\n      tag_55\n      jump\t// in\n    tag_93:\n        /* \"#utility.yul\":2315:2444   */\n      swap2\n      swap1\n      pop\n      jump\t// out\n        /* \"#utility.yul\":2450:2761   */\n    tag_57:\n        /* \"#utility.yul\":2527:2531   */\n      0x00\n        /* \"#utility.yul\":2617:2635   */\n      0xffffffffffffffff\n        /* \"#utility.yul\":2609:2615   */\n      dup3\n        /* \"#utility.yul\":2606:2636   */\n      gt\n        /* \"#utility.yul\":2603:2659   */\n      iszero\n      tag_95\n      jumpi\n        /* \"#utility.yul\":2639:2657   */\n      tag_96\n      tag_54\n      jump\t// in\n    tag_96:\n        /* \"#utility.yul\":2603:2659   */\n    tag_95:\n        /* \"#utility.yul\":2689:2693   */\n      0x20\n        /* \"#utility.yul\":2681:2687   */\n      dup3\n        /* \"#utility.yul\":2677:2694   */\n      mul\n        /* \"#utility.yul\":2669:2694   */\n      swap1\n      pop\n        /* \"#utility.yul\":2749:2753   */\n      0x20\n        /* \"#utility.yul\":2743:2747   */\n      dup2\n        /* \"#utility.yul\":2739:2754   */\n      add\n        /* \"#utility.yul\":2731:2754   */\n      swap1\n      pop\n        /* \"#utility.yul\":2450:2761   */\n      swap2\n      swap1\n      pop\n      jump\t// out\n        /* \"#utility.yul\":2767:2884   */\n    tag_58:\n        /* \"#utility.yul\":2876:2877   */\n      0x00\n        /* \"#utility.yul\":2873:2874   */\n      dup1\n        /* \"#utility.yul\":2866:2878   */\n      revert\n        /* \"#utility.yul\":2907:3617   */\n    tag_59:\n        /* \"#utility.yul\":3003:3008   */\n      0x00\n        /* \"#utility.yul\":3028:3109   */\n      tag_99\n        /* \"#utility.yul\":3044:3108   */\n      tag_100\n        /* \"#utility.yul\":3101:3107   */\n      dup5\n        /* \"#utility.yul\":3044:3108   */\n      tag_57\n      jump\t// in\n    tag_100:\n        /* \"#utility.yul\":3028:3109   */\n      tag_56\n      jump\t// in\n    tag_99:\n        /* \"#utility.yul\":3019:3109   */\n      swap1\n      pop\n        /* \"#utility.yul\":3129:3134   */\n      dup1\n        /* \"#utility.yul\":3158:3164   */\n      dup4\n        /* \"#utility.yul\":3151:3156   */\n      dup3\n        /* \"#utility.yul\":3144:3165   */\n      mstore\n        /* \"#utility.yul\":3192:3196   */\n      0x20\n        /* \"#utility.yul\":3185:3190   */\n      dup3\n        /* \"#utility.yul\":3181:3197   */\n      add\n        /* \"#utility.yul\":3174:3197   */\n      swap1\n      pop\n        /* \"#utility.yul\":3245:3249   */\n      0x20\n        /* \"#utility.yul\":3237:3243   */\n      dup5\n        /* \"#utility.yul\":3233:3250   */\n      mul\n        /* \"#utility.yul\":3225:3231   */\n      dup4\n        /* \"#utility.yul\":3221:3251   */\n      add\n        /* \"#utility.yul\":3274:3277   */\n      dup6\n        /* \"#utility.yul\":3266:3272   */\n      dup2\n        /* \"#utility.yul\":3263:3278   */\n      gt\n        /* \"#utility.yul\":3260:3382   */\n      iszero\n      tag_101\n      jumpi\n        /* \"#utility.yul\":3293:3372   */\n      tag_102\n      tag_58\n      jump\t// in\n    tag_102:\n        /* \"#utility.yul\":3260:3382   */\n    tag_101:\n        /* \"#utility.yul\":3408:3414   */\n      dup4\n        /* \"#utility.yul\":3391:3611   */\n    tag_103:\n        /* \"#utility.yul\":3425:3431   */\n      dup2\n        /* \"#utility.yul\":3420:3423   */\n      dup2\n        /* \"#utility.yul\":3417:3432   */\n      lt\n        /* \"#utility.yul\":3391:3611   */\n      iszero\n      tag_105\n      jumpi\n        /* \"#utility.yul\":3500:3503   */\n      dup1\n        /* \"#utility.yul\":3529:3566   */\n      tag_106\n        /* \"#utility.yul\":3562:3565   */\n      dup9\n        /* \"#utility.yul\":3550:3560   */\n      dup3\n        /* \"#utility.yul\":3529:3566   */\n      tag_49\n      jump\t// in\n    tag_106:\n        /* \"#utility.yul\":3524:3527   */\n      dup5\n        /* \"#utility.yul\":3517:3567   */\n      mstore\n        /* \"#utility.yul\":3596:3600   */\n      0x20\n        /* \"#utility.yul\":3591:3594   */\n      dup5\n        /* \"#utility.yul\":3587:3601   */\n      add\n        /* \"#utility.yul\":3580:3601   */\n      swap4\n      pop\n        /* \"#utility.yul\":3467:3611   */\n      pop\n        /* \"#utility.yul\":3451:3455   */\n      0x20\n        /* \"#utility.yul\":3446:3449   */\n      dup2\n        /* \"#utility.yul\":3442:3456   */\n      add\n        /* \"#utility.yul\":3435:3456   */\n      swap1\n      pop\n        /* \"#utility.yul\":3391:3611   */\n      jump(tag_103)\n    tag_105:\n        /* \"#utility.yul\":3395:3416   */\n      pop\n        /* \"#utility.yul\":3009:3617   */\n      pop\n      pop\n        /* \"#utility.yul\":2907:3617   */\n      swap4\n      swap3\n      pop\n      pop\n      pop\n      jump\t// out\n        /* \"#utility.yul\":3640:4010   */\n    tag_60:\n        /* \"#utility.yul\":3711:3716   */\n      0x00\n        /* \"#utility.yul\":3760:3763   */\n      dup3\n        /* \"#utility.yul\":3753:3757   */\n      0x1f\n        /* \"#utility.yul\":3745:3751   */\n      dup4\n        /* \"#utility.yul\":3741:3758   */\n      add\n        /* \"#utility.yul\":3737:3764   */\n      slt\n        /* \"#utility.yul\":3727:3849   */\n      tag_108\n      jumpi\n        /* \"#utility.yul\":3768:3847   */\n      tag_109\n      tag_52\n      jump\t// in\n    tag_109:\n        /* \"#utility.yul\":3727:3849   */\n    tag_108:\n        /* \"#utility.yul\":3885:3891   */\n      dup2\n        /* \"#utility.yul\":3872:3892   */\n      calldataload\n        /* \"#utility.yul\":3910:4004   */\n      tag_110\n        /* \"#utility.yul\":4000:4003   */\n      dup5\n        /* \"#utility.yul\":3992:3998   */\n      dup3\n        /* \"#utility.yul\":3985:3989   */\n      0x20\n        /* \"#utility.yul\":3977:3983   */\n      dup7\n        /* \"#utility.yul\":3973:3990   */\n      add\n        /* \"#utility.yul\":3910:4004   */\n      tag_59\n      jump\t// in\n    tag_110:\n        /* \"#utility.yul\":3901:4004   */\n      swap2\n      pop\n        /* \"#utility.yul\":3717:4010   */\n      pop\n        /* \"#utility.yul\":3640:4010   */\n      swap3\n      swap2\n      pop\n      pop\n      jump\t// out\n        /* \"#utility.yul\":4016:4555   */\n    tag_17:\n        /* \"#utility.yul\":4100:4106   */\n      0x00\n        /* \"#utility.yul\":4149:4151   */\n      0x20\n        /* \"#utility.yul\":4137:4146   */\n      dup3\n        /* \"#utility.yul\":4128:4135   */\n      dup5\n        /* \"#utility.yul\":4124:4147   */\n      sub\n        /* \"#utility.yul\":4120:4152   */\n      slt\n        /* \"#utility.yul\":4117:4236   */\n      iszero\n      tag_112\n      jumpi\n        /* \"#utility.yul\":4155:4234   */\n      tag_113\n      tag_44\n      jump\t// in\n    tag_113:\n        /* \"#utility.yul\":4117:4236   */\n    tag_112:\n        /* \"#utility.yul\":4303:4304   */\n      0x00\n        /* \"#utility.yul\":4292:4301   */\n      dup3\n        /* \"#utility.yul\":4288:4305   */\n      add\n        /* \"#utility.yul\":4275:4306   */\n      calldataload\n        /* \"#utility.yul\":4333:4351   */\n      0xffffffffffffffff\n        /* \"#utility.yul\":4325:4331   */\n      dup2\n        /* \"#utility.yul\":4322:4352   */\n      gt\n        /* \"#utility.yul\":4319:4436   */\n      iszero\n      tag_114\n      jumpi\n        /* \"#utility.yul\":4355:4434   */\n      tag_115\n      tag_45\n      jump\t// in\n    tag_115:\n        /* \"#utility.yul\":4319:4436   */\n    tag_114:\n        /* \"#utility.yul\":4460:4538   */\n      tag_116\n        /* \"#utility.yul\":4530:4537   */\n      dup5\n        /* \"#utility.yul\":4521:4527   */\n      dup3\n        /* \"#utility.yul\":4510:4519   */\n      dup6\n        /* \"#utility.yul\":4506:4528   */\n      add\n        /* \"#utility.yul\":4460:4538   */\n      tag_60\n      jump\t// in\n    tag_116:\n        /* \"#utility.yul\":4450:4538   */\n      swap2\n      pop\n        /* \"#utility.yul\":4246:4548   */\n      pop\n        /* \"#utility.yul\":4016:4555   */\n      swap3\n      swap2\n      pop\n      pop\n      jump\t// out\n        /* \"#utility.yul\":4561:4741   */\n    tag_61:\n        /* \"#utility.yul\":4609:4686   */\n      0x4e487b7100000000000000000000000000000000000000000000000000000000\n        /* \"#utility.yul\":4606:4607   */\n      0x00\n        /* \"#utility.yul\":4599:4687   */\n      mstore\n        /* \"#utility.yul\":4706:4710   */\n      0x11\n        /* \"#utility.yul\":4703:4704   */\n      0x04\n        /* \"#utility.yul\":4696:4711   */\n      mstore\n        /* \"#utility.yul\":4730:4734   */\n      0x24\n        /* \"#utility.yul\":4727:4728   */\n      0x00\n        /* \"#utility.yul\":4720:4735   */\n      revert\n        /* \"#utility.yul\":4747:4938   */\n    tag_26:\n        /* \"#utility.yul\":4787:4790   */\n      0x00\n        /* \"#utility.yul\":4806:4826   */\n      tag_119\n        /* \"#utility.yul\":4824:4825   */\n      dup3\n        /* \"#utility.yul\":4806:4826   */\n      tag_50\n      jump\t// in\n    tag_119:\n        /* \"#utility.yul\":4801:4826   */\n      swap2\n      pop\n        /* \"#utility.yul\":4840:4860   */\n      tag_120\n        /* \"#utility.yul\":4858:4859   */\n      dup4\n        /* \"#utility.yul\":4840:4860   */\n      tag_50\n      jump\t// in\n    tag_120:\n        /* \"#utility.yul\":4835:4860   */\n      swap3\n      pop\n        /* \"#utility.yul\":4883:4884   */\n      dup3\n        /* \"#utility.yul\":4880:4881   */\n      dup3\n        /* \"#utility.yul\":4876:4885   */\n      add\n        /* \"#utility.yul\":4869:4885   */\n      swap1\n      pop\n        /* \"#utility.yul\":4904:4907   */\n      dup1\n        /* \"#utility.yul\":4901:4902   */\n      dup3\n        /* \"#utility.yul\":4898:4908   */\n      gt\n        /* \"#utility.yul\":4895:4931   */\n      iszero\n      tag_121\n      jumpi\n        /* \"#utility.yul\":4911:4929   */\n      tag_122\n      tag_61\n      jump\t// in\n    tag_122:\n        /* \"#utility.yul\":4895:4931   */\n    tag_121:\n        /* \"#utility.yul\":4747:4938   */\n      swap3\n      swap2\n      pop\n      pop\n      jump\t// out\n        /* \"#utility.yul\":4944:5124   */\n    tag_62:\n        /* \"#utility.yul\":4992:5069   */\n      0x4e487b7100000000000000000000000000000000000000000000000000000000\n        /* \"#utility.yul\":4989:4990   */\n      0x00\n        /* \"#utility.yul\":4982:5070   */\n      mstore\n        /* \"#utility.yul\":5089:5093   */\n      0x12\n        /* \"#utility.yul\":5086:5087   */\n      0x04\n        /* \"#utility.yul\":5079:5094   */\n      mstore\n        /* \"#utility.yul\":5113:5117   */\n      0x24\n        /* \"#utility.yul\":5110:5111   */\n      0x00\n        /* \"#utility.yul\":5103:5118   */\n      revert\n        /* \"#utility.yul\":5130:5315   */\n    tag_28:\n        /* \"#utility.yul\":5170:5171   */\n      0x00\n        /* \"#utility.yul\":5187:5207   */\n      tag_125\n        /* \"#utility.yul\":5205:5206   */\n      dup3\n        /* \"#utility.yul\":5187:5207   */\n      tag_50\n      jump\t// in\n    tag_125:\n        /* \"#utility.yul\":5182:5207   */\n      swap2\n      pop\n        /* \"#utility.yul\":5221:5241   */\n      tag_126\n        /* \"#utility.yul\":5239:5240   */\n      dup4\n        /* \"#utility.yul\":5221:5241   */\n      tag_50\n      jump\t// in\n    tag_126:\n        /* \"#utility.yul\":5216:5241   */\n      swap3\n      pop\n        /* \"#utility.yul\":5260:5261   */\n      dup3\n        /* \"#utility.yul\":5250:5285   */\n      tag_127\n      jumpi\n        /* \"#utility.yul\":5265:5283   */\n      tag_128\n      tag_62\n      jump\t// in\n    tag_128:\n        /* \"#utility.yul\":5250:5285   */\n    tag_127:\n        /* \"#utility.yul\":5307:5308   */\n      dup3\n        /* \"#utility.yul\":5304:5305   */\n      dup3\n        /* \"#utility.yul\":5300:5309   */\n      div\n        /* \"#utility.yul\":5295:5309   */\n      swap1\n      pop\n        /* \"#utility.yul\":5130:5315   */\n      swap3\n      swap2\n      pop\n      pop\n      jump\t// out\n        /* \"#utility.yul\":5321:5497   */\n    tag_30:\n        /* \"#utility.yul\":5353:5354   */\n      0x00\n        /* \"#utility.yul\":5370:5390   */\n      tag_130\n        /* \"#utility.yul\":5388:5389   */\n      dup3\n        /* \"#utility.yul\":5370:5390   */\n      tag_50\n      jump\t// in\n    tag_130:\n        /* \"#utility.yul\":5365:5390   */\n      swap2\n      pop\n        /* \"#utility.yul\":5404:5424   */\n      tag_131\n        /* \"#utility.yul\":5422:5423   */\n      dup4\n        /* \"#utility.yul\":5404:5424   */\n      tag_50\n      jump\t// in\n    tag_131:\n        /* \"#utility.yul\":5399:5424   */\n      swap3\n      pop\n        /* \"#utility.yul\":5443:5444   */\n      dup3\n        /* \"#utility.yul\":5433:5468   */\n      tag_132\n      jumpi\n        /* \"#utility.yul\":5448:5466   */\n      tag_133\n      tag_62\n      jump\t// in\n    tag_133:\n        /* \"#utility.yul\":5433:5468   */\n    tag_132:\n        /* \"#utility.yul\":5489:5490   */\n      dup3\n        /* \"#utility.yul\":5486:5487   */\n      dup3\n        /* \"#utility.yul\":5482:5491   */\n      mod\n        /* \"#utility.yul\":5477:5491   */\n      swap1\n      pop\n        /* \"#utility.yul\":5321:5497   */\n      swap3\n      swap2\n      pop\n      pop\n      jump\t// out\n        /* \"#utility.yul\":5503:5683   */\n    tag_36:\n        /* \"#utility.yul\":5551:5628   */\n      0x4e487b7100000000000000000000000000000000000000000000000000000000\n        /* \"#utility.yul\":5548:5549   */\n      0x00\n        /* \"#utility.yul\":5541:5629   */\n      mstore\n        /* \"#utility.yul\":5648:5652   */\n      0x32\n        /* \"#utility.yul\":5645:5646   */\n      0x04\n        /* \"#utility.yul\":5638:5653   */\n      mstore\n        /* \"#utility.yul\":5672:5676   */\n      0x24\n        /* \"#utility.yul\":5669:5670   */\n      0x00\n        /* \"#utility.yul\":5662:5677   */\n      revert\n\n    auxdata: 0xa2646970667358221220a3474c288d1e1afeef200702a519cf4c640ebefedaea2f8da69b7aa3ceca639964736f6c634300081a0033\n}\n",
				"bytecode": {
					"linkReferences": {},
					"object": "6080604052348015600e575f80fd5b506105988061001c5f395ff3fe608060405260043610610037575f3560e01c806335046722146100425780636af94f691461007e5780636f9fb98a1461009a5761003e565b3661003e57005b5f80fd5b34801561004d575f80fd5b5061006860048036038101906100639190610255565b6100c4565b6040516100759190610298565b60405180910390f35b61009860048036038101906100939190610401565b6100e4565b005b3480156100a5575f80fd5b506100ae6101e3565b6040516100bb9190610298565b60405180910390f35b5f8173ffffffffffffffffffffffffffffffffffffffff16319050919050565b5f3490505f600183516100f79190610475565b90505f818361010691906104d5565b90505f82846101159190610505565b90505f5b8381101561018c5785818151811061013457610133610535565b5b602002602001015173ffffffffffffffffffffffffffffffffffffffff166108fc8490811502906040515f60405180830381858888f1935050505015801561017e573d5f803e3d5ffd5b508080600101915050610119565b503073ffffffffffffffffffffffffffffffffffffffff166108fc82846101b39190610475565b90811502906040515f60405180830381858888f193505050501580156101db573d5f803e3d5ffd5b505050505050565b5f47905090565b5f604051905090565b5f80fd5b5f80fd5b5f73ffffffffffffffffffffffffffffffffffffffff82169050919050565b5f610224826101fb565b9050919050565b6102348161021a565b811461023e575f80fd5b50565b5f8135905061024f8161022b565b92915050565b5f6020828403121561026a576102696101f3565b5b5f61027784828501610241565b91505092915050565b5f819050919050565b61029281610280565b82525050565b5f6020820190506102ab5f830184610289565b92915050565b5f80fd5b5f601f19601f8301169050919050565b7f4e487b71000000000000000000000000000000000000000000000000000000005f52604160045260245ffd5b6102fb826102b5565b810181811067ffffffffffffffff8211171561031a576103196102c5565b5b80604052505050565b5f61032c6101ea565b905061033882826102f2565b919050565b5f67ffffffffffffffff821115610357576103566102c5565b5b602082029050602081019050919050565b5f80fd5b5f61037e6103798461033d565b610323565b905080838252602082019050602084028301858111156103a1576103a0610368565b5b835b818110156103ca57806103b68882610241565b8452602084019350506020810190506103a3565b5050509392505050565b5f82601f8301126103e8576103e76102b1565b5b81356103f884826020860161036c565b91505092915050565b5f60208284031215610416576104156101f3565b5b5f82013567ffffffffffffffff811115610433576104326101f7565b5b61043f848285016103d4565b91505092915050565b7f4e487b71000000000000000000000000000000000000000000000000000000005f52601160045260245ffd5b5f61047f82610280565b915061048a83610280565b92508282019050808211156104a2576104a1610448565b5b92915050565b7f4e487b71000000000000000000000000000000000000000000000000000000005f52601260045260245ffd5b5f6104df82610280565b91506104ea83610280565b9250826104fa576104f96104a8565b5b828204905092915050565b5f61050f82610280565b915061051a83610280565b92508261052a576105296104a8565b5b828206905092915050565b7f4e487b71000000000000000000000000000000000000000000000000000000005f52603260045260245ffdfea2646970667358221220a3474c288d1e1afeef200702a519cf4c640ebefedaea2f8da69b7aa3ceca639964736f6c634300081a0033",
					"opcodes": "PUSH1 0x80 PUSH1 0x40 MSTORE CALLVALUE DUP1 ISZERO PUSH1 0xE JUMPI PUSH0 DUP1 REVERT JUMPDEST POP PUSH2 0x598 DUP1 PUSH2 0x1C PUSH0 CODECOPY PUSH0 RETURN INVALID PUSH1 0x80 PUSH1 0x40 MSTORE PUSH1 0x4 CALLDATASIZE LT PUSH2 0x37 JUMPI PUSH0 CALLDATALOAD PUSH1 0xE0 SHR DUP1 PUSH4 0x35046722 EQ PUSH2 0x42 JUMPI DUP1 PUSH4 0x6AF94F69 EQ PUSH2 0x7E JUMPI DUP1 PUSH4 0x6F9FB98A EQ PUSH2 0x9A JUMPI PUSH2 0x3E JUMP JUMPDEST CALLDATASIZE PUSH2 0x3E JUMPI STOP JUMPDEST PUSH0 DUP1 REVERT JUMPDEST CALLVALUE DUP1 ISZERO PUSH2 0x4D JUMPI PUSH0 DUP1 REVERT JUMPDEST POP PUSH2 0x68 PUSH1 0x4 DUP1 CALLDATASIZE SUB DUP2 ADD SWAP1 PUSH2 0x63 SWAP2 SWAP1 PUSH2 0x255 JUMP JUMPDEST PUSH2 0xC4 JUMP JUMPDEST PUSH1 0x40 MLOAD PUSH2 0x75 SWAP2 SWAP1 PUSH2 0x298 JUMP JUMPDEST PUSH1 0x40 MLOAD DUP1 SWAP2 SUB SWAP1 RETURN JUMPDEST PUSH2 0x98 PUSH1 0x4 DUP1 CALLDATASIZE SUB DUP2 ADD SWAP1 PUSH2 0x93 SWAP2 SWAP1 PUSH2 0x401 JUMP JUMPDEST PUSH2 0xE4 JUMP JUMPDEST STOP JUMPDEST CALLVALUE DUP1 ISZERO PUSH2 0xA5 JUMPI PUSH0 DUP1 REVERT JUMPDEST POP PUSH2 0xAE PUSH2 0x1E3 JUMP JUMPDEST PUSH1 0x40 MLOAD PUSH2 0xBB SWAP2 SWAP1 PUSH2 0x298 JUMP JUMPDEST PUSH1 0x40 MLOAD DUP1 SWAP2 SUB SWAP1 RETURN JUMPDEST PUSH0 DUP2 PUSH20 0xFFFFFFFFFFFFFFFFFFFFFFFFFFFFFFFFFFFFFFFF AND BALANCE SWAP1 POP SWAP2 SWAP1 POP JUMP JUMPDEST PUSH0 CALLVALUE SWAP1 POP PUSH0 PUSH1 0x1 DUP4 MLOAD PUSH2 0xF7 SWAP2 SWAP1 PUSH2 0x475 JUMP JUMPDEST SWAP1 POP PUSH0 DUP2 DUP4 PUSH2 0x106 SWAP2 SWAP1 PUSH2 0x4D5 JUMP JUMPDEST SWAP1 POP PUSH0 DUP3 DUP5 PUSH2 0x115 SWAP2 SWAP1 PUSH2 0x505 JUMP JUMPDEST SWAP1 POP PUSH0 JUMPDEST DUP4 DUP2 LT ISZERO PUSH2 0x18C JUMPI DUP6 DUP2 DUP2 MLOAD DUP2 LT PUSH2 0x134 JUMPI PUSH2 0x133 PUSH2 0x535 JUMP JUMPDEST JUMPDEST PUSH1 0x20 MUL PUSH1 0x20 ADD ADD MLOAD PUSH20 0xFFFFFFFFFFFFFFFFFFFFFFFFFFFFFFFFFFFFFFFF AND PUSH2 0x8FC DUP5 SWAP1 DUP2 ISZERO MUL SWAP1 PUSH1 0x40 MLOAD PUSH0 PUSH1 0x40 MLOAD DUP1 DUP4 SUB DUP2 DUP6 DUP9 DUP9 CALL SWAP4 POP POP POP POP ISZERO DUP1 ISZERO PUSH2 0x17E JUMPI RETURNDATASIZE PUSH0 DUP1 RETURNDATACOPY RETURNDATASIZE PUSH0 REVERT JUMPDEST POP DUP1 DUP1 PUSH1 0x1 ADD SWAP2 POP POP PUSH2 0x119 JUMP JUMPDEST POP ADDRESS PUSH20 0xFFFFFFFFFFFFFFFFFFFFFFFFFFFFFFFFFFFFFFFF AND PUSH2 0x8FC DUP3 DUP5 PUSH2 0x1B3 SWAP2 SWAP1 PUSH2 0x475 JUMP JUMPDEST SWAP1 DUP2 ISZERO MUL SWAP1 PUSH1 0x40 MLOAD PUSH0 PUSH1 0x40 MLOAD DUP1 DUP4 SUB DUP2 DUP6 DUP9 DUP9 CALL SWAP4 POP POP POP POP ISZERO DUP1 ISZERO PUSH2 0x1DB JUMPI RETURNDATASIZE PUSH0 DUP1 RETURNDATACOPY RETURNDATASIZE PUSH0 REVERT JUMPDEST POP POP POP POP POP POP JUMP JUMPDEST PUSH0 SELFBALANCE SWAP1 POP SWAP1 JUMP JUMPDEST PUSH0 PUSH1 0x40 MLOAD SWAP1 POP SWAP1 JUMP JUMPDEST PUSH0 DUP1 REVERT JUMPDEST PUSH0 DUP1 REVERT JUMPDEST PUSH0 PUSH20 0xFFFFFFFFFFFFFFFFFFFFFFFFFFFFFFFFFFFFFFFF DUP3 AND SWAP1 POP SWAP2 SWAP1 POP JUMP JUMPDEST PUSH0 PUSH2 0x224 DUP3 PUSH2 0x1FB JUMP JUMPDEST SWAP1 POP SWAP2 SWAP1 POP JUMP JUMPDEST PUSH2 0x234 DUP2 PUSH2 0x21A JUMP JUMPDEST DUP2 EQ PUSH2 0x23E JUMPI PUSH0 DUP1 REVERT JUMPDEST POP JUMP JUMPDEST PUSH0 DUP2 CALLDATALOAD SWAP1 POP PUSH2 0x24F DUP2 PUSH2 0x22B JUMP JUMPDEST SWAP3 SWAP2 POP POP JUMP JUMPDEST PUSH0 PUSH1 0x20 DUP3 DUP5 SUB SLT ISZERO PUSH2 0x26A JUMPI PUSH2 0x269 PUSH2 0x1F3 JUMP JUMPDEST JUMPDEST PUSH0 PUSH2 0x277 DUP5 DUP3 DUP6 ADD PUSH2 0x241 JUMP JUMPDEST SWAP2 POP POP SWAP3 SWAP2 POP POP JUMP JUMPDEST PUSH0 DUP2 SWAP1 POP SWAP2 SWAP1 POP JUMP JUMPDEST PUSH2 0x292 DUP2 PUSH2 0x280 JUMP JUMPDEST DUP3 MSTORE POP POP JUMP JUMPDEST PUSH0 PUSH1 0x20 DUP3 ADD SWAP1 POP PUSH2 0x2AB PUSH0 DUP4 ADD DUP5 PUSH2 0x289 JUMP JUMPDEST SWAP3 SWAP2 POP POP JUMP JUMPDEST PUSH0 DUP1 REVERT JUMPDEST PUSH0 PUSH1 0x1F NOT PUSH1 0x1F DUP4 ADD AND SWAP1 POP SWAP2 SWAP1 POP JUMP JUMPDEST PUSH32 0x4E487B7100000000000000000000000000000000000000000000000000000000 PUSH0 MSTORE PUSH1 0x41 PUSH1 0x4 MSTORE PUSH1 0x24 PUSH0 REVERT JUMPDEST PUSH2 0x2FB DUP3 PUSH2 0x2B5 JUMP JUMPDEST DUP2 ADD DUP2 DUP2 LT PUSH8 0xFFFFFFFFFFFFFFFF DUP3 GT OR ISZERO PUSH2 0x31A JUMPI PUSH2 0x319 PUSH2 0x2C5 JUMP JUMPDEST JUMPDEST DUP1 PUSH1 0x40 MSTORE POP POP POP JUMP JUMPDEST PUSH0 PUSH2 0x32C PUSH2 0x1EA JUMP JUMPDEST SWAP1 POP PUSH2 0x338 DUP3 DUP3 PUSH2 0x2F2 JUMP JUMPDEST SWAP2 SWAP1 POP JUMP JUMPDEST PUSH0 PUSH8 0xFFFFFFFFFFFFFFFF DUP3 GT ISZERO PUSH2 0x357 JUMPI PUSH2 0x356 PUSH2 0x2C5 JUMP JUMPDEST JUMPDEST PUSH1 0x20 DUP3 MUL SWAP1 POP PUSH1 0x20 DUP2 ADD SWAP1 POP SWAP2 SWAP1 POP JUMP JUMPDEST PUSH0 DUP1 REVERT JUMPDEST PUSH0 PUSH2 0x37E PUSH2 0x379 DUP5 PUSH2 0x33D JUMP JUMPDEST PUSH2 0x323 JUMP JUMPDEST SWAP1 POP DUP1 DUP4 DUP3 MSTORE PUSH1 0x20 DUP3 ADD SWAP1 POP PUSH1 0x20 DUP5 MUL DUP4 ADD DUP6 DUP2 GT ISZERO PUSH2 0x3A1 JUMPI PUSH2 0x3A0 PUSH2 0x368 JUMP JUMPDEST JUMPDEST DUP4 JUMPDEST DUP2 DUP2 LT ISZERO PUSH2 0x3CA JUMPI DUP1 PUSH2 0x3B6 DUP9 DUP3 PUSH2 0x241 JUMP JUMPDEST DUP5 MSTORE PUSH1 0x20 DUP5 ADD SWAP4 POP POP PUSH1 0x20 DUP2 ADD SWAP1 POP PUSH2 0x3A3 JUMP JUMPDEST POP POP POP SWAP4 SWAP3 POP POP POP JUMP JUMPDEST PUSH0 DUP3 PUSH1 0x1F DUP4 ADD SLT PUSH2 0x3E8 JUMPI PUSH2 0x3E7 PUSH2 0x2B1 JUMP JUMPDEST JUMPDEST DUP2 CALLDATALOAD PUSH2 0x3F8 DUP5 DUP3 PUSH1 0x20 DUP7 ADD PUSH2 0x36C JUMP JUMPDEST SWAP2 POP POP SWAP3 SWAP2 POP POP JUMP JUMPDEST PUSH0 PUSH1 0x20 DUP3 DUP5 SUB SLT ISZERO PUSH2 0x416 JUMPI PUSH2 0x415 PUSH2 0x1F3 JUMP JUMPDEST JUMPDEST PUSH0 DUP3 ADD CALLDATALOAD PUSH8 0xFFFFFFFFFFFFFFFF DUP2 GT ISZERO PUSH2 0x433 JUMPI PUSH2 0x432 PUSH2 0x1F7 JUMP JUMPDEST JUMPDEST PUSH2 0x43F DUP5 DUP3 DUP6 ADD PUSH2 0x3D4 JUMP JUMPDEST SWAP2 POP POP SWAP3 SWAP2 POP POP JUMP JUMPDEST PUSH32 0x4E487B7100000000000000000000000000000000000000000000000000000000 PUSH0 MSTORE PUSH1 0x11 PUSH1 0x4 MSTORE PUSH1 0x24 PUSH0 REVERT JUMPDEST PUSH0 PUSH2 0x47F DUP3 PUSH2 0x280 JUMP JUMPDEST SWAP2 POP PUSH2 0x48A DUP4 PUSH2 0x280 JUMP JUMPDEST SWAP3 POP DUP3 DUP3 ADD SWAP1 POP DUP1 DUP3 GT ISZERO PUSH2 0x4A2 JUMPI PUSH2 0x4A1 PUSH2 0x448 JUMP JUMPDEST JUMPDEST SWAP3 SWAP2 POP POP JUMP JUMPDEST PUSH32 0x4E487B7100000000000000000000000000000000000000000000000000000000 PUSH0 MSTORE PUSH1 0x12 PUSH1 0x4 MSTORE PUSH1 0x24 PUSH0 REVERT JUMPDEST PUSH0 PUSH2 0x4DF DUP3 PUSH2 0x280 JUMP JUMPDEST SWAP2 POP PUSH2 0x4EA DUP4 PUSH2 0x280 JUMP JUMPDEST SWAP3 POP DUP3 PUSH2 0x4FA JUMPI PUSH2 0x4F9 PUSH2 0x4A8 JUMP JUMPDEST JUMPDEST DUP3 DUP3 DIV SWAP1 POP SWAP3 SWAP2 POP POP JUMP JUMPDEST PUSH0 PUSH2 0x50F DUP3 PUSH2 0x280 JUMP JUMPDEST SWAP2 POP PUSH2 0x51A DUP4 PUSH2 0x280 JUMP JUMPDEST SWAP3 POP DUP3 PUSH2 0x52A JUMPI PUSH2 0x529 PUSH2 0x4A8 JUMP JUMPDEST JUMPDEST DUP3 DUP3 MOD SWAP1 POP SWAP3 SWAP2 POP POP JUMP JUMPDEST PUSH32 0x4E487B7100000000000000000000000000000000000000000000000000000000 PUSH0 MSTORE PUSH1 0x32 PUSH1 0x4 MSTORE PUSH1 0x24 PUSH0 REVERT INVALID LOG2 PUSH5 0x6970667358 0x22 SLT KECCAK256 LOG3 SELFBALANCE 0x4C 0x28 DUP14 0x1E BYTE INVALID 0xEF KECCAK256 SMOD MUL 0xA5 NOT 0xCF 0x4C PUSH5 0xEBEFEDAEA 0x2F DUP14 0xA6 SWAP12 PUSH27 0xA3CECA639964736F6C634300081A00330000000000000000000000 "
				},
				"gasEstimates": {
					"creation": {
						"codeDepositCost": "286400",
						"executionCost": "322",
						"totalCost": "286722"
					},
					"external": {
						"distributeEth(address[])": "infinite",
						"getAddressBalance(address)": "3225",
						"getContractBalance()": "356"
					}
				},
				"methodIdentifiers": {
					"distributeEth(address[])": "6af94f69",
					"getAddressBalance(address)": "35046722",
					"getContractBalance()": "6f9fb98a"
				}
			},
			"storageLayout": {
				"storage": [],
				"types": null
			},
			"userdoc": {
				"kind": "user",
				"methods": {},
				"version": 1
			}
		}
	}
}