{
	"example3_6.sol": {
		"MathOperations": {
			"abi": [
				{
					"inputs": [
						{
							"internalType": "uint256",
							"name": "number1",
							"type": "uint256"
						},
						{
							"internalType": "uint256",
							"name": "number2",
							"type": "uint256"
						},
						{
							"internalType": "uint256",
							"name": "operation",
							"type": "uint256"
						}
					],
					"name": "performOperation",
					"outputs": [
						{
							"internalType": "int256",
							"name": "",
							"type": "int256"
						}
					],
					"stateMutability": "pure",
					"type": "function"
				}
			],
			"devdoc": {
				"kind": "dev",
				"methods": {},
				"version": 1
			},
			"evm": {
				"assembly": "    /* \"example3_6.sol\":27:755  contract MathOperations {... */\n  mstore(0x40, 0x80)\n  callvalue\n  dup1\n  iszero\n  tag_1\n  jumpi\n  0x00\n  dup1\n  revert\ntag_1:\n  pop\n  dataSize(sub_0)\n  dup1\n  dataOffset(sub_0)\n  0x00\n  codecopy\n  0x00\n  return\nstop\n\nsub_0: assembly {\n        /* \"example3_6.sol\":27:755  contract MathOperations {... */\n      mstore(0x40, 0x80)\n      callvalue\n      dup1\n      iszero\n      tag_1\n      jumpi\n      0x00\n      dup1\n      revert\n    tag_1:\n      pop\n      jumpi(tag_2, lt(calldatasize, 0x04))\n      shr(0xe0, calldataload(0x00))\n      dup1\n      0x56bde8e0\n      eq\n      tag_3\n      jumpi\n    tag_2:\n      0x00\n      dup1\n      revert\n        /* \"example3_6.sol\":141:752  function performOperation(uint256 number1, uint256 number2, uint256 operation) public pure returns (int256) {... */\n    tag_3:\n      tag_4\n      0x04\n      dup1\n      calldatasize\n      sub\n      dup2\n      add\n      swap1\n      tag_5\n      swap2\n      swap1\n      tag_6\n      jump\t// in\n    tag_5:\n      tag_7\n      jump\t// in\n    tag_4:\n      mload(0x40)\n      tag_8\n      swap2\n      swap1\n      tag_9\n      jump\t// in\n    tag_8:\n      mload(0x40)\n      dup1\n      swap2\n      sub\n      swap1\n      return\n    tag_7:\n        /* \"example3_6.sol\":241:247  int256 */\n      0x00\n        /* \"example3_6.sol\":277:278  1 */\n      0x01\n        /* \"example3_6.sol\":264:273  operation */\n      dup3\n        /* \"example3_6.sol\":264:278  operation == 1 */\n      sub\n        /* \"example3_6.sol\":260:745  if (operation == 1) {... */\n      tag_11\n      jumpi\n        /* \"example3_6.sol\":319:326  number2 */\n      dup3\n        /* \"example3_6.sol\":309:316  number1 */\n      dup5\n        /* \"example3_6.sol\":309:326  number1 + number2 */\n      tag_12\n      swap2\n      swap1\n      tag_13\n      jump\t// in\n    tag_12:\n        /* \"example3_6.sol\":295:327  return int256(number1 + number2) */\n      swap1\n      pop\n      jump(tag_10)\n        /* \"example3_6.sol\":260:745  if (operation == 1) {... */\n    tag_11:\n        /* \"example3_6.sol\":370:371  2 */\n      0x02\n        /* \"example3_6.sol\":357:366  operation */\n      dup3\n        /* \"example3_6.sol\":357:371  operation == 2 */\n      sub\n        /* \"example3_6.sol\":353:745  if (operation == 2) {... */\n      tag_15\n      jumpi\n        /* \"example3_6.sol\":412:419  number2 */\n      dup3\n        /* \"example3_6.sol\":402:409  number1 */\n      dup5\n        /* \"example3_6.sol\":402:419  number1 - number2 */\n      tag_16\n      swap2\n      swap1\n      tag_17\n      jump\t// in\n    tag_16:\n        /* \"example3_6.sol\":388:420  return int256(number1 - number2) */\n      swap1\n      pop\n      jump(tag_10)\n        /* \"example3_6.sol\":353:745  if (operation == 2) {... */\n    tag_15:\n        /* \"example3_6.sol\":470:471  3 */\n      0x03\n        /* \"example3_6.sol\":457:466  operation */\n      dup3\n        /* \"example3_6.sol\":457:471  operation == 3 */\n      sub\n        /* \"example3_6.sol\":453:745  if (operation == 3) {... */\n      tag_19\n      jumpi\n        /* \"example3_6.sol\":512:519  number2 */\n      dup3\n        /* \"example3_6.sol\":502:509  number1 */\n      dup5\n        /* \"example3_6.sol\":502:519  number1 * number2 */\n      tag_20\n      swap2\n      swap1\n      tag_21\n      jump\t// in\n    tag_20:\n        /* \"example3_6.sol\":488:520  return int256(number1 * number2) */\n      swap1\n      pop\n      jump(tag_10)\n        /* \"example3_6.sol\":453:745  if (operation == 3) {... */\n    tag_19:\n        /* \"example3_6.sol\":574:575  4 */\n      0x04\n        /* \"example3_6.sol\":561:570  operation */\n      dup3\n        /* \"example3_6.sol\":561:575  operation == 4 */\n      eq\n        /* \"example3_6.sol\":561:591  operation == 4 && number2 != 0 */\n      dup1\n      iszero\n      tag_23\n      jumpi\n      pop\n        /* \"example3_6.sol\":590:591  0 */\n      0x00\n        /* \"example3_6.sol\":579:586  number2 */\n      dup4\n        /* \"example3_6.sol\":579:591  number2 != 0 */\n      eq\n      iszero\n        /* \"example3_6.sol\":561:591  operation == 4 && number2 != 0 */\n    tag_23:\n        /* \"example3_6.sol\":557:745  if (operation == 4 && number2 != 0) {... */\n      iszero\n      tag_24\n      jumpi\n        /* \"example3_6.sol\":632:639  number2 */\n      dup3\n        /* \"example3_6.sol\":622:629  number1 */\n      dup5\n        /* \"example3_6.sol\":622:639  number1 / number2 */\n      tag_25\n      swap2\n      swap1\n      tag_26\n      jump\t// in\n    tag_25:\n        /* \"example3_6.sol\":608:640  return int256(number1 / number2) */\n      swap1\n      pop\n      jump(tag_10)\n        /* \"example3_6.sol\":557:745  if (operation == 4 && number2 != 0) {... */\n    tag_24:\n        /* \"example3_6.sol\":686:733  revert(\"Invalid operation or division by zero\") */\n      mload(0x40)\n      0x08c379a000000000000000000000000000000000000000000000000000000000\n      dup2\n      mstore\n      0x04\n      add\n      tag_28\n      swap1\n      tag_29\n      jump\t// in\n    tag_28:\n      mload(0x40)\n      dup1\n      swap2\n      sub\n      swap1\n      revert\n        /* \"example3_6.sol\":141:752  function performOperation(uint256 number1, uint256 number2, uint256 operation) public pure returns (int256) {... */\n    tag_10:\n      swap4\n      swap3\n      pop\n      pop\n      pop\n      jump\t// out\n        /* \"#utility.yul\":88:205   */\n    tag_31:\n        /* \"#utility.yul\":197:198   */\n      0x00\n        /* \"#utility.yul\":194:195   */\n      dup1\n        /* \"#utility.yul\":187:199   */\n      revert\n        /* \"#utility.yul\":334:411   */\n    tag_33:\n        /* \"#utility.yul\":371:378   */\n      0x00\n        /* \"#utility.yul\":400:405   */\n      dup2\n        /* \"#utility.yul\":389:405   */\n      swap1\n      pop\n        /* \"#utility.yul\":334:411   */\n      swap2\n      swap1\n      pop\n      jump\t// out\n        /* \"#utility.yul\":417:539   */\n    tag_34:\n        /* \"#utility.yul\":490:514   */\n      tag_49\n        /* \"#utility.yul\":508:513   */\n      dup2\n        /* \"#utility.yul\":490:514   */\n      tag_33\n      jump\t// in\n    tag_49:\n        /* \"#utility.yul\":483:488   */\n      dup2\n        /* \"#utility.yul\":480:515   */\n      eq\n        /* \"#utility.yul\":470:533   */\n      tag_50\n      jumpi\n        /* \"#utility.yul\":529:530   */\n      0x00\n        /* \"#utility.yul\":526:527   */\n      dup1\n        /* \"#utility.yul\":519:531   */\n      revert\n        /* \"#utility.yul\":470:533   */\n    tag_50:\n        /* \"#utility.yul\":417:539   */\n      pop\n      jump\t// out\n        /* \"#utility.yul\":545:684   */\n    tag_35:\n        /* \"#utility.yul\":591:596   */\n      0x00\n        /* \"#utility.yul\":629:635   */\n      dup2\n        /* \"#utility.yul\":616:636   */\n      calldataload\n        /* \"#utility.yul\":607:636   */\n      swap1\n      pop\n        /* \"#utility.yul\":645:678   */\n      tag_52\n        /* \"#utility.yul\":672:677   */\n      dup2\n        /* \"#utility.yul\":645:678   */\n      tag_34\n      jump\t// in\n    tag_52:\n        /* \"#utility.yul\":545:684   */\n      swap3\n      swap2\n      pop\n      pop\n      jump\t// out\n        /* \"#utility.yul\":690:1309   */\n    tag_6:\n        /* \"#utility.yul\":767:773   */\n      0x00\n        /* \"#utility.yul\":775:781   */\n      dup1\n        /* \"#utility.yul\":783:789   */\n      0x00\n        /* \"#utility.yul\":832:834   */\n      0x60\n        /* \"#utility.yul\":820:829   */\n      dup5\n        /* \"#utility.yul\":811:818   */\n      dup7\n        /* \"#utility.yul\":807:830   */\n      sub\n        /* \"#utility.yul\":803:835   */\n      slt\n        /* \"#utility.yul\":800:919   */\n      iszero\n      tag_54\n      jumpi\n        /* \"#utility.yul\":838:917   */\n      tag_55\n      tag_31\n      jump\t// in\n    tag_55:\n        /* \"#utility.yul\":800:919   */\n    tag_54:\n        /* \"#utility.yul\":958:959   */\n      0x00\n        /* \"#utility.yul\":983:1036   */\n      tag_56\n        /* \"#utility.yul\":1028:1035   */\n      dup7\n        /* \"#utility.yul\":1019:1025   */\n      dup3\n        /* \"#utility.yul\":1008:1017   */\n      dup8\n        /* \"#utility.yul\":1004:1026   */\n      add\n        /* \"#utility.yul\":983:1036   */\n      tag_35\n      jump\t// in\n    tag_56:\n        /* \"#utility.yul\":973:1036   */\n      swap4\n      pop\n        /* \"#utility.yul\":929:1046   */\n      pop\n        /* \"#utility.yul\":1085:1087   */\n      0x20\n        /* \"#utility.yul\":1111:1164   */\n      tag_57\n        /* \"#utility.yul\":1156:1163   */\n      dup7\n        /* \"#utility.yul\":1147:1153   */\n      dup3\n        /* \"#utility.yul\":1136:1145   */\n      dup8\n        /* \"#utility.yul\":1132:1154   */\n      add\n        /* \"#utility.yul\":1111:1164   */\n      tag_35\n      jump\t// in\n    tag_57:\n        /* \"#utility.yul\":1101:1164   */\n      swap3\n      pop\n        /* \"#utility.yul\":1056:1174   */\n      pop\n        /* \"#utility.yul\":1213:1215   */\n      0x40\n        /* \"#utility.yul\":1239:1292   */\n      tag_58\n        /* \"#utility.yul\":1284:1291   */\n      dup7\n        /* \"#utility.yul\":1275:1281   */\n      dup3\n        /* \"#utility.yul\":1264:1273   */\n      dup8\n        /* \"#utility.yul\":1260:1282   */\n      add\n        /* \"#utility.yul\":1239:1292   */\n      tag_35\n      jump\t// in\n    tag_58:\n        /* \"#utility.yul\":1229:1292   */\n      swap2\n      pop\n        /* \"#utility.yul\":1184:1302   */\n      pop\n        /* \"#utility.yul\":690:1309   */\n      swap3\n      pop\n      swap3\n      pop\n      swap3\n      jump\t// out\n        /* \"#utility.yul\":1315:1391   */\n    tag_36:\n        /* \"#utility.yul\":1351:1358   */\n      0x00\n        /* \"#utility.yul\":1380:1385   */\n      dup2\n        /* \"#utility.yul\":1369:1385   */\n      swap1\n      pop\n        /* \"#utility.yul\":1315:1391   */\n      swap2\n      swap1\n      pop\n      jump\t// out\n        /* \"#utility.yul\":1397:1512   */\n    tag_37:\n        /* \"#utility.yul\":1482:1505   */\n      tag_61\n        /* \"#utility.yul\":1499:1504   */\n      dup2\n        /* \"#utility.yul\":1482:1505   */\n      tag_36\n      jump\t// in\n    tag_61:\n        /* \"#utility.yul\":1477:1480   */\n      dup3\n        /* \"#utility.yul\":1470:1506   */\n      mstore\n        /* \"#utility.yul\":1397:1512   */\n      pop\n      pop\n      jump\t// out\n        /* \"#utility.yul\":1518:1736   */\n    tag_9:\n        /* \"#utility.yul\":1609:1613   */\n      0x00\n        /* \"#utility.yul\":1647:1649   */\n      0x20\n        /* \"#utility.yul\":1636:1645   */\n      dup3\n        /* \"#utility.yul\":1632:1650   */\n      add\n        /* \"#utility.yul\":1624:1650   */\n      swap1\n      pop\n        /* \"#utility.yul\":1660:1729   */\n      tag_63\n        /* \"#utility.yul\":1726:1727   */\n      0x00\n        /* \"#utility.yul\":1715:1724   */\n      dup4\n        /* \"#utility.yul\":1711:1728   */\n      add\n        /* \"#utility.yul\":1702:1708   */\n      dup5\n        /* \"#utility.yul\":1660:1729   */\n      tag_37\n      jump\t// in\n    tag_63:\n        /* \"#utility.yul\":1518:1736   */\n      swap3\n      swap2\n      pop\n      pop\n      jump\t// out\n        /* \"#utility.yul\":1742:1922   */\n    tag_38:\n        /* \"#utility.yul\":1790:1867   */\n      0x4e487b7100000000000000000000000000000000000000000000000000000000\n        /* \"#utility.yul\":1787:1788   */\n      0x00\n        /* \"#utility.yul\":1780:1868   */\n      mstore\n        /* \"#utility.yul\":1887:1891   */\n      0x11\n        /* \"#utility.yul\":1884:1885   */\n      0x04\n        /* \"#utility.yul\":1877:1892   */\n      mstore\n        /* \"#utility.yul\":1911:1915   */\n      0x24\n        /* \"#utility.yul\":1908:1909   */\n      0x00\n        /* \"#utility.yul\":1901:1916   */\n      revert\n        /* \"#utility.yul\":1928:2119   */\n    tag_13:\n        /* \"#utility.yul\":1968:1971   */\n      0x00\n        /* \"#utility.yul\":1987:2007   */\n      tag_66\n        /* \"#utility.yul\":2005:2006   */\n      dup3\n        /* \"#utility.yul\":1987:2007   */\n      tag_33\n      jump\t// in\n    tag_66:\n        /* \"#utility.yul\":1982:2007   */\n      swap2\n      pop\n        /* \"#utility.yul\":2021:2041   */\n      tag_67\n        /* \"#utility.yul\":2039:2040   */\n      dup4\n        /* \"#utility.yul\":2021:2041   */\n      tag_33\n      jump\t// in\n    tag_67:\n        /* \"#utility.yul\":2016:2041   */\n      swap3\n      pop\n        /* \"#utility.yul\":2064:2065   */\n      dup3\n        /* \"#utility.yul\":2061:2062   */\n      dup3\n        /* \"#utility.yul\":2057:2066   */\n      add\n        /* \"#utility.yul\":2050:2066   */\n      swap1\n      pop\n        /* \"#utility.yul\":2085:2088   */\n      dup1\n        /* \"#utility.yul\":2082:2083   */\n      dup3\n        /* \"#utility.yul\":2079:2089   */\n      gt\n        /* \"#utility.yul\":2076:2112   */\n      iszero\n      tag_68\n      jumpi\n        /* \"#utility.yul\":2092:2110   */\n      tag_69\n      tag_38\n      jump\t// in\n    tag_69:\n        /* \"#utility.yul\":2076:2112   */\n    tag_68:\n        /* \"#utility.yul\":1928:2119   */\n      swap3\n      swap2\n      pop\n      pop\n      jump\t// out\n        /* \"#utility.yul\":2125:2319   */\n    tag_17:\n        /* \"#utility.yul\":2165:2169   */\n      0x00\n        /* \"#utility.yul\":2185:2205   */\n      tag_71\n        /* \"#utility.yul\":2203:2204   */\n      dup3\n        /* \"#utility.yul\":2185:2205   */\n      tag_33\n      jump\t// in\n    tag_71:\n        /* \"#utility.yul\":2180:2205   */\n      swap2\n      pop\n        /* \"#utility.yul\":2219:2239   */\n      tag_72\n        /* \"#utility.yul\":2237:2238   */\n      dup4\n        /* \"#utility.yul\":2219:2239   */\n      tag_33\n      jump\t// in\n    tag_72:\n        /* \"#utility.yul\":2214:2239   */\n      swap3\n      pop\n        /* \"#utility.yul\":2263:2264   */\n      dup3\n        /* \"#utility.yul\":2260:2261   */\n      dup3\n        /* \"#utility.yul\":2256:2265   */\n      sub\n        /* \"#utility.yul\":2248:2265   */\n      swap1\n      pop\n        /* \"#utility.yul\":2287:2288   */\n      dup2\n        /* \"#utility.yul\":2281:2285   */\n      dup2\n        /* \"#utility.yul\":2278:2289   */\n      gt\n        /* \"#utility.yul\":2275:2312   */\n      iszero\n      tag_73\n      jumpi\n        /* \"#utility.yul\":2292:2310   */\n      tag_74\n      tag_38\n      jump\t// in\n    tag_74:\n        /* \"#utility.yul\":2275:2312   */\n    tag_73:\n        /* \"#utility.yul\":2125:2319   */\n      swap3\n      swap2\n      pop\n      pop\n      jump\t// out\n        /* \"#utility.yul\":2325:2735   */\n    tag_21:\n        /* \"#utility.yul\":2365:2372   */\n      0x00\n        /* \"#utility.yul\":2388:2408   */\n      tag_76\n        /* \"#utility.yul\":2406:2407   */\n      dup3\n        /* \"#utility.yul\":2388:2408   */\n      tag_33\n      jump\t// in\n    tag_76:\n        /* \"#utility.yul\":2383:2408   */\n      swap2\n      pop\n        /* \"#utility.yul\":2422:2442   */\n      tag_77\n        /* \"#utility.yul\":2440:2441   */\n      dup4\n        /* \"#utility.yul\":2422:2442   */\n      tag_33\n      jump\t// in\n    tag_77:\n        /* \"#utility.yul\":2417:2442   */\n      swap3\n      pop\n        /* \"#utility.yul\":2477:2478   */\n      dup3\n        /* \"#utility.yul\":2474:2475   */\n      dup3\n        /* \"#utility.yul\":2470:2479   */\n      mul\n        /* \"#utility.yul\":2499:2529   */\n      tag_78\n        /* \"#utility.yul\":2517:2528   */\n      dup2\n        /* \"#utility.yul\":2499:2529   */\n      tag_33\n      jump\t// in\n    tag_78:\n        /* \"#utility.yul\":2488:2529   */\n      swap2\n      pop\n        /* \"#utility.yul\":2678:2679   */\n      dup3\n        /* \"#utility.yul\":2669:2676   */\n      dup3\n        /* \"#utility.yul\":2665:2680   */\n      div\n        /* \"#utility.yul\":2662:2663   */\n      dup5\n        /* \"#utility.yul\":2659:2681   */\n      eq\n        /* \"#utility.yul\":2639:2640   */\n      dup4\n        /* \"#utility.yul\":2632:2641   */\n      iszero\n        /* \"#utility.yul\":2612:2695   */\n      or\n        /* \"#utility.yul\":2589:2728   */\n      tag_79\n      jumpi\n        /* \"#utility.yul\":2708:2726   */\n      tag_80\n      tag_38\n      jump\t// in\n    tag_80:\n        /* \"#utility.yul\":2589:2728   */\n    tag_79:\n        /* \"#utility.yul\":2373:2735   */\n      pop\n        /* \"#utility.yul\":2325:2735   */\n      swap3\n      swap2\n      pop\n      pop\n      jump\t// out\n        /* \"#utility.yul\":2741:2921   */\n    tag_39:\n        /* \"#utility.yul\":2789:2866   */\n      0x4e487b7100000000000000000000000000000000000000000000000000000000\n        /* \"#utility.yul\":2786:2787   */\n      0x00\n        /* \"#utility.yul\":2779:2867   */\n      mstore\n        /* \"#utility.yul\":2886:2890   */\n      0x12\n        /* \"#utility.yul\":2883:2884   */\n      0x04\n        /* \"#utility.yul\":2876:2891   */\n      mstore\n        /* \"#utility.yul\":2910:2914   */\n      0x24\n        /* \"#utility.yul\":2907:2908   */\n      0x00\n        /* \"#utility.yul\":2900:2915   */\n      revert\n        /* \"#utility.yul\":2927:3112   */\n    tag_26:\n        /* \"#utility.yul\":2967:2968   */\n      0x00\n        /* \"#utility.yul\":2984:3004   */\n      tag_83\n        /* \"#utility.yul\":3002:3003   */\n      dup3\n        /* \"#utility.yul\":2984:3004   */\n      tag_33\n      jump\t// in\n    tag_83:\n        /* \"#utility.yul\":2979:3004   */\n      swap2\n      pop\n        /* \"#utility.yul\":3018:3038   */\n      tag_84\n        /* \"#utility.yul\":3036:3037   */\n      dup4\n        /* \"#utility.yul\":3018:3038   */\n      tag_33\n      jump\t// in\n    tag_84:\n        /* \"#utility.yul\":3013:3038   */\n      swap3\n      pop\n        /* \"#utility.yul\":3057:3058   */\n      dup3\n        /* \"#utility.yul\":3047:3082   */\n      tag_85\n      jumpi\n        /* \"#utility.yul\":3062:3080   */\n      tag_86\n      tag_39\n      jump\t// in\n    tag_86:\n        /* \"#utility.yul\":3047:3082   */\n    tag_85:\n        /* \"#utility.yul\":3104:3105   */\n      dup3\n        /* \"#utility.yul\":3101:3102   */\n      dup3\n        /* \"#utility.yul\":3097:3106   */\n      div\n        /* \"#utility.yul\":3092:3106   */\n      swap1\n      pop\n        /* \"#utility.yul\":2927:3112   */\n      swap3\n      swap2\n      pop\n      pop\n      jump\t// out\n        /* \"#utility.yul\":3118:3287   */\n    tag_40:\n        /* \"#utility.yul\":3202:3213   */\n      0x00\n        /* \"#utility.yul\":3236:3242   */\n      dup3\n        /* \"#utility.yul\":3231:3234   */\n      dup3\n        /* \"#utility.yul\":3224:3243   */\n      mstore\n        /* \"#utility.yul\":3276:3280   */\n      0x20\n        /* \"#utility.yul\":3271:3274   */\n      dup3\n        /* \"#utility.yul\":3267:3281   */\n      add\n        /* \"#utility.yul\":3252:3281   */\n      swap1\n      pop\n        /* \"#utility.yul\":3118:3287   */\n      swap3\n      swap2\n      pop\n      pop\n      jump\t// out\n        /* \"#utility.yul\":3293:3517   */\n    tag_41:\n        /* \"#utility.yul\":3433:3467   */\n      0x496e76616c6964206f7065726174696f6e206f72206469766973696f6e206279\n        /* \"#utility.yul\":3429:3430   */\n      0x00\n        /* \"#utility.yul\":3421:3427   */\n      dup3\n        /* \"#utility.yul\":3417:3431   */\n      add\n        /* \"#utility.yul\":3410:3468   */\n      mstore\n        /* \"#utility.yul\":3502:3509   */\n      0x207a65726f000000000000000000000000000000000000000000000000000000\n        /* \"#utility.yul\":3497:3499   */\n      0x20\n        /* \"#utility.yul\":3489:3495   */\n      dup3\n        /* \"#utility.yul\":3485:3500   */\n      add\n        /* \"#utility.yul\":3478:3510   */\n      mstore\n        /* \"#utility.yul\":3293:3517   */\n      pop\n      jump\t// out\n        /* \"#utility.yul\":3523:3889   */\n    tag_42:\n        /* \"#utility.yul\":3665:3668   */\n      0x00\n        /* \"#utility.yul\":3686:3753   */\n      tag_90\n        /* \"#utility.yul\":3750:3752   */\n      0x25\n        /* \"#utility.yul\":3745:3748   */\n      dup4\n        /* \"#utility.yul\":3686:3753   */\n      tag_40\n      jump\t// in\n    tag_90:\n        /* \"#utility.yul\":3679:3753   */\n      swap2\n      pop\n        /* \"#utility.yul\":3762:3855   */\n      tag_91\n        /* \"#utility.yul\":3851:3854   */\n      dup3\n        /* \"#utility.yul\":3762:3855   */\n      tag_41\n      jump\t// in\n    tag_91:\n        /* \"#utility.yul\":3880:3882   */\n      0x40\n        /* \"#utility.yul\":3875:3878   */\n      dup3\n        /* \"#utility.yul\":3871:3883   */\n      add\n        /* \"#utility.yul\":3864:3883   */\n      swap1\n      pop\n        /* \"#utility.yul\":3523:3889   */\n      swap2\n      swap1\n      pop\n      jump\t// out\n        /* \"#utility.yul\":3895:4314   */\n    tag_29:\n        /* \"#utility.yul\":4061:4065   */\n      0x00\n        /* \"#utility.yul\":4099:4101   */\n      0x20\n        /* \"#utility.yul\":4088:4097   */\n      dup3\n        /* \"#utility.yul\":4084:4102   */\n      add\n        /* \"#utility.yul\":4076:4102   */\n      swap1\n      pop\n        /* \"#utility.yul\":4148:4157   */\n      dup2\n        /* \"#utility.yul\":4142:4146   */\n      dup2\n        /* \"#utility.yul\":4138:4158   */\n      sub\n        /* \"#utility.yul\":4134:4135   */\n      0x00\n        /* \"#utility.yul\":4123:4132   */\n      dup4\n        /* \"#utility.yul\":4119:4136   */\n      add\n        /* \"#utility.yul\":4112:4159   */\n      mstore\n        /* \"#utility.yul\":4176:4307   */\n      tag_93\n        /* \"#utility.yul\":4302:4306   */\n      dup2\n        /* \"#utility.yul\":4176:4307   */\n      tag_42\n      jump\t// in\n    tag_93:\n        /* \"#utility.yul\":4168:4307   */\n      swap1\n      pop\n        /* \"#utility.yul\":3895:4314   */\n      swap2\n      swap1\n      pop\n      jump\t// out\n\n    auxdata: 0xa26469706673582212200b3a213e5379cd17c0844b9a14f74a3723be64c3d84efef8261251242596ffe864736f6c634300081a0033\n}\n",
				"bytecode": {
					"linkReferences": {},
					"object": "6080604052348015600e575f80fd5b506103d68061001c5f395ff3fe608060405234801561000f575f80fd5b5060043610610029575f3560e01c806356bde8e01461002d575b5f80fd5b61004760048036038101906100429190610150565b61005d565b60405161005491906101b8565b60405180910390f35b5f6001820361007957828461007291906101fe565b9050610112565b6002820361009457828461008d9190610231565b9050610112565b600382036100af5782846100a89190610264565b9050610112565b6004821480156100bf57505f8314155b156100d75782846100d091906102d2565b9050610112565b6040517f08c379a000000000000000000000000000000000000000000000000000000000815260040161010990610382565b60405180910390fd5b9392505050565b5f80fd5b5f819050919050565b61012f8161011d565b8114610139575f80fd5b50565b5f8135905061014a81610126565b92915050565b5f805f6060848603121561016757610166610119565b5b5f6101748682870161013c565b93505060206101858682870161013c565b92505060406101968682870161013c565b9150509250925092565b5f819050919050565b6101b2816101a0565b82525050565b5f6020820190506101cb5f8301846101a9565b92915050565b7f4e487b71000000000000000000000000000000000000000000000000000000005f52601160045260245ffd5b5f6102088261011d565b91506102138361011d565b925082820190508082111561022b5761022a6101d1565b5b92915050565b5f61023b8261011d565b91506102468361011d565b925082820390508181111561025e5761025d6101d1565b5b92915050565b5f61026e8261011d565b91506102798361011d565b92508282026102878161011d565b9150828204841483151761029e5761029d6101d1565b5b5092915050565b7f4e487b71000000000000000000000000000000000000000000000000000000005f52601260045260245ffd5b5f6102dc8261011d565b91506102e78361011d565b9250826102f7576102f66102a5565b5b828204905092915050565b5f82825260208201905092915050565b7f496e76616c6964206f7065726174696f6e206f72206469766973696f6e2062795f8201527f207a65726f000000000000000000000000000000000000000000000000000000602082015250565b5f61036c602583610302565b915061037782610312565b604082019050919050565b5f6020820190508181035f83015261039981610360565b905091905056fea26469706673582212200b3a213e5379cd17c0844b9a14f74a3723be64c3d84efef8261251242596ffe864736f6c634300081a0033",
					"opcodes": "PUSH1 0x80 PUSH1 0x40 MSTORE CALLVALUE DUP1 ISZERO PUSH1 0xE JUMPI PUSH0 DUP1 REVERT JUMPDEST POP PUSH2 0x3D6 DUP1 PUSH2 0x1C PUSH0 CODECOPY PUSH0 RETURN INVALID PUSH1 0x80 PUSH1 0x40 MSTORE CALLVALUE DUP1 ISZERO PUSH2 0xF JUMPI PUSH0 DUP1 REVERT JUMPDEST POP PUSH1 0x4 CALLDATASIZE LT PUSH2 0x29 JUMPI PUSH0 CALLDATALOAD PUSH1 0xE0 SHR DUP1 PUSH4 0x56BDE8E0 EQ PUSH2 0x2D JUMPI JUMPDEST PUSH0 DUP1 REVERT JUMPDEST PUSH2 0x47 PUSH1 0x4 DUP1 CALLDATASIZE SUB DUP2 ADD SWAP1 PUSH2 0x42 SWAP2 SWAP1 PUSH2 0x150 JUMP JUMPDEST PUSH2 0x5D JUMP JUMPDEST PUSH1 0x40 MLOAD PUSH2 0x54 SWAP2 SWAP1 PUSH2 0x1B8 JUMP JUMPDEST PUSH1 0x40 MLOAD DUP1 SWAP2 SUB SWAP1 RETURN JUMPDEST PUSH0 PUSH1 0x1 DUP3 SUB PUSH2 0x79 JUMPI DUP3 DUP5 PUSH2 0x72 SWAP2 SWAP1 PUSH2 0x1FE JUMP JUMPDEST SWAP1 POP PUSH2 0x112 JUMP JUMPDEST PUSH1 0x2 DUP3 SUB PUSH2 0x94 JUMPI DUP3 DUP5 PUSH2 0x8D SWAP2 SWAP1 PUSH2 0x231 JUMP JUMPDEST SWAP1 POP PUSH2 0x112 JUMP JUMPDEST PUSH1 0x3 DUP3 SUB PUSH2 0xAF JUMPI DUP3 DUP5 PUSH2 0xA8 SWAP2 SWAP1 PUSH2 0x264 JUMP JUMPDEST SWAP1 POP PUSH2 0x112 JUMP JUMPDEST PUSH1 0x4 DUP3 EQ DUP1 ISZERO PUSH2 0xBF JUMPI POP PUSH0 DUP4 EQ ISZERO JUMPDEST ISZERO PUSH2 0xD7 JUMPI DUP3 DUP5 PUSH2 0xD0 SWAP2 SWAP1 PUSH2 0x2D2 JUMP JUMPDEST SWAP1 POP PUSH2 0x112 JUMP JUMPDEST PUSH1 0x40 MLOAD PUSH32 0x8C379A000000000000000000000000000000000000000000000000000000000 DUP2 MSTORE PUSH1 0x4 ADD PUSH2 0x109 SWAP1 PUSH2 0x382 JUMP JUMPDEST PUSH1 0x40 MLOAD DUP1 SWAP2 SUB SWAP1 REVERT JUMPDEST SWAP4 SWAP3 POP POP POP JUMP JUMPDEST PUSH0 DUP1 REVERT JUMPDEST PUSH0 DUP2 SWAP1 POP SWAP2 SWAP1 POP JUMP JUMPDEST PUSH2 0x12F DUP2 PUSH2 0x11D JUMP JUMPDEST DUP2 EQ PUSH2 0x139 JUMPI PUSH0 DUP1 REVERT JUMPDEST POP JUMP JUMPDEST PUSH0 DUP2 CALLDATALOAD SWAP1 POP PUSH2 0x14A DUP2 PUSH2 0x126 JUMP JUMPDEST SWAP3 SWAP2 POP POP JUMP JUMPDEST PUSH0 DUP1 PUSH0 PUSH1 0x60 DUP5 DUP7 SUB SLT ISZERO PUSH2 0x167 JUMPI PUSH2 0x166 PUSH2 0x119 JUMP JUMPDEST JUMPDEST PUSH0 PUSH2 0x174 DUP7 DUP3 DUP8 ADD PUSH2 0x13C JUMP JUMPDEST SWAP4 POP POP PUSH1 0x20 PUSH2 0x185 DUP7 DUP3 DUP8 ADD PUSH2 0x13C JUMP JUMPDEST SWAP3 POP POP PUSH1 0x40 PUSH2 0x196 DUP7 DUP3 DUP8 ADD PUSH2 0x13C JUMP JUMPDEST SWAP2 POP POP SWAP3 POP SWAP3 POP SWAP3 JUMP JUMPDEST PUSH0 DUP2 SWAP1 POP SWAP2 SWAP1 POP JUMP JUMPDEST PUSH2 0x1B2 DUP2 PUSH2 0x1A0 JUMP JUMPDEST DUP3 MSTORE POP POP JUMP JUMPDEST PUSH0 PUSH1 0x20 DUP3 ADD SWAP1 POP PUSH2 0x1CB PUSH0 DUP4 ADD DUP5 PUSH2 0x1A9 JUMP JUMPDEST SWAP3 SWAP2 POP POP JUMP JUMPDEST PUSH32 0x4E487B7100000000000000000000000000000000000000000000000000000000 PUSH0 MSTORE PUSH1 0x11 PUSH1 0x4 MSTORE PUSH1 0x24 PUSH0 REVERT JUMPDEST PUSH0 PUSH2 0x208 DUP3 PUSH2 0x11D JUMP JUMPDEST SWAP2 POP PUSH2 0x213 DUP4 PUSH2 0x11D JUMP JUMPDEST SWAP3 POP DUP3 DUP3 ADD SWAP1 POP DUP1 DUP3 GT ISZERO PUSH2 0x22B JUMPI PUSH2 0x22A PUSH2 0x1D1 JUMP JUMPDEST JUMPDEST SWAP3 SWAP2 POP POP JUMP JUMPDEST PUSH0 PUSH2 0x23B DUP3 PUSH2 0x11D JUMP JUMPDEST SWAP2 POP PUSH2 0x246 DUP4 PUSH2 0x11D JUMP JUMPDEST SWAP3 POP DUP3 DUP3 SUB SWAP1 POP DUP2 DUP2 GT ISZERO PUSH2 0x25E JUMPI PUSH2 0x25D PUSH2 0x1D1 JUMP JUMPDEST JUMPDEST SWAP3 SWAP2 POP POP JUMP JUMPDEST PUSH0 PUSH2 0x26E DUP3 PUSH2 0x11D JUMP JUMPDEST SWAP2 POP PUSH2 0x279 DUP4 PUSH2 0x11D JUMP JUMPDEST SWAP3 POP DUP3 DUP3 MUL PUSH2 0x287 DUP2 PUSH2 0x11D JUMP JUMPDEST SWAP2 POP DUP3 DUP3 DIV DUP5 EQ DUP4 ISZERO OR PUSH2 0x29E JUMPI PUSH2 0x29D PUSH2 0x1D1 JUMP JUMPDEST JUMPDEST POP SWAP3 SWAP2 POP POP JUMP JUMPDEST PUSH32 0x4E487B7100000000000000000000000000000000000000000000000000000000 PUSH0 MSTORE PUSH1 0x12 PUSH1 0x4 MSTORE PUSH1 0x24 PUSH0 REVERT JUMPDEST PUSH0 PUSH2 0x2DC DUP3 PUSH2 0x11D JUMP JUMPDEST SWAP2 POP PUSH2 0x2E7 DUP4 PUSH2 0x11D JUMP JUMPDEST SWAP3 POP DUP3 PUSH2 0x2F7 JUMPI PUSH2 0x2F6 PUSH2 0x2A5 JUMP JUMPDEST JUMPDEST DUP3 DUP3 DIV SWAP1 POP SWAP3 SWAP2 POP POP JUMP JUMPDEST PUSH0 DUP3 DUP3 MSTORE PUSH1 0x20 DUP3 ADD SWAP1 POP SWAP3 SWAP2 POP POP JUMP JUMPDEST PUSH32 0x496E76616C6964206F7065726174696F6E206F72206469766973696F6E206279 PUSH0 DUP3 ADD MSTORE PUSH32 0x207A65726F000000000000000000000000000000000000000000000000000000 PUSH1 0x20 DUP3 ADD MSTORE POP JUMP JUMPDEST PUSH0 PUSH2 0x36C PUSH1 0x25 DUP4 PUSH2 0x302 JUMP JUMPDEST SWAP2 POP PUSH2 0x377 DUP3 PUSH2 0x312 JUMP JUMPDEST PUSH1 0x40 DUP3 ADD SWAP1 POP SWAP2 SWAP1 POP JUMP JUMPDEST PUSH0 PUSH1 0x20 DUP3 ADD SWAP1 POP DUP2 DUP2 SUB PUSH0 DUP4 ADD MSTORE PUSH2 0x399 DUP2 PUSH2 0x360 JUMP JUMPDEST SWAP1 POP SWAP2 SWAP1 POP JUMP INVALID LOG2 PUSH5 0x6970667358 0x22 SLT KECCAK256 SIGNEXTEND GASPRICE 0x21 RETURNDATACOPY MSTORE8 PUSH26 0xCD17C0844B9A14F74A3723BE64C3D84EFEF8261251242596FFE8 PUSH5 0x736F6C6343 STOP ADDMOD BYTE STOP CALLER "
				},
				"gasEstimates": {
					"creation": {
						"codeDepositCost": "196400",
						"executionCost": "236",
						"totalCost": "196636"
					},
					"external": {
						"performOperation(uint256,uint256,uint256)": "infinite"
					}
				},
				"methodIdentifiers": {
					"performOperation(uint256,uint256,uint256)": "56bde8e0"
				}
			},
			"storageLayout": {
				"storage": [],
				"types": null
			},
			"userdoc": {
				"kind": "user",
				"methods": {},
				"version": 1
			}
		}
	}
}