{
	"example14_1.sol": {
		"Task1": {
			"abi": [
				{
					"inputs": [],
					"stateMutability": "nonpayable",
					"type": "constructor"
				},
				{
					"inputs": [],
					"name": "owner",
					"outputs": [
						{
							"internalType": "address",
							"name": "",
							"type": "address"
						}
					],
					"stateMutability": "view",
					"type": "function"
				},
				{
					"inputs": [
						{
							"internalType": "string",
							"name": "_str",
							"type": "string"
						}
					],
					"name": "setString",
					"outputs": [],
					"stateMutability": "nonpayable",
					"type": "function"
				},
				{
					"inputs": [],
					"name": "str",
					"outputs": [
						{
							"internalType": "string",
							"name": "",
							"type": "string"
						}
					],
					"stateMutability": "view",
					"type": "function"
				}
			],
			"devdoc": {
				"kind": "dev",
				"methods": {},
				"version": 1
			},
			"evm": {
				"assembly": "    /* \"example14_1.sol\":60:332  contract Task1 {... */\n  mstore(0x40, 0x80)\n    /* \"example14_1.sol\":135:186  constructor() {... */\n  callvalue\n  dup1\n  iszero\n  tag_1\n  jumpi\n  0x00\n  dup1\n  revert\ntag_1:\n  pop\n    /* \"example14_1.sol\":168:178  msg.sender */\n  caller\n    /* \"example14_1.sol\":160:165  owner */\n  0x01\n  0x00\n    /* \"example14_1.sol\":160:178  owner = msg.sender */\n  0x0100\n  exp\n  dup2\n  sload\n  dup2\n  0xffffffffffffffffffffffffffffffffffffffff\n  mul\n  not\n  and\n  swap1\n  dup4\n  0xffffffffffffffffffffffffffffffffffffffff\n  and\n  mul\n  or\n  swap1\n  sstore\n  pop\n    /* \"example14_1.sol\":60:332  contract Task1 {... */\n  dataSize(sub_0)\n  dup1\n  dataOffset(sub_0)\n  0x00\n  codecopy\n  0x00\n  return\nstop\n\nsub_0: assembly {\n        /* \"example14_1.sol\":60:332  contract Task1 {... */\n      mstore(0x40, 0x80)\n      callvalue\n      dup1\n      iszero\n      tag_1\n      jumpi\n      0x00\n      dup1\n      revert\n    tag_1:\n      pop\n      jumpi(tag_2, lt(calldatasize, 0x04))\n      shr(0xe0, calldataload(0x00))\n      dup1\n      0x7fcaf666\n      eq\n      tag_3\n      jumpi\n      dup1\n      0x8da5cb5b\n      eq\n      tag_4\n      jumpi\n      dup1\n      0xc15bae84\n      eq\n      tag_5\n      jumpi\n    tag_2:\n      0x00\n      dup1\n      revert\n        /* \"example14_1.sol\":194:329  function setString(string memory _str) public {... */\n    tag_3:\n      tag_6\n      0x04\n      dup1\n      calldatasize\n      sub\n      dup2\n      add\n      swap1\n      tag_7\n      swap2\n      swap1\n      tag_8\n      jump\t// in\n    tag_7:\n      tag_9\n      jump\t// in\n    tag_6:\n      stop\n        /* \"example14_1.sol\":106:126  address public owner */\n    tag_4:\n      tag_10\n      tag_11\n      jump\t// in\n    tag_10:\n      mload(0x40)\n      tag_12\n      swap2\n      swap1\n      tag_13\n      jump\t// in\n    tag_12:\n      mload(0x40)\n      dup1\n      swap2\n      sub\n      swap1\n      return\n        /* \"example14_1.sol\":82:99  string public str */\n    tag_5:\n      tag_14\n      tag_15\n      jump\t// in\n    tag_14:\n      mload(0x40)\n      tag_16\n      swap2\n      swap1\n      tag_17\n      jump\t// in\n    tag_16:\n      mload(0x40)\n      dup1\n      swap2\n      sub\n      swap1\n      return\n        /* \"example14_1.sol\":194:329  function setString(string memory _str) public {... */\n    tag_9:\n        /* \"example14_1.sol\":273:278  owner */\n      0x01\n      0x00\n      swap1\n      sload\n      swap1\n      0x0100\n      exp\n      swap1\n      div\n      0xffffffffffffffffffffffffffffffffffffffff\n      and\n        /* \"example14_1.sol\":259:278  msg.sender == owner */\n      0xffffffffffffffffffffffffffffffffffffffff\n      and\n        /* \"example14_1.sol\":259:269  msg.sender */\n      caller\n        /* \"example14_1.sol\":259:278  msg.sender == owner */\n      0xffffffffffffffffffffffffffffffffffffffff\n      and\n      eq\n        /* \"example14_1.sol\":251:300  require(msg.sender == owner, \"You are not owner\") */\n      tag_19\n      jumpi\n      mload(0x40)\n      0x08c379a000000000000000000000000000000000000000000000000000000000\n      dup2\n      mstore\n      0x04\n      add\n      tag_20\n      swap1\n      tag_21\n      jump\t// in\n    tag_20:\n      mload(0x40)\n      dup1\n      swap2\n      sub\n      swap1\n      revert\n    tag_19:\n        /* \"example14_1.sol\":317:321  _str */\n      dup1\n        /* \"example14_1.sol\":311:314  str */\n      0x00\n        /* \"example14_1.sol\":311:321  str = _str */\n      swap1\n      dup2\n      tag_22\n      swap2\n      swap1\n      tag_23\n      jump\t// in\n    tag_22:\n      pop\n        /* \"example14_1.sol\":194:329  function setString(string memory _str) public {... */\n      pop\n      jump\t// out\n        /* \"example14_1.sol\":106:126  address public owner */\n    tag_11:\n      0x01\n      0x00\n      swap1\n      sload\n      swap1\n      0x0100\n      exp\n      swap1\n      div\n      0xffffffffffffffffffffffffffffffffffffffff\n      and\n      dup2\n      jump\t// out\n        /* \"example14_1.sol\":82:99  string public str */\n    tag_15:\n      0x00\n      dup1\n      sload\n      tag_24\n      swap1\n      tag_25\n      jump\t// in\n    tag_24:\n      dup1\n      0x1f\n      add\n      0x20\n      dup1\n      swap2\n      div\n      mul\n      0x20\n      add\n      mload(0x40)\n      swap1\n      dup2\n      add\n      0x40\n      mstore\n      dup1\n      swap3\n      swap2\n      swap1\n      dup2\n      dup2\n      mstore\n      0x20\n      add\n      dup3\n      dup1\n      sload\n      tag_26\n      swap1\n      tag_25\n      jump\t// in\n    tag_26:\n      dup1\n      iszero\n      tag_27\n      jumpi\n      dup1\n      0x1f\n      lt\n      tag_28\n      jumpi\n      0x0100\n      dup1\n      dup4\n      sload\n      div\n      mul\n      dup4\n      mstore\n      swap2\n      0x20\n      add\n      swap2\n      jump(tag_27)\n    tag_28:\n      dup3\n      add\n      swap2\n      swap1\n      0x00\n      mstore\n      keccak256(0x00, 0x20)\n      swap1\n    tag_29:\n      dup2\n      sload\n      dup2\n      mstore\n      swap1\n      0x01\n      add\n      swap1\n      0x20\n      add\n      dup1\n      dup4\n      gt\n      tag_29\n      jumpi\n      dup3\n      swap1\n      sub\n      0x1f\n      and\n      dup3\n      add\n      swap2\n    tag_27:\n      pop\n      pop\n      pop\n      pop\n      pop\n      dup2\n      jump\t// out\n        /* \"#utility.yul\":7:82   */\n    tag_30:\n        /* \"#utility.yul\":40:46   */\n      0x00\n        /* \"#utility.yul\":73:75   */\n      0x40\n        /* \"#utility.yul\":67:76   */\n      mload\n        /* \"#utility.yul\":57:76   */\n      swap1\n      pop\n        /* \"#utility.yul\":7:82   */\n      swap1\n      jump\t// out\n        /* \"#utility.yul\":88:205   */\n    tag_31:\n        /* \"#utility.yul\":197:198   */\n      0x00\n        /* \"#utility.yul\":194:195   */\n      dup1\n        /* \"#utility.yul\":187:199   */\n      revert\n        /* \"#utility.yul\":211:328   */\n    tag_32:\n        /* \"#utility.yul\":320:321   */\n      0x00\n        /* \"#utility.yul\":317:318   */\n      dup1\n        /* \"#utility.yul\":310:322   */\n      revert\n        /* \"#utility.yul\":334:451   */\n    tag_33:\n        /* \"#utility.yul\":443:444   */\n      0x00\n        /* \"#utility.yul\":440:441   */\n      dup1\n        /* \"#utility.yul\":433:445   */\n      revert\n        /* \"#utility.yul\":457:574   */\n    tag_34:\n        /* \"#utility.yul\":566:567   */\n      0x00\n        /* \"#utility.yul\":563:564   */\n      dup1\n        /* \"#utility.yul\":556:568   */\n      revert\n        /* \"#utility.yul\":580:682   */\n    tag_35:\n        /* \"#utility.yul\":621:627   */\n      0x00\n        /* \"#utility.yul\":672:674   */\n      0x1f\n        /* \"#utility.yul\":668:675   */\n      not\n        /* \"#utility.yul\":663:665   */\n      0x1f\n        /* \"#utility.yul\":656:661   */\n      dup4\n        /* \"#utility.yul\":652:666   */\n      add\n        /* \"#utility.yul\":648:676   */\n      and\n        /* \"#utility.yul\":638:676   */\n      swap1\n      pop\n        /* \"#utility.yul\":580:682   */\n      swap2\n      swap1\n      pop\n      jump\t// out\n        /* \"#utility.yul\":688:868   */\n    tag_36:\n        /* \"#utility.yul\":736:813   */\n      0x4e487b7100000000000000000000000000000000000000000000000000000000\n        /* \"#utility.yul\":733:734   */\n      0x00\n        /* \"#utility.yul\":726:814   */\n      mstore\n        /* \"#utility.yul\":833:837   */\n      0x41\n        /* \"#utility.yul\":830:831   */\n      0x04\n        /* \"#utility.yul\":823:838   */\n      mstore\n        /* \"#utility.yul\":857:861   */\n      0x24\n        /* \"#utility.yul\":854:855   */\n      0x00\n        /* \"#utility.yul\":847:862   */\n      revert\n        /* \"#utility.yul\":874:1155   */\n    tag_37:\n        /* \"#utility.yul\":957:984   */\n      tag_78\n        /* \"#utility.yul\":979:983   */\n      dup3\n        /* \"#utility.yul\":957:984   */\n      tag_35\n      jump\t// in\n    tag_78:\n        /* \"#utility.yul\":949:955   */\n      dup2\n        /* \"#utility.yul\":945:985   */\n      add\n        /* \"#utility.yul\":1087:1093   */\n      dup2\n        /* \"#utility.yul\":1075:1085   */\n      dup2\n        /* \"#utility.yul\":1072:1094   */\n      lt\n        /* \"#utility.yul\":1051:1069   */\n      0xffffffffffffffff\n        /* \"#utility.yul\":1039:1049   */\n      dup3\n        /* \"#utility.yul\":1036:1070   */\n      gt\n        /* \"#utility.yul\":1033:1095   */\n      or\n        /* \"#utility.yul\":1030:1118   */\n      iszero\n      tag_79\n      jumpi\n        /* \"#utility.yul\":1098:1116   */\n      tag_80\n      tag_36\n      jump\t// in\n    tag_80:\n        /* \"#utility.yul\":1030:1118   */\n    tag_79:\n        /* \"#utility.yul\":1138:1148   */\n      dup1\n        /* \"#utility.yul\":1134:1136   */\n      0x40\n        /* \"#utility.yul\":1127:1149   */\n      mstore\n        /* \"#utility.yul\":917:1155   */\n      pop\n        /* \"#utility.yul\":874:1155   */\n      pop\n      pop\n      jump\t// out\n        /* \"#utility.yul\":1161:1290   */\n    tag_38:\n        /* \"#utility.yul\":1195:1201   */\n      0x00\n        /* \"#utility.yul\":1222:1242   */\n      tag_82\n      tag_30\n      jump\t// in\n    tag_82:\n        /* \"#utility.yul\":1212:1242   */\n      swap1\n      pop\n        /* \"#utility.yul\":1251:1284   */\n      tag_83\n        /* \"#utility.yul\":1279:1283   */\n      dup3\n        /* \"#utility.yul\":1271:1277   */\n      dup3\n        /* \"#utility.yul\":1251:1284   */\n      tag_37\n      jump\t// in\n    tag_83:\n        /* \"#utility.yul\":1161:1290   */\n      swap2\n      swap1\n      pop\n      jump\t// out\n        /* \"#utility.yul\":1296:1604   */\n    tag_39:\n        /* \"#utility.yul\":1358:1362   */\n      0x00\n        /* \"#utility.yul\":1448:1466   */\n      0xffffffffffffffff\n        /* \"#utility.yul\":1440:1446   */\n      dup3\n        /* \"#utility.yul\":1437:1467   */\n      gt\n        /* \"#utility.yul\":1434:1490   */\n      iszero\n      tag_85\n      jumpi\n        /* \"#utility.yul\":1470:1488   */\n      tag_86\n      tag_36\n      jump\t// in\n    tag_86:\n        /* \"#utility.yul\":1434:1490   */\n    tag_85:\n        /* \"#utility.yul\":1508:1537   */\n      tag_87\n        /* \"#utility.yul\":1530:1536   */\n      dup3\n        /* \"#utility.yul\":1508:1537   */\n      tag_35\n      jump\t// in\n    tag_87:\n        /* \"#utility.yul\":1500:1537   */\n      swap1\n      pop\n        /* \"#utility.yul\":1592:1596   */\n      0x20\n        /* \"#utility.yul\":1586:1590   */\n      dup2\n        /* \"#utility.yul\":1582:1597   */\n      add\n        /* \"#utility.yul\":1574:1597   */\n      swap1\n      pop\n        /* \"#utility.yul\":1296:1604   */\n      swap2\n      swap1\n      pop\n      jump\t// out\n        /* \"#utility.yul\":1610:1758   */\n    tag_40:\n        /* \"#utility.yul\":1708:1714   */\n      dup3\n        /* \"#utility.yul\":1703:1706   */\n      dup2\n        /* \"#utility.yul\":1698:1701   */\n      dup4\n        /* \"#utility.yul\":1685:1715   */\n      calldatacopy\n        /* \"#utility.yul\":1749:1750   */\n      0x00\n        /* \"#utility.yul\":1740:1746   */\n      dup4\n        /* \"#utility.yul\":1735:1738   */\n      dup4\n        /* \"#utility.yul\":1731:1747   */\n      add\n        /* \"#utility.yul\":1724:1751   */\n      mstore\n        /* \"#utility.yul\":1610:1758   */\n      pop\n      pop\n      pop\n      jump\t// out\n        /* \"#utility.yul\":1764:2189   */\n    tag_41:\n        /* \"#utility.yul\":1842:1847   */\n      0x00\n        /* \"#utility.yul\":1867:1933   */\n      tag_90\n        /* \"#utility.yul\":1883:1932   */\n      tag_91\n        /* \"#utility.yul\":1925:1931   */\n      dup5\n        /* \"#utility.yul\":1883:1932   */\n      tag_39\n      jump\t// in\n    tag_91:\n        /* \"#utility.yul\":1867:1933   */\n      tag_38\n      jump\t// in\n    tag_90:\n        /* \"#utility.yul\":1858:1933   */\n      swap1\n      pop\n        /* \"#utility.yul\":1956:1962   */\n      dup3\n        /* \"#utility.yul\":1949:1954   */\n      dup2\n        /* \"#utility.yul\":1942:1963   */\n      mstore\n        /* \"#utility.yul\":1994:1998   */\n      0x20\n        /* \"#utility.yul\":1987:1992   */\n      dup2\n        /* \"#utility.yul\":1983:1999   */\n      add\n        /* \"#utility.yul\":2032:2035   */\n      dup5\n        /* \"#utility.yul\":2023:2029   */\n      dup5\n        /* \"#utility.yul\":2018:2021   */\n      dup5\n        /* \"#utility.yul\":2014:2030   */\n      add\n        /* \"#utility.yul\":2011:2036   */\n      gt\n        /* \"#utility.yul\":2008:2120   */\n      iszero\n      tag_92\n      jumpi\n        /* \"#utility.yul\":2039:2118   */\n      tag_93\n      tag_34\n      jump\t// in\n    tag_93:\n        /* \"#utility.yul\":2008:2120   */\n    tag_92:\n        /* \"#utility.yul\":2129:2183   */\n      tag_94\n        /* \"#utility.yul\":2176:2182   */\n      dup5\n        /* \"#utility.yul\":2171:2174   */\n      dup3\n        /* \"#utility.yul\":2166:2169   */\n      dup6\n        /* \"#utility.yul\":2129:2183   */\n      tag_40\n      jump\t// in\n    tag_94:\n        /* \"#utility.yul\":1848:2189   */\n      pop\n        /* \"#utility.yul\":1764:2189   */\n      swap4\n      swap3\n      pop\n      pop\n      pop\n      jump\t// out\n        /* \"#utility.yul\":2209:2549   */\n    tag_42:\n        /* \"#utility.yul\":2265:2270   */\n      0x00\n        /* \"#utility.yul\":2314:2317   */\n      dup3\n        /* \"#utility.yul\":2307:2311   */\n      0x1f\n        /* \"#utility.yul\":2299:2305   */\n      dup4\n        /* \"#utility.yul\":2295:2312   */\n      add\n        /* \"#utility.yul\":2291:2318   */\n      slt\n        /* \"#utility.yul\":2281:2403   */\n      tag_96\n      jumpi\n        /* \"#utility.yul\":2322:2401   */\n      tag_97\n      tag_33\n      jump\t// in\n    tag_97:\n        /* \"#utility.yul\":2281:2403   */\n    tag_96:\n        /* \"#utility.yul\":2439:2445   */\n      dup2\n        /* \"#utility.yul\":2426:2446   */\n      calldataload\n        /* \"#utility.yul\":2464:2543   */\n      tag_98\n        /* \"#utility.yul\":2539:2542   */\n      dup5\n        /* \"#utility.yul\":2531:2537   */\n      dup3\n        /* \"#utility.yul\":2524:2528   */\n      0x20\n        /* \"#utility.yul\":2516:2522   */\n      dup7\n        /* \"#utility.yul\":2512:2529   */\n      add\n        /* \"#utility.yul\":2464:2543   */\n      tag_41\n      jump\t// in\n    tag_98:\n        /* \"#utility.yul\":2455:2543   */\n      swap2\n      pop\n        /* \"#utility.yul\":2271:2549   */\n      pop\n        /* \"#utility.yul\":2209:2549   */\n      swap3\n      swap2\n      pop\n      pop\n      jump\t// out\n        /* \"#utility.yul\":2555:3064   */\n    tag_8:\n        /* \"#utility.yul\":2624:2630   */\n      0x00\n        /* \"#utility.yul\":2673:2675   */\n      0x20\n        /* \"#utility.yul\":2661:2670   */\n      dup3\n        /* \"#utility.yul\":2652:2659   */\n      dup5\n        /* \"#utility.yul\":2648:2671   */\n      sub\n        /* \"#utility.yul\":2644:2676   */\n      slt\n        /* \"#utility.yul\":2641:2760   */\n      iszero\n      tag_100\n      jumpi\n        /* \"#utility.yul\":2679:2758   */\n      tag_101\n      tag_31\n      jump\t// in\n    tag_101:\n        /* \"#utility.yul\":2641:2760   */\n    tag_100:\n        /* \"#utility.yul\":2827:2828   */\n      0x00\n        /* \"#utility.yul\":2816:2825   */\n      dup3\n        /* \"#utility.yul\":2812:2829   */\n      add\n        /* \"#utility.yul\":2799:2830   */\n      calldataload\n        /* \"#utility.yul\":2857:2875   */\n      0xffffffffffffffff\n        /* \"#utility.yul\":2849:2855   */\n      dup2\n        /* \"#utility.yul\":2846:2876   */\n      gt\n        /* \"#utility.yul\":2843:2960   */\n      iszero\n      tag_102\n      jumpi\n        /* \"#utility.yul\":2879:2958   */\n      tag_103\n      tag_32\n      jump\t// in\n    tag_103:\n        /* \"#utility.yul\":2843:2960   */\n    tag_102:\n        /* \"#utility.yul\":2984:3047   */\n      tag_104\n        /* \"#utility.yul\":3039:3046   */\n      dup5\n        /* \"#utility.yul\":3030:3036   */\n      dup3\n        /* \"#utility.yul\":3019:3028   */\n      dup6\n        /* \"#utility.yul\":3015:3037   */\n      add\n        /* \"#utility.yul\":2984:3047   */\n      tag_42\n      jump\t// in\n    tag_104:\n        /* \"#utility.yul\":2974:3047   */\n      swap2\n      pop\n        /* \"#utility.yul\":2770:3057   */\n      pop\n        /* \"#utility.yul\":2555:3064   */\n      swap3\n      swap2\n      pop\n      pop\n      jump\t// out\n        /* \"#utility.yul\":3070:3196   */\n    tag_43:\n        /* \"#utility.yul\":3107:3114   */\n      0x00\n        /* \"#utility.yul\":3147:3189   */\n      0xffffffffffffffffffffffffffffffffffffffff\n        /* \"#utility.yul\":3140:3145   */\n      dup3\n        /* \"#utility.yul\":3136:3190   */\n      and\n        /* \"#utility.yul\":3125:3190   */\n      swap1\n      pop\n        /* \"#utility.yul\":3070:3196   */\n      swap2\n      swap1\n      pop\n      jump\t// out\n        /* \"#utility.yul\":3202:3298   */\n    tag_44:\n        /* \"#utility.yul\":3239:3246   */\n      0x00\n        /* \"#utility.yul\":3268:3292   */\n      tag_107\n        /* \"#utility.yul\":3286:3291   */\n      dup3\n        /* \"#utility.yul\":3268:3292   */\n      tag_43\n      jump\t// in\n    tag_107:\n        /* \"#utility.yul\":3257:3292   */\n      swap1\n      pop\n        /* \"#utility.yul\":3202:3298   */\n      swap2\n      swap1\n      pop\n      jump\t// out\n        /* \"#utility.yul\":3304:3422   */\n    tag_45:\n        /* \"#utility.yul\":3391:3415   */\n      tag_109\n        /* \"#utility.yul\":3409:3414   */\n      dup2\n        /* \"#utility.yul\":3391:3415   */\n      tag_44\n      jump\t// in\n    tag_109:\n        /* \"#utility.yul\":3386:3389   */\n      dup3\n        /* \"#utility.yul\":3379:3416   */\n      mstore\n        /* \"#utility.yul\":3304:3422   */\n      pop\n      pop\n      jump\t// out\n        /* \"#utility.yul\":3428:3650   */\n    tag_13:\n        /* \"#utility.yul\":3521:3525   */\n      0x00\n        /* \"#utility.yul\":3559:3561   */\n      0x20\n        /* \"#utility.yul\":3548:3557   */\n      dup3\n        /* \"#utility.yul\":3544:3562   */\n      add\n        /* \"#utility.yul\":3536:3562   */\n      swap1\n      pop\n        /* \"#utility.yul\":3572:3643   */\n      tag_111\n        /* \"#utility.yul\":3640:3641   */\n      0x00\n        /* \"#utility.yul\":3629:3638   */\n      dup4\n        /* \"#utility.yul\":3625:3642   */\n      add\n        /* \"#utility.yul\":3616:3622   */\n      dup5\n        /* \"#utility.yul\":3572:3643   */\n      tag_45\n      jump\t// in\n    tag_111:\n        /* \"#utility.yul\":3428:3650   */\n      swap3\n      swap2\n      pop\n      pop\n      jump\t// out\n        /* \"#utility.yul\":3656:3755   */\n    tag_46:\n        /* \"#utility.yul\":3708:3714   */\n      0x00\n        /* \"#utility.yul\":3742:3747   */\n      dup2\n        /* \"#utility.yul\":3736:3748   */\n      mload\n        /* \"#utility.yul\":3726:3748   */\n      swap1\n      pop\n        /* \"#utility.yul\":3656:3755   */\n      swap2\n      swap1\n      pop\n      jump\t// out\n        /* \"#utility.yul\":3761:3930   */\n    tag_47:\n        /* \"#utility.yul\":3845:3856   */\n      0x00\n        /* \"#utility.yul\":3879:3885   */\n      dup3\n        /* \"#utility.yul\":3874:3877   */\n      dup3\n        /* \"#utility.yul\":3867:3886   */\n      mstore\n        /* \"#utility.yul\":3919:3923   */\n      0x20\n        /* \"#utility.yul\":3914:3917   */\n      dup3\n        /* \"#utility.yul\":3910:3924   */\n      add\n        /* \"#utility.yul\":3895:3924   */\n      swap1\n      pop\n        /* \"#utility.yul\":3761:3930   */\n      swap3\n      swap2\n      pop\n      pop\n      jump\t// out\n        /* \"#utility.yul\":3936:4075   */\n    tag_48:\n        /* \"#utility.yul\":4025:4031   */\n      dup3\n        /* \"#utility.yul\":4020:4023   */\n      dup2\n        /* \"#utility.yul\":4015:4018   */\n      dup4\n        /* \"#utility.yul\":4009:4032   */\n      mcopy\n        /* \"#utility.yul\":4066:4067   */\n      0x00\n        /* \"#utility.yul\":4057:4063   */\n      dup4\n        /* \"#utility.yul\":4052:4055   */\n      dup4\n        /* \"#utility.yul\":4048:4064   */\n      add\n        /* \"#utility.yul\":4041:4068   */\n      mstore\n        /* \"#utility.yul\":3936:4075   */\n      pop\n      pop\n      pop\n      jump\t// out\n        /* \"#utility.yul\":4081:4458   */\n    tag_49:\n        /* \"#utility.yul\":4169:4172   */\n      0x00\n        /* \"#utility.yul\":4197:4236   */\n      tag_116\n        /* \"#utility.yul\":4230:4235   */\n      dup3\n        /* \"#utility.yul\":4197:4236   */\n      tag_46\n      jump\t// in\n    tag_116:\n        /* \"#utility.yul\":4252:4323   */\n      tag_117\n        /* \"#utility.yul\":4316:4322   */\n      dup2\n        /* \"#utility.yul\":4311:4314   */\n      dup6\n        /* \"#utility.yul\":4252:4323   */\n      tag_47\n      jump\t// in\n    tag_117:\n        /* \"#utility.yul\":4245:4323   */\n      swap4\n      pop\n        /* \"#utility.yul\":4332:4397   */\n      tag_118\n        /* \"#utility.yul\":4390:4396   */\n      dup2\n        /* \"#utility.yul\":4385:4388   */\n      dup6\n        /* \"#utility.yul\":4378:4382   */\n      0x20\n        /* \"#utility.yul\":4371:4376   */\n      dup7\n        /* \"#utility.yul\":4367:4383   */\n      add\n        /* \"#utility.yul\":4332:4397   */\n      tag_48\n      jump\t// in\n    tag_118:\n        /* \"#utility.yul\":4422:4451   */\n      tag_119\n        /* \"#utility.yul\":4444:4450   */\n      dup2\n        /* \"#utility.yul\":4422:4451   */\n      tag_35\n      jump\t// in\n    tag_119:\n        /* \"#utility.yul\":4417:4420   */\n      dup5\n        /* \"#utility.yul\":4413:4452   */\n      add\n        /* \"#utility.yul\":4406:4452   */\n      swap2\n      pop\n        /* \"#utility.yul\":4173:4458   */\n      pop\n        /* \"#utility.yul\":4081:4458   */\n      swap3\n      swap2\n      pop\n      pop\n      jump\t// out\n        /* \"#utility.yul\":4464:4777   */\n    tag_17:\n        /* \"#utility.yul\":4577:4581   */\n      0x00\n        /* \"#utility.yul\":4615:4617   */\n      0x20\n        /* \"#utility.yul\":4604:4613   */\n      dup3\n        /* \"#utility.yul\":4600:4618   */\n      add\n        /* \"#utility.yul\":4592:4618   */\n      swap1\n      pop\n        /* \"#utility.yul\":4664:4673   */\n      dup2\n        /* \"#utility.yul\":4658:4662   */\n      dup2\n        /* \"#utility.yul\":4654:4674   */\n      sub\n        /* \"#utility.yul\":4650:4651   */\n      0x00\n        /* \"#utility.yul\":4639:4648   */\n      dup4\n        /* \"#utility.yul\":4635:4652   */\n      add\n        /* \"#utility.yul\":4628:4675   */\n      mstore\n        /* \"#utility.yul\":4692:4770   */\n      tag_121\n        /* \"#utility.yul\":4765:4769   */\n      dup2\n        /* \"#utility.yul\":4756:4762   */\n      dup5\n        /* \"#utility.yul\":4692:4770   */\n      tag_49\n      jump\t// in\n    tag_121:\n        /* \"#utility.yul\":4684:4770   */\n      swap1\n      pop\n        /* \"#utility.yul\":4464:4777   */\n      swap3\n      swap2\n      pop\n      pop\n      jump\t// out\n        /* \"#utility.yul\":4783:4950   */\n    tag_50:\n        /* \"#utility.yul\":4923:4942   */\n      0x596f7520617265206e6f74206f776e6572000000000000000000000000000000\n        /* \"#utility.yul\":4919:4920   */\n      0x00\n        /* \"#utility.yul\":4911:4917   */\n      dup3\n        /* \"#utility.yul\":4907:4921   */\n      add\n        /* \"#utility.yul\":4900:4943   */\n      mstore\n        /* \"#utility.yul\":4783:4950   */\n      pop\n      jump\t// out\n        /* \"#utility.yul\":4956:5322   */\n    tag_51:\n        /* \"#utility.yul\":5098:5101   */\n      0x00\n        /* \"#utility.yul\":5119:5186   */\n      tag_124\n        /* \"#utility.yul\":5183:5185   */\n      0x11\n        /* \"#utility.yul\":5178:5181   */\n      dup4\n        /* \"#utility.yul\":5119:5186   */\n      tag_47\n      jump\t// in\n    tag_124:\n        /* \"#utility.yul\":5112:5186   */\n      swap2\n      pop\n        /* \"#utility.yul\":5195:5288   */\n      tag_125\n        /* \"#utility.yul\":5284:5287   */\n      dup3\n        /* \"#utility.yul\":5195:5288   */\n      tag_50\n      jump\t// in\n    tag_125:\n        /* \"#utility.yul\":5313:5315   */\n      0x20\n        /* \"#utility.yul\":5308:5311   */\n      dup3\n        /* \"#utility.yul\":5304:5316   */\n      add\n        /* \"#utility.yul\":5297:5316   */\n      swap1\n      pop\n        /* \"#utility.yul\":4956:5322   */\n      swap2\n      swap1\n      pop\n      jump\t// out\n        /* \"#utility.yul\":5328:5747   */\n    tag_21:\n        /* \"#utility.yul\":5494:5498   */\n      0x00\n        /* \"#utility.yul\":5532:5534   */\n      0x20\n        /* \"#utility.yul\":5521:5530   */\n      dup3\n        /* \"#utility.yul\":5517:5535   */\n      add\n        /* \"#utility.yul\":5509:5535   */\n      swap1\n      pop\n        /* \"#utility.yul\":5581:5590   */\n      dup2\n        /* \"#utility.yul\":5575:5579   */\n      dup2\n        /* \"#utility.yul\":5571:5591   */\n      sub\n        /* \"#utility.yul\":5567:5568   */\n      0x00\n        /* \"#utility.yul\":5556:5565   */\n      dup4\n        /* \"#utility.yul\":5552:5569   */\n      add\n        /* \"#utility.yul\":5545:5592   */\n      mstore\n        /* \"#utility.yul\":5609:5740   */\n      tag_127\n        /* \"#utility.yul\":5735:5739   */\n      dup2\n        /* \"#utility.yul\":5609:5740   */\n      tag_51\n      jump\t// in\n    tag_127:\n        /* \"#utility.yul\":5601:5740   */\n      swap1\n      pop\n        /* \"#utility.yul\":5328:5747   */\n      swap2\n      swap1\n      pop\n      jump\t// out\n        /* \"#utility.yul\":5753:5933   */\n    tag_52:\n        /* \"#utility.yul\":5801:5878   */\n      0x4e487b7100000000000000000000000000000000000000000000000000000000\n        /* \"#utility.yul\":5798:5799   */\n      0x00\n        /* \"#utility.yul\":5791:5879   */\n      mstore\n        /* \"#utility.yul\":5898:5902   */\n      0x22\n        /* \"#utility.yul\":5895:5896   */\n      0x04\n        /* \"#utility.yul\":5888:5903   */\n      mstore\n        /* \"#utility.yul\":5922:5926   */\n      0x24\n        /* \"#utility.yul\":5919:5920   */\n      0x00\n        /* \"#utility.yul\":5912:5927   */\n      revert\n        /* \"#utility.yul\":5939:6259   */\n    tag_25:\n        /* \"#utility.yul\":5983:5989   */\n      0x00\n        /* \"#utility.yul\":6020:6021   */\n      0x02\n        /* \"#utility.yul\":6014:6018   */\n      dup3\n        /* \"#utility.yul\":6010:6022   */\n      div\n        /* \"#utility.yul\":6000:6022   */\n      swap1\n      pop\n        /* \"#utility.yul\":6067:6068   */\n      0x01\n        /* \"#utility.yul\":6061:6065   */\n      dup3\n        /* \"#utility.yul\":6057:6069   */\n      and\n        /* \"#utility.yul\":6088:6106   */\n      dup1\n        /* \"#utility.yul\":6078:6159   */\n      tag_130\n      jumpi\n        /* \"#utility.yul\":6144:6148   */\n      0x7f\n        /* \"#utility.yul\":6136:6142   */\n      dup3\n        /* \"#utility.yul\":6132:6149   */\n      and\n        /* \"#utility.yul\":6122:6149   */\n      swap2\n      pop\n        /* \"#utility.yul\":6078:6159   */\n    tag_130:\n        /* \"#utility.yul\":6206:6208   */\n      0x20\n        /* \"#utility.yul\":6198:6204   */\n      dup3\n        /* \"#utility.yul\":6195:6209   */\n      lt\n        /* \"#utility.yul\":6175:6193   */\n      dup2\n        /* \"#utility.yul\":6172:6210   */\n      sub\n        /* \"#utility.yul\":6169:6253   */\n      tag_131\n      jumpi\n        /* \"#utility.yul\":6225:6243   */\n      tag_132\n      tag_52\n      jump\t// in\n    tag_132:\n        /* \"#utility.yul\":6169:6253   */\n    tag_131:\n        /* \"#utility.yul\":5990:6259   */\n      pop\n        /* \"#utility.yul\":5939:6259   */\n      swap2\n      swap1\n      pop\n      jump\t// out\n        /* \"#utility.yul\":6265:6406   */\n    tag_53:\n        /* \"#utility.yul\":6314:6318   */\n      0x00\n        /* \"#utility.yul\":6337:6340   */\n      dup2\n        /* \"#utility.yul\":6329:6340   */\n      swap1\n      pop\n        /* \"#utility.yul\":6360:6363   */\n      dup2\n        /* \"#utility.yul\":6357:6358   */\n      0x00\n        /* \"#utility.yul\":6350:6364   */\n      mstore\n        /* \"#utility.yul\":6394:6398   */\n      0x20\n        /* \"#utility.yul\":6391:6392   */\n      0x00\n        /* \"#utility.yul\":6381:6399   */\n      keccak256\n        /* \"#utility.yul\":6373:6399   */\n      swap1\n      pop\n        /* \"#utility.yul\":6265:6406   */\n      swap2\n      swap1\n      pop\n      jump\t// out\n        /* \"#utility.yul\":6412:6505   */\n    tag_54:\n        /* \"#utility.yul\":6449:6455   */\n      0x00\n        /* \"#utility.yul\":6496:6498   */\n      0x20\n        /* \"#utility.yul\":6491:6493   */\n      0x1f\n        /* \"#utility.yul\":6484:6489   */\n      dup4\n        /* \"#utility.yul\":6480:6494   */\n      add\n        /* \"#utility.yul\":6476:6499   */\n      div\n        /* \"#utility.yul\":6466:6499   */\n      swap1\n      pop\n        /* \"#utility.yul\":6412:6505   */\n      swap2\n      swap1\n      pop\n      jump\t// out\n        /* \"#utility.yul\":6511:6618   */\n    tag_55:\n        /* \"#utility.yul\":6555:6563   */\n      0x00\n        /* \"#utility.yul\":6605:6610   */\n      dup3\n        /* \"#utility.yul\":6599:6603   */\n      dup3\n        /* \"#utility.yul\":6595:6611   */\n      shl\n        /* \"#utility.yul\":6574:6611   */\n      swap1\n      pop\n        /* \"#utility.yul\":6511:6618   */\n      swap3\n      swap2\n      pop\n      pop\n      jump\t// out\n        /* \"#utility.yul\":6624:7017   */\n    tag_56:\n        /* \"#utility.yul\":6693:6699   */\n      0x00\n        /* \"#utility.yul\":6743:6744   */\n      0x08\n        /* \"#utility.yul\":6731:6741   */\n      dup4\n        /* \"#utility.yul\":6727:6745   */\n      mul\n        /* \"#utility.yul\":6766:6863   */\n      tag_137\n        /* \"#utility.yul\":6796:6862   */\n      0xffffffffffffffffffffffffffffffffffffffffffffffffffffffffffffffff\n        /* \"#utility.yul\":6785:6794   */\n      dup3\n        /* \"#utility.yul\":6766:6863   */\n      tag_55\n      jump\t// in\n    tag_137:\n        /* \"#utility.yul\":6884:6923   */\n      tag_138\n        /* \"#utility.yul\":6914:6922   */\n      dup7\n        /* \"#utility.yul\":6903:6912   */\n      dup4\n        /* \"#utility.yul\":6884:6923   */\n      tag_55\n      jump\t// in\n    tag_138:\n        /* \"#utility.yul\":6872:6923   */\n      swap6\n      pop\n        /* \"#utility.yul\":6956:6960   */\n      dup1\n        /* \"#utility.yul\":6952:6961   */\n      not\n        /* \"#utility.yul\":6945:6950   */\n      dup5\n        /* \"#utility.yul\":6941:6962   */\n      and\n        /* \"#utility.yul\":6932:6962   */\n      swap4\n      pop\n        /* \"#utility.yul\":7005:7009   */\n      dup1\n        /* \"#utility.yul\":6995:7003   */\n      dup7\n        /* \"#utility.yul\":6991:7010   */\n      and\n        /* \"#utility.yul\":6984:6989   */\n      dup5\n        /* \"#utility.yul\":6981:7011   */\n      or\n        /* \"#utility.yul\":6971:7011   */\n      swap3\n      pop\n        /* \"#utility.yul\":6700:7017   */\n      pop\n      pop\n        /* \"#utility.yul\":6624:7017   */\n      swap4\n      swap3\n      pop\n      pop\n      pop\n      jump\t// out\n        /* \"#utility.yul\":7023:7100   */\n    tag_57:\n        /* \"#utility.yul\":7060:7067   */\n      0x00\n        /* \"#utility.yul\":7089:7094   */\n      dup2\n        /* \"#utility.yul\":7078:7094   */\n      swap1\n      pop\n        /* \"#utility.yul\":7023:7100   */\n      swap2\n      swap1\n      pop\n      jump\t// out\n        /* \"#utility.yul\":7106:7166   */\n    tag_58:\n        /* \"#utility.yul\":7134:7137   */\n      0x00\n        /* \"#utility.yul\":7155:7160   */\n      dup2\n        /* \"#utility.yul\":7148:7160   */\n      swap1\n      pop\n        /* \"#utility.yul\":7106:7166   */\n      swap2\n      swap1\n      pop\n      jump\t// out\n        /* \"#utility.yul\":7172:7314   */\n    tag_59:\n        /* \"#utility.yul\":7222:7231   */\n      0x00\n        /* \"#utility.yul\":7255:7308   */\n      tag_142\n        /* \"#utility.yul\":7273:7307   */\n      tag_143\n        /* \"#utility.yul\":7282:7306   */\n      tag_144\n        /* \"#utility.yul\":7300:7305   */\n      dup5\n        /* \"#utility.yul\":7282:7306   */\n      tag_57\n      jump\t// in\n    tag_144:\n        /* \"#utility.yul\":7273:7307   */\n      tag_58\n      jump\t// in\n    tag_143:\n        /* \"#utility.yul\":7255:7308   */\n      tag_57\n      jump\t// in\n    tag_142:\n        /* \"#utility.yul\":7242:7308   */\n      swap1\n      pop\n        /* \"#utility.yul\":7172:7314   */\n      swap2\n      swap1\n      pop\n      jump\t// out\n        /* \"#utility.yul\":7320:7395   */\n    tag_60:\n        /* \"#utility.yul\":7363:7366   */\n      0x00\n        /* \"#utility.yul\":7384:7389   */\n      dup2\n        /* \"#utility.yul\":7377:7389   */\n      swap1\n      pop\n        /* \"#utility.yul\":7320:7395   */\n      swap2\n      swap1\n      pop\n      jump\t// out\n        /* \"#utility.yul\":7401:7670   */\n    tag_61:\n        /* \"#utility.yul\":7511:7550   */\n      tag_147\n        /* \"#utility.yul\":7542:7549   */\n      dup4\n        /* \"#utility.yul\":7511:7550   */\n      tag_59\n      jump\t// in\n    tag_147:\n        /* \"#utility.yul\":7572:7663   */\n      tag_148\n        /* \"#utility.yul\":7621:7662   */\n      tag_149\n        /* \"#utility.yul\":7645:7661   */\n      dup3\n        /* \"#utility.yul\":7621:7662   */\n      tag_60\n      jump\t// in\n    tag_149:\n        /* \"#utility.yul\":7613:7619   */\n      dup5\n        /* \"#utility.yul\":7606:7610   */\n      dup5\n        /* \"#utility.yul\":7600:7611   */\n      sload\n        /* \"#utility.yul\":7572:7663   */\n      tag_56\n      jump\t// in\n    tag_148:\n        /* \"#utility.yul\":7566:7570   */\n      dup3\n        /* \"#utility.yul\":7559:7664   */\n      sstore\n        /* \"#utility.yul\":7477:7670   */\n      pop\n        /* \"#utility.yul\":7401:7670   */\n      pop\n      pop\n      pop\n      jump\t// out\n        /* \"#utility.yul\":7676:7749   */\n    tag_62:\n        /* \"#utility.yul\":7721:7724   */\n      0x00\n        /* \"#utility.yul\":7676:7749   */\n      swap1\n      jump\t// out\n        /* \"#utility.yul\":7755:7944   */\n    tag_63:\n        /* \"#utility.yul\":7832:7864   */\n      tag_152\n      tag_62\n      jump\t// in\n    tag_152:\n        /* \"#utility.yul\":7873:7938   */\n      tag_153\n        /* \"#utility.yul\":7931:7937   */\n      dup2\n        /* \"#utility.yul\":7923:7929   */\n      dup5\n        /* \"#utility.yul\":7917:7921   */\n      dup5\n        /* \"#utility.yul\":7873:7938   */\n      tag_61\n      jump\t// in\n    tag_153:\n        /* \"#utility.yul\":7808:7944   */\n      pop\n        /* \"#utility.yul\":7755:7944   */\n      pop\n      pop\n      jump\t// out\n        /* \"#utility.yul\":7950:8136   */\n    tag_64:\n        /* \"#utility.yul\":8010:8130   */\n    tag_155:\n        /* \"#utility.yul\":8027:8030   */\n      dup2\n        /* \"#utility.yul\":8020:8025   */\n      dup2\n        /* \"#utility.yul\":8017:8031   */\n      lt\n        /* \"#utility.yul\":8010:8130   */\n      iszero\n      tag_157\n      jumpi\n        /* \"#utility.yul\":8081:8120   */\n      tag_158\n        /* \"#utility.yul\":8118:8119   */\n      0x00\n        /* \"#utility.yul\":8111:8116   */\n      dup3\n        /* \"#utility.yul\":8081:8120   */\n      tag_63\n      jump\t// in\n    tag_158:\n        /* \"#utility.yul\":8054:8055   */\n      0x01\n        /* \"#utility.yul\":8047:8052   */\n      dup2\n        /* \"#utility.yul\":8043:8056   */\n      add\n        /* \"#utility.yul\":8034:8056   */\n      swap1\n      pop\n        /* \"#utility.yul\":8010:8130   */\n      jump(tag_155)\n    tag_157:\n        /* \"#utility.yul\":7950:8136   */\n      pop\n      pop\n      jump\t// out\n        /* \"#utility.yul\":8142:8685   */\n    tag_65:\n        /* \"#utility.yul\":8243:8245   */\n      0x1f\n        /* \"#utility.yul\":8238:8241   */\n      dup3\n        /* \"#utility.yul\":8235:8246   */\n      gt\n        /* \"#utility.yul\":8232:8678   */\n      iszero\n      tag_160\n      jumpi\n        /* \"#utility.yul\":8277:8315   */\n      tag_161\n        /* \"#utility.yul\":8309:8314   */\n      dup2\n        /* \"#utility.yul\":8277:8315   */\n      tag_53\n      jump\t// in\n    tag_161:\n        /* \"#utility.yul\":8361:8390   */\n      tag_162\n        /* \"#utility.yul\":8379:8389   */\n      dup5\n        /* \"#utility.yul\":8361:8390   */\n      tag_54\n      jump\t// in\n    tag_162:\n        /* \"#utility.yul\":8351:8359   */\n      dup2\n        /* \"#utility.yul\":8347:8391   */\n      add\n        /* \"#utility.yul\":8544:8546   */\n      0x20\n        /* \"#utility.yul\":8532:8542   */\n      dup6\n        /* \"#utility.yul\":8529:8547   */\n      lt\n        /* \"#utility.yul\":8526:8575   */\n      iszero\n      tag_163\n      jumpi\n        /* \"#utility.yul\":8565:8573   */\n      dup2\n        /* \"#utility.yul\":8550:8573   */\n      swap1\n      pop\n        /* \"#utility.yul\":8526:8575   */\n    tag_163:\n        /* \"#utility.yul\":8588:8668   */\n      tag_164\n        /* \"#utility.yul\":8644:8666   */\n      tag_165\n        /* \"#utility.yul\":8662:8665   */\n      dup6\n        /* \"#utility.yul\":8644:8666   */\n      tag_54\n      jump\t// in\n    tag_165:\n        /* \"#utility.yul\":8634:8642   */\n      dup4\n        /* \"#utility.yul\":8630:8667   */\n      add\n        /* \"#utility.yul\":8617:8628   */\n      dup3\n        /* \"#utility.yul\":8588:8668   */\n      tag_64\n      jump\t// in\n    tag_164:\n        /* \"#utility.yul\":8247:8678   */\n      pop\n      pop\n        /* \"#utility.yul\":8232:8678   */\n    tag_160:\n        /* \"#utility.yul\":8142:8685   */\n      pop\n      pop\n      pop\n      jump\t// out\n        /* \"#utility.yul\":8691:8808   */\n    tag_66:\n        /* \"#utility.yul\":8745:8753   */\n      0x00\n        /* \"#utility.yul\":8795:8800   */\n      dup3\n        /* \"#utility.yul\":8789:8793   */\n      dup3\n        /* \"#utility.yul\":8785:8801   */\n      shr\n        /* \"#utility.yul\":8764:8801   */\n      swap1\n      pop\n        /* \"#utility.yul\":8691:8808   */\n      swap3\n      swap2\n      pop\n      pop\n      jump\t// out\n        /* \"#utility.yul\":8814:8983   */\n    tag_67:\n        /* \"#utility.yul\":8858:8864   */\n      0x00\n        /* \"#utility.yul\":8891:8942   */\n      tag_168\n        /* \"#utility.yul\":8939:8940   */\n      0x00\n        /* \"#utility.yul\":8935:8941   */\n      not\n        /* \"#utility.yul\":8927:8932   */\n      dup5\n        /* \"#utility.yul\":8924:8925   */\n      0x08\n        /* \"#utility.yul\":8920:8933   */\n      mul\n        /* \"#utility.yul\":8891:8942   */\n      tag_66\n      jump\t// in\n    tag_168:\n        /* \"#utility.yul\":8887:8943   */\n      not\n        /* \"#utility.yul\":8972:8976   */\n      dup1\n        /* \"#utility.yul\":8966:8970   */\n      dup4\n        /* \"#utility.yul\":8962:8977   */\n      and\n        /* \"#utility.yul\":8952:8977   */\n      swap2\n      pop\n        /* \"#utility.yul\":8865:8983   */\n      pop\n        /* \"#utility.yul\":8814:8983   */\n      swap3\n      swap2\n      pop\n      pop\n      jump\t// out\n        /* \"#utility.yul\":8988:9283   */\n    tag_68:\n        /* \"#utility.yul\":9064:9068   */\n      0x00\n        /* \"#utility.yul\":9210:9239   */\n      tag_170\n        /* \"#utility.yul\":9235:9238   */\n      dup4\n        /* \"#utility.yul\":9229:9233   */\n      dup4\n        /* \"#utility.yul\":9210:9239   */\n      tag_67\n      jump\t// in\n    tag_170:\n        /* \"#utility.yul\":9202:9239   */\n      swap2\n      pop\n        /* \"#utility.yul\":9272:9275   */\n      dup3\n        /* \"#utility.yul\":9269:9270   */\n      0x02\n        /* \"#utility.yul\":9265:9276   */\n      mul\n        /* \"#utility.yul\":9259:9263   */\n      dup3\n        /* \"#utility.yul\":9256:9277   */\n      or\n        /* \"#utility.yul\":9248:9277   */\n      swap1\n      pop\n        /* \"#utility.yul\":8988:9283   */\n      swap3\n      swap2\n      pop\n      pop\n      jump\t// out\n        /* \"#utility.yul\":9288:10683   */\n    tag_23:\n        /* \"#utility.yul\":9405:9442   */\n      tag_172\n        /* \"#utility.yul\":9438:9441   */\n      dup3\n        /* \"#utility.yul\":9405:9442   */\n      tag_46\n      jump\t// in\n    tag_172:\n        /* \"#utility.yul\":9507:9525   */\n      0xffffffffffffffff\n        /* \"#utility.yul\":9499:9505   */\n      dup2\n        /* \"#utility.yul\":9496:9526   */\n      gt\n        /* \"#utility.yul\":9493:9549   */\n      iszero\n      tag_173\n      jumpi\n        /* \"#utility.yul\":9529:9547   */\n      tag_174\n      tag_36\n      jump\t// in\n    tag_174:\n        /* \"#utility.yul\":9493:9549   */\n    tag_173:\n        /* \"#utility.yul\":9573:9611   */\n      tag_175\n        /* \"#utility.yul\":9605:9609   */\n      dup3\n        /* \"#utility.yul\":9599:9610   */\n      sload\n        /* \"#utility.yul\":9573:9611   */\n      tag_25\n      jump\t// in\n    tag_175:\n        /* \"#utility.yul\":9658:9725   */\n      tag_176\n        /* \"#utility.yul\":9718:9724   */\n      dup3\n        /* \"#utility.yul\":9710:9716   */\n      dup3\n        /* \"#utility.yul\":9704:9708   */\n      dup6\n        /* \"#utility.yul\":9658:9725   */\n      tag_65\n      jump\t// in\n    tag_176:\n        /* \"#utility.yul\":9752:9753   */\n      0x00\n        /* \"#utility.yul\":9776:9780   */\n      0x20\n        /* \"#utility.yul\":9763:9780   */\n      swap1\n      pop\n        /* \"#utility.yul\":9808:9810   */\n      0x1f\n        /* \"#utility.yul\":9800:9806   */\n      dup4\n        /* \"#utility.yul\":9797:9811   */\n      gt\n        /* \"#utility.yul\":9825:9826   */\n      0x01\n        /* \"#utility.yul\":9820:10438   */\n      dup2\n      eq\n      tag_178\n      jumpi\n        /* \"#utility.yul\":10482:10483   */\n      0x00\n        /* \"#utility.yul\":10499:10505   */\n      dup5\n        /* \"#utility.yul\":10496:10573   */\n      iszero\n      tag_179\n      jumpi\n        /* \"#utility.yul\":10548:10557   */\n      dup3\n        /* \"#utility.yul\":10543:10546   */\n      dup8\n        /* \"#utility.yul\":10539:10558   */\n      add\n        /* \"#utility.yul\":10533:10559   */\n      mload\n        /* \"#utility.yul\":10524:10559   */\n      swap1\n      pop\n        /* \"#utility.yul\":10496:10573   */\n    tag_179:\n        /* \"#utility.yul\":10599:10666   */\n      tag_180\n        /* \"#utility.yul\":10659:10665   */\n      dup6\n        /* \"#utility.yul\":10652:10657   */\n      dup3\n        /* \"#utility.yul\":10599:10666   */\n      tag_68\n      jump\t// in\n    tag_180:\n        /* \"#utility.yul\":10593:10597   */\n      dup7\n        /* \"#utility.yul\":10586:10667   */\n      sstore\n        /* \"#utility.yul\":10455:10677   */\n      pop\n        /* \"#utility.yul\":9790:10677   */\n      jump(tag_177)\n        /* \"#utility.yul\":9820:10438   */\n    tag_178:\n        /* \"#utility.yul\":9872:9876   */\n      0x1f\n        /* \"#utility.yul\":9868:9877   */\n      not\n        /* \"#utility.yul\":9860:9866   */\n      dup5\n        /* \"#utility.yul\":9856:9878   */\n      and\n        /* \"#utility.yul\":9906:9943   */\n      tag_181\n        /* \"#utility.yul\":9938:9942   */\n      dup7\n        /* \"#utility.yul\":9906:9943   */\n      tag_53\n      jump\t// in\n    tag_181:\n        /* \"#utility.yul\":9965:9966   */\n      0x00\n        /* \"#utility.yul\":9979:10187   */\n    tag_182:\n        /* \"#utility.yul\":9993:10000   */\n      dup3\n        /* \"#utility.yul\":9990:9991   */\n      dup2\n        /* \"#utility.yul\":9987:10001   */\n      lt\n        /* \"#utility.yul\":9979:10187   */\n      iszero\n      tag_184\n      jumpi\n        /* \"#utility.yul\":10072:10081   */\n      dup5\n        /* \"#utility.yul\":10067:10070   */\n      dup10\n        /* \"#utility.yul\":10063:10082   */\n      add\n        /* \"#utility.yul\":10057:10083   */\n      mload\n        /* \"#utility.yul\":10049:10055   */\n      dup3\n        /* \"#utility.yul\":10042:10084   */\n      sstore\n        /* \"#utility.yul\":10123:10124   */\n      0x01\n        /* \"#utility.yul\":10115:10121   */\n      dup3\n        /* \"#utility.yul\":10111:10125   */\n      add\n        /* \"#utility.yul\":10101:10125   */\n      swap2\n      pop\n        /* \"#utility.yul\":10170:10172   */\n      0x20\n        /* \"#utility.yul\":10159:10168   */\n      dup6\n        /* \"#utility.yul\":10155:10173   */\n      add\n        /* \"#utility.yul\":10142:10173   */\n      swap5\n      pop\n        /* \"#utility.yul\":10016:10020   */\n      0x20\n        /* \"#utility.yul\":10013:10014   */\n      dup2\n        /* \"#utility.yul\":10009:10021   */\n      add\n        /* \"#utility.yul\":10004:10021   */\n      swap1\n      pop\n        /* \"#utility.yul\":9979:10187   */\n      jump(tag_182)\n    tag_184:\n        /* \"#utility.yul\":10215:10221   */\n      dup7\n        /* \"#utility.yul\":10206:10213   */\n      dup4\n        /* \"#utility.yul\":10203:10222   */\n      lt\n        /* \"#utility.yul\":10200:10379   */\n      iszero\n      tag_185\n      jumpi\n        /* \"#utility.yul\":10273:10282   */\n      dup5\n        /* \"#utility.yul\":10268:10271   */\n      dup10\n        /* \"#utility.yul\":10264:10283   */\n      add\n        /* \"#utility.yul\":10258:10284   */\n      mload\n        /* \"#utility.yul\":10316:10364   */\n      tag_186\n        /* \"#utility.yul\":10358:10362   */\n      0x1f\n        /* \"#utility.yul\":10350:10356   */\n      dup10\n        /* \"#utility.yul\":10346:10363   */\n      and\n        /* \"#utility.yul\":10335:10344   */\n      dup3\n        /* \"#utility.yul\":10316:10364   */\n      tag_67\n      jump\t// in\n    tag_186:\n        /* \"#utility.yul\":10308:10314   */\n      dup4\n        /* \"#utility.yul\":10301:10365   */\n      sstore\n        /* \"#utility.yul\":10223:10379   */\n      pop\n        /* \"#utility.yul\":10200:10379   */\n    tag_185:\n        /* \"#utility.yul\":10425:10426   */\n      0x01\n        /* \"#utility.yul\":10421:10422   */\n      0x02\n        /* \"#utility.yul\":10413:10419   */\n      dup9\n        /* \"#utility.yul\":10409:10423   */\n      mul\n        /* \"#utility.yul\":10405:10427   */\n      add\n        /* \"#utility.yul\":10399:10403   */\n      dup9\n        /* \"#utility.yul\":10392:10428   */\n      sstore\n        /* \"#utility.yul\":9827:10438   */\n      pop\n      pop\n      pop\n        /* \"#utility.yul\":9790:10677   */\n    tag_177:\n      pop\n        /* \"#utility.yul\":9380:10683   */\n      pop\n      pop\n      pop\n        /* \"#utility.yul\":9288:10683   */\n      pop\n      pop\n      jump\t// out\n\n    auxdata: 0xa26469706673582212207bb5ea8212e63f59a6eef54224c4f17a372065e6696f1d782959849e46b1a0bb64736f6c634300081a0033\n}\n",
				"bytecode": {
					"linkReferences": {},
					"object": "6080604052348015600e575f80fd5b503360015f6101000a81548173ffffffffffffffffffffffffffffffffffffffff021916908373ffffffffffffffffffffffffffffffffffffffff1602179055506107c88061005c5f395ff3fe608060405234801561000f575f80fd5b506004361061003f575f3560e01c80637fcaf666146100435780638da5cb5b1461005f578063c15bae841461007d575b5f80fd5b61005d60048036038101906100589190610339565b61009b565b005b61006761013c565b60405161007491906103bf565b60405180910390f35b610085610161565b6040516100929190610438565b60405180910390f35b60015f9054906101000a900473ffffffffffffffffffffffffffffffffffffffff1673ffffffffffffffffffffffffffffffffffffffff163373ffffffffffffffffffffffffffffffffffffffff161461012a576040517f08c379a0000000000000000000000000000000000000000000000000000000008152600401610121906104a2565b60405180910390fd5b805f908161013891906106c3565b5050565b60015f9054906101000a900473ffffffffffffffffffffffffffffffffffffffff1681565b5f805461016d906104ed565b80601f0160208091040260200160405190810160405280929190818152602001828054610199906104ed565b80156101e45780601f106101bb576101008083540402835291602001916101e4565b820191905f5260205f20905b8154815290600101906020018083116101c757829003601f168201915b505050505081565b5f604051905090565b5f80fd5b5f80fd5b5f80fd5b5f80fd5b5f601f19601f8301169050919050565b7f4e487b71000000000000000000000000000000000000000000000000000000005f52604160045260245ffd5b61024b82610205565b810181811067ffffffffffffffff8211171561026a57610269610215565b5b80604052505050565b5f61027c6101ec565b90506102888282610242565b919050565b5f67ffffffffffffffff8211156102a7576102a6610215565b5b6102b082610205565b9050602081019050919050565b828183375f83830152505050565b5f6102dd6102d88461028d565b610273565b9050828152602081018484840111156102f9576102f8610201565b5b6103048482856102bd565b509392505050565b5f82601f8301126103205761031f6101fd565b5b81356103308482602086016102cb565b91505092915050565b5f6020828403121561034e5761034d6101f5565b5b5f82013567ffffffffffffffff81111561036b5761036a6101f9565b5b6103778482850161030c565b91505092915050565b5f73ffffffffffffffffffffffffffffffffffffffff82169050919050565b5f6103a982610380565b9050919050565b6103b98161039f565b82525050565b5f6020820190506103d25f8301846103b0565b92915050565b5f81519050919050565b5f82825260208201905092915050565b8281835e5f83830152505050565b5f61040a826103d8565b61041481856103e2565b93506104248185602086016103f2565b61042d81610205565b840191505092915050565b5f6020820190508181035f8301526104508184610400565b905092915050565b7f596f7520617265206e6f74206f776e65720000000000000000000000000000005f82015250565b5f61048c6011836103e2565b915061049782610458565b602082019050919050565b5f6020820190508181035f8301526104b981610480565b9050919050565b7f4e487b71000000000000000000000000000000000000000000000000000000005f52602260045260245ffd5b5f600282049050600182168061050457607f821691505b602082108103610517576105166104c0565b5b50919050565b5f819050815f5260205f209050919050565b5f6020601f8301049050919050565b5f82821b905092915050565b5f600883026105797fffffffffffffffffffffffffffffffffffffffffffffffffffffffffffffffff8261053e565b610583868361053e565b95508019841693508086168417925050509392505050565b5f819050919050565b5f819050919050565b5f6105c76105c26105bd8461059b565b6105a4565b61059b565b9050919050565b5f819050919050565b6105e0836105ad565b6105f46105ec826105ce565b84845461054a565b825550505050565b5f90565b6106086105fc565b6106138184846105d7565b505050565b5b818110156106365761062b5f82610600565b600181019050610619565b5050565b601f82111561067b5761064c8161051d565b6106558461052f565b81016020851015610664578190505b6106786106708561052f565b830182610618565b50505b505050565b5f82821c905092915050565b5f61069b5f1984600802610680565b1980831691505092915050565b5f6106b3838361068c565b9150826002028217905092915050565b6106cc826103d8565b67ffffffffffffffff8111156106e5576106e4610215565b5b6106ef82546104ed565b6106fa82828561063a565b5f60209050601f83116001811461072b575f8415610719578287015190505b61072385826106a8565b86555061078a565b601f1984166107398661051d565b5f5b828110156107605784890151825560018201915060208501945060208101905061073b565b8683101561077d5784890151610779601f89168261068c565b8355505b6001600288020188555050505b50505050505056fea26469706673582212207bb5ea8212e63f59a6eef54224c4f17a372065e6696f1d782959849e46b1a0bb64736f6c634300081a0033",
					"opcodes": "PUSH1 0x80 PUSH1 0x40 MSTORE CALLVALUE DUP1 ISZERO PUSH1 0xE JUMPI PUSH0 DUP1 REVERT JUMPDEST POP CALLER PUSH1 0x1 PUSH0 PUSH2 0x100 EXP DUP2 SLOAD DUP2 PUSH20 0xFFFFFFFFFFFFFFFFFFFFFFFFFFFFFFFFFFFFFFFF MUL NOT AND SWAP1 DUP4 PUSH20 0xFFFFFFFFFFFFFFFFFFFFFFFFFFFFFFFFFFFFFFFF AND MUL OR SWAP1 SSTORE POP PUSH2 0x7C8 DUP1 PUSH2 0x5C PUSH0 CODECOPY PUSH0 RETURN INVALID PUSH1 0x80 PUSH1 0x40 MSTORE CALLVALUE DUP1 ISZERO PUSH2 0xF JUMPI PUSH0 DUP1 REVERT JUMPDEST POP PUSH1 0x4 CALLDATASIZE LT PUSH2 0x3F JUMPI PUSH0 CALLDATALOAD PUSH1 0xE0 SHR DUP1 PUSH4 0x7FCAF666 EQ PUSH2 0x43 JUMPI DUP1 PUSH4 0x8DA5CB5B EQ PUSH2 0x5F JUMPI DUP1 PUSH4 0xC15BAE84 EQ PUSH2 0x7D JUMPI JUMPDEST PUSH0 DUP1 REVERT JUMPDEST PUSH2 0x5D PUSH1 0x4 DUP1 CALLDATASIZE SUB DUP2 ADD SWAP1 PUSH2 0x58 SWAP2 SWAP1 PUSH2 0x339 JUMP JUMPDEST PUSH2 0x9B JUMP JUMPDEST STOP JUMPDEST PUSH2 0x67 PUSH2 0x13C JUMP JUMPDEST PUSH1 0x40 MLOAD PUSH2 0x74 SWAP2 SWAP1 PUSH2 0x3BF JUMP JUMPDEST PUSH1 0x40 MLOAD DUP1 SWAP2 SUB SWAP1 RETURN JUMPDEST PUSH2 0x85 PUSH2 0x161 JUMP JUMPDEST PUSH1 0x40 MLOAD PUSH2 0x92 SWAP2 SWAP1 PUSH2 0x438 JUMP JUMPDEST PUSH1 0x40 MLOAD DUP1 SWAP2 SUB SWAP1 RETURN JUMPDEST PUSH1 0x1 PUSH0 SWAP1 SLOAD SWAP1 PUSH2 0x100 EXP SWAP1 DIV PUSH20 0xFFFFFFFFFFFFFFFFFFFFFFFFFFFFFFFFFFFFFFFF AND PUSH20 0xFFFFFFFFFFFFFFFFFFFFFFFFFFFFFFFFFFFFFFFF AND CALLER PUSH20 0xFFFFFFFFFFFFFFFFFFFFFFFFFFFFFFFFFFFFFFFF AND EQ PUSH2 0x12A JUMPI PUSH1 0x40 MLOAD PUSH32 0x8C379A000000000000000000000000000000000000000000000000000000000 DUP2 MSTORE PUSH1 0x4 ADD PUSH2 0x121 SWAP1 PUSH2 0x4A2 JUMP JUMPDEST PUSH1 0x40 MLOAD DUP1 SWAP2 SUB SWAP1 REVERT JUMPDEST DUP1 PUSH0 SWAP1 DUP2 PUSH2 0x138 SWAP2 SWAP1 PUSH2 0x6C3 JUMP JUMPDEST POP POP JUMP JUMPDEST PUSH1 0x1 PUSH0 SWAP1 SLOAD SWAP1 PUSH2 0x100 EXP SWAP1 DIV PUSH20 0xFFFFFFFFFFFFFFFFFFFFFFFFFFFFFFFFFFFFFFFF AND DUP2 JUMP JUMPDEST PUSH0 DUP1 SLOAD PUSH2 0x16D SWAP1 PUSH2 0x4ED JUMP JUMPDEST DUP1 PUSH1 0x1F ADD PUSH1 0x20 DUP1 SWAP2 DIV MUL PUSH1 0x20 ADD PUSH1 0x40 MLOAD SWAP1 DUP2 ADD PUSH1 0x40 MSTORE DUP1 SWAP3 SWAP2 SWAP1 DUP2 DUP2 MSTORE PUSH1 0x20 ADD DUP3 DUP1 SLOAD PUSH2 0x199 SWAP1 PUSH2 0x4ED JUMP JUMPDEST DUP1 ISZERO PUSH2 0x1E4 JUMPI DUP1 PUSH1 0x1F LT PUSH2 0x1BB JUMPI PUSH2 0x100 DUP1 DUP4 SLOAD DIV MUL DUP4 MSTORE SWAP2 PUSH1 0x20 ADD SWAP2 PUSH2 0x1E4 JUMP JUMPDEST DUP3 ADD SWAP2 SWAP1 PUSH0 MSTORE PUSH1 0x20 PUSH0 KECCAK256 SWAP1 JUMPDEST DUP2 SLOAD DUP2 MSTORE SWAP1 PUSH1 0x1 ADD SWAP1 PUSH1 0x20 ADD DUP1 DUP4 GT PUSH2 0x1C7 JUMPI DUP3 SWAP1 SUB PUSH1 0x1F AND DUP3 ADD SWAP2 JUMPDEST POP POP POP POP POP DUP2 JUMP JUMPDEST PUSH0 PUSH1 0x40 MLOAD SWAP1 POP SWAP1 JUMP JUMPDEST PUSH0 DUP1 REVERT JUMPDEST PUSH0 DUP1 REVERT JUMPDEST PUSH0 DUP1 REVERT JUMPDEST PUSH0 DUP1 REVERT JUMPDEST PUSH0 PUSH1 0x1F NOT PUSH1 0x1F DUP4 ADD AND SWAP1 POP SWAP2 SWAP1 POP JUMP JUMPDEST PUSH32 0x4E487B7100000000000000000000000000000000000000000000000000000000 PUSH0 MSTORE PUSH1 0x41 PUSH1 0x4 MSTORE PUSH1 0x24 PUSH0 REVERT JUMPDEST PUSH2 0x24B DUP3 PUSH2 0x205 JUMP JUMPDEST DUP2 ADD DUP2 DUP2 LT PUSH8 0xFFFFFFFFFFFFFFFF DUP3 GT OR ISZERO PUSH2 0x26A JUMPI PUSH2 0x269 PUSH2 0x215 JUMP JUMPDEST JUMPDEST DUP1 PUSH1 0x40 MSTORE POP POP POP JUMP JUMPDEST PUSH0 PUSH2 0x27C PUSH2 0x1EC JUMP JUMPDEST SWAP1 POP PUSH2 0x288 DUP3 DUP3 PUSH2 0x242 JUMP JUMPDEST SWAP2 SWAP1 POP JUMP JUMPDEST PUSH0 PUSH8 0xFFFFFFFFFFFFFFFF DUP3 GT ISZERO PUSH2 0x2A7 JUMPI PUSH2 0x2A6 PUSH2 0x215 JUMP JUMPDEST JUMPDEST PUSH2 0x2B0 DUP3 PUSH2 0x205 JUMP JUMPDEST SWAP1 POP PUSH1 0x20 DUP2 ADD SWAP1 POP SWAP2 SWAP1 POP JUMP JUMPDEST DUP3 DUP2 DUP4 CALLDATACOPY PUSH0 DUP4 DUP4 ADD MSTORE POP POP POP JUMP JUMPDEST PUSH0 PUSH2 0x2DD PUSH2 0x2D8 DUP5 PUSH2 0x28D JUMP JUMPDEST PUSH2 0x273 JUMP JUMPDEST SWAP1 POP DUP3 DUP2 MSTORE PUSH1 0x20 DUP2 ADD DUP5 DUP5 DUP5 ADD GT ISZERO PUSH2 0x2F9 JUMPI PUSH2 0x2F8 PUSH2 0x201 JUMP JUMPDEST JUMPDEST PUSH2 0x304 DUP5 DUP3 DUP6 PUSH2 0x2BD JUMP JUMPDEST POP SWAP4 SWAP3 POP POP POP JUMP JUMPDEST PUSH0 DUP3 PUSH1 0x1F DUP4 ADD SLT PUSH2 0x320 JUMPI PUSH2 0x31F PUSH2 0x1FD JUMP JUMPDEST JUMPDEST DUP2 CALLDATALOAD PUSH2 0x330 DUP5 DUP3 PUSH1 0x20 DUP7 ADD PUSH2 0x2CB JUMP JUMPDEST SWAP2 POP POP SWAP3 SWAP2 POP POP JUMP JUMPDEST PUSH0 PUSH1 0x20 DUP3 DUP5 SUB SLT ISZERO PUSH2 0x34E JUMPI PUSH2 0x34D PUSH2 0x1F5 JUMP JUMPDEST JUMPDEST PUSH0 DUP3 ADD CALLDATALOAD PUSH8 0xFFFFFFFFFFFFFFFF DUP2 GT ISZERO PUSH2 0x36B JUMPI PUSH2 0x36A PUSH2 0x1F9 JUMP JUMPDEST JUMPDEST PUSH2 0x377 DUP5 DUP3 DUP6 ADD PUSH2 0x30C JUMP JUMPDEST SWAP2 POP POP SWAP3 SWAP2 POP POP JUMP JUMPDEST PUSH0 PUSH20 0xFFFFFFFFFFFFFFFFFFFFFFFFFFFFFFFFFFFFFFFF DUP3 AND SWAP1 POP SWAP2 SWAP1 POP JUMP JUMPDEST PUSH0 PUSH2 0x3A9 DUP3 PUSH2 0x380 JUMP JUMPDEST SWAP1 POP SWAP2 SWAP1 POP JUMP JUMPDEST PUSH2 0x3B9 DUP2 PUSH2 0x39F JUMP JUMPDEST DUP3 MSTORE POP POP JUMP JUMPDEST PUSH0 PUSH1 0x20 DUP3 ADD SWAP1 POP PUSH2 0x3D2 PUSH0 DUP4 ADD DUP5 PUSH2 0x3B0 JUMP JUMPDEST SWAP3 SWAP2 POP POP JUMP JUMPDEST PUSH0 DUP2 MLOAD SWAP1 POP SWAP2 SWAP1 POP JUMP JUMPDEST PUSH0 DUP3 DUP3 MSTORE PUSH1 0x20 DUP3 ADD SWAP1 POP SWAP3 SWAP2 POP POP JUMP JUMPDEST DUP3 DUP2 DUP4 MCOPY PUSH0 DUP4 DUP4 ADD MSTORE POP POP POP JUMP JUMPDEST PUSH0 PUSH2 0x40A DUP3 PUSH2 0x3D8 JUMP JUMPDEST PUSH2 0x414 DUP2 DUP6 PUSH2 0x3E2 JUMP JUMPDEST SWAP4 POP PUSH2 0x424 DUP2 DUP6 PUSH1 0x20 DUP7 ADD PUSH2 0x3F2 JUMP JUMPDEST PUSH2 0x42D DUP2 PUSH2 0x205 JUMP JUMPDEST DUP5 ADD SWAP2 POP POP SWAP3 SWAP2 POP POP JUMP JUMPDEST PUSH0 PUSH1 0x20 DUP3 ADD SWAP1 POP DUP2 DUP2 SUB PUSH0 DUP4 ADD MSTORE PUSH2 0x450 DUP2 DUP5 PUSH2 0x400 JUMP JUMPDEST SWAP1 POP SWAP3 SWAP2 POP POP JUMP JUMPDEST PUSH32 0x596F7520617265206E6F74206F776E6572000000000000000000000000000000 PUSH0 DUP3 ADD MSTORE POP JUMP JUMPDEST PUSH0 PUSH2 0x48C PUSH1 0x11 DUP4 PUSH2 0x3E2 JUMP JUMPDEST SWAP2 POP PUSH2 0x497 DUP3 PUSH2 0x458 JUMP JUMPDEST PUSH1 0x20 DUP3 ADD SWAP1 POP SWAP2 SWAP1 POP JUMP JUMPDEST PUSH0 PUSH1 0x20 DUP3 ADD SWAP1 POP DUP2 DUP2 SUB PUSH0 DUP4 ADD MSTORE PUSH2 0x4B9 DUP2 PUSH2 0x480 JUMP JUMPDEST SWAP1 POP SWAP2 SWAP1 POP JUMP JUMPDEST PUSH32 0x4E487B7100000000000000000000000000000000000000000000000000000000 PUSH0 MSTORE PUSH1 0x22 PUSH1 0x4 MSTORE PUSH1 0x24 PUSH0 REVERT JUMPDEST PUSH0 PUSH1 0x2 DUP3 DIV SWAP1 POP PUSH1 0x1 DUP3 AND DUP1 PUSH2 0x504 JUMPI PUSH1 0x7F DUP3 AND SWAP2 POP JUMPDEST PUSH1 0x20 DUP3 LT DUP2 SUB PUSH2 0x517 JUMPI PUSH2 0x516 PUSH2 0x4C0 JUMP JUMPDEST JUMPDEST POP SWAP2 SWAP1 POP JUMP JUMPDEST PUSH0 DUP2 SWAP1 POP DUP2 PUSH0 MSTORE PUSH1 0x20 PUSH0 KECCAK256 SWAP1 POP SWAP2 SWAP1 POP JUMP JUMPDEST PUSH0 PUSH1 0x20 PUSH1 0x1F DUP4 ADD DIV SWAP1 POP SWAP2 SWAP1 POP JUMP JUMPDEST PUSH0 DUP3 DUP3 SHL SWAP1 POP SWAP3 SWAP2 POP POP JUMP JUMPDEST PUSH0 PUSH1 0x8 DUP4 MUL PUSH2 0x579 PUSH32 0xFFFFFFFFFFFFFFFFFFFFFFFFFFFFFFFFFFFFFFFFFFFFFFFFFFFFFFFFFFFFFFFF DUP3 PUSH2 0x53E JUMP JUMPDEST PUSH2 0x583 DUP7 DUP4 PUSH2 0x53E JUMP JUMPDEST SWAP6 POP DUP1 NOT DUP5 AND SWAP4 POP DUP1 DUP7 AND DUP5 OR SWAP3 POP POP POP SWAP4 SWAP3 POP POP POP JUMP JUMPDEST PUSH0 DUP2 SWAP1 POP SWAP2 SWAP1 POP JUMP JUMPDEST PUSH0 DUP2 SWAP1 POP SWAP2 SWAP1 POP JUMP JUMPDEST PUSH0 PUSH2 0x5C7 PUSH2 0x5C2 PUSH2 0x5BD DUP5 PUSH2 0x59B JUMP JUMPDEST PUSH2 0x5A4 JUMP JUMPDEST PUSH2 0x59B JUMP JUMPDEST SWAP1 POP SWAP2 SWAP1 POP JUMP JUMPDEST PUSH0 DUP2 SWAP1 POP SWAP2 SWAP1 POP JUMP JUMPDEST PUSH2 0x5E0 DUP4 PUSH2 0x5AD JUMP JUMPDEST PUSH2 0x5F4 PUSH2 0x5EC DUP3 PUSH2 0x5CE JUMP JUMPDEST DUP5 DUP5 SLOAD PUSH2 0x54A JUMP JUMPDEST DUP3 SSTORE POP POP POP POP JUMP JUMPDEST PUSH0 SWAP1 JUMP JUMPDEST PUSH2 0x608 PUSH2 0x5FC JUMP JUMPDEST PUSH2 0x613 DUP2 DUP5 DUP5 PUSH2 0x5D7 JUMP JUMPDEST POP POP POP JUMP JUMPDEST JUMPDEST DUP2 DUP2 LT ISZERO PUSH2 0x636 JUMPI PUSH2 0x62B PUSH0 DUP3 PUSH2 0x600 JUMP JUMPDEST PUSH1 0x1 DUP2 ADD SWAP1 POP PUSH2 0x619 JUMP JUMPDEST POP POP JUMP JUMPDEST PUSH1 0x1F DUP3 GT ISZERO PUSH2 0x67B JUMPI PUSH2 0x64C DUP2 PUSH2 0x51D JUMP JUMPDEST PUSH2 0x655 DUP5 PUSH2 0x52F JUMP JUMPDEST DUP2 ADD PUSH1 0x20 DUP6 LT ISZERO PUSH2 0x664 JUMPI DUP2 SWAP1 POP JUMPDEST PUSH2 0x678 PUSH2 0x670 DUP6 PUSH2 0x52F JUMP JUMPDEST DUP4 ADD DUP3 PUSH2 0x618 JUMP JUMPDEST POP POP JUMPDEST POP POP POP JUMP JUMPDEST PUSH0 DUP3 DUP3 SHR SWAP1 POP SWAP3 SWAP2 POP POP JUMP JUMPDEST PUSH0 PUSH2 0x69B PUSH0 NOT DUP5 PUSH1 0x8 MUL PUSH2 0x680 JUMP JUMPDEST NOT DUP1 DUP4 AND SWAP2 POP POP SWAP3 SWAP2 POP POP JUMP JUMPDEST PUSH0 PUSH2 0x6B3 DUP4 DUP4 PUSH2 0x68C JUMP JUMPDEST SWAP2 POP DUP3 PUSH1 0x2 MUL DUP3 OR SWAP1 POP SWAP3 SWAP2 POP POP JUMP JUMPDEST PUSH2 0x6CC DUP3 PUSH2 0x3D8 JUMP JUMPDEST PUSH8 0xFFFFFFFFFFFFFFFF DUP2 GT ISZERO PUSH2 0x6E5 JUMPI PUSH2 0x6E4 PUSH2 0x215 JUMP JUMPDEST JUMPDEST PUSH2 0x6EF DUP3 SLOAD PUSH2 0x4ED JUMP JUMPDEST PUSH2 0x6FA DUP3 DUP3 DUP6 PUSH2 0x63A JUMP JUMPDEST PUSH0 PUSH1 0x20 SWAP1 POP PUSH1 0x1F DUP4 GT PUSH1 0x1 DUP2 EQ PUSH2 0x72B JUMPI PUSH0 DUP5 ISZERO PUSH2 0x719 JUMPI DUP3 DUP8 ADD MLOAD SWAP1 POP JUMPDEST PUSH2 0x723 DUP6 DUP3 PUSH2 0x6A8 JUMP JUMPDEST DUP7 SSTORE POP PUSH2 0x78A JUMP JUMPDEST PUSH1 0x1F NOT DUP5 AND PUSH2 0x739 DUP7 PUSH2 0x51D JUMP JUMPDEST PUSH0 JUMPDEST DUP3 DUP2 LT ISZERO PUSH2 0x760 JUMPI DUP5 DUP10 ADD MLOAD DUP3 SSTORE PUSH1 0x1 DUP3 ADD SWAP2 POP PUSH1 0x20 DUP6 ADD SWAP5 POP PUSH1 0x20 DUP2 ADD SWAP1 POP PUSH2 0x73B JUMP JUMPDEST DUP7 DUP4 LT ISZERO PUSH2 0x77D JUMPI DUP5 DUP10 ADD MLOAD PUSH2 0x779 PUSH1 0x1F DUP10 AND DUP3 PUSH2 0x68C JUMP JUMPDEST DUP4 SSTORE POP JUMPDEST PUSH1 0x1 PUSH1 0x2 DUP9 MUL ADD DUP9 SSTORE POP POP POP JUMPDEST POP POP POP POP POP POP JUMP INVALID LOG2 PUSH5 0x6970667358 0x22 SLT KECCAK256 PUSH28 0xB5EA8212E63F59A6EEF54224C4F17A372065E6696F1D782959849E46 0xB1 LOG0 0xBB PUSH5 0x736F6C6343 STOP ADDMOD BYTE STOP CALLER "
				},
				"gasEstimates": {
					"creation": {
						"codeDepositCost": "398400",
						"executionCost": "24699",
						"totalCost": "423099"
					},
					"external": {
						"owner()": "2508",
						"setString(string)": "infinite",
						"str()": "infinite"
					}
				},
				"methodIdentifiers": {
					"owner()": "8da5cb5b",
					"setString(string)": "7fcaf666",
					"str()": "c15bae84"
				}
			},
			"storageLayout": {
				"storage": [
					{
						"astId": 3,
						"contract": "example14_1.sol:Task1",
						"label": "str",
						"offset": 0,
						"slot": "0",
						"type": "t_string_storage"
					},
					{
						"astId": 5,
						"contract": "example14_1.sol:Task1",
						"label": "owner",
						"offset": 0,
						"slot": "1",
						"type": "t_address"
					}
				],
				"types": {
					"t_address": {
						"encoding": "inplace",
						"label": "address",
						"numberOfBytes": "20"
					},
					"t_string_storage": {
						"encoding": "bytes",
						"label": "string",
						"numberOfBytes": "32"
					}
				}
			},
			"userdoc": {
				"kind": "user",
				"methods": {},
				"version": 1
			}
		}
	}
}