{
	"example13_1task.sol": {
		"MsgResearch": {
			"abi": [
				{
					"inputs": [],
					"name": "a",
					"outputs": [
						{
							"internalType": "uint256",
							"name": "",
							"type": "uint256"
						}
					],
					"stateMutability": "view",
					"type": "function"
				},
				{
					"inputs": [],
					"name": "b",
					"outputs": [
						{
							"internalType": "uint8",
							"name": "",
							"type": "uint8"
						}
					],
					"stateMutability": "view",
					"type": "function"
				},
				{
					"inputs": [],
					"name": "data",
					"outputs": [
						{
							"internalType": "bytes",
							"name": "",
							"type": "bytes"
						}
					],
					"stateMutability": "view",
					"type": "function"
				},
				{
					"inputs": [
						{
							"internalType": "uint256",
							"name": "_a",
							"type": "uint256"
						},
						{
							"internalType": "uint8",
							"name": "_b",
							"type": "uint8"
						},
						{
							"internalType": "string",
							"name": "_str",
							"type": "string"
						}
					],
					"name": "researchMsg",
					"outputs": [],
					"stateMutability": "payable",
					"type": "function"
				},
				{
					"inputs": [],
					"name": "sender",
					"outputs": [
						{
							"internalType": "address",
							"name": "",
							"type": "address"
						}
					],
					"stateMutability": "view",
					"type": "function"
				},
				{
					"inputs": [],
					"name": "sig",
					"outputs": [
						{
							"internalType": "bytes4",
							"name": "",
							"type": "bytes4"
						}
					],
					"stateMutability": "view",
					"type": "function"
				},
				{
					"inputs": [],
					"name": "str",
					"outputs": [
						{
							"internalType": "string",
							"name": "",
							"type": "string"
						}
					],
					"stateMutability": "view",
					"type": "function"
				},
				{
					"inputs": [],
					"name": "value",
					"outputs": [
						{
							"internalType": "uint256",
							"name": "",
							"type": "uint256"
						}
					],
					"stateMutability": "view",
					"type": "function"
				}
			],
			"devdoc": {
				"kind": "dev",
				"methods": {},
				"version": 1
			},
			"evm": {
				"assembly": "    /* \"example13_1task.sol\":60:594  contract MsgResearch {... */\n  mstore(0x40, 0x80)\n  callvalue\n  dup1\n  iszero\n  tag_1\n  jumpi\n  0x00\n  dup1\n  revert\ntag_1:\n  pop\n  dataSize(sub_0)\n  dup1\n  dataOffset(sub_0)\n  0x00\n  codecopy\n  0x00\n  return\nstop\n\nsub_0: assembly {\n        /* \"example13_1task.sol\":60:594  contract MsgResearch {... */\n      mstore(0x40, 0x80)\n      jumpi(tag_1, lt(calldatasize, 0x04))\n      shr(0xe0, calldataload(0x00))\n      dup1\n      0x4df7e3d0\n      gt\n      tag_10\n      jumpi\n      dup1\n      0x4df7e3d0\n      eq\n      tag_6\n      jumpi\n      dup1\n      0x67e404ce\n      eq\n      tag_7\n      jumpi\n      dup1\n      0x73d4a13a\n      eq\n      tag_8\n      jumpi\n      dup1\n      0xc15bae84\n      eq\n      tag_9\n      jumpi\n      jump(tag_1)\n    tag_10:\n      dup1\n      0xa7029b\n      eq\n      tag_2\n      jumpi\n      dup1\n      0x0dbe671f\n      eq\n      tag_3\n      jumpi\n      dup1\n      0x25e71e27\n      eq\n      tag_4\n      jumpi\n      dup1\n      0x3fa4f245\n      eq\n      tag_5\n      jumpi\n    tag_1:\n      0x00\n      dup1\n      revert\n        /* \"example13_1task.sol\":235:252  bytes4 public sig */\n    tag_2:\n      callvalue\n      dup1\n      iszero\n      tag_11\n      jumpi\n      0x00\n      dup1\n      revert\n    tag_11:\n      pop\n      tag_12\n      tag_13\n      jump\t// in\n    tag_12:\n      mload(0x40)\n      tag_14\n      swap2\n      swap1\n      tag_15\n      jump\t// in\n    tag_14:\n      mload(0x40)\n      dup1\n      swap2\n      sub\n      swap1\n      return\n        /* \"example13_1task.sol\":88:104  uint256 public a */\n    tag_3:\n      callvalue\n      dup1\n      iszero\n      tag_16\n      jumpi\n      0x00\n      dup1\n      revert\n    tag_16:\n      pop\n      tag_17\n      tag_18\n      jump\t// in\n    tag_17:\n      mload(0x40)\n      tag_19\n      swap2\n      swap1\n      tag_20\n      jump\t// in\n    tag_19:\n      mload(0x40)\n      dup1\n      swap2\n      sub\n      swap1\n      return\n        /* \"example13_1task.sol\":340:591  function researchMsg(uint256 _a, uint8 _b, string memory _str) public payable {... */\n    tag_4:\n      tag_21\n      0x04\n      dup1\n      calldatasize\n      sub\n      dup2\n      add\n      swap1\n      tag_22\n      swap2\n      swap1\n      tag_23\n      jump\t// in\n    tag_22:\n      tag_24\n      jump\t// in\n    tag_21:\n      stop\n        /* \"example13_1task.sol\":184:204  uint256 public value */\n    tag_5:\n      callvalue\n      dup1\n      iszero\n      tag_25\n      jumpi\n      0x00\n      dup1\n      revert\n    tag_25:\n      pop\n      tag_26\n      tag_27\n      jump\t// in\n    tag_26:\n      mload(0x40)\n      tag_28\n      swap2\n      swap1\n      tag_20\n      jump\t// in\n    tag_28:\n      mload(0x40)\n      dup1\n      swap2\n      sub\n      swap1\n      return\n        /* \"example13_1task.sol\":111:125  uint8 public b */\n    tag_6:\n      callvalue\n      dup1\n      iszero\n      tag_29\n      jumpi\n      0x00\n      dup1\n      revert\n    tag_29:\n      pop\n      tag_30\n      tag_31\n      jump\t// in\n    tag_30:\n      mload(0x40)\n      tag_32\n      swap2\n      swap1\n      tag_33\n      jump\t// in\n    tag_32:\n      mload(0x40)\n      dup1\n      swap2\n      sub\n      swap1\n      return\n        /* \"example13_1task.sol\":156:177  address public sender */\n    tag_7:\n      callvalue\n      dup1\n      iszero\n      tag_34\n      jumpi\n      0x00\n      dup1\n      revert\n    tag_34:\n      pop\n      tag_35\n      tag_36\n      jump\t// in\n    tag_35:\n      mload(0x40)\n      tag_37\n      swap2\n      swap1\n      tag_38\n      jump\t// in\n    tag_37:\n      mload(0x40)\n      dup1\n      swap2\n      sub\n      swap1\n      return\n        /* \"example13_1task.sol\":211:228  bytes public data */\n    tag_8:\n      callvalue\n      dup1\n      iszero\n      tag_39\n      jumpi\n      0x00\n      dup1\n      revert\n    tag_39:\n      pop\n      tag_40\n      tag_41\n      jump\t// in\n    tag_40:\n      mload(0x40)\n      tag_42\n      swap2\n      swap1\n      tag_43\n      jump\t// in\n    tag_42:\n      mload(0x40)\n      dup1\n      swap2\n      sub\n      swap1\n      return\n        /* \"example13_1task.sol\":132:149  string public str */\n    tag_9:\n      callvalue\n      dup1\n      iszero\n      tag_44\n      jumpi\n      0x00\n      dup1\n      revert\n    tag_44:\n      pop\n      tag_45\n      tag_46\n      jump\t// in\n    tag_45:\n      mload(0x40)\n      tag_47\n      swap2\n      swap1\n      tag_48\n      jump\t// in\n    tag_47:\n      mload(0x40)\n      dup1\n      swap2\n      sub\n      swap1\n      return\n        /* \"example13_1task.sol\":235:252  bytes4 public sig */\n    tag_13:\n      0x06\n      0x00\n      swap1\n      sload\n      swap1\n      0x0100\n      exp\n      swap1\n      div\n      0xe0\n      shl\n      dup2\n      jump\t// out\n        /* \"example13_1task.sol\":88:104  uint256 public a */\n    tag_18:\n      sload(0x00)\n      dup2\n      jump\t// out\n        /* \"example13_1task.sol\":340:591  function researchMsg(uint256 _a, uint8 _b, string memory _str) public payable {... */\n    tag_24:\n        /* \"example13_1task.sol\":433:435  _a */\n      dup3\n        /* \"example13_1task.sol\":429:430  a */\n      0x00\n        /* \"example13_1task.sol\":429:435  a = _a */\n      dup2\n      swap1\n      sstore\n      pop\n        /* \"example13_1task.sol\":450:452  _b */\n      dup2\n        /* \"example13_1task.sol\":446:447  b */\n      0x01\n      0x00\n        /* \"example13_1task.sol\":446:452  b = _b */\n      0x0100\n      exp\n      dup2\n      sload\n      dup2\n      0xff\n      mul\n      not\n      and\n      swap1\n      dup4\n      0xff\n      and\n      mul\n      or\n      swap1\n      sstore\n      pop\n        /* \"example13_1task.sol\":469:473  _str */\n      dup1\n        /* \"example13_1task.sol\":463:466  str */\n      0x02\n        /* \"example13_1task.sol\":463:473  str = _str */\n      swap1\n      dup2\n      tag_50\n      swap2\n      swap1\n      tag_51\n      jump\t// in\n    tag_50:\n      pop\n        /* \"example13_1task.sol\":495:505  msg.sender */\n      caller\n        /* \"example13_1task.sol\":486:492  sender */\n      0x03\n      0x00\n        /* \"example13_1task.sol\":486:505  sender = msg.sender */\n      0x0100\n      exp\n      dup2\n      sload\n      dup2\n      0xffffffffffffffffffffffffffffffffffffffff\n      mul\n      not\n      and\n      swap1\n      dup4\n      0xffffffffffffffffffffffffffffffffffffffff\n      and\n      mul\n      or\n      swap1\n      sstore\n      pop\n        /* \"example13_1task.sol\":524:533  msg.value */\n      callvalue\n        /* \"example13_1task.sol\":516:521  value */\n      0x04\n        /* \"example13_1task.sol\":516:533  value = msg.value */\n      dup2\n      swap1\n      sstore\n      pop\n        /* \"example13_1task.sol\":551:559  msg.data */\n      0x00\n      calldatasize\n        /* \"example13_1task.sol\":544:548  data */\n      0x05\n        /* \"example13_1task.sol\":544:559  data = msg.data */\n      swap2\n      dup3\n      tag_52\n      swap3\n      swap2\n      swap1\n      tag_53\n      jump\t// in\n    tag_52:\n      pop\n        /* \"example13_1task.sol\":576:583  msg.sig */\n      and(0xffffffff00000000000000000000000000000000000000000000000000000000, calldataload(0x00))\n        /* \"example13_1task.sol\":570:573  sig */\n      0x06\n      0x00\n        /* \"example13_1task.sol\":570:583  sig = msg.sig */\n      0x0100\n      exp\n      dup2\n      sload\n      dup2\n      0xffffffff\n      mul\n      not\n      and\n      swap1\n      dup4\n      0xe0\n      shr\n      mul\n      or\n      swap1\n      sstore\n      pop\n        /* \"example13_1task.sol\":340:591  function researchMsg(uint256 _a, uint8 _b, string memory _str) public payable {... */\n      pop\n      pop\n      pop\n      jump\t// out\n        /* \"example13_1task.sol\":184:204  uint256 public value */\n    tag_27:\n      sload(0x04)\n      dup2\n      jump\t// out\n        /* \"example13_1task.sol\":111:125  uint8 public b */\n    tag_31:\n      0x01\n      0x00\n      swap1\n      sload\n      swap1\n      0x0100\n      exp\n      swap1\n      div\n      0xff\n      and\n      dup2\n      jump\t// out\n        /* \"example13_1task.sol\":156:177  address public sender */\n    tag_36:\n      0x03\n      0x00\n      swap1\n      sload\n      swap1\n      0x0100\n      exp\n      swap1\n      div\n      0xffffffffffffffffffffffffffffffffffffffff\n      and\n      dup2\n      jump\t// out\n        /* \"example13_1task.sol\":211:228  bytes public data */\n    tag_41:\n      0x05\n      dup1\n      sload\n      tag_54\n      swap1\n      tag_55\n      jump\t// in\n    tag_54:\n      dup1\n      0x1f\n      add\n      0x20\n      dup1\n      swap2\n      div\n      mul\n      0x20\n      add\n      mload(0x40)\n      swap1\n      dup2\n      add\n      0x40\n      mstore\n      dup1\n      swap3\n      swap2\n      swap1\n      dup2\n      dup2\n      mstore\n      0x20\n      add\n      dup3\n      dup1\n      sload\n      tag_56\n      swap1\n      tag_55\n      jump\t// in\n    tag_56:\n      dup1\n      iszero\n      tag_57\n      jumpi\n      dup1\n      0x1f\n      lt\n      tag_58\n      jumpi\n      0x0100\n      dup1\n      dup4\n      sload\n      div\n      mul\n      dup4\n      mstore\n      swap2\n      0x20\n      add\n      swap2\n      jump(tag_57)\n    tag_58:\n      dup3\n      add\n      swap2\n      swap1\n      0x00\n      mstore\n      keccak256(0x00, 0x20)\n      swap1\n    tag_59:\n      dup2\n      sload\n      dup2\n      mstore\n      swap1\n      0x01\n      add\n      swap1\n      0x20\n      add\n      dup1\n      dup4\n      gt\n      tag_59\n      jumpi\n      dup3\n      swap1\n      sub\n      0x1f\n      and\n      dup3\n      add\n      swap2\n    tag_57:\n      pop\n      pop\n      pop\n      pop\n      pop\n      dup2\n      jump\t// out\n        /* \"example13_1task.sol\":132:149  string public str */\n    tag_46:\n      0x02\n      dup1\n      sload\n      tag_60\n      swap1\n      tag_55\n      jump\t// in\n    tag_60:\n      dup1\n      0x1f\n      add\n      0x20\n      dup1\n      swap2\n      div\n      mul\n      0x20\n      add\n      mload(0x40)\n      swap1\n      dup2\n      add\n      0x40\n      mstore\n      dup1\n      swap3\n      swap2\n      swap1\n      dup2\n      dup2\n      mstore\n      0x20\n      add\n      dup3\n      dup1\n      sload\n      tag_61\n      swap1\n      tag_55\n      jump\t// in\n    tag_61:\n      dup1\n      iszero\n      tag_62\n      jumpi\n      dup1\n      0x1f\n      lt\n      tag_63\n      jumpi\n      0x0100\n      dup1\n      dup4\n      sload\n      div\n      mul\n      dup4\n      mstore\n      swap2\n      0x20\n      add\n      swap2\n      jump(tag_62)\n    tag_63:\n      dup3\n      add\n      swap2\n      swap1\n      0x00\n      mstore\n      keccak256(0x00, 0x20)\n      swap1\n    tag_64:\n      dup2\n      sload\n      dup2\n      mstore\n      swap1\n      0x01\n      add\n      swap1\n      0x20\n      add\n      dup1\n      dup4\n      gt\n      tag_64\n      jumpi\n      dup3\n      swap1\n      sub\n      0x1f\n      and\n      dup3\n      add\n      swap2\n    tag_62:\n      pop\n      pop\n      pop\n      pop\n      pop\n      dup2\n      jump\t// out\n        /* \"#utility.yul\":7:156   */\n    tag_65:\n        /* \"#utility.yul\":43:50   */\n      0x00\n        /* \"#utility.yul\":83:149   */\n      0xffffffff00000000000000000000000000000000000000000000000000000000\n        /* \"#utility.yul\":76:81   */\n      dup3\n        /* \"#utility.yul\":72:150   */\n      and\n        /* \"#utility.yul\":61:150   */\n      swap1\n      pop\n        /* \"#utility.yul\":7:156   */\n      swap2\n      swap1\n      pop\n      jump\t// out\n        /* \"#utility.yul\":162:277   */\n    tag_66:\n        /* \"#utility.yul\":247:270   */\n      tag_120\n        /* \"#utility.yul\":264:269   */\n      dup2\n        /* \"#utility.yul\":247:270   */\n      tag_65\n      jump\t// in\n    tag_120:\n        /* \"#utility.yul\":242:245   */\n      dup3\n        /* \"#utility.yul\":235:271   */\n      mstore\n        /* \"#utility.yul\":162:277   */\n      pop\n      pop\n      jump\t// out\n        /* \"#utility.yul\":283:501   */\n    tag_15:\n        /* \"#utility.yul\":374:378   */\n      0x00\n        /* \"#utility.yul\":412:414   */\n      0x20\n        /* \"#utility.yul\":401:410   */\n      dup3\n        /* \"#utility.yul\":397:415   */\n      add\n        /* \"#utility.yul\":389:415   */\n      swap1\n      pop\n        /* \"#utility.yul\":425:494   */\n      tag_122\n        /* \"#utility.yul\":491:492   */\n      0x00\n        /* \"#utility.yul\":480:489   */\n      dup4\n        /* \"#utility.yul\":476:493   */\n      add\n        /* \"#utility.yul\":467:473   */\n      dup5\n        /* \"#utility.yul\":425:494   */\n      tag_66\n      jump\t// in\n    tag_122:\n        /* \"#utility.yul\":283:501   */\n      swap3\n      swap2\n      pop\n      pop\n      jump\t// out\n        /* \"#utility.yul\":507:584   */\n    tag_67:\n        /* \"#utility.yul\":544:551   */\n      0x00\n        /* \"#utility.yul\":573:578   */\n      dup2\n        /* \"#utility.yul\":562:578   */\n      swap1\n      pop\n        /* \"#utility.yul\":507:584   */\n      swap2\n      swap1\n      pop\n      jump\t// out\n        /* \"#utility.yul\":590:708   */\n    tag_68:\n        /* \"#utility.yul\":677:701   */\n      tag_125\n        /* \"#utility.yul\":695:700   */\n      dup2\n        /* \"#utility.yul\":677:701   */\n      tag_67\n      jump\t// in\n    tag_125:\n        /* \"#utility.yul\":672:675   */\n      dup3\n        /* \"#utility.yul\":665:702   */\n      mstore\n        /* \"#utility.yul\":590:708   */\n      pop\n      pop\n      jump\t// out\n        /* \"#utility.yul\":714:936   */\n    tag_20:\n        /* \"#utility.yul\":807:811   */\n      0x00\n        /* \"#utility.yul\":845:847   */\n      0x20\n        /* \"#utility.yul\":834:843   */\n      dup3\n        /* \"#utility.yul\":830:848   */\n      add\n        /* \"#utility.yul\":822:848   */\n      swap1\n      pop\n        /* \"#utility.yul\":858:929   */\n      tag_127\n        /* \"#utility.yul\":926:927   */\n      0x00\n        /* \"#utility.yul\":915:924   */\n      dup4\n        /* \"#utility.yul\":911:928   */\n      add\n        /* \"#utility.yul\":902:908   */\n      dup5\n        /* \"#utility.yul\":858:929   */\n      tag_68\n      jump\t// in\n    tag_127:\n        /* \"#utility.yul\":714:936   */\n      swap3\n      swap2\n      pop\n      pop\n      jump\t// out\n        /* \"#utility.yul\":942:1017   */\n    tag_69:\n        /* \"#utility.yul\":975:981   */\n      0x00\n        /* \"#utility.yul\":1008:1010   */\n      0x40\n        /* \"#utility.yul\":1002:1011   */\n      mload\n        /* \"#utility.yul\":992:1011   */\n      swap1\n      pop\n        /* \"#utility.yul\":942:1017   */\n      swap1\n      jump\t// out\n        /* \"#utility.yul\":1023:1140   */\n    tag_70:\n        /* \"#utility.yul\":1132:1133   */\n      0x00\n        /* \"#utility.yul\":1129:1130   */\n      dup1\n        /* \"#utility.yul\":1122:1134   */\n      revert\n        /* \"#utility.yul\":1146:1263   */\n    tag_71:\n        /* \"#utility.yul\":1255:1256   */\n      0x00\n        /* \"#utility.yul\":1252:1253   */\n      dup1\n        /* \"#utility.yul\":1245:1257   */\n      revert\n        /* \"#utility.yul\":1269:1391   */\n    tag_72:\n        /* \"#utility.yul\":1342:1366   */\n      tag_132\n        /* \"#utility.yul\":1360:1365   */\n      dup2\n        /* \"#utility.yul\":1342:1366   */\n      tag_67\n      jump\t// in\n    tag_132:\n        /* \"#utility.yul\":1335:1340   */\n      dup2\n        /* \"#utility.yul\":1332:1367   */\n      eq\n        /* \"#utility.yul\":1322:1385   */\n      tag_133\n      jumpi\n        /* \"#utility.yul\":1381:1382   */\n      0x00\n        /* \"#utility.yul\":1378:1379   */\n      dup1\n        /* \"#utility.yul\":1371:1383   */\n      revert\n        /* \"#utility.yul\":1322:1385   */\n    tag_133:\n        /* \"#utility.yul\":1269:1391   */\n      pop\n      jump\t// out\n        /* \"#utility.yul\":1397:1536   */\n    tag_73:\n        /* \"#utility.yul\":1443:1448   */\n      0x00\n        /* \"#utility.yul\":1481:1487   */\n      dup2\n        /* \"#utility.yul\":1468:1488   */\n      calldataload\n        /* \"#utility.yul\":1459:1488   */\n      swap1\n      pop\n        /* \"#utility.yul\":1497:1530   */\n      tag_135\n        /* \"#utility.yul\":1524:1529   */\n      dup2\n        /* \"#utility.yul\":1497:1530   */\n      tag_72\n      jump\t// in\n    tag_135:\n        /* \"#utility.yul\":1397:1536   */\n      swap3\n      swap2\n      pop\n      pop\n      jump\t// out\n        /* \"#utility.yul\":1542:1628   */\n    tag_74:\n        /* \"#utility.yul\":1577:1584   */\n      0x00\n        /* \"#utility.yul\":1617:1621   */\n      0xff\n        /* \"#utility.yul\":1610:1615   */\n      dup3\n        /* \"#utility.yul\":1606:1622   */\n      and\n        /* \"#utility.yul\":1595:1622   */\n      swap1\n      pop\n        /* \"#utility.yul\":1542:1628   */\n      swap2\n      swap1\n      pop\n      jump\t// out\n        /* \"#utility.yul\":1634:1752   */\n    tag_75:\n        /* \"#utility.yul\":1705:1727   */\n      tag_138\n        /* \"#utility.yul\":1721:1726   */\n      dup2\n        /* \"#utility.yul\":1705:1727   */\n      tag_74\n      jump\t// in\n    tag_138:\n        /* \"#utility.yul\":1698:1703   */\n      dup2\n        /* \"#utility.yul\":1695:1728   */\n      eq\n        /* \"#utility.yul\":1685:1746   */\n      tag_139\n      jumpi\n        /* \"#utility.yul\":1742:1743   */\n      0x00\n        /* \"#utility.yul\":1739:1740   */\n      dup1\n        /* \"#utility.yul\":1732:1744   */\n      revert\n        /* \"#utility.yul\":1685:1746   */\n    tag_139:\n        /* \"#utility.yul\":1634:1752   */\n      pop\n      jump\t// out\n        /* \"#utility.yul\":1758:1893   */\n    tag_76:\n        /* \"#utility.yul\":1802:1807   */\n      0x00\n        /* \"#utility.yul\":1840:1846   */\n      dup2\n        /* \"#utility.yul\":1827:1847   */\n      calldataload\n        /* \"#utility.yul\":1818:1847   */\n      swap1\n      pop\n        /* \"#utility.yul\":1856:1887   */\n      tag_141\n        /* \"#utility.yul\":1881:1886   */\n      dup2\n        /* \"#utility.yul\":1856:1887   */\n      tag_75\n      jump\t// in\n    tag_141:\n        /* \"#utility.yul\":1758:1893   */\n      swap3\n      swap2\n      pop\n      pop\n      jump\t// out\n        /* \"#utility.yul\":1899:2016   */\n    tag_77:\n        /* \"#utility.yul\":2008:2009   */\n      0x00\n        /* \"#utility.yul\":2005:2006   */\n      dup1\n        /* \"#utility.yul\":1998:2010   */\n      revert\n        /* \"#utility.yul\":2022:2139   */\n    tag_78:\n        /* \"#utility.yul\":2131:2132   */\n      0x00\n        /* \"#utility.yul\":2128:2129   */\n      dup1\n        /* \"#utility.yul\":2121:2133   */\n      revert\n        /* \"#utility.yul\":2145:2247   */\n    tag_79:\n        /* \"#utility.yul\":2186:2192   */\n      0x00\n        /* \"#utility.yul\":2237:2239   */\n      0x1f\n        /* \"#utility.yul\":2233:2240   */\n      not\n        /* \"#utility.yul\":2228:2230   */\n      0x1f\n        /* \"#utility.yul\":2221:2226   */\n      dup4\n        /* \"#utility.yul\":2217:2231   */\n      add\n        /* \"#utility.yul\":2213:2241   */\n      and\n        /* \"#utility.yul\":2203:2241   */\n      swap1\n      pop\n        /* \"#utility.yul\":2145:2247   */\n      swap2\n      swap1\n      pop\n      jump\t// out\n        /* \"#utility.yul\":2253:2433   */\n    tag_80:\n        /* \"#utility.yul\":2301:2378   */\n      0x4e487b7100000000000000000000000000000000000000000000000000000000\n        /* \"#utility.yul\":2298:2299   */\n      0x00\n        /* \"#utility.yul\":2291:2379   */\n      mstore\n        /* \"#utility.yul\":2398:2402   */\n      0x41\n        /* \"#utility.yul\":2395:2396   */\n      0x04\n        /* \"#utility.yul\":2388:2403   */\n      mstore\n        /* \"#utility.yul\":2422:2426   */\n      0x24\n        /* \"#utility.yul\":2419:2420   */\n      0x00\n        /* \"#utility.yul\":2412:2427   */\n      revert\n        /* \"#utility.yul\":2439:2720   */\n    tag_81:\n        /* \"#utility.yul\":2522:2549   */\n      tag_147\n        /* \"#utility.yul\":2544:2548   */\n      dup3\n        /* \"#utility.yul\":2522:2549   */\n      tag_79\n      jump\t// in\n    tag_147:\n        /* \"#utility.yul\":2514:2520   */\n      dup2\n        /* \"#utility.yul\":2510:2550   */\n      add\n        /* \"#utility.yul\":2652:2658   */\n      dup2\n        /* \"#utility.yul\":2640:2650   */\n      dup2\n        /* \"#utility.yul\":2637:2659   */\n      lt\n        /* \"#utility.yul\":2616:2634   */\n      0xffffffffffffffff\n        /* \"#utility.yul\":2604:2614   */\n      dup3\n        /* \"#utility.yul\":2601:2635   */\n      gt\n        /* \"#utility.yul\":2598:2660   */\n      or\n        /* \"#utility.yul\":2595:2683   */\n      iszero\n      tag_148\n      jumpi\n        /* \"#utility.yul\":2663:2681   */\n      tag_149\n      tag_80\n      jump\t// in\n    tag_149:\n        /* \"#utility.yul\":2595:2683   */\n    tag_148:\n        /* \"#utility.yul\":2703:2713   */\n      dup1\n        /* \"#utility.yul\":2699:2701   */\n      0x40\n        /* \"#utility.yul\":2692:2714   */\n      mstore\n        /* \"#utility.yul\":2482:2720   */\n      pop\n        /* \"#utility.yul\":2439:2720   */\n      pop\n      pop\n      jump\t// out\n        /* \"#utility.yul\":2726:2855   */\n    tag_82:\n        /* \"#utility.yul\":2760:2766   */\n      0x00\n        /* \"#utility.yul\":2787:2807   */\n      tag_151\n      tag_69\n      jump\t// in\n    tag_151:\n        /* \"#utility.yul\":2777:2807   */\n      swap1\n      pop\n        /* \"#utility.yul\":2816:2849   */\n      tag_152\n        /* \"#utility.yul\":2844:2848   */\n      dup3\n        /* \"#utility.yul\":2836:2842   */\n      dup3\n        /* \"#utility.yul\":2816:2849   */\n      tag_81\n      jump\t// in\n    tag_152:\n        /* \"#utility.yul\":2726:2855   */\n      swap2\n      swap1\n      pop\n      jump\t// out\n        /* \"#utility.yul\":2861:3169   */\n    tag_83:\n        /* \"#utility.yul\":2923:2927   */\n      0x00\n        /* \"#utility.yul\":3013:3031   */\n      0xffffffffffffffff\n        /* \"#utility.yul\":3005:3011   */\n      dup3\n        /* \"#utility.yul\":3002:3032   */\n      gt\n        /* \"#utility.yul\":2999:3055   */\n      iszero\n      tag_154\n      jumpi\n        /* \"#utility.yul\":3035:3053   */\n      tag_155\n      tag_80\n      jump\t// in\n    tag_155:\n        /* \"#utility.yul\":2999:3055   */\n    tag_154:\n        /* \"#utility.yul\":3073:3102   */\n      tag_156\n        /* \"#utility.yul\":3095:3101   */\n      dup3\n        /* \"#utility.yul\":3073:3102   */\n      tag_79\n      jump\t// in\n    tag_156:\n        /* \"#utility.yul\":3065:3102   */\n      swap1\n      pop\n        /* \"#utility.yul\":3157:3161   */\n      0x20\n        /* \"#utility.yul\":3151:3155   */\n      dup2\n        /* \"#utility.yul\":3147:3162   */\n      add\n        /* \"#utility.yul\":3139:3162   */\n      swap1\n      pop\n        /* \"#utility.yul\":2861:3169   */\n      swap2\n      swap1\n      pop\n      jump\t// out\n        /* \"#utility.yul\":3175:3323   */\n    tag_84:\n        /* \"#utility.yul\":3273:3279   */\n      dup3\n        /* \"#utility.yul\":3268:3271   */\n      dup2\n        /* \"#utility.yul\":3263:3266   */\n      dup4\n        /* \"#utility.yul\":3250:3280   */\n      calldatacopy\n        /* \"#utility.yul\":3314:3315   */\n      0x00\n        /* \"#utility.yul\":3305:3311   */\n      dup4\n        /* \"#utility.yul\":3300:3303   */\n      dup4\n        /* \"#utility.yul\":3296:3312   */\n      add\n        /* \"#utility.yul\":3289:3316   */\n      mstore\n        /* \"#utility.yul\":3175:3323   */\n      pop\n      pop\n      pop\n      jump\t// out\n        /* \"#utility.yul\":3329:3754   */\n    tag_85:\n        /* \"#utility.yul\":3407:3412   */\n      0x00\n        /* \"#utility.yul\":3432:3498   */\n      tag_159\n        /* \"#utility.yul\":3448:3497   */\n      tag_160\n        /* \"#utility.yul\":3490:3496   */\n      dup5\n        /* \"#utility.yul\":3448:3497   */\n      tag_83\n      jump\t// in\n    tag_160:\n        /* \"#utility.yul\":3432:3498   */\n      tag_82\n      jump\t// in\n    tag_159:\n        /* \"#utility.yul\":3423:3498   */\n      swap1\n      pop\n        /* \"#utility.yul\":3521:3527   */\n      dup3\n        /* \"#utility.yul\":3514:3519   */\n      dup2\n        /* \"#utility.yul\":3507:3528   */\n      mstore\n        /* \"#utility.yul\":3559:3563   */\n      0x20\n        /* \"#utility.yul\":3552:3557   */\n      dup2\n        /* \"#utility.yul\":3548:3564   */\n      add\n        /* \"#utility.yul\":3597:3600   */\n      dup5\n        /* \"#utility.yul\":3588:3594   */\n      dup5\n        /* \"#utility.yul\":3583:3586   */\n      dup5\n        /* \"#utility.yul\":3579:3595   */\n      add\n        /* \"#utility.yul\":3576:3601   */\n      gt\n        /* \"#utility.yul\":3573:3685   */\n      iszero\n      tag_161\n      jumpi\n        /* \"#utility.yul\":3604:3683   */\n      tag_162\n      tag_78\n      jump\t// in\n    tag_162:\n        /* \"#utility.yul\":3573:3685   */\n    tag_161:\n        /* \"#utility.yul\":3694:3748   */\n      tag_163\n        /* \"#utility.yul\":3741:3747   */\n      dup5\n        /* \"#utility.yul\":3736:3739   */\n      dup3\n        /* \"#utility.yul\":3731:3734   */\n      dup6\n        /* \"#utility.yul\":3694:3748   */\n      tag_84\n      jump\t// in\n    tag_163:\n        /* \"#utility.yul\":3413:3754   */\n      pop\n        /* \"#utility.yul\":3329:3754   */\n      swap4\n      swap3\n      pop\n      pop\n      pop\n      jump\t// out\n        /* \"#utility.yul\":3774:4114   */\n    tag_86:\n        /* \"#utility.yul\":3830:3835   */\n      0x00\n        /* \"#utility.yul\":3879:3882   */\n      dup3\n        /* \"#utility.yul\":3872:3876   */\n      0x1f\n        /* \"#utility.yul\":3864:3870   */\n      dup4\n        /* \"#utility.yul\":3860:3877   */\n      add\n        /* \"#utility.yul\":3856:3883   */\n      slt\n        /* \"#utility.yul\":3846:3968   */\n      tag_165\n      jumpi\n        /* \"#utility.yul\":3887:3966   */\n      tag_166\n      tag_77\n      jump\t// in\n    tag_166:\n        /* \"#utility.yul\":3846:3968   */\n    tag_165:\n        /* \"#utility.yul\":4004:4010   */\n      dup2\n        /* \"#utility.yul\":3991:4011   */\n      calldataload\n        /* \"#utility.yul\":4029:4108   */\n      tag_167\n        /* \"#utility.yul\":4104:4107   */\n      dup5\n        /* \"#utility.yul\":4096:4102   */\n      dup3\n        /* \"#utility.yul\":4089:4093   */\n      0x20\n        /* \"#utility.yul\":4081:4087   */\n      dup7\n        /* \"#utility.yul\":4077:4094   */\n      add\n        /* \"#utility.yul\":4029:4108   */\n      tag_85\n      jump\t// in\n    tag_167:\n        /* \"#utility.yul\":4020:4108   */\n      swap2\n      pop\n        /* \"#utility.yul\":3836:4114   */\n      pop\n        /* \"#utility.yul\":3774:4114   */\n      swap3\n      swap2\n      pop\n      pop\n      jump\t// out\n        /* \"#utility.yul\":4120:4915   */\n    tag_23:\n        /* \"#utility.yul\":4205:4211   */\n      0x00\n        /* \"#utility.yul\":4213:4219   */\n      dup1\n        /* \"#utility.yul\":4221:4227   */\n      0x00\n        /* \"#utility.yul\":4270:4272   */\n      0x60\n        /* \"#utility.yul\":4258:4267   */\n      dup5\n        /* \"#utility.yul\":4249:4256   */\n      dup7\n        /* \"#utility.yul\":4245:4268   */\n      sub\n        /* \"#utility.yul\":4241:4273   */\n      slt\n        /* \"#utility.yul\":4238:4357   */\n      iszero\n      tag_169\n      jumpi\n        /* \"#utility.yul\":4276:4355   */\n      tag_170\n      tag_70\n      jump\t// in\n    tag_170:\n        /* \"#utility.yul\":4238:4357   */\n    tag_169:\n        /* \"#utility.yul\":4396:4397   */\n      0x00\n        /* \"#utility.yul\":4421:4474   */\n      tag_171\n        /* \"#utility.yul\":4466:4473   */\n      dup7\n        /* \"#utility.yul\":4457:4463   */\n      dup3\n        /* \"#utility.yul\":4446:4455   */\n      dup8\n        /* \"#utility.yul\":4442:4464   */\n      add\n        /* \"#utility.yul\":4421:4474   */\n      tag_73\n      jump\t// in\n    tag_171:\n        /* \"#utility.yul\":4411:4474   */\n      swap4\n      pop\n        /* \"#utility.yul\":4367:4484   */\n      pop\n        /* \"#utility.yul\":4523:4525   */\n      0x20\n        /* \"#utility.yul\":4549:4600   */\n      tag_172\n        /* \"#utility.yul\":4592:4599   */\n      dup7\n        /* \"#utility.yul\":4583:4589   */\n      dup3\n        /* \"#utility.yul\":4572:4581   */\n      dup8\n        /* \"#utility.yul\":4568:4590   */\n      add\n        /* \"#utility.yul\":4549:4600   */\n      tag_76\n      jump\t// in\n    tag_172:\n        /* \"#utility.yul\":4539:4600   */\n      swap3\n      pop\n        /* \"#utility.yul\":4494:4610   */\n      pop\n        /* \"#utility.yul\":4677:4679   */\n      0x40\n        /* \"#utility.yul\":4666:4675   */\n      dup5\n        /* \"#utility.yul\":4662:4680   */\n      add\n        /* \"#utility.yul\":4649:4681   */\n      calldataload\n        /* \"#utility.yul\":4708:4726   */\n      0xffffffffffffffff\n        /* \"#utility.yul\":4700:4706   */\n      dup2\n        /* \"#utility.yul\":4697:4727   */\n      gt\n        /* \"#utility.yul\":4694:4811   */\n      iszero\n      tag_173\n      jumpi\n        /* \"#utility.yul\":4730:4809   */\n      tag_174\n      tag_71\n      jump\t// in\n    tag_174:\n        /* \"#utility.yul\":4694:4811   */\n    tag_173:\n        /* \"#utility.yul\":4835:4898   */\n      tag_175\n        /* \"#utility.yul\":4890:4897   */\n      dup7\n        /* \"#utility.yul\":4881:4887   */\n      dup3\n        /* \"#utility.yul\":4870:4879   */\n      dup8\n        /* \"#utility.yul\":4866:4888   */\n      add\n        /* \"#utility.yul\":4835:4898   */\n      tag_86\n      jump\t// in\n    tag_175:\n        /* \"#utility.yul\":4825:4898   */\n      swap2\n      pop\n        /* \"#utility.yul\":4620:4908   */\n      pop\n        /* \"#utility.yul\":4120:4915   */\n      swap3\n      pop\n      swap3\n      pop\n      swap3\n      jump\t// out\n        /* \"#utility.yul\":4921:5033   */\n    tag_87:\n        /* \"#utility.yul\":5004:5026   */\n      tag_177\n        /* \"#utility.yul\":5020:5025   */\n      dup2\n        /* \"#utility.yul\":5004:5026   */\n      tag_74\n      jump\t// in\n    tag_177:\n        /* \"#utility.yul\":4999:5002   */\n      dup3\n        /* \"#utility.yul\":4992:5027   */\n      mstore\n        /* \"#utility.yul\":4921:5033   */\n      pop\n      pop\n      jump\t// out\n        /* \"#utility.yul\":5039:5253   */\n    tag_33:\n        /* \"#utility.yul\":5128:5132   */\n      0x00\n        /* \"#utility.yul\":5166:5168   */\n      0x20\n        /* \"#utility.yul\":5155:5164   */\n      dup3\n        /* \"#utility.yul\":5151:5169   */\n      add\n        /* \"#utility.yul\":5143:5169   */\n      swap1\n      pop\n        /* \"#utility.yul\":5179:5246   */\n      tag_179\n        /* \"#utility.yul\":5243:5244   */\n      0x00\n        /* \"#utility.yul\":5232:5241   */\n      dup4\n        /* \"#utility.yul\":5228:5245   */\n      add\n        /* \"#utility.yul\":5219:5225   */\n      dup5\n        /* \"#utility.yul\":5179:5246   */\n      tag_87\n      jump\t// in\n    tag_179:\n        /* \"#utility.yul\":5039:5253   */\n      swap3\n      swap2\n      pop\n      pop\n      jump\t// out\n        /* \"#utility.yul\":5259:5385   */\n    tag_88:\n        /* \"#utility.yul\":5296:5303   */\n      0x00\n        /* \"#utility.yul\":5336:5378   */\n      0xffffffffffffffffffffffffffffffffffffffff\n        /* \"#utility.yul\":5329:5334   */\n      dup3\n        /* \"#utility.yul\":5325:5379   */\n      and\n        /* \"#utility.yul\":5314:5379   */\n      swap1\n      pop\n        /* \"#utility.yul\":5259:5385   */\n      swap2\n      swap1\n      pop\n      jump\t// out\n        /* \"#utility.yul\":5391:5487   */\n    tag_89:\n        /* \"#utility.yul\":5428:5435   */\n      0x00\n        /* \"#utility.yul\":5457:5481   */\n      tag_182\n        /* \"#utility.yul\":5475:5480   */\n      dup3\n        /* \"#utility.yul\":5457:5481   */\n      tag_88\n      jump\t// in\n    tag_182:\n        /* \"#utility.yul\":5446:5481   */\n      swap1\n      pop\n        /* \"#utility.yul\":5391:5487   */\n      swap2\n      swap1\n      pop\n      jump\t// out\n        /* \"#utility.yul\":5493:5611   */\n    tag_90:\n        /* \"#utility.yul\":5580:5604   */\n      tag_184\n        /* \"#utility.yul\":5598:5603   */\n      dup2\n        /* \"#utility.yul\":5580:5604   */\n      tag_89\n      jump\t// in\n    tag_184:\n        /* \"#utility.yul\":5575:5578   */\n      dup3\n        /* \"#utility.yul\":5568:5605   */\n      mstore\n        /* \"#utility.yul\":5493:5611   */\n      pop\n      pop\n      jump\t// out\n        /* \"#utility.yul\":5617:5839   */\n    tag_38:\n        /* \"#utility.yul\":5710:5714   */\n      0x00\n        /* \"#utility.yul\":5748:5750   */\n      0x20\n        /* \"#utility.yul\":5737:5746   */\n      dup3\n        /* \"#utility.yul\":5733:5751   */\n      add\n        /* \"#utility.yul\":5725:5751   */\n      swap1\n      pop\n        /* \"#utility.yul\":5761:5832   */\n      tag_186\n        /* \"#utility.yul\":5829:5830   */\n      0x00\n        /* \"#utility.yul\":5818:5827   */\n      dup4\n        /* \"#utility.yul\":5814:5831   */\n      add\n        /* \"#utility.yul\":5805:5811   */\n      dup5\n        /* \"#utility.yul\":5761:5832   */\n      tag_90\n      jump\t// in\n    tag_186:\n        /* \"#utility.yul\":5617:5839   */\n      swap3\n      swap2\n      pop\n      pop\n      jump\t// out\n        /* \"#utility.yul\":5845:5943   */\n    tag_91:\n        /* \"#utility.yul\":5896:5902   */\n      0x00\n        /* \"#utility.yul\":5930:5935   */\n      dup2\n        /* \"#utility.yul\":5924:5936   */\n      mload\n        /* \"#utility.yul\":5914:5936   */\n      swap1\n      pop\n        /* \"#utility.yul\":5845:5943   */\n      swap2\n      swap1\n      pop\n      jump\t// out\n        /* \"#utility.yul\":5949:6117   */\n    tag_92:\n        /* \"#utility.yul\":6032:6043   */\n      0x00\n        /* \"#utility.yul\":6066:6072   */\n      dup3\n        /* \"#utility.yul\":6061:6064   */\n      dup3\n        /* \"#utility.yul\":6054:6073   */\n      mstore\n        /* \"#utility.yul\":6106:6110   */\n      0x20\n        /* \"#utility.yul\":6101:6104   */\n      dup3\n        /* \"#utility.yul\":6097:6111   */\n      add\n        /* \"#utility.yul\":6082:6111   */\n      swap1\n      pop\n        /* \"#utility.yul\":5949:6117   */\n      swap3\n      swap2\n      pop\n      pop\n      jump\t// out\n        /* \"#utility.yul\":6123:6262   */\n    tag_93:\n        /* \"#utility.yul\":6212:6218   */\n      dup3\n        /* \"#utility.yul\":6207:6210   */\n      dup2\n        /* \"#utility.yul\":6202:6205   */\n      dup4\n        /* \"#utility.yul\":6196:6219   */\n      mcopy\n        /* \"#utility.yul\":6253:6254   */\n      0x00\n        /* \"#utility.yul\":6244:6250   */\n      dup4\n        /* \"#utility.yul\":6239:6242   */\n      dup4\n        /* \"#utility.yul\":6235:6251   */\n      add\n        /* \"#utility.yul\":6228:6255   */\n      mstore\n        /* \"#utility.yul\":6123:6262   */\n      pop\n      pop\n      pop\n      jump\t// out\n        /* \"#utility.yul\":6268:6641   */\n    tag_94:\n        /* \"#utility.yul\":6354:6357   */\n      0x00\n        /* \"#utility.yul\":6382:6420   */\n      tag_191\n        /* \"#utility.yul\":6414:6419   */\n      dup3\n        /* \"#utility.yul\":6382:6420   */\n      tag_91\n      jump\t// in\n    tag_191:\n        /* \"#utility.yul\":6436:6506   */\n      tag_192\n        /* \"#utility.yul\":6499:6505   */\n      dup2\n        /* \"#utility.yul\":6494:6497   */\n      dup6\n        /* \"#utility.yul\":6436:6506   */\n      tag_92\n      jump\t// in\n    tag_192:\n        /* \"#utility.yul\":6429:6506   */\n      swap4\n      pop\n        /* \"#utility.yul\":6515:6580   */\n      tag_193\n        /* \"#utility.yul\":6573:6579   */\n      dup2\n        /* \"#utility.yul\":6568:6571   */\n      dup6\n        /* \"#utility.yul\":6561:6565   */\n      0x20\n        /* \"#utility.yul\":6554:6559   */\n      dup7\n        /* \"#utility.yul\":6550:6566   */\n      add\n        /* \"#utility.yul\":6515:6580   */\n      tag_93\n      jump\t// in\n    tag_193:\n        /* \"#utility.yul\":6605:6634   */\n      tag_194\n        /* \"#utility.yul\":6627:6633   */\n      dup2\n        /* \"#utility.yul\":6605:6634   */\n      tag_79\n      jump\t// in\n    tag_194:\n        /* \"#utility.yul\":6600:6603   */\n      dup5\n        /* \"#utility.yul\":6596:6635   */\n      add\n        /* \"#utility.yul\":6589:6635   */\n      swap2\n      pop\n        /* \"#utility.yul\":6358:6641   */\n      pop\n        /* \"#utility.yul\":6268:6641   */\n      swap3\n      swap2\n      pop\n      pop\n      jump\t// out\n        /* \"#utility.yul\":6647:6956   */\n    tag_43:\n        /* \"#utility.yul\":6758:6762   */\n      0x00\n        /* \"#utility.yul\":6796:6798   */\n      0x20\n        /* \"#utility.yul\":6785:6794   */\n      dup3\n        /* \"#utility.yul\":6781:6799   */\n      add\n        /* \"#utility.yul\":6773:6799   */\n      swap1\n      pop\n        /* \"#utility.yul\":6845:6854   */\n      dup2\n        /* \"#utility.yul\":6839:6843   */\n      dup2\n        /* \"#utility.yul\":6835:6855   */\n      sub\n        /* \"#utility.yul\":6831:6832   */\n      0x00\n        /* \"#utility.yul\":6820:6829   */\n      dup4\n        /* \"#utility.yul\":6816:6833   */\n      add\n        /* \"#utility.yul\":6809:6856   */\n      mstore\n        /* \"#utility.yul\":6873:6949   */\n      tag_196\n        /* \"#utility.yul\":6944:6948   */\n      dup2\n        /* \"#utility.yul\":6935:6941   */\n      dup5\n        /* \"#utility.yul\":6873:6949   */\n      tag_94\n      jump\t// in\n    tag_196:\n        /* \"#utility.yul\":6865:6949   */\n      swap1\n      pop\n        /* \"#utility.yul\":6647:6956   */\n      swap3\n      swap2\n      pop\n      pop\n      jump\t// out\n        /* \"#utility.yul\":6962:7061   */\n    tag_95:\n        /* \"#utility.yul\":7014:7020   */\n      0x00\n        /* \"#utility.yul\":7048:7053   */\n      dup2\n        /* \"#utility.yul\":7042:7054   */\n      mload\n        /* \"#utility.yul\":7032:7054   */\n      swap1\n      pop\n        /* \"#utility.yul\":6962:7061   */\n      swap2\n      swap1\n      pop\n      jump\t// out\n        /* \"#utility.yul\":7067:7236   */\n    tag_96:\n        /* \"#utility.yul\":7151:7162   */\n      0x00\n        /* \"#utility.yul\":7185:7191   */\n      dup3\n        /* \"#utility.yul\":7180:7183   */\n      dup3\n        /* \"#utility.yul\":7173:7192   */\n      mstore\n        /* \"#utility.yul\":7225:7229   */\n      0x20\n        /* \"#utility.yul\":7220:7223   */\n      dup3\n        /* \"#utility.yul\":7216:7230   */\n      add\n        /* \"#utility.yul\":7201:7230   */\n      swap1\n      pop\n        /* \"#utility.yul\":7067:7236   */\n      swap3\n      swap2\n      pop\n      pop\n      jump\t// out\n        /* \"#utility.yul\":7242:7619   */\n    tag_97:\n        /* \"#utility.yul\":7330:7333   */\n      0x00\n        /* \"#utility.yul\":7358:7397   */\n      tag_200\n        /* \"#utility.yul\":7391:7396   */\n      dup3\n        /* \"#utility.yul\":7358:7397   */\n      tag_95\n      jump\t// in\n    tag_200:\n        /* \"#utility.yul\":7413:7484   */\n      tag_201\n        /* \"#utility.yul\":7477:7483   */\n      dup2\n        /* \"#utility.yul\":7472:7475   */\n      dup6\n        /* \"#utility.yul\":7413:7484   */\n      tag_96\n      jump\t// in\n    tag_201:\n        /* \"#utility.yul\":7406:7484   */\n      swap4\n      pop\n        /* \"#utility.yul\":7493:7558   */\n      tag_202\n        /* \"#utility.yul\":7551:7557   */\n      dup2\n        /* \"#utility.yul\":7546:7549   */\n      dup6\n        /* \"#utility.yul\":7539:7543   */\n      0x20\n        /* \"#utility.yul\":7532:7537   */\n      dup7\n        /* \"#utility.yul\":7528:7544   */\n      add\n        /* \"#utility.yul\":7493:7558   */\n      tag_93\n      jump\t// in\n    tag_202:\n        /* \"#utility.yul\":7583:7612   */\n      tag_203\n        /* \"#utility.yul\":7605:7611   */\n      dup2\n        /* \"#utility.yul\":7583:7612   */\n      tag_79\n      jump\t// in\n    tag_203:\n        /* \"#utility.yul\":7578:7581   */\n      dup5\n        /* \"#utility.yul\":7574:7613   */\n      add\n        /* \"#utility.yul\":7567:7613   */\n      swap2\n      pop\n        /* \"#utility.yul\":7334:7619   */\n      pop\n        /* \"#utility.yul\":7242:7619   */\n      swap3\n      swap2\n      pop\n      pop\n      jump\t// out\n        /* \"#utility.yul\":7625:7938   */\n    tag_48:\n        /* \"#utility.yul\":7738:7742   */\n      0x00\n        /* \"#utility.yul\":7776:7778   */\n      0x20\n        /* \"#utility.yul\":7765:7774   */\n      dup3\n        /* \"#utility.yul\":7761:7779   */\n      add\n        /* \"#utility.yul\":7753:7779   */\n      swap1\n      pop\n        /* \"#utility.yul\":7825:7834   */\n      dup2\n        /* \"#utility.yul\":7819:7823   */\n      dup2\n        /* \"#utility.yul\":7815:7835   */\n      sub\n        /* \"#utility.yul\":7811:7812   */\n      0x00\n        /* \"#utility.yul\":7800:7809   */\n      dup4\n        /* \"#utility.yul\":7796:7813   */\n      add\n        /* \"#utility.yul\":7789:7836   */\n      mstore\n        /* \"#utility.yul\":7853:7931   */\n      tag_205\n        /* \"#utility.yul\":7926:7930   */\n      dup2\n        /* \"#utility.yul\":7917:7923   */\n      dup5\n        /* \"#utility.yul\":7853:7931   */\n      tag_97\n      jump\t// in\n    tag_205:\n        /* \"#utility.yul\":7845:7931   */\n      swap1\n      pop\n        /* \"#utility.yul\":7625:7938   */\n      swap3\n      swap2\n      pop\n      pop\n      jump\t// out\n        /* \"#utility.yul\":7944:8124   */\n    tag_98:\n        /* \"#utility.yul\":7992:8069   */\n      0x4e487b7100000000000000000000000000000000000000000000000000000000\n        /* \"#utility.yul\":7989:7990   */\n      0x00\n        /* \"#utility.yul\":7982:8070   */\n      mstore\n        /* \"#utility.yul\":8089:8093   */\n      0x22\n        /* \"#utility.yul\":8086:8087   */\n      0x04\n        /* \"#utility.yul\":8079:8094   */\n      mstore\n        /* \"#utility.yul\":8113:8117   */\n      0x24\n        /* \"#utility.yul\":8110:8111   */\n      0x00\n        /* \"#utility.yul\":8103:8118   */\n      revert\n        /* \"#utility.yul\":8130:8450   */\n    tag_55:\n        /* \"#utility.yul\":8174:8180   */\n      0x00\n        /* \"#utility.yul\":8211:8212   */\n      0x02\n        /* \"#utility.yul\":8205:8209   */\n      dup3\n        /* \"#utility.yul\":8201:8213   */\n      div\n        /* \"#utility.yul\":8191:8213   */\n      swap1\n      pop\n        /* \"#utility.yul\":8258:8259   */\n      0x01\n        /* \"#utility.yul\":8252:8256   */\n      dup3\n        /* \"#utility.yul\":8248:8260   */\n      and\n        /* \"#utility.yul\":8279:8297   */\n      dup1\n        /* \"#utility.yul\":8269:8350   */\n      tag_208\n      jumpi\n        /* \"#utility.yul\":8335:8339   */\n      0x7f\n        /* \"#utility.yul\":8327:8333   */\n      dup3\n        /* \"#utility.yul\":8323:8340   */\n      and\n        /* \"#utility.yul\":8313:8340   */\n      swap2\n      pop\n        /* \"#utility.yul\":8269:8350   */\n    tag_208:\n        /* \"#utility.yul\":8397:8399   */\n      0x20\n        /* \"#utility.yul\":8389:8395   */\n      dup3\n        /* \"#utility.yul\":8386:8400   */\n      lt\n        /* \"#utility.yul\":8366:8384   */\n      dup2\n        /* \"#utility.yul\":8363:8401   */\n      sub\n        /* \"#utility.yul\":8360:8444   */\n      tag_209\n      jumpi\n        /* \"#utility.yul\":8416:8434   */\n      tag_210\n      tag_98\n      jump\t// in\n    tag_210:\n        /* \"#utility.yul\":8360:8444   */\n    tag_209:\n        /* \"#utility.yul\":8181:8450   */\n      pop\n        /* \"#utility.yul\":8130:8450   */\n      swap2\n      swap1\n      pop\n      jump\t// out\n        /* \"#utility.yul\":8456:8597   */\n    tag_99:\n        /* \"#utility.yul\":8505:8509   */\n      0x00\n        /* \"#utility.yul\":8528:8531   */\n      dup2\n        /* \"#utility.yul\":8520:8531   */\n      swap1\n      pop\n        /* \"#utility.yul\":8551:8554   */\n      dup2\n        /* \"#utility.yul\":8548:8549   */\n      0x00\n        /* \"#utility.yul\":8541:8555   */\n      mstore\n        /* \"#utility.yul\":8585:8589   */\n      0x20\n        /* \"#utility.yul\":8582:8583   */\n      0x00\n        /* \"#utility.yul\":8572:8590   */\n      keccak256\n        /* \"#utility.yul\":8564:8590   */\n      swap1\n      pop\n        /* \"#utility.yul\":8456:8597   */\n      swap2\n      swap1\n      pop\n      jump\t// out\n        /* \"#utility.yul\":8603:8696   */\n    tag_100:\n        /* \"#utility.yul\":8640:8646   */\n      0x00\n        /* \"#utility.yul\":8687:8689   */\n      0x20\n        /* \"#utility.yul\":8682:8684   */\n      0x1f\n        /* \"#utility.yul\":8675:8680   */\n      dup4\n        /* \"#utility.yul\":8671:8685   */\n      add\n        /* \"#utility.yul\":8667:8690   */\n      div\n        /* \"#utility.yul\":8657:8690   */\n      swap1\n      pop\n        /* \"#utility.yul\":8603:8696   */\n      swap2\n      swap1\n      pop\n      jump\t// out\n        /* \"#utility.yul\":8702:8809   */\n    tag_101:\n        /* \"#utility.yul\":8746:8754   */\n      0x00\n        /* \"#utility.yul\":8796:8801   */\n      dup3\n        /* \"#utility.yul\":8790:8794   */\n      dup3\n        /* \"#utility.yul\":8786:8802   */\n      shl\n        /* \"#utility.yul\":8765:8802   */\n      swap1\n      pop\n        /* \"#utility.yul\":8702:8809   */\n      swap3\n      swap2\n      pop\n      pop\n      jump\t// out\n        /* \"#utility.yul\":8815:9208   */\n    tag_102:\n        /* \"#utility.yul\":8884:8890   */\n      0x00\n        /* \"#utility.yul\":8934:8935   */\n      0x08\n        /* \"#utility.yul\":8922:8932   */\n      dup4\n        /* \"#utility.yul\":8918:8936   */\n      mul\n        /* \"#utility.yul\":8957:9054   */\n      tag_215\n        /* \"#utility.yul\":8987:9053   */\n      0xffffffffffffffffffffffffffffffffffffffffffffffffffffffffffffffff\n        /* \"#utility.yul\":8976:8985   */\n      dup3\n        /* \"#utility.yul\":8957:9054   */\n      tag_101\n      jump\t// in\n    tag_215:\n        /* \"#utility.yul\":9075:9114   */\n      tag_216\n        /* \"#utility.yul\":9105:9113   */\n      dup7\n        /* \"#utility.yul\":9094:9103   */\n      dup4\n        /* \"#utility.yul\":9075:9114   */\n      tag_101\n      jump\t// in\n    tag_216:\n        /* \"#utility.yul\":9063:9114   */\n      swap6\n      pop\n        /* \"#utility.yul\":9147:9151   */\n      dup1\n        /* \"#utility.yul\":9143:9152   */\n      not\n        /* \"#utility.yul\":9136:9141   */\n      dup5\n        /* \"#utility.yul\":9132:9153   */\n      and\n        /* \"#utility.yul\":9123:9153   */\n      swap4\n      pop\n        /* \"#utility.yul\":9196:9200   */\n      dup1\n        /* \"#utility.yul\":9186:9194   */\n      dup7\n        /* \"#utility.yul\":9182:9201   */\n      and\n        /* \"#utility.yul\":9175:9180   */\n      dup5\n        /* \"#utility.yul\":9172:9202   */\n      or\n        /* \"#utility.yul\":9162:9202   */\n      swap3\n      pop\n        /* \"#utility.yul\":8891:9208   */\n      pop\n      pop\n        /* \"#utility.yul\":8815:9208   */\n      swap4\n      swap3\n      pop\n      pop\n      pop\n      jump\t// out\n        /* \"#utility.yul\":9214:9274   */\n    tag_103:\n        /* \"#utility.yul\":9242:9245   */\n      0x00\n        /* \"#utility.yul\":9263:9268   */\n      dup2\n        /* \"#utility.yul\":9256:9268   */\n      swap1\n      pop\n        /* \"#utility.yul\":9214:9274   */\n      swap2\n      swap1\n      pop\n      jump\t// out\n        /* \"#utility.yul\":9280:9422   */\n    tag_104:\n        /* \"#utility.yul\":9330:9339   */\n      0x00\n        /* \"#utility.yul\":9363:9416   */\n      tag_219\n        /* \"#utility.yul\":9381:9415   */\n      tag_220\n        /* \"#utility.yul\":9390:9414   */\n      tag_221\n        /* \"#utility.yul\":9408:9413   */\n      dup5\n        /* \"#utility.yul\":9390:9414   */\n      tag_67\n      jump\t// in\n    tag_221:\n        /* \"#utility.yul\":9381:9415   */\n      tag_103\n      jump\t// in\n    tag_220:\n        /* \"#utility.yul\":9363:9416   */\n      tag_67\n      jump\t// in\n    tag_219:\n        /* \"#utility.yul\":9350:9416   */\n      swap1\n      pop\n        /* \"#utility.yul\":9280:9422   */\n      swap2\n      swap1\n      pop\n      jump\t// out\n        /* \"#utility.yul\":9428:9503   */\n    tag_105:\n        /* \"#utility.yul\":9471:9474   */\n      0x00\n        /* \"#utility.yul\":9492:9497   */\n      dup2\n        /* \"#utility.yul\":9485:9497   */\n      swap1\n      pop\n        /* \"#utility.yul\":9428:9503   */\n      swap2\n      swap1\n      pop\n      jump\t// out\n        /* \"#utility.yul\":9509:9778   */\n    tag_106:\n        /* \"#utility.yul\":9619:9658   */\n      tag_224\n        /* \"#utility.yul\":9650:9657   */\n      dup4\n        /* \"#utility.yul\":9619:9658   */\n      tag_104\n      jump\t// in\n    tag_224:\n        /* \"#utility.yul\":9680:9771   */\n      tag_225\n        /* \"#utility.yul\":9729:9770   */\n      tag_226\n        /* \"#utility.yul\":9753:9769   */\n      dup3\n        /* \"#utility.yul\":9729:9770   */\n      tag_105\n      jump\t// in\n    tag_226:\n        /* \"#utility.yul\":9721:9727   */\n      dup5\n        /* \"#utility.yul\":9714:9718   */\n      dup5\n        /* \"#utility.yul\":9708:9719   */\n      sload\n        /* \"#utility.yul\":9680:9771   */\n      tag_102\n      jump\t// in\n    tag_225:\n        /* \"#utility.yul\":9674:9678   */\n      dup3\n        /* \"#utility.yul\":9667:9772   */\n      sstore\n        /* \"#utility.yul\":9585:9778   */\n      pop\n        /* \"#utility.yul\":9509:9778   */\n      pop\n      pop\n      pop\n      jump\t// out\n        /* \"#utility.yul\":9784:9857   */\n    tag_107:\n        /* \"#utility.yul\":9829:9832   */\n      0x00\n        /* \"#utility.yul\":9784:9857   */\n      swap1\n      jump\t// out\n        /* \"#utility.yul\":9863:10052   */\n    tag_108:\n        /* \"#utility.yul\":9940:9972   */\n      tag_229\n      tag_107\n      jump\t// in\n    tag_229:\n        /* \"#utility.yul\":9981:10046   */\n      tag_230\n        /* \"#utility.yul\":10039:10045   */\n      dup2\n        /* \"#utility.yul\":10031:10037   */\n      dup5\n        /* \"#utility.yul\":10025:10029   */\n      dup5\n        /* \"#utility.yul\":9981:10046   */\n      tag_106\n      jump\t// in\n    tag_230:\n        /* \"#utility.yul\":9916:10052   */\n      pop\n        /* \"#utility.yul\":9863:10052   */\n      pop\n      pop\n      jump\t// out\n        /* \"#utility.yul\":10058:10244   */\n    tag_109:\n        /* \"#utility.yul\":10118:10238   */\n    tag_232:\n        /* \"#utility.yul\":10135:10138   */\n      dup2\n        /* \"#utility.yul\":10128:10133   */\n      dup2\n        /* \"#utility.yul\":10125:10139   */\n      lt\n        /* \"#utility.yul\":10118:10238   */\n      iszero\n      tag_234\n      jumpi\n        /* \"#utility.yul\":10189:10228   */\n      tag_235\n        /* \"#utility.yul\":10226:10227   */\n      0x00\n        /* \"#utility.yul\":10219:10224   */\n      dup3\n        /* \"#utility.yul\":10189:10228   */\n      tag_108\n      jump\t// in\n    tag_235:\n        /* \"#utility.yul\":10162:10163   */\n      0x01\n        /* \"#utility.yul\":10155:10160   */\n      dup2\n        /* \"#utility.yul\":10151:10164   */\n      add\n        /* \"#utility.yul\":10142:10164   */\n      swap1\n      pop\n        /* \"#utility.yul\":10118:10238   */\n      jump(tag_232)\n    tag_234:\n        /* \"#utility.yul\":10058:10244   */\n      pop\n      pop\n      jump\t// out\n        /* \"#utility.yul\":10250:10793   */\n    tag_110:\n        /* \"#utility.yul\":10351:10353   */\n      0x1f\n        /* \"#utility.yul\":10346:10349   */\n      dup3\n        /* \"#utility.yul\":10343:10354   */\n      gt\n        /* \"#utility.yul\":10340:10786   */\n      iszero\n      tag_237\n      jumpi\n        /* \"#utility.yul\":10385:10423   */\n      tag_238\n        /* \"#utility.yul\":10417:10422   */\n      dup2\n        /* \"#utility.yul\":10385:10423   */\n      tag_99\n      jump\t// in\n    tag_238:\n        /* \"#utility.yul\":10469:10498   */\n      tag_239\n        /* \"#utility.yul\":10487:10497   */\n      dup5\n        /* \"#utility.yul\":10469:10498   */\n      tag_100\n      jump\t// in\n    tag_239:\n        /* \"#utility.yul\":10459:10467   */\n      dup2\n        /* \"#utility.yul\":10455:10499   */\n      add\n        /* \"#utility.yul\":10652:10654   */\n      0x20\n        /* \"#utility.yul\":10640:10650   */\n      dup6\n        /* \"#utility.yul\":10637:10655   */\n      lt\n        /* \"#utility.yul\":10634:10683   */\n      iszero\n      tag_240\n      jumpi\n        /* \"#utility.yul\":10673:10681   */\n      dup2\n        /* \"#utility.yul\":10658:10681   */\n      swap1\n      pop\n        /* \"#utility.yul\":10634:10683   */\n    tag_240:\n        /* \"#utility.yul\":10696:10776   */\n      tag_241\n        /* \"#utility.yul\":10752:10774   */\n      tag_242\n        /* \"#utility.yul\":10770:10773   */\n      dup6\n        /* \"#utility.yul\":10752:10774   */\n      tag_100\n      jump\t// in\n    tag_242:\n        /* \"#utility.yul\":10742:10750   */\n      dup4\n        /* \"#utility.yul\":10738:10775   */\n      add\n        /* \"#utility.yul\":10725:10736   */\n      dup3\n        /* \"#utility.yul\":10696:10776   */\n      tag_109\n      jump\t// in\n    tag_241:\n        /* \"#utility.yul\":10355:10786   */\n      pop\n      pop\n        /* \"#utility.yul\":10340:10786   */\n    tag_237:\n        /* \"#utility.yul\":10250:10793   */\n      pop\n      pop\n      pop\n      jump\t// out\n        /* \"#utility.yul\":10799:10916   */\n    tag_111:\n        /* \"#utility.yul\":10853:10861   */\n      0x00\n        /* \"#utility.yul\":10903:10908   */\n      dup3\n        /* \"#utility.yul\":10897:10901   */\n      dup3\n        /* \"#utility.yul\":10893:10909   */\n      shr\n        /* \"#utility.yul\":10872:10909   */\n      swap1\n      pop\n        /* \"#utility.yul\":10799:10916   */\n      swap3\n      swap2\n      pop\n      pop\n      jump\t// out\n        /* \"#utility.yul\":10922:11091   */\n    tag_112:\n        /* \"#utility.yul\":10966:10972   */\n      0x00\n        /* \"#utility.yul\":10999:11050   */\n      tag_245\n        /* \"#utility.yul\":11047:11048   */\n      0x00\n        /* \"#utility.yul\":11043:11049   */\n      not\n        /* \"#utility.yul\":11035:11040   */\n      dup5\n        /* \"#utility.yul\":11032:11033   */\n      0x08\n        /* \"#utility.yul\":11028:11041   */\n      mul\n        /* \"#utility.yul\":10999:11050   */\n      tag_111\n      jump\t// in\n    tag_245:\n        /* \"#utility.yul\":10995:11051   */\n      not\n        /* \"#utility.yul\":11080:11084   */\n      dup1\n        /* \"#utility.yul\":11074:11078   */\n      dup4\n        /* \"#utility.yul\":11070:11085   */\n      and\n        /* \"#utility.yul\":11060:11085   */\n      swap2\n      pop\n        /* \"#utility.yul\":10973:11091   */\n      pop\n        /* \"#utility.yul\":10922:11091   */\n      swap3\n      swap2\n      pop\n      pop\n      jump\t// out\n        /* \"#utility.yul\":11096:11391   */\n    tag_113:\n        /* \"#utility.yul\":11172:11176   */\n      0x00\n        /* \"#utility.yul\":11318:11347   */\n      tag_247\n        /* \"#utility.yul\":11343:11346   */\n      dup4\n        /* \"#utility.yul\":11337:11341   */\n      dup4\n        /* \"#utility.yul\":11318:11347   */\n      tag_112\n      jump\t// in\n    tag_247:\n        /* \"#utility.yul\":11310:11347   */\n      swap2\n      pop\n        /* \"#utility.yul\":11380:11383   */\n      dup3\n        /* \"#utility.yul\":11377:11378   */\n      0x02\n        /* \"#utility.yul\":11373:11384   */\n      mul\n        /* \"#utility.yul\":11367:11371   */\n      dup3\n        /* \"#utility.yul\":11364:11385   */\n      or\n        /* \"#utility.yul\":11356:11385   */\n      swap1\n      pop\n        /* \"#utility.yul\":11096:11391   */\n      swap3\n      swap2\n      pop\n      pop\n      jump\t// out\n        /* \"#utility.yul\":11396:12791   */\n    tag_51:\n        /* \"#utility.yul\":11513:11550   */\n      tag_249\n        /* \"#utility.yul\":11546:11549   */\n      dup3\n        /* \"#utility.yul\":11513:11550   */\n      tag_95\n      jump\t// in\n    tag_249:\n        /* \"#utility.yul\":11615:11633   */\n      0xffffffffffffffff\n        /* \"#utility.yul\":11607:11613   */\n      dup2\n        /* \"#utility.yul\":11604:11634   */\n      gt\n        /* \"#utility.yul\":11601:11657   */\n      iszero\n      tag_250\n      jumpi\n        /* \"#utility.yul\":11637:11655   */\n      tag_251\n      tag_80\n      jump\t// in\n    tag_251:\n        /* \"#utility.yul\":11601:11657   */\n    tag_250:\n        /* \"#utility.yul\":11681:11719   */\n      tag_252\n        /* \"#utility.yul\":11713:11717   */\n      dup3\n        /* \"#utility.yul\":11707:11718   */\n      sload\n        /* \"#utility.yul\":11681:11719   */\n      tag_55\n      jump\t// in\n    tag_252:\n        /* \"#utility.yul\":11766:11833   */\n      tag_253\n        /* \"#utility.yul\":11826:11832   */\n      dup3\n        /* \"#utility.yul\":11818:11824   */\n      dup3\n        /* \"#utility.yul\":11812:11816   */\n      dup6\n        /* \"#utility.yul\":11766:11833   */\n      tag_110\n      jump\t// in\n    tag_253:\n        /* \"#utility.yul\":11860:11861   */\n      0x00\n        /* \"#utility.yul\":11884:11888   */\n      0x20\n        /* \"#utility.yul\":11871:11888   */\n      swap1\n      pop\n        /* \"#utility.yul\":11916:11918   */\n      0x1f\n        /* \"#utility.yul\":11908:11914   */\n      dup4\n        /* \"#utility.yul\":11905:11919   */\n      gt\n        /* \"#utility.yul\":11933:11934   */\n      0x01\n        /* \"#utility.yul\":11928:12546   */\n      dup2\n      eq\n      tag_255\n      jumpi\n        /* \"#utility.yul\":12590:12591   */\n      0x00\n        /* \"#utility.yul\":12607:12613   */\n      dup5\n        /* \"#utility.yul\":12604:12681   */\n      iszero\n      tag_256\n      jumpi\n        /* \"#utility.yul\":12656:12665   */\n      dup3\n        /* \"#utility.yul\":12651:12654   */\n      dup8\n        /* \"#utility.yul\":12647:12666   */\n      add\n        /* \"#utility.yul\":12641:12667   */\n      mload\n        /* \"#utility.yul\":12632:12667   */\n      swap1\n      pop\n        /* \"#utility.yul\":12604:12681   */\n    tag_256:\n        /* \"#utility.yul\":12707:12774   */\n      tag_257\n        /* \"#utility.yul\":12767:12773   */\n      dup6\n        /* \"#utility.yul\":12760:12765   */\n      dup3\n        /* \"#utility.yul\":12707:12774   */\n      tag_113\n      jump\t// in\n    tag_257:\n        /* \"#utility.yul\":12701:12705   */\n      dup7\n        /* \"#utility.yul\":12694:12775   */\n      sstore\n        /* \"#utility.yul\":12563:12785   */\n      pop\n        /* \"#utility.yul\":11898:12785   */\n      jump(tag_254)\n        /* \"#utility.yul\":11928:12546   */\n    tag_255:\n        /* \"#utility.yul\":11980:11984   */\n      0x1f\n        /* \"#utility.yul\":11976:11985   */\n      not\n        /* \"#utility.yul\":11968:11974   */\n      dup5\n        /* \"#utility.yul\":11964:11986   */\n      and\n        /* \"#utility.yul\":12014:12051   */\n      tag_258\n        /* \"#utility.yul\":12046:12050   */\n      dup7\n        /* \"#utility.yul\":12014:12051   */\n      tag_99\n      jump\t// in\n    tag_258:\n        /* \"#utility.yul\":12073:12074   */\n      0x00\n        /* \"#utility.yul\":12087:12295   */\n    tag_259:\n        /* \"#utility.yul\":12101:12108   */\n      dup3\n        /* \"#utility.yul\":12098:12099   */\n      dup2\n        /* \"#utility.yul\":12095:12109   */\n      lt\n        /* \"#utility.yul\":12087:12295   */\n      iszero\n      tag_261\n      jumpi\n        /* \"#utility.yul\":12180:12189   */\n      dup5\n        /* \"#utility.yul\":12175:12178   */\n      dup10\n        /* \"#utility.yul\":12171:12190   */\n      add\n        /* \"#utility.yul\":12165:12191   */\n      mload\n        /* \"#utility.yul\":12157:12163   */\n      dup3\n        /* \"#utility.yul\":12150:12192   */\n      sstore\n        /* \"#utility.yul\":12231:12232   */\n      0x01\n        /* \"#utility.yul\":12223:12229   */\n      dup3\n        /* \"#utility.yul\":12219:12233   */\n      add\n        /* \"#utility.yul\":12209:12233   */\n      swap2\n      pop\n        /* \"#utility.yul\":12278:12280   */\n      0x20\n        /* \"#utility.yul\":12267:12276   */\n      dup6\n        /* \"#utility.yul\":12263:12281   */\n      add\n        /* \"#utility.yul\":12250:12281   */\n      swap5\n      pop\n        /* \"#utility.yul\":12124:12128   */\n      0x20\n        /* \"#utility.yul\":12121:12122   */\n      dup2\n        /* \"#utility.yul\":12117:12129   */\n      add\n        /* \"#utility.yul\":12112:12129   */\n      swap1\n      pop\n        /* \"#utility.yul\":12087:12295   */\n      jump(tag_259)\n    tag_261:\n        /* \"#utility.yul\":12323:12329   */\n      dup7\n        /* \"#utility.yul\":12314:12321   */\n      dup4\n        /* \"#utility.yul\":12311:12330   */\n      lt\n        /* \"#utility.yul\":12308:12487   */\n      iszero\n      tag_262\n      jumpi\n        /* \"#utility.yul\":12381:12390   */\n      dup5\n        /* \"#utility.yul\":12376:12379   */\n      dup10\n        /* \"#utility.yul\":12372:12391   */\n      add\n        /* \"#utility.yul\":12366:12392   */\n      mload\n        /* \"#utility.yul\":12424:12472   */\n      tag_263\n        /* \"#utility.yul\":12466:12470   */\n      0x1f\n        /* \"#utility.yul\":12458:12464   */\n      dup10\n        /* \"#utility.yul\":12454:12471   */\n      and\n        /* \"#utility.yul\":12443:12452   */\n      dup3\n        /* \"#utility.yul\":12424:12472   */\n      tag_112\n      jump\t// in\n    tag_263:\n        /* \"#utility.yul\":12416:12422   */\n      dup4\n        /* \"#utility.yul\":12409:12473   */\n      sstore\n        /* \"#utility.yul\":12331:12487   */\n      pop\n        /* \"#utility.yul\":12308:12487   */\n    tag_262:\n        /* \"#utility.yul\":12533:12534   */\n      0x01\n        /* \"#utility.yul\":12529:12530   */\n      0x02\n        /* \"#utility.yul\":12521:12527   */\n      dup9\n        /* \"#utility.yul\":12517:12531   */\n      mul\n        /* \"#utility.yul\":12513:12535   */\n      add\n        /* \"#utility.yul\":12507:12511   */\n      dup9\n        /* \"#utility.yul\":12500:12536   */\n      sstore\n        /* \"#utility.yul\":11935:12546   */\n      pop\n      pop\n      pop\n        /* \"#utility.yul\":11898:12785   */\n    tag_254:\n      pop\n        /* \"#utility.yul\":11488:12791   */\n      pop\n      pop\n      pop\n        /* \"#utility.yul\":11396:12791   */\n      pop\n      pop\n      jump\t// out\n        /* \"#utility.yul\":12797:12893   */\n    tag_114:\n        /* \"#utility.yul\":12855:12861   */\n      0x00\n        /* \"#utility.yul\":12883:12886   */\n      dup3\n        /* \"#utility.yul\":12873:12886   */\n      swap1\n      pop\n        /* \"#utility.yul\":12797:12893   */\n      swap3\n      swap2\n      pop\n      pop\n      jump\t// out\n        /* \"#utility.yul\":12899:13039   */\n    tag_115:\n        /* \"#utility.yul\":12947:12951   */\n      0x00\n        /* \"#utility.yul\":12970:12973   */\n      dup2\n        /* \"#utility.yul\":12962:12973   */\n      swap1\n      pop\n        /* \"#utility.yul\":12993:12996   */\n      dup2\n        /* \"#utility.yul\":12990:12991   */\n      0x00\n        /* \"#utility.yul\":12983:12997   */\n      mstore\n        /* \"#utility.yul\":13027:13031   */\n      0x20\n        /* \"#utility.yul\":13024:13025   */\n      0x00\n        /* \"#utility.yul\":13014:13032   */\n      keccak256\n        /* \"#utility.yul\":13006:13032   */\n      swap1\n      pop\n        /* \"#utility.yul\":12899:13039   */\n      swap2\n      swap1\n      pop\n      jump\t// out\n        /* \"#utility.yul\":13045:13586   */\n    tag_116:\n        /* \"#utility.yul\":13145:13147   */\n      0x1f\n        /* \"#utility.yul\":13140:13143   */\n      dup3\n        /* \"#utility.yul\":13137:13148   */\n      gt\n        /* \"#utility.yul\":13134:13579   */\n      iszero\n      tag_267\n      jumpi\n        /* \"#utility.yul\":13179:13216   */\n      tag_268\n        /* \"#utility.yul\":13210:13215   */\n      dup2\n        /* \"#utility.yul\":13179:13216   */\n      tag_115\n      jump\t// in\n    tag_268:\n        /* \"#utility.yul\":13262:13291   */\n      tag_269\n        /* \"#utility.yul\":13280:13290   */\n      dup5\n        /* \"#utility.yul\":13262:13291   */\n      tag_100\n      jump\t// in\n    tag_269:\n        /* \"#utility.yul\":13252:13260   */\n      dup2\n        /* \"#utility.yul\":13248:13292   */\n      add\n        /* \"#utility.yul\":13445:13447   */\n      0x20\n        /* \"#utility.yul\":13433:13443   */\n      dup6\n        /* \"#utility.yul\":13430:13448   */\n      lt\n        /* \"#utility.yul\":13427:13476   */\n      iszero\n      tag_270\n      jumpi\n        /* \"#utility.yul\":13466:13474   */\n      dup2\n        /* \"#utility.yul\":13451:13474   */\n      swap1\n      pop\n        /* \"#utility.yul\":13427:13476   */\n    tag_270:\n        /* \"#utility.yul\":13489:13569   */\n      tag_271\n        /* \"#utility.yul\":13545:13567   */\n      tag_272\n        /* \"#utility.yul\":13563:13566   */\n      dup6\n        /* \"#utility.yul\":13545:13567   */\n      tag_100\n      jump\t// in\n    tag_272:\n        /* \"#utility.yul\":13535:13543   */\n      dup4\n        /* \"#utility.yul\":13531:13568   */\n      add\n        /* \"#utility.yul\":13518:13529   */\n      dup3\n        /* \"#utility.yul\":13489:13569   */\n      tag_109\n      jump\t// in\n    tag_271:\n        /* \"#utility.yul\":13149:13579   */\n      pop\n      pop\n        /* \"#utility.yul\":13134:13579   */\n    tag_267:\n        /* \"#utility.yul\":13045:13586   */\n      pop\n      pop\n      pop\n      jump\t// out\n        /* \"#utility.yul\":13592:14990   */\n    tag_53:\n        /* \"#utility.yul\":13714:13757   */\n      tag_274\n        /* \"#utility.yul\":13753:13756   */\n      dup4\n        /* \"#utility.yul\":13748:13751   */\n      dup4\n        /* \"#utility.yul\":13714:13757   */\n      tag_114\n      jump\t// in\n    tag_274:\n        /* \"#utility.yul\":13822:13840   */\n      0xffffffffffffffff\n        /* \"#utility.yul\":13814:13820   */\n      dup2\n        /* \"#utility.yul\":13811:13841   */\n      gt\n        /* \"#utility.yul\":13808:13864   */\n      iszero\n      tag_275\n      jumpi\n        /* \"#utility.yul\":13844:13862   */\n      tag_276\n      tag_80\n      jump\t// in\n    tag_276:\n        /* \"#utility.yul\":13808:13864   */\n    tag_275:\n        /* \"#utility.yul\":13888:13926   */\n      tag_277\n        /* \"#utility.yul\":13920:13924   */\n      dup3\n        /* \"#utility.yul\":13914:13925   */\n      sload\n        /* \"#utility.yul\":13888:13926   */\n      tag_55\n      jump\t// in\n    tag_277:\n        /* \"#utility.yul\":13973:14039   */\n      tag_278\n        /* \"#utility.yul\":14032:14038   */\n      dup3\n        /* \"#utility.yul\":14024:14030   */\n      dup3\n        /* \"#utility.yul\":14018:14022   */\n      dup6\n        /* \"#utility.yul\":13973:14039   */\n      tag_116\n      jump\t// in\n    tag_278:\n        /* \"#utility.yul\":14066:14067   */\n      0x00\n        /* \"#utility.yul\":14095:14097   */\n      0x1f\n        /* \"#utility.yul\":14087:14093   */\n      dup4\n        /* \"#utility.yul\":14084:14098   */\n      gt\n        /* \"#utility.yul\":14112:14113   */\n      0x01\n        /* \"#utility.yul\":14107:14738   */\n      dup2\n      eq\n      tag_280\n      jumpi\n        /* \"#utility.yul\":14782:14783   */\n      0x00\n        /* \"#utility.yul\":14799:14805   */\n      dup5\n        /* \"#utility.yul\":14796:14880   */\n      iszero\n      tag_281\n      jumpi\n        /* \"#utility.yul\":14855:14864   */\n      dup3\n        /* \"#utility.yul\":14850:14853   */\n      dup8\n        /* \"#utility.yul\":14846:14865   */\n      add\n        /* \"#utility.yul\":14833:14866   */\n      calldataload\n        /* \"#utility.yul\":14824:14866   */\n      swap1\n      pop\n        /* \"#utility.yul\":14796:14880   */\n    tag_281:\n        /* \"#utility.yul\":14906:14973   */\n      tag_282\n        /* \"#utility.yul\":14966:14972   */\n      dup6\n        /* \"#utility.yul\":14959:14964   */\n      dup3\n        /* \"#utility.yul\":14906:14973   */\n      tag_113\n      jump\t// in\n    tag_282:\n        /* \"#utility.yul\":14900:14904   */\n      dup7\n        /* \"#utility.yul\":14893:14974   */\n      sstore\n        /* \"#utility.yul\":14755:14984   */\n      pop\n        /* \"#utility.yul\":14077:14984   */\n      jump(tag_279)\n        /* \"#utility.yul\":14107:14738   */\n    tag_280:\n        /* \"#utility.yul\":14159:14163   */\n      0x1f\n        /* \"#utility.yul\":14155:14164   */\n      not\n        /* \"#utility.yul\":14147:14153   */\n      dup5\n        /* \"#utility.yul\":14143:14165   */\n      and\n        /* \"#utility.yul\":14193:14229   */\n      tag_283\n        /* \"#utility.yul\":14224:14228   */\n      dup7\n        /* \"#utility.yul\":14193:14229   */\n      tag_115\n      jump\t// in\n    tag_283:\n        /* \"#utility.yul\":14251:14252   */\n      0x00\n        /* \"#utility.yul\":14265:14480   */\n    tag_284:\n        /* \"#utility.yul\":14279:14286   */\n      dup3\n        /* \"#utility.yul\":14276:14277   */\n      dup2\n        /* \"#utility.yul\":14273:14287   */\n      lt\n        /* \"#utility.yul\":14265:14480   */\n      iszero\n      tag_286\n      jumpi\n        /* \"#utility.yul\":14365:14374   */\n      dup5\n        /* \"#utility.yul\":14360:14363   */\n      dup10\n        /* \"#utility.yul\":14356:14375   */\n      add\n        /* \"#utility.yul\":14343:14376   */\n      calldataload\n        /* \"#utility.yul\":14335:14341   */\n      dup3\n        /* \"#utility.yul\":14328:14377   */\n      sstore\n        /* \"#utility.yul\":14416:14417   */\n      0x01\n        /* \"#utility.yul\":14408:14414   */\n      dup3\n        /* \"#utility.yul\":14404:14418   */\n      add\n        /* \"#utility.yul\":14394:14418   */\n      swap2\n      pop\n        /* \"#utility.yul\":14463:14465   */\n      0x20\n        /* \"#utility.yul\":14452:14461   */\n      dup6\n        /* \"#utility.yul\":14448:14466   */\n      add\n        /* \"#utility.yul\":14435:14466   */\n      swap5\n      pop\n        /* \"#utility.yul\":14302:14306   */\n      0x20\n        /* \"#utility.yul\":14299:14300   */\n      dup2\n        /* \"#utility.yul\":14295:14307   */\n      add\n        /* \"#utility.yul\":14290:14307   */\n      swap1\n      pop\n        /* \"#utility.yul\":14265:14480   */\n      jump(tag_284)\n    tag_286:\n        /* \"#utility.yul\":14508:14514   */\n      dup7\n        /* \"#utility.yul\":14499:14506   */\n      dup4\n        /* \"#utility.yul\":14496:14515   */\n      lt\n        /* \"#utility.yul\":14493:14679   */\n      iszero\n      tag_287\n      jumpi\n        /* \"#utility.yul\":14573:14582   */\n      dup5\n        /* \"#utility.yul\":14568:14571   */\n      dup10\n        /* \"#utility.yul\":14564:14583   */\n      add\n        /* \"#utility.yul\":14551:14584   */\n      calldataload\n        /* \"#utility.yul\":14616:14664   */\n      tag_288\n        /* \"#utility.yul\":14658:14662   */\n      0x1f\n        /* \"#utility.yul\":14650:14656   */\n      dup10\n        /* \"#utility.yul\":14646:14663   */\n      and\n        /* \"#utility.yul\":14635:14644   */\n      dup3\n        /* \"#utility.yul\":14616:14664   */\n      tag_112\n      jump\t// in\n    tag_288:\n        /* \"#utility.yul\":14608:14614   */\n      dup4\n        /* \"#utility.yul\":14601:14665   */\n      sstore\n        /* \"#utility.yul\":14516:14679   */\n      pop\n        /* \"#utility.yul\":14493:14679   */\n    tag_287:\n        /* \"#utility.yul\":14725:14726   */\n      0x01\n        /* \"#utility.yul\":14721:14722   */\n      0x02\n        /* \"#utility.yul\":14713:14719   */\n      dup9\n        /* \"#utility.yul\":14709:14723   */\n      mul\n        /* \"#utility.yul\":14705:14727   */\n      add\n        /* \"#utility.yul\":14699:14703   */\n      dup9\n        /* \"#utility.yul\":14692:14728   */\n      sstore\n        /* \"#utility.yul\":14114:14738   */\n      pop\n      pop\n      pop\n        /* \"#utility.yul\":14077:14984   */\n    tag_279:\n      pop\n        /* \"#utility.yul\":13689:14990   */\n      pop\n      pop\n      pop\n        /* \"#utility.yul\":13592:14990   */\n      pop\n      pop\n      pop\n      jump\t// out\n\n    auxdata: 0xa26469706673582212207189c327b49741fb96e75fb7f68d60fc9ce31c988eacad120c5dfc63967e6f6564736f6c634300081a0033\n}\n",
				"bytecode": {
					"linkReferences": {},
					"object": "6080604052348015600e575f80fd5b50610c368061001c5f395ff3fe608060405260043610610079575f3560e01c80634df7e3d01161004d5780634df7e3d01461011757806367e404ce1461014157806373d4a13a1461016b578063c15bae841461019557610079565b8062a7029b1461007d5780630dbe671f146100a757806325e71e27146100d15780633fa4f245146100ed575b5f80fd5b348015610088575f80fd5b506100916101bf565b60405161009e9190610433565b60405180910390f35b3480156100b2575f80fd5b506100bb6101d1565b6040516100c89190610464565b60405180910390f35b6100eb60048036038101906100e6919061062a565b6101d6565b005b3480156100f8575f80fd5b506101016102a4565b60405161010e9190610464565b60405180910390f35b348015610122575f80fd5b5061012b6102aa565b60405161013891906106a5565b60405180910390f35b34801561014c575f80fd5b506101556102bc565b60405161016291906106fd565b60405180910390f35b348015610176575f80fd5b5061017f6102e1565b60405161018c9190610776565b60405180910390f35b3480156101a0575f80fd5b506101a961036d565b6040516101b691906107e8565b60405180910390f35b60065f9054906101000a900460e01b81565b5f5481565b825f819055508160015f6101000a81548160ff021916908360ff16021790555080600290816102059190610a02565b503360035f6101000a81548173ffffffffffffffffffffffffffffffffffffffff021916908373ffffffffffffffffffffffffffffffffffffffff160217905550346004819055505f366005918261025e929190610b33565b505f357fffffffff000000000000000000000000000000000000000000000000000000001660065f6101000a81548163ffffffff021916908360e01c0217905550505050565b60045481565b60015f9054906101000a900460ff1681565b60035f9054906101000a900473ffffffffffffffffffffffffffffffffffffffff1681565b600580546102ee90610835565b80601f016020809104026020016040519081016040528092919081815260200182805461031a90610835565b80156103655780601f1061033c57610100808354040283529160200191610365565b820191905f5260205f20905b81548152906001019060200180831161034857829003601f168201915b505050505081565b6002805461037a90610835565b80601f01602080910402602001604051908101604052809291908181526020018280546103a690610835565b80156103f15780601f106103c8576101008083540402835291602001916103f1565b820191905f5260205f20905b8154815290600101906020018083116103d457829003601f168201915b505050505081565b5f7fffffffff0000000000000000000000000000000000000000000000000000000082169050919050565b61042d816103f9565b82525050565b5f6020820190506104465f830184610424565b92915050565b5f819050919050565b61045e8161044c565b82525050565b5f6020820190506104775f830184610455565b92915050565b5f604051905090565b5f80fd5b5f80fd5b6104978161044c565b81146104a1575f80fd5b50565b5f813590506104b28161048e565b92915050565b5f60ff82169050919050565b6104cd816104b8565b81146104d7575f80fd5b50565b5f813590506104e8816104c4565b92915050565b5f80fd5b5f80fd5b5f601f19601f8301169050919050565b7f4e487b71000000000000000000000000000000000000000000000000000000005f52604160045260245ffd5b61053c826104f6565b810181811067ffffffffffffffff8211171561055b5761055a610506565b5b80604052505050565b5f61056d61047d565b90506105798282610533565b919050565b5f67ffffffffffffffff82111561059857610597610506565b5b6105a1826104f6565b9050602081019050919050565b828183375f83830152505050565b5f6105ce6105c98461057e565b610564565b9050828152602081018484840111156105ea576105e96104f2565b5b6105f58482856105ae565b509392505050565b5f82601f830112610611576106106104ee565b5b81356106218482602086016105bc565b91505092915050565b5f805f6060848603121561064157610640610486565b5b5f61064e868287016104a4565b935050602061065f868287016104da565b925050604084013567ffffffffffffffff8111156106805761067f61048a565b5b61068c868287016105fd565b9150509250925092565b61069f816104b8565b82525050565b5f6020820190506106b85f830184610696565b92915050565b5f73ffffffffffffffffffffffffffffffffffffffff82169050919050565b5f6106e7826106be565b9050919050565b6106f7816106dd565b82525050565b5f6020820190506107105f8301846106ee565b92915050565b5f81519050919050565b5f82825260208201905092915050565b8281835e5f83830152505050565b5f61074882610716565b6107528185610720565b9350610762818560208601610730565b61076b816104f6565b840191505092915050565b5f6020820190508181035f83015261078e818461073e565b905092915050565b5f81519050919050565b5f82825260208201905092915050565b5f6107ba82610796565b6107c481856107a0565b93506107d4818560208601610730565b6107dd816104f6565b840191505092915050565b5f6020820190508181035f83015261080081846107b0565b905092915050565b7f4e487b71000000000000000000000000000000000000000000000000000000005f52602260045260245ffd5b5f600282049050600182168061084c57607f821691505b60208210810361085f5761085e610808565b5b50919050565b5f819050815f5260205f209050919050565b5f6020601f8301049050919050565b5f82821b905092915050565b5f600883026108c17fffffffffffffffffffffffffffffffffffffffffffffffffffffffffffffffff82610886565b6108cb8683610886565b95508019841693508086168417925050509392505050565b5f819050919050565b5f6109066109016108fc8461044c565b6108e3565b61044c565b9050919050565b5f819050919050565b61091f836108ec565b61093361092b8261090d565b848454610892565b825550505050565b5f90565b61094761093b565b610952818484610916565b505050565b5b818110156109755761096a5f8261093f565b600181019050610958565b5050565b601f8211156109ba5761098b81610865565b61099484610877565b810160208510156109a3578190505b6109b76109af85610877565b830182610957565b50505b505050565b5f82821c905092915050565b5f6109da5f19846008026109bf565b1980831691505092915050565b5f6109f283836109cb565b9150826002028217905092915050565b610a0b82610796565b67ffffffffffffffff811115610a2457610a23610506565b5b610a2e8254610835565b610a39828285610979565b5f60209050601f831160018114610a6a575f8415610a58578287015190505b610a6285826109e7565b865550610ac9565b601f198416610a7886610865565b5f5b82811015610a9f57848901518255600182019150602085019450602081019050610a7a565b86831015610abc5784890151610ab8601f8916826109cb565b8355505b6001600288020188555050505b505050505050565b5f82905092915050565b5f819050815f5260205f209050919050565b601f821115610b2e57610aff81610adb565b610b0884610877565b81016020851015610b17578190505b610b2b610b2385610877565b830182610957565b50505b505050565b610b3d8383610ad1565b67ffffffffffffffff811115610b5657610b55610506565b5b610b608254610835565b610b6b828285610aed565b5f601f831160018114610b98575f8415610b86578287013590505b610b9085826109e7565b865550610bf7565b601f198416610ba686610adb565b5f5b82811015610bcd57848901358255600182019150602085019450602081019050610ba8565b86831015610bea5784890135610be6601f8916826109cb565b8355505b6001600288020188555050505b5050505050505056fea26469706673582212207189c327b49741fb96e75fb7f68d60fc9ce31c988eacad120c5dfc63967e6f6564736f6c634300081a0033",
					"opcodes": "PUSH1 0x80 PUSH1 0x40 MSTORE CALLVALUE DUP1 ISZERO PUSH1 0xE JUMPI PUSH0 DUP1 REVERT JUMPDEST POP PUSH2 0xC36 DUP1 PUSH2 0x1C PUSH0 CODECOPY PUSH0 RETURN INVALID PUSH1 0x80 PUSH1 0x40 MSTORE PUSH1 0x4 CALLDATASIZE LT PUSH2 0x79 JUMPI PUSH0 CALLDATALOAD PUSH1 0xE0 SHR DUP1 PUSH4 0x4DF7E3D0 GT PUSH2 0x4D JUMPI DUP1 PUSH4 0x4DF7E3D0 EQ PUSH2 0x117 JUMPI DUP1 PUSH4 0x67E404CE EQ PUSH2 0x141 JUMPI DUP1 PUSH4 0x73D4A13A EQ PUSH2 0x16B JUMPI DUP1 PUSH4 0xC15BAE84 EQ PUSH2 0x195 JUMPI PUSH2 0x79 JUMP JUMPDEST DUP1 PUSH3 0xA7029B EQ PUSH2 0x7D JUMPI DUP1 PUSH4 0xDBE671F EQ PUSH2 0xA7 JUMPI DUP1 PUSH4 0x25E71E27 EQ PUSH2 0xD1 JUMPI DUP1 PUSH4 0x3FA4F245 EQ PUSH2 0xED JUMPI JUMPDEST PUSH0 DUP1 REVERT JUMPDEST CALLVALUE DUP1 ISZERO PUSH2 0x88 JUMPI PUSH0 DUP1 REVERT JUMPDEST POP PUSH2 0x91 PUSH2 0x1BF JUMP JUMPDEST PUSH1 0x40 MLOAD PUSH2 0x9E SWAP2 SWAP1 PUSH2 0x433 JUMP JUMPDEST PUSH1 0x40 MLOAD DUP1 SWAP2 SUB SWAP1 RETURN JUMPDEST CALLVALUE DUP1 ISZERO PUSH2 0xB2 JUMPI PUSH0 DUP1 REVERT JUMPDEST POP PUSH2 0xBB PUSH2 0x1D1 JUMP JUMPDEST PUSH1 0x40 MLOAD PUSH2 0xC8 SWAP2 SWAP1 PUSH2 0x464 JUMP JUMPDEST PUSH1 0x40 MLOAD DUP1 SWAP2 SUB SWAP1 RETURN JUMPDEST PUSH2 0xEB PUSH1 0x4 DUP1 CALLDATASIZE SUB DUP2 ADD SWAP1 PUSH2 0xE6 SWAP2 SWAP1 PUSH2 0x62A JUMP JUMPDEST PUSH2 0x1D6 JUMP JUMPDEST STOP JUMPDEST CALLVALUE DUP1 ISZERO PUSH2 0xF8 JUMPI PUSH0 DUP1 REVERT JUMPDEST POP PUSH2 0x101 PUSH2 0x2A4 JUMP JUMPDEST PUSH1 0x40 MLOAD PUSH2 0x10E SWAP2 SWAP1 PUSH2 0x464 JUMP JUMPDEST PUSH1 0x40 MLOAD DUP1 SWAP2 SUB SWAP1 RETURN JUMPDEST CALLVALUE DUP1 ISZERO PUSH2 0x122 JUMPI PUSH0 DUP1 REVERT JUMPDEST POP PUSH2 0x12B PUSH2 0x2AA JUMP JUMPDEST PUSH1 0x40 MLOAD PUSH2 0x138 SWAP2 SWAP1 PUSH2 0x6A5 JUMP JUMPDEST PUSH1 0x40 MLOAD DUP1 SWAP2 SUB SWAP1 RETURN JUMPDEST CALLVALUE DUP1 ISZERO PUSH2 0x14C JUMPI PUSH0 DUP1 REVERT JUMPDEST POP PUSH2 0x155 PUSH2 0x2BC JUMP JUMPDEST PUSH1 0x40 MLOAD PUSH2 0x162 SWAP2 SWAP1 PUSH2 0x6FD JUMP JUMPDEST PUSH1 0x40 MLOAD DUP1 SWAP2 SUB SWAP1 RETURN JUMPDEST CALLVALUE DUP1 ISZERO PUSH2 0x176 JUMPI PUSH0 DUP1 REVERT JUMPDEST POP PUSH2 0x17F PUSH2 0x2E1 JUMP JUMPDEST PUSH1 0x40 MLOAD PUSH2 0x18C SWAP2 SWAP1 PUSH2 0x776 JUMP JUMPDEST PUSH1 0x40 MLOAD DUP1 SWAP2 SUB SWAP1 RETURN JUMPDEST CALLVALUE DUP1 ISZERO PUSH2 0x1A0 JUMPI PUSH0 DUP1 REVERT JUMPDEST POP PUSH2 0x1A9 PUSH2 0x36D JUMP JUMPDEST PUSH1 0x40 MLOAD PUSH2 0x1B6 SWAP2 SWAP1 PUSH2 0x7E8 JUMP JUMPDEST PUSH1 0x40 MLOAD DUP1 SWAP2 SUB SWAP1 RETURN JUMPDEST PUSH1 0x6 PUSH0 SWAP1 SLOAD SWAP1 PUSH2 0x100 EXP SWAP1 DIV PUSH1 0xE0 SHL DUP2 JUMP JUMPDEST PUSH0 SLOAD DUP2 JUMP JUMPDEST DUP3 PUSH0 DUP2 SWAP1 SSTORE POP DUP2 PUSH1 0x1 PUSH0 PUSH2 0x100 EXP DUP2 SLOAD DUP2 PUSH1 0xFF MUL NOT AND SWAP1 DUP4 PUSH1 0xFF AND MUL OR SWAP1 SSTORE POP DUP1 PUSH1 0x2 SWAP1 DUP2 PUSH2 0x205 SWAP2 SWAP1 PUSH2 0xA02 JUMP JUMPDEST POP CALLER PUSH1 0x3 PUSH0 PUSH2 0x100 EXP DUP2 SLOAD DUP2 PUSH20 0xFFFFFFFFFFFFFFFFFFFFFFFFFFFFFFFFFFFFFFFF MUL NOT AND SWAP1 DUP4 PUSH20 0xFFFFFFFFFFFFFFFFFFFFFFFFFFFFFFFFFFFFFFFF AND MUL OR SWAP1 SSTORE POP CALLVALUE PUSH1 0x4 DUP2 SWAP1 SSTORE POP PUSH0 CALLDATASIZE PUSH1 0x5 SWAP2 DUP3 PUSH2 0x25E SWAP3 SWAP2 SWAP1 PUSH2 0xB33 JUMP JUMPDEST POP PUSH0 CALLDATALOAD PUSH32 0xFFFFFFFF00000000000000000000000000000000000000000000000000000000 AND PUSH1 0x6 PUSH0 PUSH2 0x100 EXP DUP2 SLOAD DUP2 PUSH4 0xFFFFFFFF MUL NOT AND SWAP1 DUP4 PUSH1 0xE0 SHR MUL OR SWAP1 SSTORE POP POP POP POP JUMP JUMPDEST PUSH1 0x4 SLOAD DUP2 JUMP JUMPDEST PUSH1 0x1 PUSH0 SWAP1 SLOAD SWAP1 PUSH2 0x100 EXP SWAP1 DIV PUSH1 0xFF AND DUP2 JUMP JUMPDEST PUSH1 0x3 PUSH0 SWAP1 SLOAD SWAP1 PUSH2 0x100 EXP SWAP1 DIV PUSH20 0xFFFFFFFFFFFFFFFFFFFFFFFFFFFFFFFFFFFFFFFF AND DUP2 JUMP JUMPDEST PUSH1 0x5 DUP1 SLOAD PUSH2 0x2EE SWAP1 PUSH2 0x835 JUMP JUMPDEST DUP1 PUSH1 0x1F ADD PUSH1 0x20 DUP1 SWAP2 DIV MUL PUSH1 0x20 ADD PUSH1 0x40 MLOAD SWAP1 DUP2 ADD PUSH1 0x40 MSTORE DUP1 SWAP3 SWAP2 SWAP1 DUP2 DUP2 MSTORE PUSH1 0x20 ADD DUP3 DUP1 SLOAD PUSH2 0x31A SWAP1 PUSH2 0x835 JUMP JUMPDEST DUP1 ISZERO PUSH2 0x365 JUMPI DUP1 PUSH1 0x1F LT PUSH2 0x33C JUMPI PUSH2 0x100 DUP1 DUP4 SLOAD DIV MUL DUP4 MSTORE SWAP2 PUSH1 0x20 ADD SWAP2 PUSH2 0x365 JUMP JUMPDEST DUP3 ADD SWAP2 SWAP1 PUSH0 MSTORE PUSH1 0x20 PUSH0 KECCAK256 SWAP1 JUMPDEST DUP2 SLOAD DUP2 MSTORE SWAP1 PUSH1 0x1 ADD SWAP1 PUSH1 0x20 ADD DUP1 DUP4 GT PUSH2 0x348 JUMPI DUP3 SWAP1 SUB PUSH1 0x1F AND DUP3 ADD SWAP2 JUMPDEST POP POP POP POP POP DUP2 JUMP JUMPDEST PUSH1 0x2 DUP1 SLOAD PUSH2 0x37A SWAP1 PUSH2 0x835 JUMP JUMPDEST DUP1 PUSH1 0x1F ADD PUSH1 0x20 DUP1 SWAP2 DIV MUL PUSH1 0x20 ADD PUSH1 0x40 MLOAD SWAP1 DUP2 ADD PUSH1 0x40 MSTORE DUP1 SWAP3 SWAP2 SWAP1 DUP2 DUP2 MSTORE PUSH1 0x20 ADD DUP3 DUP1 SLOAD PUSH2 0x3A6 SWAP1 PUSH2 0x835 JUMP JUMPDEST DUP1 ISZERO PUSH2 0x3F1 JUMPI DUP1 PUSH1 0x1F LT PUSH2 0x3C8 JUMPI PUSH2 0x100 DUP1 DUP4 SLOAD DIV MUL DUP4 MSTORE SWAP2 PUSH1 0x20 ADD SWAP2 PUSH2 0x3F1 JUMP JUMPDEST DUP3 ADD SWAP2 SWAP1 PUSH0 MSTORE PUSH1 0x20 PUSH0 KECCAK256 SWAP1 JUMPDEST DUP2 SLOAD DUP2 MSTORE SWAP1 PUSH1 0x1 ADD SWAP1 PUSH1 0x20 ADD DUP1 DUP4 GT PUSH2 0x3D4 JUMPI DUP3 SWAP1 SUB PUSH1 0x1F AND DUP3 ADD SWAP2 JUMPDEST POP POP POP POP POP DUP2 JUMP JUMPDEST PUSH0 PUSH32 0xFFFFFFFF00000000000000000000000000000000000000000000000000000000 DUP3 AND SWAP1 POP SWAP2 SWAP1 POP JUMP JUMPDEST PUSH2 0x42D DUP2 PUSH2 0x3F9 JUMP JUMPDEST DUP3 MSTORE POP POP JUMP JUMPDEST PUSH0 PUSH1 0x20 DUP3 ADD SWAP1 POP PUSH2 0x446 PUSH0 DUP4 ADD DUP5 PUSH2 0x424 JUMP JUMPDEST SWAP3 SWAP2 POP POP JUMP JUMPDEST PUSH0 DUP2 SWAP1 POP SWAP2 SWAP1 POP JUMP JUMPDEST PUSH2 0x45E DUP2 PUSH2 0x44C JUMP JUMPDEST DUP3 MSTORE POP POP JUMP JUMPDEST PUSH0 PUSH1 0x20 DUP3 ADD SWAP1 POP PUSH2 0x477 PUSH0 DUP4 ADD DUP5 PUSH2 0x455 JUMP JUMPDEST SWAP3 SWAP2 POP POP JUMP JUMPDEST PUSH0 PUSH1 0x40 MLOAD SWAP1 POP SWAP1 JUMP JUMPDEST PUSH0 DUP1 REVERT JUMPDEST PUSH0 DUP1 REVERT JUMPDEST PUSH2 0x497 DUP2 PUSH2 0x44C JUMP JUMPDEST DUP2 EQ PUSH2 0x4A1 JUMPI PUSH0 DUP1 REVERT JUMPDEST POP JUMP JUMPDEST PUSH0 DUP2 CALLDATALOAD SWAP1 POP PUSH2 0x4B2 DUP2 PUSH2 0x48E JUMP JUMPDEST SWAP3 SWAP2 POP POP JUMP JUMPDEST PUSH0 PUSH1 0xFF DUP3 AND SWAP1 POP SWAP2 SWAP1 POP JUMP JUMPDEST PUSH2 0x4CD DUP2 PUSH2 0x4B8 JUMP JUMPDEST DUP2 EQ PUSH2 0x4D7 JUMPI PUSH0 DUP1 REVERT JUMPDEST POP JUMP JUMPDEST PUSH0 DUP2 CALLDATALOAD SWAP1 POP PUSH2 0x4E8 DUP2 PUSH2 0x4C4 JUMP JUMPDEST SWAP3 SWAP2 POP POP JUMP JUMPDEST PUSH0 DUP1 REVERT JUMPDEST PUSH0 DUP1 REVERT JUMPDEST PUSH0 PUSH1 0x1F NOT PUSH1 0x1F DUP4 ADD AND SWAP1 POP SWAP2 SWAP1 POP JUMP JUMPDEST PUSH32 0x4E487B7100000000000000000000000000000000000000000000000000000000 PUSH0 MSTORE PUSH1 0x41 PUSH1 0x4 MSTORE PUSH1 0x24 PUSH0 REVERT JUMPDEST PUSH2 0x53C DUP3 PUSH2 0x4F6 JUMP JUMPDEST DUP2 ADD DUP2 DUP2 LT PUSH8 0xFFFFFFFFFFFFFFFF DUP3 GT OR ISZERO PUSH2 0x55B JUMPI PUSH2 0x55A PUSH2 0x506 JUMP JUMPDEST JUMPDEST DUP1 PUSH1 0x40 MSTORE POP POP POP JUMP JUMPDEST PUSH0 PUSH2 0x56D PUSH2 0x47D JUMP JUMPDEST SWAP1 POP PUSH2 0x579 DUP3 DUP3 PUSH2 0x533 JUMP JUMPDEST SWAP2 SWAP1 POP JUMP JUMPDEST PUSH0 PUSH8 0xFFFFFFFFFFFFFFFF DUP3 GT ISZERO PUSH2 0x598 JUMPI PUSH2 0x597 PUSH2 0x506 JUMP JUMPDEST JUMPDEST PUSH2 0x5A1 DUP3 PUSH2 0x4F6 JUMP JUMPDEST SWAP1 POP PUSH1 0x20 DUP2 ADD SWAP1 POP SWAP2 SWAP1 POP JUMP JUMPDEST DUP3 DUP2 DUP4 CALLDATACOPY PUSH0 DUP4 DUP4 ADD MSTORE POP POP POP JUMP JUMPDEST PUSH0 PUSH2 0x5CE PUSH2 0x5C9 DUP5 PUSH2 0x57E JUMP JUMPDEST PUSH2 0x564 JUMP JUMPDEST SWAP1 POP DUP3 DUP2 MSTORE PUSH1 0x20 DUP2 ADD DUP5 DUP5 DUP5 ADD GT ISZERO PUSH2 0x5EA JUMPI PUSH2 0x5E9 PUSH2 0x4F2 JUMP JUMPDEST JUMPDEST PUSH2 0x5F5 DUP5 DUP3 DUP6 PUSH2 0x5AE JUMP JUMPDEST POP SWAP4 SWAP3 POP POP POP JUMP JUMPDEST PUSH0 DUP3 PUSH1 0x1F DUP4 ADD SLT PUSH2 0x611 JUMPI PUSH2 0x610 PUSH2 0x4EE JUMP JUMPDEST JUMPDEST DUP2 CALLDATALOAD PUSH2 0x621 DUP5 DUP3 PUSH1 0x20 DUP7 ADD PUSH2 0x5BC JUMP JUMPDEST SWAP2 POP POP SWAP3 SWAP2 POP POP JUMP JUMPDEST PUSH0 DUP1 PUSH0 PUSH1 0x60 DUP5 DUP7 SUB SLT ISZERO PUSH2 0x641 JUMPI PUSH2 0x640 PUSH2 0x486 JUMP JUMPDEST JUMPDEST PUSH0 PUSH2 0x64E DUP7 DUP3 DUP8 ADD PUSH2 0x4A4 JUMP JUMPDEST SWAP4 POP POP PUSH1 0x20 PUSH2 0x65F DUP7 DUP3 DUP8 ADD PUSH2 0x4DA JUMP JUMPDEST SWAP3 POP POP PUSH1 0x40 DUP5 ADD CALLDATALOAD PUSH8 0xFFFFFFFFFFFFFFFF DUP2 GT ISZERO PUSH2 0x680 JUMPI PUSH2 0x67F PUSH2 0x48A JUMP JUMPDEST JUMPDEST PUSH2 0x68C DUP7 DUP3 DUP8 ADD PUSH2 0x5FD JUMP JUMPDEST SWAP2 POP POP SWAP3 POP SWAP3 POP SWAP3 JUMP JUMPDEST PUSH2 0x69F DUP2 PUSH2 0x4B8 JUMP JUMPDEST DUP3 MSTORE POP POP JUMP JUMPDEST PUSH0 PUSH1 0x20 DUP3 ADD SWAP1 POP PUSH2 0x6B8 PUSH0 DUP4 ADD DUP5 PUSH2 0x696 JUMP JUMPDEST SWAP3 SWAP2 POP POP JUMP JUMPDEST PUSH0 PUSH20 0xFFFFFFFFFFFFFFFFFFFFFFFFFFFFFFFFFFFFFFFF DUP3 AND SWAP1 POP SWAP2 SWAP1 POP JUMP JUMPDEST PUSH0 PUSH2 0x6E7 DUP3 PUSH2 0x6BE JUMP JUMPDEST SWAP1 POP SWAP2 SWAP1 POP JUMP JUMPDEST PUSH2 0x6F7 DUP2 PUSH2 0x6DD JUMP JUMPDEST DUP3 MSTORE POP POP JUMP JUMPDEST PUSH0 PUSH1 0x20 DUP3 ADD SWAP1 POP PUSH2 0x710 PUSH0 DUP4 ADD DUP5 PUSH2 0x6EE JUMP JUMPDEST SWAP3 SWAP2 POP POP JUMP JUMPDEST PUSH0 DUP2 MLOAD SWAP1 POP SWAP2 SWAP1 POP JUMP JUMPDEST PUSH0 DUP3 DUP3 MSTORE PUSH1 0x20 DUP3 ADD SWAP1 POP SWAP3 SWAP2 POP POP JUMP JUMPDEST DUP3 DUP2 DUP4 MCOPY PUSH0 DUP4 DUP4 ADD MSTORE POP POP POP JUMP JUMPDEST PUSH0 PUSH2 0x748 DUP3 PUSH2 0x716 JUMP JUMPDEST PUSH2 0x752 DUP2 DUP6 PUSH2 0x720 JUMP JUMPDEST SWAP4 POP PUSH2 0x762 DUP2 DUP6 PUSH1 0x20 DUP7 ADD PUSH2 0x730 JUMP JUMPDEST PUSH2 0x76B DUP2 PUSH2 0x4F6 JUMP JUMPDEST DUP5 ADD SWAP2 POP POP SWAP3 SWAP2 POP POP JUMP JUMPDEST PUSH0 PUSH1 0x20 DUP3 ADD SWAP1 POP DUP2 DUP2 SUB PUSH0 DUP4 ADD MSTORE PUSH2 0x78E DUP2 DUP5 PUSH2 0x73E JUMP JUMPDEST SWAP1 POP SWAP3 SWAP2 POP POP JUMP JUMPDEST PUSH0 DUP2 MLOAD SWAP1 POP SWAP2 SWAP1 POP JUMP JUMPDEST PUSH0 DUP3 DUP3 MSTORE PUSH1 0x20 DUP3 ADD SWAP1 POP SWAP3 SWAP2 POP POP JUMP JUMPDEST PUSH0 PUSH2 0x7BA DUP3 PUSH2 0x796 JUMP JUMPDEST PUSH2 0x7C4 DUP2 DUP6 PUSH2 0x7A0 JUMP JUMPDEST SWAP4 POP PUSH2 0x7D4 DUP2 DUP6 PUSH1 0x20 DUP7 ADD PUSH2 0x730 JUMP JUMPDEST PUSH2 0x7DD DUP2 PUSH2 0x4F6 JUMP JUMPDEST DUP5 ADD SWAP2 POP POP SWAP3 SWAP2 POP POP JUMP JUMPDEST PUSH0 PUSH1 0x20 DUP3 ADD SWAP1 POP DUP2 DUP2 SUB PUSH0 DUP4 ADD MSTORE PUSH2 0x800 DUP2 DUP5 PUSH2 0x7B0 JUMP JUMPDEST SWAP1 POP SWAP3 SWAP2 POP POP JUMP JUMPDEST PUSH32 0x4E487B7100000000000000000000000000000000000000000000000000000000 PUSH0 MSTORE PUSH1 0x22 PUSH1 0x4 MSTORE PUSH1 0x24 PUSH0 REVERT JUMPDEST PUSH0 PUSH1 0x2 DUP3 DIV SWAP1 POP PUSH1 0x1 DUP3 AND DUP1 PUSH2 0x84C JUMPI PUSH1 0x7F DUP3 AND SWAP2 POP JUMPDEST PUSH1 0x20 DUP3 LT DUP2 SUB PUSH2 0x85F JUMPI PUSH2 0x85E PUSH2 0x808 JUMP JUMPDEST JUMPDEST POP SWAP2 SWAP1 POP JUMP JUMPDEST PUSH0 DUP2 SWAP1 POP DUP2 PUSH0 MSTORE PUSH1 0x20 PUSH0 KECCAK256 SWAP1 POP SWAP2 SWAP1 POP JUMP JUMPDEST PUSH0 PUSH1 0x20 PUSH1 0x1F DUP4 ADD DIV SWAP1 POP SWAP2 SWAP1 POP JUMP JUMPDEST PUSH0 DUP3 DUP3 SHL SWAP1 POP SWAP3 SWAP2 POP POP JUMP JUMPDEST PUSH0 PUSH1 0x8 DUP4 MUL PUSH2 0x8C1 PUSH32 0xFFFFFFFFFFFFFFFFFFFFFFFFFFFFFFFFFFFFFFFFFFFFFFFFFFFFFFFFFFFFFFFF DUP3 PUSH2 0x886 JUMP JUMPDEST PUSH2 0x8CB DUP7 DUP4 PUSH2 0x886 JUMP JUMPDEST SWAP6 POP DUP1 NOT DUP5 AND SWAP4 POP DUP1 DUP7 AND DUP5 OR SWAP3 POP POP POP SWAP4 SWAP3 POP POP POP JUMP JUMPDEST PUSH0 DUP2 SWAP1 POP SWAP2 SWAP1 POP JUMP JUMPDEST PUSH0 PUSH2 0x906 PUSH2 0x901 PUSH2 0x8FC DUP5 PUSH2 0x44C JUMP JUMPDEST PUSH2 0x8E3 JUMP JUMPDEST PUSH2 0x44C JUMP JUMPDEST SWAP1 POP SWAP2 SWAP1 POP JUMP JUMPDEST PUSH0 DUP2 SWAP1 POP SWAP2 SWAP1 POP JUMP JUMPDEST PUSH2 0x91F DUP4 PUSH2 0x8EC JUMP JUMPDEST PUSH2 0x933 PUSH2 0x92B DUP3 PUSH2 0x90D JUMP JUMPDEST DUP5 DUP5 SLOAD PUSH2 0x892 JUMP JUMPDEST DUP3 SSTORE POP POP POP POP JUMP JUMPDEST PUSH0 SWAP1 JUMP JUMPDEST PUSH2 0x947 PUSH2 0x93B JUMP JUMPDEST PUSH2 0x952 DUP2 DUP5 DUP5 PUSH2 0x916 JUMP JUMPDEST POP POP POP JUMP JUMPDEST JUMPDEST DUP2 DUP2 LT ISZERO PUSH2 0x975 JUMPI PUSH2 0x96A PUSH0 DUP3 PUSH2 0x93F JUMP JUMPDEST PUSH1 0x1 DUP2 ADD SWAP1 POP PUSH2 0x958 JUMP JUMPDEST POP POP JUMP JUMPDEST PUSH1 0x1F DUP3 GT ISZERO PUSH2 0x9BA JUMPI PUSH2 0x98B DUP2 PUSH2 0x865 JUMP JUMPDEST PUSH2 0x994 DUP5 PUSH2 0x877 JUMP JUMPDEST DUP2 ADD PUSH1 0x20 DUP6 LT ISZERO PUSH2 0x9A3 JUMPI DUP2 SWAP1 POP JUMPDEST PUSH2 0x9B7 PUSH2 0x9AF DUP6 PUSH2 0x877 JUMP JUMPDEST DUP4 ADD DUP3 PUSH2 0x957 JUMP JUMPDEST POP POP JUMPDEST POP POP POP JUMP JUMPDEST PUSH0 DUP3 DUP3 SHR SWAP1 POP SWAP3 SWAP2 POP POP JUMP JUMPDEST PUSH0 PUSH2 0x9DA PUSH0 NOT DUP5 PUSH1 0x8 MUL PUSH2 0x9BF JUMP JUMPDEST NOT DUP1 DUP4 AND SWAP2 POP POP SWAP3 SWAP2 POP POP JUMP JUMPDEST PUSH0 PUSH2 0x9F2 DUP4 DUP4 PUSH2 0x9CB JUMP JUMPDEST SWAP2 POP DUP3 PUSH1 0x2 MUL DUP3 OR SWAP1 POP SWAP3 SWAP2 POP POP JUMP JUMPDEST PUSH2 0xA0B DUP3 PUSH2 0x796 JUMP JUMPDEST PUSH8 0xFFFFFFFFFFFFFFFF DUP2 GT ISZERO PUSH2 0xA24 JUMPI PUSH2 0xA23 PUSH2 0x506 JUMP JUMPDEST JUMPDEST PUSH2 0xA2E DUP3 SLOAD PUSH2 0x835 JUMP JUMPDEST PUSH2 0xA39 DUP3 DUP3 DUP6 PUSH2 0x979 JUMP JUMPDEST PUSH0 PUSH1 0x20 SWAP1 POP PUSH1 0x1F DUP4 GT PUSH1 0x1 DUP2 EQ PUSH2 0xA6A JUMPI PUSH0 DUP5 ISZERO PUSH2 0xA58 JUMPI DUP3 DUP8 ADD MLOAD SWAP1 POP JUMPDEST PUSH2 0xA62 DUP6 DUP3 PUSH2 0x9E7 JUMP JUMPDEST DUP7 SSTORE POP PUSH2 0xAC9 JUMP JUMPDEST PUSH1 0x1F NOT DUP5 AND PUSH2 0xA78 DUP7 PUSH2 0x865 JUMP JUMPDEST PUSH0 JUMPDEST DUP3 DUP2 LT ISZERO PUSH2 0xA9F JUMPI DUP5 DUP10 ADD MLOAD DUP3 SSTORE PUSH1 0x1 DUP3 ADD SWAP2 POP PUSH1 0x20 DUP6 ADD SWAP5 POP PUSH1 0x20 DUP2 ADD SWAP1 POP PUSH2 0xA7A JUMP JUMPDEST DUP7 DUP4 LT ISZERO PUSH2 0xABC JUMPI DUP5 DUP10 ADD MLOAD PUSH2 0xAB8 PUSH1 0x1F DUP10 AND DUP3 PUSH2 0x9CB JUMP JUMPDEST DUP4 SSTORE POP JUMPDEST PUSH1 0x1 PUSH1 0x2 DUP9 MUL ADD DUP9 SSTORE POP POP POP JUMPDEST POP POP POP POP POP POP JUMP JUMPDEST PUSH0 DUP3 SWAP1 POP SWAP3 SWAP2 POP POP JUMP JUMPDEST PUSH0 DUP2 SWAP1 POP DUP2 PUSH0 MSTORE PUSH1 0x20 PUSH0 KECCAK256 SWAP1 POP SWAP2 SWAP1 POP JUMP JUMPDEST PUSH1 0x1F DUP3 GT ISZERO PUSH2 0xB2E JUMPI PUSH2 0xAFF DUP2 PUSH2 0xADB JUMP JUMPDEST PUSH2 0xB08 DUP5 PUSH2 0x877 JUMP JUMPDEST DUP2 ADD PUSH1 0x20 DUP6 LT ISZERO PUSH2 0xB17 JUMPI DUP2 SWAP1 POP JUMPDEST PUSH2 0xB2B PUSH2 0xB23 DUP6 PUSH2 0x877 JUMP JUMPDEST DUP4 ADD DUP3 PUSH2 0x957 JUMP JUMPDEST POP POP JUMPDEST POP POP POP JUMP JUMPDEST PUSH2 0xB3D DUP4 DUP4 PUSH2 0xAD1 JUMP JUMPDEST PUSH8 0xFFFFFFFFFFFFFFFF DUP2 GT ISZERO PUSH2 0xB56 JUMPI PUSH2 0xB55 PUSH2 0x506 JUMP JUMPDEST JUMPDEST PUSH2 0xB60 DUP3 SLOAD PUSH2 0x835 JUMP JUMPDEST PUSH2 0xB6B DUP3 DUP3 DUP6 PUSH2 0xAED JUMP JUMPDEST PUSH0 PUSH1 0x1F DUP4 GT PUSH1 0x1 DUP2 EQ PUSH2 0xB98 JUMPI PUSH0 DUP5 ISZERO PUSH2 0xB86 JUMPI DUP3 DUP8 ADD CALLDATALOAD SWAP1 POP JUMPDEST PUSH2 0xB90 DUP6 DUP3 PUSH2 0x9E7 JUMP JUMPDEST DUP7 SSTORE POP PUSH2 0xBF7 JUMP JUMPDEST PUSH1 0x1F NOT DUP5 AND PUSH2 0xBA6 DUP7 PUSH2 0xADB JUMP JUMPDEST PUSH0 JUMPDEST DUP3 DUP2 LT ISZERO PUSH2 0xBCD JUMPI DUP5 DUP10 ADD CALLDATALOAD DUP3 SSTORE PUSH1 0x1 DUP3 ADD SWAP2 POP PUSH1 0x20 DUP6 ADD SWAP5 POP PUSH1 0x20 DUP2 ADD SWAP1 POP PUSH2 0xBA8 JUMP JUMPDEST DUP7 DUP4 LT ISZERO PUSH2 0xBEA JUMPI DUP5 DUP10 ADD CALLDATALOAD PUSH2 0xBE6 PUSH1 0x1F DUP10 AND DUP3 PUSH2 0x9CB JUMP JUMPDEST DUP4 SSTORE POP JUMPDEST PUSH1 0x1 PUSH1 0x2 DUP9 MUL ADD DUP9 SSTORE POP POP POP JUMPDEST POP POP POP POP POP POP POP JUMP INVALID LOG2 PUSH5 0x6970667358 0x22 SLT KECCAK256 PUSH18 0x89C327B49741FB96E75FB7F68D60FC9CE31C SWAP9 DUP15 0xAC 0xAD SLT 0xC TSTORE 0xFC PUSH4 0x967E6F65 PUSH5 0x736F6C6343 STOP ADDMOD BYTE STOP CALLER "
				},
				"gasEstimates": {
					"creation": {
						"codeDepositCost": "625200",
						"executionCost": "655",
						"totalCost": "625855"
					},
					"external": {
						"a()": "2447",
						"b()": "2466",
						"data()": "infinite",
						"researchMsg(uint256,uint8,string)": "infinite",
						"sender()": "2530",
						"sig()": "2467",
						"str()": "infinite",
						"value()": "2492"
					}
				},
				"methodIdentifiers": {
					"a()": "0dbe671f",
					"b()": "4df7e3d0",
					"data()": "73d4a13a",
					"researchMsg(uint256,uint8,string)": "25e71e27",
					"sender()": "67e404ce",
					"sig()": "00a7029b",
					"str()": "c15bae84",
					"value()": "3fa4f245"
				}
			},
			"storageLayout": {
				"storage": [
					{
						"astId": 3,
						"contract": "example13_1task.sol:MsgResearch",
						"label": "a",
						"offset": 0,
						"slot": "0",
						"type": "t_uint256"
					},
					{
						"astId": 5,
						"contract": "example13_1task.sol:MsgResearch",
						"label": "b",
						"offset": 0,
						"slot": "1",
						"type": "t_uint8"
					},
					{
						"astId": 7,
						"contract": "example13_1task.sol:MsgResearch",
						"label": "str",
						"offset": 0,
						"slot": "2",
						"type": "t_string_storage"
					},
					{
						"astId": 9,
						"contract": "example13_1task.sol:MsgResearch",
						"label": "sender",
						"offset": 0,
						"slot": "3",
						"type": "t_address"
					},
					{
						"astId": 11,
						"contract": "example13_1task.sol:MsgResearch",
						"label": "value",
						"offset": 0,
						"slot": "4",
						"type": "t_uint256"
					},
					{
						"astId": 13,
						"contract": "example13_1task.sol:MsgResearch",
						"label": "data",
						"offset": 0,
						"slot": "5",
						"type": "t_bytes_storage"
					},
					{
						"astId": 15,
						"contract": "example13_1task.sol:MsgResearch",
						"label": "sig",
						"offset": 0,
						"slot": "6",
						"type": "t_bytes4"
					}
				],
				"types": {
					"t_address": {
						"encoding": "inplace",
						"label": "address",
						"numberOfBytes": "20"
					},
					"t_bytes4": {
						"encoding": "inplace",
						"label": "bytes4",
						"numberOfBytes": "4"
					},
					"t_bytes_storage": {
						"encoding": "bytes",
						"label": "bytes",
						"numberOfBytes": "32"
					},
					"t_string_storage": {
						"encoding": "bytes",
						"label": "string",
						"numberOfBytes": "32"
					},
					"t_uint256": {
						"encoding": "inplace",
						"label": "uint256",
						"numberOfBytes": "32"
					},
					"t_uint8": {
						"encoding": "inplace",
						"label": "uint8",
						"numberOfBytes": "1"
					}
				}
			},
			"userdoc": {
				"kind": "user",
				"methods": {},
				"version": 1
			}
		}
	}
}