{
	"code7_4.sol": {
		"task4": {
			"abi": [
				{
					"inputs": [],
					"name": "div",
					"outputs": [
						{
							"internalType": "int256",
							"name": "",
							"type": "int256"
						}
					],
					"stateMutability": "view",
					"type": "function"
				},
				{
					"inputs": [],
					"name": "mult",
					"outputs": [
						{
							"internalType": "int256",
							"name": "",
							"type": "int256"
						}
					],
					"stateMutability": "view",
					"type": "function"
				},
				{
					"inputs": [
						{
							"internalType": "int256",
							"name": "number1",
							"type": "int256"
						},
						{
							"internalType": "int256",
							"name": "number2",
							"type": "int256"
						}
					],
					"name": "start",
					"outputs": [
						{
							"internalType": "int256",
							"name": "",
							"type": "int256"
						},
						{
							"internalType": "int256",
							"name": "",
							"type": "int256"
						},
						{
							"internalType": "int256",
							"name": "",
							"type": "int256"
						},
						{
							"internalType": "int256",
							"name": "",
							"type": "int256"
						}
					],
					"stateMutability": "nonpayable",
					"type": "function"
				},
				{
					"inputs": [],
					"name": "sub",
					"outputs": [
						{
							"internalType": "int256",
							"name": "",
							"type": "int256"
						}
					],
					"stateMutability": "view",
					"type": "function"
				},
				{
					"inputs": [],
					"name": "sum",
					"outputs": [
						{
							"internalType": "int256",
							"name": "",
							"type": "int256"
						}
					],
					"stateMutability": "view",
					"type": "function"
				}
			],
			"devdoc": {
				"kind": "dev",
				"methods": {},
				"version": 1
			},
			"evm": {
				"assembly": "    /* \"code7_4.sol\":26:1233  contract task4 {... */\n  mstore(0x40, 0x80)\n  callvalue\n  dup1\n  iszero\n  tag_1\n  jumpi\n  0x00\n  dup1\n  revert\ntag_1:\n  pop\n  dataSize(sub_0)\n  dup1\n  dataOffset(sub_0)\n  0x00\n  codecopy\n  0x00\n  return\nstop\n\nsub_0: assembly {\n        /* \"code7_4.sol\":26:1233  contract task4 {... */\n      mstore(0x40, 0x80)\n      callvalue\n      dup1\n      iszero\n      tag_1\n      jumpi\n      0x00\n      dup1\n      revert\n    tag_1:\n      pop\n      jumpi(tag_2, lt(calldatasize, 0x04))\n      shr(0xe0, calldataload(0x00))\n      dup1\n      0x853255cc\n      eq\n      tag_3\n      jumpi\n      dup1\n      0x9200dac3\n      eq\n      tag_4\n      jumpi\n      dup1\n      0xc54124be\n      eq\n      tag_5\n      jumpi\n      dup1\n      0xe879a13e\n      eq\n      tag_6\n      jumpi\n      dup1\n      0xf9fa48c3\n      eq\n      tag_7\n      jumpi\n    tag_2:\n      0x00\n      dup1\n      revert\n        /* \"code7_4.sol\":50:67  int256 public sum */\n    tag_3:\n      tag_8\n      tag_9\n      jump\t// in\n    tag_8:\n      mload(0x40)\n      tag_10\n      swap2\n      swap1\n      tag_11\n      jump\t// in\n    tag_10:\n      mload(0x40)\n      dup1\n      swap2\n      sub\n      swap1\n      return\n        /* \"code7_4.sol\":792:1230  function start (int256 number1, int256 number2) public returns (int256,int256,int256,int256){... */\n    tag_4:\n      tag_12\n      0x04\n      dup1\n      calldatasize\n      sub\n      dup2\n      add\n      swap1\n      tag_13\n      swap2\n      swap1\n      tag_14\n      jump\t// in\n    tag_13:\n      tag_15\n      jump\t// in\n    tag_12:\n      mload(0x40)\n      tag_16\n      swap5\n      swap4\n      swap3\n      swap2\n      swap1\n      tag_17\n      jump\t// in\n    tag_16:\n      mload(0x40)\n      dup1\n      swap2\n      sub\n      swap1\n      return\n        /* \"code7_4.sol\":74:91  int256 public sub */\n    tag_5:\n      tag_18\n      tag_19\n      jump\t// in\n    tag_18:\n      mload(0x40)\n      tag_20\n      swap2\n      swap1\n      tag_11\n      jump\t// in\n    tag_20:\n      mload(0x40)\n      dup1\n      swap2\n      sub\n      swap1\n      return\n        /* \"code7_4.sol\":98:116  int256 public mult */\n    tag_6:\n      tag_21\n      tag_22\n      jump\t// in\n    tag_21:\n      mload(0x40)\n      tag_23\n      swap2\n      swap1\n      tag_11\n      jump\t// in\n    tag_23:\n      mload(0x40)\n      dup1\n      swap2\n      sub\n      swap1\n      return\n        /* \"code7_4.sol\":123:140  int256 public div */\n    tag_7:\n      tag_24\n      tag_25\n      jump\t// in\n    tag_24:\n      mload(0x40)\n      tag_26\n      swap2\n      swap1\n      tag_11\n      jump\t// in\n    tag_26:\n      mload(0x40)\n      dup1\n      swap2\n      sub\n      swap1\n      return\n        /* \"code7_4.sol\":50:67  int256 public sum */\n    tag_9:\n      sload(0x00)\n      dup2\n      jump\t// out\n        /* \"code7_4.sol\":792:1230  function start (int256 number1, int256 number2) public returns (int256,int256,int256,int256){... */\n    tag_15:\n        /* \"code7_4.sol\":856:862  int256 */\n      0x00\n        /* \"code7_4.sol\":863:869  int256 */\n      dup1\n        /* \"code7_4.sol\":870:876  int256 */\n      0x00\n        /* \"code7_4.sol\":877:883  int256 */\n      dup1\n        /* \"code7_4.sol\":897:923  addition (number1,number2) */\n      tag_28\n        /* \"code7_4.sol\":907:914  number1 */\n      dup7\n        /* \"code7_4.sol\":915:922  number2 */\n      dup7\n        /* \"code7_4.sol\":897:905  addition */\n      tag_29\n        /* \"code7_4.sol\":897:923  addition (number1,number2) */\n      jump\t// in\n    tag_28:\n        /* \"code7_4.sol\":934:964  substraction (number1,number2) */\n      tag_30\n        /* \"code7_4.sol\":948:955  number1 */\n      dup7\n        /* \"code7_4.sol\":956:963  number2 */\n      dup7\n        /* \"code7_4.sol\":934:946  substraction */\n      tag_31\n        /* \"code7_4.sol\":934:964  substraction (number1,number2) */\n      jump\t// in\n    tag_30:\n        /* \"code7_4.sol\":975:1007  multiplication (number1,number2) */\n      tag_32\n        /* \"code7_4.sol\":991:998  number1 */\n      dup7\n        /* \"code7_4.sol\":999:1006  number2 */\n      dup7\n        /* \"code7_4.sol\":975:989  multiplication */\n      tag_33\n        /* \"code7_4.sol\":975:1007  multiplication (number1,number2) */\n      jump\t// in\n    tag_32:\n        /* \"code7_4.sol\":1018:1044  division (number1,number2) */\n      tag_34\n        /* \"code7_4.sol\":1028:1035  number1 */\n      dup7\n        /* \"code7_4.sol\":1036:1043  number2 */\n      dup7\n        /* \"code7_4.sol\":1018:1026  division */\n      tag_35\n        /* \"code7_4.sol\":1018:1044  division (number1,number2) */\n      jump\t// in\n    tag_34:\n        /* \"code7_4.sol\":1055:1066  int256 _sum */\n      0x00\n        /* \"code7_4.sol\":1077:1088  int256 _sub */\n      dup1\n        /* \"code7_4.sol\":1099:1111  int256 _mult */\n      0x00\n        /* \"code7_4.sol\":1122:1133  int256 _div */\n      dup1\n        /* \"code7_4.sol\":1169:1180  getResult() */\n      tag_36\n        /* \"code7_4.sol\":1169:1178  getResult */\n      tag_37\n        /* \"code7_4.sol\":1169:1180  getResult() */\n      jump\t// in\n    tag_36:\n        /* \"code7_4.sol\":1144:1180  (_sum,_sub,_mult,_div) = getResult() */\n      dup1\n      swap5\n      pop\n      dup2\n      swap6\n      pop\n      dup3\n      swap7\n      pop\n      dup4\n      swap8\n      pop\n      pop\n      pop\n      pop\n      pop\n        /* \"code7_4.sol\":1199:1203  _sum */\n      dup4\n        /* \"code7_4.sol\":1204:1208  _sub */\n      dup4\n        /* \"code7_4.sol\":1209:1214  _mult */\n      dup4\n        /* \"code7_4.sol\":1215:1219  _div */\n      dup4\n        /* \"code7_4.sol\":1191:1220  return (_sum,_sub,_mult,_div) */\n      swap8\n      pop\n      swap8\n      pop\n      swap8\n      pop\n      swap8\n      pop\n      pop\n      pop\n      pop\n      pop\n        /* \"code7_4.sol\":792:1230  function start (int256 number1, int256 number2) public returns (int256,int256,int256,int256){... */\n      swap3\n      swap6\n      swap2\n      swap5\n      pop\n      swap3\n      pop\n      jump\t// out\n        /* \"code7_4.sol\":74:91  int256 public sub */\n    tag_19:\n      sload(0x01)\n      dup2\n      jump\t// out\n        /* \"code7_4.sol\":98:116  int256 public mult */\n    tag_22:\n      sload(0x02)\n      dup2\n      jump\t// out\n        /* \"code7_4.sol\":123:140  int256 public div */\n    tag_25:\n      sload(0x03)\n      dup2\n      jump\t// out\n        /* \"code7_4.sol\":149:248  function addition (int256 number1,int256 number2) internal {... */\n    tag_29:\n        /* \"code7_4.sol\":231:238  number2 */\n      dup1\n        /* \"code7_4.sol\":223:230  number1 */\n      dup3\n        /* \"code7_4.sol\":223:238  number1+number2 */\n      tag_39\n      swap2\n      swap1\n      tag_40\n      jump\t// in\n    tag_39:\n        /* \"code7_4.sol\":219:222  sum */\n      0x00\n        /* \"code7_4.sol\":219:238  sum=number1+number2 */\n      dup2\n      swap1\n      sstore\n      pop\n        /* \"code7_4.sol\":149:248  function addition (int256 number1,int256 number2) internal {... */\n      pop\n      pop\n      jump\t// out\n        /* \"code7_4.sol\":254:358  function substraction (int256 number1,int256 number2) internal {... */\n    tag_31:\n        /* \"code7_4.sol\":340:347  number2 */\n      dup1\n        /* \"code7_4.sol\":332:339  number1 */\n      dup3\n        /* \"code7_4.sol\":332:347  number1-number2 */\n      tag_42\n      swap2\n      swap1\n      tag_43\n      jump\t// in\n    tag_42:\n        /* \"code7_4.sol\":328:331  sub */\n      0x01\n        /* \"code7_4.sol\":328:347  sub=number1-number2 */\n      dup2\n      swap1\n      sstore\n      pop\n        /* \"code7_4.sol\":254:358  function substraction (int256 number1,int256 number2) internal {... */\n      pop\n      pop\n      jump\t// out\n        /* \"code7_4.sol\":372:480  function   multiplication (int256 number1,int256 number2) internal {... */\n    tag_33:\n        /* \"code7_4.sol\":463:470  number2 */\n      dup1\n        /* \"code7_4.sol\":455:462  number1 */\n      dup3\n        /* \"code7_4.sol\":455:470  number1*number2 */\n      tag_45\n      swap2\n      swap1\n      tag_46\n      jump\t// in\n    tag_45:\n        /* \"code7_4.sol\":450:454  mult */\n      0x02\n        /* \"code7_4.sol\":450:470  mult=number1*number2 */\n      dup2\n      swap1\n      sstore\n      pop\n        /* \"code7_4.sol\":372:480  function   multiplication (int256 number1,int256 number2) internal {... */\n      pop\n      pop\n      jump\t// out\n        /* \"code7_4.sol\":489:642  function   division (int256 number1,int256 number2) internal {... */\n    tag_35:\n        /* \"code7_4.sol\":580:581  0 */\n      0x00\n        /* \"code7_4.sol\":570:577  number2 */\n      dup2\n        /* \"code7_4.sol\":570:581  number2 !=0 */\n      sub\n        /* \"code7_4.sol\":561:604  require (number2 !=0,'No division by zero') */\n      tag_48\n      jumpi\n      mload(0x40)\n      0x08c379a000000000000000000000000000000000000000000000000000000000\n      dup2\n      mstore\n      0x04\n      add\n      tag_49\n      swap1\n      tag_50\n      jump\t// in\n    tag_49:\n      mload(0x40)\n      dup1\n      swap2\n      sub\n      swap1\n      revert\n    tag_48:\n        /* \"code7_4.sol\":627:634  number2 */\n      dup1\n        /* \"code7_4.sol\":619:626  number1 */\n      dup3\n        /* \"code7_4.sol\":619:634  number1/number2 */\n      tag_51\n      swap2\n      swap1\n      tag_52\n      jump\t// in\n    tag_51:\n        /* \"code7_4.sol\":615:618  div */\n      0x03\n        /* \"code7_4.sol\":615:634  div=number1/number2 */\n      dup2\n      swap1\n      sstore\n      pop\n        /* \"code7_4.sol\":489:642  function   division (int256 number1,int256 number2) internal {... */\n      pop\n      pop\n      jump\t// out\n        /* \"code7_4.sol\":656:776  function getResult() internal  view returns  (int256,int256,int256,int256) {... */\n    tag_37:\n        /* \"code7_4.sol\":702:708  int256 */\n      0x00\n        /* \"code7_4.sol\":709:715  int256 */\n      dup1\n        /* \"code7_4.sol\":716:722  int256 */\n      0x00\n        /* \"code7_4.sol\":723:729  int256 */\n      dup1\n        /* \"code7_4.sol\":750:753  sum */\n      sload(0x00)\n        /* \"code7_4.sol\":754:757  sub */\n      sload(0x01)\n        /* \"code7_4.sol\":758:762  mult */\n      sload(0x02)\n        /* \"code7_4.sol\":763:766  div */\n      sload(0x03)\n        /* \"code7_4.sol\":742:767  return (sum,sub,mult,div) */\n      swap4\n      pop\n      swap4\n      pop\n      swap4\n      pop\n      swap4\n      pop\n        /* \"code7_4.sol\":656:776  function getResult() internal  view returns  (int256,int256,int256,int256) {... */\n      swap1\n      swap2\n      swap3\n      swap4\n      jump\t// out\n        /* \"#utility.yul\":7:83   */\n    tag_54:\n        /* \"#utility.yul\":43:50   */\n      0x00\n        /* \"#utility.yul\":72:77   */\n      dup2\n        /* \"#utility.yul\":61:77   */\n      swap1\n      pop\n        /* \"#utility.yul\":7:83   */\n      swap2\n      swap1\n      pop\n      jump\t// out\n        /* \"#utility.yul\":89:204   */\n    tag_55:\n        /* \"#utility.yul\":174:197   */\n      tag_69\n        /* \"#utility.yul\":191:196   */\n      dup2\n        /* \"#utility.yul\":174:197   */\n      tag_54\n      jump\t// in\n    tag_69:\n        /* \"#utility.yul\":169:172   */\n      dup3\n        /* \"#utility.yul\":162:198   */\n      mstore\n        /* \"#utility.yul\":89:204   */\n      pop\n      pop\n      jump\t// out\n        /* \"#utility.yul\":210:428   */\n    tag_11:\n        /* \"#utility.yul\":301:305   */\n      0x00\n        /* \"#utility.yul\":339:341   */\n      0x20\n        /* \"#utility.yul\":328:337   */\n      dup3\n        /* \"#utility.yul\":324:342   */\n      add\n        /* \"#utility.yul\":316:342   */\n      swap1\n      pop\n        /* \"#utility.yul\":352:421   */\n      tag_71\n        /* \"#utility.yul\":418:419   */\n      0x00\n        /* \"#utility.yul\":407:416   */\n      dup4\n        /* \"#utility.yul\":403:420   */\n      add\n        /* \"#utility.yul\":394:400   */\n      dup5\n        /* \"#utility.yul\":352:421   */\n      tag_55\n      jump\t// in\n    tag_71:\n        /* \"#utility.yul\":210:428   */\n      swap3\n      swap2\n      pop\n      pop\n      jump\t// out\n        /* \"#utility.yul\":515:632   */\n    tag_57:\n        /* \"#utility.yul\":624:625   */\n      0x00\n        /* \"#utility.yul\":621:622   */\n      dup1\n        /* \"#utility.yul\":614:626   */\n      revert\n        /* \"#utility.yul\":761:881   */\n    tag_59:\n        /* \"#utility.yul\":833:856   */\n      tag_76\n        /* \"#utility.yul\":850:855   */\n      dup2\n        /* \"#utility.yul\":833:856   */\n      tag_54\n      jump\t// in\n    tag_76:\n        /* \"#utility.yul\":826:831   */\n      dup2\n        /* \"#utility.yul\":823:857   */\n      eq\n        /* \"#utility.yul\":813:875   */\n      tag_77\n      jumpi\n        /* \"#utility.yul\":871:872   */\n      0x00\n        /* \"#utility.yul\":868:869   */\n      dup1\n        /* \"#utility.yul\":861:873   */\n      revert\n        /* \"#utility.yul\":813:875   */\n    tag_77:\n        /* \"#utility.yul\":761:881   */\n      pop\n      jump\t// out\n        /* \"#utility.yul\":887:1024   */\n    tag_60:\n        /* \"#utility.yul\":932:937   */\n      0x00\n        /* \"#utility.yul\":970:976   */\n      dup2\n        /* \"#utility.yul\":957:977   */\n      calldataload\n        /* \"#utility.yul\":948:977   */\n      swap1\n      pop\n        /* \"#utility.yul\":986:1018   */\n      tag_79\n        /* \"#utility.yul\":1012:1017   */\n      dup2\n        /* \"#utility.yul\":986:1018   */\n      tag_59\n      jump\t// in\n    tag_79:\n        /* \"#utility.yul\":887:1024   */\n      swap3\n      swap2\n      pop\n      pop\n      jump\t// out\n        /* \"#utility.yul\":1030:1500   */\n    tag_14:\n        /* \"#utility.yul\":1096:1102   */\n      0x00\n        /* \"#utility.yul\":1104:1110   */\n      dup1\n        /* \"#utility.yul\":1153:1155   */\n      0x40\n        /* \"#utility.yul\":1141:1150   */\n      dup4\n        /* \"#utility.yul\":1132:1139   */\n      dup6\n        /* \"#utility.yul\":1128:1151   */\n      sub\n        /* \"#utility.yul\":1124:1156   */\n      slt\n        /* \"#utility.yul\":1121:1240   */\n      iszero\n      tag_81\n      jumpi\n        /* \"#utility.yul\":1159:1238   */\n      tag_82\n      tag_57\n      jump\t// in\n    tag_82:\n        /* \"#utility.yul\":1121:1240   */\n    tag_81:\n        /* \"#utility.yul\":1279:1280   */\n      0x00\n        /* \"#utility.yul\":1304:1356   */\n      tag_83\n        /* \"#utility.yul\":1348:1355   */\n      dup6\n        /* \"#utility.yul\":1339:1345   */\n      dup3\n        /* \"#utility.yul\":1328:1337   */\n      dup7\n        /* \"#utility.yul\":1324:1346   */\n      add\n        /* \"#utility.yul\":1304:1356   */\n      tag_60\n      jump\t// in\n    tag_83:\n        /* \"#utility.yul\":1294:1356   */\n      swap3\n      pop\n        /* \"#utility.yul\":1250:1366   */\n      pop\n        /* \"#utility.yul\":1405:1407   */\n      0x20\n        /* \"#utility.yul\":1431:1483   */\n      tag_84\n        /* \"#utility.yul\":1475:1482   */\n      dup6\n        /* \"#utility.yul\":1466:1472   */\n      dup3\n        /* \"#utility.yul\":1455:1464   */\n      dup7\n        /* \"#utility.yul\":1451:1473   */\n      add\n        /* \"#utility.yul\":1431:1483   */\n      tag_60\n      jump\t// in\n    tag_84:\n        /* \"#utility.yul\":1421:1483   */\n      swap2\n      pop\n        /* \"#utility.yul\":1376:1493   */\n      pop\n        /* \"#utility.yul\":1030:1500   */\n      swap3\n      pop\n      swap3\n      swap1\n      pop\n      jump\t// out\n        /* \"#utility.yul\":1506:2043   */\n    tag_17:\n        /* \"#utility.yul\":1675:1679   */\n      0x00\n        /* \"#utility.yul\":1713:1716   */\n      0x80\n        /* \"#utility.yul\":1702:1711   */\n      dup3\n        /* \"#utility.yul\":1698:1717   */\n      add\n        /* \"#utility.yul\":1690:1717   */\n      swap1\n      pop\n        /* \"#utility.yul\":1727:1796   */\n      tag_86\n        /* \"#utility.yul\":1793:1794   */\n      0x00\n        /* \"#utility.yul\":1782:1791   */\n      dup4\n        /* \"#utility.yul\":1778:1795   */\n      add\n        /* \"#utility.yul\":1769:1775   */\n      dup8\n        /* \"#utility.yul\":1727:1796   */\n      tag_55\n      jump\t// in\n    tag_86:\n        /* \"#utility.yul\":1806:1876   */\n      tag_87\n        /* \"#utility.yul\":1872:1874   */\n      0x20\n        /* \"#utility.yul\":1861:1870   */\n      dup4\n        /* \"#utility.yul\":1857:1875   */\n      add\n        /* \"#utility.yul\":1848:1854   */\n      dup7\n        /* \"#utility.yul\":1806:1876   */\n      tag_55\n      jump\t// in\n    tag_87:\n        /* \"#utility.yul\":1886:1956   */\n      tag_88\n        /* \"#utility.yul\":1952:1954   */\n      0x40\n        /* \"#utility.yul\":1941:1950   */\n      dup4\n        /* \"#utility.yul\":1937:1955   */\n      add\n        /* \"#utility.yul\":1928:1934   */\n      dup6\n        /* \"#utility.yul\":1886:1956   */\n      tag_55\n      jump\t// in\n    tag_88:\n        /* \"#utility.yul\":1966:2036   */\n      tag_89\n        /* \"#utility.yul\":2032:2034   */\n      0x60\n        /* \"#utility.yul\":2021:2030   */\n      dup4\n        /* \"#utility.yul\":2017:2035   */\n      add\n        /* \"#utility.yul\":2008:2014   */\n      dup5\n        /* \"#utility.yul\":1966:2036   */\n      tag_55\n      jump\t// in\n    tag_89:\n        /* \"#utility.yul\":1506:2043   */\n      swap6\n      swap5\n      pop\n      pop\n      pop\n      pop\n      pop\n      jump\t// out\n        /* \"#utility.yul\":2049:2229   */\n    tag_61:\n        /* \"#utility.yul\":2097:2174   */\n      0x4e487b7100000000000000000000000000000000000000000000000000000000\n        /* \"#utility.yul\":2094:2095   */\n      0x00\n        /* \"#utility.yul\":2087:2175   */\n      mstore\n        /* \"#utility.yul\":2194:2198   */\n      0x11\n        /* \"#utility.yul\":2191:2192   */\n      0x04\n        /* \"#utility.yul\":2184:2199   */\n      mstore\n        /* \"#utility.yul\":2218:2222   */\n      0x24\n        /* \"#utility.yul\":2215:2216   */\n      0x00\n        /* \"#utility.yul\":2208:2223   */\n      revert\n        /* \"#utility.yul\":2235:2610   */\n    tag_40:\n        /* \"#utility.yul\":2274:2277   */\n      0x00\n        /* \"#utility.yul\":2293:2312   */\n      tag_92\n        /* \"#utility.yul\":2310:2311   */\n      dup3\n        /* \"#utility.yul\":2293:2312   */\n      tag_54\n      jump\t// in\n    tag_92:\n        /* \"#utility.yul\":2288:2312   */\n      swap2\n      pop\n        /* \"#utility.yul\":2326:2345   */\n      tag_93\n        /* \"#utility.yul\":2343:2344   */\n      dup4\n        /* \"#utility.yul\":2326:2345   */\n      tag_54\n      jump\t// in\n    tag_93:\n        /* \"#utility.yul\":2321:2345   */\n      swap3\n      pop\n        /* \"#utility.yul\":2368:2369   */\n      dup3\n        /* \"#utility.yul\":2365:2366   */\n      dup3\n        /* \"#utility.yul\":2361:2370   */\n      add\n        /* \"#utility.yul\":2354:2370   */\n      swap1\n      pop\n        /* \"#utility.yul\":2566:2567   */\n      dup3\n        /* \"#utility.yul\":2561:2564   */\n      dup2\n        /* \"#utility.yul\":2557:2568   */\n      slt\n        /* \"#utility.yul\":2550:2569   */\n      iszero\n        /* \"#utility.yul\":2546:2547   */\n      0x00\n        /* \"#utility.yul\":2543:2544   */\n      dup4\n        /* \"#utility.yul\":2539:2548   */\n      slt\n        /* \"#utility.yul\":2535:2570   */\n      and\n        /* \"#utility.yul\":2518:2519   */\n      dup4\n        /* \"#utility.yul\":2513:2516   */\n      dup3\n        /* \"#utility.yul\":2509:2520   */\n      slt\n        /* \"#utility.yul\":2504:2505   */\n      0x00\n        /* \"#utility.yul\":2501:2502   */\n      dup5\n        /* \"#utility.yul\":2497:2506   */\n      slt\n        /* \"#utility.yul\":2490:2507   */\n      iszero\n        /* \"#utility.yul\":2486:2521   */\n      and\n        /* \"#utility.yul\":2470:2580   */\n      or\n        /* \"#utility.yul\":2467:2603   */\n      iszero\n      tag_94\n      jumpi\n        /* \"#utility.yul\":2583:2601   */\n      tag_95\n      tag_61\n      jump\t// in\n    tag_95:\n        /* \"#utility.yul\":2467:2603   */\n    tag_94:\n        /* \"#utility.yul\":2235:2610   */\n      swap3\n      swap2\n      pop\n      pop\n      jump\t// out\n        /* \"#utility.yul\":2616:2988   */\n    tag_43:\n        /* \"#utility.yul\":2655:2659   */\n      0x00\n        /* \"#utility.yul\":2675:2694   */\n      tag_97\n        /* \"#utility.yul\":2692:2693   */\n      dup3\n        /* \"#utility.yul\":2675:2694   */\n      tag_54\n      jump\t// in\n    tag_97:\n        /* \"#utility.yul\":2670:2694   */\n      swap2\n      pop\n        /* \"#utility.yul\":2708:2727   */\n      tag_98\n        /* \"#utility.yul\":2725:2726   */\n      dup4\n        /* \"#utility.yul\":2708:2727   */\n      tag_54\n      jump\t// in\n    tag_98:\n        /* \"#utility.yul\":2703:2727   */\n      swap3\n      pop\n        /* \"#utility.yul\":2751:2752   */\n      dup3\n        /* \"#utility.yul\":2748:2749   */\n      dup3\n        /* \"#utility.yul\":2744:2753   */\n      sub\n        /* \"#utility.yul\":2736:2753   */\n      swap1\n      pop\n        /* \"#utility.yul\":2945:2946   */\n      dup2\n        /* \"#utility.yul\":2939:2943   */\n      dup2\n        /* \"#utility.yul\":2935:2947   */\n      slt\n        /* \"#utility.yul\":2931:2932   */\n      0x00\n        /* \"#utility.yul\":2928:2929   */\n      dup5\n        /* \"#utility.yul\":2924:2933   */\n      slt\n        /* \"#utility.yul\":2920:2948   */\n      and\n        /* \"#utility.yul\":2903:2904   */\n      dup3\n        /* \"#utility.yul\":2897:2901   */\n      dup3\n        /* \"#utility.yul\":2893:2905   */\n      sgt\n        /* \"#utility.yul\":2888:2889   */\n      0x00\n        /* \"#utility.yul\":2885:2886   */\n      dup6\n        /* \"#utility.yul\":2881:2890   */\n      slt\n        /* \"#utility.yul\":2874:2891   */\n      iszero\n        /* \"#utility.yul\":2870:2906   */\n      and\n        /* \"#utility.yul\":2854:2958   */\n      or\n        /* \"#utility.yul\":2851:2981   */\n      iszero\n      tag_99\n      jumpi\n        /* \"#utility.yul\":2961:2979   */\n      tag_100\n      tag_61\n      jump\t// in\n    tag_100:\n        /* \"#utility.yul\":2851:2981   */\n    tag_99:\n        /* \"#utility.yul\":2616:2988   */\n      swap3\n      swap2\n      pop\n      pop\n      jump\t// out\n        /* \"#utility.yul\":2994:3550   */\n    tag_46:\n        /* \"#utility.yul\":3033:3040   */\n      0x00\n        /* \"#utility.yul\":3056:3075   */\n      tag_102\n        /* \"#utility.yul\":3073:3074   */\n      dup3\n        /* \"#utility.yul\":3056:3075   */\n      tag_54\n      jump\t// in\n    tag_102:\n        /* \"#utility.yul\":3051:3075   */\n      swap2\n      pop\n        /* \"#utility.yul\":3089:3108   */\n      tag_103\n        /* \"#utility.yul\":3106:3107   */\n      dup4\n        /* \"#utility.yul\":3089:3108   */\n      tag_54\n      jump\t// in\n    tag_103:\n        /* \"#utility.yul\":3084:3108   */\n      swap3\n      pop\n        /* \"#utility.yul\":3143:3144   */\n      dup3\n        /* \"#utility.yul\":3140:3141   */\n      dup3\n        /* \"#utility.yul\":3136:3145   */\n      mul\n        /* \"#utility.yul\":3165:3194   */\n      tag_104\n        /* \"#utility.yul\":3182:3193   */\n      dup2\n        /* \"#utility.yul\":3165:3194   */\n      tag_54\n      jump\t// in\n    tag_104:\n        /* \"#utility.yul\":3154:3194   */\n      swap2\n      pop\n        /* \"#utility.yul\":3252:3318   */\n      0x8000000000000000000000000000000000000000000000000000000000000000\n        /* \"#utility.yul\":3249:3250   */\n      dup5\n        /* \"#utility.yul\":3246:3319   */\n      eq\n        /* \"#utility.yul\":3242:3243   */\n      0x00\n        /* \"#utility.yul\":3239:3240   */\n      dup5\n        /* \"#utility.yul\":3235:3244   */\n      slt\n        /* \"#utility.yul\":3231:3320   */\n      and\n        /* \"#utility.yul\":3228:3343   */\n      iszero\n      tag_105\n      jumpi\n        /* \"#utility.yul\":3323:3341   */\n      tag_106\n      tag_61\n      jump\t// in\n    tag_106:\n        /* \"#utility.yul\":3228:3343   */\n    tag_105:\n        /* \"#utility.yul\":3493:3494   */\n      dup3\n        /* \"#utility.yul\":3484:3491   */\n      dup3\n        /* \"#utility.yul\":3479:3495   */\n      sdiv\n        /* \"#utility.yul\":3476:3477   */\n      dup5\n        /* \"#utility.yul\":3473:3496   */\n      eq\n        /* \"#utility.yul\":3453:3454   */\n      dup4\n        /* \"#utility.yul\":3446:3455   */\n      iszero\n        /* \"#utility.yul\":3426:3510   */\n      or\n        /* \"#utility.yul\":3403:3543   */\n      tag_107\n      jumpi\n        /* \"#utility.yul\":3523:3541   */\n      tag_108\n      tag_61\n      jump\t// in\n    tag_108:\n        /* \"#utility.yul\":3403:3543   */\n    tag_107:\n        /* \"#utility.yul\":3041:3550   */\n      pop\n        /* \"#utility.yul\":2994:3550   */\n      swap3\n      swap2\n      pop\n      pop\n      jump\t// out\n        /* \"#utility.yul\":3556:3725   */\n    tag_62:\n        /* \"#utility.yul\":3640:3651   */\n      0x00\n        /* \"#utility.yul\":3674:3680   */\n      dup3\n        /* \"#utility.yul\":3669:3672   */\n      dup3\n        /* \"#utility.yul\":3662:3681   */\n      mstore\n        /* \"#utility.yul\":3714:3718   */\n      0x20\n        /* \"#utility.yul\":3709:3712   */\n      dup3\n        /* \"#utility.yul\":3705:3719   */\n      add\n        /* \"#utility.yul\":3690:3719   */\n      swap1\n      pop\n        /* \"#utility.yul\":3556:3725   */\n      swap3\n      swap2\n      pop\n      pop\n      jump\t// out\n        /* \"#utility.yul\":3731:3900   */\n    tag_63:\n        /* \"#utility.yul\":3871:3892   */\n      0x4e6f206469766973696f6e206279207a65726f00000000000000000000000000\n        /* \"#utility.yul\":3867:3868   */\n      0x00\n        /* \"#utility.yul\":3859:3865   */\n      dup3\n        /* \"#utility.yul\":3855:3869   */\n      add\n        /* \"#utility.yul\":3848:3893   */\n      mstore\n        /* \"#utility.yul\":3731:3900   */\n      pop\n      jump\t// out\n        /* \"#utility.yul\":3906:4272   */\n    tag_64:\n        /* \"#utility.yul\":4048:4051   */\n      0x00\n        /* \"#utility.yul\":4069:4136   */\n      tag_112\n        /* \"#utility.yul\":4133:4135   */\n      0x13\n        /* \"#utility.yul\":4128:4131   */\n      dup4\n        /* \"#utility.yul\":4069:4136   */\n      tag_62\n      jump\t// in\n    tag_112:\n        /* \"#utility.yul\":4062:4136   */\n      swap2\n      pop\n        /* \"#utility.yul\":4145:4238   */\n      tag_113\n        /* \"#utility.yul\":4234:4237   */\n      dup3\n        /* \"#utility.yul\":4145:4238   */\n      tag_63\n      jump\t// in\n    tag_113:\n        /* \"#utility.yul\":4263:4265   */\n      0x20\n        /* \"#utility.yul\":4258:4261   */\n      dup3\n        /* \"#utility.yul\":4254:4266   */\n      add\n        /* \"#utility.yul\":4247:4266   */\n      swap1\n      pop\n        /* \"#utility.yul\":3906:4272   */\n      swap2\n      swap1\n      pop\n      jump\t// out\n        /* \"#utility.yul\":4278:4697   */\n    tag_50:\n        /* \"#utility.yul\":4444:4448   */\n      0x00\n        /* \"#utility.yul\":4482:4484   */\n      0x20\n        /* \"#utility.yul\":4471:4480   */\n      dup3\n        /* \"#utility.yul\":4467:4485   */\n      add\n        /* \"#utility.yul\":4459:4485   */\n      swap1\n      pop\n        /* \"#utility.yul\":4531:4540   */\n      dup2\n        /* \"#utility.yul\":4525:4529   */\n      dup2\n        /* \"#utility.yul\":4521:4541   */\n      sub\n        /* \"#utility.yul\":4517:4518   */\n      0x00\n        /* \"#utility.yul\":4506:4515   */\n      dup4\n        /* \"#utility.yul\":4502:4519   */\n      add\n        /* \"#utility.yul\":4495:4542   */\n      mstore\n        /* \"#utility.yul\":4559:4690   */\n      tag_115\n        /* \"#utility.yul\":4685:4689   */\n      dup2\n        /* \"#utility.yul\":4559:4690   */\n      tag_64\n      jump\t// in\n    tag_115:\n        /* \"#utility.yul\":4551:4690   */\n      swap1\n      pop\n        /* \"#utility.yul\":4278:4697   */\n      swap2\n      swap1\n      pop\n      jump\t// out\n        /* \"#utility.yul\":4703:4883   */\n    tag_65:\n        /* \"#utility.yul\":4751:4828   */\n      0x4e487b7100000000000000000000000000000000000000000000000000000000\n        /* \"#utility.yul\":4748:4749   */\n      0x00\n        /* \"#utility.yul\":4741:4829   */\n      mstore\n        /* \"#utility.yul\":4848:4852   */\n      0x12\n        /* \"#utility.yul\":4845:4846   */\n      0x04\n        /* \"#utility.yul\":4838:4853   */\n      mstore\n        /* \"#utility.yul\":4872:4876   */\n      0x24\n        /* \"#utility.yul\":4869:4870   */\n      0x00\n        /* \"#utility.yul\":4862:4877   */\n      revert\n        /* \"#utility.yul\":4889:5274   */\n    tag_52:\n        /* \"#utility.yul\":4928:4929   */\n      0x00\n        /* \"#utility.yul\":4945:4964   */\n      tag_118\n        /* \"#utility.yul\":4962:4963   */\n      dup3\n        /* \"#utility.yul\":4945:4964   */\n      tag_54\n      jump\t// in\n    tag_118:\n        /* \"#utility.yul\":4940:4964   */\n      swap2\n      pop\n        /* \"#utility.yul\":4978:4997   */\n      tag_119\n        /* \"#utility.yul\":4995:4996   */\n      dup4\n        /* \"#utility.yul\":4978:4997   */\n      tag_54\n      jump\t// in\n    tag_119:\n        /* \"#utility.yul\":4973:4997   */\n      swap3\n      pop\n        /* \"#utility.yul\":5016:5017   */\n      dup3\n        /* \"#utility.yul\":5006:5041   */\n      tag_120\n      jumpi\n        /* \"#utility.yul\":5021:5039   */\n      tag_121\n      tag_65\n      jump\t// in\n    tag_121:\n        /* \"#utility.yul\":5006:5041   */\n    tag_120:\n        /* \"#utility.yul\":5207:5208   */\n      0x01\n        /* \"#utility.yul\":5204:5205   */\n      0x00\n        /* \"#utility.yul\":5200:5209   */\n      sub\n        /* \"#utility.yul\":5197:5198   */\n      dup4\n        /* \"#utility.yul\":5194:5210   */\n      eq\n        /* \"#utility.yul\":5113:5179   */\n      0x8000000000000000000000000000000000000000000000000000000000000000\n        /* \"#utility.yul\":5110:5111   */\n      dup4\n        /* \"#utility.yul\":5107:5180   */\n      eq\n        /* \"#utility.yul\":5090:5220   */\n      and\n        /* \"#utility.yul\":5087:5243   */\n      iszero\n      tag_122\n      jumpi\n        /* \"#utility.yul\":5223:5241   */\n      tag_123\n      tag_61\n      jump\t// in\n    tag_123:\n        /* \"#utility.yul\":5087:5243   */\n    tag_122:\n        /* \"#utility.yul\":5266:5267   */\n      dup3\n        /* \"#utility.yul\":5263:5264   */\n      dup3\n        /* \"#utility.yul\":5258:5268   */\n      sdiv\n        /* \"#utility.yul\":5253:5268   */\n      swap1\n      pop\n        /* \"#utility.yul\":4889:5274   */\n      swap3\n      swap2\n      pop\n      pop\n      jump\t// out\n\n    auxdata: 0xa2646970667358221220c16c2a8b96501e52e16dab5bc6b10087f869f8d275e5b1f442ad0cdeaf140de564736f6c634300081a0033\n}\n",
				"bytecode": {
					"linkReferences": {},
					"object": "6080604052348015600e575f80fd5b506105798061001c5f395ff3fe608060405234801561000f575f80fd5b5060043610610055575f3560e01c8063853255cc146100595780639200dac314610077578063c54124be146100aa578063e879a13e146100c8578063f9fa48c3146100e6575b5f80fd5b610061610104565b60405161006e919061024a565b60405180910390f35b610091600480360381019061008c9190610291565b610109565b6040516100a194939291906102cf565b60405180910390f35b6100b261016a565b6040516100bf919061024a565b60405180910390f35b6100d0610170565b6040516100dd919061024a565b60405180910390f35b6100ee610176565b6040516100fb919061024a565b60405180910390f35b5f5481565b5f805f80610117868661017c565b6101218686610191565b61012b86866101a7565b61013586866101bd565b5f805f80610141610215565b809450819550829650839750505050508383838397509750975097505050505092959194509250565b60015481565b60025481565b60035481565b8082610188919061033f565b5f819055505050565b808261019d9190610380565b6001819055505050565b80826101b391906103c0565b6002819055505050565b5f81036101ff576040517f08c379a00000000000000000000000000000000000000000000000000000000081526004016101f690610490565b60405180910390fd5b808261020b91906104db565b6003819055505050565b5f805f805f54600154600254600354935093509350935090919293565b5f819050919050565b61024481610232565b82525050565b5f60208201905061025d5f83018461023b565b92915050565b5f80fd5b61027081610232565b811461027a575f80fd5b50565b5f8135905061028b81610267565b92915050565b5f80604083850312156102a7576102a6610263565b5b5f6102b48582860161027d565b92505060206102c58582860161027d565b9150509250929050565b5f6080820190506102e25f83018761023b565b6102ef602083018661023b565b6102fc604083018561023b565b610309606083018461023b565b95945050505050565b7f4e487b71000000000000000000000000000000000000000000000000000000005f52601160045260245ffd5b5f61034982610232565b915061035483610232565b92508282019050828112155f8312168382125f84121516171561037a57610379610312565b5b92915050565b5f61038a82610232565b915061039583610232565b925082820390508181125f8412168282135f8512151617156103ba576103b9610312565b5b92915050565b5f6103ca82610232565b91506103d583610232565b92508282026103e381610232565b91507f800000000000000000000000000000000000000000000000000000000000000084145f8412161561041a57610419610312565b5b828205841483151761042f5761042e610312565b5b5092915050565b5f82825260208201905092915050565b7f4e6f206469766973696f6e206279207a65726f000000000000000000000000005f82015250565b5f61047a601383610436565b915061048582610446565b602082019050919050565b5f6020820190508181035f8301526104a78161046e565b9050919050565b7f4e487b71000000000000000000000000000000000000000000000000000000005f52601260045260245ffd5b5f6104e582610232565b91506104f083610232565b925082610500576104ff6104ae565b5b60015f0383147f80000000000000000000000000000000000000000000000000000000000000008314161561053857610537610312565b5b82820590509291505056fea2646970667358221220c16c2a8b96501e52e16dab5bc6b10087f869f8d275e5b1f442ad0cdeaf140de564736f6c634300081a0033",
					"opcodes": "PUSH1 0x80 PUSH1 0x40 MSTORE CALLVALUE DUP1 ISZERO PUSH1 0xE JUMPI PUSH0 DUP1 REVERT JUMPDEST POP PUSH2 0x579 DUP1 PUSH2 0x1C PUSH0 CODECOPY PUSH0 RETURN INVALID PUSH1 0x80 PUSH1 0x40 MSTORE CALLVALUE DUP1 ISZERO PUSH2 0xF JUMPI PUSH0 DUP1 REVERT JUMPDEST POP PUSH1 0x4 CALLDATASIZE LT PUSH2 0x55 JUMPI PUSH0 CALLDATALOAD PUSH1 0xE0 SHR DUP1 PUSH4 0x853255CC EQ PUSH2 0x59 JUMPI DUP1 PUSH4 0x9200DAC3 EQ PUSH2 0x77 JUMPI DUP1 PUSH4 0xC54124BE EQ PUSH2 0xAA JUMPI DUP1 PUSH4 0xE879A13E EQ PUSH2 0xC8 JUMPI DUP1 PUSH4 0xF9FA48C3 EQ PUSH2 0xE6 JUMPI JUMPDEST PUSH0 DUP1 REVERT JUMPDEST PUSH2 0x61 PUSH2 0x104 JUMP JUMPDEST PUSH1 0x40 MLOAD PUSH2 0x6E SWAP2 SWAP1 PUSH2 0x24A JUMP JUMPDEST PUSH1 0x40 MLOAD DUP1 SWAP2 SUB SWAP1 RETURN JUMPDEST PUSH2 0x91 PUSH1 0x4 DUP1 CALLDATASIZE SUB DUP2 ADD SWAP1 PUSH2 0x8C SWAP2 SWAP1 PUSH2 0x291 JUMP JUMPDEST PUSH2 0x109 JUMP JUMPDEST PUSH1 0x40 MLOAD PUSH2 0xA1 SWAP5 SWAP4 SWAP3 SWAP2 SWAP1 PUSH2 0x2CF JUMP JUMPDEST PUSH1 0x40 MLOAD DUP1 SWAP2 SUB SWAP1 RETURN JUMPDEST PUSH2 0xB2 PUSH2 0x16A JUMP JUMPDEST PUSH1 0x40 MLOAD PUSH2 0xBF SWAP2 SWAP1 PUSH2 0x24A JUMP JUMPDEST PUSH1 0x40 MLOAD DUP1 SWAP2 SUB SWAP1 RETURN JUMPDEST PUSH2 0xD0 PUSH2 0x170 JUMP JUMPDEST PUSH1 0x40 MLOAD PUSH2 0xDD SWAP2 SWAP1 PUSH2 0x24A JUMP JUMPDEST PUSH1 0x40 MLOAD DUP1 SWAP2 SUB SWAP1 RETURN JUMPDEST PUSH2 0xEE PUSH2 0x176 JUMP JUMPDEST PUSH1 0x40 MLOAD PUSH2 0xFB SWAP2 SWAP1 PUSH2 0x24A JUMP JUMPDEST PUSH1 0x40 MLOAD DUP1 SWAP2 SUB SWAP1 RETURN JUMPDEST PUSH0 SLOAD DUP2 JUMP JUMPDEST PUSH0 DUP1 PUSH0 DUP1 PUSH2 0x117 DUP7 DUP7 PUSH2 0x17C JUMP JUMPDEST PUSH2 0x121 DUP7 DUP7 PUSH2 0x191 JUMP JUMPDEST PUSH2 0x12B DUP7 DUP7 PUSH2 0x1A7 JUMP JUMPDEST PUSH2 0x135 DUP7 DUP7 PUSH2 0x1BD JUMP JUMPDEST PUSH0 DUP1 PUSH0 DUP1 PUSH2 0x141 PUSH2 0x215 JUMP JUMPDEST DUP1 SWAP5 POP DUP2 SWAP6 POP DUP3 SWAP7 POP DUP4 SWAP8 POP POP POP POP POP DUP4 DUP4 DUP4 DUP4 SWAP8 POP SWAP8 POP SWAP8 POP SWAP8 POP POP POP POP POP SWAP3 SWAP6 SWAP2 SWAP5 POP SWAP3 POP JUMP JUMPDEST PUSH1 0x1 SLOAD DUP2 JUMP JUMPDEST PUSH1 0x2 SLOAD DUP2 JUMP JUMPDEST PUSH1 0x3 SLOAD DUP2 JUMP JUMPDEST DUP1 DUP3 PUSH2 0x188 SWAP2 SWAP1 PUSH2 0x33F JUMP JUMPDEST PUSH0 DUP2 SWAP1 SSTORE POP POP POP JUMP JUMPDEST DUP1 DUP3 PUSH2 0x19D SWAP2 SWAP1 PUSH2 0x380 JUMP JUMPDEST PUSH1 0x1 DUP2 SWAP1 SSTORE POP POP POP JUMP JUMPDEST DUP1 DUP3 PUSH2 0x1B3 SWAP2 SWAP1 PUSH2 0x3C0 JUMP JUMPDEST PUSH1 0x2 DUP2 SWAP1 SSTORE POP POP POP JUMP JUMPDEST PUSH0 DUP2 SUB PUSH2 0x1FF JUMPI PUSH1 0x40 MLOAD PUSH32 0x8C379A000000000000000000000000000000000000000000000000000000000 DUP2 MSTORE PUSH1 0x4 ADD PUSH2 0x1F6 SWAP1 PUSH2 0x490 JUMP JUMPDEST PUSH1 0x40 MLOAD DUP1 SWAP2 SUB SWAP1 REVERT JUMPDEST DUP1 DUP3 PUSH2 0x20B SWAP2 SWAP1 PUSH2 0x4DB JUMP JUMPDEST PUSH1 0x3 DUP2 SWAP1 SSTORE POP POP POP JUMP JUMPDEST PUSH0 DUP1 PUSH0 DUP1 PUSH0 SLOAD PUSH1 0x1 SLOAD PUSH1 0x2 SLOAD PUSH1 0x3 SLOAD SWAP4 POP SWAP4 POP SWAP4 POP SWAP4 POP SWAP1 SWAP2 SWAP3 SWAP4 JUMP JUMPDEST PUSH0 DUP2 SWAP1 POP SWAP2 SWAP1 POP JUMP JUMPDEST PUSH2 0x244 DUP2 PUSH2 0x232 JUMP JUMPDEST DUP3 MSTORE POP POP JUMP JUMPDEST PUSH0 PUSH1 0x20 DUP3 ADD SWAP1 POP PUSH2 0x25D PUSH0 DUP4 ADD DUP5 PUSH2 0x23B JUMP JUMPDEST SWAP3 SWAP2 POP POP JUMP JUMPDEST PUSH0 DUP1 REVERT JUMPDEST PUSH2 0x270 DUP2 PUSH2 0x232 JUMP JUMPDEST DUP2 EQ PUSH2 0x27A JUMPI PUSH0 DUP1 REVERT JUMPDEST POP JUMP JUMPDEST PUSH0 DUP2 CALLDATALOAD SWAP1 POP PUSH2 0x28B DUP2 PUSH2 0x267 JUMP JUMPDEST SWAP3 SWAP2 POP POP JUMP JUMPDEST PUSH0 DUP1 PUSH1 0x40 DUP4 DUP6 SUB SLT ISZERO PUSH2 0x2A7 JUMPI PUSH2 0x2A6 PUSH2 0x263 JUMP JUMPDEST JUMPDEST PUSH0 PUSH2 0x2B4 DUP6 DUP3 DUP7 ADD PUSH2 0x27D JUMP JUMPDEST SWAP3 POP POP PUSH1 0x20 PUSH2 0x2C5 DUP6 DUP3 DUP7 ADD PUSH2 0x27D JUMP JUMPDEST SWAP2 POP POP SWAP3 POP SWAP3 SWAP1 POP JUMP JUMPDEST PUSH0 PUSH1 0x80 DUP3 ADD SWAP1 POP PUSH2 0x2E2 PUSH0 DUP4 ADD DUP8 PUSH2 0x23B JUMP JUMPDEST PUSH2 0x2EF PUSH1 0x20 DUP4 ADD DUP7 PUSH2 0x23B JUMP JUMPDEST PUSH2 0x2FC PUSH1 0x40 DUP4 ADD DUP6 PUSH2 0x23B JUMP JUMPDEST PUSH2 0x309 PUSH1 0x60 DUP4 ADD DUP5 PUSH2 0x23B JUMP JUMPDEST SWAP6 SWAP5 POP POP POP POP POP JUMP JUMPDEST PUSH32 0x4E487B7100000000000000000000000000000000000000000000000000000000 PUSH0 MSTORE PUSH1 0x11 PUSH1 0x4 MSTORE PUSH1 0x24 PUSH0 REVERT JUMPDEST PUSH0 PUSH2 0x349 DUP3 PUSH2 0x232 JUMP JUMPDEST SWAP2 POP PUSH2 0x354 DUP4 PUSH2 0x232 JUMP JUMPDEST SWAP3 POP DUP3 DUP3 ADD SWAP1 POP DUP3 DUP2 SLT ISZERO PUSH0 DUP4 SLT AND DUP4 DUP3 SLT PUSH0 DUP5 SLT ISZERO AND OR ISZERO PUSH2 0x37A JUMPI PUSH2 0x379 PUSH2 0x312 JUMP JUMPDEST JUMPDEST SWAP3 SWAP2 POP POP JUMP JUMPDEST PUSH0 PUSH2 0x38A DUP3 PUSH2 0x232 JUMP JUMPDEST SWAP2 POP PUSH2 0x395 DUP4 PUSH2 0x232 JUMP JUMPDEST SWAP3 POP DUP3 DUP3 SUB SWAP1 POP DUP2 DUP2 SLT PUSH0 DUP5 SLT AND DUP3 DUP3 SGT PUSH0 DUP6 SLT ISZERO AND OR ISZERO PUSH2 0x3BA JUMPI PUSH2 0x3B9 PUSH2 0x312 JUMP JUMPDEST JUMPDEST SWAP3 SWAP2 POP POP JUMP JUMPDEST PUSH0 PUSH2 0x3CA DUP3 PUSH2 0x232 JUMP JUMPDEST SWAP2 POP PUSH2 0x3D5 DUP4 PUSH2 0x232 JUMP JUMPDEST SWAP3 POP DUP3 DUP3 MUL PUSH2 0x3E3 DUP2 PUSH2 0x232 JUMP JUMPDEST SWAP2 POP PUSH32 0x8000000000000000000000000000000000000000000000000000000000000000 DUP5 EQ PUSH0 DUP5 SLT AND ISZERO PUSH2 0x41A JUMPI PUSH2 0x419 PUSH2 0x312 JUMP JUMPDEST JUMPDEST DUP3 DUP3 SDIV DUP5 EQ DUP4 ISZERO OR PUSH2 0x42F JUMPI PUSH2 0x42E PUSH2 0x312 JUMP JUMPDEST JUMPDEST POP SWAP3 SWAP2 POP POP JUMP JUMPDEST PUSH0 DUP3 DUP3 MSTORE PUSH1 0x20 DUP3 ADD SWAP1 POP SWAP3 SWAP2 POP POP JUMP JUMPDEST PUSH32 0x4E6F206469766973696F6E206279207A65726F00000000000000000000000000 PUSH0 DUP3 ADD MSTORE POP JUMP JUMPDEST PUSH0 PUSH2 0x47A PUSH1 0x13 DUP4 PUSH2 0x436 JUMP JUMPDEST SWAP2 POP PUSH2 0x485 DUP3 PUSH2 0x446 JUMP JUMPDEST PUSH1 0x20 DUP3 ADD SWAP1 POP SWAP2 SWAP1 POP JUMP JUMPDEST PUSH0 PUSH1 0x20 DUP3 ADD SWAP1 POP DUP2 DUP2 SUB PUSH0 DUP4 ADD MSTORE PUSH2 0x4A7 DUP2 PUSH2 0x46E JUMP JUMPDEST SWAP1 POP SWAP2 SWAP1 POP JUMP JUMPDEST PUSH32 0x4E487B7100000000000000000000000000000000000000000000000000000000 PUSH0 MSTORE PUSH1 0x12 PUSH1 0x4 MSTORE PUSH1 0x24 PUSH0 REVERT JUMPDEST PUSH0 PUSH2 0x4E5 DUP3 PUSH2 0x232 JUMP JUMPDEST SWAP2 POP PUSH2 0x4F0 DUP4 PUSH2 0x232 JUMP JUMPDEST SWAP3 POP DUP3 PUSH2 0x500 JUMPI PUSH2 0x4FF PUSH2 0x4AE JUMP JUMPDEST JUMPDEST PUSH1 0x1 PUSH0 SUB DUP4 EQ PUSH32 0x8000000000000000000000000000000000000000000000000000000000000000 DUP4 EQ AND ISZERO PUSH2 0x538 JUMPI PUSH2 0x537 PUSH2 0x312 JUMP JUMPDEST JUMPDEST DUP3 DUP3 SDIV SWAP1 POP SWAP3 SWAP2 POP POP JUMP INVALID LOG2 PUSH5 0x6970667358 0x22 SLT KECCAK256 0xC1 PUSH13 0x2A8B96501E52E16DAB5BC6B100 DUP8 0xF8 PUSH10 0xF8D275E5B1F442AD0CDE 0xAF EQ 0xD 0xE5 PUSH5 0x736F6C6343 STOP ADDMOD BYTE STOP CALLER "
				},
				"gasEstimates": {
					"creation": {
						"codeDepositCost": "280200",
						"executionCost": "316",
						"totalCost": "280516"
					},
					"external": {
						"div()": "2491",
						"mult()": "2469",
						"start(int256,int256)": "infinite",
						"sub()": "2447",
						"sum()": "2402"
					},
					"internal": {
						"addition(int256,int256)": "infinite",
						"division(int256,int256)": "infinite",
						"getResult()": "8462",
						"multiplication(int256,int256)": "infinite",
						"substraction(int256,int256)": "infinite"
					}
				},
				"methodIdentifiers": {
					"div()": "f9fa48c3",
					"mult()": "e879a13e",
					"start(int256,int256)": "9200dac3",
					"sub()": "c54124be",
					"sum()": "853255cc"
				}
			},
			"storageLayout": {
				"storage": [
					{
						"astId": 3,
						"contract": "code7_4.sol:task4",
						"label": "sum",
						"offset": 0,
						"slot": "0",
						"type": "t_int256"
					},
					{
						"astId": 5,
						"contract": "code7_4.sol:task4",
						"label": "sub",
						"offset": 0,
						"slot": "1",
						"type": "t_int256"
					},
					{
						"astId": 7,
						"contract": "code7_4.sol:task4",
						"label": "mult",
						"offset": 0,
						"slot": "2",
						"type": "t_int256"
					},
					{
						"astId": 9,
						"contract": "code7_4.sol:task4",
						"label": "div",
						"offset": 0,
						"slot": "3",
						"type": "t_int256"
					}
				],
				"types": {
					"t_int256": {
						"encoding": "inplace",
						"label": "int256",
						"numberOfBytes": "32"
					}
				}
			},
			"userdoc": {
				"kind": "user",
				"methods": {},
				"version": 1
			}
		}
	}
}