{
	"example3_3.sol": {
		"ConditionalCheck": {
			"abi": [
				{
					"inputs": [
						{
							"internalType": "uint256",
							"name": "a",
							"type": "uint256"
						},
						{
							"internalType": "uint256",
							"name": "b",
							"type": "uint256"
						},
						{
							"internalType": "uint256",
							"name": "c",
							"type": "uint256"
						}
					],
					"name": "checkConditions",
					"outputs": [
						{
							"internalType": "bool",
							"name": "",
							"type": "bool"
						}
					],
					"stateMutability": "pure",
					"type": "function"
				}
			],
			"devdoc": {
				"kind": "dev",
				"methods": {},
				"version": 1
			},
			"evm": {
				"assembly": "    /* \"example3_3.sol\":27:351  contract ConditionalCheck {... */\n  mstore(0x40, 0x80)\n  callvalue\n  dup1\n  iszero\n  tag_1\n  jumpi\n  0x00\n  dup1\n  revert\ntag_1:\n  pop\n  dataSize(sub_0)\n  dup1\n  dataOffset(sub_0)\n  0x00\n  codecopy\n  0x00\n  return\nstop\n\nsub_0: assembly {\n        /* \"example3_3.sol\":27:351  contract ConditionalCheck {... */\n      mstore(0x40, 0x80)\n      callvalue\n      dup1\n      iszero\n      tag_1\n      jumpi\n      0x00\n      dup1\n      revert\n    tag_1:\n      pop\n      jumpi(tag_2, lt(calldatasize, 0x04))\n      shr(0xe0, calldataload(0x00))\n      dup1\n      0x87e5bc6c\n      eq\n      tag_3\n      jumpi\n    tag_2:\n      0x00\n      dup1\n      revert\n        /* \"example3_3.sol\":142:348  function checkConditions(uint256 a, uint256 b, uint256 c) public pure returns (bool) {... */\n    tag_3:\n      tag_4\n      0x04\n      dup1\n      calldatasize\n      sub\n      dup2\n      add\n      swap1\n      tag_5\n      swap2\n      swap1\n      tag_6\n      jump\t// in\n    tag_5:\n      tag_7\n      jump\t// in\n    tag_4:\n      mload(0x40)\n      tag_8\n      swap2\n      swap1\n      tag_9\n      jump\t// in\n    tag_8:\n      mload(0x40)\n      dup1\n      swap2\n      sub\n      swap1\n      return\n    tag_7:\n        /* \"example3_3.sol\":221:225  bool */\n      0x00\n        /* \"example3_3.sol\":247:248  b */\n      dup3\n        /* \"example3_3.sol\":243:244  a */\n      dup5\n        /* \"example3_3.sol\":243:248  a > b */\n      gt\n        /* \"example3_3.sol\":243:257  a > b && a > c */\n      dup1\n      iszero\n      tag_11\n      jumpi\n      pop\n        /* \"example3_3.sol\":256:257  c */\n      dup2\n        /* \"example3_3.sol\":252:253  a */\n      dup5\n        /* \"example3_3.sol\":252:257  a > c */\n      gt\n        /* \"example3_3.sol\":243:257  a > b && a > c */\n    tag_11:\n        /* \"example3_3.sol\":242:278  (a > b && a > c) || (a > c && a < b) */\n      dup1\n      tag_12\n      jumpi\n      pop\n        /* \"example3_3.sol\":267:268  c */\n      dup2\n        /* \"example3_3.sol\":263:264  a */\n      dup5\n        /* \"example3_3.sol\":263:268  a > c */\n      gt\n        /* \"example3_3.sol\":263:277  a > c && a < b */\n      dup1\n      iszero\n      tag_13\n      jumpi\n      pop\n        /* \"example3_3.sol\":276:277  b */\n      dup3\n        /* \"example3_3.sol\":272:273  a */\n      dup5\n        /* \"example3_3.sol\":272:277  a < b */\n      lt\n        /* \"example3_3.sol\":263:277  a > c && a < b */\n    tag_13:\n        /* \"example3_3.sol\":242:278  (a > b && a > c) || (a > c && a < b) */\n    tag_12:\n        /* \"example3_3.sol\":238:318  if ((a > b && a > c) || (a > c && a < b)) {... */\n      iszero\n      tag_14\n      jumpi\n        /* \"example3_3.sol\":302:306  true */\n      0x01\n        /* \"example3_3.sol\":295:306  return true */\n      swap1\n      pop\n      jump(tag_10)\n        /* \"example3_3.sol\":238:318  if ((a > b && a > c) || (a > c && a < b)) {... */\n    tag_14:\n        /* \"example3_3.sol\":335:340  false */\n      0x00\n        /* \"example3_3.sol\":328:340  return false */\n      swap1\n      pop\n        /* \"example3_3.sol\":142:348  function checkConditions(uint256 a, uint256 b, uint256 c) public pure returns (bool) {... */\n    tag_10:\n      swap4\n      swap3\n      pop\n      pop\n      pop\n      jump\t// out\n        /* \"#utility.yul\":88:205   */\n    tag_16:\n        /* \"#utility.yul\":197:198   */\n      0x00\n        /* \"#utility.yul\":194:195   */\n      dup1\n        /* \"#utility.yul\":187:199   */\n      revert\n        /* \"#utility.yul\":334:411   */\n    tag_18:\n        /* \"#utility.yul\":371:378   */\n      0x00\n        /* \"#utility.yul\":400:405   */\n      dup2\n        /* \"#utility.yul\":389:405   */\n      swap1\n      pop\n        /* \"#utility.yul\":334:411   */\n      swap2\n      swap1\n      pop\n      jump\t// out\n        /* \"#utility.yul\":417:539   */\n    tag_19:\n        /* \"#utility.yul\":490:514   */\n      tag_29\n        /* \"#utility.yul\":508:513   */\n      dup2\n        /* \"#utility.yul\":490:514   */\n      tag_18\n      jump\t// in\n    tag_29:\n        /* \"#utility.yul\":483:488   */\n      dup2\n        /* \"#utility.yul\":480:515   */\n      eq\n        /* \"#utility.yul\":470:533   */\n      tag_30\n      jumpi\n        /* \"#utility.yul\":529:530   */\n      0x00\n        /* \"#utility.yul\":526:527   */\n      dup1\n        /* \"#utility.yul\":519:531   */\n      revert\n        /* \"#utility.yul\":470:533   */\n    tag_30:\n        /* \"#utility.yul\":417:539   */\n      pop\n      jump\t// out\n        /* \"#utility.yul\":545:684   */\n    tag_20:\n        /* \"#utility.yul\":591:596   */\n      0x00\n        /* \"#utility.yul\":629:635   */\n      dup2\n        /* \"#utility.yul\":616:636   */\n      calldataload\n        /* \"#utility.yul\":607:636   */\n      swap1\n      pop\n        /* \"#utility.yul\":645:678   */\n      tag_32\n        /* \"#utility.yul\":672:677   */\n      dup2\n        /* \"#utility.yul\":645:678   */\n      tag_19\n      jump\t// in\n    tag_32:\n        /* \"#utility.yul\":545:684   */\n      swap3\n      swap2\n      pop\n      pop\n      jump\t// out\n        /* \"#utility.yul\":690:1309   */\n    tag_6:\n        /* \"#utility.yul\":767:773   */\n      0x00\n        /* \"#utility.yul\":775:781   */\n      dup1\n        /* \"#utility.yul\":783:789   */\n      0x00\n        /* \"#utility.yul\":832:834   */\n      0x60\n        /* \"#utility.yul\":820:829   */\n      dup5\n        /* \"#utility.yul\":811:818   */\n      dup7\n        /* \"#utility.yul\":807:830   */\n      sub\n        /* \"#utility.yul\":803:835   */\n      slt\n        /* \"#utility.yul\":800:919   */\n      iszero\n      tag_34\n      jumpi\n        /* \"#utility.yul\":838:917   */\n      tag_35\n      tag_16\n      jump\t// in\n    tag_35:\n        /* \"#utility.yul\":800:919   */\n    tag_34:\n        /* \"#utility.yul\":958:959   */\n      0x00\n        /* \"#utility.yul\":983:1036   */\n      tag_36\n        /* \"#utility.yul\":1028:1035   */\n      dup7\n        /* \"#utility.yul\":1019:1025   */\n      dup3\n        /* \"#utility.yul\":1008:1017   */\n      dup8\n        /* \"#utility.yul\":1004:1026   */\n      add\n        /* \"#utility.yul\":983:1036   */\n      tag_20\n      jump\t// in\n    tag_36:\n        /* \"#utility.yul\":973:1036   */\n      swap4\n      pop\n        /* \"#utility.yul\":929:1046   */\n      pop\n        /* \"#utility.yul\":1085:1087   */\n      0x20\n        /* \"#utility.yul\":1111:1164   */\n      tag_37\n        /* \"#utility.yul\":1156:1163   */\n      dup7\n        /* \"#utility.yul\":1147:1153   */\n      dup3\n        /* \"#utility.yul\":1136:1145   */\n      dup8\n        /* \"#utility.yul\":1132:1154   */\n      add\n        /* \"#utility.yul\":1111:1164   */\n      tag_20\n      jump\t// in\n    tag_37:\n        /* \"#utility.yul\":1101:1164   */\n      swap3\n      pop\n        /* \"#utility.yul\":1056:1174   */\n      pop\n        /* \"#utility.yul\":1213:1215   */\n      0x40\n        /* \"#utility.yul\":1239:1292   */\n      tag_38\n        /* \"#utility.yul\":1284:1291   */\n      dup7\n        /* \"#utility.yul\":1275:1281   */\n      dup3\n        /* \"#utility.yul\":1264:1273   */\n      dup8\n        /* \"#utility.yul\":1260:1282   */\n      add\n        /* \"#utility.yul\":1239:1292   */\n      tag_20\n      jump\t// in\n    tag_38:\n        /* \"#utility.yul\":1229:1292   */\n      swap2\n      pop\n        /* \"#utility.yul\":1184:1302   */\n      pop\n        /* \"#utility.yul\":690:1309   */\n      swap3\n      pop\n      swap3\n      pop\n      swap3\n      jump\t// out\n        /* \"#utility.yul\":1315:1405   */\n    tag_21:\n        /* \"#utility.yul\":1349:1356   */\n      0x00\n        /* \"#utility.yul\":1392:1397   */\n      dup2\n        /* \"#utility.yul\":1385:1398   */\n      iszero\n        /* \"#utility.yul\":1378:1399   */\n      iszero\n        /* \"#utility.yul\":1367:1399   */\n      swap1\n      pop\n        /* \"#utility.yul\":1315:1405   */\n      swap2\n      swap1\n      pop\n      jump\t// out\n        /* \"#utility.yul\":1411:1520   */\n    tag_22:\n        /* \"#utility.yul\":1492:1513   */\n      tag_41\n        /* \"#utility.yul\":1507:1512   */\n      dup2\n        /* \"#utility.yul\":1492:1513   */\n      tag_21\n      jump\t// in\n    tag_41:\n        /* \"#utility.yul\":1487:1490   */\n      dup3\n        /* \"#utility.yul\":1480:1514   */\n      mstore\n        /* \"#utility.yul\":1411:1520   */\n      pop\n      pop\n      jump\t// out\n        /* \"#utility.yul\":1526:1736   */\n    tag_9:\n        /* \"#utility.yul\":1613:1617   */\n      0x00\n        /* \"#utility.yul\":1651:1653   */\n      0x20\n        /* \"#utility.yul\":1640:1649   */\n      dup3\n        /* \"#utility.yul\":1636:1654   */\n      add\n        /* \"#utility.yul\":1628:1654   */\n      swap1\n      pop\n        /* \"#utility.yul\":1664:1729   */\n      tag_43\n        /* \"#utility.yul\":1726:1727   */\n      0x00\n        /* \"#utility.yul\":1715:1724   */\n      dup4\n        /* \"#utility.yul\":1711:1728   */\n      add\n        /* \"#utility.yul\":1702:1708   */\n      dup5\n        /* \"#utility.yul\":1664:1729   */\n      tag_22\n      jump\t// in\n    tag_43:\n        /* \"#utility.yul\":1526:1736   */\n      swap3\n      swap2\n      pop\n      pop\n      jump\t// out\n\n    auxdata: 0xa26469706673582212203897468626ddb8d6c384f3ea972a27c0f4d4b87abc677cffcb4b27812cf1257b64736f6c634300081a0033\n}\n",
				"bytecode": {
					"linkReferences": {},
					"object": "6080604052348015600e575f80fd5b5061018a8061001c5f395ff3fe608060405234801561000f575f80fd5b5060043610610029575f3560e01c806387e5bc6c1461002d575b5f80fd5b610047600480360381019061004291906100d1565b61005d565b604051610054919061013b565b60405180910390f35b5f828411801561006c57508184115b806100815750818411801561008057508284105b5b1561008f5760019050610093565b5f90505b9392505050565b5f80fd5b5f819050919050565b6100b08161009e565b81146100ba575f80fd5b50565b5f813590506100cb816100a7565b92915050565b5f805f606084860312156100e8576100e761009a565b5b5f6100f5868287016100bd565b9350506020610106868287016100bd565b9250506040610117868287016100bd565b9150509250925092565b5f8115159050919050565b61013581610121565b82525050565b5f60208201905061014e5f83018461012c565b9291505056fea26469706673582212203897468626ddb8d6c384f3ea972a27c0f4d4b87abc677cffcb4b27812cf1257b64736f6c634300081a0033",
					"opcodes": "PUSH1 0x80 PUSH1 0x40 MSTORE CALLVALUE DUP1 ISZERO PUSH1 0xE JUMPI PUSH0 DUP1 REVERT JUMPDEST POP PUSH2 0x18A DUP1 PUSH2 0x1C PUSH0 CODECOPY PUSH0 RETURN INVALID PUSH1 0x80 PUSH1 0x40 MSTORE CALLVALUE DUP1 ISZERO PUSH2 0xF JUMPI PUSH0 DUP1 REVERT JUMPDEST POP PUSH1 0x4 CALLDATASIZE LT PUSH2 0x29 JUMPI PUSH0 CALLDATALOAD PUSH1 0xE0 SHR DUP1 PUSH4 0x87E5BC6C EQ PUSH2 0x2D JUMPI JUMPDEST PUSH0 DUP1 REVERT JUMPDEST PUSH2 0x47 PUSH1 0x4 DUP1 CALLDATASIZE SUB DUP2 ADD SWAP1 PUSH2 0x42 SWAP2 SWAP1 PUSH2 0xD1 JUMP JUMPDEST PUSH2 0x5D JUMP JUMPDEST PUSH1 0x40 MLOAD PUSH2 0x54 SWAP2 SWAP1 PUSH2 0x13B JUMP JUMPDEST PUSH1 0x40 MLOAD DUP1 SWAP2 SUB SWAP1 RETURN JUMPDEST PUSH0 DUP3 DUP5 GT DUP1 ISZERO PUSH2 0x6C JUMPI POP DUP2 DUP5 GT JUMPDEST DUP1 PUSH2 0x81 JUMPI POP DUP2 DUP5 GT DUP1 ISZERO PUSH2 0x80 JUMPI POP DUP3 DUP5 LT JUMPDEST JUMPDEST ISZERO PUSH2 0x8F JUMPI PUSH1 0x1 SWAP1 POP PUSH2 0x93 JUMP JUMPDEST PUSH0 SWAP1 POP JUMPDEST SWAP4 SWAP3 POP POP POP JUMP JUMPDEST PUSH0 DUP1 REVERT JUMPDEST PUSH0 DUP2 SWAP1 POP SWAP2 SWAP1 POP JUMP JUMPDEST PUSH2 0xB0 DUP2 PUSH2 0x9E JUMP JUMPDEST DUP2 EQ PUSH2 0xBA JUMPI PUSH0 DUP1 REVERT JUMPDEST POP JUMP JUMPDEST PUSH0 DUP2 CALLDATALOAD SWAP1 POP PUSH2 0xCB DUP2 PUSH2 0xA7 JUMP JUMPDEST SWAP3 SWAP2 POP POP JUMP JUMPDEST PUSH0 DUP1 PUSH0 PUSH1 0x60 DUP5 DUP7 SUB SLT ISZERO PUSH2 0xE8 JUMPI PUSH2 0xE7 PUSH2 0x9A JUMP JUMPDEST JUMPDEST PUSH0 PUSH2 0xF5 DUP7 DUP3 DUP8 ADD PUSH2 0xBD JUMP JUMPDEST SWAP4 POP POP PUSH1 0x20 PUSH2 0x106 DUP7 DUP3 DUP8 ADD PUSH2 0xBD JUMP JUMPDEST SWAP3 POP POP PUSH1 0x40 PUSH2 0x117 DUP7 DUP3 DUP8 ADD PUSH2 0xBD JUMP JUMPDEST SWAP2 POP POP SWAP3 POP SWAP3 POP SWAP3 JUMP JUMPDEST PUSH0 DUP2 ISZERO ISZERO SWAP1 POP SWAP2 SWAP1 POP JUMP JUMPDEST PUSH2 0x135 DUP2 PUSH2 0x121 JUMP JUMPDEST DUP3 MSTORE POP POP JUMP JUMPDEST PUSH0 PUSH1 0x20 DUP3 ADD SWAP1 POP PUSH2 0x14E PUSH0 DUP4 ADD DUP5 PUSH2 0x12C JUMP JUMPDEST SWAP3 SWAP2 POP POP JUMP INVALID LOG2 PUSH5 0x6970667358 0x22 SLT KECCAK256 CODESIZE SWAP8 CHAINID DUP7 0x26 0xDD 0xB8 0xD6 0xC3 DUP5 RETURN 0xEA SWAP8 0x2A 0x27 0xC0 DELEGATECALL 0xD4 0xB8 PUSH27 0xBC677CFFCB4B27812CF1257B64736F6C634300081A003300000000 "
				},
				"gasEstimates": {
					"creation": {
						"codeDepositCost": "78800",
						"executionCost": "127",
						"totalCost": "78927"
					},
					"external": {
						"checkConditions(uint256,uint256,uint256)": "infinite"
					}
				},
				"methodIdentifiers": {
					"checkConditions(uint256,uint256,uint256)": "87e5bc6c"
				}
			},
			"storageLayout": {
				"storage": [],
				"types": null
			},
			"userdoc": {
				"kind": "user",
				"methods": {},
				"version": 1
			}
		}
	}
}