{
	"week6task1.sol": {
		"GuessingGame": {
			"abi": [
				{
					"inputs": [],
					"name": "entropy",
					"outputs": [
						{
							"internalType": "uint256",
							"name": "",
							"type": "uint256"
						}
					],
					"stateMutability": "view",
					"type": "function"
				},
				{
					"inputs": [],
					"name": "getWinners",
					"outputs": [
						{
							"components": [
								{
									"internalType": "address",
									"name": "playerAddress",
									"type": "address"
								},
								{
									"internalType": "uint8",
									"name": "guessedNumber",
									"type": "uint8"
								}
							],
							"internalType": "struct GuessingGame.Player[]",
							"name": "",
							"type": "tuple[]"
						}
					],
					"stateMutability": "view",
					"type": "function"
				},
				{
					"inputs": [
						{
							"internalType": "uint8",
							"name": "_number",
							"type": "uint8"
						}
					],
					"name": "play",
					"outputs": [],
					"stateMutability": "nonpayable",
					"type": "function"
				},
				{
					"inputs": [
						{
							"internalType": "uint256",
							"name": "",
							"type": "uint256"
						}
					],
					"name": "players",
					"outputs": [
						{
							"internalType": "address",
							"name": "playerAddress",
							"type": "address"
						},
						{
							"internalType": "uint8",
							"name": "guessedNumber",
							"type": "uint8"
						}
					],
					"stateMutability": "view",
					"type": "function"
				},
				{
					"inputs": [
						{
							"internalType": "uint256",
							"name": "",
							"type": "uint256"
						}
					],
					"name": "winners",
					"outputs": [
						{
							"internalType": "address",
							"name": "playerAddress",
							"type": "address"
						},
						{
							"internalType": "uint8",
							"name": "guessedNumber",
							"type": "uint8"
						}
					],
					"stateMutability": "view",
					"type": "function"
				}
			],
			"devdoc": {
				"kind": "dev",
				"methods": {},
				"version": 1
			},
			"evm": {
				"assembly": "    /* \"week6task1.sol\":60:1365  contract GuessingGame {... */\n  mstore(0x40, 0x80)\n  callvalue\n  dup1\n  iszero\n  tag_1\n  jumpi\n  0x00\n  dup1\n  revert\ntag_1:\n  pop\n  dataSize(sub_0)\n  dup1\n  dataOffset(sub_0)\n  0x00\n  codecopy\n  0x00\n  return\nstop\n\nsub_0: assembly {\n        /* \"week6task1.sol\":60:1365  contract GuessingGame {... */\n      mstore(0x40, 0x80)\n      callvalue\n      dup1\n      iszero\n      tag_1\n      jumpi\n      0x00\n      dup1\n      revert\n    tag_1:\n      pop\n      jumpi(tag_2, lt(calldatasize, 0x04))\n      shr(0xe0, calldataload(0x00))\n      dup1\n      0x47ce07cc\n      eq\n      tag_3\n      jumpi\n      dup1\n      0x53a04b05\n      eq\n      tag_4\n      jumpi\n      dup1\n      0xa2fb1175\n      eq\n      tag_5\n      jumpi\n      dup1\n      0xdf15c37e\n      eq\n      tag_6\n      jumpi\n      dup1\n      0xf71d96cb\n      eq\n      tag_7\n      jumpi\n    tag_2:\n      0x00\n      dup1\n      revert\n        /* \"week6task1.sol\":89:111  uint256 public entropy */\n    tag_3:\n      tag_8\n      tag_9\n      jump\t// in\n    tag_8:\n      mload(0x40)\n      tag_10\n      swap2\n      swap1\n      tag_11\n      jump\t// in\n    tag_10:\n      mload(0x40)\n      dup1\n      swap2\n      sub\n      swap1\n      return\n        /* \"week6task1.sol\":278:849  function play(uint8 _number) public {... */\n    tag_4:\n      tag_12\n      0x04\n      dup1\n      calldatasize\n      sub\n      dup2\n      add\n      swap1\n      tag_13\n      swap2\n      swap1\n      tag_14\n      jump\t// in\n    tag_13:\n      tag_15\n      jump\t// in\n    tag_12:\n      stop\n        /* \"week6task1.sol\":246:269  Player[] public winners */\n    tag_5:\n      tag_16\n      0x04\n      dup1\n      calldatasize\n      sub\n      dup2\n      add\n      swap1\n      tag_17\n      swap2\n      swap1\n      tag_18\n      jump\t// in\n    tag_17:\n      tag_19\n      jump\t// in\n    tag_16:\n      mload(0x40)\n      tag_20\n      swap3\n      swap2\n      swap1\n      tag_21\n      jump\t// in\n    tag_20:\n      mload(0x40)\n      dup1\n      swap2\n      sub\n      swap1\n      return\n        /* \"week6task1.sol\":1269:1362  function getWinners() public view returns (Player[] memory) {... */\n    tag_6:\n      tag_22\n      tag_23\n      jump\t// in\n    tag_22:\n      mload(0x40)\n      tag_24\n      swap2\n      swap1\n      tag_25\n      jump\t// in\n    tag_24:\n      mload(0x40)\n      dup1\n      swap2\n      sub\n      swap1\n      return\n        /* \"week6task1.sol\":216:239  Player[] public players */\n    tag_7:\n      tag_26\n      0x04\n      dup1\n      calldatasize\n      sub\n      dup2\n      add\n      swap1\n      tag_27\n      swap2\n      swap1\n      tag_18\n      jump\t// in\n    tag_27:\n      tag_28\n      jump\t// in\n    tag_26:\n      mload(0x40)\n      tag_29\n      swap3\n      swap2\n      swap1\n      tag_21\n      jump\t// in\n    tag_29:\n      mload(0x40)\n      dup1\n      swap2\n      sub\n      swap1\n      return\n        /* \"week6task1.sol\":89:111  uint256 public entropy */\n    tag_9:\n      sload(0x00)\n      dup2\n      jump\t// out\n        /* \"week6task1.sol\":278:849  function play(uint8 _number) public {... */\n    tag_15:\n        /* \"week6task1.sol\":344:345  1 */\n      0x01\n        /* \"week6task1.sol\":333:340  _number */\n      dup2\n        /* \"week6task1.sol\":333:345  _number >= 1 */\n      0xff\n      and\n      lt\n      iszero\n        /* \"week6task1.sol\":333:362  _number >= 1 && _number <= 10 */\n      dup1\n      iszero\n      tag_31\n      jumpi\n      pop\n        /* \"week6task1.sol\":360:362  10 */\n      0x0a\n        /* \"week6task1.sol\":349:356  _number */\n      dup2\n        /* \"week6task1.sol\":349:362  _number <= 10 */\n      0xff\n      and\n      gt\n      iszero\n        /* \"week6task1.sol\":333:362  _number >= 1 && _number <= 10 */\n    tag_31:\n        /* \"week6task1.sol\":325:406  require(_number >= 1 && _number <= 10, \"Guessed number must be between 1 and 10\") */\n      tag_32\n      jumpi\n      mload(0x40)\n      0x08c379a000000000000000000000000000000000000000000000000000000000\n      dup2\n      mstore\n      0x04\n      add\n      tag_33\n      swap1\n      tag_34\n      jump\t// in\n    tag_33:\n      mload(0x40)\n      dup1\n      swap2\n      sub\n      swap1\n      revert\n    tag_32:\n        /* \"week6task1.sol\":463:470  players */\n      0x01\n        /* \"week6task1.sol\":476:503  Player(msg.sender, _number) */\n      mload(0x40)\n      dup1\n      0x40\n      add\n      0x40\n      mstore\n      dup1\n        /* \"week6task1.sol\":483:493  msg.sender */\n      caller\n        /* \"week6task1.sol\":476:503  Player(msg.sender, _number) */\n      0xffffffffffffffffffffffffffffffffffffffff\n      and\n      dup2\n      mstore\n      0x20\n      add\n        /* \"week6task1.sol\":495:502  _number */\n      dup4\n        /* \"week6task1.sol\":476:503  Player(msg.sender, _number) */\n      0xff\n      and\n      dup2\n      mstore\n      pop\n        /* \"week6task1.sol\":463:504  players.push(Player(msg.sender, _number)) */\n      swap1\n      dup1\n      0x01\n      dup2\n      sload\n      add\n      dup1\n      dup3\n      sstore\n      dup1\n      swap2\n      pop\n      pop\n      0x01\n      swap1\n      sub\n      swap1\n      0x00\n      mstore\n      keccak256(0x00, 0x20)\n      add\n      0x00\n      swap1\n      swap2\n      swap1\n      swap2\n      swap1\n      swap2\n      pop\n      0x00\n      dup3\n      add\n      mload\n      dup2\n      0x00\n      add\n      exp(0x0100, 0x00)\n      dup2\n      sload\n      dup2\n      0xffffffffffffffffffffffffffffffffffffffff\n      mul\n      not\n      and\n      swap1\n      dup4\n      0xffffffffffffffffffffffffffffffffffffffff\n      and\n      mul\n      or\n      swap1\n      sstore\n      pop\n      0x20\n      dup3\n      add\n      mload\n      dup2\n      0x00\n      add\n      exp(0x0100, 0x14)\n      dup2\n      sload\n      dup2\n      0xff\n      mul\n      not\n      and\n      swap1\n      dup4\n      0xff\n      and\n      mul\n      or\n      swap1\n      sstore\n      pop\n      pop\n      pop\n        /* \"week6task1.sol\":548:565  uint256 hashBlock */\n      0x00\n        /* \"week6task1.sol\":586:598  block.number */\n      number\n        /* \"week6task1.sol\":576:599  blockhash(block.number) */\n      blockhash\n        /* \"week6task1.sol\":568:600  uint256(blockhash(block.number)) */\n      0x00\n      shr\n        /* \"week6task1.sol\":548:600  uint256 hashBlock = uint256(blockhash(block.number)) */\n      swap1\n      pop\n        /* \"week6task1.sol\":640:652  uint256 time */\n      0x00\n        /* \"week6task1.sol\":655:670  block.timestamp */\n      timestamp\n        /* \"week6task1.sol\":640:670  uint256 time = block.timestamp */\n      swap1\n      pop\n        /* \"week6task1.sol\":721:725  1000 */\n      0x03e8\n        /* \"week6task1.sol\":714:718  time */\n      dup2\n        /* \"week6task1.sol\":714:725  time % 1000 */\n      tag_36\n      swap2\n      swap1\n      tag_37\n      jump\t// in\n    tag_36:\n        /* \"week6task1.sol\":705:709  1000 */\n      0x03e8\n        /* \"week6task1.sol\":693:702  hashBlock */\n      dup4\n        /* \"week6task1.sol\":693:709  hashBlock % 1000 */\n      tag_38\n      swap2\n      swap1\n      tag_37\n      jump\t// in\n    tag_38:\n        /* \"week6task1.sol\":692:726  (hashBlock % 1000) + (time % 1000) */\n      tag_39\n      swap2\n      swap1\n      tag_40\n      jump\t// in\n    tag_39:\n        /* \"week6task1.sol\":681:688  entropy */\n      0x00\n      dup1\n        /* \"week6task1.sol\":681:726  entropy += (hashBlock % 1000) + (time % 1000) */\n      dup3\n      dup3\n      sload\n      tag_41\n      swap2\n      swap1\n      tag_40\n      jump\t// in\n    tag_41:\n      swap3\n      pop\n      pop\n      dup2\n      swap1\n      sstore\n      pop\n        /* \"week6task1.sol\":805:807  10 */\n      0x0a\n        /* \"week6task1.sol\":787:794  players */\n      0x01\n        /* \"week6task1.sol\":787:801  players.length */\n      dup1\n      sload\n      swap1\n      pop\n        /* \"week6task1.sol\":787:807  players.length == 10 */\n      sub\n        /* \"week6task1.sol\":783:842  if (players.length == 10) {... */\n      tag_42\n      jumpi\n        /* \"week6task1.sol\":824:830  game() */\n      tag_43\n        /* \"week6task1.sol\":824:828  game */\n      tag_44\n        /* \"week6task1.sol\":824:830  game() */\n      jump\t// in\n    tag_43:\n        /* \"week6task1.sol\":783:842  if (players.length == 10) {... */\n    tag_42:\n        /* \"week6task1.sol\":314:849  {... */\n      pop\n      pop\n        /* \"week6task1.sol\":278:849  function play(uint8 _number) public {... */\n      pop\n      jump\t// out\n        /* \"week6task1.sol\":246:269  Player[] public winners */\n    tag_19:\n      0x02\n      dup2\n      dup2\n      sload\n      dup2\n      lt\n      tag_45\n      jumpi\n      0x00\n      dup1\n      revert\n    tag_45:\n      swap1\n      0x00\n      mstore\n      keccak256(0x00, 0x20)\n      add\n      0x00\n      swap2\n      pop\n      swap1\n      pop\n      dup1\n      0x00\n      add\n      0x00\n      swap1\n      sload\n      swap1\n      0x0100\n      exp\n      swap1\n      div\n      0xffffffffffffffffffffffffffffffffffffffff\n      and\n      swap1\n      dup1\n      0x00\n      add\n      0x14\n      swap1\n      sload\n      swap1\n      0x0100\n      exp\n      swap1\n      div\n      0xff\n      and\n      swap1\n      pop\n      dup3\n      jump\t// out\n        /* \"week6task1.sol\":1269:1362  function getWinners() public view returns (Player[] memory) {... */\n    tag_23:\n        /* \"week6task1.sol\":1312:1327  Player[] memory */\n      0x60\n        /* \"week6task1.sol\":1347:1354  winners */\n      0x02\n        /* \"week6task1.sol\":1340:1354  return winners */\n      dup1\n      sload\n      dup1\n      0x20\n      mul\n      0x20\n      add\n      mload(0x40)\n      swap1\n      dup2\n      add\n      0x40\n      mstore\n      dup1\n      swap3\n      swap2\n      swap1\n      dup2\n      dup2\n      mstore\n      0x20\n      add\n      0x00\n      swap1\n    tag_48:\n      dup3\n      dup3\n      lt\n      iszero\n      tag_49\n      jumpi\n      dup4\n      dup3\n      swap1\n      0x00\n      mstore\n      keccak256(0x00, 0x20)\n      add\n      mload(0x40)\n      dup1\n      0x40\n      add\n      0x40\n      mstore\n      swap1\n      dup2\n      0x00\n      dup3\n      add\n      0x00\n      swap1\n      sload\n      swap1\n      0x0100\n      exp\n      swap1\n      div\n      0xffffffffffffffffffffffffffffffffffffffff\n      and\n      0xffffffffffffffffffffffffffffffffffffffff\n      and\n      0xffffffffffffffffffffffffffffffffffffffff\n      and\n      dup2\n      mstore\n      0x20\n      add\n      0x00\n      dup3\n      add\n      0x14\n      swap1\n      sload\n      swap1\n      0x0100\n      exp\n      swap1\n      div\n      0xff\n      and\n      0xff\n      and\n      0xff\n      and\n      dup2\n      mstore\n      pop\n      pop\n      dup2\n      mstore\n      0x20\n      add\n      swap1\n      0x01\n      add\n      swap1\n      jump(tag_48)\n    tag_49:\n      pop\n      pop\n      pop\n      pop\n      swap1\n      pop\n        /* \"week6task1.sol\":1269:1362  function getWinners() public view returns (Player[] memory) {... */\n      swap1\n      jump\t// out\n        /* \"week6task1.sol\":216:239  Player[] public players */\n    tag_28:\n      0x01\n      dup2\n      dup2\n      sload\n      dup2\n      lt\n      tag_51\n      jumpi\n      0x00\n      dup1\n      revert\n    tag_51:\n      swap1\n      0x00\n      mstore\n      keccak256(0x00, 0x20)\n      add\n      0x00\n      swap2\n      pop\n      swap1\n      pop\n      dup1\n      0x00\n      add\n      0x00\n      swap1\n      sload\n      swap1\n      0x0100\n      exp\n      swap1\n      div\n      0xffffffffffffffffffffffffffffffffffffffff\n      and\n      swap1\n      dup1\n      0x00\n      add\n      0x14\n      swap1\n      sload\n      swap1\n      0x0100\n      exp\n      swap1\n      div\n      0xff\n      and\n      swap1\n      pop\n      dup3\n      jump\t// out\n        /* \"week6task1.sol\":857:1261  function game() private {... */\n    tag_44:\n        /* \"week6task1.sol\":899:906  winners */\n      0x02\n      0x00\n        /* \"week6task1.sol\":892:906  delete winners */\n      tag_54\n      swap2\n      swap1\n      tag_55\n      jump\t// in\n    tag_54:\n        /* \"week6task1.sol\":960:978  uint8 randomNumber */\n      0x00\n        /* \"week6task1.sol\":1004:1005  1 */\n      0x01\n        /* \"week6task1.sol\":998:1000  10 */\n      0x0a\n        /* \"week6task1.sol\":988:995  entropy */\n      sload(0x00)\n        /* \"week6task1.sol\":988:1000  entropy % 10 */\n      tag_56\n      swap2\n      swap1\n      tag_37\n      jump\t// in\n    tag_56:\n        /* \"week6task1.sol\":987:1005  (entropy % 10) + 1 */\n      tag_57\n      swap2\n      swap1\n      tag_40\n      jump\t// in\n    tag_57:\n        /* \"week6task1.sol\":960:1006  uint8 randomNumber = uint8((entropy % 10) + 1) */\n      swap1\n      pop\n        /* \"week6task1.sol\":1024:1033  uint256 i */\n      0x00\n        /* \"week6task1.sol\":1019:1195  for (uint256 i = 0; i < players.length; i++) {... */\n    tag_58:\n        /* \"week6task1.sol\":1043:1050  players */\n      0x01\n        /* \"week6task1.sol\":1043:1057  players.length */\n      dup1\n      sload\n      swap1\n      pop\n        /* \"week6task1.sol\":1039:1040  i */\n      dup2\n        /* \"week6task1.sol\":1039:1057  i < players.length */\n      lt\n        /* \"week6task1.sol\":1019:1195  for (uint256 i = 0; i < players.length; i++) {... */\n      iszero\n      tag_59\n      jumpi\n        /* \"week6task1.sol\":1111:1123  randomNumber */\n      dup2\n        /* \"week6task1.sol\":1083:1123  players[i].guessedNumber == randomNumber */\n      0xff\n      and\n        /* \"week6task1.sol\":1083:1090  players */\n      0x01\n        /* \"week6task1.sol\":1091:1092  i */\n      dup3\n        /* \"week6task1.sol\":1083:1093  players[i] */\n      dup2\n      sload\n      dup2\n      lt\n      tag_61\n      jumpi\n      tag_62\n      tag_63\n      jump\t// in\n    tag_62:\n    tag_61:\n      swap1\n      0x00\n      mstore\n      keccak256(0x00, 0x20)\n      add\n        /* \"week6task1.sol\":1083:1107  players[i].guessedNumber */\n      0x00\n      add\n      0x14\n      swap1\n      sload\n      swap1\n      0x0100\n      exp\n      swap1\n      div\n      0xff\n      and\n        /* \"week6task1.sol\":1083:1123  players[i].guessedNumber == randomNumber */\n      0xff\n      and\n      sub\n        /* \"week6task1.sol\":1079:1184  if (players[i].guessedNumber == randomNumber) {... */\n      tag_65\n      jumpi\n        /* \"week6task1.sol\":1144:1151  winners */\n      0x02\n        /* \"week6task1.sol\":1157:1164  players */\n      0x01\n        /* \"week6task1.sol\":1165:1166  i */\n      dup3\n        /* \"week6task1.sol\":1157:1167  players[i] */\n      dup2\n      sload\n      dup2\n      lt\n      tag_66\n      jumpi\n      tag_67\n      tag_63\n      jump\t// in\n    tag_67:\n    tag_66:\n      swap1\n      0x00\n      mstore\n      keccak256(0x00, 0x20)\n      add\n        /* \"week6task1.sol\":1144:1168  winners.push(players[i]) */\n      swap1\n      dup1\n      0x01\n      dup2\n      sload\n      add\n      dup1\n      dup3\n      sstore\n      dup1\n      swap2\n      pop\n      pop\n      0x01\n      swap1\n      sub\n      swap1\n      0x00\n      mstore\n      keccak256(0x00, 0x20)\n      add\n      0x00\n      swap1\n      swap2\n      swap1\n      swap2\n      swap1\n      swap2\n      pop\n      0x00\n      dup3\n      add\n      0x00\n      swap1\n      sload\n      swap1\n      0x0100\n      exp\n      swap1\n      div\n      0xffffffffffffffffffffffffffffffffffffffff\n      and\n      dup2\n      0x00\n      add\n      exp(0x0100, 0x00)\n      dup2\n      sload\n      dup2\n      0xffffffffffffffffffffffffffffffffffffffff\n      mul\n      not\n      and\n      swap1\n      dup4\n      0xffffffffffffffffffffffffffffffffffffffff\n      and\n      mul\n      or\n      swap1\n      sstore\n      pop\n      0x00\n      dup3\n      add\n      0x14\n      swap1\n      sload\n      swap1\n      0x0100\n      exp\n      swap1\n      div\n      0xff\n      and\n      dup2\n      0x00\n      add\n      exp(0x0100, 0x14)\n      dup2\n      sload\n      dup2\n      0xff\n      mul\n      not\n      and\n      swap1\n      dup4\n      0xff\n      and\n      mul\n      or\n      swap1\n      sstore\n      pop\n      pop\n      pop\n        /* \"week6task1.sol\":1079:1184  if (players[i].guessedNumber == randomNumber) {... */\n    tag_65:\n        /* \"week6task1.sol\":1059:1062  i++ */\n      dup1\n      dup1\n      0x01\n      add\n      swap2\n      pop\n      pop\n        /* \"week6task1.sol\":1019:1195  for (uint256 i = 0; i < players.length; i++) {... */\n      jump(tag_58)\n    tag_59:\n      pop\n        /* \"week6task1.sol\":1214:1221  players */\n      0x01\n      0x00\n        /* \"week6task1.sol\":1207:1221  delete players */\n      tag_70\n      swap2\n      swap1\n      tag_55\n      jump\t// in\n    tag_70:\n        /* \"week6task1.sol\":881:1261  {... */\n      pop\n        /* \"week6task1.sol\":857:1261  function game() private {... */\n      jump\t// out\n    tag_55:\n      pop\n      dup1\n      sload\n      0x00\n      dup3\n      sstore\n      swap1\n      0x00\n      mstore\n      keccak256(0x00, 0x20)\n      swap1\n      dup2\n      add\n      swap1\n      tag_72\n      swap2\n      swap1\n      tag_73\n      jump\t// in\n    tag_72:\n      pop\n      jump\t// out\n    tag_73:\n    tag_74:\n      dup1\n      dup3\n      gt\n      iszero\n      tag_75\n      jumpi\n      0x00\n      dup1\n      dup3\n      add\n      exp(0x0100, 0x00)\n      dup2\n      sload\n      swap1\n      0xffffffffffffffffffffffffffffffffffffffff\n      mul\n      not\n      and\n      swap1\n      sstore\n      0x00\n      dup3\n      add\n      exp(0x0100, 0x14)\n      dup2\n      sload\n      swap1\n      0xff\n      mul\n      not\n      and\n      swap1\n      sstore\n      pop\n      0x01\n      add\n      jump(tag_74)\n    tag_75:\n      pop\n      swap1\n      jump\t// out\n        /* \"#utility.yul\":7:84   */\n    tag_76:\n        /* \"#utility.yul\":44:51   */\n      0x00\n        /* \"#utility.yul\":73:78   */\n      dup2\n        /* \"#utility.yul\":62:78   */\n      swap1\n      pop\n        /* \"#utility.yul\":7:84   */\n      swap2\n      swap1\n      pop\n      jump\t// out\n        /* \"#utility.yul\":90:208   */\n    tag_77:\n        /* \"#utility.yul\":177:201   */\n      tag_107\n        /* \"#utility.yul\":195:200   */\n      dup2\n        /* \"#utility.yul\":177:201   */\n      tag_76\n      jump\t// in\n    tag_107:\n        /* \"#utility.yul\":172:175   */\n      dup3\n        /* \"#utility.yul\":165:202   */\n      mstore\n        /* \"#utility.yul\":90:208   */\n      pop\n      pop\n      jump\t// out\n        /* \"#utility.yul\":214:436   */\n    tag_11:\n        /* \"#utility.yul\":307:311   */\n      0x00\n        /* \"#utility.yul\":345:347   */\n      0x20\n        /* \"#utility.yul\":334:343   */\n      dup3\n        /* \"#utility.yul\":330:348   */\n      add\n        /* \"#utility.yul\":322:348   */\n      swap1\n      pop\n        /* \"#utility.yul\":358:429   */\n      tag_109\n        /* \"#utility.yul\":426:427   */\n      0x00\n        /* \"#utility.yul\":415:424   */\n      dup4\n        /* \"#utility.yul\":411:428   */\n      add\n        /* \"#utility.yul\":402:408   */\n      dup5\n        /* \"#utility.yul\":358:429   */\n      tag_77\n      jump\t// in\n    tag_109:\n        /* \"#utility.yul\":214:436   */\n      swap3\n      swap2\n      pop\n      pop\n      jump\t// out\n        /* \"#utility.yul\":523:640   */\n    tag_79:\n        /* \"#utility.yul\":632:633   */\n      0x00\n        /* \"#utility.yul\":629:630   */\n      dup1\n        /* \"#utility.yul\":622:634   */\n      revert\n        /* \"#utility.yul\":769:855   */\n    tag_81:\n        /* \"#utility.yul\":804:811   */\n      0x00\n        /* \"#utility.yul\":844:848   */\n      0xff\n        /* \"#utility.yul\":837:842   */\n      dup3\n        /* \"#utility.yul\":833:849   */\n      and\n        /* \"#utility.yul\":822:849   */\n      swap1\n      pop\n        /* \"#utility.yul\":769:855   */\n      swap2\n      swap1\n      pop\n      jump\t// out\n        /* \"#utility.yul\":861:979   */\n    tag_82:\n        /* \"#utility.yul\":932:954   */\n      tag_115\n        /* \"#utility.yul\":948:953   */\n      dup2\n        /* \"#utility.yul\":932:954   */\n      tag_81\n      jump\t// in\n    tag_115:\n        /* \"#utility.yul\":925:930   */\n      dup2\n        /* \"#utility.yul\":922:955   */\n      eq\n        /* \"#utility.yul\":912:973   */\n      tag_116\n      jumpi\n        /* \"#utility.yul\":969:970   */\n      0x00\n        /* \"#utility.yul\":966:967   */\n      dup1\n        /* \"#utility.yul\":959:971   */\n      revert\n        /* \"#utility.yul\":912:973   */\n    tag_116:\n        /* \"#utility.yul\":861:979   */\n      pop\n      jump\t// out\n        /* \"#utility.yul\":985:1120   */\n    tag_83:\n        /* \"#utility.yul\":1029:1034   */\n      0x00\n        /* \"#utility.yul\":1067:1073   */\n      dup2\n        /* \"#utility.yul\":1054:1074   */\n      calldataload\n        /* \"#utility.yul\":1045:1074   */\n      swap1\n      pop\n        /* \"#utility.yul\":1083:1114   */\n      tag_118\n        /* \"#utility.yul\":1108:1113   */\n      dup2\n        /* \"#utility.yul\":1083:1114   */\n      tag_82\n      jump\t// in\n    tag_118:\n        /* \"#utility.yul\":985:1120   */\n      swap3\n      swap2\n      pop\n      pop\n      jump\t// out\n        /* \"#utility.yul\":1126:1451   */\n    tag_14:\n        /* \"#utility.yul\":1183:1189   */\n      0x00\n        /* \"#utility.yul\":1232:1234   */\n      0x20\n        /* \"#utility.yul\":1220:1229   */\n      dup3\n        /* \"#utility.yul\":1211:1218   */\n      dup5\n        /* \"#utility.yul\":1207:1230   */\n      sub\n        /* \"#utility.yul\":1203:1235   */\n      slt\n        /* \"#utility.yul\":1200:1319   */\n      iszero\n      tag_120\n      jumpi\n        /* \"#utility.yul\":1238:1317   */\n      tag_121\n      tag_79\n      jump\t// in\n    tag_121:\n        /* \"#utility.yul\":1200:1319   */\n    tag_120:\n        /* \"#utility.yul\":1358:1359   */\n      0x00\n        /* \"#utility.yul\":1383:1434   */\n      tag_122\n        /* \"#utility.yul\":1426:1433   */\n      dup5\n        /* \"#utility.yul\":1417:1423   */\n      dup3\n        /* \"#utility.yul\":1406:1415   */\n      dup6\n        /* \"#utility.yul\":1402:1424   */\n      add\n        /* \"#utility.yul\":1383:1434   */\n      tag_83\n      jump\t// in\n    tag_122:\n        /* \"#utility.yul\":1373:1434   */\n      swap2\n      pop\n        /* \"#utility.yul\":1329:1444   */\n      pop\n        /* \"#utility.yul\":1126:1451   */\n      swap3\n      swap2\n      pop\n      pop\n      jump\t// out\n        /* \"#utility.yul\":1457:1579   */\n    tag_84:\n        /* \"#utility.yul\":1530:1554   */\n      tag_124\n        /* \"#utility.yul\":1548:1553   */\n      dup2\n        /* \"#utility.yul\":1530:1554   */\n      tag_76\n      jump\t// in\n    tag_124:\n        /* \"#utility.yul\":1523:1528   */\n      dup2\n        /* \"#utility.yul\":1520:1555   */\n      eq\n        /* \"#utility.yul\":1510:1573   */\n      tag_125\n      jumpi\n        /* \"#utility.yul\":1569:1570   */\n      0x00\n        /* \"#utility.yul\":1566:1567   */\n      dup1\n        /* \"#utility.yul\":1559:1571   */\n      revert\n        /* \"#utility.yul\":1510:1573   */\n    tag_125:\n        /* \"#utility.yul\":1457:1579   */\n      pop\n      jump\t// out\n        /* \"#utility.yul\":1585:1724   */\n    tag_85:\n        /* \"#utility.yul\":1631:1636   */\n      0x00\n        /* \"#utility.yul\":1669:1675   */\n      dup2\n        /* \"#utility.yul\":1656:1676   */\n      calldataload\n        /* \"#utility.yul\":1647:1676   */\n      swap1\n      pop\n        /* \"#utility.yul\":1685:1718   */\n      tag_127\n        /* \"#utility.yul\":1712:1717   */\n      dup2\n        /* \"#utility.yul\":1685:1718   */\n      tag_84\n      jump\t// in\n    tag_127:\n        /* \"#utility.yul\":1585:1724   */\n      swap3\n      swap2\n      pop\n      pop\n      jump\t// out\n        /* \"#utility.yul\":1730:2059   */\n    tag_18:\n        /* \"#utility.yul\":1789:1795   */\n      0x00\n        /* \"#utility.yul\":1838:1840   */\n      0x20\n        /* \"#utility.yul\":1826:1835   */\n      dup3\n        /* \"#utility.yul\":1817:1824   */\n      dup5\n        /* \"#utility.yul\":1813:1836   */\n      sub\n        /* \"#utility.yul\":1809:1841   */\n      slt\n        /* \"#utility.yul\":1806:1925   */\n      iszero\n      tag_129\n      jumpi\n        /* \"#utility.yul\":1844:1923   */\n      tag_130\n      tag_79\n      jump\t// in\n    tag_130:\n        /* \"#utility.yul\":1806:1925   */\n    tag_129:\n        /* \"#utility.yul\":1964:1965   */\n      0x00\n        /* \"#utility.yul\":1989:2042   */\n      tag_131\n        /* \"#utility.yul\":2034:2041   */\n      dup5\n        /* \"#utility.yul\":2025:2031   */\n      dup3\n        /* \"#utility.yul\":2014:2023   */\n      dup6\n        /* \"#utility.yul\":2010:2032   */\n      add\n        /* \"#utility.yul\":1989:2042   */\n      tag_85\n      jump\t// in\n    tag_131:\n        /* \"#utility.yul\":1979:2042   */\n      swap2\n      pop\n        /* \"#utility.yul\":1935:2052   */\n      pop\n        /* \"#utility.yul\":1730:2059   */\n      swap3\n      swap2\n      pop\n      pop\n      jump\t// out\n        /* \"#utility.yul\":2065:2191   */\n    tag_86:\n        /* \"#utility.yul\":2102:2109   */\n      0x00\n        /* \"#utility.yul\":2142:2184   */\n      0xffffffffffffffffffffffffffffffffffffffff\n        /* \"#utility.yul\":2135:2140   */\n      dup3\n        /* \"#utility.yul\":2131:2185   */\n      and\n        /* \"#utility.yul\":2120:2185   */\n      swap1\n      pop\n        /* \"#utility.yul\":2065:2191   */\n      swap2\n      swap1\n      pop\n      jump\t// out\n        /* \"#utility.yul\":2197:2293   */\n    tag_87:\n        /* \"#utility.yul\":2234:2241   */\n      0x00\n        /* \"#utility.yul\":2263:2287   */\n      tag_134\n        /* \"#utility.yul\":2281:2286   */\n      dup3\n        /* \"#utility.yul\":2263:2287   */\n      tag_86\n      jump\t// in\n    tag_134:\n        /* \"#utility.yul\":2252:2287   */\n      swap1\n      pop\n        /* \"#utility.yul\":2197:2293   */\n      swap2\n      swap1\n      pop\n      jump\t// out\n        /* \"#utility.yul\":2299:2417   */\n    tag_88:\n        /* \"#utility.yul\":2386:2410   */\n      tag_136\n        /* \"#utility.yul\":2404:2409   */\n      dup2\n        /* \"#utility.yul\":2386:2410   */\n      tag_87\n      jump\t// in\n    tag_136:\n        /* \"#utility.yul\":2381:2384   */\n      dup3\n        /* \"#utility.yul\":2374:2411   */\n      mstore\n        /* \"#utility.yul\":2299:2417   */\n      pop\n      pop\n      jump\t// out\n        /* \"#utility.yul\":2423:2535   */\n    tag_89:\n        /* \"#utility.yul\":2506:2528   */\n      tag_138\n        /* \"#utility.yul\":2522:2527   */\n      dup2\n        /* \"#utility.yul\":2506:2528   */\n      tag_81\n      jump\t// in\n    tag_138:\n        /* \"#utility.yul\":2501:2504   */\n      dup3\n        /* \"#utility.yul\":2494:2529   */\n      mstore\n        /* \"#utility.yul\":2423:2535   */\n      pop\n      pop\n      jump\t// out\n        /* \"#utility.yul\":2541:2865   */\n    tag_21:\n        /* \"#utility.yul\":2658:2662   */\n      0x00\n        /* \"#utility.yul\":2696:2698   */\n      0x40\n        /* \"#utility.yul\":2685:2694   */\n      dup3\n        /* \"#utility.yul\":2681:2699   */\n      add\n        /* \"#utility.yul\":2673:2699   */\n      swap1\n      pop\n        /* \"#utility.yul\":2709:2780   */\n      tag_140\n        /* \"#utility.yul\":2777:2778   */\n      0x00\n        /* \"#utility.yul\":2766:2775   */\n      dup4\n        /* \"#utility.yul\":2762:2779   */\n      add\n        /* \"#utility.yul\":2753:2759   */\n      dup6\n        /* \"#utility.yul\":2709:2780   */\n      tag_88\n      jump\t// in\n    tag_140:\n        /* \"#utility.yul\":2790:2858   */\n      tag_141\n        /* \"#utility.yul\":2854:2856   */\n      0x20\n        /* \"#utility.yul\":2843:2852   */\n      dup4\n        /* \"#utility.yul\":2839:2857   */\n      add\n        /* \"#utility.yul\":2830:2836   */\n      dup5\n        /* \"#utility.yul\":2790:2858   */\n      tag_89\n      jump\t// in\n    tag_141:\n        /* \"#utility.yul\":2541:2865   */\n      swap4\n      swap3\n      pop\n      pop\n      pop\n      jump\t// out\n        /* \"#utility.yul\":2871:3006   */\n    tag_90:\n        /* \"#utility.yul\":2959:2965   */\n      0x00\n        /* \"#utility.yul\":2993:2998   */\n      dup2\n        /* \"#utility.yul\":2987:2999   */\n      mload\n        /* \"#utility.yul\":2977:2999   */\n      swap1\n      pop\n        /* \"#utility.yul\":2871:3006   */\n      swap2\n      swap1\n      pop\n      jump\t// out\n        /* \"#utility.yul\":3012:3217   */\n    tag_91:\n        /* \"#utility.yul\":3132:3143   */\n      0x00\n        /* \"#utility.yul\":3166:3172   */\n      dup3\n        /* \"#utility.yul\":3161:3164   */\n      dup3\n        /* \"#utility.yul\":3154:3173   */\n      mstore\n        /* \"#utility.yul\":3206:3210   */\n      0x20\n        /* \"#utility.yul\":3201:3204   */\n      dup3\n        /* \"#utility.yul\":3197:3211   */\n      add\n        /* \"#utility.yul\":3182:3211   */\n      swap1\n      pop\n        /* \"#utility.yul\":3012:3217   */\n      swap3\n      swap2\n      pop\n      pop\n      jump\t// out\n        /* \"#utility.yul\":3223:3376   */\n    tag_92:\n        /* \"#utility.yul\":3311:3315   */\n      0x00\n        /* \"#utility.yul\":3334:3337   */\n      dup2\n        /* \"#utility.yul\":3326:3337   */\n      swap1\n      pop\n        /* \"#utility.yul\":3364:3368   */\n      0x20\n        /* \"#utility.yul\":3359:3362   */\n      dup3\n        /* \"#utility.yul\":3355:3369   */\n      add\n        /* \"#utility.yul\":3347:3369   */\n      swap1\n      pop\n        /* \"#utility.yul\":3223:3376   */\n      swap2\n      swap1\n      pop\n      jump\t// out\n        /* \"#utility.yul\":3382:3490   */\n    tag_93:\n        /* \"#utility.yul\":3459:3483   */\n      tag_146\n        /* \"#utility.yul\":3477:3482   */\n      dup2\n        /* \"#utility.yul\":3459:3483   */\n      tag_87\n      jump\t// in\n    tag_146:\n        /* \"#utility.yul\":3454:3457   */\n      dup3\n        /* \"#utility.yul\":3447:3484   */\n      mstore\n        /* \"#utility.yul\":3382:3490   */\n      pop\n      pop\n      jump\t// out\n        /* \"#utility.yul\":3496:3598   */\n    tag_94:\n        /* \"#utility.yul\":3569:3591   */\n      tag_148\n        /* \"#utility.yul\":3585:3590   */\n      dup2\n        /* \"#utility.yul\":3569:3591   */\n      tag_81\n      jump\t// in\n    tag_148:\n        /* \"#utility.yul\":3564:3567   */\n      dup3\n        /* \"#utility.yul\":3557:3592   */\n      mstore\n        /* \"#utility.yul\":3496:3598   */\n      pop\n      pop\n      jump\t// out\n        /* \"#utility.yul\":3668:4171   */\n    tag_95:\n        /* \"#utility.yul\":3797:3801   */\n      0x40\n        /* \"#utility.yul\":3792:3795   */\n      dup3\n        /* \"#utility.yul\":3788:3802   */\n      add\n        /* \"#utility.yul\":3893:3897   */\n      0x00\n        /* \"#utility.yul\":3886:3891   */\n      dup3\n        /* \"#utility.yul\":3882:3898   */\n      add\n        /* \"#utility.yul\":3876:3899   */\n      mload\n        /* \"#utility.yul\":3912:3975   */\n      tag_150\n        /* \"#utility.yul\":3969:3973   */\n      0x00\n        /* \"#utility.yul\":3964:3967   */\n      dup6\n        /* \"#utility.yul\":3960:3974   */\n      add\n        /* \"#utility.yul\":3946:3958   */\n      dup3\n        /* \"#utility.yul\":3912:3975   */\n      tag_93\n      jump\t// in\n    tag_150:\n        /* \"#utility.yul\":3812:3985   */\n      pop\n        /* \"#utility.yul\":4076:4080   */\n      0x20\n        /* \"#utility.yul\":4069:4074   */\n      dup3\n        /* \"#utility.yul\":4065:4081   */\n      add\n        /* \"#utility.yul\":4059:4082   */\n      mload\n        /* \"#utility.yul\":4095:4154   */\n      tag_151\n        /* \"#utility.yul\":4148:4152   */\n      0x20\n        /* \"#utility.yul\":4143:4146   */\n      dup6\n        /* \"#utility.yul\":4139:4153   */\n      add\n        /* \"#utility.yul\":4125:4137   */\n      dup3\n        /* \"#utility.yul\":4095:4154   */\n      tag_94\n      jump\t// in\n    tag_151:\n        /* \"#utility.yul\":3995:4164   */\n      pop\n        /* \"#utility.yul\":3766:4171   */\n      pop\n        /* \"#utility.yul\":3668:4171   */\n      pop\n      pop\n      jump\t// out\n        /* \"#utility.yul\":4177:4440   */\n    tag_96:\n        /* \"#utility.yul\":4288:4298   */\n      0x00\n        /* \"#utility.yul\":4309:4397   */\n      tag_153\n        /* \"#utility.yul\":4393:4396   */\n      dup4\n        /* \"#utility.yul\":4385:4391   */\n      dup4\n        /* \"#utility.yul\":4309:4397   */\n      tag_95\n      jump\t// in\n    tag_153:\n        /* \"#utility.yul\":4429:4433   */\n      0x40\n        /* \"#utility.yul\":4424:4427   */\n      dup4\n        /* \"#utility.yul\":4420:4434   */\n      add\n        /* \"#utility.yul\":4406:4434   */\n      swap1\n      pop\n        /* \"#utility.yul\":4177:4440   */\n      swap3\n      swap2\n      pop\n      pop\n      jump\t// out\n        /* \"#utility.yul\":4446:4580   */\n    tag_97:\n        /* \"#utility.yul\":4537:4541   */\n      0x00\n        /* \"#utility.yul\":4569:4573   */\n      0x20\n        /* \"#utility.yul\":4564:4567   */\n      dup3\n        /* \"#utility.yul\":4560:4574   */\n      add\n        /* \"#utility.yul\":4552:4574   */\n      swap1\n      pop\n        /* \"#utility.yul\":4446:4580   */\n      swap2\n      swap1\n      pop\n      jump\t// out\n        /* \"#utility.yul\":4654:5554   */\n    tag_98:\n        /* \"#utility.yul\":4815:4818   */\n      0x00\n        /* \"#utility.yul\":4844:4919   */\n      tag_156\n        /* \"#utility.yul\":4913:4918   */\n      dup3\n        /* \"#utility.yul\":4844:4919   */\n      tag_90\n      jump\t// in\n    tag_156:\n        /* \"#utility.yul\":4935:5042   */\n      tag_157\n        /* \"#utility.yul\":5035:5041   */\n      dup2\n        /* \"#utility.yul\":5030:5033   */\n      dup6\n        /* \"#utility.yul\":4935:5042   */\n      tag_91\n      jump\t// in\n    tag_157:\n        /* \"#utility.yul\":4928:5042   */\n      swap4\n      pop\n        /* \"#utility.yul\":5066:5143   */\n      tag_158\n        /* \"#utility.yul\":5137:5142   */\n      dup4\n        /* \"#utility.yul\":5066:5143   */\n      tag_92\n      jump\t// in\n    tag_158:\n        /* \"#utility.yul\":5166:5173   */\n      dup1\n        /* \"#utility.yul\":5197:5198   */\n      0x00\n        /* \"#utility.yul\":5182:5529   */\n    tag_159:\n        /* \"#utility.yul\":5207:5213   */\n      dup4\n        /* \"#utility.yul\":5204:5205   */\n      dup2\n        /* \"#utility.yul\":5201:5214   */\n      lt\n        /* \"#utility.yul\":5182:5529   */\n      iszero\n      tag_161\n      jumpi\n        /* \"#utility.yul\":5283:5289   */\n      dup2\n        /* \"#utility.yul\":5277:5290   */\n      mload\n        /* \"#utility.yul\":5310:5415   */\n      tag_162\n        /* \"#utility.yul\":5411:5414   */\n      dup9\n        /* \"#utility.yul\":5396:5409   */\n      dup3\n        /* \"#utility.yul\":5310:5415   */\n      tag_96\n      jump\t// in\n    tag_162:\n        /* \"#utility.yul\":5303:5415   */\n      swap8\n      pop\n        /* \"#utility.yul\":5438:5519   */\n      tag_163\n        /* \"#utility.yul\":5512:5518   */\n      dup4\n        /* \"#utility.yul\":5438:5519   */\n      tag_97\n      jump\t// in\n    tag_163:\n        /* \"#utility.yul\":5428:5519   */\n      swap3\n      pop\n        /* \"#utility.yul\":5242:5529   */\n      pop\n        /* \"#utility.yul\":5229:5230   */\n      0x01\n        /* \"#utility.yul\":5226:5227   */\n      dup2\n        /* \"#utility.yul\":5222:5231   */\n      add\n        /* \"#utility.yul\":5217:5231   */\n      swap1\n      pop\n        /* \"#utility.yul\":5182:5529   */\n      jump(tag_159)\n    tag_161:\n        /* \"#utility.yul\":5186:5200   */\n      pop\n        /* \"#utility.yul\":5545:5548   */\n      dup6\n        /* \"#utility.yul\":5538:5548   */\n      swap4\n      pop\n        /* \"#utility.yul\":4820:5554   */\n      pop\n      pop\n      pop\n        /* \"#utility.yul\":4654:5554   */\n      swap3\n      swap2\n      pop\n      pop\n      jump\t// out\n        /* \"#utility.yul\":5560:6017   */\n    tag_25:\n        /* \"#utility.yul\":5745:5749   */\n      0x00\n        /* \"#utility.yul\":5783:5785   */\n      0x20\n        /* \"#utility.yul\":5772:5781   */\n      dup3\n        /* \"#utility.yul\":5768:5786   */\n      add\n        /* \"#utility.yul\":5760:5786   */\n      swap1\n      pop\n        /* \"#utility.yul\":5832:5841   */\n      dup2\n        /* \"#utility.yul\":5826:5830   */\n      dup2\n        /* \"#utility.yul\":5822:5842   */\n      sub\n        /* \"#utility.yul\":5818:5819   */\n      0x00\n        /* \"#utility.yul\":5807:5816   */\n      dup4\n        /* \"#utility.yul\":5803:5820   */\n      add\n        /* \"#utility.yul\":5796:5843   */\n      mstore\n        /* \"#utility.yul\":5860:6010   */\n      tag_165\n        /* \"#utility.yul\":6005:6009   */\n      dup2\n        /* \"#utility.yul\":5996:6002   */\n      dup5\n        /* \"#utility.yul\":5860:6010   */\n      tag_98\n      jump\t// in\n    tag_165:\n        /* \"#utility.yul\":5852:6010   */\n      swap1\n      pop\n        /* \"#utility.yul\":5560:6017   */\n      swap3\n      swap2\n      pop\n      pop\n      jump\t// out\n        /* \"#utility.yul\":6023:6192   */\n    tag_99:\n        /* \"#utility.yul\":6107:6118   */\n      0x00\n        /* \"#utility.yul\":6141:6147   */\n      dup3\n        /* \"#utility.yul\":6136:6139   */\n      dup3\n        /* \"#utility.yul\":6129:6148   */\n      mstore\n        /* \"#utility.yul\":6181:6185   */\n      0x20\n        /* \"#utility.yul\":6176:6179   */\n      dup3\n        /* \"#utility.yul\":6172:6186   */\n      add\n        /* \"#utility.yul\":6157:6186   */\n      swap1\n      pop\n        /* \"#utility.yul\":6023:6192   */\n      swap3\n      swap2\n      pop\n      pop\n      jump\t// out\n        /* \"#utility.yul\":6198:6424   */\n    tag_100:\n        /* \"#utility.yul\":6338:6372   */\n      0x47756573736564206e756d626572206d757374206265206265747765656e2031\n        /* \"#utility.yul\":6334:6335   */\n      0x00\n        /* \"#utility.yul\":6326:6332   */\n      dup3\n        /* \"#utility.yul\":6322:6336   */\n      add\n        /* \"#utility.yul\":6315:6373   */\n      mstore\n        /* \"#utility.yul\":6407:6416   */\n      0x20616e6420313000000000000000000000000000000000000000000000000000\n        /* \"#utility.yul\":6402:6404   */\n      0x20\n        /* \"#utility.yul\":6394:6400   */\n      dup3\n        /* \"#utility.yul\":6390:6405   */\n      add\n        /* \"#utility.yul\":6383:6417   */\n      mstore\n        /* \"#utility.yul\":6198:6424   */\n      pop\n      jump\t// out\n        /* \"#utility.yul\":6430:6796   */\n    tag_101:\n        /* \"#utility.yul\":6572:6575   */\n      0x00\n        /* \"#utility.yul\":6593:6660   */\n      tag_169\n        /* \"#utility.yul\":6657:6659   */\n      0x27\n        /* \"#utility.yul\":6652:6655   */\n      dup4\n        /* \"#utility.yul\":6593:6660   */\n      tag_99\n      jump\t// in\n    tag_169:\n        /* \"#utility.yul\":6586:6660   */\n      swap2\n      pop\n        /* \"#utility.yul\":6669:6762   */\n      tag_170\n        /* \"#utility.yul\":6758:6761   */\n      dup3\n        /* \"#utility.yul\":6669:6762   */\n      tag_100\n      jump\t// in\n    tag_170:\n        /* \"#utility.yul\":6787:6789   */\n      0x40\n        /* \"#utility.yul\":6782:6785   */\n      dup3\n        /* \"#utility.yul\":6778:6790   */\n      add\n        /* \"#utility.yul\":6771:6790   */\n      swap1\n      pop\n        /* \"#utility.yul\":6430:6796   */\n      swap2\n      swap1\n      pop\n      jump\t// out\n        /* \"#utility.yul\":6802:7221   */\n    tag_34:\n        /* \"#utility.yul\":6968:6972   */\n      0x00\n        /* \"#utility.yul\":7006:7008   */\n      0x20\n        /* \"#utility.yul\":6995:7004   */\n      dup3\n        /* \"#utility.yul\":6991:7009   */\n      add\n        /* \"#utility.yul\":6983:7009   */\n      swap1\n      pop\n        /* \"#utility.yul\":7055:7064   */\n      dup2\n        /* \"#utility.yul\":7049:7053   */\n      dup2\n        /* \"#utility.yul\":7045:7065   */\n      sub\n        /* \"#utility.yul\":7041:7042   */\n      0x00\n        /* \"#utility.yul\":7030:7039   */\n      dup4\n        /* \"#utility.yul\":7026:7043   */\n      add\n        /* \"#utility.yul\":7019:7066   */\n      mstore\n        /* \"#utility.yul\":7083:7214   */\n      tag_172\n        /* \"#utility.yul\":7209:7213   */\n      dup2\n        /* \"#utility.yul\":7083:7214   */\n      tag_101\n      jump\t// in\n    tag_172:\n        /* \"#utility.yul\":7075:7214   */\n      swap1\n      pop\n        /* \"#utility.yul\":6802:7221   */\n      swap2\n      swap1\n      pop\n      jump\t// out\n        /* \"#utility.yul\":7227:7407   */\n    tag_102:\n        /* \"#utility.yul\":7275:7352   */\n      0x4e487b7100000000000000000000000000000000000000000000000000000000\n        /* \"#utility.yul\":7272:7273   */\n      0x00\n        /* \"#utility.yul\":7265:7353   */\n      mstore\n        /* \"#utility.yul\":7372:7376   */\n      0x12\n        /* \"#utility.yul\":7369:7370   */\n      0x04\n        /* \"#utility.yul\":7362:7377   */\n      mstore\n        /* \"#utility.yul\":7396:7400   */\n      0x24\n        /* \"#utility.yul\":7393:7394   */\n      0x00\n        /* \"#utility.yul\":7386:7401   */\n      revert\n        /* \"#utility.yul\":7413:7589   */\n    tag_37:\n        /* \"#utility.yul\":7445:7446   */\n      0x00\n        /* \"#utility.yul\":7462:7482   */\n      tag_175\n        /* \"#utility.yul\":7480:7481   */\n      dup3\n        /* \"#utility.yul\":7462:7482   */\n      tag_76\n      jump\t// in\n    tag_175:\n        /* \"#utility.yul\":7457:7482   */\n      swap2\n      pop\n        /* \"#utility.yul\":7496:7516   */\n      tag_176\n        /* \"#utility.yul\":7514:7515   */\n      dup4\n        /* \"#utility.yul\":7496:7516   */\n      tag_76\n      jump\t// in\n    tag_176:\n        /* \"#utility.yul\":7491:7516   */\n      swap3\n      pop\n        /* \"#utility.yul\":7535:7536   */\n      dup3\n        /* \"#utility.yul\":7525:7560   */\n      tag_177\n      jumpi\n        /* \"#utility.yul\":7540:7558   */\n      tag_178\n      tag_102\n      jump\t// in\n    tag_178:\n        /* \"#utility.yul\":7525:7560   */\n    tag_177:\n        /* \"#utility.yul\":7581:7582   */\n      dup3\n        /* \"#utility.yul\":7578:7579   */\n      dup3\n        /* \"#utility.yul\":7574:7583   */\n      mod\n        /* \"#utility.yul\":7569:7583   */\n      swap1\n      pop\n        /* \"#utility.yul\":7413:7589   */\n      swap3\n      swap2\n      pop\n      pop\n      jump\t// out\n        /* \"#utility.yul\":7595:7775   */\n    tag_103:\n        /* \"#utility.yul\":7643:7720   */\n      0x4e487b7100000000000000000000000000000000000000000000000000000000\n        /* \"#utility.yul\":7640:7641   */\n      0x00\n        /* \"#utility.yul\":7633:7721   */\n      mstore\n        /* \"#utility.yul\":7740:7744   */\n      0x11\n        /* \"#utility.yul\":7737:7738   */\n      0x04\n        /* \"#utility.yul\":7730:7745   */\n      mstore\n        /* \"#utility.yul\":7764:7768   */\n      0x24\n        /* \"#utility.yul\":7761:7762   */\n      0x00\n        /* \"#utility.yul\":7754:7769   */\n      revert\n        /* \"#utility.yul\":7781:7972   */\n    tag_40:\n        /* \"#utility.yul\":7821:7824   */\n      0x00\n        /* \"#utility.yul\":7840:7860   */\n      tag_181\n        /* \"#utility.yul\":7858:7859   */\n      dup3\n        /* \"#utility.yul\":7840:7860   */\n      tag_76\n      jump\t// in\n    tag_181:\n        /* \"#utility.yul\":7835:7860   */\n      swap2\n      pop\n        /* \"#utility.yul\":7874:7894   */\n      tag_182\n        /* \"#utility.yul\":7892:7893   */\n      dup4\n        /* \"#utility.yul\":7874:7894   */\n      tag_76\n      jump\t// in\n    tag_182:\n        /* \"#utility.yul\":7869:7894   */\n      swap3\n      pop\n        /* \"#utility.yul\":7917:7918   */\n      dup3\n        /* \"#utility.yul\":7914:7915   */\n      dup3\n        /* \"#utility.yul\":7910:7919   */\n      add\n        /* \"#utility.yul\":7903:7919   */\n      swap1\n      pop\n        /* \"#utility.yul\":7938:7941   */\n      dup1\n        /* \"#utility.yul\":7935:7936   */\n      dup3\n        /* \"#utility.yul\":7932:7942   */\n      gt\n        /* \"#utility.yul\":7929:7965   */\n      iszero\n      tag_183\n      jumpi\n        /* \"#utility.yul\":7945:7963   */\n      tag_184\n      tag_103\n      jump\t// in\n    tag_184:\n        /* \"#utility.yul\":7929:7965   */\n    tag_183:\n        /* \"#utility.yul\":7781:7972   */\n      swap3\n      swap2\n      pop\n      pop\n      jump\t// out\n        /* \"#utility.yul\":7978:8158   */\n    tag_63:\n        /* \"#utility.yul\":8026:8103   */\n      0x4e487b7100000000000000000000000000000000000000000000000000000000\n        /* \"#utility.yul\":8023:8024   */\n      0x00\n        /* \"#utility.yul\":8016:8104   */\n      mstore\n        /* \"#utility.yul\":8123:8127   */\n      0x32\n        /* \"#utility.yul\":8120:8121   */\n      0x04\n        /* \"#utility.yul\":8113:8128   */\n      mstore\n        /* \"#utility.yul\":8147:8151   */\n      0x24\n        /* \"#utility.yul\":8144:8145   */\n      0x00\n        /* \"#utility.yul\":8137:8152   */\n      revert\n\n    auxdata: 0xa26469706673582212208a93dd029e0276dea0ac2a67d0ba781cf7f60445ae9cfb61499fa841981ec1e464736f6c634300081a0033\n}\n",
				"bytecode": {
					"linkReferences": {},
					"object": "6080604052348015600e575f80fd5b506109fc8061001c5f395ff3fe608060405234801561000f575f80fd5b5060043610610055575f3560e01c806347ce07cc1461005957806353a04b0514610077578063a2fb117514610093578063df15c37e146100c4578063f71d96cb146100e2575b5f80fd5b610061610113565b60405161006e91906105e3565b60405180910390f35b610091600480360381019061008c9190610636565b610118565b005b6100ad60048036038101906100a8919061068b565b610289565b6040516100bb929190610704565b60405180910390f35b6100cc6102df565b6040516100d9919061081e565b60405180910390f35b6100fc60048036038101906100f7919061068b565b6103a7565b60405161010a929190610704565b60405180910390f35b5f5481565b60018160ff16101580156101305750600a8160ff1611155b61016f576040517f08c379a0000000000000000000000000000000000000000000000000000000008152600401610166906108be565b60405180910390fd5b600160405180604001604052803373ffffffffffffffffffffffffffffffffffffffff1681526020018360ff16815250908060018154018082558091505060019003905f5260205f20015f909190919091505f820151815f015f6101000a81548173ffffffffffffffffffffffffffffffffffffffff021916908373ffffffffffffffffffffffffffffffffffffffff1602179055506020820151815f0160146101000a81548160ff021916908360ff16021790555050505f43405f1c90505f4290506103e8816102409190610909565b6103e88361024e9190610909565b6102589190610966565b5f808282546102679190610966565b92505081905550600a60018054905003610284576102836103fd565b5b505050565b60028181548110610298575f80fd5b905f5260205f20015f91509050805f015f9054906101000a900473ffffffffffffffffffffffffffffffffffffffff1690805f0160149054906101000a900460ff16905082565b60606002805480602002602001604051908101604052809291908181526020015f905b8282101561039e578382905f5260205f20016040518060400160405290815f82015f9054906101000a900473ffffffffffffffffffffffffffffffffffffffff1673ffffffffffffffffffffffffffffffffffffffff1673ffffffffffffffffffffffffffffffffffffffff1681526020015f820160149054906101000a900460ff1660ff1660ff168152505081526020019060010190610302565b50505050905090565b600181815481106103b6575f80fd5b905f5260205f20015f91509050805f015f9054906101000a900473ffffffffffffffffffffffffffffffffffffffff1690805f0160149054906101000a900460ff16905082565b60025f61040a919061055e565b5f6001600a5f5461041b9190610909565b6104259190610966565b90505f5b60018054905081101561054d578160ff166001828154811061044e5761044d610999565b5b905f5260205f20015f0160149054906101000a900460ff1660ff16036105405760026001828154811061048457610483610999565b5b905f5260205f2001908060018154018082558091505060019003905f5260205f20015f909190919091505f82015f9054906101000a900473ffffffffffffffffffffffffffffffffffffffff16815f015f6101000a81548173ffffffffffffffffffffffffffffffffffffffff021916908373ffffffffffffffffffffffffffffffffffffffff1602179055505f820160149054906101000a900460ff16815f0160146101000a81548160ff021916908360ff16021790555050505b8080600101915050610429565b5060015f61055b919061055e565b50565b5080545f8255905f5260205f2090810190610579919061057c565b50565b5b808211156105c7575f8082015f6101000a81549073ffffffffffffffffffffffffffffffffffffffff02191690555f820160146101000a81549060ff02191690555060010161057d565b5090565b5f819050919050565b6105dd816105cb565b82525050565b5f6020820190506105f65f8301846105d4565b92915050565b5f80fd5b5f60ff82169050919050565b61061581610600565b811461061f575f80fd5b50565b5f813590506106308161060c565b92915050565b5f6020828403121561064b5761064a6105fc565b5b5f61065884828501610622565b91505092915050565b61066a816105cb565b8114610674575f80fd5b50565b5f8135905061068581610661565b92915050565b5f602082840312156106a05761069f6105fc565b5b5f6106ad84828501610677565b91505092915050565b5f73ffffffffffffffffffffffffffffffffffffffff82169050919050565b5f6106df826106b6565b9050919050565b6106ef816106d5565b82525050565b6106fe81610600565b82525050565b5f6040820190506107175f8301856106e6565b61072460208301846106f5565b9392505050565b5f81519050919050565b5f82825260208201905092915050565b5f819050602082019050919050565b61075d816106d5565b82525050565b61076c81610600565b82525050565b604082015f8201516107865f850182610754565b5060208201516107996020850182610763565b50505050565b5f6107aa8383610772565b60408301905092915050565b5f602082019050919050565b5f6107cc8261072b565b6107d68185610735565b93506107e183610745565b805f5b838110156108115781516107f8888261079f565b9750610803836107b6565b9250506001810190506107e4565b5085935050505092915050565b5f6020820190508181035f83015261083681846107c2565b905092915050565b5f82825260208201905092915050565b7f47756573736564206e756d626572206d757374206265206265747765656e20315f8201527f20616e6420313000000000000000000000000000000000000000000000000000602082015250565b5f6108a860278361083e565b91506108b38261084e565b604082019050919050565b5f6020820190508181035f8301526108d58161089c565b9050919050565b7f4e487b71000000000000000000000000000000000000000000000000000000005f52601260045260245ffd5b5f610913826105cb565b915061091e836105cb565b92508261092e5761092d6108dc565b5b828206905092915050565b7f4e487b71000000000000000000000000000000000000000000000000000000005f52601160045260245ffd5b5f610970826105cb565b915061097b836105cb565b925082820190508082111561099357610992610939565b5b92915050565b7f4e487b71000000000000000000000000000000000000000000000000000000005f52603260045260245ffdfea26469706673582212208a93dd029e0276dea0ac2a67d0ba781cf7f60445ae9cfb61499fa841981ec1e464736f6c634300081a0033",
					"opcodes": "PUSH1 0x80 PUSH1 0x40 MSTORE CALLVALUE DUP1 ISZERO PUSH1 0xE JUMPI PUSH0 DUP1 REVERT JUMPDEST POP PUSH2 0x9FC DUP1 PUSH2 0x1C PUSH0 CODECOPY PUSH0 RETURN INVALID PUSH1 0x80 PUSH1 0x40 MSTORE CALLVALUE DUP1 ISZERO PUSH2 0xF JUMPI PUSH0 DUP1 REVERT JUMPDEST POP PUSH1 0x4 CALLDATASIZE LT PUSH2 0x55 JUMPI PUSH0 CALLDATALOAD PUSH1 0xE0 SHR DUP1 PUSH4 0x47CE07CC EQ PUSH2 0x59 JUMPI DUP1 PUSH4 0x53A04B05 EQ PUSH2 0x77 JUMPI DUP1 PUSH4 0xA2FB1175 EQ PUSH2 0x93 JUMPI DUP1 PUSH4 0xDF15C37E EQ PUSH2 0xC4 JUMPI DUP1 PUSH4 0xF71D96CB EQ PUSH2 0xE2 JUMPI JUMPDEST PUSH0 DUP1 REVERT JUMPDEST PUSH2 0x61 PUSH2 0x113 JUMP JUMPDEST PUSH1 0x40 MLOAD PUSH2 0x6E SWAP2 SWAP1 PUSH2 0x5E3 JUMP JUMPDEST PUSH1 0x40 MLOAD DUP1 SWAP2 SUB SWAP1 RETURN JUMPDEST PUSH2 0x91 PUSH1 0x4 DUP1 CALLDATASIZE SUB DUP2 ADD SWAP1 PUSH2 0x8C SWAP2 SWAP1 PUSH2 0x636 JUMP JUMPDEST PUSH2 0x118 JUMP JUMPDEST STOP JUMPDEST PUSH2 0xAD PUSH1 0x4 DUP1 CALLDATASIZE SUB DUP2 ADD SWAP1 PUSH2 0xA8 SWAP2 SWAP1 PUSH2 0x68B JUMP JUMPDEST PUSH2 0x289 JUMP JUMPDEST PUSH1 0x40 MLOAD PUSH2 0xBB SWAP3 SWAP2 SWAP1 PUSH2 0x704 JUMP JUMPDEST PUSH1 0x40 MLOAD DUP1 SWAP2 SUB SWAP1 RETURN JUMPDEST PUSH2 0xCC PUSH2 0x2DF JUMP JUMPDEST PUSH1 0x40 MLOAD PUSH2 0xD9 SWAP2 SWAP1 PUSH2 0x81E JUMP JUMPDEST PUSH1 0x40 MLOAD DUP1 SWAP2 SUB SWAP1 RETURN JUMPDEST PUSH2 0xFC PUSH1 0x4 DUP1 CALLDATASIZE SUB DUP2 ADD SWAP1 PUSH2 0xF7 SWAP2 SWAP1 PUSH2 0x68B JUMP JUMPDEST PUSH2 0x3A7 JUMP JUMPDEST PUSH1 0x40 MLOAD PUSH2 0x10A SWAP3 SWAP2 SWAP1 PUSH2 0x704 JUMP JUMPDEST PUSH1 0x40 MLOAD DUP1 SWAP2 SUB SWAP1 RETURN JUMPDEST PUSH0 SLOAD DUP2 JUMP JUMPDEST PUSH1 0x1 DUP2 PUSH1 0xFF AND LT ISZERO DUP1 ISZERO PUSH2 0x130 JUMPI POP PUSH1 0xA DUP2 PUSH1 0xFF AND GT ISZERO JUMPDEST PUSH2 0x16F JUMPI PUSH1 0x40 MLOAD PUSH32 0x8C379A000000000000000000000000000000000000000000000000000000000 DUP2 MSTORE PUSH1 0x4 ADD PUSH2 0x166 SWAP1 PUSH2 0x8BE JUMP JUMPDEST PUSH1 0x40 MLOAD DUP1 SWAP2 SUB SWAP1 REVERT JUMPDEST PUSH1 0x1 PUSH1 0x40 MLOAD DUP1 PUSH1 0x40 ADD PUSH1 0x40 MSTORE DUP1 CALLER PUSH20 0xFFFFFFFFFFFFFFFFFFFFFFFFFFFFFFFFFFFFFFFF AND DUP2 MSTORE PUSH1 0x20 ADD DUP4 PUSH1 0xFF AND DUP2 MSTORE POP SWAP1 DUP1 PUSH1 0x1 DUP2 SLOAD ADD DUP1 DUP3 SSTORE DUP1 SWAP2 POP POP PUSH1 0x1 SWAP1 SUB SWAP1 PUSH0 MSTORE PUSH1 0x20 PUSH0 KECCAK256 ADD PUSH0 SWAP1 SWAP2 SWAP1 SWAP2 SWAP1 SWAP2 POP PUSH0 DUP3 ADD MLOAD DUP2 PUSH0 ADD PUSH0 PUSH2 0x100 EXP DUP2 SLOAD DUP2 PUSH20 0xFFFFFFFFFFFFFFFFFFFFFFFFFFFFFFFFFFFFFFFF MUL NOT AND SWAP1 DUP4 PUSH20 0xFFFFFFFFFFFFFFFFFFFFFFFFFFFFFFFFFFFFFFFF AND MUL OR SWAP1 SSTORE POP PUSH1 0x20 DUP3 ADD MLOAD DUP2 PUSH0 ADD PUSH1 0x14 PUSH2 0x100 EXP DUP2 SLOAD DUP2 PUSH1 0xFF MUL NOT AND SWAP1 DUP4 PUSH1 0xFF AND MUL OR SWAP1 SSTORE POP POP POP PUSH0 NUMBER BLOCKHASH PUSH0 SHR SWAP1 POP PUSH0 TIMESTAMP SWAP1 POP PUSH2 0x3E8 DUP2 PUSH2 0x240 SWAP2 SWAP1 PUSH2 0x909 JUMP JUMPDEST PUSH2 0x3E8 DUP4 PUSH2 0x24E SWAP2 SWAP1 PUSH2 0x909 JUMP JUMPDEST PUSH2 0x258 SWAP2 SWAP1 PUSH2 0x966 JUMP JUMPDEST PUSH0 DUP1 DUP3 DUP3 SLOAD PUSH2 0x267 SWAP2 SWAP1 PUSH2 0x966 JUMP JUMPDEST SWAP3 POP POP DUP2 SWAP1 SSTORE POP PUSH1 0xA PUSH1 0x1 DUP1 SLOAD SWAP1 POP SUB PUSH2 0x284 JUMPI PUSH2 0x283 PUSH2 0x3FD JUMP JUMPDEST JUMPDEST POP POP POP JUMP JUMPDEST PUSH1 0x2 DUP2 DUP2 SLOAD DUP2 LT PUSH2 0x298 JUMPI PUSH0 DUP1 REVERT JUMPDEST SWAP1 PUSH0 MSTORE PUSH1 0x20 PUSH0 KECCAK256 ADD PUSH0 SWAP2 POP SWAP1 POP DUP1 PUSH0 ADD PUSH0 SWAP1 SLOAD SWAP1 PUSH2 0x100 EXP SWAP1 DIV PUSH20 0xFFFFFFFFFFFFFFFFFFFFFFFFFFFFFFFFFFFFFFFF AND SWAP1 DUP1 PUSH0 ADD PUSH1 0x14 SWAP1 SLOAD SWAP1 PUSH2 0x100 EXP SWAP1 DIV PUSH1 0xFF AND SWAP1 POP DUP3 JUMP JUMPDEST PUSH1 0x60 PUSH1 0x2 DUP1 SLOAD DUP1 PUSH1 0x20 MUL PUSH1 0x20 ADD PUSH1 0x40 MLOAD SWAP1 DUP2 ADD PUSH1 0x40 MSTORE DUP1 SWAP3 SWAP2 SWAP1 DUP2 DUP2 MSTORE PUSH1 0x20 ADD PUSH0 SWAP1 JUMPDEST DUP3 DUP3 LT ISZERO PUSH2 0x39E JUMPI DUP4 DUP3 SWAP1 PUSH0 MSTORE PUSH1 0x20 PUSH0 KECCAK256 ADD PUSH1 0x40 MLOAD DUP1 PUSH1 0x40 ADD PUSH1 0x40 MSTORE SWAP1 DUP2 PUSH0 DUP3 ADD PUSH0 SWAP1 SLOAD SWAP1 PUSH2 0x100 EXP SWAP1 DIV PUSH20 0xFFFFFFFFFFFFFFFFFFFFFFFFFFFFFFFFFFFFFFFF AND PUSH20 0xFFFFFFFFFFFFFFFFFFFFFFFFFFFFFFFFFFFFFFFF AND PUSH20 0xFFFFFFFFFFFFFFFFFFFFFFFFFFFFFFFFFFFFFFFF AND DUP2 MSTORE PUSH1 0x20 ADD PUSH0 DUP3 ADD PUSH1 0x14 SWAP1 SLOAD SWAP1 PUSH2 0x100 EXP SWAP1 DIV PUSH1 0xFF AND PUSH1 0xFF AND PUSH1 0xFF AND DUP2 MSTORE POP POP DUP2 MSTORE PUSH1 0x20 ADD SWAP1 PUSH1 0x1 ADD SWAP1 PUSH2 0x302 JUMP JUMPDEST POP POP POP POP SWAP1 POP SWAP1 JUMP JUMPDEST PUSH1 0x1 DUP2 DUP2 SLOAD DUP2 LT PUSH2 0x3B6 JUMPI PUSH0 DUP1 REVERT JUMPDEST SWAP1 PUSH0 MSTORE PUSH1 0x20 PUSH0 KECCAK256 ADD PUSH0 SWAP2 POP SWAP1 POP DUP1 PUSH0 ADD PUSH0 SWAP1 SLOAD SWAP1 PUSH2 0x100 EXP SWAP1 DIV PUSH20 0xFFFFFFFFFFFFFFFFFFFFFFFFFFFFFFFFFFFFFFFF AND SWAP1 DUP1 PUSH0 ADD PUSH1 0x14 SWAP1 SLOAD SWAP1 PUSH2 0x100 EXP SWAP1 DIV PUSH1 0xFF AND SWAP1 POP DUP3 JUMP JUMPDEST PUSH1 0x2 PUSH0 PUSH2 0x40A SWAP2 SWAP1 PUSH2 0x55E JUMP JUMPDEST PUSH0 PUSH1 0x1 PUSH1 0xA PUSH0 SLOAD PUSH2 0x41B SWAP2 SWAP1 PUSH2 0x909 JUMP JUMPDEST PUSH2 0x425 SWAP2 SWAP1 PUSH2 0x966 JUMP JUMPDEST SWAP1 POP PUSH0 JUMPDEST PUSH1 0x1 DUP1 SLOAD SWAP1 POP DUP2 LT ISZERO PUSH2 0x54D JUMPI DUP2 PUSH1 0xFF AND PUSH1 0x1 DUP3 DUP2 SLOAD DUP2 LT PUSH2 0x44E JUMPI PUSH2 0x44D PUSH2 0x999 JUMP JUMPDEST JUMPDEST SWAP1 PUSH0 MSTORE PUSH1 0x20 PUSH0 KECCAK256 ADD PUSH0 ADD PUSH1 0x14 SWAP1 SLOAD SWAP1 PUSH2 0x100 EXP SWAP1 DIV PUSH1 0xFF AND PUSH1 0xFF AND SUB PUSH2 0x540 JUMPI PUSH1 0x2 PUSH1 0x1 DUP3 DUP2 SLOAD DUP2 LT PUSH2 0x484 JUMPI PUSH2 0x483 PUSH2 0x999 JUMP JUMPDEST JUMPDEST SWAP1 PUSH0 MSTORE PUSH1 0x20 PUSH0 KECCAK256 ADD SWAP1 DUP1 PUSH1 0x1 DUP2 SLOAD ADD DUP1 DUP3 SSTORE DUP1 SWAP2 POP POP PUSH1 0x1 SWAP1 SUB SWAP1 PUSH0 MSTORE PUSH1 0x20 PUSH0 KECCAK256 ADD PUSH0 SWAP1 SWAP2 SWAP1 SWAP2 SWAP1 SWAP2 POP PUSH0 DUP3 ADD PUSH0 SWAP1 SLOAD SWAP1 PUSH2 0x100 EXP SWAP1 DIV PUSH20 0xFFFFFFFFFFFFFFFFFFFFFFFFFFFFFFFFFFFFFFFF AND DUP2 PUSH0 ADD PUSH0 PUSH2 0x100 EXP DUP2 SLOAD DUP2 PUSH20 0xFFFFFFFFFFFFFFFFFFFFFFFFFFFFFFFFFFFFFFFF MUL NOT AND SWAP1 DUP4 PUSH20 0xFFFFFFFFFFFFFFFFFFFFFFFFFFFFFFFFFFFFFFFF AND MUL OR SWAP1 SSTORE POP PUSH0 DUP3 ADD PUSH1 0x14 SWAP1 SLOAD SWAP1 PUSH2 0x100 EXP SWAP1 DIV PUSH1 0xFF AND DUP2 PUSH0 ADD PUSH1 0x14 PUSH2 0x100 EXP DUP2 SLOAD DUP2 PUSH1 0xFF MUL NOT AND SWAP1 DUP4 PUSH1 0xFF AND MUL OR SWAP1 SSTORE POP POP POP JUMPDEST DUP1 DUP1 PUSH1 0x1 ADD SWAP2 POP POP PUSH2 0x429 JUMP JUMPDEST POP PUSH1 0x1 PUSH0 PUSH2 0x55B SWAP2 SWAP1 PUSH2 0x55E JUMP JUMPDEST POP JUMP JUMPDEST POP DUP1 SLOAD PUSH0 DUP3 SSTORE SWAP1 PUSH0 MSTORE PUSH1 0x20 PUSH0 KECCAK256 SWAP1 DUP2 ADD SWAP1 PUSH2 0x579 SWAP2 SWAP1 PUSH2 0x57C JUMP JUMPDEST POP JUMP JUMPDEST JUMPDEST DUP1 DUP3 GT ISZERO PUSH2 0x5C7 JUMPI PUSH0 DUP1 DUP3 ADD PUSH0 PUSH2 0x100 EXP DUP2 SLOAD SWAP1 PUSH20 0xFFFFFFFFFFFFFFFFFFFFFFFFFFFFFFFFFFFFFFFF MUL NOT AND SWAP1 SSTORE PUSH0 DUP3 ADD PUSH1 0x14 PUSH2 0x100 EXP DUP2 SLOAD SWAP1 PUSH1 0xFF MUL NOT AND SWAP1 SSTORE POP PUSH1 0x1 ADD PUSH2 0x57D JUMP JUMPDEST POP SWAP1 JUMP JUMPDEST PUSH0 DUP2 SWAP1 POP SWAP2 SWAP1 POP JUMP JUMPDEST PUSH2 0x5DD DUP2 PUSH2 0x5CB JUMP JUMPDEST DUP3 MSTORE POP POP JUMP JUMPDEST PUSH0 PUSH1 0x20 DUP3 ADD SWAP1 POP PUSH2 0x5F6 PUSH0 DUP4 ADD DUP5 PUSH2 0x5D4 JUMP JUMPDEST SWAP3 SWAP2 POP POP JUMP JUMPDEST PUSH0 DUP1 REVERT JUMPDEST PUSH0 PUSH1 0xFF DUP3 AND SWAP1 POP SWAP2 SWAP1 POP JUMP JUMPDEST PUSH2 0x615 DUP2 PUSH2 0x600 JUMP JUMPDEST DUP2 EQ PUSH2 0x61F JUMPI PUSH0 DUP1 REVERT JUMPDEST POP JUMP JUMPDEST PUSH0 DUP2 CALLDATALOAD SWAP1 POP PUSH2 0x630 DUP2 PUSH2 0x60C JUMP JUMPDEST SWAP3 SWAP2 POP POP JUMP JUMPDEST PUSH0 PUSH1 0x20 DUP3 DUP5 SUB SLT ISZERO PUSH2 0x64B JUMPI PUSH2 0x64A PUSH2 0x5FC JUMP JUMPDEST JUMPDEST PUSH0 PUSH2 0x658 DUP5 DUP3 DUP6 ADD PUSH2 0x622 JUMP JUMPDEST SWAP2 POP POP SWAP3 SWAP2 POP POP JUMP JUMPDEST PUSH2 0x66A DUP2 PUSH2 0x5CB JUMP JUMPDEST DUP2 EQ PUSH2 0x674 JUMPI PUSH0 DUP1 REVERT JUMPDEST POP JUMP JUMPDEST PUSH0 DUP2 CALLDATALOAD SWAP1 POP PUSH2 0x685 DUP2 PUSH2 0x661 JUMP JUMPDEST SWAP3 SWAP2 POP POP JUMP JUMPDEST PUSH0 PUSH1 0x20 DUP3 DUP5 SUB SLT ISZERO PUSH2 0x6A0 JUMPI PUSH2 0x69F PUSH2 0x5FC JUMP JUMPDEST JUMPDEST PUSH0 PUSH2 0x6AD DUP5 DUP3 DUP6 ADD PUSH2 0x677 JUMP JUMPDEST SWAP2 POP POP SWAP3 SWAP2 POP POP JUMP JUMPDEST PUSH0 PUSH20 0xFFFFFFFFFFFFFFFFFFFFFFFFFFFFFFFFFFFFFFFF DUP3 AND SWAP1 POP SWAP2 SWAP1 POP JUMP JUMPDEST PUSH0 PUSH2 0x6DF DUP3 PUSH2 0x6B6 JUMP JUMPDEST SWAP1 POP SWAP2 SWAP1 POP JUMP JUMPDEST PUSH2 0x6EF DUP2 PUSH2 0x6D5 JUMP JUMPDEST DUP3 MSTORE POP POP JUMP JUMPDEST PUSH2 0x6FE DUP2 PUSH2 0x600 JUMP JUMPDEST DUP3 MSTORE POP POP JUMP JUMPDEST PUSH0 PUSH1 0x40 DUP3 ADD SWAP1 POP PUSH2 0x717 PUSH0 DUP4 ADD DUP6 PUSH2 0x6E6 JUMP JUMPDEST PUSH2 0x724 PUSH1 0x20 DUP4 ADD DUP5 PUSH2 0x6F5 JUMP JUMPDEST SWAP4 SWAP3 POP POP POP JUMP JUMPDEST PUSH0 DUP2 MLOAD SWAP1 POP SWAP2 SWAP1 POP JUMP JUMPDEST PUSH0 DUP3 DUP3 MSTORE PUSH1 0x20 DUP3 ADD SWAP1 POP SWAP3 SWAP2 POP POP JUMP JUMPDEST PUSH0 DUP2 SWAP1 POP PUSH1 0x20 DUP3 ADD SWAP1 POP SWAP2 SWAP1 POP JUMP JUMPDEST PUSH2 0x75D DUP2 PUSH2 0x6D5 JUMP JUMPDEST DUP3 MSTORE POP POP JUMP JUMPDEST PUSH2 0x76C DUP2 PUSH2 0x600 JUMP JUMPDEST DUP3 MSTORE POP POP JUMP JUMPDEST PUSH1 0x40 DUP3 ADD PUSH0 DUP3 ADD MLOAD PUSH2 0x786 PUSH0 DUP6 ADD DUP3 PUSH2 0x754 JUMP JUMPDEST POP PUSH1 0x20 DUP3 ADD MLOAD PUSH2 0x799 PUSH1 0x20 DUP6 ADD DUP3 PUSH2 0x763 JUMP JUMPDEST POP POP POP POP JUMP JUMPDEST PUSH0 PUSH2 0x7AA DUP4 DUP4 PUSH2 0x772 JUMP JUMPDEST PUSH1 0x40 DUP4 ADD SWAP1 POP SWAP3 SWAP2 POP POP JUMP JUMPDEST PUSH0 PUSH1 0x20 DUP3 ADD SWAP1 POP SWAP2 SWAP1 POP JUMP JUMPDEST PUSH0 PUSH2 0x7CC DUP3 PUSH2 0x72B JUMP JUMPDEST PUSH2 0x7D6 DUP2 DUP6 PUSH2 0x735 JUMP JUMPDEST SWAP4 POP PUSH2 0x7E1 DUP4 PUSH2 0x745 JUMP JUMPDEST DUP1 PUSH0 JUMPDEST DUP4 DUP2 LT ISZERO PUSH2 0x811 JUMPI DUP2 MLOAD PUSH2 0x7F8 DUP9 DUP3 PUSH2 0x79F JUMP JUMPDEST SWAP8 POP PUSH2 0x803 DUP4 PUSH2 0x7B6 JUMP JUMPDEST SWAP3 POP POP PUSH1 0x1 DUP2 ADD SWAP1 POP PUSH2 0x7E4 JUMP JUMPDEST POP DUP6 SWAP4 POP POP POP POP SWAP3 SWAP2 POP POP JUMP JUMPDEST PUSH0 PUSH1 0x20 DUP3 ADD SWAP1 POP DUP2 DUP2 SUB PUSH0 DUP4 ADD MSTORE PUSH2 0x836 DUP2 DUP5 PUSH2 0x7C2 JUMP JUMPDEST SWAP1 POP SWAP3 SWAP2 POP POP JUMP JUMPDEST PUSH0 DUP3 DUP3 MSTORE PUSH1 0x20 DUP3 ADD SWAP1 POP SWAP3 SWAP2 POP POP JUMP JUMPDEST PUSH32 0x47756573736564206E756D626572206D757374206265206265747765656E2031 PUSH0 DUP3 ADD MSTORE PUSH32 0x20616E6420313000000000000000000000000000000000000000000000000000 PUSH1 0x20 DUP3 ADD MSTORE POP JUMP JUMPDEST PUSH0 PUSH2 0x8A8 PUSH1 0x27 DUP4 PUSH2 0x83E JUMP JUMPDEST SWAP2 POP PUSH2 0x8B3 DUP3 PUSH2 0x84E JUMP JUMPDEST PUSH1 0x40 DUP3 ADD SWAP1 POP SWAP2 SWAP1 POP JUMP JUMPDEST PUSH0 PUSH1 0x20 DUP3 ADD SWAP1 POP DUP2 DUP2 SUB PUSH0 DUP4 ADD MSTORE PUSH2 0x8D5 DUP2 PUSH2 0x89C JUMP JUMPDEST SWAP1 POP SWAP2 SWAP1 POP JUMP JUMPDEST PUSH32 0x4E487B7100000000000000000000000000000000000000000000000000000000 PUSH0 MSTORE PUSH1 0x12 PUSH1 0x4 MSTORE PUSH1 0x24 PUSH0 REVERT JUMPDEST PUSH0 PUSH2 0x913 DUP3 PUSH2 0x5CB JUMP JUMPDEST SWAP2 POP PUSH2 0x91E DUP4 PUSH2 0x5CB JUMP JUMPDEST SWAP3 POP DUP3 PUSH2 0x92E JUMPI PUSH2 0x92D PUSH2 0x8DC JUMP JUMPDEST JUMPDEST DUP3 DUP3 MOD SWAP1 POP SWAP3 SWAP2 POP POP JUMP JUMPDEST PUSH32 0x4E487B7100000000000000000000000000000000000000000000000000000000 PUSH0 MSTORE PUSH1 0x11 PUSH1 0x4 MSTORE PUSH1 0x24 PUSH0 REVERT JUMPDEST PUSH0 PUSH2 0x970 DUP3 PUSH2 0x5CB JUMP JUMPDEST SWAP2 POP PUSH2 0x97B DUP4 PUSH2 0x5CB JUMP JUMPDEST SWAP3 POP DUP3 DUP3 ADD SWAP1 POP DUP1 DUP3 GT ISZERO PUSH2 0x993 JUMPI PUSH2 0x992 PUSH2 0x939 JUMP JUMPDEST JUMPDEST SWAP3 SWAP2 POP POP JUMP JUMPDEST PUSH32 0x4E487B7100000000000000000000000000000000000000000000000000000000 PUSH0 MSTORE PUSH1 0x32 PUSH1 0x4 MSTORE PUSH1 0x24 PUSH0 REVERT INVALID LOG2 PUSH5 0x6970667358 0x22 SLT KECCAK256 DUP11 SWAP4 0xDD MUL SWAP15 MUL PUSH23 0xDEA0AC2A67D0BA781CF7F60445AE9CFB61499FA841981E 0xC1 0xE4 PUSH5 0x736F6C6343 STOP ADDMOD BYTE STOP CALLER "
				},
				"gasEstimates": {
					"creation": {
						"codeDepositCost": "511200",
						"executionCost": "541",
						"totalCost": "511741"
					},
					"external": {
						"entropy()": "2402",
						"getWinners()": "infinite",
						"play(uint8)": "infinite",
						"players(uint256)": "7335",
						"winners(uint256)": "7291"
					},
					"internal": {
						"game()": "infinite"
					}
				},
				"methodIdentifiers": {
					"entropy()": "47ce07cc",
					"getWinners()": "df15c37e",
					"play(uint8)": "53a04b05",
					"players(uint256)": "f71d96cb",
					"winners(uint256)": "a2fb1175"
				}
			},
			"storageLayout": {
				"storage": [
					{
						"astId": 3,
						"contract": "week6task1.sol:GuessingGame",
						"label": "entropy",
						"offset": 0,
						"slot": "0",
						"type": "t_uint256"
					},
					{
						"astId": 12,
						"contract": "week6task1.sol:GuessingGame",
						"label": "players",
						"offset": 0,
						"slot": "1",
						"type": "t_array(t_struct(Player)8_storage)dyn_storage"
					},
					{
						"astId": 16,
						"contract": "week6task1.sol:GuessingGame",
						"label": "winners",
						"offset": 0,
						"slot": "2",
						"type": "t_array(t_struct(Player)8_storage)dyn_storage"
					}
				],
				"types": {
					"t_address": {
						"encoding": "inplace",
						"label": "address",
						"numberOfBytes": "20"
					},
					"t_array(t_struct(Player)8_storage)dyn_storage": {
						"base": "t_struct(Player)8_storage",
						"encoding": "dynamic_array",
						"label": "struct GuessingGame.Player[]",
						"numberOfBytes": "32"
					},
					"t_struct(Player)8_storage": {
						"encoding": "inplace",
						"label": "struct GuessingGame.Player",
						"members": [
							{
								"astId": 5,
								"contract": "week6task1.sol:GuessingGame",
								"label": "playerAddress",
								"offset": 0,
								"slot": "0",
								"type": "t_address"
							},
							{
								"astId": 7,
								"contract": "week6task1.sol:GuessingGame",
								"label": "guessedNumber",
								"offset": 20,
								"slot": "0",
								"type": "t_uint8"
							}
						],
						"numberOfBytes": "32"
					},
					"t_uint256": {
						"encoding": "inplace",
						"label": "uint256",
						"numberOfBytes": "32"
					},
					"t_uint8": {
						"encoding": "inplace",
						"label": "uint8",
						"numberOfBytes": "1"
					}
				}
			},
			"userdoc": {
				"kind": "user",
				"methods": {},
				"version": 1
			}
		}
	}
}