{
	"code5_4.sol": {
		"calculator": {
			"abi": [
				{
					"inputs": [
						{
							"internalType": "int256",
							"name": "number1",
							"type": "int256"
						},
						{
							"internalType": "int256",
							"name": "number2",
							"type": "int256"
						}
					],
					"name": "division",
					"outputs": [
						{
							"internalType": "int256",
							"name": "",
							"type": "int256"
						}
					],
					"stateMutability": "pure",
					"type": "function"
				},
				{
					"inputs": [
						{
							"internalType": "int256",
							"name": "number1",
							"type": "int256"
						},
						{
							"internalType": "int256",
							"name": "number2",
							"type": "int256"
						}
					],
					"name": "multiplication",
					"outputs": [
						{
							"internalType": "int256",
							"name": "",
							"type": "int256"
						}
					],
					"stateMutability": "pure",
					"type": "function"
				},
				{
					"inputs": [
						{
							"internalType": "int256",
							"name": "number1",
							"type": "int256"
						},
						{
							"internalType": "int256",
							"name": "number2",
							"type": "int256"
						}
					],
					"name": "remainder",
					"outputs": [
						{
							"internalType": "int256",
							"name": "",
							"type": "int256"
						}
					],
					"stateMutability": "pure",
					"type": "function"
				},
				{
					"inputs": [
						{
							"internalType": "int256",
							"name": "number1",
							"type": "int256"
						},
						{
							"internalType": "int256",
							"name": "number2",
							"type": "int256"
						}
					],
					"name": "substraction",
					"outputs": [
						{
							"internalType": "int256",
							"name": "",
							"type": "int256"
						}
					],
					"stateMutability": "pure",
					"type": "function"
				},
				{
					"inputs": [
						{
							"internalType": "int256",
							"name": "number1",
							"type": "int256"
						},
						{
							"internalType": "int256",
							"name": "number2",
							"type": "int256"
						}
					],
					"name": "summa",
					"outputs": [
						{
							"internalType": "int256",
							"name": "",
							"type": "int256"
						}
					],
					"stateMutability": "pure",
					"type": "function"
				}
			],
			"devdoc": {
				"kind": "dev",
				"methods": {},
				"version": 1
			},
			"evm": {
				"assembly": "    /* \"code5_4.sol\":28:840  contract calculator {... */\n  mstore(0x40, 0x80)\n  callvalue\n  dup1\n  iszero\n  tag_1\n  jumpi\n  0x00\n  dup1\n  revert\ntag_1:\n  pop\n  dataSize(sub_0)\n  dup1\n  dataOffset(sub_0)\n  0x00\n  codecopy\n  0x00\n  return\nstop\n\nsub_0: assembly {\n        /* \"code5_4.sol\":28:840  contract calculator {... */\n      mstore(0x40, 0x80)\n      callvalue\n      dup1\n      iszero\n      tag_1\n      jumpi\n      0x00\n      dup1\n      revert\n    tag_1:\n      pop\n      jumpi(tag_2, lt(calldatasize, 0x04))\n      shr(0xe0, calldataload(0x00))\n      dup1\n      0x09b7cdda\n      eq\n      tag_3\n      jumpi\n      dup1\n      0x1f62976f\n      eq\n      tag_4\n      jumpi\n      dup1\n      0x294bfb19\n      eq\n      tag_5\n      jumpi\n      dup1\n      0x3b904fd9\n      eq\n      tag_6\n      jumpi\n      dup1\n      0x7561bfc3\n      eq\n      tag_7\n      jumpi\n    tag_2:\n      0x00\n      dup1\n      revert\n        /* \"code5_4.sol\":450:638  function division  (int256 number1,int256 number2) public pure returns (int256) {... */\n    tag_3:\n      tag_8\n      0x04\n      dup1\n      calldatasize\n      sub\n      dup2\n      add\n      swap1\n      tag_9\n      swap2\n      swap1\n      tag_10\n      jump\t// in\n    tag_9:\n      tag_11\n      jump\t// in\n    tag_8:\n      mload(0x40)\n      tag_12\n      swap2\n      swap1\n      tag_13\n      jump\t// in\n    tag_12:\n      mload(0x40)\n      dup1\n      swap2\n      sub\n      swap1\n      return\n        /* \"code5_4.sol\":55:171  function summa(int256 number1,int256 number2) public pure returns (int256) {... */\n    tag_4:\n      tag_14\n      0x04\n      dup1\n      calldatasize\n      sub\n      dup2\n      add\n      swap1\n      tag_15\n      swap2\n      swap1\n      tag_10\n      jump\t// in\n    tag_15:\n      tag_16\n      jump\t// in\n    tag_14:\n      mload(0x40)\n      tag_17\n      swap2\n      swap1\n      tag_13\n      jump\t// in\n    tag_17:\n      mload(0x40)\n      dup1\n      swap2\n      sub\n      swap1\n      return\n        /* \"code5_4.sol\":179:302  function substraction(int256 number1,int256 number2) public pure returns (int256) {... */\n    tag_5:\n      tag_18\n      0x04\n      dup1\n      calldatasize\n      sub\n      dup2\n      add\n      swap1\n      tag_19\n      swap2\n      swap1\n      tag_10\n      jump\t// in\n    tag_19:\n      tag_20\n      jump\t// in\n    tag_18:\n      mload(0x40)\n      tag_21\n      swap2\n      swap1\n      tag_13\n      jump\t// in\n    tag_21:\n      mload(0x40)\n      dup1\n      swap2\n      sub\n      swap1\n      return\n        /* \"code5_4.sol\":310:442  function multiplication (int256 number1,int256 number2) public pure returns (int256) {... */\n    tag_6:\n      tag_22\n      0x04\n      dup1\n      calldatasize\n      sub\n      dup2\n      add\n      swap1\n      tag_23\n      swap2\n      swap1\n      tag_10\n      jump\t// in\n    tag_23:\n      tag_24\n      jump\t// in\n    tag_22:\n      mload(0x40)\n      tag_25\n      swap2\n      swap1\n      tag_13\n      jump\t// in\n    tag_25:\n      mload(0x40)\n      dup1\n      swap2\n      sub\n      swap1\n      return\n        /* \"code5_4.sol\":646:831  function remainder (int256 number1,int256 number2) public pure returns (int256) {... */\n    tag_7:\n      tag_26\n      0x04\n      dup1\n      calldatasize\n      sub\n      dup2\n      add\n      swap1\n      tag_27\n      swap2\n      swap1\n      tag_10\n      jump\t// in\n    tag_27:\n      tag_28\n      jump\t// in\n    tag_26:\n      mload(0x40)\n      tag_29\n      swap2\n      swap1\n      tag_13\n      jump\t// in\n    tag_29:\n      mload(0x40)\n      dup1\n      swap2\n      sub\n      swap1\n      return\n        /* \"code5_4.sol\":450:638  function division  (int256 number1,int256 number2) public pure returns (int256) {... */\n    tag_11:\n        /* \"code5_4.sol\":522:528  int256 */\n      0x00\n        /* \"code5_4.sol\":561:562  0 */\n      dup1\n        /* \"code5_4.sol\":550:557  number2 */\n      dup3\n        /* \"code5_4.sol\":550:562  number2 != 0 */\n      sub\n        /* \"code5_4.sol\":541:589  require (number2 != 0, \"can not divide by zero\") */\n      tag_31\n      jumpi\n      mload(0x40)\n      0x08c379a000000000000000000000000000000000000000000000000000000000\n      dup2\n      mstore\n      0x04\n      add\n      tag_32\n      swap1\n      tag_33\n      jump\t// in\n    tag_32:\n      mload(0x40)\n      dup1\n      swap2\n      sub\n      swap1\n      revert\n    tag_31:\n        /* \"code5_4.sol\":615:622  number2 */\n      dup2\n        /* \"code5_4.sol\":607:614  number1 */\n      dup4\n        /* \"code5_4.sol\":607:622  number1/number2 */\n      tag_34\n      swap2\n      swap1\n      tag_35\n      jump\t// in\n    tag_34:\n        /* \"code5_4.sol\":600:622  return number1/number2 */\n      swap1\n      pop\n        /* \"code5_4.sol\":450:638  function division  (int256 number1,int256 number2) public pure returns (int256) {... */\n      swap3\n      swap2\n      pop\n      pop\n      jump\t// out\n        /* \"code5_4.sol\":55:171  function summa(int256 number1,int256 number2) public pure returns (int256) {... */\n    tag_16:\n        /* \"code5_4.sol\":122:128  int256 */\n      0x00\n        /* \"code5_4.sol\":156:163  number2 */\n      dup2\n        /* \"code5_4.sol\":148:155  number1 */\n      dup4\n        /* \"code5_4.sol\":148:163  number1+number2 */\n      tag_37\n      swap2\n      swap1\n      tag_38\n      jump\t// in\n    tag_37:\n        /* \"code5_4.sol\":141:163  return number1+number2 */\n      swap1\n      pop\n        /* \"code5_4.sol\":55:171  function summa(int256 number1,int256 number2) public pure returns (int256) {... */\n      swap3\n      swap2\n      pop\n      pop\n      jump\t// out\n        /* \"code5_4.sol\":179:302  function substraction(int256 number1,int256 number2) public pure returns (int256) {... */\n    tag_20:\n        /* \"code5_4.sol\":253:259  int256 */\n      0x00\n        /* \"code5_4.sol\":287:294  number2 */\n      dup2\n        /* \"code5_4.sol\":279:286  number1 */\n      dup4\n        /* \"code5_4.sol\":279:294  number1-number2 */\n      tag_40\n      swap2\n      swap1\n      tag_41\n      jump\t// in\n    tag_40:\n        /* \"code5_4.sol\":272:294  return number1-number2 */\n      swap1\n      pop\n        /* \"code5_4.sol\":179:302  function substraction(int256 number1,int256 number2) public pure returns (int256) {... */\n      swap3\n      swap2\n      pop\n      pop\n      jump\t// out\n        /* \"code5_4.sol\":310:442  function multiplication (int256 number1,int256 number2) public pure returns (int256) {... */\n    tag_24:\n        /* \"code5_4.sol\":387:393  int256 */\n      0x00\n        /* \"code5_4.sol\":421:428  number2 */\n      dup2\n        /* \"code5_4.sol\":413:420  number1 */\n      dup4\n        /* \"code5_4.sol\":413:428  number1*number2 */\n      tag_43\n      swap2\n      swap1\n      tag_44\n      jump\t// in\n    tag_43:\n        /* \"code5_4.sol\":406:428  return number1*number2 */\n      swap1\n      pop\n        /* \"code5_4.sol\":310:442  function multiplication (int256 number1,int256 number2) public pure returns (int256) {... */\n      swap3\n      swap2\n      pop\n      pop\n      jump\t// out\n        /* \"code5_4.sol\":646:831  function remainder (int256 number1,int256 number2) public pure returns (int256) {... */\n    tag_28:\n        /* \"code5_4.sol\":718:724  int256 */\n      0x00\n        /* \"code5_4.sol\":756:757  0 */\n      dup1\n        /* \"code5_4.sol\":745:752  number2 */\n      dup3\n        /* \"code5_4.sol\":745:757  number2 != 0 */\n      sub\n        /* \"code5_4.sol\":736:784  require (number2 != 0, \"can not divide by zero\") */\n      tag_46\n      jumpi\n      mload(0x40)\n      0x08c379a000000000000000000000000000000000000000000000000000000000\n      dup2\n      mstore\n      0x04\n      add\n      tag_47\n      swap1\n      tag_33\n      jump\t// in\n    tag_47:\n      mload(0x40)\n      dup1\n      swap2\n      sub\n      swap1\n      revert\n    tag_46:\n        /* \"code5_4.sol\":810:817  number2 */\n      dup2\n        /* \"code5_4.sol\":802:809  number1 */\n      dup4\n        /* \"code5_4.sol\":802:817  number1%number2 */\n      tag_48\n      swap2\n      swap1\n      tag_49\n      jump\t// in\n    tag_48:\n        /* \"code5_4.sol\":795:817  return number1%number2 */\n      swap1\n      pop\n        /* \"code5_4.sol\":646:831  function remainder (int256 number1,int256 number2) public pure returns (int256) {... */\n      swap3\n      swap2\n      pop\n      pop\n      jump\t// out\n        /* \"#utility.yul\":88:205   */\n    tag_51:\n        /* \"#utility.yul\":197:198   */\n      0x00\n        /* \"#utility.yul\":194:195   */\n      dup1\n        /* \"#utility.yul\":187:199   */\n      revert\n        /* \"#utility.yul\":334:410   */\n    tag_53:\n        /* \"#utility.yul\":370:377   */\n      0x00\n        /* \"#utility.yul\":399:404   */\n      dup2\n        /* \"#utility.yul\":388:404   */\n      swap1\n      pop\n        /* \"#utility.yul\":334:410   */\n      swap2\n      swap1\n      pop\n      jump\t// out\n        /* \"#utility.yul\":416:536   */\n    tag_54:\n        /* \"#utility.yul\":488:511   */\n      tag_68\n        /* \"#utility.yul\":505:510   */\n      dup2\n        /* \"#utility.yul\":488:511   */\n      tag_53\n      jump\t// in\n    tag_68:\n        /* \"#utility.yul\":481:486   */\n      dup2\n        /* \"#utility.yul\":478:512   */\n      eq\n        /* \"#utility.yul\":468:530   */\n      tag_69\n      jumpi\n        /* \"#utility.yul\":526:527   */\n      0x00\n        /* \"#utility.yul\":523:524   */\n      dup1\n        /* \"#utility.yul\":516:528   */\n      revert\n        /* \"#utility.yul\":468:530   */\n    tag_69:\n        /* \"#utility.yul\":416:536   */\n      pop\n      jump\t// out\n        /* \"#utility.yul\":542:679   */\n    tag_55:\n        /* \"#utility.yul\":587:592   */\n      0x00\n        /* \"#utility.yul\":625:631   */\n      dup2\n        /* \"#utility.yul\":612:632   */\n      calldataload\n        /* \"#utility.yul\":603:632   */\n      swap1\n      pop\n        /* \"#utility.yul\":641:673   */\n      tag_71\n        /* \"#utility.yul\":667:672   */\n      dup2\n        /* \"#utility.yul\":641:673   */\n      tag_54\n      jump\t// in\n    tag_71:\n        /* \"#utility.yul\":542:679   */\n      swap3\n      swap2\n      pop\n      pop\n      jump\t// out\n        /* \"#utility.yul\":685:1155   */\n    tag_10:\n        /* \"#utility.yul\":751:757   */\n      0x00\n        /* \"#utility.yul\":759:765   */\n      dup1\n        /* \"#utility.yul\":808:810   */\n      0x40\n        /* \"#utility.yul\":796:805   */\n      dup4\n        /* \"#utility.yul\":787:794   */\n      dup6\n        /* \"#utility.yul\":783:806   */\n      sub\n        /* \"#utility.yul\":779:811   */\n      slt\n        /* \"#utility.yul\":776:895   */\n      iszero\n      tag_73\n      jumpi\n        /* \"#utility.yul\":814:893   */\n      tag_74\n      tag_51\n      jump\t// in\n    tag_74:\n        /* \"#utility.yul\":776:895   */\n    tag_73:\n        /* \"#utility.yul\":934:935   */\n      0x00\n        /* \"#utility.yul\":959:1011   */\n      tag_75\n        /* \"#utility.yul\":1003:1010   */\n      dup6\n        /* \"#utility.yul\":994:1000   */\n      dup3\n        /* \"#utility.yul\":983:992   */\n      dup7\n        /* \"#utility.yul\":979:1001   */\n      add\n        /* \"#utility.yul\":959:1011   */\n      tag_55\n      jump\t// in\n    tag_75:\n        /* \"#utility.yul\":949:1011   */\n      swap3\n      pop\n        /* \"#utility.yul\":905:1021   */\n      pop\n        /* \"#utility.yul\":1060:1062   */\n      0x20\n        /* \"#utility.yul\":1086:1138   */\n      tag_76\n        /* \"#utility.yul\":1130:1137   */\n      dup6\n        /* \"#utility.yul\":1121:1127   */\n      dup3\n        /* \"#utility.yul\":1110:1119   */\n      dup7\n        /* \"#utility.yul\":1106:1128   */\n      add\n        /* \"#utility.yul\":1086:1138   */\n      tag_55\n      jump\t// in\n    tag_76:\n        /* \"#utility.yul\":1076:1138   */\n      swap2\n      pop\n        /* \"#utility.yul\":1031:1148   */\n      pop\n        /* \"#utility.yul\":685:1155   */\n      swap3\n      pop\n      swap3\n      swap1\n      pop\n      jump\t// out\n        /* \"#utility.yul\":1161:1276   */\n    tag_56:\n        /* \"#utility.yul\":1246:1269   */\n      tag_78\n        /* \"#utility.yul\":1263:1268   */\n      dup2\n        /* \"#utility.yul\":1246:1269   */\n      tag_53\n      jump\t// in\n    tag_78:\n        /* \"#utility.yul\":1241:1244   */\n      dup3\n        /* \"#utility.yul\":1234:1270   */\n      mstore\n        /* \"#utility.yul\":1161:1276   */\n      pop\n      pop\n      jump\t// out\n        /* \"#utility.yul\":1282:1500   */\n    tag_13:\n        /* \"#utility.yul\":1373:1377   */\n      0x00\n        /* \"#utility.yul\":1411:1413   */\n      0x20\n        /* \"#utility.yul\":1400:1409   */\n      dup3\n        /* \"#utility.yul\":1396:1414   */\n      add\n        /* \"#utility.yul\":1388:1414   */\n      swap1\n      pop\n        /* \"#utility.yul\":1424:1493   */\n      tag_80\n        /* \"#utility.yul\":1490:1491   */\n      0x00\n        /* \"#utility.yul\":1479:1488   */\n      dup4\n        /* \"#utility.yul\":1475:1492   */\n      add\n        /* \"#utility.yul\":1466:1472   */\n      dup5\n        /* \"#utility.yul\":1424:1493   */\n      tag_56\n      jump\t// in\n    tag_80:\n        /* \"#utility.yul\":1282:1500   */\n      swap3\n      swap2\n      pop\n      pop\n      jump\t// out\n        /* \"#utility.yul\":1506:1675   */\n    tag_57:\n        /* \"#utility.yul\":1590:1601   */\n      0x00\n        /* \"#utility.yul\":1624:1630   */\n      dup3\n        /* \"#utility.yul\":1619:1622   */\n      dup3\n        /* \"#utility.yul\":1612:1631   */\n      mstore\n        /* \"#utility.yul\":1664:1668   */\n      0x20\n        /* \"#utility.yul\":1659:1662   */\n      dup3\n        /* \"#utility.yul\":1655:1669   */\n      add\n        /* \"#utility.yul\":1640:1669   */\n      swap1\n      pop\n        /* \"#utility.yul\":1506:1675   */\n      swap3\n      swap2\n      pop\n      pop\n      jump\t// out\n        /* \"#utility.yul\":1681:1853   */\n    tag_58:\n        /* \"#utility.yul\":1821:1845   */\n      0x63616e206e6f7420646976696465206279207a65726f00000000000000000000\n        /* \"#utility.yul\":1817:1818   */\n      0x00\n        /* \"#utility.yul\":1809:1815   */\n      dup3\n        /* \"#utility.yul\":1805:1819   */\n      add\n        /* \"#utility.yul\":1798:1846   */\n      mstore\n        /* \"#utility.yul\":1681:1853   */\n      pop\n      jump\t// out\n        /* \"#utility.yul\":1859:2225   */\n    tag_59:\n        /* \"#utility.yul\":2001:2004   */\n      0x00\n        /* \"#utility.yul\":2022:2089   */\n      tag_84\n        /* \"#utility.yul\":2086:2088   */\n      0x16\n        /* \"#utility.yul\":2081:2084   */\n      dup4\n        /* \"#utility.yul\":2022:2089   */\n      tag_57\n      jump\t// in\n    tag_84:\n        /* \"#utility.yul\":2015:2089   */\n      swap2\n      pop\n        /* \"#utility.yul\":2098:2191   */\n      tag_85\n        /* \"#utility.yul\":2187:2190   */\n      dup3\n        /* \"#utility.yul\":2098:2191   */\n      tag_58\n      jump\t// in\n    tag_85:\n        /* \"#utility.yul\":2216:2218   */\n      0x20\n        /* \"#utility.yul\":2211:2214   */\n      dup3\n        /* \"#utility.yul\":2207:2219   */\n      add\n        /* \"#utility.yul\":2200:2219   */\n      swap1\n      pop\n        /* \"#utility.yul\":1859:2225   */\n      swap2\n      swap1\n      pop\n      jump\t// out\n        /* \"#utility.yul\":2231:2650   */\n    tag_33:\n        /* \"#utility.yul\":2397:2401   */\n      0x00\n        /* \"#utility.yul\":2435:2437   */\n      0x20\n        /* \"#utility.yul\":2424:2433   */\n      dup3\n        /* \"#utility.yul\":2420:2438   */\n      add\n        /* \"#utility.yul\":2412:2438   */\n      swap1\n      pop\n        /* \"#utility.yul\":2484:2493   */\n      dup2\n        /* \"#utility.yul\":2478:2482   */\n      dup2\n        /* \"#utility.yul\":2474:2494   */\n      sub\n        /* \"#utility.yul\":2470:2471   */\n      0x00\n        /* \"#utility.yul\":2459:2468   */\n      dup4\n        /* \"#utility.yul\":2455:2472   */\n      add\n        /* \"#utility.yul\":2448:2495   */\n      mstore\n        /* \"#utility.yul\":2512:2643   */\n      tag_87\n        /* \"#utility.yul\":2638:2642   */\n      dup2\n        /* \"#utility.yul\":2512:2643   */\n      tag_59\n      jump\t// in\n    tag_87:\n        /* \"#utility.yul\":2504:2643   */\n      swap1\n      pop\n        /* \"#utility.yul\":2231:2650   */\n      swap2\n      swap1\n      pop\n      jump\t// out\n        /* \"#utility.yul\":2656:2836   */\n    tag_60:\n        /* \"#utility.yul\":2704:2781   */\n      0x4e487b7100000000000000000000000000000000000000000000000000000000\n        /* \"#utility.yul\":2701:2702   */\n      0x00\n        /* \"#utility.yul\":2694:2782   */\n      mstore\n        /* \"#utility.yul\":2801:2805   */\n      0x12\n        /* \"#utility.yul\":2798:2799   */\n      0x04\n        /* \"#utility.yul\":2791:2806   */\n      mstore\n        /* \"#utility.yul\":2825:2829   */\n      0x24\n        /* \"#utility.yul\":2822:2823   */\n      0x00\n        /* \"#utility.yul\":2815:2830   */\n      revert\n        /* \"#utility.yul\":2842:3022   */\n    tag_61:\n        /* \"#utility.yul\":2890:2967   */\n      0x4e487b7100000000000000000000000000000000000000000000000000000000\n        /* \"#utility.yul\":2887:2888   */\n      0x00\n        /* \"#utility.yul\":2880:2968   */\n      mstore\n        /* \"#utility.yul\":2987:2991   */\n      0x11\n        /* \"#utility.yul\":2984:2985   */\n      0x04\n        /* \"#utility.yul\":2977:2992   */\n      mstore\n        /* \"#utility.yul\":3011:3015   */\n      0x24\n        /* \"#utility.yul\":3008:3009   */\n      0x00\n        /* \"#utility.yul\":3001:3016   */\n      revert\n        /* \"#utility.yul\":3028:3413   */\n    tag_35:\n        /* \"#utility.yul\":3067:3068   */\n      0x00\n        /* \"#utility.yul\":3084:3103   */\n      tag_91\n        /* \"#utility.yul\":3101:3102   */\n      dup3\n        /* \"#utility.yul\":3084:3103   */\n      tag_53\n      jump\t// in\n    tag_91:\n        /* \"#utility.yul\":3079:3103   */\n      swap2\n      pop\n        /* \"#utility.yul\":3117:3136   */\n      tag_92\n        /* \"#utility.yul\":3134:3135   */\n      dup4\n        /* \"#utility.yul\":3117:3136   */\n      tag_53\n      jump\t// in\n    tag_92:\n        /* \"#utility.yul\":3112:3136   */\n      swap3\n      pop\n        /* \"#utility.yul\":3155:3156   */\n      dup3\n        /* \"#utility.yul\":3145:3180   */\n      tag_93\n      jumpi\n        /* \"#utility.yul\":3160:3178   */\n      tag_94\n      tag_60\n      jump\t// in\n    tag_94:\n        /* \"#utility.yul\":3145:3180   */\n    tag_93:\n        /* \"#utility.yul\":3346:3347   */\n      0x01\n        /* \"#utility.yul\":3343:3344   */\n      0x00\n        /* \"#utility.yul\":3339:3348   */\n      sub\n        /* \"#utility.yul\":3336:3337   */\n      dup4\n        /* \"#utility.yul\":3333:3349   */\n      eq\n        /* \"#utility.yul\":3252:3318   */\n      0x8000000000000000000000000000000000000000000000000000000000000000\n        /* \"#utility.yul\":3249:3250   */\n      dup4\n        /* \"#utility.yul\":3246:3319   */\n      eq\n        /* \"#utility.yul\":3229:3359   */\n      and\n        /* \"#utility.yul\":3226:3382   */\n      iszero\n      tag_95\n      jumpi\n        /* \"#utility.yul\":3362:3380   */\n      tag_96\n      tag_61\n      jump\t// in\n    tag_96:\n        /* \"#utility.yul\":3226:3382   */\n    tag_95:\n        /* \"#utility.yul\":3405:3406   */\n      dup3\n        /* \"#utility.yul\":3402:3403   */\n      dup3\n        /* \"#utility.yul\":3397:3407   */\n      sdiv\n        /* \"#utility.yul\":3392:3407   */\n      swap1\n      pop\n        /* \"#utility.yul\":3028:3413   */\n      swap3\n      swap2\n      pop\n      pop\n      jump\t// out\n        /* \"#utility.yul\":3419:3794   */\n    tag_38:\n        /* \"#utility.yul\":3458:3461   */\n      0x00\n        /* \"#utility.yul\":3477:3496   */\n      tag_98\n        /* \"#utility.yul\":3494:3495   */\n      dup3\n        /* \"#utility.yul\":3477:3496   */\n      tag_53\n      jump\t// in\n    tag_98:\n        /* \"#utility.yul\":3472:3496   */\n      swap2\n      pop\n        /* \"#utility.yul\":3510:3529   */\n      tag_99\n        /* \"#utility.yul\":3527:3528   */\n      dup4\n        /* \"#utility.yul\":3510:3529   */\n      tag_53\n      jump\t// in\n    tag_99:\n        /* \"#utility.yul\":3505:3529   */\n      swap3\n      pop\n        /* \"#utility.yul\":3552:3553   */\n      dup3\n        /* \"#utility.yul\":3549:3550   */\n      dup3\n        /* \"#utility.yul\":3545:3554   */\n      add\n        /* \"#utility.yul\":3538:3554   */\n      swap1\n      pop\n        /* \"#utility.yul\":3750:3751   */\n      dup3\n        /* \"#utility.yul\":3745:3748   */\n      dup2\n        /* \"#utility.yul\":3741:3752   */\n      slt\n        /* \"#utility.yul\":3734:3753   */\n      iszero\n        /* \"#utility.yul\":3730:3731   */\n      0x00\n        /* \"#utility.yul\":3727:3728   */\n      dup4\n        /* \"#utility.yul\":3723:3732   */\n      slt\n        /* \"#utility.yul\":3719:3754   */\n      and\n        /* \"#utility.yul\":3702:3703   */\n      dup4\n        /* \"#utility.yul\":3697:3700   */\n      dup3\n        /* \"#utility.yul\":3693:3704   */\n      slt\n        /* \"#utility.yul\":3688:3689   */\n      0x00\n        /* \"#utility.yul\":3685:3686   */\n      dup5\n        /* \"#utility.yul\":3681:3690   */\n      slt\n        /* \"#utility.yul\":3674:3691   */\n      iszero\n        /* \"#utility.yul\":3670:3705   */\n      and\n        /* \"#utility.yul\":3654:3764   */\n      or\n        /* \"#utility.yul\":3651:3787   */\n      iszero\n      tag_100\n      jumpi\n        /* \"#utility.yul\":3767:3785   */\n      tag_101\n      tag_61\n      jump\t// in\n    tag_101:\n        /* \"#utility.yul\":3651:3787   */\n    tag_100:\n        /* \"#utility.yul\":3419:3794   */\n      swap3\n      swap2\n      pop\n      pop\n      jump\t// out\n        /* \"#utility.yul\":3800:4172   */\n    tag_41:\n        /* \"#utility.yul\":3839:3843   */\n      0x00\n        /* \"#utility.yul\":3859:3878   */\n      tag_103\n        /* \"#utility.yul\":3876:3877   */\n      dup3\n        /* \"#utility.yul\":3859:3878   */\n      tag_53\n      jump\t// in\n    tag_103:\n        /* \"#utility.yul\":3854:3878   */\n      swap2\n      pop\n        /* \"#utility.yul\":3892:3911   */\n      tag_104\n        /* \"#utility.yul\":3909:3910   */\n      dup4\n        /* \"#utility.yul\":3892:3911   */\n      tag_53\n      jump\t// in\n    tag_104:\n        /* \"#utility.yul\":3887:3911   */\n      swap3\n      pop\n        /* \"#utility.yul\":3935:3936   */\n      dup3\n        /* \"#utility.yul\":3932:3933   */\n      dup3\n        /* \"#utility.yul\":3928:3937   */\n      sub\n        /* \"#utility.yul\":3920:3937   */\n      swap1\n      pop\n        /* \"#utility.yul\":4129:4130   */\n      dup2\n        /* \"#utility.yul\":4123:4127   */\n      dup2\n        /* \"#utility.yul\":4119:4131   */\n      slt\n        /* \"#utility.yul\":4115:4116   */\n      0x00\n        /* \"#utility.yul\":4112:4113   */\n      dup5\n        /* \"#utility.yul\":4108:4117   */\n      slt\n        /* \"#utility.yul\":4104:4132   */\n      and\n        /* \"#utility.yul\":4087:4088   */\n      dup3\n        /* \"#utility.yul\":4081:4085   */\n      dup3\n        /* \"#utility.yul\":4077:4089   */\n      sgt\n        /* \"#utility.yul\":4072:4073   */\n      0x00\n        /* \"#utility.yul\":4069:4070   */\n      dup6\n        /* \"#utility.yul\":4065:4074   */\n      slt\n        /* \"#utility.yul\":4058:4075   */\n      iszero\n        /* \"#utility.yul\":4054:4090   */\n      and\n        /* \"#utility.yul\":4038:4142   */\n      or\n        /* \"#utility.yul\":4035:4165   */\n      iszero\n      tag_105\n      jumpi\n        /* \"#utility.yul\":4145:4163   */\n      tag_106\n      tag_61\n      jump\t// in\n    tag_106:\n        /* \"#utility.yul\":4035:4165   */\n    tag_105:\n        /* \"#utility.yul\":3800:4172   */\n      swap3\n      swap2\n      pop\n      pop\n      jump\t// out\n        /* \"#utility.yul\":4178:4734   */\n    tag_44:\n        /* \"#utility.yul\":4217:4224   */\n      0x00\n        /* \"#utility.yul\":4240:4259   */\n      tag_108\n        /* \"#utility.yul\":4257:4258   */\n      dup3\n        /* \"#utility.yul\":4240:4259   */\n      tag_53\n      jump\t// in\n    tag_108:\n        /* \"#utility.yul\":4235:4259   */\n      swap2\n      pop\n        /* \"#utility.yul\":4273:4292   */\n      tag_109\n        /* \"#utility.yul\":4290:4291   */\n      dup4\n        /* \"#utility.yul\":4273:4292   */\n      tag_53\n      jump\t// in\n    tag_109:\n        /* \"#utility.yul\":4268:4292   */\n      swap3\n      pop\n        /* \"#utility.yul\":4327:4328   */\n      dup3\n        /* \"#utility.yul\":4324:4325   */\n      dup3\n        /* \"#utility.yul\":4320:4329   */\n      mul\n        /* \"#utility.yul\":4349:4378   */\n      tag_110\n        /* \"#utility.yul\":4366:4377   */\n      dup2\n        /* \"#utility.yul\":4349:4378   */\n      tag_53\n      jump\t// in\n    tag_110:\n        /* \"#utility.yul\":4338:4378   */\n      swap2\n      pop\n        /* \"#utility.yul\":4436:4502   */\n      0x8000000000000000000000000000000000000000000000000000000000000000\n        /* \"#utility.yul\":4433:4434   */\n      dup5\n        /* \"#utility.yul\":4430:4503   */\n      eq\n        /* \"#utility.yul\":4426:4427   */\n      0x00\n        /* \"#utility.yul\":4423:4424   */\n      dup5\n        /* \"#utility.yul\":4419:4428   */\n      slt\n        /* \"#utility.yul\":4415:4504   */\n      and\n        /* \"#utility.yul\":4412:4527   */\n      iszero\n      tag_111\n      jumpi\n        /* \"#utility.yul\":4507:4525   */\n      tag_112\n      tag_61\n      jump\t// in\n    tag_112:\n        /* \"#utility.yul\":4412:4527   */\n    tag_111:\n        /* \"#utility.yul\":4677:4678   */\n      dup3\n        /* \"#utility.yul\":4668:4675   */\n      dup3\n        /* \"#utility.yul\":4663:4679   */\n      sdiv\n        /* \"#utility.yul\":4660:4661   */\n      dup5\n        /* \"#utility.yul\":4657:4680   */\n      eq\n        /* \"#utility.yul\":4637:4638   */\n      dup4\n        /* \"#utility.yul\":4630:4639   */\n      iszero\n        /* \"#utility.yul\":4610:4694   */\n      or\n        /* \"#utility.yul\":4587:4727   */\n      tag_113\n      jumpi\n        /* \"#utility.yul\":4707:4725   */\n      tag_114\n      tag_61\n      jump\t// in\n    tag_114:\n        /* \"#utility.yul\":4587:4727   */\n    tag_113:\n        /* \"#utility.yul\":4225:4734   */\n      pop\n        /* \"#utility.yul\":4178:4734   */\n      swap3\n      swap2\n      pop\n      pop\n      jump\t// out\n        /* \"#utility.yul\":4740:4914   */\n    tag_49:\n        /* \"#utility.yul\":4771:4772   */\n      0x00\n        /* \"#utility.yul\":4788:4807   */\n      tag_116\n        /* \"#utility.yul\":4805:4806   */\n      dup3\n        /* \"#utility.yul\":4788:4807   */\n      tag_53\n      jump\t// in\n    tag_116:\n        /* \"#utility.yul\":4783:4807   */\n      swap2\n      pop\n        /* \"#utility.yul\":4821:4840   */\n      tag_117\n        /* \"#utility.yul\":4838:4839   */\n      dup4\n        /* \"#utility.yul\":4821:4840   */\n      tag_53\n      jump\t// in\n    tag_117:\n        /* \"#utility.yul\":4816:4840   */\n      swap3\n      pop\n        /* \"#utility.yul\":4859:4860   */\n      dup3\n        /* \"#utility.yul\":4849:4884   */\n      tag_118\n      jumpi\n        /* \"#utility.yul\":4864:4882   */\n      tag_119\n      tag_60\n      jump\t// in\n    tag_119:\n        /* \"#utility.yul\":4849:4884   */\n    tag_118:\n        /* \"#utility.yul\":4906:4907   */\n      dup3\n        /* \"#utility.yul\":4903:4904   */\n      dup3\n        /* \"#utility.yul\":4898:4908   */\n      smod\n        /* \"#utility.yul\":4893:4908   */\n      swap1\n      pop\n        /* \"#utility.yul\":4740:4914   */\n      swap3\n      swap2\n      pop\n      pop\n      jump\t// out\n\n    auxdata: 0xa26469706673582212203cc1adffbf58100a58fee54b5e400a8d2153f8041ed5e5b8ff1e04012717a8b364736f6c634300081a0033\n}\n",
				"bytecode": {
					"linkReferences": {},
					"object": "6080604052348015600e575f80fd5b5061056a8061001c5f395ff3fe608060405234801561000f575f80fd5b5060043610610055575f3560e01c806309b7cdda146100595780631f62976f14610089578063294bfb19146100b95780633b904fd9146100e95780637561bfc314610119575b5f80fd5b610073600480360381019061006e919061026d565b610149565b60405161008091906102ba565b60405180910390f35b6100a3600480360381019061009e919061026d565b6101a0565b6040516100b091906102ba565b60405180910390f35b6100d360048036038101906100ce919061026d565b6101b5565b6040516100e091906102ba565b60405180910390f35b61010360048036038101906100fe919061026d565b6101ca565b60405161011091906102ba565b60405180910390f35b610133600480360381019061012e919061026d565b6101df565b60405161014091906102ba565b60405180910390f35b5f80820361018c576040517f08c379a00000000000000000000000000000000000000000000000000000000081526004016101839061032d565b60405180910390fd5b818361019891906103a5565b905092915050565b5f81836101ad919061040d565b905092915050565b5f81836101c2919061044e565b905092915050565b5f81836101d7919061048e565b905092915050565b5f808203610222576040517f08c379a00000000000000000000000000000000000000000000000000000000081526004016102199061032d565b60405180910390fd5b818361022e9190610504565b905092915050565b5f80fd5b5f819050919050565b61024c8161023a565b8114610256575f80fd5b50565b5f8135905061026781610243565b92915050565b5f806040838503121561028357610282610236565b5b5f61029085828601610259565b92505060206102a185828601610259565b9150509250929050565b6102b48161023a565b82525050565b5f6020820190506102cd5f8301846102ab565b92915050565b5f82825260208201905092915050565b7f63616e206e6f7420646976696465206279207a65726f000000000000000000005f82015250565b5f6103176016836102d3565b9150610322826102e3565b602082019050919050565b5f6020820190508181035f8301526103448161030b565b9050919050565b7f4e487b71000000000000000000000000000000000000000000000000000000005f52601260045260245ffd5b7f4e487b71000000000000000000000000000000000000000000000000000000005f52601160045260245ffd5b5f6103af8261023a565b91506103ba8361023a565b9250826103ca576103c961034b565b5b60015f0383147f80000000000000000000000000000000000000000000000000000000000000008314161561040257610401610378565b5b828205905092915050565b5f6104178261023a565b91506104228361023a565b92508282019050828112155f8312168382125f84121516171561044857610447610378565b5b92915050565b5f6104588261023a565b91506104638361023a565b925082820390508181125f8412168282135f85121516171561048857610487610378565b5b92915050565b5f6104988261023a565b91506104a38361023a565b92508282026104b18161023a565b91507f800000000000000000000000000000000000000000000000000000000000000084145f841216156104e8576104e7610378565b5b82820584148315176104fd576104fc610378565b5b5092915050565b5f61050e8261023a565b91506105198361023a565b9250826105295761052861034b565b5b82820790509291505056fea26469706673582212203cc1adffbf58100a58fee54b5e400a8d2153f8041ed5e5b8ff1e04012717a8b364736f6c634300081a0033",
					"opcodes": "PUSH1 0x80 PUSH1 0x40 MSTORE CALLVALUE DUP1 ISZERO PUSH1 0xE JUMPI PUSH0 DUP1 REVERT JUMPDEST POP PUSH2 0x56A DUP1 PUSH2 0x1C PUSH0 CODECOPY PUSH0 RETURN INVALID PUSH1 0x80 PUSH1 0x40 MSTORE CALLVALUE DUP1 ISZERO PUSH2 0xF JUMPI PUSH0 DUP1 REVERT JUMPDEST POP PUSH1 0x4 CALLDATASIZE LT PUSH2 0x55 JUMPI PUSH0 CALLDATALOAD PUSH1 0xE0 SHR DUP1 PUSH4 0x9B7CDDA EQ PUSH2 0x59 JUMPI DUP1 PUSH4 0x1F62976F EQ PUSH2 0x89 JUMPI DUP1 PUSH4 0x294BFB19 EQ PUSH2 0xB9 JUMPI DUP1 PUSH4 0x3B904FD9 EQ PUSH2 0xE9 JUMPI DUP1 PUSH4 0x7561BFC3 EQ PUSH2 0x119 JUMPI JUMPDEST PUSH0 DUP1 REVERT JUMPDEST PUSH2 0x73 PUSH1 0x4 DUP1 CALLDATASIZE SUB DUP2 ADD SWAP1 PUSH2 0x6E SWAP2 SWAP1 PUSH2 0x26D JUMP JUMPDEST PUSH2 0x149 JUMP JUMPDEST PUSH1 0x40 MLOAD PUSH2 0x80 SWAP2 SWAP1 PUSH2 0x2BA JUMP JUMPDEST PUSH1 0x40 MLOAD DUP1 SWAP2 SUB SWAP1 RETURN JUMPDEST PUSH2 0xA3 PUSH1 0x4 DUP1 CALLDATASIZE SUB DUP2 ADD SWAP1 PUSH2 0x9E SWAP2 SWAP1 PUSH2 0x26D JUMP JUMPDEST PUSH2 0x1A0 JUMP JUMPDEST PUSH1 0x40 MLOAD PUSH2 0xB0 SWAP2 SWAP1 PUSH2 0x2BA JUMP JUMPDEST PUSH1 0x40 MLOAD DUP1 SWAP2 SUB SWAP1 RETURN JUMPDEST PUSH2 0xD3 PUSH1 0x4 DUP1 CALLDATASIZE SUB DUP2 ADD SWAP1 PUSH2 0xCE SWAP2 SWAP1 PUSH2 0x26D JUMP JUMPDEST PUSH2 0x1B5 JUMP JUMPDEST PUSH1 0x40 MLOAD PUSH2 0xE0 SWAP2 SWAP1 PUSH2 0x2BA JUMP JUMPDEST PUSH1 0x40 MLOAD DUP1 SWAP2 SUB SWAP1 RETURN JUMPDEST PUSH2 0x103 PUSH1 0x4 DUP1 CALLDATASIZE SUB DUP2 ADD SWAP1 PUSH2 0xFE SWAP2 SWAP1 PUSH2 0x26D JUMP JUMPDEST PUSH2 0x1CA JUMP JUMPDEST PUSH1 0x40 MLOAD PUSH2 0x110 SWAP2 SWAP1 PUSH2 0x2BA JUMP JUMPDEST PUSH1 0x40 MLOAD DUP1 SWAP2 SUB SWAP1 RETURN JUMPDEST PUSH2 0x133 PUSH1 0x4 DUP1 CALLDATASIZE SUB DUP2 ADD SWAP1 PUSH2 0x12E SWAP2 SWAP1 PUSH2 0x26D JUMP JUMPDEST PUSH2 0x1DF JUMP JUMPDEST PUSH1 0x40 MLOAD PUSH2 0x140 SWAP2 SWAP1 PUSH2 0x2BA JUMP JUMPDEST PUSH1 0x40 MLOAD DUP1 SWAP2 SUB SWAP1 RETURN JUMPDEST PUSH0 DUP1 DUP3 SUB PUSH2 0x18C JUMPI PUSH1 0x40 MLOAD PUSH32 0x8C379A000000000000000000000000000000000000000000000000000000000 DUP2 MSTORE PUSH1 0x4 ADD PUSH2 0x183 SWAP1 PUSH2 0x32D JUMP JUMPDEST PUSH1 0x40 MLOAD DUP1 SWAP2 SUB SWAP1 REVERT JUMPDEST DUP2 DUP4 PUSH2 0x198 SWAP2 SWAP1 PUSH2 0x3A5 JUMP JUMPDEST SWAP1 POP SWAP3 SWAP2 POP POP JUMP JUMPDEST PUSH0 DUP2 DUP4 PUSH2 0x1AD SWAP2 SWAP1 PUSH2 0x40D JUMP JUMPDEST SWAP1 POP SWAP3 SWAP2 POP POP JUMP JUMPDEST PUSH0 DUP2 DUP4 PUSH2 0x1C2 SWAP2 SWAP1 PUSH2 0x44E JUMP JUMPDEST SWAP1 POP SWAP3 SWAP2 POP POP JUMP JUMPDEST PUSH0 DUP2 DUP4 PUSH2 0x1D7 SWAP2 SWAP1 PUSH2 0x48E JUMP JUMPDEST SWAP1 POP SWAP3 SWAP2 POP POP JUMP JUMPDEST PUSH0 DUP1 DUP3 SUB PUSH2 0x222 JUMPI PUSH1 0x40 MLOAD PUSH32 0x8C379A000000000000000000000000000000000000000000000000000000000 DUP2 MSTORE PUSH1 0x4 ADD PUSH2 0x219 SWAP1 PUSH2 0x32D JUMP JUMPDEST PUSH1 0x40 MLOAD DUP1 SWAP2 SUB SWAP1 REVERT JUMPDEST DUP2 DUP4 PUSH2 0x22E SWAP2 SWAP1 PUSH2 0x504 JUMP JUMPDEST SWAP1 POP SWAP3 SWAP2 POP POP JUMP JUMPDEST PUSH0 DUP1 REVERT JUMPDEST PUSH0 DUP2 SWAP1 POP SWAP2 SWAP1 POP JUMP JUMPDEST PUSH2 0x24C DUP2 PUSH2 0x23A JUMP JUMPDEST DUP2 EQ PUSH2 0x256 JUMPI PUSH0 DUP1 REVERT JUMPDEST POP JUMP JUMPDEST PUSH0 DUP2 CALLDATALOAD SWAP1 POP PUSH2 0x267 DUP2 PUSH2 0x243 JUMP JUMPDEST SWAP3 SWAP2 POP POP JUMP JUMPDEST PUSH0 DUP1 PUSH1 0x40 DUP4 DUP6 SUB SLT ISZERO PUSH2 0x283 JUMPI PUSH2 0x282 PUSH2 0x236 JUMP JUMPDEST JUMPDEST PUSH0 PUSH2 0x290 DUP6 DUP3 DUP7 ADD PUSH2 0x259 JUMP JUMPDEST SWAP3 POP POP PUSH1 0x20 PUSH2 0x2A1 DUP6 DUP3 DUP7 ADD PUSH2 0x259 JUMP JUMPDEST SWAP2 POP POP SWAP3 POP SWAP3 SWAP1 POP JUMP JUMPDEST PUSH2 0x2B4 DUP2 PUSH2 0x23A JUMP JUMPDEST DUP3 MSTORE POP POP JUMP JUMPDEST PUSH0 PUSH1 0x20 DUP3 ADD SWAP1 POP PUSH2 0x2CD PUSH0 DUP4 ADD DUP5 PUSH2 0x2AB JUMP JUMPDEST SWAP3 SWAP2 POP POP JUMP JUMPDEST PUSH0 DUP3 DUP3 MSTORE PUSH1 0x20 DUP3 ADD SWAP1 POP SWAP3 SWAP2 POP POP JUMP JUMPDEST PUSH32 0x63616E206E6F7420646976696465206279207A65726F00000000000000000000 PUSH0 DUP3 ADD MSTORE POP JUMP JUMPDEST PUSH0 PUSH2 0x317 PUSH1 0x16 DUP4 PUSH2 0x2D3 JUMP JUMPDEST SWAP2 POP PUSH2 0x322 DUP3 PUSH2 0x2E3 JUMP JUMPDEST PUSH1 0x20 DUP3 ADD SWAP1 POP SWAP2 SWAP1 POP JUMP JUMPDEST PUSH0 PUSH1 0x20 DUP3 ADD SWAP1 POP DUP2 DUP2 SUB PUSH0 DUP4 ADD MSTORE PUSH2 0x344 DUP2 PUSH2 0x30B JUMP JUMPDEST SWAP1 POP SWAP2 SWAP1 POP JUMP JUMPDEST PUSH32 0x4E487B7100000000000000000000000000000000000000000000000000000000 PUSH0 MSTORE PUSH1 0x12 PUSH1 0x4 MSTORE PUSH1 0x24 PUSH0 REVERT JUMPDEST PUSH32 0x4E487B7100000000000000000000000000000000000000000000000000000000 PUSH0 MSTORE PUSH1 0x11 PUSH1 0x4 MSTORE PUSH1 0x24 PUSH0 REVERT JUMPDEST PUSH0 PUSH2 0x3AF DUP3 PUSH2 0x23A JUMP JUMPDEST SWAP2 POP PUSH2 0x3BA DUP4 PUSH2 0x23A JUMP JUMPDEST SWAP3 POP DUP3 PUSH2 0x3CA JUMPI PUSH2 0x3C9 PUSH2 0x34B JUMP JUMPDEST JUMPDEST PUSH1 0x1 PUSH0 SUB DUP4 EQ PUSH32 0x8000000000000000000000000000000000000000000000000000000000000000 DUP4 EQ AND ISZERO PUSH2 0x402 JUMPI PUSH2 0x401 PUSH2 0x378 JUMP JUMPDEST JUMPDEST DUP3 DUP3 SDIV SWAP1 POP SWAP3 SWAP2 POP POP JUMP JUMPDEST PUSH0 PUSH2 0x417 DUP3 PUSH2 0x23A JUMP JUMPDEST SWAP2 POP PUSH2 0x422 DUP4 PUSH2 0x23A JUMP JUMPDEST SWAP3 POP DUP3 DUP3 ADD SWAP1 POP DUP3 DUP2 SLT ISZERO PUSH0 DUP4 SLT AND DUP4 DUP3 SLT PUSH0 DUP5 SLT ISZERO AND OR ISZERO PUSH2 0x448 JUMPI PUSH2 0x447 PUSH2 0x378 JUMP JUMPDEST JUMPDEST SWAP3 SWAP2 POP POP JUMP JUMPDEST PUSH0 PUSH2 0x458 DUP3 PUSH2 0x23A JUMP JUMPDEST SWAP2 POP PUSH2 0x463 DUP4 PUSH2 0x23A JUMP JUMPDEST SWAP3 POP DUP3 DUP3 SUB SWAP1 POP DUP2 DUP2 SLT PUSH0 DUP5 SLT AND DUP3 DUP3 SGT PUSH0 DUP6 SLT ISZERO AND OR ISZERO PUSH2 0x488 JUMPI PUSH2 0x487 PUSH2 0x378 JUMP JUMPDEST JUMPDEST SWAP3 SWAP2 POP POP JUMP JUMPDEST PUSH0 PUSH2 0x498 DUP3 PUSH2 0x23A JUMP JUMPDEST SWAP2 POP PUSH2 0x4A3 DUP4 PUSH2 0x23A JUMP JUMPDEST SWAP3 POP DUP3 DUP3 MUL PUSH2 0x4B1 DUP2 PUSH2 0x23A JUMP JUMPDEST SWAP2 POP PUSH32 0x8000000000000000000000000000000000000000000000000000000000000000 DUP5 EQ PUSH0 DUP5 SLT AND ISZERO PUSH2 0x4E8 JUMPI PUSH2 0x4E7 PUSH2 0x378 JUMP JUMPDEST JUMPDEST DUP3 DUP3 SDIV DUP5 EQ DUP4 ISZERO OR PUSH2 0x4FD JUMPI PUSH2 0x4FC PUSH2 0x378 JUMP JUMPDEST JUMPDEST POP SWAP3 SWAP2 POP POP JUMP JUMPDEST PUSH0 PUSH2 0x50E DUP3 PUSH2 0x23A JUMP JUMPDEST SWAP2 POP PUSH2 0x519 DUP4 PUSH2 0x23A JUMP JUMPDEST SWAP3 POP DUP3 PUSH2 0x529 JUMPI PUSH2 0x528 PUSH2 0x34B JUMP JUMPDEST JUMPDEST DUP3 DUP3 SMOD SWAP1 POP SWAP3 SWAP2 POP POP JUMP INVALID LOG2 PUSH5 0x6970667358 0x22 SLT KECCAK256 EXTCODECOPY 0xC1 0xAD SELFDESTRUCT 0xBF PC LT EXP PC INVALID 0xE5 0x4B MCOPY BLOCKHASH EXP DUP14 0x21 MSTORE8 0xF8 DIV 0x1E 0xD5 0xE5 0xB8 SELFDESTRUCT 0x1E DIV ADD 0x27 OR 0xA8 0xB3 PUSH5 0x736F6C6343 STOP ADDMOD BYTE STOP CALLER "
				},
				"gasEstimates": {
					"creation": {
						"codeDepositCost": "277200",
						"executionCost": "316",
						"totalCost": "277516"
					},
					"external": {
						"division(int256,int256)": "infinite",
						"multiplication(int256,int256)": "infinite",
						"remainder(int256,int256)": "infinite",
						"substraction(int256,int256)": "infinite",
						"summa(int256,int256)": "infinite"
					}
				},
				"methodIdentifiers": {
					"division(int256,int256)": "09b7cdda",
					"multiplication(int256,int256)": "3b904fd9",
					"remainder(int256,int256)": "7561bfc3",
					"substraction(int256,int256)": "294bfb19",
					"summa(int256,int256)": "1f62976f"
				}
			},
			"storageLayout": {
				"storage": [],
				"types": null
			},
			"userdoc": {
				"kind": "user",
				"methods": {},
				"version": 1
			}
		}
	}
}