{
	"code7_1.sol": {
		"task1": {
			"abi": [
				{
					"inputs": [],
					"name": "getNumbers",
					"outputs": [
						{
							"internalType": "uint256",
							"name": "",
							"type": "uint256"
						},
						{
							"internalType": "uint256",
							"name": "",
							"type": "uint256"
						}
					],
					"stateMutability": "view",
					"type": "function"
				},
				{
					"inputs": [
						{
							"internalType": "uint256",
							"name": "number",
							"type": "uint256"
						}
					],
					"name": "getSumma",
					"outputs": [
						{
							"internalType": "uint256",
							"name": "",
							"type": "uint256"
						}
					],
					"stateMutability": "view",
					"type": "function"
				},
				{
					"inputs": [
						{
							"internalType": "uint256",
							"name": "_number1",
							"type": "uint256"
						},
						{
							"internalType": "uint256",
							"name": "_number2",
							"type": "uint256"
						}
					],
					"name": "getSumma",
					"outputs": [
						{
							"internalType": "uint256",
							"name": "",
							"type": "uint256"
						}
					],
					"stateMutability": "pure",
					"type": "function"
				},
				{
					"inputs": [
						{
							"internalType": "uint256",
							"name": "_number1",
							"type": "uint256"
						},
						{
							"internalType": "uint256",
							"name": "_number2",
							"type": "uint256"
						}
					],
					"name": "setNumbers",
					"outputs": [],
					"stateMutability": "nonpayable",
					"type": "function"
				}
			],
			"devdoc": {
				"kind": "dev",
				"methods": {},
				"version": 1
			},
			"evm": {
				"assembly": "    /* \"code7_1.sol\":26:567  contract task1 {... */\n  mstore(0x40, 0x80)\n  callvalue\n  dup1\n  iszero\n  tag_1\n  jumpi\n  0x00\n  dup1\n  revert\ntag_1:\n  pop\n  dataSize(sub_0)\n  dup1\n  dataOffset(sub_0)\n  0x00\n  codecopy\n  0x00\n  return\nstop\n\nsub_0: assembly {\n        /* \"code7_1.sol\":26:567  contract task1 {... */\n      mstore(0x40, 0x80)\n      callvalue\n      dup1\n      iszero\n      tag_1\n      jumpi\n      0x00\n      dup1\n      revert\n    tag_1:\n      pop\n      jumpi(tag_2, lt(calldatasize, 0x04))\n      shr(0xe0, calldataload(0x00))\n      dup1\n      0xade45b\n      eq\n      tag_3\n      jumpi\n      dup1\n      0x89f915f6\n      eq\n      tag_4\n      jumpi\n      dup1\n      0x94be3170\n      eq\n      tag_5\n      jumpi\n      dup1\n      0xa378c898\n      eq\n      tag_6\n      jumpi\n    tag_2:\n      0x00\n      dup1\n      revert\n        /* \"code7_1.sol\":329:437  function getSumma (uint number) public view returns (uint) {... */\n    tag_3:\n      tag_7\n      0x04\n      dup1\n      calldatasize\n      sub\n      dup2\n      add\n      swap1\n      tag_8\n      swap2\n      swap1\n      tag_9\n      jump\t// in\n    tag_8:\n      tag_10\n      jump\t// in\n    tag_7:\n      mload(0x40)\n      tag_11\n      swap2\n      swap1\n      tag_12\n      jump\t// in\n    tag_11:\n      mload(0x40)\n      dup1\n      swap2\n      sub\n      swap1\n      return\n        /* \"code7_1.sol\":219:321  function getNumbers () public view returns (uint,uint) {... */\n    tag_4:\n      tag_13\n      tag_14\n      jump\t// in\n    tag_13:\n      mload(0x40)\n      tag_15\n      swap3\n      swap2\n      swap1\n      tag_16\n      jump\t// in\n    tag_15:\n      mload(0x40)\n      dup1\n      swap2\n      sub\n      swap1\n      return\n        /* \"code7_1.sol\":445:564  function getSumma (uint _number1, uint _number2) public pure returns (uint) {... */\n    tag_5:\n      tag_17\n      0x04\n      dup1\n      calldatasize\n      sub\n      dup2\n      add\n      swap1\n      tag_18\n      swap2\n      swap1\n      tag_19\n      jump\t// in\n    tag_18:\n      tag_20\n      jump\t// in\n    tag_17:\n      mload(0x40)\n      tag_21\n      swap2\n      swap1\n      tag_12\n      jump\t// in\n    tag_21:\n      mload(0x40)\n      dup1\n      swap2\n      sub\n      swap1\n      return\n        /* \"code7_1.sol\":88:211  function  setNumbers (uint _number1, uint _number2) public {... */\n    tag_6:\n      tag_22\n      0x04\n      dup1\n      calldatasize\n      sub\n      dup2\n      add\n      swap1\n      tag_23\n      swap2\n      swap1\n      tag_19\n      jump\t// in\n    tag_23:\n      tag_24\n      jump\t// in\n    tag_22:\n      stop\n        /* \"code7_1.sol\":329:437  function getSumma (uint number) public view returns (uint) {... */\n    tag_10:\n        /* \"code7_1.sol\":382:386  uint */\n      0x00\n        /* \"code7_1.sol\":422:429  number2 */\n      sload(0x01)\n        /* \"code7_1.sol\":414:421  number1 */\n      sload(0x00)\n        /* \"code7_1.sol\":406:412  number */\n      dup4\n        /* \"code7_1.sol\":406:421  number+ number1 */\n      tag_26\n      swap2\n      swap1\n      tag_27\n      jump\t// in\n    tag_26:\n        /* \"code7_1.sol\":406:429  number+ number1+number2 */\n      tag_28\n      swap2\n      swap1\n      tag_27\n      jump\t// in\n    tag_28:\n        /* \"code7_1.sol\":399:429  return number+ number1+number2 */\n      swap1\n      pop\n        /* \"code7_1.sol\":329:437  function getSumma (uint number) public view returns (uint) {... */\n      swap2\n      swap1\n      pop\n      jump\t// out\n        /* \"code7_1.sol\":219:321  function getNumbers () public view returns (uint,uint) {... */\n    tag_14:\n        /* \"code7_1.sol\":263:267  uint */\n      0x00\n        /* \"code7_1.sol\":268:272  uint */\n      dup1\n        /* \"code7_1.sol\":293:300  number1 */\n      sload(0x00)\n        /* \"code7_1.sol\":301:308  number2 */\n      sload(0x01)\n        /* \"code7_1.sol\":285:309  return (number1,number2) */\n      swap2\n      pop\n      swap2\n      pop\n        /* \"code7_1.sol\":219:321  function getNumbers () public view returns (uint,uint) {... */\n      swap1\n      swap2\n      jump\t// out\n        /* \"code7_1.sol\":445:564  function getSumma (uint _number1, uint _number2) public pure returns (uint) {... */\n    tag_20:\n        /* \"code7_1.sol\":515:519  uint */\n      0x00\n        /* \"code7_1.sol\":548:556  _number2 */\n      dup2\n        /* \"code7_1.sol\":539:547  _number1 */\n      dup4\n        /* \"code7_1.sol\":539:556  _number1+_number2 */\n      tag_31\n      swap2\n      swap1\n      tag_27\n      jump\t// in\n    tag_31:\n        /* \"code7_1.sol\":532:556  return _number1+_number2 */\n      swap1\n      pop\n        /* \"code7_1.sol\":445:564  function getSumma (uint _number1, uint _number2) public pure returns (uint) {... */\n      swap3\n      swap2\n      pop\n      pop\n      jump\t// out\n        /* \"code7_1.sol\":88:211  function  setNumbers (uint _number1, uint _number2) public {... */\n    tag_24:\n        /* \"code7_1.sol\":167:175  _number1 */\n      dup2\n        /* \"code7_1.sol\":158:165  number1 */\n      0x00\n        /* \"code7_1.sol\":158:175  number1 =_number1 */\n      dup2\n      swap1\n      sstore\n      pop\n        /* \"code7_1.sol\":195:203  _number2 */\n      dup1\n        /* \"code7_1.sol\":186:193  number2 */\n      0x01\n        /* \"code7_1.sol\":186:203  number2 =_number2 */\n      dup2\n      swap1\n      sstore\n      pop\n        /* \"code7_1.sol\":88:211  function  setNumbers (uint _number1, uint _number2) public {... */\n      pop\n      pop\n      jump\t// out\n        /* \"#utility.yul\":88:205   */\n    tag_34:\n        /* \"#utility.yul\":197:198   */\n      0x00\n        /* \"#utility.yul\":194:195   */\n      dup1\n        /* \"#utility.yul\":187:199   */\n      revert\n        /* \"#utility.yul\":334:411   */\n    tag_36:\n        /* \"#utility.yul\":371:378   */\n      0x00\n        /* \"#utility.yul\":400:405   */\n      dup2\n        /* \"#utility.yul\":389:405   */\n      swap1\n      pop\n        /* \"#utility.yul\":334:411   */\n      swap2\n      swap1\n      pop\n      jump\t// out\n        /* \"#utility.yul\":417:539   */\n    tag_37:\n        /* \"#utility.yul\":490:514   */\n      tag_47\n        /* \"#utility.yul\":508:513   */\n      dup2\n        /* \"#utility.yul\":490:514   */\n      tag_36\n      jump\t// in\n    tag_47:\n        /* \"#utility.yul\":483:488   */\n      dup2\n        /* \"#utility.yul\":480:515   */\n      eq\n        /* \"#utility.yul\":470:533   */\n      tag_48\n      jumpi\n        /* \"#utility.yul\":529:530   */\n      0x00\n        /* \"#utility.yul\":526:527   */\n      dup1\n        /* \"#utility.yul\":519:531   */\n      revert\n        /* \"#utility.yul\":470:533   */\n    tag_48:\n        /* \"#utility.yul\":417:539   */\n      pop\n      jump\t// out\n        /* \"#utility.yul\":545:684   */\n    tag_38:\n        /* \"#utility.yul\":591:596   */\n      0x00\n        /* \"#utility.yul\":629:635   */\n      dup2\n        /* \"#utility.yul\":616:636   */\n      calldataload\n        /* \"#utility.yul\":607:636   */\n      swap1\n      pop\n        /* \"#utility.yul\":645:678   */\n      tag_50\n        /* \"#utility.yul\":672:677   */\n      dup2\n        /* \"#utility.yul\":645:678   */\n      tag_37\n      jump\t// in\n    tag_50:\n        /* \"#utility.yul\":545:684   */\n      swap3\n      swap2\n      pop\n      pop\n      jump\t// out\n        /* \"#utility.yul\":690:1019   */\n    tag_9:\n        /* \"#utility.yul\":749:755   */\n      0x00\n        /* \"#utility.yul\":798:800   */\n      0x20\n        /* \"#utility.yul\":786:795   */\n      dup3\n        /* \"#utility.yul\":777:784   */\n      dup5\n        /* \"#utility.yul\":773:796   */\n      sub\n        /* \"#utility.yul\":769:801   */\n      slt\n        /* \"#utility.yul\":766:885   */\n      iszero\n      tag_52\n      jumpi\n        /* \"#utility.yul\":804:883   */\n      tag_53\n      tag_34\n      jump\t// in\n    tag_53:\n        /* \"#utility.yul\":766:885   */\n    tag_52:\n        /* \"#utility.yul\":924:925   */\n      0x00\n        /* \"#utility.yul\":949:1002   */\n      tag_54\n        /* \"#utility.yul\":994:1001   */\n      dup5\n        /* \"#utility.yul\":985:991   */\n      dup3\n        /* \"#utility.yul\":974:983   */\n      dup6\n        /* \"#utility.yul\":970:992   */\n      add\n        /* \"#utility.yul\":949:1002   */\n      tag_38\n      jump\t// in\n    tag_54:\n        /* \"#utility.yul\":939:1002   */\n      swap2\n      pop\n        /* \"#utility.yul\":895:1012   */\n      pop\n        /* \"#utility.yul\":690:1019   */\n      swap3\n      swap2\n      pop\n      pop\n      jump\t// out\n        /* \"#utility.yul\":1025:1143   */\n    tag_39:\n        /* \"#utility.yul\":1112:1136   */\n      tag_56\n        /* \"#utility.yul\":1130:1135   */\n      dup2\n        /* \"#utility.yul\":1112:1136   */\n      tag_36\n      jump\t// in\n    tag_56:\n        /* \"#utility.yul\":1107:1110   */\n      dup3\n        /* \"#utility.yul\":1100:1137   */\n      mstore\n        /* \"#utility.yul\":1025:1143   */\n      pop\n      pop\n      jump\t// out\n        /* \"#utility.yul\":1149:1371   */\n    tag_12:\n        /* \"#utility.yul\":1242:1246   */\n      0x00\n        /* \"#utility.yul\":1280:1282   */\n      0x20\n        /* \"#utility.yul\":1269:1278   */\n      dup3\n        /* \"#utility.yul\":1265:1283   */\n      add\n        /* \"#utility.yul\":1257:1283   */\n      swap1\n      pop\n        /* \"#utility.yul\":1293:1364   */\n      tag_58\n        /* \"#utility.yul\":1361:1362   */\n      0x00\n        /* \"#utility.yul\":1350:1359   */\n      dup4\n        /* \"#utility.yul\":1346:1363   */\n      add\n        /* \"#utility.yul\":1337:1343   */\n      dup5\n        /* \"#utility.yul\":1293:1364   */\n      tag_39\n      jump\t// in\n    tag_58:\n        /* \"#utility.yul\":1149:1371   */\n      swap3\n      swap2\n      pop\n      pop\n      jump\t// out\n        /* \"#utility.yul\":1377:1709   */\n    tag_16:\n        /* \"#utility.yul\":1498:1502   */\n      0x00\n        /* \"#utility.yul\":1536:1538   */\n      0x40\n        /* \"#utility.yul\":1525:1534   */\n      dup3\n        /* \"#utility.yul\":1521:1539   */\n      add\n        /* \"#utility.yul\":1513:1539   */\n      swap1\n      pop\n        /* \"#utility.yul\":1549:1620   */\n      tag_60\n        /* \"#utility.yul\":1617:1618   */\n      0x00\n        /* \"#utility.yul\":1606:1615   */\n      dup4\n        /* \"#utility.yul\":1602:1619   */\n      add\n        /* \"#utility.yul\":1593:1599   */\n      dup6\n        /* \"#utility.yul\":1549:1620   */\n      tag_39\n      jump\t// in\n    tag_60:\n        /* \"#utility.yul\":1630:1702   */\n      tag_61\n        /* \"#utility.yul\":1698:1700   */\n      0x20\n        /* \"#utility.yul\":1687:1696   */\n      dup4\n        /* \"#utility.yul\":1683:1701   */\n      add\n        /* \"#utility.yul\":1674:1680   */\n      dup5\n        /* \"#utility.yul\":1630:1702   */\n      tag_39\n      jump\t// in\n    tag_61:\n        /* \"#utility.yul\":1377:1709   */\n      swap4\n      swap3\n      pop\n      pop\n      pop\n      jump\t// out\n        /* \"#utility.yul\":1715:2189   */\n    tag_19:\n        /* \"#utility.yul\":1783:1789   */\n      0x00\n        /* \"#utility.yul\":1791:1797   */\n      dup1\n        /* \"#utility.yul\":1840:1842   */\n      0x40\n        /* \"#utility.yul\":1828:1837   */\n      dup4\n        /* \"#utility.yul\":1819:1826   */\n      dup6\n        /* \"#utility.yul\":1815:1838   */\n      sub\n        /* \"#utility.yul\":1811:1843   */\n      slt\n        /* \"#utility.yul\":1808:1927   */\n      iszero\n      tag_63\n      jumpi\n        /* \"#utility.yul\":1846:1925   */\n      tag_64\n      tag_34\n      jump\t// in\n    tag_64:\n        /* \"#utility.yul\":1808:1927   */\n    tag_63:\n        /* \"#utility.yul\":1966:1967   */\n      0x00\n        /* \"#utility.yul\":1991:2044   */\n      tag_65\n        /* \"#utility.yul\":2036:2043   */\n      dup6\n        /* \"#utility.yul\":2027:2033   */\n      dup3\n        /* \"#utility.yul\":2016:2025   */\n      dup7\n        /* \"#utility.yul\":2012:2034   */\n      add\n        /* \"#utility.yul\":1991:2044   */\n      tag_38\n      jump\t// in\n    tag_65:\n        /* \"#utility.yul\":1981:2044   */\n      swap3\n      pop\n        /* \"#utility.yul\":1937:2054   */\n      pop\n        /* \"#utility.yul\":2093:2095   */\n      0x20\n        /* \"#utility.yul\":2119:2172   */\n      tag_66\n        /* \"#utility.yul\":2164:2171   */\n      dup6\n        /* \"#utility.yul\":2155:2161   */\n      dup3\n        /* \"#utility.yul\":2144:2153   */\n      dup7\n        /* \"#utility.yul\":2140:2162   */\n      add\n        /* \"#utility.yul\":2119:2172   */\n      tag_38\n      jump\t// in\n    tag_66:\n        /* \"#utility.yul\":2109:2172   */\n      swap2\n      pop\n        /* \"#utility.yul\":2064:2182   */\n      pop\n        /* \"#utility.yul\":1715:2189   */\n      swap3\n      pop\n      swap3\n      swap1\n      pop\n      jump\t// out\n        /* \"#utility.yul\":2195:2375   */\n    tag_40:\n        /* \"#utility.yul\":2243:2320   */\n      0x4e487b7100000000000000000000000000000000000000000000000000000000\n        /* \"#utility.yul\":2240:2241   */\n      0x00\n        /* \"#utility.yul\":2233:2321   */\n      mstore\n        /* \"#utility.yul\":2340:2344   */\n      0x11\n        /* \"#utility.yul\":2337:2338   */\n      0x04\n        /* \"#utility.yul\":2330:2345   */\n      mstore\n        /* \"#utility.yul\":2364:2368   */\n      0x24\n        /* \"#utility.yul\":2361:2362   */\n      0x00\n        /* \"#utility.yul\":2354:2369   */\n      revert\n        /* \"#utility.yul\":2381:2572   */\n    tag_27:\n        /* \"#utility.yul\":2421:2424   */\n      0x00\n        /* \"#utility.yul\":2440:2460   */\n      tag_69\n        /* \"#utility.yul\":2458:2459   */\n      dup3\n        /* \"#utility.yul\":2440:2460   */\n      tag_36\n      jump\t// in\n    tag_69:\n        /* \"#utility.yul\":2435:2460   */\n      swap2\n      pop\n        /* \"#utility.yul\":2474:2494   */\n      tag_70\n        /* \"#utility.yul\":2492:2493   */\n      dup4\n        /* \"#utility.yul\":2474:2494   */\n      tag_36\n      jump\t// in\n    tag_70:\n        /* \"#utility.yul\":2469:2494   */\n      swap3\n      pop\n        /* \"#utility.yul\":2517:2518   */\n      dup3\n        /* \"#utility.yul\":2514:2515   */\n      dup3\n        /* \"#utility.yul\":2510:2519   */\n      add\n        /* \"#utility.yul\":2503:2519   */\n      swap1\n      pop\n        /* \"#utility.yul\":2538:2541   */\n      dup1\n        /* \"#utility.yul\":2535:2536   */\n      dup3\n        /* \"#utility.yul\":2532:2542   */\n      gt\n        /* \"#utility.yul\":2529:2565   */\n      iszero\n      tag_71\n      jumpi\n        /* \"#utility.yul\":2545:2563   */\n      tag_72\n      tag_40\n      jump\t// in\n    tag_72:\n        /* \"#utility.yul\":2529:2565   */\n    tag_71:\n        /* \"#utility.yul\":2381:2572   */\n      swap3\n      swap2\n      pop\n      pop\n      jump\t// out\n\n    auxdata: 0xa26469706673582212202d8c5e4ba7b4530318c47a7710b4610501d343bf0e8ad3a0eb0a8d254dd1fe7164736f6c634300081a0033\n}\n",
				"bytecode": {
					"linkReferences": {},
					"object": "6080604052348015600e575f80fd5b506102c48061001c5f395ff3fe608060405234801561000f575f80fd5b5060043610610049575f3560e01c8062ade45b1461004d57806389f915f61461007d57806394be31701461009c578063a378c898146100cc575b5f80fd5b61006760048036038101906100629190610176565b6100e8565b60405161007491906101b0565b60405180910390f35b61008561010a565b6040516100939291906101c9565b60405180910390f35b6100b660048036038101906100b191906101f0565b610119565b6040516100c391906101b0565b60405180910390f35b6100e660048036038101906100e191906101f0565b61012e565b005b5f6001545f54836100f9919061025b565b610103919061025b565b9050919050565b5f805f54600154915091509091565b5f8183610126919061025b565b905092915050565b815f81905550806001819055505050565b5f80fd5b5f819050919050565b61015581610143565b811461015f575f80fd5b50565b5f813590506101708161014c565b92915050565b5f6020828403121561018b5761018a61013f565b5b5f61019884828501610162565b91505092915050565b6101aa81610143565b82525050565b5f6020820190506101c35f8301846101a1565b92915050565b5f6040820190506101dc5f8301856101a1565b6101e960208301846101a1565b9392505050565b5f80604083850312156102065761020561013f565b5b5f61021385828601610162565b925050602061022485828601610162565b9150509250929050565b7f4e487b71000000000000000000000000000000000000000000000000000000005f52601160045260245ffd5b5f61026582610143565b915061027083610143565b92508282019050808211156102885761028761022e565b5b9291505056fea26469706673582212202d8c5e4ba7b4530318c47a7710b4610501d343bf0e8ad3a0eb0a8d254dd1fe7164736f6c634300081a0033",
					"opcodes": "PUSH1 0x80 PUSH1 0x40 MSTORE CALLVALUE DUP1 ISZERO PUSH1 0xE JUMPI PUSH0 DUP1 REVERT JUMPDEST POP PUSH2 0x2C4 DUP1 PUSH2 0x1C PUSH0 CODECOPY PUSH0 RETURN INVALID PUSH1 0x80 PUSH1 0x40 MSTORE CALLVALUE DUP1 ISZERO PUSH2 0xF JUMPI PUSH0 DUP1 REVERT JUMPDEST POP PUSH1 0x4 CALLDATASIZE LT PUSH2 0x49 JUMPI PUSH0 CALLDATALOAD PUSH1 0xE0 SHR DUP1 PUSH3 0xADE45B EQ PUSH2 0x4D JUMPI DUP1 PUSH4 0x89F915F6 EQ PUSH2 0x7D JUMPI DUP1 PUSH4 0x94BE3170 EQ PUSH2 0x9C JUMPI DUP1 PUSH4 0xA378C898 EQ PUSH2 0xCC JUMPI JUMPDEST PUSH0 DUP1 REVERT JUMPDEST PUSH2 0x67 PUSH1 0x4 DUP1 CALLDATASIZE SUB DUP2 ADD SWAP1 PUSH2 0x62 SWAP2 SWAP1 PUSH2 0x176 JUMP JUMPDEST PUSH2 0xE8 JUMP JUMPDEST PUSH1 0x40 MLOAD PUSH2 0x74 SWAP2 SWAP1 PUSH2 0x1B0 JUMP JUMPDEST PUSH1 0x40 MLOAD DUP1 SWAP2 SUB SWAP1 RETURN JUMPDEST PUSH2 0x85 PUSH2 0x10A JUMP JUMPDEST PUSH1 0x40 MLOAD PUSH2 0x93 SWAP3 SWAP2 SWAP1 PUSH2 0x1C9 JUMP JUMPDEST PUSH1 0x40 MLOAD DUP1 SWAP2 SUB SWAP1 RETURN JUMPDEST PUSH2 0xB6 PUSH1 0x4 DUP1 CALLDATASIZE SUB DUP2 ADD SWAP1 PUSH2 0xB1 SWAP2 SWAP1 PUSH2 0x1F0 JUMP JUMPDEST PUSH2 0x119 JUMP JUMPDEST PUSH1 0x40 MLOAD PUSH2 0xC3 SWAP2 SWAP1 PUSH2 0x1B0 JUMP JUMPDEST PUSH1 0x40 MLOAD DUP1 SWAP2 SUB SWAP1 RETURN JUMPDEST PUSH2 0xE6 PUSH1 0x4 DUP1 CALLDATASIZE SUB DUP2 ADD SWAP1 PUSH2 0xE1 SWAP2 SWAP1 PUSH2 0x1F0 JUMP JUMPDEST PUSH2 0x12E JUMP JUMPDEST STOP JUMPDEST PUSH0 PUSH1 0x1 SLOAD PUSH0 SLOAD DUP4 PUSH2 0xF9 SWAP2 SWAP1 PUSH2 0x25B JUMP JUMPDEST PUSH2 0x103 SWAP2 SWAP1 PUSH2 0x25B JUMP JUMPDEST SWAP1 POP SWAP2 SWAP1 POP JUMP JUMPDEST PUSH0 DUP1 PUSH0 SLOAD PUSH1 0x1 SLOAD SWAP2 POP SWAP2 POP SWAP1 SWAP2 JUMP JUMPDEST PUSH0 DUP2 DUP4 PUSH2 0x126 SWAP2 SWAP1 PUSH2 0x25B JUMP JUMPDEST SWAP1 POP SWAP3 SWAP2 POP POP JUMP JUMPDEST DUP2 PUSH0 DUP2 SWAP1 SSTORE POP DUP1 PUSH1 0x1 DUP2 SWAP1 SSTORE POP POP POP JUMP JUMPDEST PUSH0 DUP1 REVERT JUMPDEST PUSH0 DUP2 SWAP1 POP SWAP2 SWAP1 POP JUMP JUMPDEST PUSH2 0x155 DUP2 PUSH2 0x143 JUMP JUMPDEST DUP2 EQ PUSH2 0x15F JUMPI PUSH0 DUP1 REVERT JUMPDEST POP JUMP JUMPDEST PUSH0 DUP2 CALLDATALOAD SWAP1 POP PUSH2 0x170 DUP2 PUSH2 0x14C JUMP JUMPDEST SWAP3 SWAP2 POP POP JUMP JUMPDEST PUSH0 PUSH1 0x20 DUP3 DUP5 SUB SLT ISZERO PUSH2 0x18B JUMPI PUSH2 0x18A PUSH2 0x13F JUMP JUMPDEST JUMPDEST PUSH0 PUSH2 0x198 DUP5 DUP3 DUP6 ADD PUSH2 0x162 JUMP JUMPDEST SWAP2 POP POP SWAP3 SWAP2 POP POP JUMP JUMPDEST PUSH2 0x1AA DUP2 PUSH2 0x143 JUMP JUMPDEST DUP3 MSTORE POP POP JUMP JUMPDEST PUSH0 PUSH1 0x20 DUP3 ADD SWAP1 POP PUSH2 0x1C3 PUSH0 DUP4 ADD DUP5 PUSH2 0x1A1 JUMP JUMPDEST SWAP3 SWAP2 POP POP JUMP JUMPDEST PUSH0 PUSH1 0x40 DUP3 ADD SWAP1 POP PUSH2 0x1DC PUSH0 DUP4 ADD DUP6 PUSH2 0x1A1 JUMP JUMPDEST PUSH2 0x1E9 PUSH1 0x20 DUP4 ADD DUP5 PUSH2 0x1A1 JUMP JUMPDEST SWAP4 SWAP3 POP POP POP JUMP JUMPDEST PUSH0 DUP1 PUSH1 0x40 DUP4 DUP6 SUB SLT ISZERO PUSH2 0x206 JUMPI PUSH2 0x205 PUSH2 0x13F JUMP JUMPDEST JUMPDEST PUSH0 PUSH2 0x213 DUP6 DUP3 DUP7 ADD PUSH2 0x162 JUMP JUMPDEST SWAP3 POP POP PUSH1 0x20 PUSH2 0x224 DUP6 DUP3 DUP7 ADD PUSH2 0x162 JUMP JUMPDEST SWAP2 POP POP SWAP3 POP SWAP3 SWAP1 POP JUMP JUMPDEST PUSH32 0x4E487B7100000000000000000000000000000000000000000000000000000000 PUSH0 MSTORE PUSH1 0x11 PUSH1 0x4 MSTORE PUSH1 0x24 PUSH0 REVERT JUMPDEST PUSH0 PUSH2 0x265 DUP3 PUSH2 0x143 JUMP JUMPDEST SWAP2 POP PUSH2 0x270 DUP4 PUSH2 0x143 JUMP JUMPDEST SWAP3 POP DUP3 DUP3 ADD SWAP1 POP DUP1 DUP3 GT ISZERO PUSH2 0x288 JUMPI PUSH2 0x287 PUSH2 0x22E JUMP JUMPDEST JUMPDEST SWAP3 SWAP2 POP POP JUMP INVALID LOG2 PUSH5 0x6970667358 0x22 SLT KECCAK256 0x2D DUP13 MCOPY 0x4B 0xA7 0xB4 MSTORE8 SUB XOR 0xC4 PUSH27 0x7710B4610501D343BF0E8AD3A0EB0A8D254DD1FE7164736F6C6343 STOP ADDMOD BYTE STOP CALLER "
				},
				"gasEstimates": {
					"creation": {
						"codeDepositCost": "141600",
						"executionCost": "188",
						"totalCost": "141788"
					},
					"external": {
						"getNumbers()": "infinite",
						"getSumma(uint256)": "infinite",
						"getSumma(uint256,uint256)": "infinite",
						"setNumbers(uint256,uint256)": "infinite"
					}
				},
				"methodIdentifiers": {
					"getNumbers()": "89f915f6",
					"getSumma(uint256)": "00ade45b",
					"getSumma(uint256,uint256)": "94be3170",
					"setNumbers(uint256,uint256)": "a378c898"
				}
			},
			"storageLayout": {
				"storage": [
					{
						"astId": 3,
						"contract": "code7_1.sol:task1",
						"label": "number1",
						"offset": 0,
						"slot": "0",
						"type": "t_uint256"
					},
					{
						"astId": 5,
						"contract": "code7_1.sol:task1",
						"label": "number2",
						"offset": 0,
						"slot": "1",
						"type": "t_uint256"
					}
				],
				"types": {
					"t_uint256": {
						"encoding": "inplace",
						"label": "uint256",
						"numberOfBytes": "32"
					}
				}
			},
			"userdoc": {
				"kind": "user",
				"methods": {},
				"version": 1
			}
		}
	}
}