{
	"week7task12.sol": {
		"ArrayOperations": {
			"abi": [
				{
					"inputs": [
						{
							"internalType": "uint256",
							"name": "length",
							"type": "uint256"
						}
					],
					"stateMutability": "nonpayable",
					"type": "constructor"
				},
				{
					"inputs": [],
					"name": "applyMap",
					"outputs": [],
					"stateMutability": "nonpayable",
					"type": "function"
				},
				{
					"inputs": [
						{
							"internalType": "uint256",
							"name": "",
							"type": "uint256"
						}
					],
					"name": "data",
					"outputs": [
						{
							"internalType": "int256",
							"name": "",
							"type": "int256"
						}
					],
					"stateMutability": "view",
					"type": "function"
				},
				{
					"inputs": [],
					"name": "getProduct",
					"outputs": [
						{
							"internalType": "int256",
							"name": "",
							"type": "int256"
						}
					],
					"stateMutability": "view",
					"type": "function"
				},
				{
					"inputs": [],
					"name": "getSum",
					"outputs": [
						{
							"internalType": "int256",
							"name": "",
							"type": "int256"
						}
					],
					"stateMutability": "view",
					"type": "function"
				}
			],
			"devdoc": {
				"kind": "dev",
				"methods": {},
				"version": 1
			},
			"evm": {
				"assembly": "    /* \"week7task12.sol\":90:664  contract ArrayOperations {... */\n  mstore(0x40, 0x80)\n    /* \"week7task12.sol\":192:272  constructor(uint256 length) {... */\n  callvalue\n  dup1\n  iszero\n  tag_1\n  jumpi\n  0x00\n  dup1\n  revert\ntag_1:\n  pop\n  mload(0x40)\n  sub(codesize, bytecodeSize)\n  dup1\n  bytecodeSize\n  dup4\n  codecopy\n  dup2\n  dup2\n  add\n  0x40\n  mstore\n  dup2\n  add\n  swap1\n  tag_2\n  swap2\n  swap1\n  tag_3\n  jump\t// in\ntag_2:\n    /* \"week7task12.sol\":238:264  IntArrayUtils.init(length) */\n  tag_6\n    /* \"week7task12.sol\":257:263  length */\n  dup2\n    /* \"week7task12.sol\":238:256  IntArrayUtils.init */\n  shl(0x20, tag_7)\n    /* \"week7task12.sol\":238:264  IntArrayUtils.init(length) */\n  0x20\n  shr\n  jump\t// in\ntag_6:\n    /* \"week7task12.sol\":231:235  data */\n  0x00\n    /* \"week7task12.sol\":231:264  data = IntArrayUtils.init(length) */\n  swap1\n  dup1\n  mload\n  swap1\n  0x20\n  add\n  swap1\n  tag_8\n  swap3\n  swap2\n  swap1\n  tag_9\n  jump\t// in\ntag_8:\n  pop\n    /* \"week7task12.sol\":192:272  constructor(uint256 length) {... */\n  pop\n    /* \"week7task12.sol\":90:664  contract ArrayOperations {... */\n  jump(tag_10)\n    /* \"week7task1.sol\":89:333  function init(uint256 length) internal pure returns (int256[] memory) {... */\ntag_7:\n    /* \"week7task1.sol\":142:157  int256[] memory */\n  0x60\n    /* \"week7task1.sol\":170:189  int256[] memory arr */\n  0x00\n    /* \"week7task1.sol\":205:211  length */\n  dup3\n    /* \"week7task1.sol\":192:212  new int256[](length) */\n  0xffffffffffffffff\n  dup2\n  gt\n  iszero\n  tag_12\n  jumpi\n  tag_13\n  tag_14\n  jump\t// in\ntag_13:\ntag_12:\n  mload(0x40)\n  swap1\n  dup1\n  dup3\n  mstore\n  dup1\n  0x20\n  mul\n  0x20\n  add\n  dup3\n  add\n  0x40\n  mstore\n  dup1\n  iszero\n  tag_15\n  jumpi\n  dup2\n  0x20\n  add\n  0x20\n  dup3\n  mul\n  dup1\n  calldatasize\n  dup4\n  calldatacopy\n  dup1\n  dup3\n  add\n  swap2\n  pop\n  pop\n  swap1\n  pop\ntag_15:\n  pop\n    /* \"week7task1.sol\":170:212  int256[] memory arr = new int256[](length) */\n  swap1\n  pop\n    /* \"week7task1.sol\":228:237  uint256 i */\n  0x00\n    /* \"week7task1.sol\":223:305  for (uint256 i = 0; i < length; i++) {... */\ntag_16:\n    /* \"week7task1.sol\":247:253  length */\n  dup4\n    /* \"week7task1.sol\":243:244  i */\n  dup2\n    /* \"week7task1.sol\":243:253  i < length */\n  lt\n    /* \"week7task1.sol\":223:305  for (uint256 i = 0; i < length; i++) {... */\n  iszero\n  tag_17\n  jumpi\n    /* \"week7task1.sol\":291:292  i */\n  dup1\n    /* \"week7task1.sol\":275:278  arr */\n  dup3\n    /* \"week7task1.sol\":279:280  i */\n  dup3\n    /* \"week7task1.sol\":275:281  arr[i] */\n  dup2\n  mload\n  dup2\n  lt\n  tag_19\n  jumpi\n  tag_20\n  tag_21\n  jump\t// in\ntag_20:\ntag_19:\n  0x20\n  mul\n  0x20\n  add\n  add\n    /* \"week7task1.sol\":275:293  arr[i] = int256(i) */\n  dup2\n  dup2\n  mstore\n  pop\n  pop\n    /* \"week7task1.sol\":255:258  i++ */\n  dup1\n  dup1\n  0x01\n  add\n  swap2\n  pop\n  pop\n    /* \"week7task1.sol\":223:305  for (uint256 i = 0; i < length; i++) {... */\n  jump(tag_16)\ntag_17:\n  pop\n    /* \"week7task1.sol\":322:325  arr */\n  dup1\n    /* \"week7task1.sol\":315:325  return arr */\n  swap2\n  pop\n  pop\n    /* \"week7task1.sol\":89:333  function init(uint256 length) internal pure returns (int256[] memory) {... */\n  swap2\n  swap1\n  pop\n  jump\t// out\n    /* \"week7task12.sol\":90:664  contract ArrayOperations {... */\ntag_9:\n  dup3\n  dup1\n  sload\n  dup3\n  dup3\n  sstore\n  swap1\n  0x00\n  mstore\n  keccak256(0x00, 0x20)\n  swap1\n  dup2\n  add\n  swap3\n  dup3\n  iszero\n  tag_22\n  jumpi\n  swap2\n  0x20\n  mul\n  dup3\n  add\ntag_23:\n  dup3\n  dup2\n  gt\n  iszero\n  tag_24\n  jumpi\n  dup3\n  mload\n  dup3\n  sstore\n  swap2\n  0x20\n  add\n  swap2\n  swap1\n  0x01\n  add\n  swap1\n  jump(tag_23)\ntag_24:\ntag_22:\n  pop\n  swap1\n  pop\n  tag_25\n  swap2\n  swap1\n  tag_26\n  jump\t// in\ntag_25:\n  pop\n  swap1\n  jump\t// out\ntag_26:\ntag_27:\n  dup1\n  dup3\n  gt\n  iszero\n  tag_28\n  jumpi\n  0x00\n  dup2\n  0x00\n  swap1\n  sstore\n  pop\n  0x01\n  add\n  jump(tag_27)\ntag_28:\n  pop\n  swap1\n  jump\t// out\n    /* \"#utility.yul\":88:205   */\ntag_30:\n    /* \"#utility.yul\":197:198   */\n  0x00\n    /* \"#utility.yul\":194:195   */\n  dup1\n    /* \"#utility.yul\":187:199   */\n  revert\n    /* \"#utility.yul\":334:411   */\ntag_32:\n    /* \"#utility.yul\":371:378   */\n  0x00\n    /* \"#utility.yul\":400:405   */\n  dup2\n    /* \"#utility.yul\":389:405   */\n  swap1\n  pop\n    /* \"#utility.yul\":334:411   */\n  swap2\n  swap1\n  pop\n  jump\t// out\n    /* \"#utility.yul\":417:539   */\ntag_33:\n    /* \"#utility.yul\":490:514   */\n  tag_41\n    /* \"#utility.yul\":508:513   */\n  dup2\n    /* \"#utility.yul\":490:514   */\n  tag_32\n  jump\t// in\ntag_41:\n    /* \"#utility.yul\":483:488   */\n  dup2\n    /* \"#utility.yul\":480:515   */\n  eq\n    /* \"#utility.yul\":470:533   */\n  tag_42\n  jumpi\n    /* \"#utility.yul\":529:530   */\n  0x00\n    /* \"#utility.yul\":526:527   */\n  dup1\n    /* \"#utility.yul\":519:531   */\n  revert\n    /* \"#utility.yul\":470:533   */\ntag_42:\n    /* \"#utility.yul\":417:539   */\n  pop\n  jump\t// out\n    /* \"#utility.yul\":545:688   */\ntag_34:\n    /* \"#utility.yul\":602:607   */\n  0x00\n    /* \"#utility.yul\":633:639   */\n  dup2\n    /* \"#utility.yul\":627:640   */\n  mload\n    /* \"#utility.yul\":618:640   */\n  swap1\n  pop\n    /* \"#utility.yul\":649:682   */\n  tag_44\n    /* \"#utility.yul\":676:681   */\n  dup2\n    /* \"#utility.yul\":649:682   */\n  tag_33\n  jump\t// in\ntag_44:\n    /* \"#utility.yul\":545:688   */\n  swap3\n  swap2\n  pop\n  pop\n  jump\t// out\n    /* \"#utility.yul\":694:1045   */\ntag_3:\n    /* \"#utility.yul\":764:770   */\n  0x00\n    /* \"#utility.yul\":813:815   */\n  0x20\n    /* \"#utility.yul\":801:810   */\n  dup3\n    /* \"#utility.yul\":792:799   */\n  dup5\n    /* \"#utility.yul\":788:811   */\n  sub\n    /* \"#utility.yul\":784:816   */\n  slt\n    /* \"#utility.yul\":781:900   */\n  iszero\n  tag_46\n  jumpi\n    /* \"#utility.yul\":819:898   */\n  tag_47\n  tag_30\n  jump\t// in\ntag_47:\n    /* \"#utility.yul\":781:900   */\ntag_46:\n    /* \"#utility.yul\":939:940   */\n  0x00\n    /* \"#utility.yul\":964:1028   */\n  tag_48\n    /* \"#utility.yul\":1020:1027   */\n  dup5\n    /* \"#utility.yul\":1011:1017   */\n  dup3\n    /* \"#utility.yul\":1000:1009   */\n  dup6\n    /* \"#utility.yul\":996:1018   */\n  add\n    /* \"#utility.yul\":964:1028   */\n  tag_34\n  jump\t// in\ntag_48:\n    /* \"#utility.yul\":954:1028   */\n  swap2\n  pop\n    /* \"#utility.yul\":910:1038   */\n  pop\n    /* \"#utility.yul\":694:1045   */\n  swap3\n  swap2\n  pop\n  pop\n  jump\t// out\n    /* \"#utility.yul\":1051:1231   */\ntag_14:\n    /* \"#utility.yul\":1099:1176   */\n  0x4e487b7100000000000000000000000000000000000000000000000000000000\n    /* \"#utility.yul\":1096:1097   */\n  0x00\n    /* \"#utility.yul\":1089:1177   */\n  mstore\n    /* \"#utility.yul\":1196:1200   */\n  0x41\n    /* \"#utility.yul\":1193:1194   */\n  0x04\n    /* \"#utility.yul\":1186:1201   */\n  mstore\n    /* \"#utility.yul\":1220:1224   */\n  0x24\n    /* \"#utility.yul\":1217:1218   */\n  0x00\n    /* \"#utility.yul\":1210:1225   */\n  revert\n    /* \"#utility.yul\":1237:1417   */\ntag_21:\n    /* \"#utility.yul\":1285:1362   */\n  0x4e487b7100000000000000000000000000000000000000000000000000000000\n    /* \"#utility.yul\":1282:1283   */\n  0x00\n    /* \"#utility.yul\":1275:1363   */\n  mstore\n    /* \"#utility.yul\":1382:1386   */\n  0x32\n    /* \"#utility.yul\":1379:1380   */\n  0x04\n    /* \"#utility.yul\":1372:1387   */\n  mstore\n    /* \"#utility.yul\":1406:1410   */\n  0x24\n    /* \"#utility.yul\":1403:1404   */\n  0x00\n    /* \"#utility.yul\":1396:1411   */\n  revert\n    /* \"week7task12.sol\":90:664  contract ArrayOperations {... */\ntag_10:\n  dataSize(sub_0)\n  dup1\n  dataOffset(sub_0)\n  0x00\n  codecopy\n  0x00\n  return\nstop\n\nsub_0: assembly {\n        /* \"week7task12.sol\":90:664  contract ArrayOperations {... */\n      mstore(0x40, 0x80)\n      callvalue\n      dup1\n      iszero\n      tag_1\n      jumpi\n      0x00\n      dup1\n      revert\n    tag_1:\n      pop\n      jumpi(tag_2, lt(calldatasize, 0x04))\n      shr(0xe0, calldataload(0x00))\n      dup1\n      0x4ba20050\n      eq\n      tag_3\n      jumpi\n      dup1\n      0x569c5f6d\n      eq\n      tag_4\n      jumpi\n      dup1\n      0xc87dccd8\n      eq\n      tag_5\n      jumpi\n      dup1\n      0xf0ba8440\n      eq\n      tag_6\n      jumpi\n    tag_2:\n      0x00\n      dup1\n      revert\n        /* \"week7task12.sol\":449:537  function getProduct() public view returns (int256) {... */\n    tag_3:\n      tag_7\n      tag_8\n      jump\t// in\n    tag_7:\n      mload(0x40)\n      tag_9\n      swap2\n      swap1\n      tag_10\n      jump\t// in\n    tag_9:\n      mload(0x40)\n      dup1\n      swap2\n      sub\n      swap1\n      return\n        /* \"week7task12.sol\":358:441  function getSum() public view returns (int256) {... */\n    tag_4:\n      tag_11\n      tag_12\n      jump\t// in\n    tag_11:\n      mload(0x40)\n      tag_13\n      swap2\n      swap1\n      tag_10\n      jump\t// in\n    tag_13:\n      mload(0x40)\n      dup1\n      swap2\n      sub\n      swap1\n      return\n        /* \"week7task12.sol\":280:350  function applyMap() public {... */\n    tag_5:\n      tag_14\n      tag_15\n      jump\t// in\n    tag_14:\n      stop\n        /* \"week7task12.sol\":163:183  int256[] public data */\n    tag_6:\n      tag_16\n      0x04\n      dup1\n      calldatasize\n      sub\n      dup2\n      add\n      swap1\n      tag_17\n      swap2\n      swap1\n      tag_18\n      jump\t// in\n    tag_17:\n      tag_19\n      jump\t// in\n    tag_16:\n      mload(0x40)\n      tag_20\n      swap2\n      swap1\n      tag_10\n      jump\t// in\n    tag_20:\n      mload(0x40)\n      dup1\n      swap2\n      sub\n      swap1\n      return\n        /* \"week7task12.sol\":449:537  function getProduct() public view returns (int256) {... */\n    tag_8:\n        /* \"week7task12.sol\":492:498  int256 */\n      0x00\n        /* \"week7task12.sol\":518:529  data.mult() */\n      tag_22\n        /* \"week7task12.sol\":518:522  data */\n      0x00\n        /* \"week7task12.sol\":518:527  data.mult */\n      dup1\n      sload\n      dup1\n      0x20\n      mul\n      0x20\n      add\n      mload(0x40)\n      swap1\n      dup2\n      add\n      0x40\n      mstore\n      dup1\n      swap3\n      swap2\n      swap1\n      dup2\n      dup2\n      mstore\n      0x20\n      add\n      dup3\n      dup1\n      sload\n      dup1\n      iszero\n      tag_23\n      jumpi\n      0x20\n      mul\n      dup3\n      add\n      swap2\n      swap1\n      0x00\n      mstore\n      keccak256(0x00, 0x20)\n      swap1\n    tag_24:\n      dup2\n      sload\n      dup2\n      mstore\n      0x20\n      add\n      swap1\n      0x01\n      add\n      swap1\n      dup1\n      dup4\n      gt\n      tag_24\n      jumpi\n    tag_23:\n      pop\n      pop\n      pop\n      pop\n      pop\n      tag_25\n        /* \"week7task12.sol\":518:529  data.mult() */\n      jump\t// in\n    tag_22:\n        /* \"week7task12.sol\":511:529  return data.mult() */\n      swap1\n      pop\n        /* \"week7task12.sol\":449:537  function getProduct() public view returns (int256) {... */\n      swap1\n      jump\t// out\n        /* \"week7task12.sol\":358:441  function getSum() public view returns (int256) {... */\n    tag_12:\n        /* \"week7task12.sol\":397:403  int256 */\n      0x00\n        /* \"week7task12.sol\":423:433  data.sum() */\n      tag_27\n        /* \"week7task12.sol\":423:427  data */\n      0x00\n        /* \"week7task12.sol\":423:431  data.sum */\n      dup1\n      sload\n      dup1\n      0x20\n      mul\n      0x20\n      add\n      mload(0x40)\n      swap1\n      dup2\n      add\n      0x40\n      mstore\n      dup1\n      swap3\n      swap2\n      swap1\n      dup2\n      dup2\n      mstore\n      0x20\n      add\n      dup3\n      dup1\n      sload\n      dup1\n      iszero\n      tag_28\n      jumpi\n      0x20\n      mul\n      dup3\n      add\n      swap2\n      swap1\n      0x00\n      mstore\n      keccak256(0x00, 0x20)\n      swap1\n    tag_29:\n      dup2\n      sload\n      dup2\n      mstore\n      0x20\n      add\n      swap1\n      0x01\n      add\n      swap1\n      dup1\n      dup4\n      gt\n      tag_29\n      jumpi\n    tag_28:\n      pop\n      pop\n      pop\n      pop\n      pop\n      tag_30\n        /* \"week7task12.sol\":423:433  data.sum() */\n      jump\t// in\n    tag_27:\n        /* \"week7task12.sol\":416:433  return data.sum() */\n      swap1\n      pop\n        /* \"week7task12.sol\":358:441  function getSum() public view returns (int256) {... */\n      swap1\n      jump\t// out\n        /* \"week7task12.sol\":280:350  function applyMap() public {... */\n    tag_15:\n        /* \"week7task12.sol\":325:342  data.map(reverse) */\n      tag_32\n        /* \"week7task12.sol\":334:341  reverse */\n      tag_33\n        /* \"week7task12.sol\":325:329  data */\n      0x00\n        /* \"week7task12.sol\":325:333  data.map */\n      dup1\n      sload\n      dup1\n      0x20\n      mul\n      0x20\n      add\n      mload(0x40)\n      swap1\n      dup2\n      add\n      0x40\n      mstore\n      dup1\n      swap3\n      swap2\n      swap1\n      dup2\n      dup2\n      mstore\n      0x20\n      add\n      dup3\n      dup1\n      sload\n      dup1\n      iszero\n      tag_34\n      jumpi\n      0x20\n      mul\n      dup3\n      add\n      swap2\n      swap1\n      0x00\n      mstore\n      keccak256(0x00, 0x20)\n      swap1\n    tag_35:\n      dup2\n      sload\n      dup2\n      mstore\n      0x20\n      add\n      swap1\n      0x01\n      add\n      swap1\n      dup1\n      dup4\n      gt\n      tag_35\n      jumpi\n    tag_34:\n      pop\n      pop\n      pop\n      pop\n      pop\n      tag_36\n      swap1\n        /* \"week7task12.sol\":325:342  data.map(reverse) */\n      swap2\n      swap1\n      0xffffffff\n      and\n      jump\t// in\n    tag_32:\n        /* \"week7task12.sol\":318:322  data */\n      0x00\n        /* \"week7task12.sol\":318:342  data = data.map(reverse) */\n      swap1\n      dup1\n      mload\n      swap1\n      0x20\n      add\n      swap1\n      tag_37\n      swap3\n      swap2\n      swap1\n      tag_38\n      jump\t// in\n    tag_37:\n      pop\n        /* \"week7task12.sol\":280:350  function applyMap() public {... */\n      jump\t// out\n        /* \"week7task12.sol\":163:183  int256[] public data */\n    tag_19:\n      0x00\n      dup2\n      dup2\n      sload\n      dup2\n      lt\n      tag_39\n      jumpi\n      0x00\n      dup1\n      revert\n    tag_39:\n      swap1\n      0x00\n      mstore\n      keccak256(0x00, 0x20)\n      add\n      0x00\n      swap2\n      pop\n      swap1\n      pop\n      sload\n      dup2\n      jump\t// out\n        /* \"week7task1.sol\":1051:1277  function mult(int256[] memory data) internal pure returns (int256) {... */\n    tag_25:\n        /* \"week7task1.sol\":1110:1116  int256 */\n      0x00\n        /* \"week7task1.sol\":1129:1143  int256 product */\n      dup1\n        /* \"week7task1.sol\":1146:1147  1 */\n      0x01\n        /* \"week7task1.sol\":1129:1147  int256 product = 1 */\n      swap1\n      pop\n        /* \"week7task1.sol\":1163:1172  uint256 i */\n      0x00\n        /* \"week7task1.sol\":1158:1245  for (uint256 i = 0; i < data.length; i++) {... */\n    tag_42:\n        /* \"week7task1.sol\":1182:1186  data */\n      dup4\n        /* \"week7task1.sol\":1182:1193  data.length */\n      mload\n        /* \"week7task1.sol\":1178:1179  i */\n      dup2\n        /* \"week7task1.sol\":1178:1193  i < data.length */\n      lt\n        /* \"week7task1.sol\":1158:1245  for (uint256 i = 0; i < data.length; i++) {... */\n      iszero\n      tag_43\n      jumpi\n        /* \"week7task1.sol\":1226:1230  data */\n      dup4\n        /* \"week7task1.sol\":1231:1232  i */\n      dup2\n        /* \"week7task1.sol\":1226:1233  data[i] */\n      dup2\n      mload\n      dup2\n      lt\n      tag_45\n      jumpi\n      tag_46\n      tag_47\n      jump\t// in\n    tag_46:\n    tag_45:\n      0x20\n      mul\n      0x20\n      add\n      add\n      mload\n        /* \"week7task1.sol\":1215:1233  product *= data[i] */\n      dup3\n      tag_48\n      swap2\n      swap1\n      tag_49\n      jump\t// in\n    tag_48:\n      swap2\n      pop\n        /* \"week7task1.sol\":1195:1198  i++ */\n      dup1\n      dup1\n      0x01\n      add\n      swap2\n      pop\n      pop\n        /* \"week7task1.sol\":1158:1245  for (uint256 i = 0; i < data.length; i++) {... */\n      jump(tag_42)\n    tag_43:\n      pop\n        /* \"week7task1.sol\":1262:1269  product */\n      dup1\n        /* \"week7task1.sol\":1255:1269  return product */\n      swap2\n      pop\n      pop\n        /* \"week7task1.sol\":1051:1277  function mult(int256[] memory data) internal pure returns (int256) {... */\n      swap2\n      swap1\n      pop\n      jump\t// out\n        /* \"week7task1.sol\":824:1043  function sum(int256[] memory data) internal pure returns (int256) {... */\n    tag_30:\n        /* \"week7task1.sol\":882:888  int256 */\n      0x00\n        /* \"week7task1.sol\":901:913  int256 total */\n      dup1\n        /* \"week7task1.sol\":916:917  0 */\n      0x00\n        /* \"week7task1.sol\":901:917  int256 total = 0 */\n      swap1\n      pop\n        /* \"week7task1.sol\":933:942  uint256 i */\n      0x00\n        /* \"week7task1.sol\":928:1013  for (uint256 i = 0; i < data.length; i++) {... */\n    tag_51:\n        /* \"week7task1.sol\":952:956  data */\n      dup4\n        /* \"week7task1.sol\":952:963  data.length */\n      mload\n        /* \"week7task1.sol\":948:949  i */\n      dup2\n        /* \"week7task1.sol\":948:963  i < data.length */\n      lt\n        /* \"week7task1.sol\":928:1013  for (uint256 i = 0; i < data.length; i++) {... */\n      iszero\n      tag_52\n      jumpi\n        /* \"week7task1.sol\":994:998  data */\n      dup4\n        /* \"week7task1.sol\":999:1000  i */\n      dup2\n        /* \"week7task1.sol\":994:1001  data[i] */\n      dup2\n      mload\n      dup2\n      lt\n      tag_54\n      jumpi\n      tag_55\n      tag_47\n      jump\t// in\n    tag_55:\n    tag_54:\n      0x20\n      mul\n      0x20\n      add\n      add\n      mload\n        /* \"week7task1.sol\":985:1001  total += data[i] */\n      dup3\n      tag_56\n      swap2\n      swap1\n      tag_57\n      jump\t// in\n    tag_56:\n      swap2\n      pop\n        /* \"week7task1.sol\":965:968  i++ */\n      dup1\n      dup1\n      0x01\n      add\n      swap2\n      pop\n      pop\n        /* \"week7task1.sol\":928:1013  for (uint256 i = 0; i < data.length; i++) {... */\n      jump(tag_51)\n    tag_52:\n      pop\n        /* \"week7task1.sol\":1030:1035  total */\n      dup1\n        /* \"week7task1.sol\":1023:1035  return total */\n      swap2\n      pop\n      pop\n        /* \"week7task1.sol\":824:1043  function sum(int256[] memory data) internal pure returns (int256) {... */\n      swap2\n      swap1\n      pop\n      jump\t// out\n        /* \"week7task12.sol\":545:661  function reverse(int256 value) internal pure returns (int256) {... */\n    tag_33:\n        /* \"week7task12.sol\":599:605  int256 */\n      0x00\n        /* \"week7task12.sol\":625:653  IntArrayUtils.reverse(value) */\n      tag_59\n        /* \"week7task12.sol\":647:652  value */\n      dup3\n        /* \"week7task12.sol\":625:646  IntArrayUtils.reverse */\n      tag_60\n        /* \"week7task12.sol\":625:653  IntArrayUtils.reverse(value) */\n      jump\t// in\n    tag_59:\n        /* \"week7task12.sol\":618:653  return IntArrayUtils.reverse(value) */\n      swap1\n      pop\n        /* \"week7task12.sol\":545:661  function reverse(int256 value) internal pure returns (int256) {... */\n      swap2\n      swap1\n      pop\n      jump\t// out\n        /* \"week7task1.sol\":341:621  function map(... */\n    tag_36:\n        /* \"week7task1.sol\":475:490  int256[] memory */\n      0x60\n        /* \"week7task1.sol\":508:517  uint256 i */\n      0x00\n        /* \"week7task1.sol\":503:592  for (uint256 i = 0; i < data.length; i++) {... */\n    tag_62:\n        /* \"week7task1.sol\":527:531  data */\n      dup4\n        /* \"week7task1.sol\":527:538  data.length */\n      mload\n        /* \"week7task1.sol\":523:524  i */\n      dup2\n        /* \"week7task1.sol\":523:538  i < data.length */\n      lt\n        /* \"week7task1.sol\":503:592  for (uint256 i = 0; i < data.length; i++) {... */\n      iszero\n      tag_63\n      jumpi\n        /* \"week7task1.sol\":570:580  f(data[i]) */\n      tag_65\n        /* \"week7task1.sol\":572:576  data */\n      dup5\n        /* \"week7task1.sol\":577:578  i */\n      dup3\n        /* \"week7task1.sol\":572:579  data[i] */\n      dup2\n      mload\n      dup2\n      lt\n      tag_66\n      jumpi\n      tag_67\n      tag_47\n      jump\t// in\n    tag_67:\n    tag_66:\n      0x20\n      mul\n      0x20\n      add\n      add\n      mload\n        /* \"week7task1.sol\":570:571  f */\n      dup5\n        /* \"week7task1.sol\":570:580  f(data[i]) */\n      0xffffffff\n      and\n      jump\t// in\n    tag_65:\n        /* \"week7task1.sol\":560:564  data */\n      dup5\n        /* \"week7task1.sol\":565:566  i */\n      dup3\n        /* \"week7task1.sol\":560:567  data[i] */\n      dup2\n      mload\n      dup2\n      lt\n      tag_68\n      jumpi\n      tag_69\n      tag_47\n      jump\t// in\n    tag_69:\n    tag_68:\n      0x20\n      mul\n      0x20\n      add\n      add\n        /* \"week7task1.sol\":560:580  data[i] = f(data[i]) */\n      dup2\n      dup2\n      mstore\n      pop\n      pop\n        /* \"week7task1.sol\":540:543  i++ */\n      dup1\n      dup1\n      0x01\n      add\n      swap2\n      pop\n      pop\n        /* \"week7task1.sol\":503:592  for (uint256 i = 0; i < data.length; i++) {... */\n      jump(tag_62)\n    tag_63:\n      pop\n        /* \"week7task1.sol\":609:613  data */\n      dup3\n        /* \"week7task1.sol\":602:613  return data */\n      swap1\n      pop\n        /* \"week7task1.sol\":341:621  function map(... */\n      swap3\n      swap2\n      pop\n      pop\n      jump\t// out\n        /* \"week7task1.sol\":1285:1383  function reverse(int256 value) internal pure returns (int256) {... */\n    tag_60:\n        /* \"week7task1.sol\":1339:1345  int256 */\n      0x00\n        /* \"week7task1.sol\":1373:1375  -1 */\n      0xffffffffffffffffffffffffffffffffffffffffffffffffffffffffffffffff\n        /* \"week7task1.sol\":1365:1370  value */\n      dup3\n        /* \"week7task1.sol\":1365:1375  value * -1 */\n      tag_71\n      swap2\n      swap1\n      tag_49\n      jump\t// in\n    tag_71:\n        /* \"week7task1.sol\":1358:1375  return value * -1 */\n      swap1\n      pop\n        /* \"week7task1.sol\":1285:1383  function reverse(int256 value) internal pure returns (int256) {... */\n      swap2\n      swap1\n      pop\n      jump\t// out\n    tag_38:\n      dup3\n      dup1\n      sload\n      dup3\n      dup3\n      sstore\n      swap1\n      0x00\n      mstore\n      keccak256(0x00, 0x20)\n      swap1\n      dup2\n      add\n      swap3\n      dup3\n      iszero\n      tag_72\n      jumpi\n      swap2\n      0x20\n      mul\n      dup3\n      add\n    tag_73:\n      dup3\n      dup2\n      gt\n      iszero\n      tag_74\n      jumpi\n      dup3\n      mload\n      dup3\n      sstore\n      swap2\n      0x20\n      add\n      swap2\n      swap1\n      0x01\n      add\n      swap1\n      jump(tag_73)\n    tag_74:\n    tag_72:\n      pop\n      swap1\n      pop\n      tag_75\n      swap2\n      swap1\n      tag_76\n      jump\t// in\n    tag_75:\n      pop\n      swap1\n      jump\t// out\n    tag_76:\n    tag_77:\n      dup1\n      dup3\n      gt\n      iszero\n      tag_78\n      jumpi\n      0x00\n      dup2\n      0x00\n      swap1\n      sstore\n      pop\n      0x01\n      add\n      jump(tag_77)\n    tag_78:\n      pop\n      swap1\n      jump\t// out\n        /* \"#utility.yul\":7:83   */\n    tag_79:\n        /* \"#utility.yul\":43:50   */\n      0x00\n        /* \"#utility.yul\":72:77   */\n      dup2\n        /* \"#utility.yul\":61:77   */\n      swap1\n      pop\n        /* \"#utility.yul\":7:83   */\n      swap2\n      swap1\n      pop\n      jump\t// out\n        /* \"#utility.yul\":89:204   */\n    tag_80:\n        /* \"#utility.yul\":174:197   */\n      tag_91\n        /* \"#utility.yul\":191:196   */\n      dup2\n        /* \"#utility.yul\":174:197   */\n      tag_79\n      jump\t// in\n    tag_91:\n        /* \"#utility.yul\":169:172   */\n      dup3\n        /* \"#utility.yul\":162:198   */\n      mstore\n        /* \"#utility.yul\":89:204   */\n      pop\n      pop\n      jump\t// out\n        /* \"#utility.yul\":210:428   */\n    tag_10:\n        /* \"#utility.yul\":301:305   */\n      0x00\n        /* \"#utility.yul\":339:341   */\n      0x20\n        /* \"#utility.yul\":328:337   */\n      dup3\n        /* \"#utility.yul\":324:342   */\n      add\n        /* \"#utility.yul\":316:342   */\n      swap1\n      pop\n        /* \"#utility.yul\":352:421   */\n      tag_93\n        /* \"#utility.yul\":418:419   */\n      0x00\n        /* \"#utility.yul\":407:416   */\n      dup4\n        /* \"#utility.yul\":403:420   */\n      add\n        /* \"#utility.yul\":394:400   */\n      dup5\n        /* \"#utility.yul\":352:421   */\n      tag_80\n      jump\t// in\n    tag_93:\n        /* \"#utility.yul\":210:428   */\n      swap3\n      swap2\n      pop\n      pop\n      jump\t// out\n        /* \"#utility.yul\":515:632   */\n    tag_82:\n        /* \"#utility.yul\":624:625   */\n      0x00\n        /* \"#utility.yul\":621:622   */\n      dup1\n        /* \"#utility.yul\":614:626   */\n      revert\n        /* \"#utility.yul\":761:838   */\n    tag_84:\n        /* \"#utility.yul\":798:805   */\n      0x00\n        /* \"#utility.yul\":827:832   */\n      dup2\n        /* \"#utility.yul\":816:832   */\n      swap1\n      pop\n        /* \"#utility.yul\":761:838   */\n      swap2\n      swap1\n      pop\n      jump\t// out\n        /* \"#utility.yul\":844:966   */\n    tag_85:\n        /* \"#utility.yul\":917:941   */\n      tag_99\n        /* \"#utility.yul\":935:940   */\n      dup2\n        /* \"#utility.yul\":917:941   */\n      tag_84\n      jump\t// in\n    tag_99:\n        /* \"#utility.yul\":910:915   */\n      dup2\n        /* \"#utility.yul\":907:942   */\n      eq\n        /* \"#utility.yul\":897:960   */\n      tag_100\n      jumpi\n        /* \"#utility.yul\":956:957   */\n      0x00\n        /* \"#utility.yul\":953:954   */\n      dup1\n        /* \"#utility.yul\":946:958   */\n      revert\n        /* \"#utility.yul\":897:960   */\n    tag_100:\n        /* \"#utility.yul\":844:966   */\n      pop\n      jump\t// out\n        /* \"#utility.yul\":972:1111   */\n    tag_86:\n        /* \"#utility.yul\":1018:1023   */\n      0x00\n        /* \"#utility.yul\":1056:1062   */\n      dup2\n        /* \"#utility.yul\":1043:1063   */\n      calldataload\n        /* \"#utility.yul\":1034:1063   */\n      swap1\n      pop\n        /* \"#utility.yul\":1072:1105   */\n      tag_102\n        /* \"#utility.yul\":1099:1104   */\n      dup2\n        /* \"#utility.yul\":1072:1105   */\n      tag_85\n      jump\t// in\n    tag_102:\n        /* \"#utility.yul\":972:1111   */\n      swap3\n      swap2\n      pop\n      pop\n      jump\t// out\n        /* \"#utility.yul\":1117:1446   */\n    tag_18:\n        /* \"#utility.yul\":1176:1182   */\n      0x00\n        /* \"#utility.yul\":1225:1227   */\n      0x20\n        /* \"#utility.yul\":1213:1222   */\n      dup3\n        /* \"#utility.yul\":1204:1211   */\n      dup5\n        /* \"#utility.yul\":1200:1223   */\n      sub\n        /* \"#utility.yul\":1196:1228   */\n      slt\n        /* \"#utility.yul\":1193:1312   */\n      iszero\n      tag_104\n      jumpi\n        /* \"#utility.yul\":1231:1310   */\n      tag_105\n      tag_82\n      jump\t// in\n    tag_105:\n        /* \"#utility.yul\":1193:1312   */\n    tag_104:\n        /* \"#utility.yul\":1351:1352   */\n      0x00\n        /* \"#utility.yul\":1376:1429   */\n      tag_106\n        /* \"#utility.yul\":1421:1428   */\n      dup5\n        /* \"#utility.yul\":1412:1418   */\n      dup3\n        /* \"#utility.yul\":1401:1410   */\n      dup6\n        /* \"#utility.yul\":1397:1419   */\n      add\n        /* \"#utility.yul\":1376:1429   */\n      tag_86\n      jump\t// in\n    tag_106:\n        /* \"#utility.yul\":1366:1429   */\n      swap2\n      pop\n        /* \"#utility.yul\":1322:1439   */\n      pop\n        /* \"#utility.yul\":1117:1446   */\n      swap3\n      swap2\n      pop\n      pop\n      jump\t// out\n        /* \"#utility.yul\":1452:1632   */\n    tag_47:\n        /* \"#utility.yul\":1500:1577   */\n      0x4e487b7100000000000000000000000000000000000000000000000000000000\n        /* \"#utility.yul\":1497:1498   */\n      0x00\n        /* \"#utility.yul\":1490:1578   */\n      mstore\n        /* \"#utility.yul\":1597:1601   */\n      0x32\n        /* \"#utility.yul\":1594:1595   */\n      0x04\n        /* \"#utility.yul\":1587:1602   */\n      mstore\n        /* \"#utility.yul\":1621:1625   */\n      0x24\n        /* \"#utility.yul\":1618:1619   */\n      0x00\n        /* \"#utility.yul\":1611:1626   */\n      revert\n        /* \"#utility.yul\":1638:1818   */\n    tag_87:\n        /* \"#utility.yul\":1686:1763   */\n      0x4e487b7100000000000000000000000000000000000000000000000000000000\n        /* \"#utility.yul\":1683:1684   */\n      0x00\n        /* \"#utility.yul\":1676:1764   */\n      mstore\n        /* \"#utility.yul\":1783:1787   */\n      0x11\n        /* \"#utility.yul\":1780:1781   */\n      0x04\n        /* \"#utility.yul\":1773:1788   */\n      mstore\n        /* \"#utility.yul\":1807:1811   */\n      0x24\n        /* \"#utility.yul\":1804:1805   */\n      0x00\n        /* \"#utility.yul\":1797:1812   */\n      revert\n        /* \"#utility.yul\":1824:2380   */\n    tag_49:\n        /* \"#utility.yul\":1863:1870   */\n      0x00\n        /* \"#utility.yul\":1886:1905   */\n      tag_110\n        /* \"#utility.yul\":1903:1904   */\n      dup3\n        /* \"#utility.yul\":1886:1905   */\n      tag_79\n      jump\t// in\n    tag_110:\n        /* \"#utility.yul\":1881:1905   */\n      swap2\n      pop\n        /* \"#utility.yul\":1919:1938   */\n      tag_111\n        /* \"#utility.yul\":1936:1937   */\n      dup4\n        /* \"#utility.yul\":1919:1938   */\n      tag_79\n      jump\t// in\n    tag_111:\n        /* \"#utility.yul\":1914:1938   */\n      swap3\n      pop\n        /* \"#utility.yul\":1973:1974   */\n      dup3\n        /* \"#utility.yul\":1970:1971   */\n      dup3\n        /* \"#utility.yul\":1966:1975   */\n      mul\n        /* \"#utility.yul\":1995:2024   */\n      tag_112\n        /* \"#utility.yul\":2012:2023   */\n      dup2\n        /* \"#utility.yul\":1995:2024   */\n      tag_79\n      jump\t// in\n    tag_112:\n        /* \"#utility.yul\":1984:2024   */\n      swap2\n      pop\n        /* \"#utility.yul\":2082:2148   */\n      0x8000000000000000000000000000000000000000000000000000000000000000\n        /* \"#utility.yul\":2079:2080   */\n      dup5\n        /* \"#utility.yul\":2076:2149   */\n      eq\n        /* \"#utility.yul\":2072:2073   */\n      0x00\n        /* \"#utility.yul\":2069:2070   */\n      dup5\n        /* \"#utility.yul\":2065:2074   */\n      slt\n        /* \"#utility.yul\":2061:2150   */\n      and\n        /* \"#utility.yul\":2058:2173   */\n      iszero\n      tag_113\n      jumpi\n        /* \"#utility.yul\":2153:2171   */\n      tag_114\n      tag_87\n      jump\t// in\n    tag_114:\n        /* \"#utility.yul\":2058:2173   */\n    tag_113:\n        /* \"#utility.yul\":2323:2324   */\n      dup3\n        /* \"#utility.yul\":2314:2321   */\n      dup3\n        /* \"#utility.yul\":2309:2325   */\n      sdiv\n        /* \"#utility.yul\":2306:2307   */\n      dup5\n        /* \"#utility.yul\":2303:2326   */\n      eq\n        /* \"#utility.yul\":2283:2284   */\n      dup4\n        /* \"#utility.yul\":2276:2285   */\n      iszero\n        /* \"#utility.yul\":2256:2340   */\n      or\n        /* \"#utility.yul\":2233:2373   */\n      tag_115\n      jumpi\n        /* \"#utility.yul\":2353:2371   */\n      tag_116\n      tag_87\n      jump\t// in\n    tag_116:\n        /* \"#utility.yul\":2233:2373   */\n    tag_115:\n        /* \"#utility.yul\":1871:2380   */\n      pop\n        /* \"#utility.yul\":1824:2380   */\n      swap3\n      swap2\n      pop\n      pop\n      jump\t// out\n        /* \"#utility.yul\":2386:2761   */\n    tag_57:\n        /* \"#utility.yul\":2425:2428   */\n      0x00\n        /* \"#utility.yul\":2444:2463   */\n      tag_118\n        /* \"#utility.yul\":2461:2462   */\n      dup3\n        /* \"#utility.yul\":2444:2463   */\n      tag_79\n      jump\t// in\n    tag_118:\n        /* \"#utility.yul\":2439:2463   */\n      swap2\n      pop\n        /* \"#utility.yul\":2477:2496   */\n      tag_119\n        /* \"#utility.yul\":2494:2495   */\n      dup4\n        /* \"#utility.yul\":2477:2496   */\n      tag_79\n      jump\t// in\n    tag_119:\n        /* \"#utility.yul\":2472:2496   */\n      swap3\n      pop\n        /* \"#utility.yul\":2519:2520   */\n      dup3\n        /* \"#utility.yul\":2516:2517   */\n      dup3\n        /* \"#utility.yul\":2512:2521   */\n      add\n        /* \"#utility.yul\":2505:2521   */\n      swap1\n      pop\n        /* \"#utility.yul\":2717:2718   */\n      dup3\n        /* \"#utility.yul\":2712:2715   */\n      dup2\n        /* \"#utility.yul\":2708:2719   */\n      slt\n        /* \"#utility.yul\":2701:2720   */\n      iszero\n        /* \"#utility.yul\":2697:2698   */\n      0x00\n        /* \"#utility.yul\":2694:2695   */\n      dup4\n        /* \"#utility.yul\":2690:2699   */\n      slt\n        /* \"#utility.yul\":2686:2721   */\n      and\n        /* \"#utility.yul\":2669:2670   */\n      dup4\n        /* \"#utility.yul\":2664:2667   */\n      dup3\n        /* \"#utility.yul\":2660:2671   */\n      slt\n        /* \"#utility.yul\":2655:2656   */\n      0x00\n        /* \"#utility.yul\":2652:2653   */\n      dup5\n        /* \"#utility.yul\":2648:2657   */\n      slt\n        /* \"#utility.yul\":2641:2658   */\n      iszero\n        /* \"#utility.yul\":2637:2672   */\n      and\n        /* \"#utility.yul\":2621:2731   */\n      or\n        /* \"#utility.yul\":2618:2754   */\n      iszero\n      tag_120\n      jumpi\n        /* \"#utility.yul\":2734:2752   */\n      tag_121\n      tag_87\n      jump\t// in\n    tag_121:\n        /* \"#utility.yul\":2618:2754   */\n    tag_120:\n        /* \"#utility.yul\":2386:2761   */\n      swap3\n      swap2\n      pop\n      pop\n      jump\t// out\n\n    auxdata: 0xa26469706673582212201c39f0ce715f8fa40d3bcce46c0697ef6af0ab95c97c588b9423b1caf38ec6cd64736f6c634300081a0033\n}\n",
				"bytecode": {
					"linkReferences": {},
					"object": "608060405234801561000f575f80fd5b506040516107bb3803806107bb83398181016040528101906100319190610187565b6100408161005b60201b60201c565b5f90805190602001906100549291906100ea565b505061020c565b60605f8267ffffffffffffffff811115610078576100776101b2565b5b6040519080825280602002602001820160405280156100a65781602001602082028036833780820191505090505b5090505f5b838110156100e057808282815181106100c7576100c66101df565b5b60200260200101818152505080806001019150506100ab565b5080915050919050565b828054828255905f5260205f20908101928215610124579160200282015b82811115610123578251825591602001919060010190610108565b5b5090506101319190610135565b5090565b5b8082111561014c575f815f905550600101610136565b5090565b5f80fd5b5f819050919050565b61016681610154565b8114610170575f80fd5b50565b5f815190506101818161015d565b92915050565b5f6020828403121561019c5761019b610150565b5b5f6101a984828501610173565b91505092915050565b7f4e487b71000000000000000000000000000000000000000000000000000000005f52604160045260245ffd5b7f4e487b71000000000000000000000000000000000000000000000000000000005f52603260045260245ffd5b6105a2806102195f395ff3fe608060405234801561000f575f80fd5b506004361061004a575f3560e01c80634ba200501461004e578063569c5f6d1461006c578063c87dccd81461008a578063f0ba844014610094575b5f80fd5b6100566100c4565b60405161006391906103e0565b60405180910390f35b610074610120565b60405161008191906103e0565b60405180910390f35b61009261017c565b005b6100ae60048036038101906100a99190610430565b6101f5565b6040516100bb91906103e0565b60405180910390f35b5f61011b5f80548060200260200160405190810160405280929190818152602001828054801561011157602002820191905f5260205f20905b8154815260200190600101908083116100fd575b5050505050610214565b905090565b5f6101775f80548060200260200160405190810160405280929190818152602001828054801561016d57602002820191905f5260205f20905b815481526020019060010190808311610159575b5050505050610264565b905090565b6101de6102b35f8054806020026020016040519081016040528092919081815260200182805480156101cb57602002820191905f5260205f20905b8154815260200190600101908083116101b7575b50505050506102c490919063ffffffff16565b5f90805190602001906101f2929190610362565b50565b5f8181548110610203575f80fd5b905f5260205f20015f915090505481565b5f80600190505f5b835181101561025a578381815181106102385761023761045b565b5b60200260200101518261024b91906104b5565b9150808060010191505061021c565b5080915050919050565b5f805f90505f5b83518110156102a9578381815181106102875761028661045b565b5b60200260200101518261029a919061052b565b9150808060010191505061026b565b5080915050919050565b5f6102bd8261032e565b9050919050565b60605f5b8351811015610324576102f88482815181106102e7576102e661045b565b5b60200260200101518463ffffffff16565b84828151811061030b5761030a61045b565b5b60200260200101818152505080806001019150506102c8565b5082905092915050565b5f7fffffffffffffffffffffffffffffffffffffffffffffffffffffffffffffffff8261035b91906104b5565b9050919050565b828054828255905f5260205f2090810192821561039c579160200282015b8281111561039b578251825591602001919060010190610380565b5b5090506103a991906103ad565b5090565b5b808211156103c4575f815f9055506001016103ae565b5090565b5f819050919050565b6103da816103c8565b82525050565b5f6020820190506103f35f8301846103d1565b92915050565b5f80fd5b5f819050919050565b61040f816103fd565b8114610419575f80fd5b50565b5f8135905061042a81610406565b92915050565b5f60208284031215610445576104446103f9565b5b5f6104528482850161041c565b91505092915050565b7f4e487b71000000000000000000000000000000000000000000000000000000005f52603260045260245ffd5b7f4e487b71000000000000000000000000000000000000000000000000000000005f52601160045260245ffd5b5f6104bf826103c8565b91506104ca836103c8565b92508282026104d8816103c8565b91507f800000000000000000000000000000000000000000000000000000000000000084145f8412161561050f5761050e610488565b5b828205841483151761052457610523610488565b5b5092915050565b5f610535826103c8565b9150610540836103c8565b92508282019050828112155f8312168382125f84121516171561056657610565610488565b5b9291505056fea26469706673582212201c39f0ce715f8fa40d3bcce46c0697ef6af0ab95c97c588b9423b1caf38ec6cd64736f6c634300081a0033",
					"opcodes": "PUSH1 0x80 PUSH1 0x40 MSTORE CALLVALUE DUP1 ISZERO PUSH2 0xF JUMPI PUSH0 DUP1 REVERT JUMPDEST POP PUSH1 0x40 MLOAD PUSH2 0x7BB CODESIZE SUB DUP1 PUSH2 0x7BB DUP4 CODECOPY DUP2 DUP2 ADD PUSH1 0x40 MSTORE DUP2 ADD SWAP1 PUSH2 0x31 SWAP2 SWAP1 PUSH2 0x187 JUMP JUMPDEST PUSH2 0x40 DUP2 PUSH2 0x5B PUSH1 0x20 SHL PUSH1 0x20 SHR JUMP JUMPDEST PUSH0 SWAP1 DUP1 MLOAD SWAP1 PUSH1 0x20 ADD SWAP1 PUSH2 0x54 SWAP3 SWAP2 SWAP1 PUSH2 0xEA JUMP JUMPDEST POP POP PUSH2 0x20C JUMP JUMPDEST PUSH1 0x60 PUSH0 DUP3 PUSH8 0xFFFFFFFFFFFFFFFF DUP2 GT ISZERO PUSH2 0x78 JUMPI PUSH2 0x77 PUSH2 0x1B2 JUMP JUMPDEST JUMPDEST PUSH1 0x40 MLOAD SWAP1 DUP1 DUP3 MSTORE DUP1 PUSH1 0x20 MUL PUSH1 0x20 ADD DUP3 ADD PUSH1 0x40 MSTORE DUP1 ISZERO PUSH2 0xA6 JUMPI DUP2 PUSH1 0x20 ADD PUSH1 0x20 DUP3 MUL DUP1 CALLDATASIZE DUP4 CALLDATACOPY DUP1 DUP3 ADD SWAP2 POP POP SWAP1 POP JUMPDEST POP SWAP1 POP PUSH0 JUMPDEST DUP4 DUP2 LT ISZERO PUSH2 0xE0 JUMPI DUP1 DUP3 DUP3 DUP2 MLOAD DUP2 LT PUSH2 0xC7 JUMPI PUSH2 0xC6 PUSH2 0x1DF JUMP JUMPDEST JUMPDEST PUSH1 0x20 MUL PUSH1 0x20 ADD ADD DUP2 DUP2 MSTORE POP POP DUP1 DUP1 PUSH1 0x1 ADD SWAP2 POP POP PUSH2 0xAB JUMP JUMPDEST POP DUP1 SWAP2 POP POP SWAP2 SWAP1 POP JUMP JUMPDEST DUP3 DUP1 SLOAD DUP3 DUP3 SSTORE SWAP1 PUSH0 MSTORE PUSH1 0x20 PUSH0 KECCAK256 SWAP1 DUP2 ADD SWAP3 DUP3 ISZERO PUSH2 0x124 JUMPI SWAP2 PUSH1 0x20 MUL DUP3 ADD JUMPDEST DUP3 DUP2 GT ISZERO PUSH2 0x123 JUMPI DUP3 MLOAD DUP3 SSTORE SWAP2 PUSH1 0x20 ADD SWAP2 SWAP1 PUSH1 0x1 ADD SWAP1 PUSH2 0x108 JUMP JUMPDEST JUMPDEST POP SWAP1 POP PUSH2 0x131 SWAP2 SWAP1 PUSH2 0x135 JUMP JUMPDEST POP SWAP1 JUMP JUMPDEST JUMPDEST DUP1 DUP3 GT ISZERO PUSH2 0x14C JUMPI PUSH0 DUP2 PUSH0 SWAP1 SSTORE POP PUSH1 0x1 ADD PUSH2 0x136 JUMP JUMPDEST POP SWAP1 JUMP JUMPDEST PUSH0 DUP1 REVERT JUMPDEST PUSH0 DUP2 SWAP1 POP SWAP2 SWAP1 POP JUMP JUMPDEST PUSH2 0x166 DUP2 PUSH2 0x154 JUMP JUMPDEST DUP2 EQ PUSH2 0x170 JUMPI PUSH0 DUP1 REVERT JUMPDEST POP JUMP JUMPDEST PUSH0 DUP2 MLOAD SWAP1 POP PUSH2 0x181 DUP2 PUSH2 0x15D JUMP JUMPDEST SWAP3 SWAP2 POP POP JUMP JUMPDEST PUSH0 PUSH1 0x20 DUP3 DUP5 SUB SLT ISZERO PUSH2 0x19C JUMPI PUSH2 0x19B PUSH2 0x150 JUMP JUMPDEST JUMPDEST PUSH0 PUSH2 0x1A9 DUP5 DUP3 DUP6 ADD PUSH2 0x173 JUMP JUMPDEST SWAP2 POP POP SWAP3 SWAP2 POP POP JUMP JUMPDEST PUSH32 0x4E487B7100000000000000000000000000000000000000000000000000000000 PUSH0 MSTORE PUSH1 0x41 PUSH1 0x4 MSTORE PUSH1 0x24 PUSH0 REVERT JUMPDEST PUSH32 0x4E487B7100000000000000000000000000000000000000000000000000000000 PUSH0 MSTORE PUSH1 0x32 PUSH1 0x4 MSTORE PUSH1 0x24 PUSH0 REVERT JUMPDEST PUSH2 0x5A2 DUP1 PUSH2 0x219 PUSH0 CODECOPY PUSH0 RETURN INVALID PUSH1 0x80 PUSH1 0x40 MSTORE CALLVALUE DUP1 ISZERO PUSH2 0xF JUMPI PUSH0 DUP1 REVERT JUMPDEST POP PUSH1 0x4 CALLDATASIZE LT PUSH2 0x4A JUMPI PUSH0 CALLDATALOAD PUSH1 0xE0 SHR DUP1 PUSH4 0x4BA20050 EQ PUSH2 0x4E JUMPI DUP1 PUSH4 0x569C5F6D EQ PUSH2 0x6C JUMPI DUP1 PUSH4 0xC87DCCD8 EQ PUSH2 0x8A JUMPI DUP1 PUSH4 0xF0BA8440 EQ PUSH2 0x94 JUMPI JUMPDEST PUSH0 DUP1 REVERT JUMPDEST PUSH2 0x56 PUSH2 0xC4 JUMP JUMPDEST PUSH1 0x40 MLOAD PUSH2 0x63 SWAP2 SWAP1 PUSH2 0x3E0 JUMP JUMPDEST PUSH1 0x40 MLOAD DUP1 SWAP2 SUB SWAP1 RETURN JUMPDEST PUSH2 0x74 PUSH2 0x120 JUMP JUMPDEST PUSH1 0x40 MLOAD PUSH2 0x81 SWAP2 SWAP1 PUSH2 0x3E0 JUMP JUMPDEST PUSH1 0x40 MLOAD DUP1 SWAP2 SUB SWAP1 RETURN JUMPDEST PUSH2 0x92 PUSH2 0x17C JUMP JUMPDEST STOP JUMPDEST PUSH2 0xAE PUSH1 0x4 DUP1 CALLDATASIZE SUB DUP2 ADD SWAP1 PUSH2 0xA9 SWAP2 SWAP1 PUSH2 0x430 JUMP JUMPDEST PUSH2 0x1F5 JUMP JUMPDEST PUSH1 0x40 MLOAD PUSH2 0xBB SWAP2 SWAP1 PUSH2 0x3E0 JUMP JUMPDEST PUSH1 0x40 MLOAD DUP1 SWAP2 SUB SWAP1 RETURN JUMPDEST PUSH0 PUSH2 0x11B PUSH0 DUP1 SLOAD DUP1 PUSH1 0x20 MUL PUSH1 0x20 ADD PUSH1 0x40 MLOAD SWAP1 DUP2 ADD PUSH1 0x40 MSTORE DUP1 SWAP3 SWAP2 SWAP1 DUP2 DUP2 MSTORE PUSH1 0x20 ADD DUP3 DUP1 SLOAD DUP1 ISZERO PUSH2 0x111 JUMPI PUSH1 0x20 MUL DUP3 ADD SWAP2 SWAP1 PUSH0 MSTORE PUSH1 0x20 PUSH0 KECCAK256 SWAP1 JUMPDEST DUP2 SLOAD DUP2 MSTORE PUSH1 0x20 ADD SWAP1 PUSH1 0x1 ADD SWAP1 DUP1 DUP4 GT PUSH2 0xFD JUMPI JUMPDEST POP POP POP POP POP PUSH2 0x214 JUMP JUMPDEST SWAP1 POP SWAP1 JUMP JUMPDEST PUSH0 PUSH2 0x177 PUSH0 DUP1 SLOAD DUP1 PUSH1 0x20 MUL PUSH1 0x20 ADD PUSH1 0x40 MLOAD SWAP1 DUP2 ADD PUSH1 0x40 MSTORE DUP1 SWAP3 SWAP2 SWAP1 DUP2 DUP2 MSTORE PUSH1 0x20 ADD DUP3 DUP1 SLOAD DUP1 ISZERO PUSH2 0x16D JUMPI PUSH1 0x20 MUL DUP3 ADD SWAP2 SWAP1 PUSH0 MSTORE PUSH1 0x20 PUSH0 KECCAK256 SWAP1 JUMPDEST DUP2 SLOAD DUP2 MSTORE PUSH1 0x20 ADD SWAP1 PUSH1 0x1 ADD SWAP1 DUP1 DUP4 GT PUSH2 0x159 JUMPI JUMPDEST POP POP POP POP POP PUSH2 0x264 JUMP JUMPDEST SWAP1 POP SWAP1 JUMP JUMPDEST PUSH2 0x1DE PUSH2 0x2B3 PUSH0 DUP1 SLOAD DUP1 PUSH1 0x20 MUL PUSH1 0x20 ADD PUSH1 0x40 MLOAD SWAP1 DUP2 ADD PUSH1 0x40 MSTORE DUP1 SWAP3 SWAP2 SWAP1 DUP2 DUP2 MSTORE PUSH1 0x20 ADD DUP3 DUP1 SLOAD DUP1 ISZERO PUSH2 0x1CB JUMPI PUSH1 0x20 MUL DUP3 ADD SWAP2 SWAP1 PUSH0 MSTORE PUSH1 0x20 PUSH0 KECCAK256 SWAP1 JUMPDEST DUP2 SLOAD DUP2 MSTORE PUSH1 0x20 ADD SWAP1 PUSH1 0x1 ADD SWAP1 DUP1 DUP4 GT PUSH2 0x1B7 JUMPI JUMPDEST POP POP POP POP POP PUSH2 0x2C4 SWAP1 SWAP2 SWAP1 PUSH4 0xFFFFFFFF AND JUMP JUMPDEST PUSH0 SWAP1 DUP1 MLOAD SWAP1 PUSH1 0x20 ADD SWAP1 PUSH2 0x1F2 SWAP3 SWAP2 SWAP1 PUSH2 0x362 JUMP JUMPDEST POP JUMP JUMPDEST PUSH0 DUP2 DUP2 SLOAD DUP2 LT PUSH2 0x203 JUMPI PUSH0 DUP1 REVERT JUMPDEST SWAP1 PUSH0 MSTORE PUSH1 0x20 PUSH0 KECCAK256 ADD PUSH0 SWAP2 POP SWAP1 POP SLOAD DUP2 JUMP JUMPDEST PUSH0 DUP1 PUSH1 0x1 SWAP1 POP PUSH0 JUMPDEST DUP4 MLOAD DUP2 LT ISZERO PUSH2 0x25A JUMPI DUP4 DUP2 DUP2 MLOAD DUP2 LT PUSH2 0x238 JUMPI PUSH2 0x237 PUSH2 0x45B JUMP JUMPDEST JUMPDEST PUSH1 0x20 MUL PUSH1 0x20 ADD ADD MLOAD DUP3 PUSH2 0x24B SWAP2 SWAP1 PUSH2 0x4B5 JUMP JUMPDEST SWAP2 POP DUP1 DUP1 PUSH1 0x1 ADD SWAP2 POP POP PUSH2 0x21C JUMP JUMPDEST POP DUP1 SWAP2 POP POP SWAP2 SWAP1 POP JUMP JUMPDEST PUSH0 DUP1 PUSH0 SWAP1 POP PUSH0 JUMPDEST DUP4 MLOAD DUP2 LT ISZERO PUSH2 0x2A9 JUMPI DUP4 DUP2 DUP2 MLOAD DUP2 LT PUSH2 0x287 JUMPI PUSH2 0x286 PUSH2 0x45B JUMP JUMPDEST JUMPDEST PUSH1 0x20 MUL PUSH1 0x20 ADD ADD MLOAD DUP3 PUSH2 0x29A SWAP2 SWAP1 PUSH2 0x52B JUMP JUMPDEST SWAP2 POP DUP1 DUP1 PUSH1 0x1 ADD SWAP2 POP POP PUSH2 0x26B JUMP JUMPDEST POP DUP1 SWAP2 POP POP SWAP2 SWAP1 POP JUMP JUMPDEST PUSH0 PUSH2 0x2BD DUP3 PUSH2 0x32E JUMP JUMPDEST SWAP1 POP SWAP2 SWAP1 POP JUMP JUMPDEST PUSH1 0x60 PUSH0 JUMPDEST DUP4 MLOAD DUP2 LT ISZERO PUSH2 0x324 JUMPI PUSH2 0x2F8 DUP5 DUP3 DUP2 MLOAD DUP2 LT PUSH2 0x2E7 JUMPI PUSH2 0x2E6 PUSH2 0x45B JUMP JUMPDEST JUMPDEST PUSH1 0x20 MUL PUSH1 0x20 ADD ADD MLOAD DUP5 PUSH4 0xFFFFFFFF AND JUMP JUMPDEST DUP5 DUP3 DUP2 MLOAD DUP2 LT PUSH2 0x30B JUMPI PUSH2 0x30A PUSH2 0x45B JUMP JUMPDEST JUMPDEST PUSH1 0x20 MUL PUSH1 0x20 ADD ADD DUP2 DUP2 MSTORE POP POP DUP1 DUP1 PUSH1 0x1 ADD SWAP2 POP POP PUSH2 0x2C8 JUMP JUMPDEST POP DUP3 SWAP1 POP SWAP3 SWAP2 POP POP JUMP JUMPDEST PUSH0 PUSH32 0xFFFFFFFFFFFFFFFFFFFFFFFFFFFFFFFFFFFFFFFFFFFFFFFFFFFFFFFFFFFFFFFF DUP3 PUSH2 0x35B SWAP2 SWAP1 PUSH2 0x4B5 JUMP JUMPDEST SWAP1 POP SWAP2 SWAP1 POP JUMP JUMPDEST DUP3 DUP1 SLOAD DUP3 DUP3 SSTORE SWAP1 PUSH0 MSTORE PUSH1 0x20 PUSH0 KECCAK256 SWAP1 DUP2 ADD SWAP3 DUP3 ISZERO PUSH2 0x39C JUMPI SWAP2 PUSH1 0x20 MUL DUP3 ADD JUMPDEST DUP3 DUP2 GT ISZERO PUSH2 0x39B JUMPI DUP3 MLOAD DUP3 SSTORE SWAP2 PUSH1 0x20 ADD SWAP2 SWAP1 PUSH1 0x1 ADD SWAP1 PUSH2 0x380 JUMP JUMPDEST JUMPDEST POP SWAP1 POP PUSH2 0x3A9 SWAP2 SWAP1 PUSH2 0x3AD JUMP JUMPDEST POP SWAP1 JUMP JUMPDEST JUMPDEST DUP1 DUP3 GT ISZERO PUSH2 0x3C4 JUMPI PUSH0 DUP2 PUSH0 SWAP1 SSTORE POP PUSH1 0x1 ADD PUSH2 0x3AE JUMP JUMPDEST POP SWAP1 JUMP JUMPDEST PUSH0 DUP2 SWAP1 POP SWAP2 SWAP1 POP JUMP JUMPDEST PUSH2 0x3DA DUP2 PUSH2 0x3C8 JUMP JUMPDEST DUP3 MSTORE POP POP JUMP JUMPDEST PUSH0 PUSH1 0x20 DUP3 ADD SWAP1 POP PUSH2 0x3F3 PUSH0 DUP4 ADD DUP5 PUSH2 0x3D1 JUMP JUMPDEST SWAP3 SWAP2 POP POP JUMP JUMPDEST PUSH0 DUP1 REVERT JUMPDEST PUSH0 DUP2 SWAP1 POP SWAP2 SWAP1 POP JUMP JUMPDEST PUSH2 0x40F DUP2 PUSH2 0x3FD JUMP JUMPDEST DUP2 EQ PUSH2 0x419 JUMPI PUSH0 DUP1 REVERT JUMPDEST POP JUMP JUMPDEST PUSH0 DUP2 CALLDATALOAD SWAP1 POP PUSH2 0x42A DUP2 PUSH2 0x406 JUMP JUMPDEST SWAP3 SWAP2 POP POP JUMP JUMPDEST PUSH0 PUSH1 0x20 DUP3 DUP5 SUB SLT ISZERO PUSH2 0x445 JUMPI PUSH2 0x444 PUSH2 0x3F9 JUMP JUMPDEST JUMPDEST PUSH0 PUSH2 0x452 DUP5 DUP3 DUP6 ADD PUSH2 0x41C JUMP JUMPDEST SWAP2 POP POP SWAP3 SWAP2 POP POP JUMP JUMPDEST PUSH32 0x4E487B7100000000000000000000000000000000000000000000000000000000 PUSH0 MSTORE PUSH1 0x32 PUSH1 0x4 MSTORE PUSH1 0x24 PUSH0 REVERT JUMPDEST PUSH32 0x4E487B7100000000000000000000000000000000000000000000000000000000 PUSH0 MSTORE PUSH1 0x11 PUSH1 0x4 MSTORE PUSH1 0x24 PUSH0 REVERT JUMPDEST PUSH0 PUSH2 0x4BF DUP3 PUSH2 0x3C8 JUMP JUMPDEST SWAP2 POP PUSH2 0x4CA DUP4 PUSH2 0x3C8 JUMP JUMPDEST SWAP3 POP DUP3 DUP3 MUL PUSH2 0x4D8 DUP2 PUSH2 0x3C8 JUMP JUMPDEST SWAP2 POP PUSH32 0x8000000000000000000000000000000000000000000000000000000000000000 DUP5 EQ PUSH0 DUP5 SLT AND ISZERO PUSH2 0x50F JUMPI PUSH2 0x50E PUSH2 0x488 JUMP JUMPDEST JUMPDEST DUP3 DUP3 SDIV DUP5 EQ DUP4 ISZERO OR PUSH2 0x524 JUMPI PUSH2 0x523 PUSH2 0x488 JUMP JUMPDEST JUMPDEST POP SWAP3 SWAP2 POP POP JUMP JUMPDEST PUSH0 PUSH2 0x535 DUP3 PUSH2 0x3C8 JUMP JUMPDEST SWAP2 POP PUSH2 0x540 DUP4 PUSH2 0x3C8 JUMP JUMPDEST SWAP3 POP DUP3 DUP3 ADD SWAP1 POP DUP3 DUP2 SLT ISZERO PUSH0 DUP4 SLT AND DUP4 DUP3 SLT PUSH0 DUP5 SLT ISZERO AND OR ISZERO PUSH2 0x566 JUMPI PUSH2 0x565 PUSH2 0x488 JUMP JUMPDEST JUMPDEST SWAP3 SWAP2 POP POP JUMP INVALID LOG2 PUSH5 0x6970667358 0x22 SLT KECCAK256 SHR CODECOPY CREATE 0xCE PUSH18 0x5F8FA40D3BCCE46C0697EF6AF0AB95C97C58 DUP12 SWAP5 0x23 0xB1 0xCA RETURN DUP15 0xC6 0xCD PUSH5 0x736F6C6343 STOP ADDMOD BYTE STOP CALLER "
				},
				"gasEstimates": {
					"creation": {
						"codeDepositCost": "288400",
						"executionCost": "infinite",
						"totalCost": "infinite"
					},
					"external": {
						"applyMap()": "infinite",
						"data(uint256)": "4914",
						"getProduct()": "infinite",
						"getSum()": "infinite"
					},
					"internal": {
						"reverse(int256)": "infinite"
					}
				},
				"methodIdentifiers": {
					"applyMap()": "c87dccd8",
					"data(uint256)": "f0ba8440",
					"getProduct()": "4ba20050",
					"getSum()": "569c5f6d"
				}
			},
			"storageLayout": {
				"storage": [
					{
						"astId": 201,
						"contract": "week7task12.sol:ArrayOperations",
						"label": "data",
						"offset": 0,
						"slot": "0",
						"type": "t_array(t_int256)dyn_storage"
					}
				],
				"types": {
					"t_array(t_int256)dyn_storage": {
						"base": "t_int256",
						"encoding": "dynamic_array",
						"label": "int256[]",
						"numberOfBytes": "32"
					},
					"t_int256": {
						"encoding": "inplace",
						"label": "int256",
						"numberOfBytes": "32"
					}
				}
			},
			"userdoc": {
				"kind": "user",
				"methods": {},
				"version": 1
			}
		}
	}
}