{
	"example13_5task.sol": {
		"Wallet": {
			"abi": [
				{
					"inputs": [
						{
							"internalType": "address",
							"name": "newOwner",
							"type": "address"
						}
					],
					"name": "changeOwner",
					"outputs": [],
					"stateMutability": "nonpayable",
					"type": "function"
				},
				{
					"inputs": [],
					"name": "getContractBalance",
					"outputs": [
						{
							"internalType": "uint256",
							"name": "",
							"type": "uint256"
						}
					],
					"stateMutability": "view",
					"type": "function"
				},
				{
					"inputs": [],
					"name": "owner",
					"outputs": [
						{
							"internalType": "address",
							"name": "",
							"type": "address"
						}
					],
					"stateMutability": "view",
					"type": "function"
				},
				{
					"inputs": [],
					"name": "setOwner",
					"outputs": [
						{
							"internalType": "bool",
							"name": "",
							"type": "bool"
						}
					],
					"stateMutability": "nonpayable",
					"type": "function"
				},
				{
					"inputs": [
						{
							"internalType": "address payable",
							"name": "_adr",
							"type": "address"
						},
						{
							"internalType": "uint256",
							"name": "value",
							"type": "uint256"
						}
					],
					"name": "transferEthToAddress",
					"outputs": [],
					"stateMutability": "nonpayable",
					"type": "function"
				},
				{
					"stateMutability": "payable",
					"type": "receive"
				}
			],
			"devdoc": {
				"kind": "dev",
				"methods": {},
				"version": 1
			},
			"evm": {
				"assembly": "    /* \"example13_5task.sol\":60:967  contract Wallet {... */\n  mstore(0x40, 0x80)\n  callvalue\n  dup1\n  iszero\n  tag_1\n  jumpi\n  0x00\n  dup1\n  revert\ntag_1:\n  pop\n  dataSize(sub_0)\n  dup1\n  dataOffset(sub_0)\n  0x00\n  codecopy\n  0x00\n  return\nstop\n\nsub_0: assembly {\n        /* \"example13_5task.sol\":60:967  contract Wallet {... */\n      mstore(0x40, 0x80)\n      jumpi(tag_1, lt(calldatasize, 0x04))\n      shr(0xe0, calldataload(0x00))\n      dup1\n      0x40caae06\n      eq\n      tag_3\n      jumpi\n      dup1\n      0x6f9fb98a\n      eq\n      tag_4\n      jumpi\n      dup1\n      0x8da5cb5b\n      eq\n      tag_5\n      jumpi\n      dup1\n      0x94a208c0\n      eq\n      tag_6\n      jumpi\n      dup1\n      0xa6f9dae1\n      eq\n      tag_7\n      jumpi\n      jump(tag_2)\n    tag_1:\n      jumpi(tag_2, calldatasize)\n      stop\n    tag_2:\n      0x00\n      dup1\n      revert\n        /* \"example13_5task.sol\":232:409  function setOwner() public returns(bool) {... */\n    tag_3:\n      callvalue\n      dup1\n      iszero\n      tag_10\n      jumpi\n      0x00\n      dup1\n      revert\n    tag_10:\n      pop\n      tag_11\n      tag_12\n      jump\t// in\n    tag_11:\n      mload(0x40)\n      tag_13\n      swap2\n      swap1\n      tag_14\n      jump\t// in\n    tag_13:\n      mload(0x40)\n      dup1\n      swap2\n      sub\n      swap1\n      return\n        /* \"example13_5task.sol\":450:556  function getContractBalance() public view returns(uint256) {... */\n    tag_4:\n      callvalue\n      dup1\n      iszero\n      tag_15\n      jumpi\n      0x00\n      dup1\n      revert\n    tag_15:\n      pop\n      tag_16\n      tag_17\n      jump\t// in\n    tag_16:\n      mload(0x40)\n      tag_18\n      swap2\n      swap1\n      tag_19\n      jump\t// in\n    tag_18:\n      mload(0x40)\n      dup1\n      swap2\n      sub\n      swap1\n      return\n        /* \"example13_5task.sol\":83:103  address public owner */\n    tag_5:\n      callvalue\n      dup1\n      iszero\n      tag_20\n      jumpi\n      0x00\n      dup1\n      revert\n    tag_20:\n      pop\n      tag_21\n      tag_22\n      jump\t// in\n    tag_21:\n      mload(0x40)\n      tag_23\n      swap2\n      swap1\n      tag_24\n      jump\t// in\n    tag_23:\n      mload(0x40)\n      dup1\n      swap2\n      sub\n      swap1\n      return\n        /* \"example13_5task.sol\":601:774  function transferEthToAddress(address payable _adr, uint256 value) public {... */\n    tag_6:\n      callvalue\n      dup1\n      iszero\n      tag_25\n      jumpi\n      0x00\n      dup1\n      revert\n    tag_25:\n      pop\n      tag_26\n      0x04\n      dup1\n      calldatasize\n      sub\n      dup2\n      add\n      swap1\n      tag_27\n      swap2\n      swap1\n      tag_28\n      jump\t// in\n    tag_27:\n      tag_29\n      jump\t// in\n    tag_26:\n      stop\n        /* \"example13_5task.sol\":823:964  function changeOwner(address newOwner) public {... */\n    tag_7:\n      callvalue\n      dup1\n      iszero\n      tag_30\n      jumpi\n      0x00\n      dup1\n      revert\n    tag_30:\n      pop\n      tag_31\n      0x04\n      dup1\n      calldatasize\n      sub\n      dup2\n      add\n      swap1\n      tag_32\n      swap2\n      swap1\n      tag_33\n      jump\t// in\n    tag_32:\n      tag_34\n      jump\t// in\n    tag_31:\n      stop\n        /* \"example13_5task.sol\":232:409  function setOwner() public returns(bool) {... */\n    tag_12:\n        /* \"example13_5task.sol\":267:271  bool */\n      0x00\n        /* \"example13_5task.sol\":304:305  0 */\n      dup1\n        /* \"example13_5task.sol\":287:306  owner == address(0) */\n      0xffffffffffffffffffffffffffffffffffffffff\n      and\n        /* \"example13_5task.sol\":287:292  owner */\n      0x00\n      dup1\n      sload\n      swap1\n      0x0100\n      exp\n      swap1\n      div\n      0xffffffffffffffffffffffffffffffffffffffff\n      and\n        /* \"example13_5task.sol\":287:306  owner == address(0) */\n      0xffffffffffffffffffffffffffffffffffffffff\n      and\n      sub\n        /* \"example13_5task.sol\":284:379  if(owner == address(0)) {... */\n      tag_36\n      jumpi\n        /* \"example13_5task.sol\":331:341  msg.sender */\n      caller\n        /* \"example13_5task.sol\":323:328  owner */\n      0x00\n      dup1\n        /* \"example13_5task.sol\":323:341  owner = msg.sender */\n      0x0100\n      exp\n      dup2\n      sload\n      dup2\n      0xffffffffffffffffffffffffffffffffffffffff\n      mul\n      not\n      and\n      swap1\n      dup4\n      0xffffffffffffffffffffffffffffffffffffffff\n      and\n      mul\n      or\n      swap1\n      sstore\n      pop\n        /* \"example13_5task.sol\":363:367  true */\n      0x01\n        /* \"example13_5task.sol\":356:367  return true */\n      swap1\n      pop\n      jump(tag_35)\n        /* \"example13_5task.sol\":284:379  if(owner == address(0)) {... */\n    tag_36:\n        /* \"example13_5task.sol\":396:401  false */\n      0x00\n        /* \"example13_5task.sol\":389:401  return false */\n      swap1\n      pop\n        /* \"example13_5task.sol\":232:409  function setOwner() public returns(bool) {... */\n    tag_35:\n      swap1\n      jump\t// out\n        /* \"example13_5task.sol\":450:556  function getContractBalance() public view returns(uint256) {... */\n    tag_17:\n        /* \"example13_5task.sol\":500:507  uint256 */\n      0x00\n        /* \"example13_5task.sol\":527:548  address(this).balance */\n      selfbalance\n        /* \"example13_5task.sol\":520:548  return address(this).balance */\n      swap1\n      pop\n        /* \"example13_5task.sol\":450:556  function getContractBalance() public view returns(uint256) {... */\n      swap1\n      jump\t// out\n        /* \"example13_5task.sol\":83:103  address public owner */\n    tag_22:\n      0x00\n      dup1\n      sload\n      swap1\n      0x0100\n      exp\n      swap1\n      div\n      0xffffffffffffffffffffffffffffffffffffffff\n      and\n      dup2\n      jump\t// out\n        /* \"example13_5task.sol\":601:774  function transferEthToAddress(address payable _adr, uint256 value) public {... */\n    tag_29:\n        /* \"example13_5task.sol\":708:713  owner */\n      0x00\n      dup1\n      sload\n      swap1\n      0x0100\n      exp\n      swap1\n      div\n      0xffffffffffffffffffffffffffffffffffffffff\n      and\n        /* \"example13_5task.sol\":694:713  msg.sender == owner */\n      0xffffffffffffffffffffffffffffffffffffffff\n      and\n        /* \"example13_5task.sol\":694:704  msg.sender */\n      caller\n        /* \"example13_5task.sol\":694:713  msg.sender == owner */\n      0xffffffffffffffffffffffffffffffffffffffff\n      and\n      eq\n        /* \"example13_5task.sol\":686:735  require(msg.sender == owner, \"You are not owner\") */\n      tag_39\n      jumpi\n      mload(0x40)\n      0x08c379a000000000000000000000000000000000000000000000000000000000\n      dup2\n      mstore\n      0x04\n      add\n      tag_40\n      swap1\n      tag_41\n      jump\t// in\n    tag_40:\n      mload(0x40)\n      dup1\n      swap2\n      sub\n      swap1\n      revert\n    tag_39:\n        /* \"example13_5task.sol\":746:750  _adr */\n      dup2\n        /* \"example13_5task.sol\":746:759  _adr.transfer */\n      0xffffffffffffffffffffffffffffffffffffffff\n      and\n        /* \"example13_5task.sol\":746:766  _adr.transfer(value) */\n      0x08fc\n        /* \"example13_5task.sol\":760:765  value */\n      dup3\n        /* \"example13_5task.sol\":746:766  _adr.transfer(value) */\n      swap1\n      dup2\n      iszero\n      mul\n      swap1\n      mload(0x40)\n      0x00\n      mload(0x40)\n      dup1\n      dup4\n      sub\n      dup2\n      dup6\n      dup9\n      dup9\n      call\n      swap4\n      pop\n      pop\n      pop\n      pop\n      iszero\n      dup1\n      iszero\n      tag_43\n      jumpi\n      returndatasize\n      0x00\n      dup1\n      returndatacopy\n      revert(0x00, returndatasize)\n    tag_43:\n      pop\n        /* \"example13_5task.sol\":601:774  function transferEthToAddress(address payable _adr, uint256 value) public {... */\n      pop\n      pop\n      jump\t// out\n        /* \"example13_5task.sol\":823:964  function changeOwner(address newOwner) public {... */\n    tag_34:\n        /* \"example13_5task.sol\":902:907  owner */\n      0x00\n      dup1\n      sload\n      swap1\n      0x0100\n      exp\n      swap1\n      div\n      0xffffffffffffffffffffffffffffffffffffffff\n      and\n        /* \"example13_5task.sol\":888:907  msg.sender == owner */\n      0xffffffffffffffffffffffffffffffffffffffff\n      and\n        /* \"example13_5task.sol\":888:898  msg.sender */\n      caller\n        /* \"example13_5task.sol\":888:907  msg.sender == owner */\n      0xffffffffffffffffffffffffffffffffffffffff\n      and\n      eq\n        /* \"example13_5task.sol\":880:929  require(msg.sender == owner, \"You are not owner\") */\n      tag_45\n      jumpi\n      mload(0x40)\n      0x08c379a000000000000000000000000000000000000000000000000000000000\n      dup2\n      mstore\n      0x04\n      add\n      tag_46\n      swap1\n      tag_41\n      jump\t// in\n    tag_46:\n      mload(0x40)\n      dup1\n      swap2\n      sub\n      swap1\n      revert\n    tag_45:\n        /* \"example13_5task.sol\":948:956  newOwner */\n      dup1\n        /* \"example13_5task.sol\":940:945  owner */\n      0x00\n      dup1\n        /* \"example13_5task.sol\":940:956  owner = newOwner */\n      0x0100\n      exp\n      dup2\n      sload\n      dup2\n      0xffffffffffffffffffffffffffffffffffffffff\n      mul\n      not\n      and\n      swap1\n      dup4\n      0xffffffffffffffffffffffffffffffffffffffff\n      and\n      mul\n      or\n      swap1\n      sstore\n      pop\n        /* \"example13_5task.sol\":823:964  function changeOwner(address newOwner) public {... */\n      pop\n      jump\t// out\n        /* \"#utility.yul\":7:97   */\n    tag_47:\n        /* \"#utility.yul\":41:48   */\n      0x00\n        /* \"#utility.yul\":84:89   */\n      dup2\n        /* \"#utility.yul\":77:90   */\n      iszero\n        /* \"#utility.yul\":70:91   */\n      iszero\n        /* \"#utility.yul\":59:91   */\n      swap1\n      pop\n        /* \"#utility.yul\":7:97   */\n      swap2\n      swap1\n      pop\n      jump\t// out\n        /* \"#utility.yul\":103:212   */\n    tag_48:\n        /* \"#utility.yul\":184:205   */\n      tag_70\n        /* \"#utility.yul\":199:204   */\n      dup2\n        /* \"#utility.yul\":184:205   */\n      tag_47\n      jump\t// in\n    tag_70:\n        /* \"#utility.yul\":179:182   */\n      dup3\n        /* \"#utility.yul\":172:206   */\n      mstore\n        /* \"#utility.yul\":103:212   */\n      pop\n      pop\n      jump\t// out\n        /* \"#utility.yul\":218:428   */\n    tag_14:\n        /* \"#utility.yul\":305:309   */\n      0x00\n        /* \"#utility.yul\":343:345   */\n      0x20\n        /* \"#utility.yul\":332:341   */\n      dup3\n        /* \"#utility.yul\":328:346   */\n      add\n        /* \"#utility.yul\":320:346   */\n      swap1\n      pop\n        /* \"#utility.yul\":356:421   */\n      tag_72\n        /* \"#utility.yul\":418:419   */\n      0x00\n        /* \"#utility.yul\":407:416   */\n      dup4\n        /* \"#utility.yul\":403:420   */\n      add\n        /* \"#utility.yul\":394:400   */\n      dup5\n        /* \"#utility.yul\":356:421   */\n      tag_48\n      jump\t// in\n    tag_72:\n        /* \"#utility.yul\":218:428   */\n      swap3\n      swap2\n      pop\n      pop\n      jump\t// out\n        /* \"#utility.yul\":434:511   */\n    tag_49:\n        /* \"#utility.yul\":471:478   */\n      0x00\n        /* \"#utility.yul\":500:505   */\n      dup2\n        /* \"#utility.yul\":489:505   */\n      swap1\n      pop\n        /* \"#utility.yul\":434:511   */\n      swap2\n      swap1\n      pop\n      jump\t// out\n        /* \"#utility.yul\":517:635   */\n    tag_50:\n        /* \"#utility.yul\":604:628   */\n      tag_75\n        /* \"#utility.yul\":622:627   */\n      dup2\n        /* \"#utility.yul\":604:628   */\n      tag_49\n      jump\t// in\n    tag_75:\n        /* \"#utility.yul\":599:602   */\n      dup3\n        /* \"#utility.yul\":592:629   */\n      mstore\n        /* \"#utility.yul\":517:635   */\n      pop\n      pop\n      jump\t// out\n        /* \"#utility.yul\":641:863   */\n    tag_19:\n        /* \"#utility.yul\":734:738   */\n      0x00\n        /* \"#utility.yul\":772:774   */\n      0x20\n        /* \"#utility.yul\":761:770   */\n      dup3\n        /* \"#utility.yul\":757:775   */\n      add\n        /* \"#utility.yul\":749:775   */\n      swap1\n      pop\n        /* \"#utility.yul\":785:856   */\n      tag_77\n        /* \"#utility.yul\":853:854   */\n      0x00\n        /* \"#utility.yul\":842:851   */\n      dup4\n        /* \"#utility.yul\":838:855   */\n      add\n        /* \"#utility.yul\":829:835   */\n      dup5\n        /* \"#utility.yul\":785:856   */\n      tag_50\n      jump\t// in\n    tag_77:\n        /* \"#utility.yul\":641:863   */\n      swap3\n      swap2\n      pop\n      pop\n      jump\t// out\n        /* \"#utility.yul\":869:995   */\n    tag_51:\n        /* \"#utility.yul\":906:913   */\n      0x00\n        /* \"#utility.yul\":946:988   */\n      0xffffffffffffffffffffffffffffffffffffffff\n        /* \"#utility.yul\":939:944   */\n      dup3\n        /* \"#utility.yul\":935:989   */\n      and\n        /* \"#utility.yul\":924:989   */\n      swap1\n      pop\n        /* \"#utility.yul\":869:995   */\n      swap2\n      swap1\n      pop\n      jump\t// out\n        /* \"#utility.yul\":1001:1097   */\n    tag_52:\n        /* \"#utility.yul\":1038:1045   */\n      0x00\n        /* \"#utility.yul\":1067:1091   */\n      tag_80\n        /* \"#utility.yul\":1085:1090   */\n      dup3\n        /* \"#utility.yul\":1067:1091   */\n      tag_51\n      jump\t// in\n    tag_80:\n        /* \"#utility.yul\":1056:1091   */\n      swap1\n      pop\n        /* \"#utility.yul\":1001:1097   */\n      swap2\n      swap1\n      pop\n      jump\t// out\n        /* \"#utility.yul\":1103:1221   */\n    tag_53:\n        /* \"#utility.yul\":1190:1214   */\n      tag_82\n        /* \"#utility.yul\":1208:1213   */\n      dup2\n        /* \"#utility.yul\":1190:1214   */\n      tag_52\n      jump\t// in\n    tag_82:\n        /* \"#utility.yul\":1185:1188   */\n      dup3\n        /* \"#utility.yul\":1178:1215   */\n      mstore\n        /* \"#utility.yul\":1103:1221   */\n      pop\n      pop\n      jump\t// out\n        /* \"#utility.yul\":1227:1449   */\n    tag_24:\n        /* \"#utility.yul\":1320:1324   */\n      0x00\n        /* \"#utility.yul\":1358:1360   */\n      0x20\n        /* \"#utility.yul\":1347:1356   */\n      dup3\n        /* \"#utility.yul\":1343:1361   */\n      add\n        /* \"#utility.yul\":1335:1361   */\n      swap1\n      pop\n        /* \"#utility.yul\":1371:1442   */\n      tag_84\n        /* \"#utility.yul\":1439:1440   */\n      0x00\n        /* \"#utility.yul\":1428:1437   */\n      dup4\n        /* \"#utility.yul\":1424:1441   */\n      add\n        /* \"#utility.yul\":1415:1421   */\n      dup5\n        /* \"#utility.yul\":1371:1442   */\n      tag_53\n      jump\t// in\n    tag_84:\n        /* \"#utility.yul\":1227:1449   */\n      swap3\n      swap2\n      pop\n      pop\n      jump\t// out\n        /* \"#utility.yul\":1536:1653   */\n    tag_55:\n        /* \"#utility.yul\":1645:1646   */\n      0x00\n        /* \"#utility.yul\":1642:1643   */\n      dup1\n        /* \"#utility.yul\":1635:1647   */\n      revert\n        /* \"#utility.yul\":1782:1886   */\n    tag_57:\n        /* \"#utility.yul\":1827:1834   */\n      0x00\n        /* \"#utility.yul\":1856:1880   */\n      tag_89\n        /* \"#utility.yul\":1874:1879   */\n      dup3\n        /* \"#utility.yul\":1856:1880   */\n      tag_51\n      jump\t// in\n    tag_89:\n        /* \"#utility.yul\":1845:1880   */\n      swap1\n      pop\n        /* \"#utility.yul\":1782:1886   */\n      swap2\n      swap1\n      pop\n      jump\t// out\n        /* \"#utility.yul\":1892:2030   */\n    tag_58:\n        /* \"#utility.yul\":1973:2005   */\n      tag_91\n        /* \"#utility.yul\":1999:2004   */\n      dup2\n        /* \"#utility.yul\":1973:2005   */\n      tag_57\n      jump\t// in\n    tag_91:\n        /* \"#utility.yul\":1966:1971   */\n      dup2\n        /* \"#utility.yul\":1963:2006   */\n      eq\n        /* \"#utility.yul\":1953:2024   */\n      tag_92\n      jumpi\n        /* \"#utility.yul\":2020:2021   */\n      0x00\n        /* \"#utility.yul\":2017:2018   */\n      dup1\n        /* \"#utility.yul\":2010:2022   */\n      revert\n        /* \"#utility.yul\":1953:2024   */\n    tag_92:\n        /* \"#utility.yul\":1892:2030   */\n      pop\n      jump\t// out\n        /* \"#utility.yul\":2036:2191   */\n    tag_59:\n        /* \"#utility.yul\":2090:2095   */\n      0x00\n        /* \"#utility.yul\":2128:2134   */\n      dup2\n        /* \"#utility.yul\":2115:2135   */\n      calldataload\n        /* \"#utility.yul\":2106:2135   */\n      swap1\n      pop\n        /* \"#utility.yul\":2144:2185   */\n      tag_94\n        /* \"#utility.yul\":2179:2184   */\n      dup2\n        /* \"#utility.yul\":2144:2185   */\n      tag_58\n      jump\t// in\n    tag_94:\n        /* \"#utility.yul\":2036:2191   */\n      swap3\n      swap2\n      pop\n      pop\n      jump\t// out\n        /* \"#utility.yul\":2197:2319   */\n    tag_60:\n        /* \"#utility.yul\":2270:2294   */\n      tag_96\n        /* \"#utility.yul\":2288:2293   */\n      dup2\n        /* \"#utility.yul\":2270:2294   */\n      tag_49\n      jump\t// in\n    tag_96:\n        /* \"#utility.yul\":2263:2268   */\n      dup2\n        /* \"#utility.yul\":2260:2295   */\n      eq\n        /* \"#utility.yul\":2250:2313   */\n      tag_97\n      jumpi\n        /* \"#utility.yul\":2309:2310   */\n      0x00\n        /* \"#utility.yul\":2306:2307   */\n      dup1\n        /* \"#utility.yul\":2299:2311   */\n      revert\n        /* \"#utility.yul\":2250:2313   */\n    tag_97:\n        /* \"#utility.yul\":2197:2319   */\n      pop\n      jump\t// out\n        /* \"#utility.yul\":2325:2464   */\n    tag_61:\n        /* \"#utility.yul\":2371:2376   */\n      0x00\n        /* \"#utility.yul\":2409:2415   */\n      dup2\n        /* \"#utility.yul\":2396:2416   */\n      calldataload\n        /* \"#utility.yul\":2387:2416   */\n      swap1\n      pop\n        /* \"#utility.yul\":2425:2458   */\n      tag_99\n        /* \"#utility.yul\":2452:2457   */\n      dup2\n        /* \"#utility.yul\":2425:2458   */\n      tag_60\n      jump\t// in\n    tag_99:\n        /* \"#utility.yul\":2325:2464   */\n      swap3\n      swap2\n      pop\n      pop\n      jump\t// out\n        /* \"#utility.yul\":2470:2960   */\n    tag_28:\n        /* \"#utility.yul\":2546:2552   */\n      0x00\n        /* \"#utility.yul\":2554:2560   */\n      dup1\n        /* \"#utility.yul\":2603:2605   */\n      0x40\n        /* \"#utility.yul\":2591:2600   */\n      dup4\n        /* \"#utility.yul\":2582:2589   */\n      dup6\n        /* \"#utility.yul\":2578:2601   */\n      sub\n        /* \"#utility.yul\":2574:2606   */\n      slt\n        /* \"#utility.yul\":2571:2690   */\n      iszero\n      tag_101\n      jumpi\n        /* \"#utility.yul\":2609:2688   */\n      tag_102\n      tag_55\n      jump\t// in\n    tag_102:\n        /* \"#utility.yul\":2571:2690   */\n    tag_101:\n        /* \"#utility.yul\":2729:2730   */\n      0x00\n        /* \"#utility.yul\":2754:2815   */\n      tag_103\n        /* \"#utility.yul\":2807:2814   */\n      dup6\n        /* \"#utility.yul\":2798:2804   */\n      dup3\n        /* \"#utility.yul\":2787:2796   */\n      dup7\n        /* \"#utility.yul\":2783:2805   */\n      add\n        /* \"#utility.yul\":2754:2815   */\n      tag_59\n      jump\t// in\n    tag_103:\n        /* \"#utility.yul\":2744:2815   */\n      swap3\n      pop\n        /* \"#utility.yul\":2700:2825   */\n      pop\n        /* \"#utility.yul\":2864:2866   */\n      0x20\n        /* \"#utility.yul\":2890:2943   */\n      tag_104\n        /* \"#utility.yul\":2935:2942   */\n      dup6\n        /* \"#utility.yul\":2926:2932   */\n      dup3\n        /* \"#utility.yul\":2915:2924   */\n      dup7\n        /* \"#utility.yul\":2911:2933   */\n      add\n        /* \"#utility.yul\":2890:2943   */\n      tag_61\n      jump\t// in\n    tag_104:\n        /* \"#utility.yul\":2880:2943   */\n      swap2\n      pop\n        /* \"#utility.yul\":2835:2953   */\n      pop\n        /* \"#utility.yul\":2470:2960   */\n      swap3\n      pop\n      swap3\n      swap1\n      pop\n      jump\t// out\n        /* \"#utility.yul\":2966:3088   */\n    tag_62:\n        /* \"#utility.yul\":3039:3063   */\n      tag_106\n        /* \"#utility.yul\":3057:3062   */\n      dup2\n        /* \"#utility.yul\":3039:3063   */\n      tag_52\n      jump\t// in\n    tag_106:\n        /* \"#utility.yul\":3032:3037   */\n      dup2\n        /* \"#utility.yul\":3029:3064   */\n      eq\n        /* \"#utility.yul\":3019:3082   */\n      tag_107\n      jumpi\n        /* \"#utility.yul\":3078:3079   */\n      0x00\n        /* \"#utility.yul\":3075:3076   */\n      dup1\n        /* \"#utility.yul\":3068:3080   */\n      revert\n        /* \"#utility.yul\":3019:3082   */\n    tag_107:\n        /* \"#utility.yul\":2966:3088   */\n      pop\n      jump\t// out\n        /* \"#utility.yul\":3094:3233   */\n    tag_63:\n        /* \"#utility.yul\":3140:3145   */\n      0x00\n        /* \"#utility.yul\":3178:3184   */\n      dup2\n        /* \"#utility.yul\":3165:3185   */\n      calldataload\n        /* \"#utility.yul\":3156:3185   */\n      swap1\n      pop\n        /* \"#utility.yul\":3194:3227   */\n      tag_109\n        /* \"#utility.yul\":3221:3226   */\n      dup2\n        /* \"#utility.yul\":3194:3227   */\n      tag_62\n      jump\t// in\n    tag_109:\n        /* \"#utility.yul\":3094:3233   */\n      swap3\n      swap2\n      pop\n      pop\n      jump\t// out\n        /* \"#utility.yul\":3239:3568   */\n    tag_33:\n        /* \"#utility.yul\":3298:3304   */\n      0x00\n        /* \"#utility.yul\":3347:3349   */\n      0x20\n        /* \"#utility.yul\":3335:3344   */\n      dup3\n        /* \"#utility.yul\":3326:3333   */\n      dup5\n        /* \"#utility.yul\":3322:3345   */\n      sub\n        /* \"#utility.yul\":3318:3350   */\n      slt\n        /* \"#utility.yul\":3315:3434   */\n      iszero\n      tag_111\n      jumpi\n        /* \"#utility.yul\":3353:3432   */\n      tag_112\n      tag_55\n      jump\t// in\n    tag_112:\n        /* \"#utility.yul\":3315:3434   */\n    tag_111:\n        /* \"#utility.yul\":3473:3474   */\n      0x00\n        /* \"#utility.yul\":3498:3551   */\n      tag_113\n        /* \"#utility.yul\":3543:3550   */\n      dup5\n        /* \"#utility.yul\":3534:3540   */\n      dup3\n        /* \"#utility.yul\":3523:3532   */\n      dup6\n        /* \"#utility.yul\":3519:3541   */\n      add\n        /* \"#utility.yul\":3498:3551   */\n      tag_63\n      jump\t// in\n    tag_113:\n        /* \"#utility.yul\":3488:3551   */\n      swap2\n      pop\n        /* \"#utility.yul\":3444:3561   */\n      pop\n        /* \"#utility.yul\":3239:3568   */\n      swap3\n      swap2\n      pop\n      pop\n      jump\t// out\n        /* \"#utility.yul\":3574:3743   */\n    tag_64:\n        /* \"#utility.yul\":3658:3669   */\n      0x00\n        /* \"#utility.yul\":3692:3698   */\n      dup3\n        /* \"#utility.yul\":3687:3690   */\n      dup3\n        /* \"#utility.yul\":3680:3699   */\n      mstore\n        /* \"#utility.yul\":3732:3736   */\n      0x20\n        /* \"#utility.yul\":3727:3730   */\n      dup3\n        /* \"#utility.yul\":3723:3737   */\n      add\n        /* \"#utility.yul\":3708:3737   */\n      swap1\n      pop\n        /* \"#utility.yul\":3574:3743   */\n      swap3\n      swap2\n      pop\n      pop\n      jump\t// out\n        /* \"#utility.yul\":3749:3916   */\n    tag_65:\n        /* \"#utility.yul\":3889:3908   */\n      0x596f7520617265206e6f74206f776e6572000000000000000000000000000000\n        /* \"#utility.yul\":3885:3886   */\n      0x00\n        /* \"#utility.yul\":3877:3883   */\n      dup3\n        /* \"#utility.yul\":3873:3887   */\n      add\n        /* \"#utility.yul\":3866:3909   */\n      mstore\n        /* \"#utility.yul\":3749:3916   */\n      pop\n      jump\t// out\n        /* \"#utility.yul\":3922:4288   */\n    tag_66:\n        /* \"#utility.yul\":4064:4067   */\n      0x00\n        /* \"#utility.yul\":4085:4152   */\n      tag_117\n        /* \"#utility.yul\":4149:4151   */\n      0x11\n        /* \"#utility.yul\":4144:4147   */\n      dup4\n        /* \"#utility.yul\":4085:4152   */\n      tag_64\n      jump\t// in\n    tag_117:\n        /* \"#utility.yul\":4078:4152   */\n      swap2\n      pop\n        /* \"#utility.yul\":4161:4254   */\n      tag_118\n        /* \"#utility.yul\":4250:4253   */\n      dup3\n        /* \"#utility.yul\":4161:4254   */\n      tag_65\n      jump\t// in\n    tag_118:\n        /* \"#utility.yul\":4279:4281   */\n      0x20\n        /* \"#utility.yul\":4274:4277   */\n      dup3\n        /* \"#utility.yul\":4270:4282   */\n      add\n        /* \"#utility.yul\":4263:4282   */\n      swap1\n      pop\n        /* \"#utility.yul\":3922:4288   */\n      swap2\n      swap1\n      pop\n      jump\t// out\n        /* \"#utility.yul\":4294:4713   */\n    tag_41:\n        /* \"#utility.yul\":4460:4464   */\n      0x00\n        /* \"#utility.yul\":4498:4500   */\n      0x20\n        /* \"#utility.yul\":4487:4496   */\n      dup3\n        /* \"#utility.yul\":4483:4501   */\n      add\n        /* \"#utility.yul\":4475:4501   */\n      swap1\n      pop\n        /* \"#utility.yul\":4547:4556   */\n      dup2\n        /* \"#utility.yul\":4541:4545   */\n      dup2\n        /* \"#utility.yul\":4537:4557   */\n      sub\n        /* \"#utility.yul\":4533:4534   */\n      0x00\n        /* \"#utility.yul\":4522:4531   */\n      dup4\n        /* \"#utility.yul\":4518:4535   */\n      add\n        /* \"#utility.yul\":4511:4558   */\n      mstore\n        /* \"#utility.yul\":4575:4706   */\n      tag_120\n        /* \"#utility.yul\":4701:4705   */\n      dup2\n        /* \"#utility.yul\":4575:4706   */\n      tag_66\n      jump\t// in\n    tag_120:\n        /* \"#utility.yul\":4567:4706   */\n      swap1\n      pop\n        /* \"#utility.yul\":4294:4713   */\n      swap2\n      swap1\n      pop\n      jump\t// out\n\n    auxdata: 0xa2646970667358221220f440c38df3c71e75875974690a44dfbcb94191709565d3b424b10f04eef27c0164736f6c634300081a0033\n}\n",
				"bytecode": {
					"linkReferences": {},
					"object": "6080604052348015600e575f80fd5b506105fc8061001c5f395ff3fe60806040526004361061004d575f3560e01c806340caae06146100585780636f9fb98a146100825780638da5cb5b146100ac57806394a208c0146100d6578063a6f9dae1146100fe57610054565b3661005457005b5f80fd5b348015610063575f80fd5b5061006c610126565b60405161007991906103b0565b60405180910390f35b34801561008d575f80fd5b506100966101c8565b6040516100a391906103e1565b60405180910390f35b3480156100b7575f80fd5b506100c06101cf565b6040516100cd9190610439565b60405180910390f35b3480156100e1575f80fd5b506100fc60048036038101906100f791906104bb565b6101f2565b005b348015610109575f80fd5b50610124600480360381019061011f9190610523565b6102c7565b005b5f8073ffffffffffffffffffffffffffffffffffffffff165f8054906101000a900473ffffffffffffffffffffffffffffffffffffffff1673ffffffffffffffffffffffffffffffffffffffff16036101c157335f806101000a81548173ffffffffffffffffffffffffffffffffffffffff021916908373ffffffffffffffffffffffffffffffffffffffff160217905550600190506101c5565b5f90505b90565b5f47905090565b5f8054906101000a900473ffffffffffffffffffffffffffffffffffffffff1681565b5f8054906101000a900473ffffffffffffffffffffffffffffffffffffffff1673ffffffffffffffffffffffffffffffffffffffff163373ffffffffffffffffffffffffffffffffffffffff161461027f576040517f08c379a0000000000000000000000000000000000000000000000000000000008152600401610276906105a8565b60405180910390fd5b8173ffffffffffffffffffffffffffffffffffffffff166108fc8290811502906040515f60405180830381858888f193505050501580156102c2573d5f803e3d5ffd5b505050565b5f8054906101000a900473ffffffffffffffffffffffffffffffffffffffff1673ffffffffffffffffffffffffffffffffffffffff163373ffffffffffffffffffffffffffffffffffffffff1614610354576040517f08c379a000000000000000000000000000000000000000000000000000000000815260040161034b906105a8565b60405180910390fd5b805f806101000a81548173ffffffffffffffffffffffffffffffffffffffff021916908373ffffffffffffffffffffffffffffffffffffffff16021790555050565b5f8115159050919050565b6103aa81610396565b82525050565b5f6020820190506103c35f8301846103a1565b92915050565b5f819050919050565b6103db816103c9565b82525050565b5f6020820190506103f45f8301846103d2565b92915050565b5f73ffffffffffffffffffffffffffffffffffffffff82169050919050565b5f610423826103fa565b9050919050565b61043381610419565b82525050565b5f60208201905061044c5f83018461042a565b92915050565b5f80fd5b5f610460826103fa565b9050919050565b61047081610456565b811461047a575f80fd5b50565b5f8135905061048b81610467565b92915050565b61049a816103c9565b81146104a4575f80fd5b50565b5f813590506104b581610491565b92915050565b5f80604083850312156104d1576104d0610452565b5b5f6104de8582860161047d565b92505060206104ef858286016104a7565b9150509250929050565b61050281610419565b811461050c575f80fd5b50565b5f8135905061051d816104f9565b92915050565b5f6020828403121561053857610537610452565b5b5f6105458482850161050f565b91505092915050565b5f82825260208201905092915050565b7f596f7520617265206e6f74206f776e65720000000000000000000000000000005f82015250565b5f61059260118361054e565b915061059d8261055e565b602082019050919050565b5f6020820190508181035f8301526105bf81610586565b905091905056fea2646970667358221220f440c38df3c71e75875974690a44dfbcb94191709565d3b424b10f04eef27c0164736f6c634300081a0033",
					"opcodes": "PUSH1 0x80 PUSH1 0x40 MSTORE CALLVALUE DUP1 ISZERO PUSH1 0xE JUMPI PUSH0 DUP1 REVERT JUMPDEST POP PUSH2 0x5FC DUP1 PUSH2 0x1C PUSH0 CODECOPY PUSH0 RETURN INVALID PUSH1 0x80 PUSH1 0x40 MSTORE PUSH1 0x4 CALLDATASIZE LT PUSH2 0x4D JUMPI PUSH0 CALLDATALOAD PUSH1 0xE0 SHR DUP1 PUSH4 0x40CAAE06 EQ PUSH2 0x58 JUMPI DUP1 PUSH4 0x6F9FB98A EQ PUSH2 0x82 JUMPI DUP1 PUSH4 0x8DA5CB5B EQ PUSH2 0xAC JUMPI DUP1 PUSH4 0x94A208C0 EQ PUSH2 0xD6 JUMPI DUP1 PUSH4 0xA6F9DAE1 EQ PUSH2 0xFE JUMPI PUSH2 0x54 JUMP JUMPDEST CALLDATASIZE PUSH2 0x54 JUMPI STOP JUMPDEST PUSH0 DUP1 REVERT JUMPDEST CALLVALUE DUP1 ISZERO PUSH2 0x63 JUMPI PUSH0 DUP1 REVERT JUMPDEST POP PUSH2 0x6C PUSH2 0x126 JUMP JUMPDEST PUSH1 0x40 MLOAD PUSH2 0x79 SWAP2 SWAP1 PUSH2 0x3B0 JUMP JUMPDEST PUSH1 0x40 MLOAD DUP1 SWAP2 SUB SWAP1 RETURN JUMPDEST CALLVALUE DUP1 ISZERO PUSH2 0x8D JUMPI PUSH0 DUP1 REVERT JUMPDEST POP PUSH2 0x96 PUSH2 0x1C8 JUMP JUMPDEST PUSH1 0x40 MLOAD PUSH2 0xA3 SWAP2 SWAP1 PUSH2 0x3E1 JUMP JUMPDEST PUSH1 0x40 MLOAD DUP1 SWAP2 SUB SWAP1 RETURN JUMPDEST CALLVALUE DUP1 ISZERO PUSH2 0xB7 JUMPI PUSH0 DUP1 REVERT JUMPDEST POP PUSH2 0xC0 PUSH2 0x1CF JUMP JUMPDEST PUSH1 0x40 MLOAD PUSH2 0xCD SWAP2 SWAP1 PUSH2 0x439 JUMP JUMPDEST PUSH1 0x40 MLOAD DUP1 SWAP2 SUB SWAP1 RETURN JUMPDEST CALLVALUE DUP1 ISZERO PUSH2 0xE1 JUMPI PUSH0 DUP1 REVERT JUMPDEST POP PUSH2 0xFC PUSH1 0x4 DUP1 CALLDATASIZE SUB DUP2 ADD SWAP1 PUSH2 0xF7 SWAP2 SWAP1 PUSH2 0x4BB JUMP JUMPDEST PUSH2 0x1F2 JUMP JUMPDEST STOP JUMPDEST CALLVALUE DUP1 ISZERO PUSH2 0x109 JUMPI PUSH0 DUP1 REVERT JUMPDEST POP PUSH2 0x124 PUSH1 0x4 DUP1 CALLDATASIZE SUB DUP2 ADD SWAP1 PUSH2 0x11F SWAP2 SWAP1 PUSH2 0x523 JUMP JUMPDEST PUSH2 0x2C7 JUMP JUMPDEST STOP JUMPDEST PUSH0 DUP1 PUSH20 0xFFFFFFFFFFFFFFFFFFFFFFFFFFFFFFFFFFFFFFFF AND PUSH0 DUP1 SLOAD SWAP1 PUSH2 0x100 EXP SWAP1 DIV PUSH20 0xFFFFFFFFFFFFFFFFFFFFFFFFFFFFFFFFFFFFFFFF AND PUSH20 0xFFFFFFFFFFFFFFFFFFFFFFFFFFFFFFFFFFFFFFFF AND SUB PUSH2 0x1C1 JUMPI CALLER PUSH0 DUP1 PUSH2 0x100 EXP DUP2 SLOAD DUP2 PUSH20 0xFFFFFFFFFFFFFFFFFFFFFFFFFFFFFFFFFFFFFFFF MUL NOT AND SWAP1 DUP4 PUSH20 0xFFFFFFFFFFFFFFFFFFFFFFFFFFFFFFFFFFFFFFFF AND MUL OR SWAP1 SSTORE POP PUSH1 0x1 SWAP1 POP PUSH2 0x1C5 JUMP JUMPDEST PUSH0 SWAP1 POP JUMPDEST SWAP1 JUMP JUMPDEST PUSH0 SELFBALANCE SWAP1 POP SWAP1 JUMP JUMPDEST PUSH0 DUP1 SLOAD SWAP1 PUSH2 0x100 EXP SWAP1 DIV PUSH20 0xFFFFFFFFFFFFFFFFFFFFFFFFFFFFFFFFFFFFFFFF AND DUP2 JUMP JUMPDEST PUSH0 DUP1 SLOAD SWAP1 PUSH2 0x100 EXP SWAP1 DIV PUSH20 0xFFFFFFFFFFFFFFFFFFFFFFFFFFFFFFFFFFFFFFFF AND PUSH20 0xFFFFFFFFFFFFFFFFFFFFFFFFFFFFFFFFFFFFFFFF AND CALLER PUSH20 0xFFFFFFFFFFFFFFFFFFFFFFFFFFFFFFFFFFFFFFFF AND EQ PUSH2 0x27F JUMPI PUSH1 0x40 MLOAD PUSH32 0x8C379A000000000000000000000000000000000000000000000000000000000 DUP2 MSTORE PUSH1 0x4 ADD PUSH2 0x276 SWAP1 PUSH2 0x5A8 JUMP JUMPDEST PUSH1 0x40 MLOAD DUP1 SWAP2 SUB SWAP1 REVERT JUMPDEST DUP2 PUSH20 0xFFFFFFFFFFFFFFFFFFFFFFFFFFFFFFFFFFFFFFFF AND PUSH2 0x8FC DUP3 SWAP1 DUP2 ISZERO MUL SWAP1 PUSH1 0x40 MLOAD PUSH0 PUSH1 0x40 MLOAD DUP1 DUP4 SUB DUP2 DUP6 DUP9 DUP9 CALL SWAP4 POP POP POP POP ISZERO DUP1 ISZERO PUSH2 0x2C2 JUMPI RETURNDATASIZE PUSH0 DUP1 RETURNDATACOPY RETURNDATASIZE PUSH0 REVERT JUMPDEST POP POP POP JUMP JUMPDEST PUSH0 DUP1 SLOAD SWAP1 PUSH2 0x100 EXP SWAP1 DIV PUSH20 0xFFFFFFFFFFFFFFFFFFFFFFFFFFFFFFFFFFFFFFFF AND PUSH20 0xFFFFFFFFFFFFFFFFFFFFFFFFFFFFFFFFFFFFFFFF AND CALLER PUSH20 0xFFFFFFFFFFFFFFFFFFFFFFFFFFFFFFFFFFFFFFFF AND EQ PUSH2 0x354 JUMPI PUSH1 0x40 MLOAD PUSH32 0x8C379A000000000000000000000000000000000000000000000000000000000 DUP2 MSTORE PUSH1 0x4 ADD PUSH2 0x34B SWAP1 PUSH2 0x5A8 JUMP JUMPDEST PUSH1 0x40 MLOAD DUP1 SWAP2 SUB SWAP1 REVERT JUMPDEST DUP1 PUSH0 DUP1 PUSH2 0x100 EXP DUP2 SLOAD DUP2 PUSH20 0xFFFFFFFFFFFFFFFFFFFFFFFFFFFFFFFFFFFFFFFF MUL NOT AND SWAP1 DUP4 PUSH20 0xFFFFFFFFFFFFFFFFFFFFFFFFFFFFFFFFFFFFFFFF AND MUL OR SWAP1 SSTORE POP POP JUMP JUMPDEST PUSH0 DUP2 ISZERO ISZERO SWAP1 POP SWAP2 SWAP1 POP JUMP JUMPDEST PUSH2 0x3AA DUP2 PUSH2 0x396 JUMP JUMPDEST DUP3 MSTORE POP POP JUMP JUMPDEST PUSH0 PUSH1 0x20 DUP3 ADD SWAP1 POP PUSH2 0x3C3 PUSH0 DUP4 ADD DUP5 PUSH2 0x3A1 JUMP JUMPDEST SWAP3 SWAP2 POP POP JUMP JUMPDEST PUSH0 DUP2 SWAP1 POP SWAP2 SWAP1 POP JUMP JUMPDEST PUSH2 0x3DB DUP2 PUSH2 0x3C9 JUMP JUMPDEST DUP3 MSTORE POP POP JUMP JUMPDEST PUSH0 PUSH1 0x20 DUP3 ADD SWAP1 POP PUSH2 0x3F4 PUSH0 DUP4 ADD DUP5 PUSH2 0x3D2 JUMP JUMPDEST SWAP3 SWAP2 POP POP JUMP JUMPDEST PUSH0 PUSH20 0xFFFFFFFFFFFFFFFFFFFFFFFFFFFFFFFFFFFFFFFF DUP3 AND SWAP1 POP SWAP2 SWAP1 POP JUMP JUMPDEST PUSH0 PUSH2 0x423 DUP3 PUSH2 0x3FA JUMP JUMPDEST SWAP1 POP SWAP2 SWAP1 POP JUMP JUMPDEST PUSH2 0x433 DUP2 PUSH2 0x419 JUMP JUMPDEST DUP3 MSTORE POP POP JUMP JUMPDEST PUSH0 PUSH1 0x20 DUP3 ADD SWAP1 POP PUSH2 0x44C PUSH0 DUP4 ADD DUP5 PUSH2 0x42A JUMP JUMPDEST SWAP3 SWAP2 POP POP JUMP JUMPDEST PUSH0 DUP1 REVERT JUMPDEST PUSH0 PUSH2 0x460 DUP3 PUSH2 0x3FA JUMP JUMPDEST SWAP1 POP SWAP2 SWAP1 POP JUMP JUMPDEST PUSH2 0x470 DUP2 PUSH2 0x456 JUMP JUMPDEST DUP2 EQ PUSH2 0x47A JUMPI PUSH0 DUP1 REVERT JUMPDEST POP JUMP JUMPDEST PUSH0 DUP2 CALLDATALOAD SWAP1 POP PUSH2 0x48B DUP2 PUSH2 0x467 JUMP JUMPDEST SWAP3 SWAP2 POP POP JUMP JUMPDEST PUSH2 0x49A DUP2 PUSH2 0x3C9 JUMP JUMPDEST DUP2 EQ PUSH2 0x4A4 JUMPI PUSH0 DUP1 REVERT JUMPDEST POP JUMP JUMPDEST PUSH0 DUP2 CALLDATALOAD SWAP1 POP PUSH2 0x4B5 DUP2 PUSH2 0x491 JUMP JUMPDEST SWAP3 SWAP2 POP POP JUMP JUMPDEST PUSH0 DUP1 PUSH1 0x40 DUP4 DUP6 SUB SLT ISZERO PUSH2 0x4D1 JUMPI PUSH2 0x4D0 PUSH2 0x452 JUMP JUMPDEST JUMPDEST PUSH0 PUSH2 0x4DE DUP6 DUP3 DUP7 ADD PUSH2 0x47D JUMP JUMPDEST SWAP3 POP POP PUSH1 0x20 PUSH2 0x4EF DUP6 DUP3 DUP7 ADD PUSH2 0x4A7 JUMP JUMPDEST SWAP2 POP POP SWAP3 POP SWAP3 SWAP1 POP JUMP JUMPDEST PUSH2 0x502 DUP2 PUSH2 0x419 JUMP JUMPDEST DUP2 EQ PUSH2 0x50C JUMPI PUSH0 DUP1 REVERT JUMPDEST POP JUMP JUMPDEST PUSH0 DUP2 CALLDATALOAD SWAP1 POP PUSH2 0x51D DUP2 PUSH2 0x4F9 JUMP JUMPDEST SWAP3 SWAP2 POP POP JUMP JUMPDEST PUSH0 PUSH1 0x20 DUP3 DUP5 SUB SLT ISZERO PUSH2 0x538 JUMPI PUSH2 0x537 PUSH2 0x452 JUMP JUMPDEST JUMPDEST PUSH0 PUSH2 0x545 DUP5 DUP3 DUP6 ADD PUSH2 0x50F JUMP JUMPDEST SWAP2 POP POP SWAP3 SWAP2 POP POP JUMP JUMPDEST PUSH0 DUP3 DUP3 MSTORE PUSH1 0x20 DUP3 ADD SWAP1 POP SWAP3 SWAP2 POP POP JUMP JUMPDEST PUSH32 0x596F7520617265206E6F74206F776E6572000000000000000000000000000000 PUSH0 DUP3 ADD MSTORE POP JUMP JUMPDEST PUSH0 PUSH2 0x592 PUSH1 0x11 DUP4 PUSH2 0x54E JUMP JUMPDEST SWAP2 POP PUSH2 0x59D DUP3 PUSH2 0x55E JUMP JUMPDEST PUSH1 0x20 DUP3 ADD SWAP1 POP SWAP2 SWAP1 POP JUMP JUMPDEST PUSH0 PUSH1 0x20 DUP3 ADD SWAP1 POP DUP2 DUP2 SUB PUSH0 DUP4 ADD MSTORE PUSH2 0x5BF DUP2 PUSH2 0x586 JUMP JUMPDEST SWAP1 POP SWAP2 SWAP1 POP JUMP INVALID LOG2 PUSH5 0x6970667358 0x22 SLT KECCAK256 DELEGATECALL BLOCKHASH 0xC3 DUP14 RETURN 0xC7 0x1E PUSH22 0x875974690A44DFBCB94191709565D3B424B10F04EEF2 PUSH29 0x164736F6C634300081A00330000000000000000000000000000000000 "
				},
				"gasEstimates": {
					"creation": {
						"codeDepositCost": "306400",
						"executionCost": "341",
						"totalCost": "306741"
					},
					"external": {
						"changeOwner(address)": "26947",
						"getContractBalance()": "334",
						"owner()": "2527",
						"setOwner()": "26759",
						"transferEthToAddress(address,uint256)": "infinite"
					}
				},
				"methodIdentifiers": {
					"changeOwner(address)": "a6f9dae1",
					"getContractBalance()": "6f9fb98a",
					"owner()": "8da5cb5b",
					"setOwner()": "40caae06",
					"transferEthToAddress(address,uint256)": "94a208c0"
				}
			},
			"storageLayout": {
				"storage": [
					{
						"astId": 3,
						"contract": "example13_5task.sol:Wallet",
						"label": "owner",
						"offset": 0,
						"slot": "0",
						"type": "t_address"
					}
				],
				"types": {
					"t_address": {
						"encoding": "inplace",
						"label": "address",
						"numberOfBytes": "20"
					}
				}
			},
			"userdoc": {
				"kind": "user",
				"methods": {},
				"version": 1
			}
		}
	}
}