{
	"assignment3_7task.sol": {
		"EvenNumbers": {
			"abi": [
				{
					"inputs": [
						{
							"internalType": "int256[]",
							"name": "numbers",
							"type": "int256[]"
						}
					],
					"name": "filterEvenNumbers",
					"outputs": [
						{
							"internalType": "int256[]",
							"name": "",
							"type": "int256[]"
						}
					],
					"stateMutability": "pure",
					"type": "function"
				}
			],
			"devdoc": {
				"kind": "dev",
				"methods": {},
				"version": 1
			},
			"evm": {
				"assembly": "    /* \"assignment3_7task.sol\":27:782  contract EvenNumbers {... */\n  mstore(0x40, 0x80)\n  callvalue\n  dup1\n  iszero\n  tag_1\n  jumpi\n  0x00\n  dup1\n  revert\ntag_1:\n  pop\n  dataSize(sub_0)\n  dup1\n  dataOffset(sub_0)\n  0x00\n  codecopy\n  0x00\n  return\nstop\n\nsub_0: assembly {\n        /* \"assignment3_7task.sol\":27:782  contract EvenNumbers {... */\n      mstore(0x40, 0x80)\n      callvalue\n      dup1\n      iszero\n      tag_1\n      jumpi\n      0x00\n      dup1\n      revert\n    tag_1:\n      pop\n      jumpi(tag_2, lt(calldatasize, 0x04))\n      shr(0xe0, calldataload(0x00))\n      dup1\n      0x9edb2e4e\n      eq\n      tag_3\n      jumpi\n    tag_2:\n      0x00\n      dup1\n      revert\n        /* \"assignment3_7task.sol\":115:779  function filterEvenNumbers(int[] memory numbers) public pure returns (int[] memory) {... */\n    tag_3:\n      tag_4\n      0x04\n      dup1\n      calldatasize\n      sub\n      dup2\n      add\n      swap1\n      tag_5\n      swap2\n      swap1\n      tag_6\n      jump\t// in\n    tag_5:\n      tag_7\n      jump\t// in\n    tag_4:\n      mload(0x40)\n      tag_8\n      swap2\n      swap1\n      tag_9\n      jump\t// in\n    tag_8:\n      mload(0x40)\n      dup1\n      swap2\n      sub\n      swap1\n      return\n    tag_7:\n        /* \"assignment3_7task.sol\":185:197  int[] memory */\n      0x60\n        /* \"assignment3_7task.sol\":210:220  uint count */\n      0x00\n        /* \"assignment3_7task.sol\":292:298  uint i */\n      dup1\n        /* \"assignment3_7task.sol\":287:422  for (uint i = 0; i < numbers.length; i++) {... */\n    tag_11:\n        /* \"assignment3_7task.sol\":308:315  numbers */\n      dup4\n        /* \"assignment3_7task.sol\":308:322  numbers.length */\n      mload\n        /* \"assignment3_7task.sol\":304:305  i */\n      dup2\n        /* \"assignment3_7task.sol\":304:322  i < numbers.length */\n      lt\n        /* \"assignment3_7task.sol\":287:422  for (uint i = 0; i < numbers.length; i++) {... */\n      iszero\n      tag_12\n      jumpi\n        /* \"assignment3_7task.sol\":366:367  0 */\n      0x00\n        /* \"assignment3_7task.sol\":361:362  2 */\n      0x02\n        /* \"assignment3_7task.sol\":348:355  numbers */\n      dup6\n        /* \"assignment3_7task.sol\":356:357  i */\n      dup4\n        /* \"assignment3_7task.sol\":348:358  numbers[i] */\n      dup2\n      mload\n      dup2\n      lt\n      tag_14\n      jumpi\n      tag_15\n      tag_16\n      jump\t// in\n    tag_15:\n    tag_14:\n      0x20\n      mul\n      0x20\n      add\n      add\n      mload\n        /* \"assignment3_7task.sol\":348:362  numbers[i] % 2 */\n      tag_17\n      swap2\n      swap1\n      tag_18\n      jump\t// in\n    tag_17:\n        /* \"assignment3_7task.sol\":348:367  numbers[i] % 2 == 0 */\n      sub\n        /* \"assignment3_7task.sol\":344:411  if (numbers[i] % 2 == 0) {... */\n      tag_19\n      jumpi\n        /* \"assignment3_7task.sol\":388:395  count++ */\n      dup2\n      dup1\n      tag_20\n      swap1\n      tag_21\n      jump\t// in\n    tag_20:\n      swap3\n      pop\n      pop\n        /* \"assignment3_7task.sol\":344:411  if (numbers[i] % 2 == 0) {... */\n    tag_19:\n        /* \"assignment3_7task.sol\":324:327  i++ */\n      dup1\n      dup1\n      0x01\n      add\n      swap2\n      pop\n      pop\n        /* \"assignment3_7task.sol\":287:422  for (uint i = 0; i < numbers.length; i++) {... */\n      jump(tag_11)\n    tag_12:\n      pop\n        /* \"assignment3_7task.sol\":442:460  int[] memory evens */\n      0x00\n        /* \"assignment3_7task.sol\":473:478  count */\n      dup2\n        /* \"assignment3_7task.sol\":463:479  new int[](count) */\n      0xffffffffffffffff\n      dup2\n      gt\n      iszero\n      tag_22\n      jumpi\n      tag_23\n      tag_24\n      jump\t// in\n    tag_23:\n    tag_22:\n      mload(0x40)\n      swap1\n      dup1\n      dup3\n      mstore\n      dup1\n      0x20\n      mul\n      0x20\n      add\n      dup3\n      add\n      0x40\n      mstore\n      dup1\n      iszero\n      tag_25\n      jumpi\n      dup2\n      0x20\n      add\n      0x20\n      dup3\n      mul\n      dup1\n      calldatasize\n      dup4\n      calldatacopy\n      dup1\n      dup3\n      add\n      swap2\n      pop\n      pop\n      swap1\n      pop\n    tag_25:\n      pop\n        /* \"assignment3_7task.sol\":442:479  int[] memory evens = new int[](count) */\n      swap1\n      pop\n        /* \"assignment3_7task.sol\":490:500  uint index */\n      0x00\n        /* \"assignment3_7task.sol\":575:581  uint i */\n      dup1\n        /* \"assignment3_7task.sol\":570:749  for (uint i = 0; i < numbers.length; i++) {... */\n    tag_26:\n        /* \"assignment3_7task.sol\":591:598  numbers */\n      dup6\n        /* \"assignment3_7task.sol\":591:605  numbers.length */\n      mload\n        /* \"assignment3_7task.sol\":587:588  i */\n      dup2\n        /* \"assignment3_7task.sol\":587:605  i < numbers.length */\n      lt\n        /* \"assignment3_7task.sol\":570:749  for (uint i = 0; i < numbers.length; i++) {... */\n      iszero\n      tag_27\n      jumpi\n        /* \"assignment3_7task.sol\":649:650  0 */\n      0x00\n        /* \"assignment3_7task.sol\":644:645  2 */\n      0x02\n        /* \"assignment3_7task.sol\":631:638  numbers */\n      dup8\n        /* \"assignment3_7task.sol\":639:640  i */\n      dup4\n        /* \"assignment3_7task.sol\":631:641  numbers[i] */\n      dup2\n      mload\n      dup2\n      lt\n      tag_29\n      jumpi\n      tag_30\n      tag_16\n      jump\t// in\n    tag_30:\n    tag_29:\n      0x20\n      mul\n      0x20\n      add\n      add\n      mload\n        /* \"assignment3_7task.sol\":631:645  numbers[i] % 2 */\n      tag_31\n      swap2\n      swap1\n      tag_18\n      jump\t// in\n    tag_31:\n        /* \"assignment3_7task.sol\":631:650  numbers[i] % 2 == 0 */\n      sub\n        /* \"assignment3_7task.sol\":627:738  if (numbers[i] % 2 == 0) {... */\n      tag_32\n      jumpi\n        /* \"assignment3_7task.sol\":686:693  numbers */\n      dup6\n        /* \"assignment3_7task.sol\":694:695  i */\n      dup2\n        /* \"assignment3_7task.sol\":686:696  numbers[i] */\n      dup2\n      mload\n      dup2\n      lt\n      tag_33\n      jumpi\n      tag_34\n      tag_16\n      jump\t// in\n    tag_34:\n    tag_33:\n      0x20\n      mul\n      0x20\n      add\n      add\n      mload\n        /* \"assignment3_7task.sol\":671:676  evens */\n      dup4\n        /* \"assignment3_7task.sol\":677:682  index */\n      dup4\n        /* \"assignment3_7task.sol\":671:683  evens[index] */\n      dup2\n      mload\n      dup2\n      lt\n      tag_35\n      jumpi\n      tag_36\n      tag_16\n      jump\t// in\n    tag_36:\n    tag_35:\n      0x20\n      mul\n      0x20\n      add\n      add\n        /* \"assignment3_7task.sol\":671:696  evens[index] = numbers[i] */\n      dup2\n      dup2\n      mstore\n      pop\n      pop\n        /* \"assignment3_7task.sol\":715:722  index++ */\n      dup2\n      dup1\n      tag_37\n      swap1\n      tag_21\n      jump\t// in\n    tag_37:\n      swap3\n      pop\n      pop\n        /* \"assignment3_7task.sol\":627:738  if (numbers[i] % 2 == 0) {... */\n    tag_32:\n        /* \"assignment3_7task.sol\":607:610  i++ */\n      dup1\n      dup1\n      0x01\n      add\n      swap2\n      pop\n      pop\n        /* \"assignment3_7task.sol\":570:749  for (uint i = 0; i < numbers.length; i++) {... */\n      jump(tag_26)\n    tag_27:\n      pop\n        /* \"assignment3_7task.sol\":766:771  evens */\n      dup2\n        /* \"assignment3_7task.sol\":759:771  return evens */\n      swap4\n      pop\n      pop\n      pop\n      pop\n        /* \"assignment3_7task.sol\":115:779  function filterEvenNumbers(int[] memory numbers) public pure returns (int[] memory) {... */\n      swap2\n      swap1\n      pop\n      jump\t// out\n        /* \"#utility.yul\":7:82   */\n    tag_38:\n        /* \"#utility.yul\":40:46   */\n      0x00\n        /* \"#utility.yul\":73:75   */\n      0x40\n        /* \"#utility.yul\":67:76   */\n      mload\n        /* \"#utility.yul\":57:76   */\n      swap1\n      pop\n        /* \"#utility.yul\":7:82   */\n      swap1\n      jump\t// out\n        /* \"#utility.yul\":88:205   */\n    tag_39:\n        /* \"#utility.yul\":197:198   */\n      0x00\n        /* \"#utility.yul\":194:195   */\n      dup1\n        /* \"#utility.yul\":187:199   */\n      revert\n        /* \"#utility.yul\":211:328   */\n    tag_40:\n        /* \"#utility.yul\":320:321   */\n      0x00\n        /* \"#utility.yul\":317:318   */\n      dup1\n        /* \"#utility.yul\":310:322   */\n      revert\n        /* \"#utility.yul\":334:451   */\n    tag_41:\n        /* \"#utility.yul\":443:444   */\n      0x00\n        /* \"#utility.yul\":440:441   */\n      dup1\n        /* \"#utility.yul\":433:445   */\n      revert\n        /* \"#utility.yul\":457:559   */\n    tag_42:\n        /* \"#utility.yul\":498:504   */\n      0x00\n        /* \"#utility.yul\":549:551   */\n      0x1f\n        /* \"#utility.yul\":545:552   */\n      not\n        /* \"#utility.yul\":540:542   */\n      0x1f\n        /* \"#utility.yul\":533:538   */\n      dup4\n        /* \"#utility.yul\":529:543   */\n      add\n        /* \"#utility.yul\":525:553   */\n      and\n        /* \"#utility.yul\":515:553   */\n      swap1\n      pop\n        /* \"#utility.yul\":457:559   */\n      swap2\n      swap1\n      pop\n      jump\t// out\n        /* \"#utility.yul\":565:745   */\n    tag_24:\n        /* \"#utility.yul\":613:690   */\n      0x4e487b7100000000000000000000000000000000000000000000000000000000\n        /* \"#utility.yul\":610:611   */\n      0x00\n        /* \"#utility.yul\":603:691   */\n      mstore\n        /* \"#utility.yul\":710:714   */\n      0x41\n        /* \"#utility.yul\":707:708   */\n      0x04\n        /* \"#utility.yul\":700:715   */\n      mstore\n        /* \"#utility.yul\":734:738   */\n      0x24\n        /* \"#utility.yul\":731:732   */\n      0x00\n        /* \"#utility.yul\":724:739   */\n      revert\n        /* \"#utility.yul\":751:1032   */\n    tag_43:\n        /* \"#utility.yul\":834:861   */\n      tag_70\n        /* \"#utility.yul\":856:860   */\n      dup3\n        /* \"#utility.yul\":834:861   */\n      tag_42\n      jump\t// in\n    tag_70:\n        /* \"#utility.yul\":826:832   */\n      dup2\n        /* \"#utility.yul\":822:862   */\n      add\n        /* \"#utility.yul\":964:970   */\n      dup2\n        /* \"#utility.yul\":952:962   */\n      dup2\n        /* \"#utility.yul\":949:971   */\n      lt\n        /* \"#utility.yul\":928:946   */\n      0xffffffffffffffff\n        /* \"#utility.yul\":916:926   */\n      dup3\n        /* \"#utility.yul\":913:947   */\n      gt\n        /* \"#utility.yul\":910:972   */\n      or\n        /* \"#utility.yul\":907:995   */\n      iszero\n      tag_71\n      jumpi\n        /* \"#utility.yul\":975:993   */\n      tag_72\n      tag_24\n      jump\t// in\n    tag_72:\n        /* \"#utility.yul\":907:995   */\n    tag_71:\n        /* \"#utility.yul\":1015:1025   */\n      dup1\n        /* \"#utility.yul\":1011:1013   */\n      0x40\n        /* \"#utility.yul\":1004:1026   */\n      mstore\n        /* \"#utility.yul\":794:1032   */\n      pop\n        /* \"#utility.yul\":751:1032   */\n      pop\n      pop\n      jump\t// out\n        /* \"#utility.yul\":1038:1167   */\n    tag_44:\n        /* \"#utility.yul\":1072:1078   */\n      0x00\n        /* \"#utility.yul\":1099:1119   */\n      tag_74\n      tag_38\n      jump\t// in\n    tag_74:\n        /* \"#utility.yul\":1089:1119   */\n      swap1\n      pop\n        /* \"#utility.yul\":1128:1161   */\n      tag_75\n        /* \"#utility.yul\":1156:1160   */\n      dup3\n        /* \"#utility.yul\":1148:1154   */\n      dup3\n        /* \"#utility.yul\":1128:1161   */\n      tag_43\n      jump\t// in\n    tag_75:\n        /* \"#utility.yul\":1038:1167   */\n      swap2\n      swap1\n      pop\n      jump\t// out\n        /* \"#utility.yul\":1173:1483   */\n    tag_45:\n        /* \"#utility.yul\":1249:1253   */\n      0x00\n        /* \"#utility.yul\":1339:1357   */\n      0xffffffffffffffff\n        /* \"#utility.yul\":1331:1337   */\n      dup3\n        /* \"#utility.yul\":1328:1358   */\n      gt\n        /* \"#utility.yul\":1325:1381   */\n      iszero\n      tag_77\n      jumpi\n        /* \"#utility.yul\":1361:1379   */\n      tag_78\n      tag_24\n      jump\t// in\n    tag_78:\n        /* \"#utility.yul\":1325:1381   */\n    tag_77:\n        /* \"#utility.yul\":1411:1415   */\n      0x20\n        /* \"#utility.yul\":1403:1409   */\n      dup3\n        /* \"#utility.yul\":1399:1416   */\n      mul\n        /* \"#utility.yul\":1391:1416   */\n      swap1\n      pop\n        /* \"#utility.yul\":1471:1475   */\n      0x20\n        /* \"#utility.yul\":1465:1469   */\n      dup2\n        /* \"#utility.yul\":1461:1476   */\n      add\n        /* \"#utility.yul\":1453:1476   */\n      swap1\n      pop\n        /* \"#utility.yul\":1173:1483   */\n      swap2\n      swap1\n      pop\n      jump\t// out\n        /* \"#utility.yul\":1489:1606   */\n    tag_46:\n        /* \"#utility.yul\":1598:1599   */\n      0x00\n        /* \"#utility.yul\":1595:1596   */\n      dup1\n        /* \"#utility.yul\":1588:1600   */\n      revert\n        /* \"#utility.yul\":1612:1688   */\n    tag_47:\n        /* \"#utility.yul\":1648:1655   */\n      0x00\n        /* \"#utility.yul\":1677:1682   */\n      dup2\n        /* \"#utility.yul\":1666:1682   */\n      swap1\n      pop\n        /* \"#utility.yul\":1612:1688   */\n      swap2\n      swap1\n      pop\n      jump\t// out\n        /* \"#utility.yul\":1694:1814   */\n    tag_48:\n        /* \"#utility.yul\":1766:1789   */\n      tag_82\n        /* \"#utility.yul\":1783:1788   */\n      dup2\n        /* \"#utility.yul\":1766:1789   */\n      tag_47\n      jump\t// in\n    tag_82:\n        /* \"#utility.yul\":1759:1764   */\n      dup2\n        /* \"#utility.yul\":1756:1790   */\n      eq\n        /* \"#utility.yul\":1746:1808   */\n      tag_83\n      jumpi\n        /* \"#utility.yul\":1804:1805   */\n      0x00\n        /* \"#utility.yul\":1801:1802   */\n      dup1\n        /* \"#utility.yul\":1794:1806   */\n      revert\n        /* \"#utility.yul\":1746:1808   */\n    tag_83:\n        /* \"#utility.yul\":1694:1814   */\n      pop\n      jump\t// out\n        /* \"#utility.yul\":1820:1957   */\n    tag_49:\n        /* \"#utility.yul\":1865:1870   */\n      0x00\n        /* \"#utility.yul\":1903:1909   */\n      dup2\n        /* \"#utility.yul\":1890:1910   */\n      calldataload\n        /* \"#utility.yul\":1881:1910   */\n      swap1\n      pop\n        /* \"#utility.yul\":1919:1951   */\n      tag_85\n        /* \"#utility.yul\":1945:1950   */\n      dup2\n        /* \"#utility.yul\":1919:1951   */\n      tag_48\n      jump\t// in\n    tag_85:\n        /* \"#utility.yul\":1820:1957   */\n      swap3\n      swap2\n      pop\n      pop\n      jump\t// out\n        /* \"#utility.yul\":1979:2686   */\n    tag_50:\n        /* \"#utility.yul\":2074:2079   */\n      0x00\n        /* \"#utility.yul\":2099:2179   */\n      tag_87\n        /* \"#utility.yul\":2115:2178   */\n      tag_88\n        /* \"#utility.yul\":2171:2177   */\n      dup5\n        /* \"#utility.yul\":2115:2178   */\n      tag_45\n      jump\t// in\n    tag_88:\n        /* \"#utility.yul\":2099:2179   */\n      tag_44\n      jump\t// in\n    tag_87:\n        /* \"#utility.yul\":2090:2179   */\n      swap1\n      pop\n        /* \"#utility.yul\":2199:2204   */\n      dup1\n        /* \"#utility.yul\":2228:2234   */\n      dup4\n        /* \"#utility.yul\":2221:2226   */\n      dup3\n        /* \"#utility.yul\":2214:2235   */\n      mstore\n        /* \"#utility.yul\":2262:2266   */\n      0x20\n        /* \"#utility.yul\":2255:2260   */\n      dup3\n        /* \"#utility.yul\":2251:2267   */\n      add\n        /* \"#utility.yul\":2244:2267   */\n      swap1\n      pop\n        /* \"#utility.yul\":2315:2319   */\n      0x20\n        /* \"#utility.yul\":2307:2313   */\n      dup5\n        /* \"#utility.yul\":2303:2320   */\n      mul\n        /* \"#utility.yul\":2295:2301   */\n      dup4\n        /* \"#utility.yul\":2291:2321   */\n      add\n        /* \"#utility.yul\":2344:2347   */\n      dup6\n        /* \"#utility.yul\":2336:2342   */\n      dup2\n        /* \"#utility.yul\":2333:2348   */\n      gt\n        /* \"#utility.yul\":2330:2452   */\n      iszero\n      tag_89\n      jumpi\n        /* \"#utility.yul\":2363:2442   */\n      tag_90\n      tag_46\n      jump\t// in\n    tag_90:\n        /* \"#utility.yul\":2330:2452   */\n    tag_89:\n        /* \"#utility.yul\":2478:2484   */\n      dup4\n        /* \"#utility.yul\":2461:2680   */\n    tag_91:\n        /* \"#utility.yul\":2495:2501   */\n      dup2\n        /* \"#utility.yul\":2490:2493   */\n      dup2\n        /* \"#utility.yul\":2487:2502   */\n      lt\n        /* \"#utility.yul\":2461:2680   */\n      iszero\n      tag_93\n      jumpi\n        /* \"#utility.yul\":2570:2573   */\n      dup1\n        /* \"#utility.yul\":2599:2635   */\n      tag_94\n        /* \"#utility.yul\":2631:2634   */\n      dup9\n        /* \"#utility.yul\":2619:2629   */\n      dup3\n        /* \"#utility.yul\":2599:2635   */\n      tag_49\n      jump\t// in\n    tag_94:\n        /* \"#utility.yul\":2594:2597   */\n      dup5\n        /* \"#utility.yul\":2587:2636   */\n      mstore\n        /* \"#utility.yul\":2665:2669   */\n      0x20\n        /* \"#utility.yul\":2660:2663   */\n      dup5\n        /* \"#utility.yul\":2656:2670   */\n      add\n        /* \"#utility.yul\":2649:2670   */\n      swap4\n      pop\n        /* \"#utility.yul\":2537:2680   */\n      pop\n        /* \"#utility.yul\":2521:2525   */\n      0x20\n        /* \"#utility.yul\":2516:2519   */\n      dup2\n        /* \"#utility.yul\":2512:2526   */\n      add\n        /* \"#utility.yul\":2505:2526   */\n      swap1\n      pop\n        /* \"#utility.yul\":2461:2680   */\n      jump(tag_91)\n    tag_93:\n        /* \"#utility.yul\":2465:2486   */\n      pop\n        /* \"#utility.yul\":2080:2686   */\n      pop\n      pop\n        /* \"#utility.yul\":1979:2686   */\n      swap4\n      swap3\n      pop\n      pop\n      pop\n      jump\t// out\n        /* \"#utility.yul\":2708:3076   */\n    tag_51:\n        /* \"#utility.yul\":2778:2783   */\n      0x00\n        /* \"#utility.yul\":2827:2830   */\n      dup3\n        /* \"#utility.yul\":2820:2824   */\n      0x1f\n        /* \"#utility.yul\":2812:2818   */\n      dup4\n        /* \"#utility.yul\":2808:2825   */\n      add\n        /* \"#utility.yul\":2804:2831   */\n      slt\n        /* \"#utility.yul\":2794:2916   */\n      tag_96\n      jumpi\n        /* \"#utility.yul\":2835:2914   */\n      tag_97\n      tag_41\n      jump\t// in\n    tag_97:\n        /* \"#utility.yul\":2794:2916   */\n    tag_96:\n        /* \"#utility.yul\":2952:2958   */\n      dup2\n        /* \"#utility.yul\":2939:2959   */\n      calldataload\n        /* \"#utility.yul\":2977:3070   */\n      tag_98\n        /* \"#utility.yul\":3066:3069   */\n      dup5\n        /* \"#utility.yul\":3058:3064   */\n      dup3\n        /* \"#utility.yul\":3051:3055   */\n      0x20\n        /* \"#utility.yul\":3043:3049   */\n      dup7\n        /* \"#utility.yul\":3039:3056   */\n      add\n        /* \"#utility.yul\":2977:3070   */\n      tag_50\n      jump\t// in\n    tag_98:\n        /* \"#utility.yul\":2968:3070   */\n      swap2\n      pop\n        /* \"#utility.yul\":2784:3076   */\n      pop\n        /* \"#utility.yul\":2708:3076   */\n      swap3\n      swap2\n      pop\n      pop\n      jump\t// out\n        /* \"#utility.yul\":3082:3619   */\n    tag_6:\n        /* \"#utility.yul\":3165:3171   */\n      0x00\n        /* \"#utility.yul\":3214:3216   */\n      0x20\n        /* \"#utility.yul\":3202:3211   */\n      dup3\n        /* \"#utility.yul\":3193:3200   */\n      dup5\n        /* \"#utility.yul\":3189:3212   */\n      sub\n        /* \"#utility.yul\":3185:3217   */\n      slt\n        /* \"#utility.yul\":3182:3301   */\n      iszero\n      tag_100\n      jumpi\n        /* \"#utility.yul\":3220:3299   */\n      tag_101\n      tag_39\n      jump\t// in\n    tag_101:\n        /* \"#utility.yul\":3182:3301   */\n    tag_100:\n        /* \"#utility.yul\":3368:3369   */\n      0x00\n        /* \"#utility.yul\":3357:3366   */\n      dup3\n        /* \"#utility.yul\":3353:3370   */\n      add\n        /* \"#utility.yul\":3340:3371   */\n      calldataload\n        /* \"#utility.yul\":3398:3416   */\n      0xffffffffffffffff\n        /* \"#utility.yul\":3390:3396   */\n      dup2\n        /* \"#utility.yul\":3387:3417   */\n      gt\n        /* \"#utility.yul\":3384:3501   */\n      iszero\n      tag_102\n      jumpi\n        /* \"#utility.yul\":3420:3499   */\n      tag_103\n      tag_40\n      jump\t// in\n    tag_103:\n        /* \"#utility.yul\":3384:3501   */\n    tag_102:\n        /* \"#utility.yul\":3525:3602   */\n      tag_104\n        /* \"#utility.yul\":3594:3601   */\n      dup5\n        /* \"#utility.yul\":3585:3591   */\n      dup3\n        /* \"#utility.yul\":3574:3583   */\n      dup6\n        /* \"#utility.yul\":3570:3592   */\n      add\n        /* \"#utility.yul\":3525:3602   */\n      tag_51\n      jump\t// in\n    tag_104:\n        /* \"#utility.yul\":3515:3602   */\n      swap2\n      pop\n        /* \"#utility.yul\":3311:3612   */\n      pop\n        /* \"#utility.yul\":3082:3619   */\n      swap3\n      swap2\n      pop\n      pop\n      jump\t// out\n        /* \"#utility.yul\":3625:3738   */\n    tag_52:\n        /* \"#utility.yul\":3691:3697   */\n      0x00\n        /* \"#utility.yul\":3725:3730   */\n      dup2\n        /* \"#utility.yul\":3719:3731   */\n      mload\n        /* \"#utility.yul\":3709:3731   */\n      swap1\n      pop\n        /* \"#utility.yul\":3625:3738   */\n      swap2\n      swap1\n      pop\n      jump\t// out\n        /* \"#utility.yul\":3744:3927   */\n    tag_53:\n        /* \"#utility.yul\":3842:3853   */\n      0x00\n        /* \"#utility.yul\":3876:3882   */\n      dup3\n        /* \"#utility.yul\":3871:3874   */\n      dup3\n        /* \"#utility.yul\":3864:3883   */\n      mstore\n        /* \"#utility.yul\":3916:3920   */\n      0x20\n        /* \"#utility.yul\":3911:3914   */\n      dup3\n        /* \"#utility.yul\":3907:3921   */\n      add\n        /* \"#utility.yul\":3892:3921   */\n      swap1\n      pop\n        /* \"#utility.yul\":3744:3927   */\n      swap3\n      swap2\n      pop\n      pop\n      jump\t// out\n        /* \"#utility.yul\":3933:4064   */\n    tag_54:\n        /* \"#utility.yul\":3999:4003   */\n      0x00\n        /* \"#utility.yul\":4022:4025   */\n      dup2\n        /* \"#utility.yul\":4014:4025   */\n      swap1\n      pop\n        /* \"#utility.yul\":4052:4056   */\n      0x20\n        /* \"#utility.yul\":4047:4050   */\n      dup3\n        /* \"#utility.yul\":4043:4057   */\n      add\n        /* \"#utility.yul\":4035:4057   */\n      swap1\n      pop\n        /* \"#utility.yul\":3933:4064   */\n      swap2\n      swap1\n      pop\n      jump\t// out\n        /* \"#utility.yul\":4070:4175   */\n    tag_55:\n        /* \"#utility.yul\":4145:4168   */\n      tag_109\n        /* \"#utility.yul\":4162:4167   */\n      dup2\n        /* \"#utility.yul\":4145:4168   */\n      tag_47\n      jump\t// in\n    tag_109:\n        /* \"#utility.yul\":4140:4143   */\n      dup3\n        /* \"#utility.yul\":4133:4169   */\n      mstore\n        /* \"#utility.yul\":4070:4175   */\n      pop\n      pop\n      jump\t// out\n        /* \"#utility.yul\":4181:4356   */\n    tag_56:\n        /* \"#utility.yul\":4248:4258   */\n      0x00\n        /* \"#utility.yul\":4269:4313   */\n      tag_111\n        /* \"#utility.yul\":4309:4312   */\n      dup4\n        /* \"#utility.yul\":4301:4307   */\n      dup4\n        /* \"#utility.yul\":4269:4313   */\n      tag_55\n      jump\t// in\n    tag_111:\n        /* \"#utility.yul\":4345:4349   */\n      0x20\n        /* \"#utility.yul\":4340:4343   */\n      dup4\n        /* \"#utility.yul\":4336:4350   */\n      add\n        /* \"#utility.yul\":4322:4350   */\n      swap1\n      pop\n        /* \"#utility.yul\":4181:4356   */\n      swap3\n      swap2\n      pop\n      pop\n      jump\t// out\n        /* \"#utility.yul\":4362:4474   */\n    tag_57:\n        /* \"#utility.yul\":4431:4435   */\n      0x00\n        /* \"#utility.yul\":4463:4467   */\n      0x20\n        /* \"#utility.yul\":4458:4461   */\n      dup3\n        /* \"#utility.yul\":4454:4468   */\n      add\n        /* \"#utility.yul\":4446:4468   */\n      swap1\n      pop\n        /* \"#utility.yul\":4362:4474   */\n      swap2\n      swap1\n      pop\n      jump\t// out\n        /* \"#utility.yul\":4508:5232   */\n    tag_58:\n        /* \"#utility.yul\":4625:4628   */\n      0x00\n        /* \"#utility.yul\":4654:4707   */\n      tag_114\n        /* \"#utility.yul\":4701:4706   */\n      dup3\n        /* \"#utility.yul\":4654:4707   */\n      tag_52\n      jump\t// in\n    tag_114:\n        /* \"#utility.yul\":4723:4808   */\n      tag_115\n        /* \"#utility.yul\":4801:4807   */\n      dup2\n        /* \"#utility.yul\":4796:4799   */\n      dup6\n        /* \"#utility.yul\":4723:4808   */\n      tag_53\n      jump\t// in\n    tag_115:\n        /* \"#utility.yul\":4716:4808   */\n      swap4\n      pop\n        /* \"#utility.yul\":4832:4887   */\n      tag_116\n        /* \"#utility.yul\":4881:4886   */\n      dup4\n        /* \"#utility.yul\":4832:4887   */\n      tag_54\n      jump\t// in\n    tag_116:\n        /* \"#utility.yul\":4910:4917   */\n      dup1\n        /* \"#utility.yul\":4941:4942   */\n      0x00\n        /* \"#utility.yul\":4926:5207   */\n    tag_117:\n        /* \"#utility.yul\":4951:4957   */\n      dup4\n        /* \"#utility.yul\":4948:4949   */\n      dup2\n        /* \"#utility.yul\":4945:4958   */\n      lt\n        /* \"#utility.yul\":4926:5207   */\n      iszero\n      tag_119\n      jumpi\n        /* \"#utility.yul\":5027:5033   */\n      dup2\n        /* \"#utility.yul\":5021:5034   */\n      mload\n        /* \"#utility.yul\":5054:5115   */\n      tag_120\n        /* \"#utility.yul\":5111:5114   */\n      dup9\n        /* \"#utility.yul\":5096:5109   */\n      dup3\n        /* \"#utility.yul\":5054:5115   */\n      tag_56\n      jump\t// in\n    tag_120:\n        /* \"#utility.yul\":5047:5115   */\n      swap8\n      pop\n        /* \"#utility.yul\":5138:5197   */\n      tag_121\n        /* \"#utility.yul\":5190:5196   */\n      dup4\n        /* \"#utility.yul\":5138:5197   */\n      tag_57\n      jump\t// in\n    tag_121:\n        /* \"#utility.yul\":5128:5197   */\n      swap3\n      pop\n        /* \"#utility.yul\":4986:5207   */\n      pop\n        /* \"#utility.yul\":4973:4974   */\n      0x01\n        /* \"#utility.yul\":4970:4971   */\n      dup2\n        /* \"#utility.yul\":4966:4975   */\n      add\n        /* \"#utility.yul\":4961:4975   */\n      swap1\n      pop\n        /* \"#utility.yul\":4926:5207   */\n      jump(tag_117)\n    tag_119:\n        /* \"#utility.yul\":4930:4944   */\n      pop\n        /* \"#utility.yul\":5223:5226   */\n      dup6\n        /* \"#utility.yul\":5216:5226   */\n      swap4\n      pop\n        /* \"#utility.yul\":4630:5232   */\n      pop\n      pop\n      pop\n        /* \"#utility.yul\":4508:5232   */\n      swap3\n      swap2\n      pop\n      pop\n      jump\t// out\n        /* \"#utility.yul\":5238:5607   */\n    tag_9:\n        /* \"#utility.yul\":5379:5383   */\n      0x00\n        /* \"#utility.yul\":5417:5419   */\n      0x20\n        /* \"#utility.yul\":5406:5415   */\n      dup3\n        /* \"#utility.yul\":5402:5420   */\n      add\n        /* \"#utility.yul\":5394:5420   */\n      swap1\n      pop\n        /* \"#utility.yul\":5466:5475   */\n      dup2\n        /* \"#utility.yul\":5460:5464   */\n      dup2\n        /* \"#utility.yul\":5456:5476   */\n      sub\n        /* \"#utility.yul\":5452:5453   */\n      0x00\n        /* \"#utility.yul\":5441:5450   */\n      dup4\n        /* \"#utility.yul\":5437:5454   */\n      add\n        /* \"#utility.yul\":5430:5477   */\n      mstore\n        /* \"#utility.yul\":5494:5600   */\n      tag_123\n        /* \"#utility.yul\":5595:5599   */\n      dup2\n        /* \"#utility.yul\":5586:5592   */\n      dup5\n        /* \"#utility.yul\":5494:5600   */\n      tag_58\n      jump\t// in\n    tag_123:\n        /* \"#utility.yul\":5486:5600   */\n      swap1\n      pop\n        /* \"#utility.yul\":5238:5607   */\n      swap3\n      swap2\n      pop\n      pop\n      jump\t// out\n        /* \"#utility.yul\":5613:5793   */\n    tag_16:\n        /* \"#utility.yul\":5661:5738   */\n      0x4e487b7100000000000000000000000000000000000000000000000000000000\n        /* \"#utility.yul\":5658:5659   */\n      0x00\n        /* \"#utility.yul\":5651:5739   */\n      mstore\n        /* \"#utility.yul\":5758:5762   */\n      0x32\n        /* \"#utility.yul\":5755:5756   */\n      0x04\n        /* \"#utility.yul\":5748:5763   */\n      mstore\n        /* \"#utility.yul\":5782:5786   */\n      0x24\n        /* \"#utility.yul\":5779:5780   */\n      0x00\n        /* \"#utility.yul\":5772:5787   */\n      revert\n        /* \"#utility.yul\":5799:5979   */\n    tag_59:\n        /* \"#utility.yul\":5847:5924   */\n      0x4e487b7100000000000000000000000000000000000000000000000000000000\n        /* \"#utility.yul\":5844:5845   */\n      0x00\n        /* \"#utility.yul\":5837:5925   */\n      mstore\n        /* \"#utility.yul\":5944:5948   */\n      0x12\n        /* \"#utility.yul\":5941:5942   */\n      0x04\n        /* \"#utility.yul\":5934:5949   */\n      mstore\n        /* \"#utility.yul\":5968:5972   */\n      0x24\n        /* \"#utility.yul\":5965:5966   */\n      0x00\n        /* \"#utility.yul\":5958:5973   */\n      revert\n        /* \"#utility.yul\":5985:6159   */\n    tag_18:\n        /* \"#utility.yul\":6016:6017   */\n      0x00\n        /* \"#utility.yul\":6033:6052   */\n      tag_127\n        /* \"#utility.yul\":6050:6051   */\n      dup3\n        /* \"#utility.yul\":6033:6052   */\n      tag_47\n      jump\t// in\n    tag_127:\n        /* \"#utility.yul\":6028:6052   */\n      swap2\n      pop\n        /* \"#utility.yul\":6066:6085   */\n      tag_128\n        /* \"#utility.yul\":6083:6084   */\n      dup4\n        /* \"#utility.yul\":6066:6085   */\n      tag_47\n      jump\t// in\n    tag_128:\n        /* \"#utility.yul\":6061:6085   */\n      swap3\n      pop\n        /* \"#utility.yul\":6104:6105   */\n      dup3\n        /* \"#utility.yul\":6094:6129   */\n      tag_129\n      jumpi\n        /* \"#utility.yul\":6109:6127   */\n      tag_130\n      tag_59\n      jump\t// in\n    tag_130:\n        /* \"#utility.yul\":6094:6129   */\n    tag_129:\n        /* \"#utility.yul\":6151:6152   */\n      dup3\n        /* \"#utility.yul\":6148:6149   */\n      dup3\n        /* \"#utility.yul\":6143:6153   */\n      smod\n        /* \"#utility.yul\":6138:6153   */\n      swap1\n      pop\n        /* \"#utility.yul\":5985:6159   */\n      swap3\n      swap2\n      pop\n      pop\n      jump\t// out\n        /* \"#utility.yul\":6165:6345   */\n    tag_60:\n        /* \"#utility.yul\":6213:6290   */\n      0x4e487b7100000000000000000000000000000000000000000000000000000000\n        /* \"#utility.yul\":6210:6211   */\n      0x00\n        /* \"#utility.yul\":6203:6291   */\n      mstore\n        /* \"#utility.yul\":6310:6314   */\n      0x11\n        /* \"#utility.yul\":6307:6308   */\n      0x04\n        /* \"#utility.yul\":6300:6315   */\n      mstore\n        /* \"#utility.yul\":6334:6338   */\n      0x24\n        /* \"#utility.yul\":6331:6332   */\n      0x00\n        /* \"#utility.yul\":6324:6339   */\n      revert\n        /* \"#utility.yul\":6351:6428   */\n    tag_61:\n        /* \"#utility.yul\":6388:6395   */\n      0x00\n        /* \"#utility.yul\":6417:6422   */\n      dup2\n        /* \"#utility.yul\":6406:6422   */\n      swap1\n      pop\n        /* \"#utility.yul\":6351:6428   */\n      swap2\n      swap1\n      pop\n      jump\t// out\n        /* \"#utility.yul\":6434:6667   */\n    tag_21:\n        /* \"#utility.yul\":6473:6476   */\n      0x00\n        /* \"#utility.yul\":6496:6520   */\n      tag_134\n        /* \"#utility.yul\":6514:6519   */\n      dup3\n        /* \"#utility.yul\":6496:6520   */\n      tag_61\n      jump\t// in\n    tag_134:\n        /* \"#utility.yul\":6487:6520   */\n      swap2\n      pop\n        /* \"#utility.yul\":6542:6608   */\n      0xffffffffffffffffffffffffffffffffffffffffffffffffffffffffffffffff\n        /* \"#utility.yul\":6535:6540   */\n      dup3\n        /* \"#utility.yul\":6532:6609   */\n      sub\n        /* \"#utility.yul\":6529:6632   */\n      tag_135\n      jumpi\n        /* \"#utility.yul\":6612:6630   */\n      tag_136\n      tag_60\n      jump\t// in\n    tag_136:\n        /* \"#utility.yul\":6529:6632   */\n    tag_135:\n        /* \"#utility.yul\":6659:6660   */\n      0x01\n        /* \"#utility.yul\":6652:6657   */\n      dup3\n        /* \"#utility.yul\":6648:6661   */\n      add\n        /* \"#utility.yul\":6641:6661   */\n      swap1\n      pop\n        /* \"#utility.yul\":6434:6667   */\n      swap2\n      swap1\n      pop\n      jump\t// out\n\n    auxdata: 0xa2646970667358221220cd658878cc6896b384e45fbb4097a930076ba0e32ebeeefbe8582735441135bb64736f6c634300081a0033\n}\n",
				"bytecode": {
					"linkReferences": {},
					"object": "6080604052348015600e575f80fd5b5061058b8061001c5f395ff3fe608060405234801561000f575f80fd5b5060043610610029575f3560e01c80639edb2e4e1461002d575b5f80fd5b61004760048036038101906100429190610330565b61005d565b604051610054919061042e565b60405180910390f35b60605f805b83518110156100b4575f60028583815181106100815761008061044e565b5b602002602001015161009391906104a8565b036100a75781806100a39061050e565b9250505b8080600101915050610062565b505f8167ffffffffffffffff8111156100d0576100cf6101c1565b5b6040519080825280602002602001820160405280156100fe5781602001602082028036833780820191505090505b5090505f805b8551811015610190575f60028783815181106101235761012261044e565b5b602002602001015161013591906104a8565b036101835785818151811061014d5761014c61044e565b5b60200260200101518383815181106101685761016761044e565b5b602002602001018181525050818061017f9061050e565b9250505b8080600101915050610104565b50819350505050919050565b5f604051905090565b5f80fd5b5f80fd5b5f80fd5b5f601f19601f8301169050919050565b7f4e487b71000000000000000000000000000000000000000000000000000000005f52604160045260245ffd5b6101f7826101b1565b810181811067ffffffffffffffff82111715610216576102156101c1565b5b80604052505050565b5f61022861019c565b905061023482826101ee565b919050565b5f67ffffffffffffffff821115610253576102526101c1565b5b602082029050602081019050919050565b5f80fd5b5f819050919050565b61027a81610268565b8114610284575f80fd5b50565b5f8135905061029581610271565b92915050565b5f6102ad6102a884610239565b61021f565b905080838252602082019050602084028301858111156102d0576102cf610264565b5b835b818110156102f957806102e58882610287565b8452602084019350506020810190506102d2565b5050509392505050565b5f82601f830112610317576103166101ad565b5b813561032784826020860161029b565b91505092915050565b5f60208284031215610345576103446101a5565b5b5f82013567ffffffffffffffff811115610362576103616101a9565b5b61036e84828501610303565b91505092915050565b5f81519050919050565b5f82825260208201905092915050565b5f819050602082019050919050565b6103a981610268565b82525050565b5f6103ba83836103a0565b60208301905092915050565b5f602082019050919050565b5f6103dc82610377565b6103e68185610381565b93506103f183610391565b805f5b8381101561042157815161040888826103af565b9750610413836103c6565b9250506001810190506103f4565b5085935050505092915050565b5f6020820190508181035f83015261044681846103d2565b905092915050565b7f4e487b71000000000000000000000000000000000000000000000000000000005f52603260045260245ffd5b7f4e487b71000000000000000000000000000000000000000000000000000000005f52601260045260245ffd5b5f6104b282610268565b91506104bd83610268565b9250826104cd576104cc61047b565b5b828207905092915050565b7f4e487b71000000000000000000000000000000000000000000000000000000005f52601160045260245ffd5b5f819050919050565b5f61051882610505565b91507fffffffffffffffffffffffffffffffffffffffffffffffffffffffffffffffff820361054a576105496104d8565b5b60018201905091905056fea2646970667358221220cd658878cc6896b384e45fbb4097a930076ba0e32ebeeefbe8582735441135bb64736f6c634300081a0033",
					"opcodes": "PUSH1 0x80 PUSH1 0x40 MSTORE CALLVALUE DUP1 ISZERO PUSH1 0xE JUMPI PUSH0 DUP1 REVERT JUMPDEST POP PUSH2 0x58B DUP1 PUSH2 0x1C PUSH0 CODECOPY PUSH0 RETURN INVALID PUSH1 0x80 PUSH1 0x40 MSTORE CALLVALUE DUP1 ISZERO PUSH2 0xF JUMPI PUSH0 DUP1 REVERT JUMPDEST POP PUSH1 0x4 CALLDATASIZE LT PUSH2 0x29 JUMPI PUSH0 CALLDATALOAD PUSH1 0xE0 SHR DUP1 PUSH4 0x9EDB2E4E EQ PUSH2 0x2D JUMPI JUMPDEST PUSH0 DUP1 REVERT JUMPDEST PUSH2 0x47 PUSH1 0x4 DUP1 CALLDATASIZE SUB DUP2 ADD SWAP1 PUSH2 0x42 SWAP2 SWAP1 PUSH2 0x330 JUMP JUMPDEST PUSH2 0x5D JUMP JUMPDEST PUSH1 0x40 MLOAD PUSH2 0x54 SWAP2 SWAP1 PUSH2 0x42E JUMP JUMPDEST PUSH1 0x40 MLOAD DUP1 SWAP2 SUB SWAP1 RETURN JUMPDEST PUSH1 0x60 PUSH0 DUP1 JUMPDEST DUP4 MLOAD DUP2 LT ISZERO PUSH2 0xB4 JUMPI PUSH0 PUSH1 0x2 DUP6 DUP4 DUP2 MLOAD DUP2 LT PUSH2 0x81 JUMPI PUSH2 0x80 PUSH2 0x44E JUMP JUMPDEST JUMPDEST PUSH1 0x20 MUL PUSH1 0x20 ADD ADD MLOAD PUSH2 0x93 SWAP2 SWAP1 PUSH2 0x4A8 JUMP JUMPDEST SUB PUSH2 0xA7 JUMPI DUP2 DUP1 PUSH2 0xA3 SWAP1 PUSH2 0x50E JUMP JUMPDEST SWAP3 POP POP JUMPDEST DUP1 DUP1 PUSH1 0x1 ADD SWAP2 POP POP PUSH2 0x62 JUMP JUMPDEST POP PUSH0 DUP2 PUSH8 0xFFFFFFFFFFFFFFFF DUP2 GT ISZERO PUSH2 0xD0 JUMPI PUSH2 0xCF PUSH2 0x1C1 JUMP JUMPDEST JUMPDEST PUSH1 0x40 MLOAD SWAP1 DUP1 DUP3 MSTORE DUP1 PUSH1 0x20 MUL PUSH1 0x20 ADD DUP3 ADD PUSH1 0x40 MSTORE DUP1 ISZERO PUSH2 0xFE JUMPI DUP2 PUSH1 0x20 ADD PUSH1 0x20 DUP3 MUL DUP1 CALLDATASIZE DUP4 CALLDATACOPY DUP1 DUP3 ADD SWAP2 POP POP SWAP1 POP JUMPDEST POP SWAP1 POP PUSH0 DUP1 JUMPDEST DUP6 MLOAD DUP2 LT ISZERO PUSH2 0x190 JUMPI PUSH0 PUSH1 0x2 DUP8 DUP4 DUP2 MLOAD DUP2 LT PUSH2 0x123 JUMPI PUSH2 0x122 PUSH2 0x44E JUMP JUMPDEST JUMPDEST PUSH1 0x20 MUL PUSH1 0x20 ADD ADD MLOAD PUSH2 0x135 SWAP2 SWAP1 PUSH2 0x4A8 JUMP JUMPDEST SUB PUSH2 0x183 JUMPI DUP6 DUP2 DUP2 MLOAD DUP2 LT PUSH2 0x14D JUMPI PUSH2 0x14C PUSH2 0x44E JUMP JUMPDEST JUMPDEST PUSH1 0x20 MUL PUSH1 0x20 ADD ADD MLOAD DUP4 DUP4 DUP2 MLOAD DUP2 LT PUSH2 0x168 JUMPI PUSH2 0x167 PUSH2 0x44E JUMP JUMPDEST JUMPDEST PUSH1 0x20 MUL PUSH1 0x20 ADD ADD DUP2 DUP2 MSTORE POP POP DUP2 DUP1 PUSH2 0x17F SWAP1 PUSH2 0x50E JUMP JUMPDEST SWAP3 POP POP JUMPDEST DUP1 DUP1 PUSH1 0x1 ADD SWAP2 POP POP PUSH2 0x104 JUMP JUMPDEST POP DUP2 SWAP4 POP POP POP POP SWAP2 SWAP1 POP JUMP JUMPDEST PUSH0 PUSH1 0x40 MLOAD SWAP1 POP SWAP1 JUMP JUMPDEST PUSH0 DUP1 REVERT JUMPDEST PUSH0 DUP1 REVERT JUMPDEST PUSH0 DUP1 REVERT JUMPDEST PUSH0 PUSH1 0x1F NOT PUSH1 0x1F DUP4 ADD AND SWAP1 POP SWAP2 SWAP1 POP JUMP JUMPDEST PUSH32 0x4E487B7100000000000000000000000000000000000000000000000000000000 PUSH0 MSTORE PUSH1 0x41 PUSH1 0x4 MSTORE PUSH1 0x24 PUSH0 REVERT JUMPDEST PUSH2 0x1F7 DUP3 PUSH2 0x1B1 JUMP JUMPDEST DUP2 ADD DUP2 DUP2 LT PUSH8 0xFFFFFFFFFFFFFFFF DUP3 GT OR ISZERO PUSH2 0x216 JUMPI PUSH2 0x215 PUSH2 0x1C1 JUMP JUMPDEST JUMPDEST DUP1 PUSH1 0x40 MSTORE POP POP POP JUMP JUMPDEST PUSH0 PUSH2 0x228 PUSH2 0x19C JUMP JUMPDEST SWAP1 POP PUSH2 0x234 DUP3 DUP3 PUSH2 0x1EE JUMP JUMPDEST SWAP2 SWAP1 POP JUMP JUMPDEST PUSH0 PUSH8 0xFFFFFFFFFFFFFFFF DUP3 GT ISZERO PUSH2 0x253 JUMPI PUSH2 0x252 PUSH2 0x1C1 JUMP JUMPDEST JUMPDEST PUSH1 0x20 DUP3 MUL SWAP1 POP PUSH1 0x20 DUP2 ADD SWAP1 POP SWAP2 SWAP1 POP JUMP JUMPDEST PUSH0 DUP1 REVERT JUMPDEST PUSH0 DUP2 SWAP1 POP SWAP2 SWAP1 POP JUMP JUMPDEST PUSH2 0x27A DUP2 PUSH2 0x268 JUMP JUMPDEST DUP2 EQ PUSH2 0x284 JUMPI PUSH0 DUP1 REVERT JUMPDEST POP JUMP JUMPDEST PUSH0 DUP2 CALLDATALOAD SWAP1 POP PUSH2 0x295 DUP2 PUSH2 0x271 JUMP JUMPDEST SWAP3 SWAP2 POP POP JUMP JUMPDEST PUSH0 PUSH2 0x2AD PUSH2 0x2A8 DUP5 PUSH2 0x239 JUMP JUMPDEST PUSH2 0x21F JUMP JUMPDEST SWAP1 POP DUP1 DUP4 DUP3 MSTORE PUSH1 0x20 DUP3 ADD SWAP1 POP PUSH1 0x20 DUP5 MUL DUP4 ADD DUP6 DUP2 GT ISZERO PUSH2 0x2D0 JUMPI PUSH2 0x2CF PUSH2 0x264 JUMP JUMPDEST JUMPDEST DUP4 JUMPDEST DUP2 DUP2 LT ISZERO PUSH2 0x2F9 JUMPI DUP1 PUSH2 0x2E5 DUP9 DUP3 PUSH2 0x287 JUMP JUMPDEST DUP5 MSTORE PUSH1 0x20 DUP5 ADD SWAP4 POP POP PUSH1 0x20 DUP2 ADD SWAP1 POP PUSH2 0x2D2 JUMP JUMPDEST POP POP POP SWAP4 SWAP3 POP POP POP JUMP JUMPDEST PUSH0 DUP3 PUSH1 0x1F DUP4 ADD SLT PUSH2 0x317 JUMPI PUSH2 0x316 PUSH2 0x1AD JUMP JUMPDEST JUMPDEST DUP2 CALLDATALOAD PUSH2 0x327 DUP5 DUP3 PUSH1 0x20 DUP7 ADD PUSH2 0x29B JUMP JUMPDEST SWAP2 POP POP SWAP3 SWAP2 POP POP JUMP JUMPDEST PUSH0 PUSH1 0x20 DUP3 DUP5 SUB SLT ISZERO PUSH2 0x345 JUMPI PUSH2 0x344 PUSH2 0x1A5 JUMP JUMPDEST JUMPDEST PUSH0 DUP3 ADD CALLDATALOAD PUSH8 0xFFFFFFFFFFFFFFFF DUP2 GT ISZERO PUSH2 0x362 JUMPI PUSH2 0x361 PUSH2 0x1A9 JUMP JUMPDEST JUMPDEST PUSH2 0x36E DUP5 DUP3 DUP6 ADD PUSH2 0x303 JUMP JUMPDEST SWAP2 POP POP SWAP3 SWAP2 POP POP JUMP JUMPDEST PUSH0 DUP2 MLOAD SWAP1 POP SWAP2 SWAP1 POP JUMP JUMPDEST PUSH0 DUP3 DUP3 MSTORE PUSH1 0x20 DUP3 ADD SWAP1 POP SWAP3 SWAP2 POP POP JUMP JUMPDEST PUSH0 DUP2 SWAP1 POP PUSH1 0x20 DUP3 ADD SWAP1 POP SWAP2 SWAP1 POP JUMP JUMPDEST PUSH2 0x3A9 DUP2 PUSH2 0x268 JUMP JUMPDEST DUP3 MSTORE POP POP JUMP JUMPDEST PUSH0 PUSH2 0x3BA DUP4 DUP4 PUSH2 0x3A0 JUMP JUMPDEST PUSH1 0x20 DUP4 ADD SWAP1 POP SWAP3 SWAP2 POP POP JUMP JUMPDEST PUSH0 PUSH1 0x20 DUP3 ADD SWAP1 POP SWAP2 SWAP1 POP JUMP JUMPDEST PUSH0 PUSH2 0x3DC DUP3 PUSH2 0x377 JUMP JUMPDEST PUSH2 0x3E6 DUP2 DUP6 PUSH2 0x381 JUMP JUMPDEST SWAP4 POP PUSH2 0x3F1 DUP4 PUSH2 0x391 JUMP JUMPDEST DUP1 PUSH0 JUMPDEST DUP4 DUP2 LT ISZERO PUSH2 0x421 JUMPI DUP2 MLOAD PUSH2 0x408 DUP9 DUP3 PUSH2 0x3AF JUMP JUMPDEST SWAP8 POP PUSH2 0x413 DUP4 PUSH2 0x3C6 JUMP JUMPDEST SWAP3 POP POP PUSH1 0x1 DUP2 ADD SWAP1 POP PUSH2 0x3F4 JUMP JUMPDEST POP DUP6 SWAP4 POP POP POP POP SWAP3 SWAP2 POP POP JUMP JUMPDEST PUSH0 PUSH1 0x20 DUP3 ADD SWAP1 POP DUP2 DUP2 SUB PUSH0 DUP4 ADD MSTORE PUSH2 0x446 DUP2 DUP5 PUSH2 0x3D2 JUMP JUMPDEST SWAP1 POP SWAP3 SWAP2 POP POP JUMP JUMPDEST PUSH32 0x4E487B7100000000000000000000000000000000000000000000000000000000 PUSH0 MSTORE PUSH1 0x32 PUSH1 0x4 MSTORE PUSH1 0x24 PUSH0 REVERT JUMPDEST PUSH32 0x4E487B7100000000000000000000000000000000000000000000000000000000 PUSH0 MSTORE PUSH1 0x12 PUSH1 0x4 MSTORE PUSH1 0x24 PUSH0 REVERT JUMPDEST PUSH0 PUSH2 0x4B2 DUP3 PUSH2 0x268 JUMP JUMPDEST SWAP2 POP PUSH2 0x4BD DUP4 PUSH2 0x268 JUMP JUMPDEST SWAP3 POP DUP3 PUSH2 0x4CD JUMPI PUSH2 0x4CC PUSH2 0x47B JUMP JUMPDEST JUMPDEST DUP3 DUP3 SMOD SWAP1 POP SWAP3 SWAP2 POP POP JUMP JUMPDEST PUSH32 0x4E487B7100000000000000000000000000000000000000000000000000000000 PUSH0 MSTORE PUSH1 0x11 PUSH1 0x4 MSTORE PUSH1 0x24 PUSH0 REVERT JUMPDEST PUSH0 DUP2 SWAP1 POP SWAP2 SWAP1 POP JUMP JUMPDEST PUSH0 PUSH2 0x518 DUP3 PUSH2 0x505 JUMP JUMPDEST SWAP2 POP PUSH32 0xFFFFFFFFFFFFFFFFFFFFFFFFFFFFFFFFFFFFFFFFFFFFFFFFFFFFFFFFFFFFFFFF DUP3 SUB PUSH2 0x54A JUMPI PUSH2 0x549 PUSH2 0x4D8 JUMP JUMPDEST JUMPDEST PUSH1 0x1 DUP3 ADD SWAP1 POP SWAP2 SWAP1 POP JUMP INVALID LOG2 PUSH5 0x6970667358 0x22 SLT KECCAK256 0xCD PUSH6 0x8878CC6896B3 DUP5 0xE4 PUSH0 0xBB BLOCKHASH SWAP8 0xA9 ADDRESS SMOD PUSH12 0xA0E32EBEEEFBE85827354411 CALLDATALOAD 0xBB PUSH5 0x736F6C6343 STOP ADDMOD BYTE STOP CALLER "
				},
				"gasEstimates": {
					"creation": {
						"codeDepositCost": "283800",
						"executionCost": "322",
						"totalCost": "284122"
					},
					"external": {
						"filterEvenNumbers(int256[])": "infinite"
					}
				},
				"methodIdentifiers": {
					"filterEvenNumbers(int256[])": "9edb2e4e"
				}
			},
			"storageLayout": {
				"storage": [],
				"types": null
			},
			"userdoc": {
				"kind": "user",
				"methods": {},
				"version": 1
			}
		}
	}
}