{
	"week6task2.sol": {
		"GuessingGameWithBetting": {
			"abi": [
				{
					"inputs": [
						{
							"internalType": "uint256",
							"name": "_minBet",
							"type": "uint256"
						},
						{
							"internalType": "uint256",
							"name": "_maxBet",
							"type": "uint256"
						}
					],
					"stateMutability": "nonpayable",
					"type": "constructor"
				},
				{
					"inputs": [],
					"name": "entropy",
					"outputs": [
						{
							"internalType": "uint256",
							"name": "",
							"type": "uint256"
						}
					],
					"stateMutability": "view",
					"type": "function"
				},
				{
					"inputs": [],
					"name": "getBalance",
					"outputs": [
						{
							"internalType": "uint256",
							"name": "",
							"type": "uint256"
						}
					],
					"stateMutability": "view",
					"type": "function"
				},
				{
					"inputs": [],
					"name": "getWinners",
					"outputs": [
						{
							"components": [
								{
									"internalType": "address",
									"name": "playerAddress",
									"type": "address"
								},
								{
									"internalType": "uint8",
									"name": "guessedNumber",
									"type": "uint8"
								}
							],
							"internalType": "struct GuessingGameWithBetting.Player[]",
							"name": "",
							"type": "tuple[]"
						}
					],
					"stateMutability": "view",
					"type": "function"
				},
				{
					"inputs": [],
					"name": "maxBet",
					"outputs": [
						{
							"internalType": "uint256",
							"name": "",
							"type": "uint256"
						}
					],
					"stateMutability": "view",
					"type": "function"
				},
				{
					"inputs": [],
					"name": "minBet",
					"outputs": [
						{
							"internalType": "uint256",
							"name": "",
							"type": "uint256"
						}
					],
					"stateMutability": "view",
					"type": "function"
				},
				{
					"inputs": [],
					"name": "owner",
					"outputs": [
						{
							"internalType": "address",
							"name": "",
							"type": "address"
						}
					],
					"stateMutability": "view",
					"type": "function"
				},
				{
					"inputs": [
						{
							"internalType": "uint8",
							"name": "_number",
							"type": "uint8"
						}
					],
					"name": "play",
					"outputs": [],
					"stateMutability": "payable",
					"type": "function"
				},
				{
					"inputs": [
						{
							"internalType": "uint256",
							"name": "",
							"type": "uint256"
						}
					],
					"name": "players",
					"outputs": [
						{
							"internalType": "address",
							"name": "playerAddress",
							"type": "address"
						},
						{
							"internalType": "uint8",
							"name": "guessedNumber",
							"type": "uint8"
						}
					],
					"stateMutability": "view",
					"type": "function"
				},
				{
					"inputs": [
						{
							"internalType": "uint256",
							"name": "_minBet",
							"type": "uint256"
						},
						{
							"internalType": "uint256",
							"name": "_maxBet",
							"type": "uint256"
						}
					],
					"name": "setBet",
					"outputs": [],
					"stateMutability": "nonpayable",
					"type": "function"
				},
				{
					"inputs": [],
					"name": "sumBet",
					"outputs": [
						{
							"internalType": "uint256",
							"name": "",
							"type": "uint256"
						}
					],
					"stateMutability": "view",
					"type": "function"
				},
				{
					"inputs": [
						{
							"internalType": "uint256",
							"name": "",
							"type": "uint256"
						}
					],
					"name": "winners",
					"outputs": [
						{
							"internalType": "address",
							"name": "playerAddress",
							"type": "address"
						},
						{
							"internalType": "uint8",
							"name": "guessedNumber",
							"type": "uint8"
						}
					],
					"stateMutability": "view",
					"type": "function"
				},
				{
					"inputs": [],
					"name": "withdraw",
					"outputs": [],
					"stateMutability": "nonpayable",
					"type": "function"
				}
			],
			"devdoc": {
				"kind": "dev",
				"methods": {},
				"version": 1
			},
			"evm": {
				"assembly": "    /* \"week6task2.sol\":60:2760  contract GuessingGameWithBetting {... */\n  mstore(0x40, 0x80)\n    /* \"week6task2.sol\":510:647  constructor(uint256 _minBet, uint256 _maxBet) {... */\n  callvalue\n  dup1\n  iszero\n  tag_1\n  jumpi\n  0x00\n  dup1\n  revert\ntag_1:\n  pop\n  mload(0x40)\n  sub(codesize, bytecodeSize)\n  dup1\n  bytecodeSize\n  dup4\n  codecopy\n  dup2\n  dup2\n  add\n  0x40\n  mstore\n  dup2\n  add\n  swap1\n  tag_2\n  swap2\n  swap1\n  tag_3\n  jump\t// in\ntag_2:\n    /* \"week6task2.sol\":575:585  msg.sender */\n  caller\n    /* \"week6task2.sol\":567:572  owner */\n  0x04\n  0x00\n    /* \"week6task2.sol\":567:585  owner = msg.sender */\n  0x0100\n  exp\n  dup2\n  sload\n  dup2\n  0xffffffffffffffffffffffffffffffffffffffff\n  mul\n  not\n  and\n  swap1\n  dup4\n  0xffffffffffffffffffffffffffffffffffffffff\n  and\n  mul\n  or\n  swap1\n  sstore\n  pop\n    /* \"week6task2.sol\":605:612  _minBet */\n  dup2\n    /* \"week6task2.sol\":596:602  minBet */\n  0x02\n    /* \"week6task2.sol\":596:612  minBet = _minBet */\n  dup2\n  swap1\n  sstore\n  pop\n    /* \"week6task2.sol\":632:639  _maxBet */\n  dup1\n    /* \"week6task2.sol\":623:629  maxBet */\n  0x03\n    /* \"week6task2.sol\":623:639  maxBet = _maxBet */\n  dup2\n  swap1\n  sstore\n  pop\n    /* \"week6task2.sol\":510:647  constructor(uint256 _minBet, uint256 _maxBet) {... */\n  pop\n  pop\n    /* \"week6task2.sol\":60:2760  contract GuessingGameWithBetting {... */\n  jump(tag_6)\n    /* \"#utility.yul\":88:205   */\ntag_8:\n    /* \"#utility.yul\":197:198   */\n  0x00\n    /* \"#utility.yul\":194:195   */\n  dup1\n    /* \"#utility.yul\":187:199   */\n  revert\n    /* \"#utility.yul\":334:411   */\ntag_10:\n    /* \"#utility.yul\":371:378   */\n  0x00\n    /* \"#utility.yul\":400:405   */\n  dup2\n    /* \"#utility.yul\":389:405   */\n  swap1\n  pop\n    /* \"#utility.yul\":334:411   */\n  swap2\n  swap1\n  pop\n  jump\t// out\n    /* \"#utility.yul\":417:539   */\ntag_11:\n    /* \"#utility.yul\":490:514   */\n  tag_19\n    /* \"#utility.yul\":508:513   */\n  dup2\n    /* \"#utility.yul\":490:514   */\n  tag_10\n  jump\t// in\ntag_19:\n    /* \"#utility.yul\":483:488   */\n  dup2\n    /* \"#utility.yul\":480:515   */\n  eq\n    /* \"#utility.yul\":470:533   */\n  tag_20\n  jumpi\n    /* \"#utility.yul\":529:530   */\n  0x00\n    /* \"#utility.yul\":526:527   */\n  dup1\n    /* \"#utility.yul\":519:531   */\n  revert\n    /* \"#utility.yul\":470:533   */\ntag_20:\n    /* \"#utility.yul\":417:539   */\n  pop\n  jump\t// out\n    /* \"#utility.yul\":545:688   */\ntag_12:\n    /* \"#utility.yul\":602:607   */\n  0x00\n    /* \"#utility.yul\":633:639   */\n  dup2\n    /* \"#utility.yul\":627:640   */\n  mload\n    /* \"#utility.yul\":618:640   */\n  swap1\n  pop\n    /* \"#utility.yul\":649:682   */\n  tag_22\n    /* \"#utility.yul\":676:681   */\n  dup2\n    /* \"#utility.yul\":649:682   */\n  tag_11\n  jump\t// in\ntag_22:\n    /* \"#utility.yul\":545:688   */\n  swap3\n  swap2\n  pop\n  pop\n  jump\t// out\n    /* \"#utility.yul\":694:1201   */\ntag_3:\n    /* \"#utility.yul\":773:779   */\n  0x00\n    /* \"#utility.yul\":781:787   */\n  dup1\n    /* \"#utility.yul\":830:832   */\n  0x40\n    /* \"#utility.yul\":818:827   */\n  dup4\n    /* \"#utility.yul\":809:816   */\n  dup6\n    /* \"#utility.yul\":805:828   */\n  sub\n    /* \"#utility.yul\":801:833   */\n  slt\n    /* \"#utility.yul\":798:917   */\n  iszero\n  tag_24\n  jumpi\n    /* \"#utility.yul\":836:915   */\n  tag_25\n  tag_8\n  jump\t// in\ntag_25:\n    /* \"#utility.yul\":798:917   */\ntag_24:\n    /* \"#utility.yul\":956:957   */\n  0x00\n    /* \"#utility.yul\":981:1045   */\n  tag_26\n    /* \"#utility.yul\":1037:1044   */\n  dup6\n    /* \"#utility.yul\":1028:1034   */\n  dup3\n    /* \"#utility.yul\":1017:1026   */\n  dup7\n    /* \"#utility.yul\":1013:1035   */\n  add\n    /* \"#utility.yul\":981:1045   */\n  tag_12\n  jump\t// in\ntag_26:\n    /* \"#utility.yul\":971:1045   */\n  swap3\n  pop\n    /* \"#utility.yul\":927:1055   */\n  pop\n    /* \"#utility.yul\":1094:1096   */\n  0x20\n    /* \"#utility.yul\":1120:1184   */\n  tag_27\n    /* \"#utility.yul\":1176:1183   */\n  dup6\n    /* \"#utility.yul\":1167:1173   */\n  dup3\n    /* \"#utility.yul\":1156:1165   */\n  dup7\n    /* \"#utility.yul\":1152:1174   */\n  add\n    /* \"#utility.yul\":1120:1184   */\n  tag_12\n  jump\t// in\ntag_27:\n    /* \"#utility.yul\":1110:1184   */\n  swap2\n  pop\n    /* \"#utility.yul\":1065:1194   */\n  pop\n    /* \"#utility.yul\":694:1201   */\n  swap3\n  pop\n  swap3\n  swap1\n  pop\n  jump\t// out\n    /* \"week6task2.sol\":60:2760  contract GuessingGameWithBetting {... */\ntag_6:\n  dataSize(sub_0)\n  dup1\n  dataOffset(sub_0)\n  0x00\n  codecopy\n  0x00\n  return\nstop\n\nsub_0: assembly {\n        /* \"week6task2.sol\":60:2760  contract GuessingGameWithBetting {... */\n      mstore(0x40, 0x80)\n      jumpi(tag_1, lt(calldatasize, 0x04))\n      shr(0xe0, calldataload(0x00))\n      dup1\n      0x54965b85\n      gt\n      tag_14\n      jumpi\n      dup1\n      0x54965b85\n      eq\n      tag_8\n      jumpi\n      dup1\n      0x8da5cb5b\n      eq\n      tag_9\n      jumpi\n      dup1\n      0x9619367d\n      eq\n      tag_10\n      jumpi\n      dup1\n      0xa2fb1175\n      eq\n      tag_11\n      jumpi\n      dup1\n      0xdf15c37e\n      eq\n      tag_12\n      jumpi\n      dup1\n      0xf71d96cb\n      eq\n      tag_13\n      jumpi\n      jump(tag_1)\n    tag_14:\n      dup1\n      0x102ad5d7\n      eq\n      tag_2\n      jumpi\n      dup1\n      0x12065fe0\n      eq\n      tag_3\n      jumpi\n      dup1\n      0x2e5b2168\n      eq\n      tag_4\n      jumpi\n      dup1\n      0x3ccfd60b\n      eq\n      tag_5\n      jumpi\n      dup1\n      0x47ce07cc\n      eq\n      tag_6\n      jumpi\n      dup1\n      0x53a04b05\n      eq\n      tag_7\n      jumpi\n    tag_1:\n      0x00\n      dup1\n      revert\n        /* \"week6task2.sol\":129:150  uint256 public sumBet */\n    tag_2:\n      callvalue\n      dup1\n      iszero\n      tag_15\n      jumpi\n      0x00\n      dup1\n      revert\n    tag_15:\n      pop\n      tag_16\n      tag_17\n      jump\t// in\n    tag_16:\n      mload(0x40)\n      tag_18\n      swap2\n      swap1\n      tag_19\n      jump\t// in\n    tag_18:\n      mload(0x40)\n      dup1\n      swap2\n      sub\n      swap1\n      return\n        /* \"week6task2.sol\":2547:2656  function getBalance() public view onlyOwner returns (uint256) {... */\n    tag_3:\n      callvalue\n      dup1\n      iszero\n      tag_20\n      jumpi\n      0x00\n      dup1\n      revert\n    tag_20:\n      pop\n      tag_21\n      tag_22\n      jump\t// in\n    tag_21:\n      mload(0x40)\n      tag_23\n      swap2\n      swap1\n      tag_19\n      jump\t// in\n    tag_23:\n      mload(0x40)\n      dup1\n      swap2\n      sub\n      swap1\n      return\n        /* \"week6task2.sol\":185:206  uint256 public maxBet */\n    tag_4:\n      callvalue\n      dup1\n      iszero\n      tag_24\n      jumpi\n      0x00\n      dup1\n      revert\n    tag_24:\n      pop\n      tag_25\n      tag_26\n      jump\t// in\n    tag_25:\n      mload(0x40)\n      tag_27\n      swap2\n      swap1\n      tag_19\n      jump\t// in\n    tag_27:\n      mload(0x40)\n      dup1\n      swap2\n      sub\n      swap1\n      return\n        /* \"week6task2.sol\":2318:2539  function withdraw() public onlyOwner {... */\n    tag_5:\n      callvalue\n      dup1\n      iszero\n      tag_28\n      jumpi\n      0x00\n      dup1\n      revert\n    tag_28:\n      pop\n      tag_29\n      tag_30\n      jump\t// in\n    tag_29:\n      stop\n        /* \"week6task2.sol\":100:122  uint256 public entropy */\n    tag_6:\n      callvalue\n      dup1\n      iszero\n      tag_31\n      jumpi\n      0x00\n      dup1\n      revert\n    tag_31:\n      pop\n      tag_32\n      tag_33\n      jump\t// in\n    tag_32:\n      mload(0x40)\n      tag_34\n      swap2\n      swap1\n      tag_19\n      jump\t// in\n    tag_34:\n      mload(0x40)\n      dup1\n      swap2\n      sub\n      swap1\n      return\n        /* \"week6task2.sol\":655:1388  function play(uint8 _number) public payable {... */\n    tag_7:\n      tag_35\n      0x04\n      dup1\n      calldatasize\n      sub\n      dup2\n      add\n      swap1\n      tag_36\n      swap2\n      swap1\n      tag_37\n      jump\t// in\n    tag_36:\n      tag_38\n      jump\t// in\n    tag_35:\n      stop\n        /* \"week6task2.sol\":2117:2310  function setBet(uint256 _minBet, uint256 _maxBet) public onlyOwner {... */\n    tag_8:\n      callvalue\n      dup1\n      iszero\n      tag_39\n      jumpi\n      0x00\n      dup1\n      revert\n    tag_39:\n      pop\n      tag_40\n      0x04\n      dup1\n      calldatasize\n      sub\n      dup2\n      add\n      swap1\n      tag_41\n      swap2\n      swap1\n      tag_42\n      jump\t// in\n    tag_41:\n      tag_43\n      jump\t// in\n    tag_40:\n      stop\n        /* \"week6task2.sol\":213:233  address public owner */\n    tag_9:\n      callvalue\n      dup1\n      iszero\n      tag_44\n      jumpi\n      0x00\n      dup1\n      revert\n    tag_44:\n      pop\n      tag_45\n      tag_46\n      jump\t// in\n    tag_45:\n      mload(0x40)\n      tag_47\n      swap2\n      swap1\n      tag_48\n      jump\t// in\n    tag_47:\n      mload(0x40)\n      dup1\n      swap2\n      sub\n      swap1\n      return\n        /* \"week6task2.sol\":157:178  uint256 public minBet */\n    tag_10:\n      callvalue\n      dup1\n      iszero\n      tag_49\n      jumpi\n      0x00\n      dup1\n      revert\n    tag_49:\n      pop\n      tag_50\n      tag_51\n      jump\t// in\n    tag_50:\n      mload(0x40)\n      tag_52\n      swap2\n      swap1\n      tag_19\n      jump\t// in\n    tag_52:\n      mload(0x40)\n      dup1\n      swap2\n      sub\n      swap1\n      return\n        /* \"week6task2.sol\":364:387  Player[] public winners */\n    tag_11:\n      callvalue\n      dup1\n      iszero\n      tag_53\n      jumpi\n      0x00\n      dup1\n      revert\n    tag_53:\n      pop\n      tag_54\n      0x04\n      dup1\n      calldatasize\n      sub\n      dup2\n      add\n      swap1\n      tag_55\n      swap2\n      swap1\n      tag_56\n      jump\t// in\n    tag_55:\n      tag_57\n      jump\t// in\n    tag_54:\n      mload(0x40)\n      tag_58\n      swap3\n      swap2\n      swap1\n      tag_59\n      jump\t// in\n    tag_58:\n      mload(0x40)\n      dup1\n      swap2\n      sub\n      swap1\n      return\n        /* \"week6task2.sol\":2664:2757  function getWinners() public view returns (Player[] memory) {... */\n    tag_12:\n      callvalue\n      dup1\n      iszero\n      tag_60\n      jumpi\n      0x00\n      dup1\n      revert\n    tag_60:\n      pop\n      tag_61\n      tag_62\n      jump\t// in\n    tag_61:\n      mload(0x40)\n      tag_63\n      swap2\n      swap1\n      tag_64\n      jump\t// in\n    tag_63:\n      mload(0x40)\n      dup1\n      swap2\n      sub\n      swap1\n      return\n        /* \"week6task2.sol\":334:357  Player[] public players */\n    tag_13:\n      callvalue\n      dup1\n      iszero\n      tag_65\n      jumpi\n      0x00\n      dup1\n      revert\n    tag_65:\n      pop\n      tag_66\n      0x04\n      dup1\n      calldatasize\n      sub\n      dup2\n      add\n      swap1\n      tag_67\n      swap2\n      swap1\n      tag_56\n      jump\t// in\n    tag_67:\n      tag_68\n      jump\t// in\n    tag_66:\n      mload(0x40)\n      tag_69\n      swap3\n      swap2\n      swap1\n      tag_59\n      jump\t// in\n    tag_69:\n      mload(0x40)\n      dup1\n      swap2\n      sub\n      swap1\n      return\n        /* \"week6task2.sol\":129:150  uint256 public sumBet */\n    tag_17:\n      sload(0x01)\n      dup2\n      jump\t// out\n        /* \"week6task2.sol\":2547:2656  function getBalance() public view onlyOwner returns (uint256) {... */\n    tag_22:\n        /* \"week6task2.sol\":2600:2607  uint256 */\n      0x00\n        /* \"week6task2.sol\":450:455  owner */\n      0x04\n      0x00\n      swap1\n      sload\n      swap1\n      0x0100\n      exp\n      swap1\n      div\n      0xffffffffffffffffffffffffffffffffffffffff\n      and\n        /* \"week6task2.sol\":436:455  msg.sender == owner */\n      0xffffffffffffffffffffffffffffffffffffffff\n      and\n        /* \"week6task2.sol\":436:446  msg.sender */\n      caller\n        /* \"week6task2.sol\":436:455  msg.sender == owner */\n      0xffffffffffffffffffffffffffffffffffffffff\n      and\n      eq\n        /* \"week6task2.sol\":428:482  require(msg.sender == owner, \"Not the contract owner\") */\n      tag_71\n      jumpi\n      mload(0x40)\n      0x08c379a000000000000000000000000000000000000000000000000000000000\n      dup2\n      mstore\n      0x04\n      add\n      tag_72\n      swap1\n      tag_73\n      jump\t// in\n    tag_72:\n      mload(0x40)\n      dup1\n      swap2\n      sub\n      swap1\n      revert\n    tag_71:\n        /* \"week6task2.sol\":2627:2648  address(this).balance */\n      selfbalance\n        /* \"week6task2.sol\":2620:2648  return address(this).balance */\n      swap1\n      pop\n        /* \"week6task2.sol\":2547:2656  function getBalance() public view onlyOwner returns (uint256) {... */\n      swap1\n      jump\t// out\n        /* \"week6task2.sol\":185:206  uint256 public maxBet */\n    tag_26:\n      sload(0x03)\n      dup2\n      jump\t// out\n        /* \"week6task2.sol\":2318:2539  function withdraw() public onlyOwner {... */\n    tag_30:\n        /* \"week6task2.sol\":450:455  owner */\n      0x04\n      0x00\n      swap1\n      sload\n      swap1\n      0x0100\n      exp\n      swap1\n      div\n      0xffffffffffffffffffffffffffffffffffffffff\n      and\n        /* \"week6task2.sol\":436:455  msg.sender == owner */\n      0xffffffffffffffffffffffffffffffffffffffff\n      and\n        /* \"week6task2.sol\":436:446  msg.sender */\n      caller\n        /* \"week6task2.sol\":436:455  msg.sender == owner */\n      0xffffffffffffffffffffffffffffffffffffffff\n      and\n      eq\n        /* \"week6task2.sol\":428:482  require(msg.sender == owner, \"Not the contract owner\") */\n      tag_76\n      jumpi\n      mload(0x40)\n      0x08c379a000000000000000000000000000000000000000000000000000000000\n      dup2\n      mstore\n      0x04\n      add\n      tag_77\n      swap1\n      tag_73\n      jump\t// in\n    tag_77:\n      mload(0x40)\n      dup1\n      swap2\n      sub\n      swap1\n      revert\n    tag_76:\n        /* \"week6task2.sol\":2366:2389  uint256 contractBalance */\n      0x00\n        /* \"week6task2.sol\":2392:2413  address(this).balance */\n      selfbalance\n        /* \"week6task2.sol\":2366:2413  uint256 contractBalance = address(this).balance */\n      swap1\n      pop\n        /* \"week6task2.sol\":2424:2450  uint256 withdrawableAmount */\n      0x00\n        /* \"week6task2.sol\":2471:2477  sumBet */\n      sload(0x01)\n        /* \"week6task2.sol\":2453:2468  contractBalance */\n      dup3\n        /* \"week6task2.sol\":2453:2477  contractBalance - sumBet */\n      tag_79\n      swap2\n      swap1\n      tag_80\n      jump\t// in\n    tag_79:\n        /* \"week6task2.sol\":2424:2477  uint256 withdrawableAmount = contractBalance - sumBet */\n      swap1\n      pop\n        /* \"week6task2.sol\":2496:2501  owner */\n      0x04\n      0x00\n      swap1\n      sload\n      swap1\n      0x0100\n      exp\n      swap1\n      div\n      0xffffffffffffffffffffffffffffffffffffffff\n      and\n        /* \"week6task2.sol\":2488:2511  payable(owner).transfer */\n      0xffffffffffffffffffffffffffffffffffffffff\n      and\n        /* \"week6task2.sol\":2488:2531  payable(owner).transfer(withdrawableAmount) */\n      0x08fc\n        /* \"week6task2.sol\":2512:2530  withdrawableAmount */\n      dup3\n        /* \"week6task2.sol\":2488:2531  payable(owner).transfer(withdrawableAmount) */\n      swap1\n      dup2\n      iszero\n      mul\n      swap1\n      mload(0x40)\n      0x00\n      mload(0x40)\n      dup1\n      dup4\n      sub\n      dup2\n      dup6\n      dup9\n      dup9\n      call\n      swap4\n      pop\n      pop\n      pop\n      pop\n      iszero\n      dup1\n      iszero\n      tag_82\n      jumpi\n      returndatasize\n      0x00\n      dup1\n      returndatacopy\n      revert(0x00, returndatasize)\n    tag_82:\n      pop\n        /* \"week6task2.sol\":2355:2539  {... */\n      pop\n      pop\n        /* \"week6task2.sol\":2318:2539  function withdraw() public onlyOwner {... */\n      jump\t// out\n        /* \"week6task2.sol\":100:122  uint256 public entropy */\n    tag_33:\n      sload(0x00)\n      dup2\n      jump\t// out\n        /* \"week6task2.sol\":655:1388  function play(uint8 _number) public payable {... */\n    tag_38:\n        /* \"week6task2.sol\":729:730  1 */\n      0x01\n        /* \"week6task2.sol\":718:725  _number */\n      dup2\n        /* \"week6task2.sol\":718:730  _number >= 1 */\n      0xff\n      and\n      lt\n      iszero\n        /* \"week6task2.sol\":718:747  _number >= 1 && _number <= 10 */\n      dup1\n      iszero\n      tag_84\n      jumpi\n      pop\n        /* \"week6task2.sol\":745:747  10 */\n      0x0a\n        /* \"week6task2.sol\":734:741  _number */\n      dup2\n        /* \"week6task2.sol\":734:747  _number <= 10 */\n      0xff\n      and\n      gt\n      iszero\n        /* \"week6task2.sol\":718:747  _number >= 1 && _number <= 10 */\n    tag_84:\n        /* \"week6task2.sol\":710:791  require(_number >= 1 && _number <= 10, \"Guessed number must be between 1 and 10\") */\n      tag_85\n      jumpi\n      mload(0x40)\n      0x08c379a000000000000000000000000000000000000000000000000000000000\n      dup2\n      mstore\n      0x04\n      add\n      tag_86\n      swap1\n      tag_87\n      jump\t// in\n    tag_86:\n      mload(0x40)\n      dup1\n      swap2\n      sub\n      swap1\n      revert\n    tag_85:\n        /* \"week6task2.sol\":823:829  minBet */\n      sload(0x02)\n        /* \"week6task2.sol\":810:819  msg.value */\n      callvalue\n        /* \"week6task2.sol\":810:829  msg.value >= minBet */\n      lt\n      iszero\n        /* \"week6task2.sol\":810:852  msg.value >= minBet && msg.value <= maxBet */\n      dup1\n      iszero\n      tag_88\n      jumpi\n      pop\n        /* \"week6task2.sol\":846:852  maxBet */\n      sload(0x03)\n        /* \"week6task2.sol\":833:842  msg.value */\n      callvalue\n        /* \"week6task2.sol\":833:852  msg.value <= maxBet */\n      gt\n      iszero\n        /* \"week6task2.sol\":810:852  msg.value >= minBet && msg.value <= maxBet */\n    tag_88:\n        /* \"week6task2.sol\":802:898  require(msg.value >= minBet && msg.value <= maxBet, \"Bet amount must be within min and max bet\") */\n      tag_89\n      jumpi\n      mload(0x40)\n      0x08c379a000000000000000000000000000000000000000000000000000000000\n      dup2\n      mstore\n      0x04\n      add\n      tag_90\n      swap1\n      tag_91\n      jump\t// in\n    tag_90:\n      mload(0x40)\n      dup1\n      swap2\n      sub\n      swap1\n      revert\n    tag_89:\n        /* \"week6task2.sol\":955:962  players */\n      0x05\n        /* \"week6task2.sol\":968:995  Player(msg.sender, _number) */\n      mload(0x40)\n      dup1\n      0x40\n      add\n      0x40\n      mstore\n      dup1\n        /* \"week6task2.sol\":975:985  msg.sender */\n      caller\n        /* \"week6task2.sol\":968:995  Player(msg.sender, _number) */\n      0xffffffffffffffffffffffffffffffffffffffff\n      and\n      dup2\n      mstore\n      0x20\n      add\n        /* \"week6task2.sol\":987:994  _number */\n      dup4\n        /* \"week6task2.sol\":968:995  Player(msg.sender, _number) */\n      0xff\n      and\n      dup2\n      mstore\n      pop\n        /* \"week6task2.sol\":955:996  players.push(Player(msg.sender, _number)) */\n      swap1\n      dup1\n      0x01\n      dup2\n      sload\n      add\n      dup1\n      dup3\n      sstore\n      dup1\n      swap2\n      pop\n      pop\n      0x01\n      swap1\n      sub\n      swap1\n      0x00\n      mstore\n      keccak256(0x00, 0x20)\n      add\n      0x00\n      swap1\n      swap2\n      swap1\n      swap2\n      swap1\n      swap2\n      pop\n      0x00\n      dup3\n      add\n      mload\n      dup2\n      0x00\n      add\n      exp(0x0100, 0x00)\n      dup2\n      sload\n      dup2\n      0xffffffffffffffffffffffffffffffffffffffff\n      mul\n      not\n      and\n      swap1\n      dup4\n      0xffffffffffffffffffffffffffffffffffffffff\n      and\n      mul\n      or\n      swap1\n      sstore\n      pop\n      0x20\n      dup3\n      add\n      mload\n      dup2\n      0x00\n      add\n      exp(0x0100, 0x14)\n      dup2\n      sload\n      dup2\n      0xff\n      mul\n      not\n      and\n      swap1\n      dup4\n      0xff\n      and\n      mul\n      or\n      swap1\n      sstore\n      pop\n      pop\n      pop\n        /* \"week6task2.sol\":1063:1072  msg.value */\n      callvalue\n        /* \"week6task2.sol\":1053:1059  sumBet */\n      0x01\n      0x00\n        /* \"week6task2.sol\":1053:1072  sumBet += msg.value */\n      dup3\n      dup3\n      sload\n      tag_93\n      swap2\n      swap1\n      tag_94\n      jump\t// in\n    tag_93:\n      swap3\n      pop\n      pop\n      dup2\n      swap1\n      sstore\n      pop\n        /* \"week6task2.sol\":1116:1133  uint256 hashBlock */\n      0x00\n        /* \"week6task2.sol\":1154:1166  block.number */\n      number\n        /* \"week6task2.sol\":1144:1167  blockhash(block.number) */\n      blockhash\n        /* \"week6task2.sol\":1136:1168  uint256(blockhash(block.number)) */\n      0x00\n      shr\n        /* \"week6task2.sol\":1116:1168  uint256 hashBlock = uint256(blockhash(block.number)) */\n      swap1\n      pop\n        /* \"week6task2.sol\":1179:1191  uint256 time */\n      0x00\n        /* \"week6task2.sol\":1194:1209  block.timestamp */\n      timestamp\n        /* \"week6task2.sol\":1179:1209  uint256 time = block.timestamp */\n      swap1\n      pop\n        /* \"week6task2.sol\":1260:1264  1000 */\n      0x03e8\n        /* \"week6task2.sol\":1253:1257  time */\n      dup2\n        /* \"week6task2.sol\":1253:1264  time % 1000 */\n      tag_95\n      swap2\n      swap1\n      tag_96\n      jump\t// in\n    tag_95:\n        /* \"week6task2.sol\":1244:1248  1000 */\n      0x03e8\n        /* \"week6task2.sol\":1232:1241  hashBlock */\n      dup4\n        /* \"week6task2.sol\":1232:1248  hashBlock % 1000 */\n      tag_97\n      swap2\n      swap1\n      tag_96\n      jump\t// in\n    tag_97:\n        /* \"week6task2.sol\":1231:1265  (hashBlock % 1000) + (time % 1000) */\n      tag_98\n      swap2\n      swap1\n      tag_94\n      jump\t// in\n    tag_98:\n        /* \"week6task2.sol\":1220:1227  entropy */\n      0x00\n      dup1\n        /* \"week6task2.sol\":1220:1265  entropy += (hashBlock % 1000) + (time % 1000) */\n      dup3\n      dup3\n      sload\n      tag_99\n      swap2\n      swap1\n      tag_94\n      jump\t// in\n    tag_99:\n      swap3\n      pop\n      pop\n      dup2\n      swap1\n      sstore\n      pop\n        /* \"week6task2.sol\":1344:1346  10 */\n      0x0a\n        /* \"week6task2.sol\":1326:1333  players */\n      0x05\n        /* \"week6task2.sol\":1326:1340  players.length */\n      dup1\n      sload\n      swap1\n      pop\n        /* \"week6task2.sol\":1326:1346  players.length == 10 */\n      sub\n        /* \"week6task2.sol\":1322:1381  if (players.length == 10) {... */\n      tag_100\n      jumpi\n        /* \"week6task2.sol\":1363:1369  game() */\n      tag_101\n        /* \"week6task2.sol\":1363:1367  game */\n      tag_102\n        /* \"week6task2.sol\":1363:1369  game() */\n      jump\t// in\n    tag_101:\n        /* \"week6task2.sol\":1322:1381  if (players.length == 10) {... */\n    tag_100:\n        /* \"week6task2.sol\":699:1388  {... */\n      pop\n      pop\n        /* \"week6task2.sol\":655:1388  function play(uint8 _number) public payable {... */\n      pop\n      jump\t// out\n        /* \"week6task2.sol\":2117:2310  function setBet(uint256 _minBet, uint256 _maxBet) public onlyOwner {... */\n    tag_43:\n        /* \"week6task2.sol\":450:455  owner */\n      0x04\n      0x00\n      swap1\n      sload\n      swap1\n      0x0100\n      exp\n      swap1\n      div\n      0xffffffffffffffffffffffffffffffffffffffff\n      and\n        /* \"week6task2.sol\":436:455  msg.sender == owner */\n      0xffffffffffffffffffffffffffffffffffffffff\n      and\n        /* \"week6task2.sol\":436:446  msg.sender */\n      caller\n        /* \"week6task2.sol\":436:455  msg.sender == owner */\n      0xffffffffffffffffffffffffffffffffffffffff\n      and\n      eq\n        /* \"week6task2.sol\":428:482  require(msg.sender == owner, \"Not the contract owner\") */\n      tag_104\n      jumpi\n      mload(0x40)\n      0x08c379a000000000000000000000000000000000000000000000000000000000\n      dup2\n      mstore\n      0x04\n      add\n      tag_105\n      swap1\n      tag_73\n      jump\t// in\n    tag_105:\n      mload(0x40)\n      dup1\n      swap2\n      sub\n      swap1\n      revert\n    tag_104:\n        /* \"week6task2.sol\":2221:2222  0 */\n      0x00\n        /* \"week6task2.sol\":2203:2210  players */\n      0x05\n        /* \"week6task2.sol\":2203:2217  players.length */\n      dup1\n      sload\n      swap1\n      pop\n        /* \"week6task2.sol\":2203:2222  players.length == 0 */\n      eq\n        /* \"week6task2.sol\":2195:2248  require(players.length == 0, \"Round already started\") */\n      tag_107\n      jumpi\n      mload(0x40)\n      0x08c379a000000000000000000000000000000000000000000000000000000000\n      dup2\n      mstore\n      0x04\n      add\n      tag_108\n      swap1\n      tag_109\n      jump\t// in\n    tag_108:\n      mload(0x40)\n      dup1\n      swap2\n      sub\n      swap1\n      revert\n    tag_107:\n        /* \"week6task2.sol\":2268:2275  _minBet */\n      dup2\n        /* \"week6task2.sol\":2259:2265  minBet */\n      0x02\n        /* \"week6task2.sol\":2259:2275  minBet = _minBet */\n      dup2\n      swap1\n      sstore\n      pop\n        /* \"week6task2.sol\":2295:2302  _maxBet */\n      dup1\n        /* \"week6task2.sol\":2286:2292  maxBet */\n      0x03\n        /* \"week6task2.sol\":2286:2302  maxBet = _maxBet */\n      dup2\n      swap1\n      sstore\n      pop\n        /* \"week6task2.sol\":2117:2310  function setBet(uint256 _minBet, uint256 _maxBet) public onlyOwner {... */\n      pop\n      pop\n      jump\t// out\n        /* \"week6task2.sol\":213:233  address public owner */\n    tag_46:\n      0x04\n      0x00\n      swap1\n      sload\n      swap1\n      0x0100\n      exp\n      swap1\n      div\n      0xffffffffffffffffffffffffffffffffffffffff\n      and\n      dup2\n      jump\t// out\n        /* \"week6task2.sol\":157:178  uint256 public minBet */\n    tag_51:\n      sload(0x02)\n      dup2\n      jump\t// out\n        /* \"week6task2.sol\":364:387  Player[] public winners */\n    tag_57:\n      0x06\n      dup2\n      dup2\n      sload\n      dup2\n      lt\n      tag_110\n      jumpi\n      0x00\n      dup1\n      revert\n    tag_110:\n      swap1\n      0x00\n      mstore\n      keccak256(0x00, 0x20)\n      add\n      0x00\n      swap2\n      pop\n      swap1\n      pop\n      dup1\n      0x00\n      add\n      0x00\n      swap1\n      sload\n      swap1\n      0x0100\n      exp\n      swap1\n      div\n      0xffffffffffffffffffffffffffffffffffffffff\n      and\n      swap1\n      dup1\n      0x00\n      add\n      0x14\n      swap1\n      sload\n      swap1\n      0x0100\n      exp\n      swap1\n      div\n      0xff\n      and\n      swap1\n      pop\n      dup3\n      jump\t// out\n        /* \"week6task2.sol\":2664:2757  function getWinners() public view returns (Player[] memory) {... */\n    tag_62:\n        /* \"week6task2.sol\":2707:2722  Player[] memory */\n      0x60\n        /* \"week6task2.sol\":2742:2749  winners */\n      0x06\n        /* \"week6task2.sol\":2735:2749  return winners */\n      dup1\n      sload\n      dup1\n      0x20\n      mul\n      0x20\n      add\n      mload(0x40)\n      swap1\n      dup2\n      add\n      0x40\n      mstore\n      dup1\n      swap3\n      swap2\n      swap1\n      dup2\n      dup2\n      mstore\n      0x20\n      add\n      0x00\n      swap1\n    tag_113:\n      dup3\n      dup3\n      lt\n      iszero\n      tag_114\n      jumpi\n      dup4\n      dup3\n      swap1\n      0x00\n      mstore\n      keccak256(0x00, 0x20)\n      add\n      mload(0x40)\n      dup1\n      0x40\n      add\n      0x40\n      mstore\n      swap1\n      dup2\n      0x00\n      dup3\n      add\n      0x00\n      swap1\n      sload\n      swap1\n      0x0100\n      exp\n      swap1\n      div\n      0xffffffffffffffffffffffffffffffffffffffff\n      and\n      0xffffffffffffffffffffffffffffffffffffffff\n      and\n      0xffffffffffffffffffffffffffffffffffffffff\n      and\n      dup2\n      mstore\n      0x20\n      add\n      0x00\n      dup3\n      add\n      0x14\n      swap1\n      sload\n      swap1\n      0x0100\n      exp\n      swap1\n      div\n      0xff\n      and\n      0xff\n      and\n      0xff\n      and\n      dup2\n      mstore\n      pop\n      pop\n      dup2\n      mstore\n      0x20\n      add\n      swap1\n      0x01\n      add\n      swap1\n      jump(tag_113)\n    tag_114:\n      pop\n      pop\n      pop\n      pop\n      swap1\n      pop\n        /* \"week6task2.sol\":2664:2757  function getWinners() public view returns (Player[] memory) {... */\n      swap1\n      jump\t// out\n        /* \"week6task2.sol\":334:357  Player[] public players */\n    tag_68:\n      0x05\n      dup2\n      dup2\n      sload\n      dup2\n      lt\n      tag_116\n      jumpi\n      0x00\n      dup1\n      revert\n    tag_116:\n      swap1\n      0x00\n      mstore\n      keccak256(0x00, 0x20)\n      add\n      0x00\n      swap2\n      pop\n      swap1\n      pop\n      dup1\n      0x00\n      add\n      0x00\n      swap1\n      sload\n      swap1\n      0x0100\n      exp\n      swap1\n      div\n      0xffffffffffffffffffffffffffffffffffffffff\n      and\n      swap1\n      dup1\n      0x00\n      add\n      0x14\n      swap1\n      sload\n      swap1\n      0x0100\n      exp\n      swap1\n      div\n      0xff\n      and\n      swap1\n      pop\n      dup3\n      jump\t// out\n        /* \"week6task2.sol\":1396:2109  function game() private {... */\n    tag_102:\n        /* \"week6task2.sol\":1438:1445  winners */\n      0x06\n      0x00\n        /* \"week6task2.sol\":1431:1445  delete winners */\n      tag_119\n      swap2\n      swap1\n      tag_120\n      jump\t// in\n    tag_119:\n        /* \"week6task2.sol\":1499:1517  uint8 randomNumber */\n      0x00\n        /* \"week6task2.sol\":1543:1544  1 */\n      0x01\n        /* \"week6task2.sol\":1537:1539  10 */\n      0x0a\n        /* \"week6task2.sol\":1527:1534  entropy */\n      sload(0x00)\n        /* \"week6task2.sol\":1527:1539  entropy % 10 */\n      tag_121\n      swap2\n      swap1\n      tag_96\n      jump\t// in\n    tag_121:\n        /* \"week6task2.sol\":1526:1544  (entropy % 10) + 1 */\n      tag_122\n      swap2\n      swap1\n      tag_94\n      jump\t// in\n    tag_122:\n        /* \"week6task2.sol\":1499:1545  uint8 randomNumber = uint8((entropy % 10) + 1) */\n      swap1\n      pop\n        /* \"week6task2.sol\":1563:1572  uint256 i */\n      0x00\n        /* \"week6task2.sol\":1558:1734  for (uint256 i = 0; i < players.length; i++) {... */\n    tag_123:\n        /* \"week6task2.sol\":1582:1589  players */\n      0x05\n        /* \"week6task2.sol\":1582:1596  players.length */\n      dup1\n      sload\n      swap1\n      pop\n        /* \"week6task2.sol\":1578:1579  i */\n      dup2\n        /* \"week6task2.sol\":1578:1596  i < players.length */\n      lt\n        /* \"week6task2.sol\":1558:1734  for (uint256 i = 0; i < players.length; i++) {... */\n      iszero\n      tag_124\n      jumpi\n        /* \"week6task2.sol\":1650:1662  randomNumber */\n      dup2\n        /* \"week6task2.sol\":1622:1662  players[i].guessedNumber == randomNumber */\n      0xff\n      and\n        /* \"week6task2.sol\":1622:1629  players */\n      0x05\n        /* \"week6task2.sol\":1630:1631  i */\n      dup3\n        /* \"week6task2.sol\":1622:1632  players[i] */\n      dup2\n      sload\n      dup2\n      lt\n      tag_126\n      jumpi\n      tag_127\n      tag_128\n      jump\t// in\n    tag_127:\n    tag_126:\n      swap1\n      0x00\n      mstore\n      keccak256(0x00, 0x20)\n      add\n        /* \"week6task2.sol\":1622:1646  players[i].guessedNumber */\n      0x00\n      add\n      0x14\n      swap1\n      sload\n      swap1\n      0x0100\n      exp\n      swap1\n      div\n      0xff\n      and\n        /* \"week6task2.sol\":1622:1662  players[i].guessedNumber == randomNumber */\n      0xff\n      and\n      sub\n        /* \"week6task2.sol\":1618:1723  if (players[i].guessedNumber == randomNumber) {... */\n      tag_130\n      jumpi\n        /* \"week6task2.sol\":1683:1690  winners */\n      0x06\n        /* \"week6task2.sol\":1696:1703  players */\n      0x05\n        /* \"week6task2.sol\":1704:1705  i */\n      dup3\n        /* \"week6task2.sol\":1696:1706  players[i] */\n      dup2\n      sload\n      dup2\n      lt\n      tag_131\n      jumpi\n      tag_132\n      tag_128\n      jump\t// in\n    tag_132:\n    tag_131:\n      swap1\n      0x00\n      mstore\n      keccak256(0x00, 0x20)\n      add\n        /* \"week6task2.sol\":1683:1707  winners.push(players[i]) */\n      swap1\n      dup1\n      0x01\n      dup2\n      sload\n      add\n      dup1\n      dup3\n      sstore\n      dup1\n      swap2\n      pop\n      pop\n      0x01\n      swap1\n      sub\n      swap1\n      0x00\n      mstore\n      keccak256(0x00, 0x20)\n      add\n      0x00\n      swap1\n      swap2\n      swap1\n      swap2\n      swap1\n      swap2\n      pop\n      0x00\n      dup3\n      add\n      0x00\n      swap1\n      sload\n      swap1\n      0x0100\n      exp\n      swap1\n      div\n      0xffffffffffffffffffffffffffffffffffffffff\n      and\n      dup2\n      0x00\n      add\n      exp(0x0100, 0x00)\n      dup2\n      sload\n      dup2\n      0xffffffffffffffffffffffffffffffffffffffff\n      mul\n      not\n      and\n      swap1\n      dup4\n      0xffffffffffffffffffffffffffffffffffffffff\n      and\n      mul\n      or\n      swap1\n      sstore\n      pop\n      0x00\n      dup3\n      add\n      0x14\n      swap1\n      sload\n      swap1\n      0x0100\n      exp\n      swap1\n      div\n      0xff\n      and\n      dup2\n      0x00\n      add\n      exp(0x0100, 0x14)\n      dup2\n      sload\n      dup2\n      0xff\n      mul\n      not\n      and\n      swap1\n      dup4\n      0xff\n      and\n      mul\n      or\n      swap1\n      sstore\n      pop\n      pop\n      pop\n        /* \"week6task2.sol\":1618:1723  if (players[i].guessedNumber == randomNumber) {... */\n    tag_130:\n        /* \"week6task2.sol\":1598:1601  i++ */\n      dup1\n      dup1\n      0x01\n      add\n      swap2\n      pop\n      pop\n        /* \"week6task2.sol\":1558:1734  for (uint256 i = 0; i < players.length; i++) {... */\n      jump(tag_123)\n    tag_124:\n      pop\n        /* \"week6task2.sol\":1767:1768  0 */\n      0x00\n        /* \"week6task2.sol\":1750:1757  winners */\n      0x06\n        /* \"week6task2.sol\":1750:1764  winners.length */\n      dup1\n      sload\n      swap1\n      pop\n        /* \"week6task2.sol\":1750:1768  winners.length > 0 */\n      gt\n        /* \"week6task2.sol\":1746:1997  if (winners.length > 0) {... */\n      iszero\n      tag_135\n      jumpi\n        /* \"week6task2.sol\":1785:1807  uint256 prizePerWinner */\n      0x00\n        /* \"week6task2.sol\":1819:1826  winners */\n      0x06\n        /* \"week6task2.sol\":1819:1833  winners.length */\n      dup1\n      sload\n      swap1\n      pop\n        /* \"week6task2.sol\":1810:1816  sumBet */\n      sload(0x01)\n        /* \"week6task2.sol\":1810:1833  sumBet / winners.length */\n      tag_136\n      swap2\n      swap1\n      tag_137\n      jump\t// in\n    tag_136:\n        /* \"week6task2.sol\":1785:1833  uint256 prizePerWinner = sumBet / winners.length */\n      swap1\n      pop\n        /* \"week6task2.sol\":1853:1862  uint256 i */\n      0x00\n        /* \"week6task2.sol\":1848:1986  for (uint256 i = 0; i < winners.length; i++) {... */\n    tag_138:\n        /* \"week6task2.sol\":1872:1879  winners */\n      0x06\n        /* \"week6task2.sol\":1872:1886  winners.length */\n      dup1\n      sload\n      swap1\n      pop\n        /* \"week6task2.sol\":1868:1869  i */\n      dup2\n        /* \"week6task2.sol\":1868:1886  i < winners.length */\n      lt\n        /* \"week6task2.sol\":1848:1986  for (uint256 i = 0; i < winners.length; i++) {... */\n      iszero\n      tag_139\n      jumpi\n        /* \"week6task2.sol\":1920:1927  winners */\n      0x06\n        /* \"week6task2.sol\":1928:1929  i */\n      dup2\n        /* \"week6task2.sol\":1920:1930  winners[i] */\n      dup2\n      sload\n      dup2\n      lt\n      tag_141\n      jumpi\n      tag_142\n      tag_128\n      jump\t// in\n    tag_142:\n    tag_141:\n      swap1\n      0x00\n      mstore\n      keccak256(0x00, 0x20)\n      add\n        /* \"week6task2.sol\":1920:1944  winners[i].playerAddress */\n      0x00\n      add\n      0x00\n      swap1\n      sload\n      swap1\n      0x0100\n      exp\n      swap1\n      div\n      0xffffffffffffffffffffffffffffffffffffffff\n      and\n        /* \"week6task2.sol\":1912:1954  payable(winners[i].playerAddress).transfer */\n      0xffffffffffffffffffffffffffffffffffffffff\n      and\n        /* \"week6task2.sol\":1912:1970  payable(winners[i].playerAddress).transfer(prizePerWinner) */\n      0x08fc\n        /* \"week6task2.sol\":1955:1969  prizePerWinner */\n      dup4\n        /* \"week6task2.sol\":1912:1970  payable(winners[i].playerAddress).transfer(prizePerWinner) */\n      swap1\n      dup2\n      iszero\n      mul\n      swap1\n      mload(0x40)\n      0x00\n      mload(0x40)\n      dup1\n      dup4\n      sub\n      dup2\n      dup6\n      dup9\n      dup9\n      call\n      swap4\n      pop\n      pop\n      pop\n      pop\n      iszero\n      dup1\n      iszero\n      tag_145\n      jumpi\n      returndatasize\n      0x00\n      dup1\n      returndatacopy\n      revert(0x00, returndatasize)\n    tag_145:\n      pop\n        /* \"week6task2.sol\":1888:1891  i++ */\n      dup1\n      dup1\n      0x01\n      add\n      swap2\n      pop\n      pop\n        /* \"week6task2.sol\":1848:1986  for (uint256 i = 0; i < winners.length; i++) {... */\n      jump(tag_138)\n    tag_139:\n      pop\n        /* \"week6task2.sol\":1770:1997  {... */\n      pop\n        /* \"week6task2.sol\":1746:1997  if (winners.length > 0) {... */\n    tag_135:\n        /* \"week6task2.sol\":2018:2019  0 */\n      0x00\n        /* \"week6task2.sol\":2009:2015  sumBet */\n      0x01\n        /* \"week6task2.sol\":2009:2019  sumBet = 0 */\n      dup2\n      swap1\n      sstore\n      pop\n        /* \"week6task2.sol\":2062:2069  players */\n      0x05\n      0x00\n        /* \"week6task2.sol\":2055:2069  delete players */\n      tag_146\n      swap2\n      swap1\n      tag_120\n      jump\t// in\n    tag_146:\n        /* \"week6task2.sol\":1420:2109  {... */\n      pop\n        /* \"week6task2.sol\":1396:2109  function game() private {... */\n      jump\t// out\n    tag_120:\n      pop\n      dup1\n      sload\n      0x00\n      dup3\n      sstore\n      swap1\n      0x00\n      mstore\n      keccak256(0x00, 0x20)\n      swap1\n      dup2\n      add\n      swap1\n      tag_148\n      swap2\n      swap1\n      tag_149\n      jump\t// in\n    tag_148:\n      pop\n      jump\t// out\n    tag_149:\n    tag_150:\n      dup1\n      dup3\n      gt\n      iszero\n      tag_151\n      jumpi\n      0x00\n      dup1\n      dup3\n      add\n      exp(0x0100, 0x00)\n      dup2\n      sload\n      swap1\n      0xffffffffffffffffffffffffffffffffffffffff\n      mul\n      not\n      and\n      swap1\n      sstore\n      0x00\n      dup3\n      add\n      exp(0x0100, 0x14)\n      dup2\n      sload\n      swap1\n      0xff\n      mul\n      not\n      and\n      swap1\n      sstore\n      pop\n      0x01\n      add\n      jump(tag_150)\n    tag_151:\n      pop\n      swap1\n      jump\t// out\n        /* \"#utility.yul\":7:84   */\n    tag_152:\n        /* \"#utility.yul\":44:51   */\n      0x00\n        /* \"#utility.yul\":73:78   */\n      dup2\n        /* \"#utility.yul\":62:78   */\n      swap1\n      pop\n        /* \"#utility.yul\":7:84   */\n      swap2\n      swap1\n      pop\n      jump\t// out\n        /* \"#utility.yul\":90:208   */\n    tag_153:\n        /* \"#utility.yul\":177:201   */\n      tag_189\n        /* \"#utility.yul\":195:200   */\n      dup2\n        /* \"#utility.yul\":177:201   */\n      tag_152\n      jump\t// in\n    tag_189:\n        /* \"#utility.yul\":172:175   */\n      dup3\n        /* \"#utility.yul\":165:202   */\n      mstore\n        /* \"#utility.yul\":90:208   */\n      pop\n      pop\n      jump\t// out\n        /* \"#utility.yul\":214:436   */\n    tag_19:\n        /* \"#utility.yul\":307:311   */\n      0x00\n        /* \"#utility.yul\":345:347   */\n      0x20\n        /* \"#utility.yul\":334:343   */\n      dup3\n        /* \"#utility.yul\":330:348   */\n      add\n        /* \"#utility.yul\":322:348   */\n      swap1\n      pop\n        /* \"#utility.yul\":358:429   */\n      tag_191\n        /* \"#utility.yul\":426:427   */\n      0x00\n        /* \"#utility.yul\":415:424   */\n      dup4\n        /* \"#utility.yul\":411:428   */\n      add\n        /* \"#utility.yul\":402:408   */\n      dup5\n        /* \"#utility.yul\":358:429   */\n      tag_153\n      jump\t// in\n    tag_191:\n        /* \"#utility.yul\":214:436   */\n      swap3\n      swap2\n      pop\n      pop\n      jump\t// out\n        /* \"#utility.yul\":523:640   */\n    tag_155:\n        /* \"#utility.yul\":632:633   */\n      0x00\n        /* \"#utility.yul\":629:630   */\n      dup1\n        /* \"#utility.yul\":622:634   */\n      revert\n        /* \"#utility.yul\":769:855   */\n    tag_157:\n        /* \"#utility.yul\":804:811   */\n      0x00\n        /* \"#utility.yul\":844:848   */\n      0xff\n        /* \"#utility.yul\":837:842   */\n      dup3\n        /* \"#utility.yul\":833:849   */\n      and\n        /* \"#utility.yul\":822:849   */\n      swap1\n      pop\n        /* \"#utility.yul\":769:855   */\n      swap2\n      swap1\n      pop\n      jump\t// out\n        /* \"#utility.yul\":861:979   */\n    tag_158:\n        /* \"#utility.yul\":932:954   */\n      tag_197\n        /* \"#utility.yul\":948:953   */\n      dup2\n        /* \"#utility.yul\":932:954   */\n      tag_157\n      jump\t// in\n    tag_197:\n        /* \"#utility.yul\":925:930   */\n      dup2\n        /* \"#utility.yul\":922:955   */\n      eq\n        /* \"#utility.yul\":912:973   */\n      tag_198\n      jumpi\n        /* \"#utility.yul\":969:970   */\n      0x00\n        /* \"#utility.yul\":966:967   */\n      dup1\n        /* \"#utility.yul\":959:971   */\n      revert\n        /* \"#utility.yul\":912:973   */\n    tag_198:\n        /* \"#utility.yul\":861:979   */\n      pop\n      jump\t// out\n        /* \"#utility.yul\":985:1120   */\n    tag_159:\n        /* \"#utility.yul\":1029:1034   */\n      0x00\n        /* \"#utility.yul\":1067:1073   */\n      dup2\n        /* \"#utility.yul\":1054:1074   */\n      calldataload\n        /* \"#utility.yul\":1045:1074   */\n      swap1\n      pop\n        /* \"#utility.yul\":1083:1114   */\n      tag_200\n        /* \"#utility.yul\":1108:1113   */\n      dup2\n        /* \"#utility.yul\":1083:1114   */\n      tag_158\n      jump\t// in\n    tag_200:\n        /* \"#utility.yul\":985:1120   */\n      swap3\n      swap2\n      pop\n      pop\n      jump\t// out\n        /* \"#utility.yul\":1126:1451   */\n    tag_37:\n        /* \"#utility.yul\":1183:1189   */\n      0x00\n        /* \"#utility.yul\":1232:1234   */\n      0x20\n        /* \"#utility.yul\":1220:1229   */\n      dup3\n        /* \"#utility.yul\":1211:1218   */\n      dup5\n        /* \"#utility.yul\":1207:1230   */\n      sub\n        /* \"#utility.yul\":1203:1235   */\n      slt\n        /* \"#utility.yul\":1200:1319   */\n      iszero\n      tag_202\n      jumpi\n        /* \"#utility.yul\":1238:1317   */\n      tag_203\n      tag_155\n      jump\t// in\n    tag_203:\n        /* \"#utility.yul\":1200:1319   */\n    tag_202:\n        /* \"#utility.yul\":1358:1359   */\n      0x00\n        /* \"#utility.yul\":1383:1434   */\n      tag_204\n        /* \"#utility.yul\":1426:1433   */\n      dup5\n        /* \"#utility.yul\":1417:1423   */\n      dup3\n        /* \"#utility.yul\":1406:1415   */\n      dup6\n        /* \"#utility.yul\":1402:1424   */\n      add\n        /* \"#utility.yul\":1383:1434   */\n      tag_159\n      jump\t// in\n    tag_204:\n        /* \"#utility.yul\":1373:1434   */\n      swap2\n      pop\n        /* \"#utility.yul\":1329:1444   */\n      pop\n        /* \"#utility.yul\":1126:1451   */\n      swap3\n      swap2\n      pop\n      pop\n      jump\t// out\n        /* \"#utility.yul\":1457:1579   */\n    tag_160:\n        /* \"#utility.yul\":1530:1554   */\n      tag_206\n        /* \"#utility.yul\":1548:1553   */\n      dup2\n        /* \"#utility.yul\":1530:1554   */\n      tag_152\n      jump\t// in\n    tag_206:\n        /* \"#utility.yul\":1523:1528   */\n      dup2\n        /* \"#utility.yul\":1520:1555   */\n      eq\n        /* \"#utility.yul\":1510:1573   */\n      tag_207\n      jumpi\n        /* \"#utility.yul\":1569:1570   */\n      0x00\n        /* \"#utility.yul\":1566:1567   */\n      dup1\n        /* \"#utility.yul\":1559:1571   */\n      revert\n        /* \"#utility.yul\":1510:1573   */\n    tag_207:\n        /* \"#utility.yul\":1457:1579   */\n      pop\n      jump\t// out\n        /* \"#utility.yul\":1585:1724   */\n    tag_161:\n        /* \"#utility.yul\":1631:1636   */\n      0x00\n        /* \"#utility.yul\":1669:1675   */\n      dup2\n        /* \"#utility.yul\":1656:1676   */\n      calldataload\n        /* \"#utility.yul\":1647:1676   */\n      swap1\n      pop\n        /* \"#utility.yul\":1685:1718   */\n      tag_209\n        /* \"#utility.yul\":1712:1717   */\n      dup2\n        /* \"#utility.yul\":1685:1718   */\n      tag_160\n      jump\t// in\n    tag_209:\n        /* \"#utility.yul\":1585:1724   */\n      swap3\n      swap2\n      pop\n      pop\n      jump\t// out\n        /* \"#utility.yul\":1730:2204   */\n    tag_42:\n        /* \"#utility.yul\":1798:1804   */\n      0x00\n        /* \"#utility.yul\":1806:1812   */\n      dup1\n        /* \"#utility.yul\":1855:1857   */\n      0x40\n        /* \"#utility.yul\":1843:1852   */\n      dup4\n        /* \"#utility.yul\":1834:1841   */\n      dup6\n        /* \"#utility.yul\":1830:1853   */\n      sub\n        /* \"#utility.yul\":1826:1858   */\n      slt\n        /* \"#utility.yul\":1823:1942   */\n      iszero\n      tag_211\n      jumpi\n        /* \"#utility.yul\":1861:1940   */\n      tag_212\n      tag_155\n      jump\t// in\n    tag_212:\n        /* \"#utility.yul\":1823:1942   */\n    tag_211:\n        /* \"#utility.yul\":1981:1982   */\n      0x00\n        /* \"#utility.yul\":2006:2059   */\n      tag_213\n        /* \"#utility.yul\":2051:2058   */\n      dup6\n        /* \"#utility.yul\":2042:2048   */\n      dup3\n        /* \"#utility.yul\":2031:2040   */\n      dup7\n        /* \"#utility.yul\":2027:2049   */\n      add\n        /* \"#utility.yul\":2006:2059   */\n      tag_161\n      jump\t// in\n    tag_213:\n        /* \"#utility.yul\":1996:2059   */\n      swap3\n      pop\n        /* \"#utility.yul\":1952:2069   */\n      pop\n        /* \"#utility.yul\":2108:2110   */\n      0x20\n        /* \"#utility.yul\":2134:2187   */\n      tag_214\n        /* \"#utility.yul\":2179:2186   */\n      dup6\n        /* \"#utility.yul\":2170:2176   */\n      dup3\n        /* \"#utility.yul\":2159:2168   */\n      dup7\n        /* \"#utility.yul\":2155:2177   */\n      add\n        /* \"#utility.yul\":2134:2187   */\n      tag_161\n      jump\t// in\n    tag_214:\n        /* \"#utility.yul\":2124:2187   */\n      swap2\n      pop\n        /* \"#utility.yul\":2079:2197   */\n      pop\n        /* \"#utility.yul\":1730:2204   */\n      swap3\n      pop\n      swap3\n      swap1\n      pop\n      jump\t// out\n        /* \"#utility.yul\":2210:2336   */\n    tag_162:\n        /* \"#utility.yul\":2247:2254   */\n      0x00\n        /* \"#utility.yul\":2287:2329   */\n      0xffffffffffffffffffffffffffffffffffffffff\n        /* \"#utility.yul\":2280:2285   */\n      dup3\n        /* \"#utility.yul\":2276:2330   */\n      and\n        /* \"#utility.yul\":2265:2330   */\n      swap1\n      pop\n        /* \"#utility.yul\":2210:2336   */\n      swap2\n      swap1\n      pop\n      jump\t// out\n        /* \"#utility.yul\":2342:2438   */\n    tag_163:\n        /* \"#utility.yul\":2379:2386   */\n      0x00\n        /* \"#utility.yul\":2408:2432   */\n      tag_217\n        /* \"#utility.yul\":2426:2431   */\n      dup3\n        /* \"#utility.yul\":2408:2432   */\n      tag_162\n      jump\t// in\n    tag_217:\n        /* \"#utility.yul\":2397:2432   */\n      swap1\n      pop\n        /* \"#utility.yul\":2342:2438   */\n      swap2\n      swap1\n      pop\n      jump\t// out\n        /* \"#utility.yul\":2444:2562   */\n    tag_164:\n        /* \"#utility.yul\":2531:2555   */\n      tag_219\n        /* \"#utility.yul\":2549:2554   */\n      dup2\n        /* \"#utility.yul\":2531:2555   */\n      tag_163\n      jump\t// in\n    tag_219:\n        /* \"#utility.yul\":2526:2529   */\n      dup3\n        /* \"#utility.yul\":2519:2556   */\n      mstore\n        /* \"#utility.yul\":2444:2562   */\n      pop\n      pop\n      jump\t// out\n        /* \"#utility.yul\":2568:2790   */\n    tag_48:\n        /* \"#utility.yul\":2661:2665   */\n      0x00\n        /* \"#utility.yul\":2699:2701   */\n      0x20\n        /* \"#utility.yul\":2688:2697   */\n      dup3\n        /* \"#utility.yul\":2684:2702   */\n      add\n        /* \"#utility.yul\":2676:2702   */\n      swap1\n      pop\n        /* \"#utility.yul\":2712:2783   */\n      tag_221\n        /* \"#utility.yul\":2780:2781   */\n      0x00\n        /* \"#utility.yul\":2769:2778   */\n      dup4\n        /* \"#utility.yul\":2765:2782   */\n      add\n        /* \"#utility.yul\":2756:2762   */\n      dup5\n        /* \"#utility.yul\":2712:2783   */\n      tag_164\n      jump\t// in\n    tag_221:\n        /* \"#utility.yul\":2568:2790   */\n      swap3\n      swap2\n      pop\n      pop\n      jump\t// out\n        /* \"#utility.yul\":2796:3125   */\n    tag_56:\n        /* \"#utility.yul\":2855:2861   */\n      0x00\n        /* \"#utility.yul\":2904:2906   */\n      0x20\n        /* \"#utility.yul\":2892:2901   */\n      dup3\n        /* \"#utility.yul\":2883:2890   */\n      dup5\n        /* \"#utility.yul\":2879:2902   */\n      sub\n        /* \"#utility.yul\":2875:2907   */\n      slt\n        /* \"#utility.yul\":2872:2991   */\n      iszero\n      tag_223\n      jumpi\n        /* \"#utility.yul\":2910:2989   */\n      tag_224\n      tag_155\n      jump\t// in\n    tag_224:\n        /* \"#utility.yul\":2872:2991   */\n    tag_223:\n        /* \"#utility.yul\":3030:3031   */\n      0x00\n        /* \"#utility.yul\":3055:3108   */\n      tag_225\n        /* \"#utility.yul\":3100:3107   */\n      dup5\n        /* \"#utility.yul\":3091:3097   */\n      dup3\n        /* \"#utility.yul\":3080:3089   */\n      dup6\n        /* \"#utility.yul\":3076:3098   */\n      add\n        /* \"#utility.yul\":3055:3108   */\n      tag_161\n      jump\t// in\n    tag_225:\n        /* \"#utility.yul\":3045:3108   */\n      swap2\n      pop\n        /* \"#utility.yul\":3001:3118   */\n      pop\n        /* \"#utility.yul\":2796:3125   */\n      swap3\n      swap2\n      pop\n      pop\n      jump\t// out\n        /* \"#utility.yul\":3131:3243   */\n    tag_165:\n        /* \"#utility.yul\":3214:3236   */\n      tag_227\n        /* \"#utility.yul\":3230:3235   */\n      dup2\n        /* \"#utility.yul\":3214:3236   */\n      tag_157\n      jump\t// in\n    tag_227:\n        /* \"#utility.yul\":3209:3212   */\n      dup3\n        /* \"#utility.yul\":3202:3237   */\n      mstore\n        /* \"#utility.yul\":3131:3243   */\n      pop\n      pop\n      jump\t// out\n        /* \"#utility.yul\":3249:3573   */\n    tag_59:\n        /* \"#utility.yul\":3366:3370   */\n      0x00\n        /* \"#utility.yul\":3404:3406   */\n      0x40\n        /* \"#utility.yul\":3393:3402   */\n      dup3\n        /* \"#utility.yul\":3389:3407   */\n      add\n        /* \"#utility.yul\":3381:3407   */\n      swap1\n      pop\n        /* \"#utility.yul\":3417:3488   */\n      tag_229\n        /* \"#utility.yul\":3485:3486   */\n      0x00\n        /* \"#utility.yul\":3474:3483   */\n      dup4\n        /* \"#utility.yul\":3470:3487   */\n      add\n        /* \"#utility.yul\":3461:3467   */\n      dup6\n        /* \"#utility.yul\":3417:3488   */\n      tag_164\n      jump\t// in\n    tag_229:\n        /* \"#utility.yul\":3498:3566   */\n      tag_230\n        /* \"#utility.yul\":3562:3564   */\n      0x20\n        /* \"#utility.yul\":3551:3560   */\n      dup4\n        /* \"#utility.yul\":3547:3565   */\n      add\n        /* \"#utility.yul\":3538:3544   */\n      dup5\n        /* \"#utility.yul\":3498:3566   */\n      tag_165\n      jump\t// in\n    tag_230:\n        /* \"#utility.yul\":3249:3573   */\n      swap4\n      swap3\n      pop\n      pop\n      pop\n      jump\t// out\n        /* \"#utility.yul\":3579:3715   */\n    tag_166:\n        /* \"#utility.yul\":3668:3674   */\n      0x00\n        /* \"#utility.yul\":3702:3707   */\n      dup2\n        /* \"#utility.yul\":3696:3708   */\n      mload\n        /* \"#utility.yul\":3686:3708   */\n      swap1\n      pop\n        /* \"#utility.yul\":3579:3715   */\n      swap2\n      swap1\n      pop\n      jump\t// out\n        /* \"#utility.yul\":3721:3927   */\n    tag_167:\n        /* \"#utility.yul\":3842:3853   */\n      0x00\n        /* \"#utility.yul\":3876:3882   */\n      dup3\n        /* \"#utility.yul\":3871:3874   */\n      dup3\n        /* \"#utility.yul\":3864:3883   */\n      mstore\n        /* \"#utility.yul\":3916:3920   */\n      0x20\n        /* \"#utility.yul\":3911:3914   */\n      dup3\n        /* \"#utility.yul\":3907:3921   */\n      add\n        /* \"#utility.yul\":3892:3921   */\n      swap1\n      pop\n        /* \"#utility.yul\":3721:3927   */\n      swap3\n      swap2\n      pop\n      pop\n      jump\t// out\n        /* \"#utility.yul\":3933:4087   */\n    tag_168:\n        /* \"#utility.yul\":4022:4026   */\n      0x00\n        /* \"#utility.yul\":4045:4048   */\n      dup2\n        /* \"#utility.yul\":4037:4048   */\n      swap1\n      pop\n        /* \"#utility.yul\":4075:4079   */\n      0x20\n        /* \"#utility.yul\":4070:4073   */\n      dup3\n        /* \"#utility.yul\":4066:4080   */\n      add\n        /* \"#utility.yul\":4058:4080   */\n      swap1\n      pop\n        /* \"#utility.yul\":3933:4087   */\n      swap2\n      swap1\n      pop\n      jump\t// out\n        /* \"#utility.yul\":4093:4201   */\n    tag_169:\n        /* \"#utility.yul\":4170:4194   */\n      tag_235\n        /* \"#utility.yul\":4188:4193   */\n      dup2\n        /* \"#utility.yul\":4170:4194   */\n      tag_163\n      jump\t// in\n    tag_235:\n        /* \"#utility.yul\":4165:4168   */\n      dup3\n        /* \"#utility.yul\":4158:4195   */\n      mstore\n        /* \"#utility.yul\":4093:4201   */\n      pop\n      pop\n      jump\t// out\n        /* \"#utility.yul\":4207:4309   */\n    tag_170:\n        /* \"#utility.yul\":4280:4302   */\n      tag_237\n        /* \"#utility.yul\":4296:4301   */\n      dup2\n        /* \"#utility.yul\":4280:4302   */\n      tag_157\n      jump\t// in\n    tag_237:\n        /* \"#utility.yul\":4275:4278   */\n      dup3\n        /* \"#utility.yul\":4268:4303   */\n      mstore\n        /* \"#utility.yul\":4207:4309   */\n      pop\n      pop\n      jump\t// out\n        /* \"#utility.yul\":4401:4906   */\n    tag_171:\n        /* \"#utility.yul\":4532:4536   */\n      0x40\n        /* \"#utility.yul\":4527:4530   */\n      dup3\n        /* \"#utility.yul\":4523:4537   */\n      add\n        /* \"#utility.yul\":4628:4632   */\n      0x00\n        /* \"#utility.yul\":4621:4626   */\n      dup3\n        /* \"#utility.yul\":4617:4633   */\n      add\n        /* \"#utility.yul\":4611:4634   */\n      mload\n        /* \"#utility.yul\":4647:4710   */\n      tag_239\n        /* \"#utility.yul\":4704:4708   */\n      0x00\n        /* \"#utility.yul\":4699:4702   */\n      dup6\n        /* \"#utility.yul\":4695:4709   */\n      add\n        /* \"#utility.yul\":4681:4693   */\n      dup3\n        /* \"#utility.yul\":4647:4710   */\n      tag_169\n      jump\t// in\n    tag_239:\n        /* \"#utility.yul\":4547:4720   */\n      pop\n        /* \"#utility.yul\":4811:4815   */\n      0x20\n        /* \"#utility.yul\":4804:4809   */\n      dup3\n        /* \"#utility.yul\":4800:4816   */\n      add\n        /* \"#utility.yul\":4794:4817   */\n      mload\n        /* \"#utility.yul\":4830:4889   */\n      tag_240\n        /* \"#utility.yul\":4883:4887   */\n      0x20\n        /* \"#utility.yul\":4878:4881   */\n      dup6\n        /* \"#utility.yul\":4874:4888   */\n      add\n        /* \"#utility.yul\":4860:4872   */\n      dup3\n        /* \"#utility.yul\":4830:4889   */\n      tag_170\n      jump\t// in\n    tag_240:\n        /* \"#utility.yul\":4730:4899   */\n      pop\n        /* \"#utility.yul\":4501:4906   */\n      pop\n        /* \"#utility.yul\":4401:4906   */\n      pop\n      pop\n      jump\t// out\n        /* \"#utility.yul\":4912:5179   */\n    tag_172:\n        /* \"#utility.yul\":5025:5035   */\n      0x00\n        /* \"#utility.yul\":5046:5136   */\n      tag_242\n        /* \"#utility.yul\":5132:5135   */\n      dup4\n        /* \"#utility.yul\":5124:5130   */\n      dup4\n        /* \"#utility.yul\":5046:5136   */\n      tag_171\n      jump\t// in\n    tag_242:\n        /* \"#utility.yul\":5168:5172   */\n      0x40\n        /* \"#utility.yul\":5163:5166   */\n      dup4\n        /* \"#utility.yul\":5159:5173   */\n      add\n        /* \"#utility.yul\":5145:5173   */\n      swap1\n      pop\n        /* \"#utility.yul\":4912:5179   */\n      swap3\n      swap2\n      pop\n      pop\n      jump\t// out\n        /* \"#utility.yul\":5185:5320   */\n    tag_173:\n        /* \"#utility.yul\":5277:5281   */\n      0x00\n        /* \"#utility.yul\":5309:5313   */\n      0x20\n        /* \"#utility.yul\":5304:5307   */\n      dup3\n        /* \"#utility.yul\":5300:5314   */\n      add\n        /* \"#utility.yul\":5292:5314   */\n      swap1\n      pop\n        /* \"#utility.yul\":5185:5320   */\n      swap2\n      swap1\n      pop\n      jump\t// out\n        /* \"#utility.yul\":5416:6324   */\n    tag_174:\n        /* \"#utility.yul\":5579:5582   */\n      0x00\n        /* \"#utility.yul\":5608:5684   */\n      tag_245\n        /* \"#utility.yul\":5678:5683   */\n      dup3\n        /* \"#utility.yul\":5608:5684   */\n      tag_166\n      jump\t// in\n    tag_245:\n        /* \"#utility.yul\":5700:5808   */\n      tag_246\n        /* \"#utility.yul\":5801:5807   */\n      dup2\n        /* \"#utility.yul\":5796:5799   */\n      dup6\n        /* \"#utility.yul\":5700:5808   */\n      tag_167\n      jump\t// in\n    tag_246:\n        /* \"#utility.yul\":5693:5808   */\n      swap4\n      pop\n        /* \"#utility.yul\":5832:5910   */\n      tag_247\n        /* \"#utility.yul\":5904:5909   */\n      dup4\n        /* \"#utility.yul\":5832:5910   */\n      tag_168\n      jump\t// in\n    tag_247:\n        /* \"#utility.yul\":5933:5940   */\n      dup1\n        /* \"#utility.yul\":5964:5965   */\n      0x00\n        /* \"#utility.yul\":5949:6299   */\n    tag_248:\n        /* \"#utility.yul\":5974:5980   */\n      dup4\n        /* \"#utility.yul\":5971:5972   */\n      dup2\n        /* \"#utility.yul\":5968:5981   */\n      lt\n        /* \"#utility.yul\":5949:6299   */\n      iszero\n      tag_250\n      jumpi\n        /* \"#utility.yul\":6050:6056   */\n      dup2\n        /* \"#utility.yul\":6044:6057   */\n      mload\n        /* \"#utility.yul\":6077:6184   */\n      tag_251\n        /* \"#utility.yul\":6180:6183   */\n      dup9\n        /* \"#utility.yul\":6165:6178   */\n      dup3\n        /* \"#utility.yul\":6077:6184   */\n      tag_172\n      jump\t// in\n    tag_251:\n        /* \"#utility.yul\":6070:6184   */\n      swap8\n      pop\n        /* \"#utility.yul\":6207:6289   */\n      tag_252\n        /* \"#utility.yul\":6282:6288   */\n      dup4\n        /* \"#utility.yul\":6207:6289   */\n      tag_173\n      jump\t// in\n    tag_252:\n        /* \"#utility.yul\":6197:6289   */\n      swap3\n      pop\n        /* \"#utility.yul\":6009:6299   */\n      pop\n        /* \"#utility.yul\":5996:5997   */\n      0x01\n        /* \"#utility.yul\":5993:5994   */\n      dup2\n        /* \"#utility.yul\":5989:5998   */\n      add\n        /* \"#utility.yul\":5984:5998   */\n      swap1\n      pop\n        /* \"#utility.yul\":5949:6299   */\n      jump(tag_248)\n    tag_250:\n        /* \"#utility.yul\":5953:5967   */\n      pop\n        /* \"#utility.yul\":6315:6318   */\n      dup6\n        /* \"#utility.yul\":6308:6318   */\n      swap4\n      pop\n        /* \"#utility.yul\":5584:6324   */\n      pop\n      pop\n      pop\n        /* \"#utility.yul\":5416:6324   */\n      swap3\n      swap2\n      pop\n      pop\n      jump\t// out\n        /* \"#utility.yul\":6330:6791   */\n    tag_64:\n        /* \"#utility.yul\":6517:6521   */\n      0x00\n        /* \"#utility.yul\":6555:6557   */\n      0x20\n        /* \"#utility.yul\":6544:6553   */\n      dup3\n        /* \"#utility.yul\":6540:6558   */\n      add\n        /* \"#utility.yul\":6532:6558   */\n      swap1\n      pop\n        /* \"#utility.yul\":6604:6613   */\n      dup2\n        /* \"#utility.yul\":6598:6602   */\n      dup2\n        /* \"#utility.yul\":6594:6614   */\n      sub\n        /* \"#utility.yul\":6590:6591   */\n      0x00\n        /* \"#utility.yul\":6579:6588   */\n      dup4\n        /* \"#utility.yul\":6575:6592   */\n      add\n        /* \"#utility.yul\":6568:6615   */\n      mstore\n        /* \"#utility.yul\":6632:6784   */\n      tag_254\n        /* \"#utility.yul\":6779:6783   */\n      dup2\n        /* \"#utility.yul\":6770:6776   */\n      dup5\n        /* \"#utility.yul\":6632:6784   */\n      tag_174\n      jump\t// in\n    tag_254:\n        /* \"#utility.yul\":6624:6784   */\n      swap1\n      pop\n        /* \"#utility.yul\":6330:6791   */\n      swap3\n      swap2\n      pop\n      pop\n      jump\t// out\n        /* \"#utility.yul\":6797:6966   */\n    tag_175:\n        /* \"#utility.yul\":6881:6892   */\n      0x00\n        /* \"#utility.yul\":6915:6921   */\n      dup3\n        /* \"#utility.yul\":6910:6913   */\n      dup3\n        /* \"#utility.yul\":6903:6922   */\n      mstore\n        /* \"#utility.yul\":6955:6959   */\n      0x20\n        /* \"#utility.yul\":6950:6953   */\n      dup3\n        /* \"#utility.yul\":6946:6960   */\n      add\n        /* \"#utility.yul\":6931:6960   */\n      swap1\n      pop\n        /* \"#utility.yul\":6797:6966   */\n      swap3\n      swap2\n      pop\n      pop\n      jump\t// out\n        /* \"#utility.yul\":6972:7144   */\n    tag_176:\n        /* \"#utility.yul\":7112:7136   */\n      0x4e6f742074686520636f6e7472616374206f776e657200000000000000000000\n        /* \"#utility.yul\":7108:7109   */\n      0x00\n        /* \"#utility.yul\":7100:7106   */\n      dup3\n        /* \"#utility.yul\":7096:7110   */\n      add\n        /* \"#utility.yul\":7089:7137   */\n      mstore\n        /* \"#utility.yul\":6972:7144   */\n      pop\n      jump\t// out\n        /* \"#utility.yul\":7150:7516   */\n    tag_177:\n        /* \"#utility.yul\":7292:7295   */\n      0x00\n        /* \"#utility.yul\":7313:7380   */\n      tag_258\n        /* \"#utility.yul\":7377:7379   */\n      0x16\n        /* \"#utility.yul\":7372:7375   */\n      dup4\n        /* \"#utility.yul\":7313:7380   */\n      tag_175\n      jump\t// in\n    tag_258:\n        /* \"#utility.yul\":7306:7380   */\n      swap2\n      pop\n        /* \"#utility.yul\":7389:7482   */\n      tag_259\n        /* \"#utility.yul\":7478:7481   */\n      dup3\n        /* \"#utility.yul\":7389:7482   */\n      tag_176\n      jump\t// in\n    tag_259:\n        /* \"#utility.yul\":7507:7509   */\n      0x20\n        /* \"#utility.yul\":7502:7505   */\n      dup3\n        /* \"#utility.yul\":7498:7510   */\n      add\n        /* \"#utility.yul\":7491:7510   */\n      swap1\n      pop\n        /* \"#utility.yul\":7150:7516   */\n      swap2\n      swap1\n      pop\n      jump\t// out\n        /* \"#utility.yul\":7522:7941   */\n    tag_73:\n        /* \"#utility.yul\":7688:7692   */\n      0x00\n        /* \"#utility.yul\":7726:7728   */\n      0x20\n        /* \"#utility.yul\":7715:7724   */\n      dup3\n        /* \"#utility.yul\":7711:7729   */\n      add\n        /* \"#utility.yul\":7703:7729   */\n      swap1\n      pop\n        /* \"#utility.yul\":7775:7784   */\n      dup2\n        /* \"#utility.yul\":7769:7773   */\n      dup2\n        /* \"#utility.yul\":7765:7785   */\n      sub\n        /* \"#utility.yul\":7761:7762   */\n      0x00\n        /* \"#utility.yul\":7750:7759   */\n      dup4\n        /* \"#utility.yul\":7746:7763   */\n      add\n        /* \"#utility.yul\":7739:7786   */\n      mstore\n        /* \"#utility.yul\":7803:7934   */\n      tag_261\n        /* \"#utility.yul\":7929:7933   */\n      dup2\n        /* \"#utility.yul\":7803:7934   */\n      tag_177\n      jump\t// in\n    tag_261:\n        /* \"#utility.yul\":7795:7934   */\n      swap1\n      pop\n        /* \"#utility.yul\":7522:7941   */\n      swap2\n      swap1\n      pop\n      jump\t// out\n        /* \"#utility.yul\":7947:8127   */\n    tag_178:\n        /* \"#utility.yul\":7995:8072   */\n      0x4e487b7100000000000000000000000000000000000000000000000000000000\n        /* \"#utility.yul\":7992:7993   */\n      0x00\n        /* \"#utility.yul\":7985:8073   */\n      mstore\n        /* \"#utility.yul\":8092:8096   */\n      0x11\n        /* \"#utility.yul\":8089:8090   */\n      0x04\n        /* \"#utility.yul\":8082:8097   */\n      mstore\n        /* \"#utility.yul\":8116:8120   */\n      0x24\n        /* \"#utility.yul\":8113:8114   */\n      0x00\n        /* \"#utility.yul\":8106:8121   */\n      revert\n        /* \"#utility.yul\":8133:8327   */\n    tag_80:\n        /* \"#utility.yul\":8173:8177   */\n      0x00\n        /* \"#utility.yul\":8193:8213   */\n      tag_264\n        /* \"#utility.yul\":8211:8212   */\n      dup3\n        /* \"#utility.yul\":8193:8213   */\n      tag_152\n      jump\t// in\n    tag_264:\n        /* \"#utility.yul\":8188:8213   */\n      swap2\n      pop\n        /* \"#utility.yul\":8227:8247   */\n      tag_265\n        /* \"#utility.yul\":8245:8246   */\n      dup4\n        /* \"#utility.yul\":8227:8247   */\n      tag_152\n      jump\t// in\n    tag_265:\n        /* \"#utility.yul\":8222:8247   */\n      swap3\n      pop\n        /* \"#utility.yul\":8271:8272   */\n      dup3\n        /* \"#utility.yul\":8268:8269   */\n      dup3\n        /* \"#utility.yul\":8264:8273   */\n      sub\n        /* \"#utility.yul\":8256:8273   */\n      swap1\n      pop\n        /* \"#utility.yul\":8295:8296   */\n      dup2\n        /* \"#utility.yul\":8289:8293   */\n      dup2\n        /* \"#utility.yul\":8286:8297   */\n      gt\n        /* \"#utility.yul\":8283:8320   */\n      iszero\n      tag_266\n      jumpi\n        /* \"#utility.yul\":8300:8318   */\n      tag_267\n      tag_178\n      jump\t// in\n    tag_267:\n        /* \"#utility.yul\":8283:8320   */\n    tag_266:\n        /* \"#utility.yul\":8133:8327   */\n      swap3\n      swap2\n      pop\n      pop\n      jump\t// out\n        /* \"#utility.yul\":8333:8559   */\n    tag_179:\n        /* \"#utility.yul\":8473:8507   */\n      0x47756573736564206e756d626572206d757374206265206265747765656e2031\n        /* \"#utility.yul\":8469:8470   */\n      0x00\n        /* \"#utility.yul\":8461:8467   */\n      dup3\n        /* \"#utility.yul\":8457:8471   */\n      add\n        /* \"#utility.yul\":8450:8508   */\n      mstore\n        /* \"#utility.yul\":8542:8551   */\n      0x20616e6420313000000000000000000000000000000000000000000000000000\n        /* \"#utility.yul\":8537:8539   */\n      0x20\n        /* \"#utility.yul\":8529:8535   */\n      dup3\n        /* \"#utility.yul\":8525:8540   */\n      add\n        /* \"#utility.yul\":8518:8552   */\n      mstore\n        /* \"#utility.yul\":8333:8559   */\n      pop\n      jump\t// out\n        /* \"#utility.yul\":8565:8931   */\n    tag_180:\n        /* \"#utility.yul\":8707:8710   */\n      0x00\n        /* \"#utility.yul\":8728:8795   */\n      tag_270\n        /* \"#utility.yul\":8792:8794   */\n      0x27\n        /* \"#utility.yul\":8787:8790   */\n      dup4\n        /* \"#utility.yul\":8728:8795   */\n      tag_175\n      jump\t// in\n    tag_270:\n        /* \"#utility.yul\":8721:8795   */\n      swap2\n      pop\n        /* \"#utility.yul\":8804:8897   */\n      tag_271\n        /* \"#utility.yul\":8893:8896   */\n      dup3\n        /* \"#utility.yul\":8804:8897   */\n      tag_179\n      jump\t// in\n    tag_271:\n        /* \"#utility.yul\":8922:8924   */\n      0x40\n        /* \"#utility.yul\":8917:8920   */\n      dup3\n        /* \"#utility.yul\":8913:8925   */\n      add\n        /* \"#utility.yul\":8906:8925   */\n      swap1\n      pop\n        /* \"#utility.yul\":8565:8931   */\n      swap2\n      swap1\n      pop\n      jump\t// out\n        /* \"#utility.yul\":8937:9356   */\n    tag_87:\n        /* \"#utility.yul\":9103:9107   */\n      0x00\n        /* \"#utility.yul\":9141:9143   */\n      0x20\n        /* \"#utility.yul\":9130:9139   */\n      dup3\n        /* \"#utility.yul\":9126:9144   */\n      add\n        /* \"#utility.yul\":9118:9144   */\n      swap1\n      pop\n        /* \"#utility.yul\":9190:9199   */\n      dup2\n        /* \"#utility.yul\":9184:9188   */\n      dup2\n        /* \"#utility.yul\":9180:9200   */\n      sub\n        /* \"#utility.yul\":9176:9177   */\n      0x00\n        /* \"#utility.yul\":9165:9174   */\n      dup4\n        /* \"#utility.yul\":9161:9178   */\n      add\n        /* \"#utility.yul\":9154:9201   */\n      mstore\n        /* \"#utility.yul\":9218:9349   */\n      tag_273\n        /* \"#utility.yul\":9344:9348   */\n      dup2\n        /* \"#utility.yul\":9218:9349   */\n      tag_180\n      jump\t// in\n    tag_273:\n        /* \"#utility.yul\":9210:9349   */\n      swap1\n      pop\n        /* \"#utility.yul\":8937:9356   */\n      swap2\n      swap1\n      pop\n      jump\t// out\n        /* \"#utility.yul\":9362:9590   */\n    tag_181:\n        /* \"#utility.yul\":9502:9536   */\n      0x42657420616d6f756e74206d7573742062652077697468696e206d696e20616e\n        /* \"#utility.yul\":9498:9499   */\n      0x00\n        /* \"#utility.yul\":9490:9496   */\n      dup3\n        /* \"#utility.yul\":9486:9500   */\n      add\n        /* \"#utility.yul\":9479:9537   */\n      mstore\n        /* \"#utility.yul\":9571:9582   */\n      0x64206d6178206265740000000000000000000000000000000000000000000000\n        /* \"#utility.yul\":9566:9568   */\n      0x20\n        /* \"#utility.yul\":9558:9564   */\n      dup3\n        /* \"#utility.yul\":9554:9569   */\n      add\n        /* \"#utility.yul\":9547:9583   */\n      mstore\n        /* \"#utility.yul\":9362:9590   */\n      pop\n      jump\t// out\n        /* \"#utility.yul\":9596:9962   */\n    tag_182:\n        /* \"#utility.yul\":9738:9741   */\n      0x00\n        /* \"#utility.yul\":9759:9826   */\n      tag_276\n        /* \"#utility.yul\":9823:9825   */\n      0x29\n        /* \"#utility.yul\":9818:9821   */\n      dup4\n        /* \"#utility.yul\":9759:9826   */\n      tag_175\n      jump\t// in\n    tag_276:\n        /* \"#utility.yul\":9752:9826   */\n      swap2\n      pop\n        /* \"#utility.yul\":9835:9928   */\n      tag_277\n        /* \"#utility.yul\":9924:9927   */\n      dup3\n        /* \"#utility.yul\":9835:9928   */\n      tag_181\n      jump\t// in\n    tag_277:\n        /* \"#utility.yul\":9953:9955   */\n      0x40\n        /* \"#utility.yul\":9948:9951   */\n      dup3\n        /* \"#utility.yul\":9944:9956   */\n      add\n        /* \"#utility.yul\":9937:9956   */\n      swap1\n      pop\n        /* \"#utility.yul\":9596:9962   */\n      swap2\n      swap1\n      pop\n      jump\t// out\n        /* \"#utility.yul\":9968:10387   */\n    tag_91:\n        /* \"#utility.yul\":10134:10138   */\n      0x00\n        /* \"#utility.yul\":10172:10174   */\n      0x20\n        /* \"#utility.yul\":10161:10170   */\n      dup3\n        /* \"#utility.yul\":10157:10175   */\n      add\n        /* \"#utility.yul\":10149:10175   */\n      swap1\n      pop\n        /* \"#utility.yul\":10221:10230   */\n      dup2\n        /* \"#utility.yul\":10215:10219   */\n      dup2\n        /* \"#utility.yul\":10211:10231   */\n      sub\n        /* \"#utility.yul\":10207:10208   */\n      0x00\n        /* \"#utility.yul\":10196:10205   */\n      dup4\n        /* \"#utility.yul\":10192:10209   */\n      add\n        /* \"#utility.yul\":10185:10232   */\n      mstore\n        /* \"#utility.yul\":10249:10380   */\n      tag_279\n        /* \"#utility.yul\":10375:10379   */\n      dup2\n        /* \"#utility.yul\":10249:10380   */\n      tag_182\n      jump\t// in\n    tag_279:\n        /* \"#utility.yul\":10241:10380   */\n      swap1\n      pop\n        /* \"#utility.yul\":9968:10387   */\n      swap2\n      swap1\n      pop\n      jump\t// out\n        /* \"#utility.yul\":10393:10584   */\n    tag_94:\n        /* \"#utility.yul\":10433:10436   */\n      0x00\n        /* \"#utility.yul\":10452:10472   */\n      tag_281\n        /* \"#utility.yul\":10470:10471   */\n      dup3\n        /* \"#utility.yul\":10452:10472   */\n      tag_152\n      jump\t// in\n    tag_281:\n        /* \"#utility.yul\":10447:10472   */\n      swap2\n      pop\n        /* \"#utility.yul\":10486:10506   */\n      tag_282\n        /* \"#utility.yul\":10504:10505   */\n      dup4\n        /* \"#utility.yul\":10486:10506   */\n      tag_152\n      jump\t// in\n    tag_282:\n        /* \"#utility.yul\":10481:10506   */\n      swap3\n      pop\n        /* \"#utility.yul\":10529:10530   */\n      dup3\n        /* \"#utility.yul\":10526:10527   */\n      dup3\n        /* \"#utility.yul\":10522:10531   */\n      add\n        /* \"#utility.yul\":10515:10531   */\n      swap1\n      pop\n        /* \"#utility.yul\":10550:10553   */\n      dup1\n        /* \"#utility.yul\":10547:10548   */\n      dup3\n        /* \"#utility.yul\":10544:10554   */\n      gt\n        /* \"#utility.yul\":10541:10577   */\n      iszero\n      tag_283\n      jumpi\n        /* \"#utility.yul\":10557:10575   */\n      tag_284\n      tag_178\n      jump\t// in\n    tag_284:\n        /* \"#utility.yul\":10541:10577   */\n    tag_283:\n        /* \"#utility.yul\":10393:10584   */\n      swap3\n      swap2\n      pop\n      pop\n      jump\t// out\n        /* \"#utility.yul\":10590:10770   */\n    tag_183:\n        /* \"#utility.yul\":10638:10715   */\n      0x4e487b7100000000000000000000000000000000000000000000000000000000\n        /* \"#utility.yul\":10635:10636   */\n      0x00\n        /* \"#utility.yul\":10628:10716   */\n      mstore\n        /* \"#utility.yul\":10735:10739   */\n      0x12\n        /* \"#utility.yul\":10732:10733   */\n      0x04\n        /* \"#utility.yul\":10725:10740   */\n      mstore\n        /* \"#utility.yul\":10759:10763   */\n      0x24\n        /* \"#utility.yul\":10756:10757   */\n      0x00\n        /* \"#utility.yul\":10749:10764   */\n      revert\n        /* \"#utility.yul\":10776:10952   */\n    tag_96:\n        /* \"#utility.yul\":10808:10809   */\n      0x00\n        /* \"#utility.yul\":10825:10845   */\n      tag_287\n        /* \"#utility.yul\":10843:10844   */\n      dup3\n        /* \"#utility.yul\":10825:10845   */\n      tag_152\n      jump\t// in\n    tag_287:\n        /* \"#utility.yul\":10820:10845   */\n      swap2\n      pop\n        /* \"#utility.yul\":10859:10879   */\n      tag_288\n        /* \"#utility.yul\":10877:10878   */\n      dup4\n        /* \"#utility.yul\":10859:10879   */\n      tag_152\n      jump\t// in\n    tag_288:\n        /* \"#utility.yul\":10854:10879   */\n      swap3\n      pop\n        /* \"#utility.yul\":10898:10899   */\n      dup3\n        /* \"#utility.yul\":10888:10923   */\n      tag_289\n      jumpi\n        /* \"#utility.yul\":10903:10921   */\n      tag_290\n      tag_183\n      jump\t// in\n    tag_290:\n        /* \"#utility.yul\":10888:10923   */\n    tag_289:\n        /* \"#utility.yul\":10944:10945   */\n      dup3\n        /* \"#utility.yul\":10941:10942   */\n      dup3\n        /* \"#utility.yul\":10937:10946   */\n      mod\n        /* \"#utility.yul\":10932:10946   */\n      swap1\n      pop\n        /* \"#utility.yul\":10776:10952   */\n      swap3\n      swap2\n      pop\n      pop\n      jump\t// out\n        /* \"#utility.yul\":10958:11129   */\n    tag_184:\n        /* \"#utility.yul\":11098:11121   */\n      0x526f756e6420616c726561647920737461727465640000000000000000000000\n        /* \"#utility.yul\":11094:11095   */\n      0x00\n        /* \"#utility.yul\":11086:11092   */\n      dup3\n        /* \"#utility.yul\":11082:11096   */\n      add\n        /* \"#utility.yul\":11075:11122   */\n      mstore\n        /* \"#utility.yul\":10958:11129   */\n      pop\n      jump\t// out\n        /* \"#utility.yul\":11135:11501   */\n    tag_185:\n        /* \"#utility.yul\":11277:11280   */\n      0x00\n        /* \"#utility.yul\":11298:11365   */\n      tag_293\n        /* \"#utility.yul\":11362:11364   */\n      0x15\n        /* \"#utility.yul\":11357:11360   */\n      dup4\n        /* \"#utility.yul\":11298:11365   */\n      tag_175\n      jump\t// in\n    tag_293:\n        /* \"#utility.yul\":11291:11365   */\n      swap2\n      pop\n        /* \"#utility.yul\":11374:11467   */\n      tag_294\n        /* \"#utility.yul\":11463:11466   */\n      dup3\n        /* \"#utility.yul\":11374:11467   */\n      tag_184\n      jump\t// in\n    tag_294:\n        /* \"#utility.yul\":11492:11494   */\n      0x20\n        /* \"#utility.yul\":11487:11490   */\n      dup3\n        /* \"#utility.yul\":11483:11495   */\n      add\n        /* \"#utility.yul\":11476:11495   */\n      swap1\n      pop\n        /* \"#utility.yul\":11135:11501   */\n      swap2\n      swap1\n      pop\n      jump\t// out\n        /* \"#utility.yul\":11507:11926   */\n    tag_109:\n        /* \"#utility.yul\":11673:11677   */\n      0x00\n        /* \"#utility.yul\":11711:11713   */\n      0x20\n        /* \"#utility.yul\":11700:11709   */\n      dup3\n        /* \"#utility.yul\":11696:11714   */\n      add\n        /* \"#utility.yul\":11688:11714   */\n      swap1\n      pop\n        /* \"#utility.yul\":11760:11769   */\n      dup2\n        /* \"#utility.yul\":11754:11758   */\n      dup2\n        /* \"#utility.yul\":11750:11770   */\n      sub\n        /* \"#utility.yul\":11746:11747   */\n      0x00\n        /* \"#utility.yul\":11735:11744   */\n      dup4\n        /* \"#utility.yul\":11731:11748   */\n      add\n        /* \"#utility.yul\":11724:11771   */\n      mstore\n        /* \"#utility.yul\":11788:11919   */\n      tag_296\n        /* \"#utility.yul\":11914:11918   */\n      dup2\n        /* \"#utility.yul\":11788:11919   */\n      tag_185\n      jump\t// in\n    tag_296:\n        /* \"#utility.yul\":11780:11919   */\n      swap1\n      pop\n        /* \"#utility.yul\":11507:11926   */\n      swap2\n      swap1\n      pop\n      jump\t// out\n        /* \"#utility.yul\":11932:12112   */\n    tag_128:\n        /* \"#utility.yul\":11980:12057   */\n      0x4e487b7100000000000000000000000000000000000000000000000000000000\n        /* \"#utility.yul\":11977:11978   */\n      0x00\n        /* \"#utility.yul\":11970:12058   */\n      mstore\n        /* \"#utility.yul\":12077:12081   */\n      0x32\n        /* \"#utility.yul\":12074:12075   */\n      0x04\n        /* \"#utility.yul\":12067:12082   */\n      mstore\n        /* \"#utility.yul\":12101:12105   */\n      0x24\n        /* \"#utility.yul\":12098:12099   */\n      0x00\n        /* \"#utility.yul\":12091:12106   */\n      revert\n        /* \"#utility.yul\":12118:12303   */\n    tag_137:\n        /* \"#utility.yul\":12158:12159   */\n      0x00\n        /* \"#utility.yul\":12175:12195   */\n      tag_299\n        /* \"#utility.yul\":12193:12194   */\n      dup3\n        /* \"#utility.yul\":12175:12195   */\n      tag_152\n      jump\t// in\n    tag_299:\n        /* \"#utility.yul\":12170:12195   */\n      swap2\n      pop\n        /* \"#utility.yul\":12209:12229   */\n      tag_300\n        /* \"#utility.yul\":12227:12228   */\n      dup4\n        /* \"#utility.yul\":12209:12229   */\n      tag_152\n      jump\t// in\n    tag_300:\n        /* \"#utility.yul\":12204:12229   */\n      swap3\n      pop\n        /* \"#utility.yul\":12248:12249   */\n      dup3\n        /* \"#utility.yul\":12238:12273   */\n      tag_301\n      jumpi\n        /* \"#utility.yul\":12253:12271   */\n      tag_302\n      tag_183\n      jump\t// in\n    tag_302:\n        /* \"#utility.yul\":12238:12273   */\n    tag_301:\n        /* \"#utility.yul\":12295:12296   */\n      dup3\n        /* \"#utility.yul\":12292:12293   */\n      dup3\n        /* \"#utility.yul\":12288:12297   */\n      div\n        /* \"#utility.yul\":12283:12297   */\n      swap1\n      pop\n        /* \"#utility.yul\":12118:12303   */\n      swap3\n      swap2\n      pop\n      pop\n      jump\t// out\n\n    auxdata: 0xa2646970667358221220a00504767c6ec932a42699d9a0e129c06f4d07841ae91e872a30e7fc4d135daf64736f6c634300081a0033\n}\n",
				"bytecode": {
					"linkReferences": {},
					"object": "608060405234801561000f575f80fd5b506040516112a43803806112a4833981810160405281019061003191906100bd565b3360045f6101000a81548173ffffffffffffffffffffffffffffffffffffffff021916908373ffffffffffffffffffffffffffffffffffffffff160217905550816002819055508060038190555050506100fb565b5f80fd5b5f819050919050565b61009c8161008a565b81146100a6575f80fd5b50565b5f815190506100b781610093565b92915050565b5f80604083850312156100d3576100d2610086565b5b5f6100e0858286016100a9565b92505060206100f1858286016100a9565b9150509250929050565b61119c806101085f395ff3fe6080604052600436106100a6575f3560e01c806354965b851161006357806354965b85146101845780638da5cb5b146101ac5780639619367d146101d6578063a2fb117514610200578063df15c37e1461023d578063f71d96cb14610267576100a6565b8063102ad5d7146100aa57806312065fe0146100d45780632e5b2168146100fe5780633ccfd60b1461012857806347ce07cc1461013e57806353a04b0514610168575b5f80fd5b3480156100b5575f80fd5b506100be6102a4565b6040516100cb9190610b6b565b60405180910390f35b3480156100df575f80fd5b506100e86102aa565b6040516100f59190610b6b565b60405180910390f35b348015610109575f80fd5b50610112610340565b60405161011f9190610b6b565b60405180910390f35b348015610133575f80fd5b5061013c610346565b005b348015610149575f80fd5b50610152610453565b60405161015f9190610b6b565b60405180910390f35b610182600480360381019061017d9190610bbe565b610458565b005b34801561018f575f80fd5b506101aa60048036038101906101a59190610c13565b610634565b005b3480156101b7575f80fd5b506101c061071c565b6040516101cd9190610c90565b60405180910390f35b3480156101e1575f80fd5b506101ea610741565b6040516101f79190610b6b565b60405180910390f35b34801561020b575f80fd5b5061022660048036038101906102219190610ca9565b610747565b604051610234929190610ce3565b60405180910390f35b348015610248575f80fd5b5061025161079d565b60405161025e9190610dfd565b60405180910390f35b348015610272575f80fd5b5061028d60048036038101906102889190610ca9565b610865565b60405161029b929190610ce3565b60405180910390f35b60015481565b5f60045f9054906101000a900473ffffffffffffffffffffffffffffffffffffffff1673ffffffffffffffffffffffffffffffffffffffff163373ffffffffffffffffffffffffffffffffffffffff161461033a576040517f08c379a000000000000000000000000000000000000000000000000000000000815260040161033190610e77565b60405180910390fd5b47905090565b60035481565b60045f9054906101000a900473ffffffffffffffffffffffffffffffffffffffff1673ffffffffffffffffffffffffffffffffffffffff163373ffffffffffffffffffffffffffffffffffffffff16146103d5576040517f08c379a00000000000000000000000000000000000000000000000000000000081526004016103cc90610e77565b60405180910390fd5b5f4790505f600154826103e89190610ec2565b905060045f9054906101000a900473ffffffffffffffffffffffffffffffffffffffff1673ffffffffffffffffffffffffffffffffffffffff166108fc8290811502906040515f60405180830381858888f1935050505015801561044e573d5f803e3d5ffd5b505050565b5f5481565b60018160ff16101580156104705750600a8160ff1611155b6104af576040517f08c379a00000000000000000000000000000000000000000000000000000000081526004016104a690610f65565b60405180910390fd5b60025434101580156104c357506003543411155b610502576040517f08c379a00000000000000000000000000000000000000000000000000000000081526004016104f990610ff3565b60405180910390fd5b600560405180604001604052803373ffffffffffffffffffffffffffffffffffffffff1681526020018360ff16815250908060018154018082558091505060019003905f5260205f20015f909190919091505f820151815f015f6101000a81548173ffffffffffffffffffffffffffffffffffffffff021916908373ffffffffffffffffffffffffffffffffffffffff1602179055506020820151815f0160146101000a81548160ff021916908360ff16021790555050503460015f8282546105cb9190611011565b925050819055505f43405f1c90505f4290506103e8816105eb9190611071565b6103e8836105f99190611071565b6106039190611011565b5f808282546106129190611011565b92505081905550600a6005805490500361062f5761062e6108bb565b5b505050565b60045f9054906101000a900473ffffffffffffffffffffffffffffffffffffffff1673ffffffffffffffffffffffffffffffffffffffff163373ffffffffffffffffffffffffffffffffffffffff16146106c3576040517f08c379a00000000000000000000000000000000000000000000000000000000081526004016106ba90610e77565b60405180910390fd5b5f6005805490501461070a576040517f08c379a0000000000000000000000000000000000000000000000000000000008152600401610701906110eb565b60405180910390fd5b81600281905550806003819055505050565b60045f9054906101000a900473ffffffffffffffffffffffffffffffffffffffff1681565b60025481565b60068181548110610756575f80fd5b905f5260205f20015f91509050805f015f9054906101000a900473ffffffffffffffffffffffffffffffffffffffff1690805f0160149054906101000a900460ff16905082565b60606006805480602002602001604051908101604052809291908181526020015f905b8282101561085c578382905f5260205f20016040518060400160405290815f82015f9054906101000a900473ffffffffffffffffffffffffffffffffffffffff1673ffffffffffffffffffffffffffffffffffffffff1673ffffffffffffffffffffffffffffffffffffffff1681526020015f820160149054906101000a900460ff1660ff1660ff1681525050815260200190600101906107c0565b50505050905090565b60058181548110610874575f80fd5b905f5260205f20015f91509050805f015f9054906101000a900473ffffffffffffffffffffffffffffffffffffffff1690805f0160149054906101000a900460ff16905082565b60065f6108c89190610ae6565b5f6001600a5f546108d99190611071565b6108e39190611011565b90505f5b600580549050811015610a0b578160ff166005828154811061090c5761090b611109565b5b905f5260205f20015f0160149054906101000a900460ff1660ff16036109fe5760066005828154811061094257610941611109565b5b905f5260205f2001908060018154018082558091505060019003905f5260205f20015f909190919091505f82015f9054906101000a900473ffffffffffffffffffffffffffffffffffffffff16815f015f6101000a81548173ffffffffffffffffffffffffffffffffffffffff021916908373ffffffffffffffffffffffffffffffffffffffff1602179055505f820160149054906101000a900460ff16815f0160146101000a81548160ff021916908360ff16021790555050505b80806001019150506108e7565b505f6006805490501115610acf575f600680549050600154610a2d9190611136565b90505f5b600680549050811015610acc5760068181548110610a5257610a51611109565b5b905f5260205f20015f015f9054906101000a900473ffffffffffffffffffffffffffffffffffffffff1673ffffffffffffffffffffffffffffffffffffffff166108fc8390811502906040515f60405180830381858888f19350505050158015610abe573d5f803e3d5ffd5b508080600101915050610a31565b50505b5f60018190555060055f610ae39190610ae6565b50565b5080545f8255905f5260205f2090810190610b019190610b04565b50565b5b80821115610b4f575f8082015f6101000a81549073ffffffffffffffffffffffffffffffffffffffff02191690555f820160146101000a81549060ff021916905550600101610b05565b5090565b5f819050919050565b610b6581610b53565b82525050565b5f602082019050610b7e5f830184610b5c565b92915050565b5f80fd5b5f60ff82169050919050565b610b9d81610b88565b8114610ba7575f80fd5b50565b5f81359050610bb881610b94565b92915050565b5f60208284031215610bd357610bd2610b84565b5b5f610be084828501610baa565b91505092915050565b610bf281610b53565b8114610bfc575f80fd5b50565b5f81359050610c0d81610be9565b92915050565b5f8060408385031215610c2957610c28610b84565b5b5f610c3685828601610bff565b9250506020610c4785828601610bff565b9150509250929050565b5f73ffffffffffffffffffffffffffffffffffffffff82169050919050565b5f610c7a82610c51565b9050919050565b610c8a81610c70565b82525050565b5f602082019050610ca35f830184610c81565b92915050565b5f60208284031215610cbe57610cbd610b84565b5b5f610ccb84828501610bff565b91505092915050565b610cdd81610b88565b82525050565b5f604082019050610cf65f830185610c81565b610d036020830184610cd4565b9392505050565b5f81519050919050565b5f82825260208201905092915050565b5f819050602082019050919050565b610d3c81610c70565b82525050565b610d4b81610b88565b82525050565b604082015f820151610d655f850182610d33565b506020820151610d786020850182610d42565b50505050565b5f610d898383610d51565b60408301905092915050565b5f602082019050919050565b5f610dab82610d0a565b610db58185610d14565b9350610dc083610d24565b805f5b83811015610df0578151610dd78882610d7e565b9750610de283610d95565b925050600181019050610dc3565b5085935050505092915050565b5f6020820190508181035f830152610e158184610da1565b905092915050565b5f82825260208201905092915050565b7f4e6f742074686520636f6e7472616374206f776e6572000000000000000000005f82015250565b5f610e61601683610e1d565b9150610e6c82610e2d565b602082019050919050565b5f6020820190508181035f830152610e8e81610e55565b9050919050565b7f4e487b71000000000000000000000000000000000000000000000000000000005f52601160045260245ffd5b5f610ecc82610b53565b9150610ed783610b53565b9250828203905081811115610eef57610eee610e95565b5b92915050565b7f47756573736564206e756d626572206d757374206265206265747765656e20315f8201527f20616e6420313000000000000000000000000000000000000000000000000000602082015250565b5f610f4f602783610e1d565b9150610f5a82610ef5565b604082019050919050565b5f6020820190508181035f830152610f7c81610f43565b9050919050565b7f42657420616d6f756e74206d7573742062652077697468696e206d696e20616e5f8201527f64206d6178206265740000000000000000000000000000000000000000000000602082015250565b5f610fdd602983610e1d565b9150610fe882610f83565b604082019050919050565b5f6020820190508181035f83015261100a81610fd1565b9050919050565b5f61101b82610b53565b915061102683610b53565b925082820190508082111561103e5761103d610e95565b5b92915050565b7f4e487b71000000000000000000000000000000000000000000000000000000005f52601260045260245ffd5b5f61107b82610b53565b915061108683610b53565b92508261109657611095611044565b5b828206905092915050565b7f526f756e6420616c7265616479207374617274656400000000000000000000005f82015250565b5f6110d5601583610e1d565b91506110e0826110a1565b602082019050919050565b5f6020820190508181035f830152611102816110c9565b9050919050565b7f4e487b71000000000000000000000000000000000000000000000000000000005f52603260045260245ffd5b5f61114082610b53565b915061114b83610b53565b92508261115b5761115a611044565b5b82820490509291505056fea2646970667358221220a00504767c6ec932a42699d9a0e129c06f4d07841ae91e872a30e7fc4d135daf64736f6c634300081a0033",
					"opcodes": "PUSH1 0x80 PUSH1 0x40 MSTORE CALLVALUE DUP1 ISZERO PUSH2 0xF JUMPI PUSH0 DUP1 REVERT JUMPDEST POP PUSH1 0x40 MLOAD PUSH2 0x12A4 CODESIZE SUB DUP1 PUSH2 0x12A4 DUP4 CODECOPY DUP2 DUP2 ADD PUSH1 0x40 MSTORE DUP2 ADD SWAP1 PUSH2 0x31 SWAP2 SWAP1 PUSH2 0xBD JUMP JUMPDEST CALLER PUSH1 0x4 PUSH0 PUSH2 0x100 EXP DUP2 SLOAD DUP2 PUSH20 0xFFFFFFFFFFFFFFFFFFFFFFFFFFFFFFFFFFFFFFFF MUL NOT AND SWAP1 DUP4 PUSH20 0xFFFFFFFFFFFFFFFFFFFFFFFFFFFFFFFFFFFFFFFF AND MUL OR SWAP1 SSTORE POP DUP2 PUSH1 0x2 DUP2 SWAP1 SSTORE POP DUP1 PUSH1 0x3 DUP2 SWAP1 SSTORE POP POP POP PUSH2 0xFB JUMP JUMPDEST PUSH0 DUP1 REVERT JUMPDEST PUSH0 DUP2 SWAP1 POP SWAP2 SWAP1 POP JUMP JUMPDEST PUSH2 0x9C DUP2 PUSH2 0x8A JUMP JUMPDEST DUP2 EQ PUSH2 0xA6 JUMPI PUSH0 DUP1 REVERT JUMPDEST POP JUMP JUMPDEST PUSH0 DUP2 MLOAD SWAP1 POP PUSH2 0xB7 DUP2 PUSH2 0x93 JUMP JUMPDEST SWAP3 SWAP2 POP POP JUMP JUMPDEST PUSH0 DUP1 PUSH1 0x40 DUP4 DUP6 SUB SLT ISZERO PUSH2 0xD3 JUMPI PUSH2 0xD2 PUSH2 0x86 JUMP JUMPDEST JUMPDEST PUSH0 PUSH2 0xE0 DUP6 DUP3 DUP7 ADD PUSH2 0xA9 JUMP JUMPDEST SWAP3 POP POP PUSH1 0x20 PUSH2 0xF1 DUP6 DUP3 DUP7 ADD PUSH2 0xA9 JUMP JUMPDEST SWAP2 POP POP SWAP3 POP SWAP3 SWAP1 POP JUMP JUMPDEST PUSH2 0x119C DUP1 PUSH2 0x108 PUSH0 CODECOPY PUSH0 RETURN INVALID PUSH1 0x80 PUSH1 0x40 MSTORE PUSH1 0x4 CALLDATASIZE LT PUSH2 0xA6 JUMPI PUSH0 CALLDATALOAD PUSH1 0xE0 SHR DUP1 PUSH4 0x54965B85 GT PUSH2 0x63 JUMPI DUP1 PUSH4 0x54965B85 EQ PUSH2 0x184 JUMPI DUP1 PUSH4 0x8DA5CB5B EQ PUSH2 0x1AC JUMPI DUP1 PUSH4 0x9619367D EQ PUSH2 0x1D6 JUMPI DUP1 PUSH4 0xA2FB1175 EQ PUSH2 0x200 JUMPI DUP1 PUSH4 0xDF15C37E EQ PUSH2 0x23D JUMPI DUP1 PUSH4 0xF71D96CB EQ PUSH2 0x267 JUMPI PUSH2 0xA6 JUMP JUMPDEST DUP1 PUSH4 0x102AD5D7 EQ PUSH2 0xAA JUMPI DUP1 PUSH4 0x12065FE0 EQ PUSH2 0xD4 JUMPI DUP1 PUSH4 0x2E5B2168 EQ PUSH2 0xFE JUMPI DUP1 PUSH4 0x3CCFD60B EQ PUSH2 0x128 JUMPI DUP1 PUSH4 0x47CE07CC EQ PUSH2 0x13E JUMPI DUP1 PUSH4 0x53A04B05 EQ PUSH2 0x168 JUMPI JUMPDEST PUSH0 DUP1 REVERT JUMPDEST CALLVALUE DUP1 ISZERO PUSH2 0xB5 JUMPI PUSH0 DUP1 REVERT JUMPDEST POP PUSH2 0xBE PUSH2 0x2A4 JUMP JUMPDEST PUSH1 0x40 MLOAD PUSH2 0xCB SWAP2 SWAP1 PUSH2 0xB6B JUMP JUMPDEST PUSH1 0x40 MLOAD DUP1 SWAP2 SUB SWAP1 RETURN JUMPDEST CALLVALUE DUP1 ISZERO PUSH2 0xDF JUMPI PUSH0 DUP1 REVERT JUMPDEST POP PUSH2 0xE8 PUSH2 0x2AA JUMP JUMPDEST PUSH1 0x40 MLOAD PUSH2 0xF5 SWAP2 SWAP1 PUSH2 0xB6B JUMP JUMPDEST PUSH1 0x40 MLOAD DUP1 SWAP2 SUB SWAP1 RETURN JUMPDEST CALLVALUE DUP1 ISZERO PUSH2 0x109 JUMPI PUSH0 DUP1 REVERT JUMPDEST POP PUSH2 0x112 PUSH2 0x340 JUMP JUMPDEST PUSH1 0x40 MLOAD PUSH2 0x11F SWAP2 SWAP1 PUSH2 0xB6B JUMP JUMPDEST PUSH1 0x40 MLOAD DUP1 SWAP2 SUB SWAP1 RETURN JUMPDEST CALLVALUE DUP1 ISZERO PUSH2 0x133 JUMPI PUSH0 DUP1 REVERT JUMPDEST POP PUSH2 0x13C PUSH2 0x346 JUMP JUMPDEST STOP JUMPDEST CALLVALUE DUP1 ISZERO PUSH2 0x149 JUMPI PUSH0 DUP1 REVERT JUMPDEST POP PUSH2 0x152 PUSH2 0x453 JUMP JUMPDEST PUSH1 0x40 MLOAD PUSH2 0x15F SWAP2 SWAP1 PUSH2 0xB6B JUMP JUMPDEST PUSH1 0x40 MLOAD DUP1 SWAP2 SUB SWAP1 RETURN JUMPDEST PUSH2 0x182 PUSH1 0x4 DUP1 CALLDATASIZE SUB DUP2 ADD SWAP1 PUSH2 0x17D SWAP2 SWAP1 PUSH2 0xBBE JUMP JUMPDEST PUSH2 0x458 JUMP JUMPDEST STOP JUMPDEST CALLVALUE DUP1 ISZERO PUSH2 0x18F JUMPI PUSH0 DUP1 REVERT JUMPDEST POP PUSH2 0x1AA PUSH1 0x4 DUP1 CALLDATASIZE SUB DUP2 ADD SWAP1 PUSH2 0x1A5 SWAP2 SWAP1 PUSH2 0xC13 JUMP JUMPDEST PUSH2 0x634 JUMP JUMPDEST STOP JUMPDEST CALLVALUE DUP1 ISZERO PUSH2 0x1B7 JUMPI PUSH0 DUP1 REVERT JUMPDEST POP PUSH2 0x1C0 PUSH2 0x71C JUMP JUMPDEST PUSH1 0x40 MLOAD PUSH2 0x1CD SWAP2 SWAP1 PUSH2 0xC90 JUMP JUMPDEST PUSH1 0x40 MLOAD DUP1 SWAP2 SUB SWAP1 RETURN JUMPDEST CALLVALUE DUP1 ISZERO PUSH2 0x1E1 JUMPI PUSH0 DUP1 REVERT JUMPDEST POP PUSH2 0x1EA PUSH2 0x741 JUMP JUMPDEST PUSH1 0x40 MLOAD PUSH2 0x1F7 SWAP2 SWAP1 PUSH2 0xB6B JUMP JUMPDEST PUSH1 0x40 MLOAD DUP1 SWAP2 SUB SWAP1 RETURN JUMPDEST CALLVALUE DUP1 ISZERO PUSH2 0x20B JUMPI PUSH0 DUP1 REVERT JUMPDEST POP PUSH2 0x226 PUSH1 0x4 DUP1 CALLDATASIZE SUB DUP2 ADD SWAP1 PUSH2 0x221 SWAP2 SWAP1 PUSH2 0xCA9 JUMP JUMPDEST PUSH2 0x747 JUMP JUMPDEST PUSH1 0x40 MLOAD PUSH2 0x234 SWAP3 SWAP2 SWAP1 PUSH2 0xCE3 JUMP JUMPDEST PUSH1 0x40 MLOAD DUP1 SWAP2 SUB SWAP1 RETURN JUMPDEST CALLVALUE DUP1 ISZERO PUSH2 0x248 JUMPI PUSH0 DUP1 REVERT JUMPDEST POP PUSH2 0x251 PUSH2 0x79D JUMP JUMPDEST PUSH1 0x40 MLOAD PUSH2 0x25E SWAP2 SWAP1 PUSH2 0xDFD JUMP JUMPDEST PUSH1 0x40 MLOAD DUP1 SWAP2 SUB SWAP1 RETURN JUMPDEST CALLVALUE DUP1 ISZERO PUSH2 0x272 JUMPI PUSH0 DUP1 REVERT JUMPDEST POP PUSH2 0x28D PUSH1 0x4 DUP1 CALLDATASIZE SUB DUP2 ADD SWAP1 PUSH2 0x288 SWAP2 SWAP1 PUSH2 0xCA9 JUMP JUMPDEST PUSH2 0x865 JUMP JUMPDEST PUSH1 0x40 MLOAD PUSH2 0x29B SWAP3 SWAP2 SWAP1 PUSH2 0xCE3 JUMP JUMPDEST PUSH1 0x40 MLOAD DUP1 SWAP2 SUB SWAP1 RETURN JUMPDEST PUSH1 0x1 SLOAD DUP2 JUMP JUMPDEST PUSH0 PUSH1 0x4 PUSH0 SWAP1 SLOAD SWAP1 PUSH2 0x100 EXP SWAP1 DIV PUSH20 0xFFFFFFFFFFFFFFFFFFFFFFFFFFFFFFFFFFFFFFFF AND PUSH20 0xFFFFFFFFFFFFFFFFFFFFFFFFFFFFFFFFFFFFFFFF AND CALLER PUSH20 0xFFFFFFFFFFFFFFFFFFFFFFFFFFFFFFFFFFFFFFFF AND EQ PUSH2 0x33A JUMPI PUSH1 0x40 MLOAD PUSH32 0x8C379A000000000000000000000000000000000000000000000000000000000 DUP2 MSTORE PUSH1 0x4 ADD PUSH2 0x331 SWAP1 PUSH2 0xE77 JUMP JUMPDEST PUSH1 0x40 MLOAD DUP1 SWAP2 SUB SWAP1 REVERT JUMPDEST SELFBALANCE SWAP1 POP SWAP1 JUMP JUMPDEST PUSH1 0x3 SLOAD DUP2 JUMP JUMPDEST PUSH1 0x4 PUSH0 SWAP1 SLOAD SWAP1 PUSH2 0x100 EXP SWAP1 DIV PUSH20 0xFFFFFFFFFFFFFFFFFFFFFFFFFFFFFFFFFFFFFFFF AND PUSH20 0xFFFFFFFFFFFFFFFFFFFFFFFFFFFFFFFFFFFFFFFF AND CALLER PUSH20 0xFFFFFFFFFFFFFFFFFFFFFFFFFFFFFFFFFFFFFFFF AND EQ PUSH2 0x3D5 JUMPI PUSH1 0x40 MLOAD PUSH32 0x8C379A000000000000000000000000000000000000000000000000000000000 DUP2 MSTORE PUSH1 0x4 ADD PUSH2 0x3CC SWAP1 PUSH2 0xE77 JUMP JUMPDEST PUSH1 0x40 MLOAD DUP1 SWAP2 SUB SWAP1 REVERT JUMPDEST PUSH0 SELFBALANCE SWAP1 POP PUSH0 PUSH1 0x1 SLOAD DUP3 PUSH2 0x3E8 SWAP2 SWAP1 PUSH2 0xEC2 JUMP JUMPDEST SWAP1 POP PUSH1 0x4 PUSH0 SWAP1 SLOAD SWAP1 PUSH2 0x100 EXP SWAP1 DIV PUSH20 0xFFFFFFFFFFFFFFFFFFFFFFFFFFFFFFFFFFFFFFFF AND PUSH20 0xFFFFFFFFFFFFFFFFFFFFFFFFFFFFFFFFFFFFFFFF AND PUSH2 0x8FC DUP3 SWAP1 DUP2 ISZERO MUL SWAP1 PUSH1 0x40 MLOAD PUSH0 PUSH1 0x40 MLOAD DUP1 DUP4 SUB DUP2 DUP6 DUP9 DUP9 CALL SWAP4 POP POP POP POP ISZERO DUP1 ISZERO PUSH2 0x44E JUMPI RETURNDATASIZE PUSH0 DUP1 RETURNDATACOPY RETURNDATASIZE PUSH0 REVERT JUMPDEST POP POP POP JUMP JUMPDEST PUSH0 SLOAD DUP2 JUMP JUMPDEST PUSH1 0x1 DUP2 PUSH1 0xFF AND LT ISZERO DUP1 ISZERO PUSH2 0x470 JUMPI POP PUSH1 0xA DUP2 PUSH1 0xFF AND GT ISZERO JUMPDEST PUSH2 0x4AF JUMPI PUSH1 0x40 MLOAD PUSH32 0x8C379A000000000000000000000000000000000000000000000000000000000 DUP2 MSTORE PUSH1 0x4 ADD PUSH2 0x4A6 SWAP1 PUSH2 0xF65 JUMP JUMPDEST PUSH1 0x40 MLOAD DUP1 SWAP2 SUB SWAP1 REVERT JUMPDEST PUSH1 0x2 SLOAD CALLVALUE LT ISZERO DUP1 ISZERO PUSH2 0x4C3 JUMPI POP PUSH1 0x3 SLOAD CALLVALUE GT ISZERO JUMPDEST PUSH2 0x502 JUMPI PUSH1 0x40 MLOAD PUSH32 0x8C379A000000000000000000000000000000000000000000000000000000000 DUP2 MSTORE PUSH1 0x4 ADD PUSH2 0x4F9 SWAP1 PUSH2 0xFF3 JUMP JUMPDEST PUSH1 0x40 MLOAD DUP1 SWAP2 SUB SWAP1 REVERT JUMPDEST PUSH1 0x5 PUSH1 0x40 MLOAD DUP1 PUSH1 0x40 ADD PUSH1 0x40 MSTORE DUP1 CALLER PUSH20 0xFFFFFFFFFFFFFFFFFFFFFFFFFFFFFFFFFFFFFFFF AND DUP2 MSTORE PUSH1 0x20 ADD DUP4 PUSH1 0xFF AND DUP2 MSTORE POP SWAP1 DUP1 PUSH1 0x1 DUP2 SLOAD ADD DUP1 DUP3 SSTORE DUP1 SWAP2 POP POP PUSH1 0x1 SWAP1 SUB SWAP1 PUSH0 MSTORE PUSH1 0x20 PUSH0 KECCAK256 ADD PUSH0 SWAP1 SWAP2 SWAP1 SWAP2 SWAP1 SWAP2 POP PUSH0 DUP3 ADD MLOAD DUP2 PUSH0 ADD PUSH0 PUSH2 0x100 EXP DUP2 SLOAD DUP2 PUSH20 0xFFFFFFFFFFFFFFFFFFFFFFFFFFFFFFFFFFFFFFFF MUL NOT AND SWAP1 DUP4 PUSH20 0xFFFFFFFFFFFFFFFFFFFFFFFFFFFFFFFFFFFFFFFF AND MUL OR SWAP1 SSTORE POP PUSH1 0x20 DUP3 ADD MLOAD DUP2 PUSH0 ADD PUSH1 0x14 PUSH2 0x100 EXP DUP2 SLOAD DUP2 PUSH1 0xFF MUL NOT AND SWAP1 DUP4 PUSH1 0xFF AND MUL OR SWAP1 SSTORE POP POP POP CALLVALUE PUSH1 0x1 PUSH0 DUP3 DUP3 SLOAD PUSH2 0x5CB SWAP2 SWAP1 PUSH2 0x1011 JUMP JUMPDEST SWAP3 POP POP DUP2 SWAP1 SSTORE POP PUSH0 NUMBER BLOCKHASH PUSH0 SHR SWAP1 POP PUSH0 TIMESTAMP SWAP1 POP PUSH2 0x3E8 DUP2 PUSH2 0x5EB SWAP2 SWAP1 PUSH2 0x1071 JUMP JUMPDEST PUSH2 0x3E8 DUP4 PUSH2 0x5F9 SWAP2 SWAP1 PUSH2 0x1071 JUMP JUMPDEST PUSH2 0x603 SWAP2 SWAP1 PUSH2 0x1011 JUMP JUMPDEST PUSH0 DUP1 DUP3 DUP3 SLOAD PUSH2 0x612 SWAP2 SWAP1 PUSH2 0x1011 JUMP JUMPDEST SWAP3 POP POP DUP2 SWAP1 SSTORE POP PUSH1 0xA PUSH1 0x5 DUP1 SLOAD SWAP1 POP SUB PUSH2 0x62F JUMPI PUSH2 0x62E PUSH2 0x8BB JUMP JUMPDEST JUMPDEST POP POP POP JUMP JUMPDEST PUSH1 0x4 PUSH0 SWAP1 SLOAD SWAP1 PUSH2 0x100 EXP SWAP1 DIV PUSH20 0xFFFFFFFFFFFFFFFFFFFFFFFFFFFFFFFFFFFFFFFF AND PUSH20 0xFFFFFFFFFFFFFFFFFFFFFFFFFFFFFFFFFFFFFFFF AND CALLER PUSH20 0xFFFFFFFFFFFFFFFFFFFFFFFFFFFFFFFFFFFFFFFF AND EQ PUSH2 0x6C3 JUMPI PUSH1 0x40 MLOAD PUSH32 0x8C379A000000000000000000000000000000000000000000000000000000000 DUP2 MSTORE PUSH1 0x4 ADD PUSH2 0x6BA SWAP1 PUSH2 0xE77 JUMP JUMPDEST PUSH1 0x40 MLOAD DUP1 SWAP2 SUB SWAP1 REVERT JUMPDEST PUSH0 PUSH1 0x5 DUP1 SLOAD SWAP1 POP EQ PUSH2 0x70A JUMPI PUSH1 0x40 MLOAD PUSH32 0x8C379A000000000000000000000000000000000000000000000000000000000 DUP2 MSTORE PUSH1 0x4 ADD PUSH2 0x701 SWAP1 PUSH2 0x10EB JUMP JUMPDEST PUSH1 0x40 MLOAD DUP1 SWAP2 SUB SWAP1 REVERT JUMPDEST DUP2 PUSH1 0x2 DUP2 SWAP1 SSTORE POP DUP1 PUSH1 0x3 DUP2 SWAP1 SSTORE POP POP POP JUMP JUMPDEST PUSH1 0x4 PUSH0 SWAP1 SLOAD SWAP1 PUSH2 0x100 EXP SWAP1 DIV PUSH20 0xFFFFFFFFFFFFFFFFFFFFFFFFFFFFFFFFFFFFFFFF AND DUP2 JUMP JUMPDEST PUSH1 0x2 SLOAD DUP2 JUMP JUMPDEST PUSH1 0x6 DUP2 DUP2 SLOAD DUP2 LT PUSH2 0x756 JUMPI PUSH0 DUP1 REVERT JUMPDEST SWAP1 PUSH0 MSTORE PUSH1 0x20 PUSH0 KECCAK256 ADD PUSH0 SWAP2 POP SWAP1 POP DUP1 PUSH0 ADD PUSH0 SWAP1 SLOAD SWAP1 PUSH2 0x100 EXP SWAP1 DIV PUSH20 0xFFFFFFFFFFFFFFFFFFFFFFFFFFFFFFFFFFFFFFFF AND SWAP1 DUP1 PUSH0 ADD PUSH1 0x14 SWAP1 SLOAD SWAP1 PUSH2 0x100 EXP SWAP1 DIV PUSH1 0xFF AND SWAP1 POP DUP3 JUMP JUMPDEST PUSH1 0x60 PUSH1 0x6 DUP1 SLOAD DUP1 PUSH1 0x20 MUL PUSH1 0x20 ADD PUSH1 0x40 MLOAD SWAP1 DUP2 ADD PUSH1 0x40 MSTORE DUP1 SWAP3 SWAP2 SWAP1 DUP2 DUP2 MSTORE PUSH1 0x20 ADD PUSH0 SWAP1 JUMPDEST DUP3 DUP3 LT ISZERO PUSH2 0x85C JUMPI DUP4 DUP3 SWAP1 PUSH0 MSTORE PUSH1 0x20 PUSH0 KECCAK256 ADD PUSH1 0x40 MLOAD DUP1 PUSH1 0x40 ADD PUSH1 0x40 MSTORE SWAP1 DUP2 PUSH0 DUP3 ADD PUSH0 SWAP1 SLOAD SWAP1 PUSH2 0x100 EXP SWAP1 DIV PUSH20 0xFFFFFFFFFFFFFFFFFFFFFFFFFFFFFFFFFFFFFFFF AND PUSH20 0xFFFFFFFFFFFFFFFFFFFFFFFFFFFFFFFFFFFFFFFF AND PUSH20 0xFFFFFFFFFFFFFFFFFFFFFFFFFFFFFFFFFFFFFFFF AND DUP2 MSTORE PUSH1 0x20 ADD PUSH0 DUP3 ADD PUSH1 0x14 SWAP1 SLOAD SWAP1 PUSH2 0x100 EXP SWAP1 DIV PUSH1 0xFF AND PUSH1 0xFF AND PUSH1 0xFF AND DUP2 MSTORE POP POP DUP2 MSTORE PUSH1 0x20 ADD SWAP1 PUSH1 0x1 ADD SWAP1 PUSH2 0x7C0 JUMP JUMPDEST POP POP POP POP SWAP1 POP SWAP1 JUMP JUMPDEST PUSH1 0x5 DUP2 DUP2 SLOAD DUP2 LT PUSH2 0x874 JUMPI PUSH0 DUP1 REVERT JUMPDEST SWAP1 PUSH0 MSTORE PUSH1 0x20 PUSH0 KECCAK256 ADD PUSH0 SWAP2 POP SWAP1 POP DUP1 PUSH0 ADD PUSH0 SWAP1 SLOAD SWAP1 PUSH2 0x100 EXP SWAP1 DIV PUSH20 0xFFFFFFFFFFFFFFFFFFFFFFFFFFFFFFFFFFFFFFFF AND SWAP1 DUP1 PUSH0 ADD PUSH1 0x14 SWAP1 SLOAD SWAP1 PUSH2 0x100 EXP SWAP1 DIV PUSH1 0xFF AND SWAP1 POP DUP3 JUMP JUMPDEST PUSH1 0x6 PUSH0 PUSH2 0x8C8 SWAP2 SWAP1 PUSH2 0xAE6 JUMP JUMPDEST PUSH0 PUSH1 0x1 PUSH1 0xA PUSH0 SLOAD PUSH2 0x8D9 SWAP2 SWAP1 PUSH2 0x1071 JUMP JUMPDEST PUSH2 0x8E3 SWAP2 SWAP1 PUSH2 0x1011 JUMP JUMPDEST SWAP1 POP PUSH0 JUMPDEST PUSH1 0x5 DUP1 SLOAD SWAP1 POP DUP2 LT ISZERO PUSH2 0xA0B JUMPI DUP2 PUSH1 0xFF AND PUSH1 0x5 DUP3 DUP2 SLOAD DUP2 LT PUSH2 0x90C JUMPI PUSH2 0x90B PUSH2 0x1109 JUMP JUMPDEST JUMPDEST SWAP1 PUSH0 MSTORE PUSH1 0x20 PUSH0 KECCAK256 ADD PUSH0 ADD PUSH1 0x14 SWAP1 SLOAD SWAP1 PUSH2 0x100 EXP SWAP1 DIV PUSH1 0xFF AND PUSH1 0xFF AND SUB PUSH2 0x9FE JUMPI PUSH1 0x6 PUSH1 0x5 DUP3 DUP2 SLOAD DUP2 LT PUSH2 0x942 JUMPI PUSH2 0x941 PUSH2 0x1109 JUMP JUMPDEST JUMPDEST SWAP1 PUSH0 MSTORE PUSH1 0x20 PUSH0 KECCAK256 ADD SWAP1 DUP1 PUSH1 0x1 DUP2 SLOAD ADD DUP1 DUP3 SSTORE DUP1 SWAP2 POP POP PUSH1 0x1 SWAP1 SUB SWAP1 PUSH0 MSTORE PUSH1 0x20 PUSH0 KECCAK256 ADD PUSH0 SWAP1 SWAP2 SWAP1 SWAP2 SWAP1 SWAP2 POP PUSH0 DUP3 ADD PUSH0 SWAP1 SLOAD SWAP1 PUSH2 0x100 EXP SWAP1 DIV PUSH20 0xFFFFFFFFFFFFFFFFFFFFFFFFFFFFFFFFFFFFFFFF AND DUP2 PUSH0 ADD PUSH0 PUSH2 0x100 EXP DUP2 SLOAD DUP2 PUSH20 0xFFFFFFFFFFFFFFFFFFFFFFFFFFFFFFFFFFFFFFFF MUL NOT AND SWAP1 DUP4 PUSH20 0xFFFFFFFFFFFFFFFFFFFFFFFFFFFFFFFFFFFFFFFF AND MUL OR SWAP1 SSTORE POP PUSH0 DUP3 ADD PUSH1 0x14 SWAP1 SLOAD SWAP1 PUSH2 0x100 EXP SWAP1 DIV PUSH1 0xFF AND DUP2 PUSH0 ADD PUSH1 0x14 PUSH2 0x100 EXP DUP2 SLOAD DUP2 PUSH1 0xFF MUL NOT AND SWAP1 DUP4 PUSH1 0xFF AND MUL OR SWAP1 SSTORE POP POP POP JUMPDEST DUP1 DUP1 PUSH1 0x1 ADD SWAP2 POP POP PUSH2 0x8E7 JUMP JUMPDEST POP PUSH0 PUSH1 0x6 DUP1 SLOAD SWAP1 POP GT ISZERO PUSH2 0xACF JUMPI PUSH0 PUSH1 0x6 DUP1 SLOAD SWAP1 POP PUSH1 0x1 SLOAD PUSH2 0xA2D SWAP2 SWAP1 PUSH2 0x1136 JUMP JUMPDEST SWAP1 POP PUSH0 JUMPDEST PUSH1 0x6 DUP1 SLOAD SWAP1 POP DUP2 LT ISZERO PUSH2 0xACC JUMPI PUSH1 0x6 DUP2 DUP2 SLOAD DUP2 LT PUSH2 0xA52 JUMPI PUSH2 0xA51 PUSH2 0x1109 JUMP JUMPDEST JUMPDEST SWAP1 PUSH0 MSTORE PUSH1 0x20 PUSH0 KECCAK256 ADD PUSH0 ADD PUSH0 SWAP1 SLOAD SWAP1 PUSH2 0x100 EXP SWAP1 DIV PUSH20 0xFFFFFFFFFFFFFFFFFFFFFFFFFFFFFFFFFFFFFFFF AND PUSH20 0xFFFFFFFFFFFFFFFFFFFFFFFFFFFFFFFFFFFFFFFF AND PUSH2 0x8FC DUP4 SWAP1 DUP2 ISZERO MUL SWAP1 PUSH1 0x40 MLOAD PUSH0 PUSH1 0x40 MLOAD DUP1 DUP4 SUB DUP2 DUP6 DUP9 DUP9 CALL SWAP4 POP POP POP POP ISZERO DUP1 ISZERO PUSH2 0xABE JUMPI RETURNDATASIZE PUSH0 DUP1 RETURNDATACOPY RETURNDATASIZE PUSH0 REVERT JUMPDEST POP DUP1 DUP1 PUSH1 0x1 ADD SWAP2 POP POP PUSH2 0xA31 JUMP JUMPDEST POP POP JUMPDEST PUSH0 PUSH1 0x1 DUP2 SWAP1 SSTORE POP PUSH1 0x5 PUSH0 PUSH2 0xAE3 SWAP2 SWAP1 PUSH2 0xAE6 JUMP JUMPDEST POP JUMP JUMPDEST POP DUP1 SLOAD PUSH0 DUP3 SSTORE SWAP1 PUSH0 MSTORE PUSH1 0x20 PUSH0 KECCAK256 SWAP1 DUP2 ADD SWAP1 PUSH2 0xB01 SWAP2 SWAP1 PUSH2 0xB04 JUMP JUMPDEST POP JUMP JUMPDEST JUMPDEST DUP1 DUP3 GT ISZERO PUSH2 0xB4F JUMPI PUSH0 DUP1 DUP3 ADD PUSH0 PUSH2 0x100 EXP DUP2 SLOAD SWAP1 PUSH20 0xFFFFFFFFFFFFFFFFFFFFFFFFFFFFFFFFFFFFFFFF MUL NOT AND SWAP1 SSTORE PUSH0 DUP3 ADD PUSH1 0x14 PUSH2 0x100 EXP DUP2 SLOAD SWAP1 PUSH1 0xFF MUL NOT AND SWAP1 SSTORE POP PUSH1 0x1 ADD PUSH2 0xB05 JUMP JUMPDEST POP SWAP1 JUMP JUMPDEST PUSH0 DUP2 SWAP1 POP SWAP2 SWAP1 POP JUMP JUMPDEST PUSH2 0xB65 DUP2 PUSH2 0xB53 JUMP JUMPDEST DUP3 MSTORE POP POP JUMP JUMPDEST PUSH0 PUSH1 0x20 DUP3 ADD SWAP1 POP PUSH2 0xB7E PUSH0 DUP4 ADD DUP5 PUSH2 0xB5C JUMP JUMPDEST SWAP3 SWAP2 POP POP JUMP JUMPDEST PUSH0 DUP1 REVERT JUMPDEST PUSH0 PUSH1 0xFF DUP3 AND SWAP1 POP SWAP2 SWAP1 POP JUMP JUMPDEST PUSH2 0xB9D DUP2 PUSH2 0xB88 JUMP JUMPDEST DUP2 EQ PUSH2 0xBA7 JUMPI PUSH0 DUP1 REVERT JUMPDEST POP JUMP JUMPDEST PUSH0 DUP2 CALLDATALOAD SWAP1 POP PUSH2 0xBB8 DUP2 PUSH2 0xB94 JUMP JUMPDEST SWAP3 SWAP2 POP POP JUMP JUMPDEST PUSH0 PUSH1 0x20 DUP3 DUP5 SUB SLT ISZERO PUSH2 0xBD3 JUMPI PUSH2 0xBD2 PUSH2 0xB84 JUMP JUMPDEST JUMPDEST PUSH0 PUSH2 0xBE0 DUP5 DUP3 DUP6 ADD PUSH2 0xBAA JUMP JUMPDEST SWAP2 POP POP SWAP3 SWAP2 POP POP JUMP JUMPDEST PUSH2 0xBF2 DUP2 PUSH2 0xB53 JUMP JUMPDEST DUP2 EQ PUSH2 0xBFC JUMPI PUSH0 DUP1 REVERT JUMPDEST POP JUMP JUMPDEST PUSH0 DUP2 CALLDATALOAD SWAP1 POP PUSH2 0xC0D DUP2 PUSH2 0xBE9 JUMP JUMPDEST SWAP3 SWAP2 POP POP JUMP JUMPDEST PUSH0 DUP1 PUSH1 0x40 DUP4 DUP6 SUB SLT ISZERO PUSH2 0xC29 JUMPI PUSH2 0xC28 PUSH2 0xB84 JUMP JUMPDEST JUMPDEST PUSH0 PUSH2 0xC36 DUP6 DUP3 DUP7 ADD PUSH2 0xBFF JUMP JUMPDEST SWAP3 POP POP PUSH1 0x20 PUSH2 0xC47 DUP6 DUP3 DUP7 ADD PUSH2 0xBFF JUMP JUMPDEST SWAP2 POP POP SWAP3 POP SWAP3 SWAP1 POP JUMP JUMPDEST PUSH0 PUSH20 0xFFFFFFFFFFFFFFFFFFFFFFFFFFFFFFFFFFFFFFFF DUP3 AND SWAP1 POP SWAP2 SWAP1 POP JUMP JUMPDEST PUSH0 PUSH2 0xC7A DUP3 PUSH2 0xC51 JUMP JUMPDEST SWAP1 POP SWAP2 SWAP1 POP JUMP JUMPDEST PUSH2 0xC8A DUP2 PUSH2 0xC70 JUMP JUMPDEST DUP3 MSTORE POP POP JUMP JUMPDEST PUSH0 PUSH1 0x20 DUP3 ADD SWAP1 POP PUSH2 0xCA3 PUSH0 DUP4 ADD DUP5 PUSH2 0xC81 JUMP JUMPDEST SWAP3 SWAP2 POP POP JUMP JUMPDEST PUSH0 PUSH1 0x20 DUP3 DUP5 SUB SLT ISZERO PUSH2 0xCBE JUMPI PUSH2 0xCBD PUSH2 0xB84 JUMP JUMPDEST JUMPDEST PUSH0 PUSH2 0xCCB DUP5 DUP3 DUP6 ADD PUSH2 0xBFF JUMP JUMPDEST SWAP2 POP POP SWAP3 SWAP2 POP POP JUMP JUMPDEST PUSH2 0xCDD DUP2 PUSH2 0xB88 JUMP JUMPDEST DUP3 MSTORE POP POP JUMP JUMPDEST PUSH0 PUSH1 0x40 DUP3 ADD SWAP1 POP PUSH2 0xCF6 PUSH0 DUP4 ADD DUP6 PUSH2 0xC81 JUMP JUMPDEST PUSH2 0xD03 PUSH1 0x20 DUP4 ADD DUP5 PUSH2 0xCD4 JUMP JUMPDEST SWAP4 SWAP3 POP POP POP JUMP JUMPDEST PUSH0 DUP2 MLOAD SWAP1 POP SWAP2 SWAP1 POP JUMP JUMPDEST PUSH0 DUP3 DUP3 MSTORE PUSH1 0x20 DUP3 ADD SWAP1 POP SWAP3 SWAP2 POP POP JUMP JUMPDEST PUSH0 DUP2 SWAP1 POP PUSH1 0x20 DUP3 ADD SWAP1 POP SWAP2 SWAP1 POP JUMP JUMPDEST PUSH2 0xD3C DUP2 PUSH2 0xC70 JUMP JUMPDEST DUP3 MSTORE POP POP JUMP JUMPDEST PUSH2 0xD4B DUP2 PUSH2 0xB88 JUMP JUMPDEST DUP3 MSTORE POP POP JUMP JUMPDEST PUSH1 0x40 DUP3 ADD PUSH0 DUP3 ADD MLOAD PUSH2 0xD65 PUSH0 DUP6 ADD DUP3 PUSH2 0xD33 JUMP JUMPDEST POP PUSH1 0x20 DUP3 ADD MLOAD PUSH2 0xD78 PUSH1 0x20 DUP6 ADD DUP3 PUSH2 0xD42 JUMP JUMPDEST POP POP POP POP JUMP JUMPDEST PUSH0 PUSH2 0xD89 DUP4 DUP4 PUSH2 0xD51 JUMP JUMPDEST PUSH1 0x40 DUP4 ADD SWAP1 POP SWAP3 SWAP2 POP POP JUMP JUMPDEST PUSH0 PUSH1 0x20 DUP3 ADD SWAP1 POP SWAP2 SWAP1 POP JUMP JUMPDEST PUSH0 PUSH2 0xDAB DUP3 PUSH2 0xD0A JUMP JUMPDEST PUSH2 0xDB5 DUP2 DUP6 PUSH2 0xD14 JUMP JUMPDEST SWAP4 POP PUSH2 0xDC0 DUP4 PUSH2 0xD24 JUMP JUMPDEST DUP1 PUSH0 JUMPDEST DUP4 DUP2 LT ISZERO PUSH2 0xDF0 JUMPI DUP2 MLOAD PUSH2 0xDD7 DUP9 DUP3 PUSH2 0xD7E JUMP JUMPDEST SWAP8 POP PUSH2 0xDE2 DUP4 PUSH2 0xD95 JUMP JUMPDEST SWAP3 POP POP PUSH1 0x1 DUP2 ADD SWAP1 POP PUSH2 0xDC3 JUMP JUMPDEST POP DUP6 SWAP4 POP POP POP POP SWAP3 SWAP2 POP POP JUMP JUMPDEST PUSH0 PUSH1 0x20 DUP3 ADD SWAP1 POP DUP2 DUP2 SUB PUSH0 DUP4 ADD MSTORE PUSH2 0xE15 DUP2 DUP5 PUSH2 0xDA1 JUMP JUMPDEST SWAP1 POP SWAP3 SWAP2 POP POP JUMP JUMPDEST PUSH0 DUP3 DUP3 MSTORE PUSH1 0x20 DUP3 ADD SWAP1 POP SWAP3 SWAP2 POP POP JUMP JUMPDEST PUSH32 0x4E6F742074686520636F6E7472616374206F776E657200000000000000000000 PUSH0 DUP3 ADD MSTORE POP JUMP JUMPDEST PUSH0 PUSH2 0xE61 PUSH1 0x16 DUP4 PUSH2 0xE1D JUMP JUMPDEST SWAP2 POP PUSH2 0xE6C DUP3 PUSH2 0xE2D JUMP JUMPDEST PUSH1 0x20 DUP3 ADD SWAP1 POP SWAP2 SWAP1 POP JUMP JUMPDEST PUSH0 PUSH1 0x20 DUP3 ADD SWAP1 POP DUP2 DUP2 SUB PUSH0 DUP4 ADD MSTORE PUSH2 0xE8E DUP2 PUSH2 0xE55 JUMP JUMPDEST SWAP1 POP SWAP2 SWAP1 POP JUMP JUMPDEST PUSH32 0x4E487B7100000000000000000000000000000000000000000000000000000000 PUSH0 MSTORE PUSH1 0x11 PUSH1 0x4 MSTORE PUSH1 0x24 PUSH0 REVERT JUMPDEST PUSH0 PUSH2 0xECC DUP3 PUSH2 0xB53 JUMP JUMPDEST SWAP2 POP PUSH2 0xED7 DUP4 PUSH2 0xB53 JUMP JUMPDEST SWAP3 POP DUP3 DUP3 SUB SWAP1 POP DUP2 DUP2 GT ISZERO PUSH2 0xEEF JUMPI PUSH2 0xEEE PUSH2 0xE95 JUMP JUMPDEST JUMPDEST SWAP3 SWAP2 POP POP JUMP JUMPDEST PUSH32 0x47756573736564206E756D626572206D757374206265206265747765656E2031 PUSH0 DUP3 ADD MSTORE PUSH32 0x20616E6420313000000000000000000000000000000000000000000000000000 PUSH1 0x20 DUP3 ADD MSTORE POP JUMP JUMPDEST PUSH0 PUSH2 0xF4F PUSH1 0x27 DUP4 PUSH2 0xE1D JUMP JUMPDEST SWAP2 POP PUSH2 0xF5A DUP3 PUSH2 0xEF5 JUMP JUMPDEST PUSH1 0x40 DUP3 ADD SWAP1 POP SWAP2 SWAP1 POP JUMP JUMPDEST PUSH0 PUSH1 0x20 DUP3 ADD SWAP1 POP DUP2 DUP2 SUB PUSH0 DUP4 ADD MSTORE PUSH2 0xF7C DUP2 PUSH2 0xF43 JUMP JUMPDEST SWAP1 POP SWAP2 SWAP1 POP JUMP JUMPDEST PUSH32 0x42657420616D6F756E74206D7573742062652077697468696E206D696E20616E PUSH0 DUP3 ADD MSTORE PUSH32 0x64206D6178206265740000000000000000000000000000000000000000000000 PUSH1 0x20 DUP3 ADD MSTORE POP JUMP JUMPDEST PUSH0 PUSH2 0xFDD PUSH1 0x29 DUP4 PUSH2 0xE1D JUMP JUMPDEST SWAP2 POP PUSH2 0xFE8 DUP3 PUSH2 0xF83 JUMP JUMPDEST PUSH1 0x40 DUP3 ADD SWAP1 POP SWAP2 SWAP1 POP JUMP JUMPDEST PUSH0 PUSH1 0x20 DUP3 ADD SWAP1 POP DUP2 DUP2 SUB PUSH0 DUP4 ADD MSTORE PUSH2 0x100A DUP2 PUSH2 0xFD1 JUMP JUMPDEST SWAP1 POP SWAP2 SWAP1 POP JUMP JUMPDEST PUSH0 PUSH2 0x101B DUP3 PUSH2 0xB53 JUMP JUMPDEST SWAP2 POP PUSH2 0x1026 DUP4 PUSH2 0xB53 JUMP JUMPDEST SWAP3 POP DUP3 DUP3 ADD SWAP1 POP DUP1 DUP3 GT ISZERO PUSH2 0x103E JUMPI PUSH2 0x103D PUSH2 0xE95 JUMP JUMPDEST JUMPDEST SWAP3 SWAP2 POP POP JUMP JUMPDEST PUSH32 0x4E487B7100000000000000000000000000000000000000000000000000000000 PUSH0 MSTORE PUSH1 0x12 PUSH1 0x4 MSTORE PUSH1 0x24 PUSH0 REVERT JUMPDEST PUSH0 PUSH2 0x107B DUP3 PUSH2 0xB53 JUMP JUMPDEST SWAP2 POP PUSH2 0x1086 DUP4 PUSH2 0xB53 JUMP JUMPDEST SWAP3 POP DUP3 PUSH2 0x1096 JUMPI PUSH2 0x1095 PUSH2 0x1044 JUMP JUMPDEST JUMPDEST DUP3 DUP3 MOD SWAP1 POP SWAP3 SWAP2 POP POP JUMP JUMPDEST PUSH32 0x526F756E6420616C726561647920737461727465640000000000000000000000 PUSH0 DUP3 ADD MSTORE POP JUMP JUMPDEST PUSH0 PUSH2 0x10D5 PUSH1 0x15 DUP4 PUSH2 0xE1D JUMP JUMPDEST SWAP2 POP PUSH2 0x10E0 DUP3 PUSH2 0x10A1 JUMP JUMPDEST PUSH1 0x20 DUP3 ADD SWAP1 POP SWAP2 SWAP1 POP JUMP JUMPDEST PUSH0 PUSH1 0x20 DUP3 ADD SWAP1 POP DUP2 DUP2 SUB PUSH0 DUP4 ADD MSTORE PUSH2 0x1102 DUP2 PUSH2 0x10C9 JUMP JUMPDEST SWAP1 POP SWAP2 SWAP1 POP JUMP JUMPDEST PUSH32 0x4E487B7100000000000000000000000000000000000000000000000000000000 PUSH0 MSTORE PUSH1 0x32 PUSH1 0x4 MSTORE PUSH1 0x24 PUSH0 REVERT JUMPDEST PUSH0 PUSH2 0x1140 DUP3 PUSH2 0xB53 JUMP JUMPDEST SWAP2 POP PUSH2 0x114B DUP4 PUSH2 0xB53 JUMP JUMPDEST SWAP3 POP DUP3 PUSH2 0x115B JUMPI PUSH2 0x115A PUSH2 0x1044 JUMP JUMPDEST JUMPDEST DUP3 DUP3 DIV SWAP1 POP SWAP3 SWAP2 POP POP JUMP INVALID LOG2 PUSH5 0x6970667358 0x22 SLT KECCAK256 LOG0 SDIV DIV PUSH23 0x7C6EC932A42699D9A0E129C06F4D07841AE91E872A30E7 0xFC 0x4D SGT TSTORE 0xAF PUSH5 0x736F6C6343 STOP ADDMOD BYTE STOP CALLER "
				},
				"gasEstimates": {
					"creation": {
						"codeDepositCost": "901600",
						"executionCost": "infinite",
						"totalCost": "infinite"
					},
					"external": {
						"entropy()": "2513",
						"getBalance()": "2621",
						"getWinners()": "infinite",
						"maxBet()": "2470",
						"minBet()": "2469",
						"owner()": "2530",
						"play(uint8)": "infinite",
						"players(uint256)": "7379",
						"setBet(uint256,uint256)": "infinite",
						"sumBet()": "2426",
						"winners(uint256)": "7335",
						"withdraw()": "infinite"
					},
					"internal": {
						"game()": "infinite"
					}
				},
				"methodIdentifiers": {
					"entropy()": "47ce07cc",
					"getBalance()": "12065fe0",
					"getWinners()": "df15c37e",
					"maxBet()": "2e5b2168",
					"minBet()": "9619367d",
					"owner()": "8da5cb5b",
					"play(uint8)": "53a04b05",
					"players(uint256)": "f71d96cb",
					"setBet(uint256,uint256)": "54965b85",
					"sumBet()": "102ad5d7",
					"winners(uint256)": "a2fb1175",
					"withdraw()": "3ccfd60b"
				}
			},
			"storageLayout": {
				"storage": [
					{
						"astId": 3,
						"contract": "week6task2.sol:GuessingGameWithBetting",
						"label": "entropy",
						"offset": 0,
						"slot": "0",
						"type": "t_uint256"
					},
					{
						"astId": 5,
						"contract": "week6task2.sol:GuessingGameWithBetting",
						"label": "sumBet",
						"offset": 0,
						"slot": "1",
						"type": "t_uint256"
					},
					{
						"astId": 7,
						"contract": "week6task2.sol:GuessingGameWithBetting",
						"label": "minBet",
						"offset": 0,
						"slot": "2",
						"type": "t_uint256"
					},
					{
						"astId": 9,
						"contract": "week6task2.sol:GuessingGameWithBetting",
						"label": "maxBet",
						"offset": 0,
						"slot": "3",
						"type": "t_uint256"
					},
					{
						"astId": 11,
						"contract": "week6task2.sol:GuessingGameWithBetting",
						"label": "owner",
						"offset": 0,
						"slot": "4",
						"type": "t_address"
					},
					{
						"astId": 20,
						"contract": "week6task2.sol:GuessingGameWithBetting",
						"label": "players",
						"offset": 0,
						"slot": "5",
						"type": "t_array(t_struct(Player)16_storage)dyn_storage"
					},
					{
						"astId": 24,
						"contract": "week6task2.sol:GuessingGameWithBetting",
						"label": "winners",
						"offset": 0,
						"slot": "6",
						"type": "t_array(t_struct(Player)16_storage)dyn_storage"
					}
				],
				"types": {
					"t_address": {
						"encoding": "inplace",
						"label": "address",
						"numberOfBytes": "20"
					},
					"t_array(t_struct(Player)16_storage)dyn_storage": {
						"base": "t_struct(Player)16_storage",
						"encoding": "dynamic_array",
						"label": "struct GuessingGameWithBetting.Player[]",
						"numberOfBytes": "32"
					},
					"t_struct(Player)16_storage": {
						"encoding": "inplace",
						"label": "struct GuessingGameWithBetting.Player",
						"members": [
							{
								"astId": 13,
								"contract": "week6task2.sol:GuessingGameWithBetting",
								"label": "playerAddress",
								"offset": 0,
								"slot": "0",
								"type": "t_address"
							},
							{
								"astId": 15,
								"contract": "week6task2.sol:GuessingGameWithBetting",
								"label": "guessedNumber",
								"offset": 20,
								"slot": "0",
								"type": "t_uint8"
							}
						],
						"numberOfBytes": "32"
					},
					"t_uint256": {
						"encoding": "inplace",
						"label": "uint256",
						"numberOfBytes": "32"
					},
					"t_uint8": {
						"encoding": "inplace",
						"label": "uint8",
						"numberOfBytes": "1"
					}
				}
			},
			"userdoc": {
				"kind": "user",
				"methods": {},
				"version": 1
			}
		}
	}
}