{
	"example5_task4.sol": {
		"CalculatorContract": {
			"abi": [
				{
					"inputs": [
						{
							"internalType": "int256",
							"name": "a",
							"type": "int256"
						},
						{
							"internalType": "int256",
							"name": "b",
							"type": "int256"
						}
					],
					"name": "add",
					"outputs": [
						{
							"internalType": "int256",
							"name": "",
							"type": "int256"
						}
					],
					"stateMutability": "pure",
					"type": "function"
				},
				{
					"inputs": [
						{
							"internalType": "int256",
							"name": "a",
							"type": "int256"
						},
						{
							"internalType": "int256",
							"name": "b",
							"type": "int256"
						}
					],
					"name": "divide",
					"outputs": [
						{
							"internalType": "int256",
							"name": "",
							"type": "int256"
						}
					],
					"stateMutability": "pure",
					"type": "function"
				},
				{
					"inputs": [
						{
							"internalType": "int256",
							"name": "a",
							"type": "int256"
						},
						{
							"internalType": "int256",
							"name": "b",
							"type": "int256"
						}
					],
					"name": "multiply",
					"outputs": [
						{
							"internalType": "int256",
							"name": "",
							"type": "int256"
						}
					],
					"stateMutability": "pure",
					"type": "function"
				},
				{
					"inputs": [
						{
							"internalType": "int256",
							"name": "a",
							"type": "int256"
						},
						{
							"internalType": "int256",
							"name": "b",
							"type": "int256"
						}
					],
					"name": "remainder",
					"outputs": [
						{
							"internalType": "int256",
							"name": "",
							"type": "int256"
						}
					],
					"stateMutability": "pure",
					"type": "function"
				},
				{
					"inputs": [
						{
							"internalType": "int256",
							"name": "a",
							"type": "int256"
						},
						{
							"internalType": "int256",
							"name": "b",
							"type": "int256"
						}
					],
					"name": "subtract",
					"outputs": [
						{
							"internalType": "int256",
							"name": "",
							"type": "int256"
						}
					],
					"stateMutability": "pure",
					"type": "function"
				}
			],
			"devdoc": {
				"kind": "dev",
				"methods": {},
				"version": 1
			},
			"evm": {
				"assembly": "    /* \"example5_task4.sol\":27:847  contract CalculatorContract {... */\n  mstore(0x40, 0x80)\n  callvalue\n  dup1\n  iszero\n  tag_1\n  jumpi\n  0x00\n  dup1\n  revert\ntag_1:\n  pop\n  dataSize(sub_0)\n  dup1\n  dataOffset(sub_0)\n  0x00\n  codecopy\n  0x00\n  return\nstop\n\nsub_0: assembly {\n        /* \"example5_task4.sol\":27:847  contract CalculatorContract {... */\n      mstore(0x40, 0x80)\n      callvalue\n      dup1\n      iszero\n      tag_1\n      jumpi\n      0x00\n      dup1\n      revert\n    tag_1:\n      pop\n      jumpi(tag_2, lt(calldatasize, 0x04))\n      shr(0xe0, calldataload(0x00))\n      dup1\n      0x3c4308a8\n      eq\n      tag_3\n      jumpi\n      dup1\n      0x7561bfc3\n      eq\n      tag_4\n      jumpi\n      dup1\n      0xa5f3c23b\n      eq\n      tag_5\n      jumpi\n      dup1\n      0xb93ea812\n      eq\n      tag_6\n      jumpi\n      dup1\n      0xf5984236\n      eq\n      tag_7\n      jumpi\n    tag_2:\n      0x00\n      dup1\n      revert\n        /* \"example5_task4.sol\":370:468  function multiply(int256 a, int256 b) public pure returns (int256) {... */\n    tag_3:\n      tag_8\n      0x04\n      dup1\n      calldatasize\n      sub\n      dup2\n      add\n      swap1\n      tag_9\n      swap2\n      swap1\n      tag_10\n      jump\t// in\n    tag_9:\n      tag_11\n      jump\t// in\n    tag_8:\n      mload(0x40)\n      tag_12\n      swap2\n      swap1\n      tag_13\n      jump\t// in\n    tag_12:\n      mload(0x40)\n      dup1\n      swap2\n      sub\n      swap1\n      return\n        /* \"example5_task4.sol\":699:844  function remainder(int256 a, int256 b) public pure returns (int256) {... */\n    tag_4:\n      tag_14\n      0x04\n      dup1\n      calldatasize\n      sub\n      dup2\n      add\n      swap1\n      tag_15\n      swap2\n      swap1\n      tag_10\n      jump\t// in\n    tag_15:\n      tag_16\n      jump\t// in\n    tag_14:\n      mload(0x40)\n      tag_17\n      swap2\n      swap1\n      tag_13\n      jump\t// in\n    tag_17:\n      mload(0x40)\n      dup1\n      swap2\n      sub\n      swap1\n      return\n        /* \"example5_task4.sol\":94:187  function add(int256 a, int256 b) public pure returns (int256) {... */\n    tag_5:\n      tag_18\n      0x04\n      dup1\n      calldatasize\n      sub\n      dup2\n      add\n      swap1\n      tag_19\n      swap2\n      swap1\n      tag_10\n      jump\t// in\n    tag_19:\n      tag_20\n      jump\t// in\n    tag_18:\n      mload(0x40)\n      tag_21\n      swap2\n      swap1\n      tag_13\n      jump\t// in\n    tag_21:\n      mload(0x40)\n      dup1\n      swap2\n      sub\n      swap1\n      return\n        /* \"example5_task4.sol\":228:326  function subtract(int256 a, int256 b) public pure returns (int256) {... */\n    tag_6:\n      tag_22\n      0x04\n      dup1\n      calldatasize\n      sub\n      dup2\n      add\n      swap1\n      tag_23\n      swap2\n      swap1\n      tag_10\n      jump\t// in\n    tag_23:\n      tag_24\n      jump\t// in\n    tag_22:\n      mload(0x40)\n      tag_25\n      swap2\n      swap1\n      tag_13\n      jump\t// in\n    tag_25:\n      mload(0x40)\n      dup1\n      swap2\n      sub\n      swap1\n      return\n        /* \"example5_task4.sol\":506:648  function divide(int256 a, int256 b) public pure returns (int256) {... */\n    tag_7:\n      tag_26\n      0x04\n      dup1\n      calldatasize\n      sub\n      dup2\n      add\n      swap1\n      tag_27\n      swap2\n      swap1\n      tag_10\n      jump\t// in\n    tag_27:\n      tag_28\n      jump\t// in\n    tag_26:\n      mload(0x40)\n      tag_29\n      swap2\n      swap1\n      tag_13\n      jump\t// in\n    tag_29:\n      mload(0x40)\n      dup1\n      swap2\n      sub\n      swap1\n      return\n        /* \"example5_task4.sol\":370:468  function multiply(int256 a, int256 b) public pure returns (int256) {... */\n    tag_11:\n        /* \"example5_task4.sol\":429:435  int256 */\n      0x00\n        /* \"example5_task4.sol\":459:460  b */\n      dup2\n        /* \"example5_task4.sol\":455:456  a */\n      dup4\n        /* \"example5_task4.sol\":455:460  a * b */\n      tag_31\n      swap2\n      swap1\n      tag_32\n      jump\t// in\n    tag_31:\n        /* \"example5_task4.sol\":448:460  return a * b */\n      swap1\n      pop\n        /* \"example5_task4.sol\":370:468  function multiply(int256 a, int256 b) public pure returns (int256) {... */\n      swap3\n      swap2\n      pop\n      pop\n      jump\t// out\n        /* \"example5_task4.sol\":699:844  function remainder(int256 a, int256 b) public pure returns (int256) {... */\n    tag_16:\n        /* \"example5_task4.sol\":759:765  int256 */\n      0x00\n        /* \"example5_task4.sol\":791:792  0 */\n      dup1\n        /* \"example5_task4.sol\":786:787  b */\n      dup3\n        /* \"example5_task4.sol\":786:792  b != 0 */\n      sub\n        /* \"example5_task4.sol\":778:813  require(b != 0, \"Division by zero\") */\n      tag_34\n      jumpi\n      mload(0x40)\n      0x08c379a000000000000000000000000000000000000000000000000000000000\n      dup2\n      mstore\n      0x04\n      add\n      tag_35\n      swap1\n      tag_36\n      jump\t// in\n    tag_35:\n      mload(0x40)\n      dup1\n      swap2\n      sub\n      swap1\n      revert\n    tag_34:\n        /* \"example5_task4.sol\":835:836  b */\n      dup2\n        /* \"example5_task4.sol\":831:832  a */\n      dup4\n        /* \"example5_task4.sol\":831:836  a % b */\n      tag_37\n      swap2\n      swap1\n      tag_38\n      jump\t// in\n    tag_37:\n        /* \"example5_task4.sol\":824:836  return a % b */\n      swap1\n      pop\n        /* \"example5_task4.sol\":699:844  function remainder(int256 a, int256 b) public pure returns (int256) {... */\n      swap3\n      swap2\n      pop\n      pop\n      jump\t// out\n        /* \"example5_task4.sol\":94:187  function add(int256 a, int256 b) public pure returns (int256) {... */\n    tag_20:\n        /* \"example5_task4.sol\":148:154  int256 */\n      0x00\n        /* \"example5_task4.sol\":178:179  b */\n      dup2\n        /* \"example5_task4.sol\":174:175  a */\n      dup4\n        /* \"example5_task4.sol\":174:179  a + b */\n      tag_40\n      swap2\n      swap1\n      tag_41\n      jump\t// in\n    tag_40:\n        /* \"example5_task4.sol\":167:179  return a + b */\n      swap1\n      pop\n        /* \"example5_task4.sol\":94:187  function add(int256 a, int256 b) public pure returns (int256) {... */\n      swap3\n      swap2\n      pop\n      pop\n      jump\t// out\n        /* \"example5_task4.sol\":228:326  function subtract(int256 a, int256 b) public pure returns (int256) {... */\n    tag_24:\n        /* \"example5_task4.sol\":287:293  int256 */\n      0x00\n        /* \"example5_task4.sol\":317:318  b */\n      dup2\n        /* \"example5_task4.sol\":313:314  a */\n      dup4\n        /* \"example5_task4.sol\":313:318  a - b */\n      tag_43\n      swap2\n      swap1\n      tag_44\n      jump\t// in\n    tag_43:\n        /* \"example5_task4.sol\":306:318  return a - b */\n      swap1\n      pop\n        /* \"example5_task4.sol\":228:326  function subtract(int256 a, int256 b) public pure returns (int256) {... */\n      swap3\n      swap2\n      pop\n      pop\n      jump\t// out\n        /* \"example5_task4.sol\":506:648  function divide(int256 a, int256 b) public pure returns (int256) {... */\n    tag_28:\n        /* \"example5_task4.sol\":563:569  int256 */\n      0x00\n        /* \"example5_task4.sol\":595:596  0 */\n      dup1\n        /* \"example5_task4.sol\":590:591  b */\n      dup3\n        /* \"example5_task4.sol\":590:596  b != 0 */\n      sub\n        /* \"example5_task4.sol\":582:617  require(b != 0, \"Division by zero\") */\n      tag_46\n      jumpi\n      mload(0x40)\n      0x08c379a000000000000000000000000000000000000000000000000000000000\n      dup2\n      mstore\n      0x04\n      add\n      tag_47\n      swap1\n      tag_36\n      jump\t// in\n    tag_47:\n      mload(0x40)\n      dup1\n      swap2\n      sub\n      swap1\n      revert\n    tag_46:\n        /* \"example5_task4.sol\":639:640  b */\n      dup2\n        /* \"example5_task4.sol\":635:636  a */\n      dup4\n        /* \"example5_task4.sol\":635:640  a / b */\n      tag_48\n      swap2\n      swap1\n      tag_49\n      jump\t// in\n    tag_48:\n        /* \"example5_task4.sol\":628:640  return a / b */\n      swap1\n      pop\n        /* \"example5_task4.sol\":506:648  function divide(int256 a, int256 b) public pure returns (int256) {... */\n      swap3\n      swap2\n      pop\n      pop\n      jump\t// out\n        /* \"#utility.yul\":88:205   */\n    tag_51:\n        /* \"#utility.yul\":197:198   */\n      0x00\n        /* \"#utility.yul\":194:195   */\n      dup1\n        /* \"#utility.yul\":187:199   */\n      revert\n        /* \"#utility.yul\":334:410   */\n    tag_53:\n        /* \"#utility.yul\":370:377   */\n      0x00\n        /* \"#utility.yul\":399:404   */\n      dup2\n        /* \"#utility.yul\":388:404   */\n      swap1\n      pop\n        /* \"#utility.yul\":334:410   */\n      swap2\n      swap1\n      pop\n      jump\t// out\n        /* \"#utility.yul\":416:536   */\n    tag_54:\n        /* \"#utility.yul\":488:511   */\n      tag_68\n        /* \"#utility.yul\":505:510   */\n      dup2\n        /* \"#utility.yul\":488:511   */\n      tag_53\n      jump\t// in\n    tag_68:\n        /* \"#utility.yul\":481:486   */\n      dup2\n        /* \"#utility.yul\":478:512   */\n      eq\n        /* \"#utility.yul\":468:530   */\n      tag_69\n      jumpi\n        /* \"#utility.yul\":526:527   */\n      0x00\n        /* \"#utility.yul\":523:524   */\n      dup1\n        /* \"#utility.yul\":516:528   */\n      revert\n        /* \"#utility.yul\":468:530   */\n    tag_69:\n        /* \"#utility.yul\":416:536   */\n      pop\n      jump\t// out\n        /* \"#utility.yul\":542:679   */\n    tag_55:\n        /* \"#utility.yul\":587:592   */\n      0x00\n        /* \"#utility.yul\":625:631   */\n      dup2\n        /* \"#utility.yul\":612:632   */\n      calldataload\n        /* \"#utility.yul\":603:632   */\n      swap1\n      pop\n        /* \"#utility.yul\":641:673   */\n      tag_71\n        /* \"#utility.yul\":667:672   */\n      dup2\n        /* \"#utility.yul\":641:673   */\n      tag_54\n      jump\t// in\n    tag_71:\n        /* \"#utility.yul\":542:679   */\n      swap3\n      swap2\n      pop\n      pop\n      jump\t// out\n        /* \"#utility.yul\":685:1155   */\n    tag_10:\n        /* \"#utility.yul\":751:757   */\n      0x00\n        /* \"#utility.yul\":759:765   */\n      dup1\n        /* \"#utility.yul\":808:810   */\n      0x40\n        /* \"#utility.yul\":796:805   */\n      dup4\n        /* \"#utility.yul\":787:794   */\n      dup6\n        /* \"#utility.yul\":783:806   */\n      sub\n        /* \"#utility.yul\":779:811   */\n      slt\n        /* \"#utility.yul\":776:895   */\n      iszero\n      tag_73\n      jumpi\n        /* \"#utility.yul\":814:893   */\n      tag_74\n      tag_51\n      jump\t// in\n    tag_74:\n        /* \"#utility.yul\":776:895   */\n    tag_73:\n        /* \"#utility.yul\":934:935   */\n      0x00\n        /* \"#utility.yul\":959:1011   */\n      tag_75\n        /* \"#utility.yul\":1003:1010   */\n      dup6\n        /* \"#utility.yul\":994:1000   */\n      dup3\n        /* \"#utility.yul\":983:992   */\n      dup7\n        /* \"#utility.yul\":979:1001   */\n      add\n        /* \"#utility.yul\":959:1011   */\n      tag_55\n      jump\t// in\n    tag_75:\n        /* \"#utility.yul\":949:1011   */\n      swap3\n      pop\n        /* \"#utility.yul\":905:1021   */\n      pop\n        /* \"#utility.yul\":1060:1062   */\n      0x20\n        /* \"#utility.yul\":1086:1138   */\n      tag_76\n        /* \"#utility.yul\":1130:1137   */\n      dup6\n        /* \"#utility.yul\":1121:1127   */\n      dup3\n        /* \"#utility.yul\":1110:1119   */\n      dup7\n        /* \"#utility.yul\":1106:1128   */\n      add\n        /* \"#utility.yul\":1086:1138   */\n      tag_55\n      jump\t// in\n    tag_76:\n        /* \"#utility.yul\":1076:1138   */\n      swap2\n      pop\n        /* \"#utility.yul\":1031:1148   */\n      pop\n        /* \"#utility.yul\":685:1155   */\n      swap3\n      pop\n      swap3\n      swap1\n      pop\n      jump\t// out\n        /* \"#utility.yul\":1161:1276   */\n    tag_56:\n        /* \"#utility.yul\":1246:1269   */\n      tag_78\n        /* \"#utility.yul\":1263:1268   */\n      dup2\n        /* \"#utility.yul\":1246:1269   */\n      tag_53\n      jump\t// in\n    tag_78:\n        /* \"#utility.yul\":1241:1244   */\n      dup3\n        /* \"#utility.yul\":1234:1270   */\n      mstore\n        /* \"#utility.yul\":1161:1276   */\n      pop\n      pop\n      jump\t// out\n        /* \"#utility.yul\":1282:1500   */\n    tag_13:\n        /* \"#utility.yul\":1373:1377   */\n      0x00\n        /* \"#utility.yul\":1411:1413   */\n      0x20\n        /* \"#utility.yul\":1400:1409   */\n      dup3\n        /* \"#utility.yul\":1396:1414   */\n      add\n        /* \"#utility.yul\":1388:1414   */\n      swap1\n      pop\n        /* \"#utility.yul\":1424:1493   */\n      tag_80\n        /* \"#utility.yul\":1490:1491   */\n      0x00\n        /* \"#utility.yul\":1479:1488   */\n      dup4\n        /* \"#utility.yul\":1475:1492   */\n      add\n        /* \"#utility.yul\":1466:1472   */\n      dup5\n        /* \"#utility.yul\":1424:1493   */\n      tag_56\n      jump\t// in\n    tag_80:\n        /* \"#utility.yul\":1282:1500   */\n      swap3\n      swap2\n      pop\n      pop\n      jump\t// out\n        /* \"#utility.yul\":1506:1686   */\n    tag_57:\n        /* \"#utility.yul\":1554:1631   */\n      0x4e487b7100000000000000000000000000000000000000000000000000000000\n        /* \"#utility.yul\":1551:1552   */\n      0x00\n        /* \"#utility.yul\":1544:1632   */\n      mstore\n        /* \"#utility.yul\":1651:1655   */\n      0x11\n        /* \"#utility.yul\":1648:1649   */\n      0x04\n        /* \"#utility.yul\":1641:1656   */\n      mstore\n        /* \"#utility.yul\":1675:1679   */\n      0x24\n        /* \"#utility.yul\":1672:1673   */\n      0x00\n        /* \"#utility.yul\":1665:1680   */\n      revert\n        /* \"#utility.yul\":1692:2248   */\n    tag_32:\n        /* \"#utility.yul\":1731:1738   */\n      0x00\n        /* \"#utility.yul\":1754:1773   */\n      tag_83\n        /* \"#utility.yul\":1771:1772   */\n      dup3\n        /* \"#utility.yul\":1754:1773   */\n      tag_53\n      jump\t// in\n    tag_83:\n        /* \"#utility.yul\":1749:1773   */\n      swap2\n      pop\n        /* \"#utility.yul\":1787:1806   */\n      tag_84\n        /* \"#utility.yul\":1804:1805   */\n      dup4\n        /* \"#utility.yul\":1787:1806   */\n      tag_53\n      jump\t// in\n    tag_84:\n        /* \"#utility.yul\":1782:1806   */\n      swap3\n      pop\n        /* \"#utility.yul\":1841:1842   */\n      dup3\n        /* \"#utility.yul\":1838:1839   */\n      dup3\n        /* \"#utility.yul\":1834:1843   */\n      mul\n        /* \"#utility.yul\":1863:1892   */\n      tag_85\n        /* \"#utility.yul\":1880:1891   */\n      dup2\n        /* \"#utility.yul\":1863:1892   */\n      tag_53\n      jump\t// in\n    tag_85:\n        /* \"#utility.yul\":1852:1892   */\n      swap2\n      pop\n        /* \"#utility.yul\":1950:2016   */\n      0x8000000000000000000000000000000000000000000000000000000000000000\n        /* \"#utility.yul\":1947:1948   */\n      dup5\n        /* \"#utility.yul\":1944:2017   */\n      eq\n        /* \"#utility.yul\":1940:1941   */\n      0x00\n        /* \"#utility.yul\":1937:1938   */\n      dup5\n        /* \"#utility.yul\":1933:1942   */\n      slt\n        /* \"#utility.yul\":1929:2018   */\n      and\n        /* \"#utility.yul\":1926:2041   */\n      iszero\n      tag_86\n      jumpi\n        /* \"#utility.yul\":2021:2039   */\n      tag_87\n      tag_57\n      jump\t// in\n    tag_87:\n        /* \"#utility.yul\":1926:2041   */\n    tag_86:\n        /* \"#utility.yul\":2191:2192   */\n      dup3\n        /* \"#utility.yul\":2182:2189   */\n      dup3\n        /* \"#utility.yul\":2177:2193   */\n      sdiv\n        /* \"#utility.yul\":2174:2175   */\n      dup5\n        /* \"#utility.yul\":2171:2194   */\n      eq\n        /* \"#utility.yul\":2151:2152   */\n      dup4\n        /* \"#utility.yul\":2144:2153   */\n      iszero\n        /* \"#utility.yul\":2124:2208   */\n      or\n        /* \"#utility.yul\":2101:2241   */\n      tag_88\n      jumpi\n        /* \"#utility.yul\":2221:2239   */\n      tag_89\n      tag_57\n      jump\t// in\n    tag_89:\n        /* \"#utility.yul\":2101:2241   */\n    tag_88:\n        /* \"#utility.yul\":1739:2248   */\n      pop\n        /* \"#utility.yul\":1692:2248   */\n      swap3\n      swap2\n      pop\n      pop\n      jump\t// out\n        /* \"#utility.yul\":2254:2423   */\n    tag_58:\n        /* \"#utility.yul\":2338:2349   */\n      0x00\n        /* \"#utility.yul\":2372:2378   */\n      dup3\n        /* \"#utility.yul\":2367:2370   */\n      dup3\n        /* \"#utility.yul\":2360:2379   */\n      mstore\n        /* \"#utility.yul\":2412:2416   */\n      0x20\n        /* \"#utility.yul\":2407:2410   */\n      dup3\n        /* \"#utility.yul\":2403:2417   */\n      add\n        /* \"#utility.yul\":2388:2417   */\n      swap1\n      pop\n        /* \"#utility.yul\":2254:2423   */\n      swap3\n      swap2\n      pop\n      pop\n      jump\t// out\n        /* \"#utility.yul\":2429:2595   */\n    tag_59:\n        /* \"#utility.yul\":2569:2587   */\n      0x4469766973696f6e206279207a65726f00000000000000000000000000000000\n        /* \"#utility.yul\":2565:2566   */\n      0x00\n        /* \"#utility.yul\":2557:2563   */\n      dup3\n        /* \"#utility.yul\":2553:2567   */\n      add\n        /* \"#utility.yul\":2546:2588   */\n      mstore\n        /* \"#utility.yul\":2429:2595   */\n      pop\n      jump\t// out\n        /* \"#utility.yul\":2601:2967   */\n    tag_60:\n        /* \"#utility.yul\":2743:2746   */\n      0x00\n        /* \"#utility.yul\":2764:2831   */\n      tag_93\n        /* \"#utility.yul\":2828:2830   */\n      0x10\n        /* \"#utility.yul\":2823:2826   */\n      dup4\n        /* \"#utility.yul\":2764:2831   */\n      tag_58\n      jump\t// in\n    tag_93:\n        /* \"#utility.yul\":2757:2831   */\n      swap2\n      pop\n        /* \"#utility.yul\":2840:2933   */\n      tag_94\n        /* \"#utility.yul\":2929:2932   */\n      dup3\n        /* \"#utility.yul\":2840:2933   */\n      tag_59\n      jump\t// in\n    tag_94:\n        /* \"#utility.yul\":2958:2960   */\n      0x20\n        /* \"#utility.yul\":2953:2956   */\n      dup3\n        /* \"#utility.yul\":2949:2961   */\n      add\n        /* \"#utility.yul\":2942:2961   */\n      swap1\n      pop\n        /* \"#utility.yul\":2601:2967   */\n      swap2\n      swap1\n      pop\n      jump\t// out\n        /* \"#utility.yul\":2973:3392   */\n    tag_36:\n        /* \"#utility.yul\":3139:3143   */\n      0x00\n        /* \"#utility.yul\":3177:3179   */\n      0x20\n        /* \"#utility.yul\":3166:3175   */\n      dup3\n        /* \"#utility.yul\":3162:3180   */\n      add\n        /* \"#utility.yul\":3154:3180   */\n      swap1\n      pop\n        /* \"#utility.yul\":3226:3235   */\n      dup2\n        /* \"#utility.yul\":3220:3224   */\n      dup2\n        /* \"#utility.yul\":3216:3236   */\n      sub\n        /* \"#utility.yul\":3212:3213   */\n      0x00\n        /* \"#utility.yul\":3201:3210   */\n      dup4\n        /* \"#utility.yul\":3197:3214   */\n      add\n        /* \"#utility.yul\":3190:3237   */\n      mstore\n        /* \"#utility.yul\":3254:3385   */\n      tag_96\n        /* \"#utility.yul\":3380:3384   */\n      dup2\n        /* \"#utility.yul\":3254:3385   */\n      tag_60\n      jump\t// in\n    tag_96:\n        /* \"#utility.yul\":3246:3385   */\n      swap1\n      pop\n        /* \"#utility.yul\":2973:3392   */\n      swap2\n      swap1\n      pop\n      jump\t// out\n        /* \"#utility.yul\":3398:3578   */\n    tag_61:\n        /* \"#utility.yul\":3446:3523   */\n      0x4e487b7100000000000000000000000000000000000000000000000000000000\n        /* \"#utility.yul\":3443:3444   */\n      0x00\n        /* \"#utility.yul\":3436:3524   */\n      mstore\n        /* \"#utility.yul\":3543:3547   */\n      0x12\n        /* \"#utility.yul\":3540:3541   */\n      0x04\n        /* \"#utility.yul\":3533:3548   */\n      mstore\n        /* \"#utility.yul\":3567:3571   */\n      0x24\n        /* \"#utility.yul\":3564:3565   */\n      0x00\n        /* \"#utility.yul\":3557:3572   */\n      revert\n        /* \"#utility.yul\":3584:3758   */\n    tag_38:\n        /* \"#utility.yul\":3615:3616   */\n      0x00\n        /* \"#utility.yul\":3632:3651   */\n      tag_99\n        /* \"#utility.yul\":3649:3650   */\n      dup3\n        /* \"#utility.yul\":3632:3651   */\n      tag_53\n      jump\t// in\n    tag_99:\n        /* \"#utility.yul\":3627:3651   */\n      swap2\n      pop\n        /* \"#utility.yul\":3665:3684   */\n      tag_100\n        /* \"#utility.yul\":3682:3683   */\n      dup4\n        /* \"#utility.yul\":3665:3684   */\n      tag_53\n      jump\t// in\n    tag_100:\n        /* \"#utility.yul\":3660:3684   */\n      swap3\n      pop\n        /* \"#utility.yul\":3703:3704   */\n      dup3\n        /* \"#utility.yul\":3693:3728   */\n      tag_101\n      jumpi\n        /* \"#utility.yul\":3708:3726   */\n      tag_102\n      tag_61\n      jump\t// in\n    tag_102:\n        /* \"#utility.yul\":3693:3728   */\n    tag_101:\n        /* \"#utility.yul\":3750:3751   */\n      dup3\n        /* \"#utility.yul\":3747:3748   */\n      dup3\n        /* \"#utility.yul\":3742:3752   */\n      smod\n        /* \"#utility.yul\":3737:3752   */\n      swap1\n      pop\n        /* \"#utility.yul\":3584:3758   */\n      swap3\n      swap2\n      pop\n      pop\n      jump\t// out\n        /* \"#utility.yul\":3764:4139   */\n    tag_41:\n        /* \"#utility.yul\":3803:3806   */\n      0x00\n        /* \"#utility.yul\":3822:3841   */\n      tag_104\n        /* \"#utility.yul\":3839:3840   */\n      dup3\n        /* \"#utility.yul\":3822:3841   */\n      tag_53\n      jump\t// in\n    tag_104:\n        /* \"#utility.yul\":3817:3841   */\n      swap2\n      pop\n        /* \"#utility.yul\":3855:3874   */\n      tag_105\n        /* \"#utility.yul\":3872:3873   */\n      dup4\n        /* \"#utility.yul\":3855:3874   */\n      tag_53\n      jump\t// in\n    tag_105:\n        /* \"#utility.yul\":3850:3874   */\n      swap3\n      pop\n        /* \"#utility.yul\":3897:3898   */\n      dup3\n        /* \"#utility.yul\":3894:3895   */\n      dup3\n        /* \"#utility.yul\":3890:3899   */\n      add\n        /* \"#utility.yul\":3883:3899   */\n      swap1\n      pop\n        /* \"#utility.yul\":4095:4096   */\n      dup3\n        /* \"#utility.yul\":4090:4093   */\n      dup2\n        /* \"#utility.yul\":4086:4097   */\n      slt\n        /* \"#utility.yul\":4079:4098   */\n      iszero\n        /* \"#utility.yul\":4075:4076   */\n      0x00\n        /* \"#utility.yul\":4072:4073   */\n      dup4\n        /* \"#utility.yul\":4068:4077   */\n      slt\n        /* \"#utility.yul\":4064:4099   */\n      and\n        /* \"#utility.yul\":4047:4048   */\n      dup4\n        /* \"#utility.yul\":4042:4045   */\n      dup3\n        /* \"#utility.yul\":4038:4049   */\n      slt\n        /* \"#utility.yul\":4033:4034   */\n      0x00\n        /* \"#utility.yul\":4030:4031   */\n      dup5\n        /* \"#utility.yul\":4026:4035   */\n      slt\n        /* \"#utility.yul\":4019:4036   */\n      iszero\n        /* \"#utility.yul\":4015:4050   */\n      and\n        /* \"#utility.yul\":3999:4109   */\n      or\n        /* \"#utility.yul\":3996:4132   */\n      iszero\n      tag_106\n      jumpi\n        /* \"#utility.yul\":4112:4130   */\n      tag_107\n      tag_57\n      jump\t// in\n    tag_107:\n        /* \"#utility.yul\":3996:4132   */\n    tag_106:\n        /* \"#utility.yul\":3764:4139   */\n      swap3\n      swap2\n      pop\n      pop\n      jump\t// out\n        /* \"#utility.yul\":4145:4517   */\n    tag_44:\n        /* \"#utility.yul\":4184:4188   */\n      0x00\n        /* \"#utility.yul\":4204:4223   */\n      tag_109\n        /* \"#utility.yul\":4221:4222   */\n      dup3\n        /* \"#utility.yul\":4204:4223   */\n      tag_53\n      jump\t// in\n    tag_109:\n        /* \"#utility.yul\":4199:4223   */\n      swap2\n      pop\n        /* \"#utility.yul\":4237:4256   */\n      tag_110\n        /* \"#utility.yul\":4254:4255   */\n      dup4\n        /* \"#utility.yul\":4237:4256   */\n      tag_53\n      jump\t// in\n    tag_110:\n        /* \"#utility.yul\":4232:4256   */\n      swap3\n      pop\n        /* \"#utility.yul\":4280:4281   */\n      dup3\n        /* \"#utility.yul\":4277:4278   */\n      dup3\n        /* \"#utility.yul\":4273:4282   */\n      sub\n        /* \"#utility.yul\":4265:4282   */\n      swap1\n      pop\n        /* \"#utility.yul\":4474:4475   */\n      dup2\n        /* \"#utility.yul\":4468:4472   */\n      dup2\n        /* \"#utility.yul\":4464:4476   */\n      slt\n        /* \"#utility.yul\":4460:4461   */\n      0x00\n        /* \"#utility.yul\":4457:4458   */\n      dup5\n        /* \"#utility.yul\":4453:4462   */\n      slt\n        /* \"#utility.yul\":4449:4477   */\n      and\n        /* \"#utility.yul\":4432:4433   */\n      dup3\n        /* \"#utility.yul\":4426:4430   */\n      dup3\n        /* \"#utility.yul\":4422:4434   */\n      sgt\n        /* \"#utility.yul\":4417:4418   */\n      0x00\n        /* \"#utility.yul\":4414:4415   */\n      dup6\n        /* \"#utility.yul\":4410:4419   */\n      slt\n        /* \"#utility.yul\":4403:4420   */\n      iszero\n        /* \"#utility.yul\":4399:4435   */\n      and\n        /* \"#utility.yul\":4383:4487   */\n      or\n        /* \"#utility.yul\":4380:4510   */\n      iszero\n      tag_111\n      jumpi\n        /* \"#utility.yul\":4490:4508   */\n      tag_112\n      tag_57\n      jump\t// in\n    tag_112:\n        /* \"#utility.yul\":4380:4510   */\n    tag_111:\n        /* \"#utility.yul\":4145:4517   */\n      swap3\n      swap2\n      pop\n      pop\n      jump\t// out\n        /* \"#utility.yul\":4523:4908   */\n    tag_49:\n        /* \"#utility.yul\":4562:4563   */\n      0x00\n        /* \"#utility.yul\":4579:4598   */\n      tag_114\n        /* \"#utility.yul\":4596:4597   */\n      dup3\n        /* \"#utility.yul\":4579:4598   */\n      tag_53\n      jump\t// in\n    tag_114:\n        /* \"#utility.yul\":4574:4598   */\n      swap2\n      pop\n        /* \"#utility.yul\":4612:4631   */\n      tag_115\n        /* \"#utility.yul\":4629:4630   */\n      dup4\n        /* \"#utility.yul\":4612:4631   */\n      tag_53\n      jump\t// in\n    tag_115:\n        /* \"#utility.yul\":4607:4631   */\n      swap3\n      pop\n        /* \"#utility.yul\":4650:4651   */\n      dup3\n        /* \"#utility.yul\":4640:4675   */\n      tag_116\n      jumpi\n        /* \"#utility.yul\":4655:4673   */\n      tag_117\n      tag_61\n      jump\t// in\n    tag_117:\n        /* \"#utility.yul\":4640:4675   */\n    tag_116:\n        /* \"#utility.yul\":4841:4842   */\n      0x01\n        /* \"#utility.yul\":4838:4839   */\n      0x00\n        /* \"#utility.yul\":4834:4843   */\n      sub\n        /* \"#utility.yul\":4831:4832   */\n      dup4\n        /* \"#utility.yul\":4828:4844   */\n      eq\n        /* \"#utility.yul\":4747:4813   */\n      0x8000000000000000000000000000000000000000000000000000000000000000\n        /* \"#utility.yul\":4744:4745   */\n      dup4\n        /* \"#utility.yul\":4741:4814   */\n      eq\n        /* \"#utility.yul\":4724:4854   */\n      and\n        /* \"#utility.yul\":4721:4877   */\n      iszero\n      tag_118\n      jumpi\n        /* \"#utility.yul\":4857:4875   */\n      tag_119\n      tag_57\n      jump\t// in\n    tag_119:\n        /* \"#utility.yul\":4721:4877   */\n    tag_118:\n        /* \"#utility.yul\":4900:4901   */\n      dup3\n        /* \"#utility.yul\":4897:4898   */\n      dup3\n        /* \"#utility.yul\":4892:4902   */\n      sdiv\n        /* \"#utility.yul\":4887:4902   */\n      swap1\n      pop\n        /* \"#utility.yul\":4523:4908   */\n      swap3\n      swap2\n      pop\n      pop\n      jump\t// out\n\n    auxdata: 0xa2646970667358221220818a7cca67e279c08b7a29c08b8537daea92be51421f96cce44d180375a8bff864736f6c634300081a0033\n}\n",
				"bytecode": {
					"linkReferences": {},
					"object": "6080604052348015600e575f80fd5b5061056a8061001c5f395ff3fe608060405234801561000f575f80fd5b5060043610610055575f3560e01c80633c4308a8146100595780637561bfc314610089578063a5f3c23b146100b9578063b93ea812146100e9578063f598423614610119575b5f80fd5b610073600480360381019061006e919061026d565b610149565b60405161008091906102ba565b60405180910390f35b6100a3600480360381019061009e919061026d565b61015e565b6040516100b091906102ba565b60405180910390f35b6100d360048036038101906100ce919061026d565b6101b5565b6040516100e091906102ba565b60405180910390f35b61010360048036038101906100fe919061026d565b6101ca565b60405161011091906102ba565b60405180910390f35b610133600480360381019061012e919061026d565b6101df565b60405161014091906102ba565b60405180910390f35b5f81836101569190610300565b905092915050565b5f8082036101a1576040517f08c379a0000000000000000000000000000000000000000000000000000000008152600401610198906103d0565b60405180910390fd5b81836101ad919061041b565b905092915050565b5f81836101c2919061044b565b905092915050565b5f81836101d7919061048c565b905092915050565b5f808203610222576040517f08c379a0000000000000000000000000000000000000000000000000000000008152600401610219906103d0565b60405180910390fd5b818361022e91906104cc565b905092915050565b5f80fd5b5f819050919050565b61024c8161023a565b8114610256575f80fd5b50565b5f8135905061026781610243565b92915050565b5f806040838503121561028357610282610236565b5b5f61029085828601610259565b92505060206102a185828601610259565b9150509250929050565b6102b48161023a565b82525050565b5f6020820190506102cd5f8301846102ab565b92915050565b7f4e487b71000000000000000000000000000000000000000000000000000000005f52601160045260245ffd5b5f61030a8261023a565b91506103158361023a565b92508282026103238161023a565b91507f800000000000000000000000000000000000000000000000000000000000000084145f8412161561035a576103596102d3565b5b828205841483151761036f5761036e6102d3565b5b5092915050565b5f82825260208201905092915050565b7f4469766973696f6e206279207a65726f000000000000000000000000000000005f82015250565b5f6103ba601083610376565b91506103c582610386565b602082019050919050565b5f6020820190508181035f8301526103e7816103ae565b9050919050565b7f4e487b71000000000000000000000000000000000000000000000000000000005f52601260045260245ffd5b5f6104258261023a565b91506104308361023a565b9250826104405761043f6103ee565b5b828207905092915050565b5f6104558261023a565b91506104608361023a565b92508282019050828112155f8312168382125f841215161715610486576104856102d3565b5b92915050565b5f6104968261023a565b91506104a18361023a565b925082820390508181125f8412168282135f8512151617156104c6576104c56102d3565b5b92915050565b5f6104d68261023a565b91506104e18361023a565b9250826104f1576104f06103ee565b5b60015f0383147f800000000000000000000000000000000000000000000000000000000000000083141615610529576105286102d3565b5b82820590509291505056fea2646970667358221220818a7cca67e279c08b7a29c08b8537daea92be51421f96cce44d180375a8bff864736f6c634300081a0033",
					"opcodes": "PUSH1 0x80 PUSH1 0x40 MSTORE CALLVALUE DUP1 ISZERO PUSH1 0xE JUMPI PUSH0 DUP1 REVERT JUMPDEST POP PUSH2 0x56A DUP1 PUSH2 0x1C PUSH0 CODECOPY PUSH0 RETURN INVALID PUSH1 0x80 PUSH1 0x40 MSTORE CALLVALUE DUP1 ISZERO PUSH2 0xF JUMPI PUSH0 DUP1 REVERT JUMPDEST POP PUSH1 0x4 CALLDATASIZE LT PUSH2 0x55 JUMPI PUSH0 CALLDATALOAD PUSH1 0xE0 SHR DUP1 PUSH4 0x3C4308A8 EQ PUSH2 0x59 JUMPI DUP1 PUSH4 0x7561BFC3 EQ PUSH2 0x89 JUMPI DUP1 PUSH4 0xA5F3C23B EQ PUSH2 0xB9 JUMPI DUP1 PUSH4 0xB93EA812 EQ PUSH2 0xE9 JUMPI DUP1 PUSH4 0xF5984236 EQ PUSH2 0x119 JUMPI JUMPDEST PUSH0 DUP1 REVERT JUMPDEST PUSH2 0x73 PUSH1 0x4 DUP1 CALLDATASIZE SUB DUP2 ADD SWAP1 PUSH2 0x6E SWAP2 SWAP1 PUSH2 0x26D JUMP JUMPDEST PUSH2 0x149 JUMP JUMPDEST PUSH1 0x40 MLOAD PUSH2 0x80 SWAP2 SWAP1 PUSH2 0x2BA JUMP JUMPDEST PUSH1 0x40 MLOAD DUP1 SWAP2 SUB SWAP1 RETURN JUMPDEST PUSH2 0xA3 PUSH1 0x4 DUP1 CALLDATASIZE SUB DUP2 ADD SWAP1 PUSH2 0x9E SWAP2 SWAP1 PUSH2 0x26D JUMP JUMPDEST PUSH2 0x15E JUMP JUMPDEST PUSH1 0x40 MLOAD PUSH2 0xB0 SWAP2 SWAP1 PUSH2 0x2BA JUMP JUMPDEST PUSH1 0x40 MLOAD DUP1 SWAP2 SUB SWAP1 RETURN JUMPDEST PUSH2 0xD3 PUSH1 0x4 DUP1 CALLDATASIZE SUB DUP2 ADD SWAP1 PUSH2 0xCE SWAP2 SWAP1 PUSH2 0x26D JUMP JUMPDEST PUSH2 0x1B5 JUMP JUMPDEST PUSH1 0x40 MLOAD PUSH2 0xE0 SWAP2 SWAP1 PUSH2 0x2BA JUMP JUMPDEST PUSH1 0x40 MLOAD DUP1 SWAP2 SUB SWAP1 RETURN JUMPDEST PUSH2 0x103 PUSH1 0x4 DUP1 CALLDATASIZE SUB DUP2 ADD SWAP1 PUSH2 0xFE SWAP2 SWAP1 PUSH2 0x26D JUMP JUMPDEST PUSH2 0x1CA JUMP JUMPDEST PUSH1 0x40 MLOAD PUSH2 0x110 SWAP2 SWAP1 PUSH2 0x2BA JUMP JUMPDEST PUSH1 0x40 MLOAD DUP1 SWAP2 SUB SWAP1 RETURN JUMPDEST PUSH2 0x133 PUSH1 0x4 DUP1 CALLDATASIZE SUB DUP2 ADD SWAP1 PUSH2 0x12E SWAP2 SWAP1 PUSH2 0x26D JUMP JUMPDEST PUSH2 0x1DF JUMP JUMPDEST PUSH1 0x40 MLOAD PUSH2 0x140 SWAP2 SWAP1 PUSH2 0x2BA JUMP JUMPDEST PUSH1 0x40 MLOAD DUP1 SWAP2 SUB SWAP1 RETURN JUMPDEST PUSH0 DUP2 DUP4 PUSH2 0x156 SWAP2 SWAP1 PUSH2 0x300 JUMP JUMPDEST SWAP1 POP SWAP3 SWAP2 POP POP JUMP JUMPDEST PUSH0 DUP1 DUP3 SUB PUSH2 0x1A1 JUMPI PUSH1 0x40 MLOAD PUSH32 0x8C379A000000000000000000000000000000000000000000000000000000000 DUP2 MSTORE PUSH1 0x4 ADD PUSH2 0x198 SWAP1 PUSH2 0x3D0 JUMP JUMPDEST PUSH1 0x40 MLOAD DUP1 SWAP2 SUB SWAP1 REVERT JUMPDEST DUP2 DUP4 PUSH2 0x1AD SWAP2 SWAP1 PUSH2 0x41B JUMP JUMPDEST SWAP1 POP SWAP3 SWAP2 POP POP JUMP JUMPDEST PUSH0 DUP2 DUP4 PUSH2 0x1C2 SWAP2 SWAP1 PUSH2 0x44B JUMP JUMPDEST SWAP1 POP SWAP3 SWAP2 POP POP JUMP JUMPDEST PUSH0 DUP2 DUP4 PUSH2 0x1D7 SWAP2 SWAP1 PUSH2 0x48C JUMP JUMPDEST SWAP1 POP SWAP3 SWAP2 POP POP JUMP JUMPDEST PUSH0 DUP1 DUP3 SUB PUSH2 0x222 JUMPI PUSH1 0x40 MLOAD PUSH32 0x8C379A000000000000000000000000000000000000000000000000000000000 DUP2 MSTORE PUSH1 0x4 ADD PUSH2 0x219 SWAP1 PUSH2 0x3D0 JUMP JUMPDEST PUSH1 0x40 MLOAD DUP1 SWAP2 SUB SWAP1 REVERT JUMPDEST DUP2 DUP4 PUSH2 0x22E SWAP2 SWAP1 PUSH2 0x4CC JUMP JUMPDEST SWAP1 POP SWAP3 SWAP2 POP POP JUMP JUMPDEST PUSH0 DUP1 REVERT JUMPDEST PUSH0 DUP2 SWAP1 POP SWAP2 SWAP1 POP JUMP JUMPDEST PUSH2 0x24C DUP2 PUSH2 0x23A JUMP JUMPDEST DUP2 EQ PUSH2 0x256 JUMPI PUSH0 DUP1 REVERT JUMPDEST POP JUMP JUMPDEST PUSH0 DUP2 CALLDATALOAD SWAP1 POP PUSH2 0x267 DUP2 PUSH2 0x243 JUMP JUMPDEST SWAP3 SWAP2 POP POP JUMP JUMPDEST PUSH0 DUP1 PUSH1 0x40 DUP4 DUP6 SUB SLT ISZERO PUSH2 0x283 JUMPI PUSH2 0x282 PUSH2 0x236 JUMP JUMPDEST JUMPDEST PUSH0 PUSH2 0x290 DUP6 DUP3 DUP7 ADD PUSH2 0x259 JUMP JUMPDEST SWAP3 POP POP PUSH1 0x20 PUSH2 0x2A1 DUP6 DUP3 DUP7 ADD PUSH2 0x259 JUMP JUMPDEST SWAP2 POP POP SWAP3 POP SWAP3 SWAP1 POP JUMP JUMPDEST PUSH2 0x2B4 DUP2 PUSH2 0x23A JUMP JUMPDEST DUP3 MSTORE POP POP JUMP JUMPDEST PUSH0 PUSH1 0x20 DUP3 ADD SWAP1 POP PUSH2 0x2CD PUSH0 DUP4 ADD DUP5 PUSH2 0x2AB JUMP JUMPDEST SWAP3 SWAP2 POP POP JUMP JUMPDEST PUSH32 0x4E487B7100000000000000000000000000000000000000000000000000000000 PUSH0 MSTORE PUSH1 0x11 PUSH1 0x4 MSTORE PUSH1 0x24 PUSH0 REVERT JUMPDEST PUSH0 PUSH2 0x30A DUP3 PUSH2 0x23A JUMP JUMPDEST SWAP2 POP PUSH2 0x315 DUP4 PUSH2 0x23A JUMP JUMPDEST SWAP3 POP DUP3 DUP3 MUL PUSH2 0x323 DUP2 PUSH2 0x23A JUMP JUMPDEST SWAP2 POP PUSH32 0x8000000000000000000000000000000000000000000000000000000000000000 DUP5 EQ PUSH0 DUP5 SLT AND ISZERO PUSH2 0x35A JUMPI PUSH2 0x359 PUSH2 0x2D3 JUMP JUMPDEST JUMPDEST DUP3 DUP3 SDIV DUP5 EQ DUP4 ISZERO OR PUSH2 0x36F JUMPI PUSH2 0x36E PUSH2 0x2D3 JUMP JUMPDEST JUMPDEST POP SWAP3 SWAP2 POP POP JUMP JUMPDEST PUSH0 DUP3 DUP3 MSTORE PUSH1 0x20 DUP3 ADD SWAP1 POP SWAP3 SWAP2 POP POP JUMP JUMPDEST PUSH32 0x4469766973696F6E206279207A65726F00000000000000000000000000000000 PUSH0 DUP3 ADD MSTORE POP JUMP JUMPDEST PUSH0 PUSH2 0x3BA PUSH1 0x10 DUP4 PUSH2 0x376 JUMP JUMPDEST SWAP2 POP PUSH2 0x3C5 DUP3 PUSH2 0x386 JUMP JUMPDEST PUSH1 0x20 DUP3 ADD SWAP1 POP SWAP2 SWAP1 POP JUMP JUMPDEST PUSH0 PUSH1 0x20 DUP3 ADD SWAP1 POP DUP2 DUP2 SUB PUSH0 DUP4 ADD MSTORE PUSH2 0x3E7 DUP2 PUSH2 0x3AE JUMP JUMPDEST SWAP1 POP SWAP2 SWAP1 POP JUMP JUMPDEST PUSH32 0x4E487B7100000000000000000000000000000000000000000000000000000000 PUSH0 MSTORE PUSH1 0x12 PUSH1 0x4 MSTORE PUSH1 0x24 PUSH0 REVERT JUMPDEST PUSH0 PUSH2 0x425 DUP3 PUSH2 0x23A JUMP JUMPDEST SWAP2 POP PUSH2 0x430 DUP4 PUSH2 0x23A JUMP JUMPDEST SWAP3 POP DUP3 PUSH2 0x440 JUMPI PUSH2 0x43F PUSH2 0x3EE JUMP JUMPDEST JUMPDEST DUP3 DUP3 SMOD SWAP1 POP SWAP3 SWAP2 POP POP JUMP JUMPDEST PUSH0 PUSH2 0x455 DUP3 PUSH2 0x23A JUMP JUMPDEST SWAP2 POP PUSH2 0x460 DUP4 PUSH2 0x23A JUMP JUMPDEST SWAP3 POP DUP3 DUP3 ADD SWAP1 POP DUP3 DUP2 SLT ISZERO PUSH0 DUP4 SLT AND DUP4 DUP3 SLT PUSH0 DUP5 SLT ISZERO AND OR ISZERO PUSH2 0x486 JUMPI PUSH2 0x485 PUSH2 0x2D3 JUMP JUMPDEST JUMPDEST SWAP3 SWAP2 POP POP JUMP JUMPDEST PUSH0 PUSH2 0x496 DUP3 PUSH2 0x23A JUMP JUMPDEST SWAP2 POP PUSH2 0x4A1 DUP4 PUSH2 0x23A JUMP JUMPDEST SWAP3 POP DUP3 DUP3 SUB SWAP1 POP DUP2 DUP2 SLT PUSH0 DUP5 SLT AND DUP3 DUP3 SGT PUSH0 DUP6 SLT ISZERO AND OR ISZERO PUSH2 0x4C6 JUMPI PUSH2 0x4C5 PUSH2 0x2D3 JUMP JUMPDEST JUMPDEST SWAP3 SWAP2 POP POP JUMP JUMPDEST PUSH0 PUSH2 0x4D6 DUP3 PUSH2 0x23A JUMP JUMPDEST SWAP2 POP PUSH2 0x4E1 DUP4 PUSH2 0x23A JUMP JUMPDEST SWAP3 POP DUP3 PUSH2 0x4F1 JUMPI PUSH2 0x4F0 PUSH2 0x3EE JUMP JUMPDEST JUMPDEST PUSH1 0x1 PUSH0 SUB DUP4 EQ PUSH32 0x8000000000000000000000000000000000000000000000000000000000000000 DUP4 EQ AND ISZERO PUSH2 0x529 JUMPI PUSH2 0x528 PUSH2 0x2D3 JUMP JUMPDEST JUMPDEST DUP3 DUP3 SDIV SWAP1 POP SWAP3 SWAP2 POP POP JUMP INVALID LOG2 PUSH5 0x6970667358 0x22 SLT KECCAK256 DUP2 DUP11 PUSH29 0xCA67E279C08B7A29C08B8537DAEA92BE51421F96CCE44D180375A8BFF8 PUSH5 0x736F6C6343 STOP ADDMOD BYTE STOP CALLER "
				},
				"gasEstimates": {
					"creation": {
						"codeDepositCost": "277200",
						"executionCost": "316",
						"totalCost": "277516"
					},
					"external": {
						"add(int256,int256)": "infinite",
						"divide(int256,int256)": "infinite",
						"multiply(int256,int256)": "infinite",
						"remainder(int256,int256)": "infinite",
						"subtract(int256,int256)": "infinite"
					}
				},
				"methodIdentifiers": {
					"add(int256,int256)": "a5f3c23b",
					"divide(int256,int256)": "f5984236",
					"multiply(int256,int256)": "3c4308a8",
					"remainder(int256,int256)": "7561bfc3",
					"subtract(int256,int256)": "b93ea812"
				}
			},
			"storageLayout": {
				"storage": [],
				"types": null
			},
			"userdoc": {
				"kind": "user",
				"methods": {},
				"version": 1
			}
		}
	}
}