{
	"code5_5.sol": {
		"calculator": {
			"abi": [
				{
					"inputs": [
						{
							"internalType": "int32",
							"name": "number1",
							"type": "int32"
						},
						{
							"internalType": "int32",
							"name": "number2",
							"type": "int32"
						}
					],
					"name": "division",
					"outputs": [
						{
							"internalType": "int64",
							"name": "",
							"type": "int64"
						}
					],
					"stateMutability": "nonpayable",
					"type": "function"
				},
				{
					"inputs": [],
					"name": "getLastOperation",
					"outputs": [
						{
							"internalType": "int32",
							"name": "",
							"type": "int32"
						},
						{
							"internalType": "int32",
							"name": "",
							"type": "int32"
						},
						{
							"internalType": "int64",
							"name": "",
							"type": "int64"
						},
						{
							"internalType": "string",
							"name": "",
							"type": "string"
						}
					],
					"stateMutability": "view",
					"type": "function"
				},
				{
					"inputs": [
						{
							"internalType": "int32",
							"name": "number1",
							"type": "int32"
						},
						{
							"internalType": "int32",
							"name": "number2",
							"type": "int32"
						}
					],
					"name": "multiplication",
					"outputs": [
						{
							"internalType": "int64",
							"name": "",
							"type": "int64"
						}
					],
					"stateMutability": "nonpayable",
					"type": "function"
				},
				{
					"inputs": [
						{
							"internalType": "int32",
							"name": "number1",
							"type": "int32"
						},
						{
							"internalType": "int32",
							"name": "number2",
							"type": "int32"
						}
					],
					"name": "substraction",
					"outputs": [
						{
							"internalType": "int64",
							"name": "",
							"type": "int64"
						}
					],
					"stateMutability": "nonpayable",
					"type": "function"
				},
				{
					"inputs": [
						{
							"internalType": "int32",
							"name": "number1",
							"type": "int32"
						},
						{
							"internalType": "int32",
							"name": "number2",
							"type": "int32"
						}
					],
					"name": "summa",
					"outputs": [
						{
							"internalType": "int64",
							"name": "",
							"type": "int64"
						}
					],
					"stateMutability": "nonpayable",
					"type": "function"
				}
			],
			"devdoc": {
				"kind": "dev",
				"methods": {},
				"version": 1
			},
			"evm": {
				"assembly": "    /* \"code5_5.sol\":26:1340  contract calculator {... */\n  mstore(0x40, 0x80)\n  callvalue\n  dup1\n  iszero\n  tag_1\n  jumpi\n  0x00\n  dup1\n  revert\ntag_1:\n  pop\n  dataSize(sub_0)\n  dup1\n  dataOffset(sub_0)\n  0x00\n  codecopy\n  0x00\n  return\nstop\n\nsub_0: assembly {\n        /* \"code5_5.sol\":26:1340  contract calculator {... */\n      mstore(0x40, 0x80)\n      callvalue\n      dup1\n      iszero\n      tag_1\n      jumpi\n      0x00\n      dup1\n      revert\n    tag_1:\n      pop\n      jumpi(tag_2, lt(calldatasize, 0x04))\n      shr(0xe0, calldataload(0x00))\n      dup1\n      0x5e1b64ed\n      eq\n      tag_3\n      jumpi\n      dup1\n      0xa57d1733\n      eq\n      tag_4\n      jumpi\n      dup1\n      0xc9fbf851\n      eq\n      tag_5\n      jumpi\n      dup1\n      0xe8e34b57\n      eq\n      tag_6\n      jumpi\n      dup1\n      0xea4bc64e\n      eq\n      tag_7\n      jumpi\n    tag_2:\n      0x00\n      dup1\n      revert\n        /* \"code5_5.sol\":163:386  function summa(int32 number1,int32 number2) public  returns (int64) {... */\n    tag_3:\n      tag_8\n      0x04\n      dup1\n      calldatasize\n      sub\n      dup2\n      add\n      swap1\n      tag_9\n      swap2\n      swap1\n      tag_10\n      jump\t// in\n    tag_9:\n      tag_11\n      jump\t// in\n    tag_8:\n      mload(0x40)\n      tag_12\n      swap2\n      swap1\n      tag_13\n      jump\t// in\n    tag_12:\n      mload(0x40)\n      dup1\n      swap2\n      sub\n      swap1\n      return\n        /* \"code5_5.sol\":640:889  function multiplication (int32 number1,int32 number2) public  returns (int64) {... */\n    tag_4:\n      tag_14\n      0x04\n      dup1\n      calldatasize\n      sub\n      dup2\n      add\n      swap1\n      tag_15\n      swap2\n      swap1\n      tag_10\n      jump\t// in\n    tag_15:\n      tag_16\n      jump\t// in\n    tag_14:\n      mload(0x40)\n      tag_17\n      swap2\n      swap1\n      tag_13\n      jump\t// in\n    tag_17:\n      mload(0x40)\n      dup1\n      swap2\n      sub\n      swap1\n      return\n        /* \"code5_5.sol\":394:632  function substraction(int32 number1,int32 number2) public  returns (int64) {... */\n    tag_5:\n      tag_18\n      0x04\n      dup1\n      calldatasize\n      sub\n      dup2\n      add\n      swap1\n      tag_19\n      swap2\n      swap1\n      tag_10\n      jump\t// in\n    tag_19:\n      tag_20\n      jump\t// in\n    tag_18:\n      mload(0x40)\n      tag_21\n      swap2\n      swap1\n      tag_13\n      jump\t// in\n    tag_21:\n      mload(0x40)\n      dup1\n      swap2\n      sub\n      swap1\n      return\n        /* \"code5_5.sol\":1200:1337  function getLastOperation () public view returns (int32,int32,int64,string memory) {... */\n    tag_6:\n      tag_22\n      tag_23\n      jump\t// in\n    tag_22:\n      mload(0x40)\n      tag_24\n      swap5\n      swap4\n      swap3\n      swap2\n      swap1\n      tag_25\n      jump\t// in\n    tag_24:\n      mload(0x40)\n      dup1\n      swap2\n      sub\n      swap1\n      return\n        /* \"code5_5.sol\":897:1192  function division  (int32 number1,int32 number2) public  returns (int64) {... */\n    tag_7:\n      tag_26\n      0x04\n      dup1\n      calldatasize\n      sub\n      dup2\n      add\n      swap1\n      tag_27\n      swap2\n      swap1\n      tag_10\n      jump\t// in\n    tag_27:\n      tag_28\n      jump\t// in\n    tag_26:\n      mload(0x40)\n      tag_29\n      swap2\n      swap1\n      tag_13\n      jump\t// in\n    tag_29:\n      mload(0x40)\n      dup1\n      swap2\n      sub\n      swap1\n      return\n        /* \"code5_5.sol\":163:386  function summa(int32 number1,int32 number2) public  returns (int64) {... */\n    tag_11:\n        /* \"code5_5.sol\":224:229  int64 */\n      0x00\n        /* \"code5_5.sol\":250:257  number1 */\n      dup3\n        /* \"code5_5.sol\":243:247  num1 */\n      0x00\n      dup1\n        /* \"code5_5.sol\":243:257  num1 = number1 */\n      0x0100\n      exp\n      dup2\n      sload\n      dup2\n      0xffffffff\n      mul\n      not\n      and\n      swap1\n      dup4\n      0x03\n      signextend\n      0xffffffff\n      and\n      mul\n      or\n      swap1\n      sstore\n      pop\n        /* \"code5_5.sol\":277:284  number2 */\n      dup2\n        /* \"code5_5.sol\":269:273  num2 */\n      0x00\n      0x04\n        /* \"code5_5.sol\":269:284  num2 =  number2 */\n      0x0100\n      exp\n      dup2\n      sload\n      dup2\n      0xffffffff\n      mul\n      not\n      and\n      swap1\n      dup4\n      0x03\n      signextend\n      0xffffffff\n      and\n      mul\n      or\n      swap1\n      sstore\n      pop\n        /* \"code5_5.sol\":317:321  num2 */\n      0x00\n      0x04\n      swap1\n      sload\n      swap1\n      0x0100\n      exp\n      swap1\n      div\n      0x03\n      signextend\n        /* \"code5_5.sol\":312:316  num1 */\n      0x00\n      dup1\n      sload\n      swap1\n      0x0100\n      exp\n      swap1\n      div\n      0x03\n      signextend\n        /* \"code5_5.sol\":312:321  num1+num2 */\n      tag_31\n      swap2\n      swap1\n      tag_32\n      jump\t// in\n    tag_31:\n        /* \"code5_5.sol\":305:322  int64 (num1+num2) */\n      0x03\n      signextend\n        /* \"code5_5.sol\":296:302  result */\n      0x00\n      0x08\n        /* \"code5_5.sol\":296:322  result = int64 (num1+num2) */\n      0x0100\n      exp\n      dup2\n      sload\n      dup2\n      0xffffffffffffffff\n      mul\n      not\n      and\n      swap1\n      dup4\n      0x07\n      signextend\n      0xffffffffffffffff\n      and\n      mul\n      or\n      swap1\n      sstore\n      pop\n        /* \"code5_5.sol\":334:353  operation = \"Summa\" */\n      mload(0x40)\n      dup1\n      0x40\n      add\n      0x40\n      mstore\n      dup1\n      0x05\n      dup2\n      mstore\n      0x20\n      add\n      0x53756d6d61000000000000000000000000000000000000000000000000000000\n      dup2\n      mstore\n      pop\n        /* \"code5_5.sol\":334:343  operation */\n      0x01\n        /* \"code5_5.sol\":334:353  operation = \"Summa\" */\n      swap1\n      dup2\n      tag_33\n      swap2\n      swap1\n      tag_34\n      jump\t// in\n    tag_33:\n      pop\n        /* \"code5_5.sol\":372:378  result */\n      0x00\n      0x08\n      swap1\n      sload\n      swap1\n      0x0100\n      exp\n      swap1\n      div\n      0x07\n      signextend\n        /* \"code5_5.sol\":365:378  return result */\n      swap1\n      pop\n        /* \"code5_5.sol\":163:386  function summa(int32 number1,int32 number2) public  returns (int64) {... */\n      swap3\n      swap2\n      pop\n      pop\n      jump\t// out\n        /* \"code5_5.sol\":640:889  function multiplication (int32 number1,int32 number2) public  returns (int64) {... */\n    tag_16:\n        /* \"code5_5.sol\":711:716  int64 */\n      0x00\n        /* \"code5_5.sol\":737:744  number1 */\n      dup3\n        /* \"code5_5.sol\":730:734  num1 */\n      0x00\n      dup1\n        /* \"code5_5.sol\":730:744  num1 = number1 */\n      0x0100\n      exp\n      dup2\n      sload\n      dup2\n      0xffffffff\n      mul\n      not\n      and\n      swap1\n      dup4\n      0x03\n      signextend\n      0xffffffff\n      and\n      mul\n      or\n      swap1\n      sstore\n      pop\n        /* \"code5_5.sol\":764:771  number2 */\n      dup2\n        /* \"code5_5.sol\":756:760  num2 */\n      0x00\n      0x04\n        /* \"code5_5.sol\":756:771  num2 =  number2 */\n      0x0100\n      exp\n      dup2\n      sload\n      dup2\n      0xffffffff\n      mul\n      not\n      and\n      swap1\n      dup4\n      0x03\n      signextend\n      0xffffffff\n      and\n      mul\n      or\n      swap1\n      sstore\n      pop\n        /* \"code5_5.sol\":803:807  num2 */\n      0x00\n      0x04\n      swap1\n      sload\n      swap1\n      0x0100\n      exp\n      swap1\n      div\n      0x03\n      signextend\n        /* \"code5_5.sol\":798:802  num1 */\n      0x00\n      dup1\n      sload\n      swap1\n      0x0100\n      exp\n      swap1\n      div\n      0x03\n      signextend\n        /* \"code5_5.sol\":798:807  num1*num2 */\n      tag_36\n      swap2\n      swap1\n      tag_37\n      jump\t// in\n    tag_36:\n        /* \"code5_5.sol\":792:808  int64(num1*num2) */\n      0x03\n      signextend\n        /* \"code5_5.sol\":783:789  result */\n      0x00\n      0x08\n        /* \"code5_5.sol\":783:808  result = int64(num1*num2) */\n      0x0100\n      exp\n      dup2\n      sload\n      dup2\n      0xffffffffffffffff\n      mul\n      not\n      and\n      swap1\n      dup4\n      0x07\n      signextend\n      0xffffffffffffffff\n      and\n      mul\n      or\n      swap1\n      sstore\n      pop\n        /* \"code5_5.sol\":820:848  operation = \"Multiplication\" */\n      mload(0x40)\n      dup1\n      0x40\n      add\n      0x40\n      mstore\n      dup1\n      0x0e\n      dup2\n      mstore\n      0x20\n      add\n      0x4d756c7469706c69636174696f6e000000000000000000000000000000000000\n      dup2\n      mstore\n      pop\n        /* \"code5_5.sol\":820:829  operation */\n      0x01\n        /* \"code5_5.sol\":820:848  operation = \"Multiplication\" */\n      swap1\n      dup2\n      tag_38\n      swap2\n      swap1\n      tag_34\n      jump\t// in\n    tag_38:\n      pop\n        /* \"code5_5.sol\":867:873  result */\n      0x00\n      0x08\n      swap1\n      sload\n      swap1\n      0x0100\n      exp\n      swap1\n      div\n      0x07\n      signextend\n        /* \"code5_5.sol\":860:873  return result */\n      swap1\n      pop\n        /* \"code5_5.sol\":640:889  function multiplication (int32 number1,int32 number2) public  returns (int64) {... */\n      swap3\n      swap2\n      pop\n      pop\n      jump\t// out\n        /* \"code5_5.sol\":394:632  function substraction(int32 number1,int32 number2) public  returns (int64) {... */\n    tag_20:\n        /* \"code5_5.sol\":462:467  int64 */\n      0x00\n        /* \"code5_5.sol\":488:495  number1 */\n      dup3\n        /* \"code5_5.sol\":481:485  num1 */\n      0x00\n      dup1\n        /* \"code5_5.sol\":481:495  num1 = number1 */\n      0x0100\n      exp\n      dup2\n      sload\n      dup2\n      0xffffffff\n      mul\n      not\n      and\n      swap1\n      dup4\n      0x03\n      signextend\n      0xffffffff\n      and\n      mul\n      or\n      swap1\n      sstore\n      pop\n        /* \"code5_5.sol\":515:522  number2 */\n      dup2\n        /* \"code5_5.sol\":507:511  num2 */\n      0x00\n      0x04\n        /* \"code5_5.sol\":507:522  num2 =  number2 */\n      0x0100\n      exp\n      dup2\n      sload\n      dup2\n      0xffffffff\n      mul\n      not\n      and\n      swap1\n      dup4\n      0x03\n      signextend\n      0xffffffff\n      and\n      mul\n      or\n      swap1\n      sstore\n      pop\n        /* \"code5_5.sol\":554:558  num2 */\n      0x00\n      0x04\n      swap1\n      sload\n      swap1\n      0x0100\n      exp\n      swap1\n      div\n      0x03\n      signextend\n        /* \"code5_5.sol\":549:553  num1 */\n      0x00\n      dup1\n      sload\n      swap1\n      0x0100\n      exp\n      swap1\n      div\n      0x03\n      signextend\n        /* \"code5_5.sol\":549:558  num1-num2 */\n      tag_40\n      swap2\n      swap1\n      tag_41\n      jump\t// in\n    tag_40:\n        /* \"code5_5.sol\":543:559  int64(num1-num2) */\n      0x03\n      signextend\n        /* \"code5_5.sol\":534:540  result */\n      0x00\n      0x08\n        /* \"code5_5.sol\":534:559  result = int64(num1-num2) */\n      0x0100\n      exp\n      dup2\n      sload\n      dup2\n      0xffffffffffffffff\n      mul\n      not\n      and\n      swap1\n      dup4\n      0x07\n      signextend\n      0xffffffffffffffff\n      and\n      mul\n      or\n      swap1\n      sstore\n      pop\n        /* \"code5_5.sol\":571:597  operation = \"Substraction\" */\n      mload(0x40)\n      dup1\n      0x40\n      add\n      0x40\n      mstore\n      dup1\n      0x0c\n      dup2\n      mstore\n      0x20\n      add\n      0x537562737472616374696f6e0000000000000000000000000000000000000000\n      dup2\n      mstore\n      pop\n        /* \"code5_5.sol\":571:580  operation */\n      0x01\n        /* \"code5_5.sol\":571:597  operation = \"Substraction\" */\n      swap1\n      dup2\n      tag_42\n      swap2\n      swap1\n      tag_34\n      jump\t// in\n    tag_42:\n      pop\n        /* \"code5_5.sol\":616:622  result */\n      0x00\n      0x08\n      swap1\n      sload\n      swap1\n      0x0100\n      exp\n      swap1\n      div\n      0x07\n      signextend\n        /* \"code5_5.sol\":609:622  return result */\n      swap1\n      pop\n        /* \"code5_5.sol\":394:632  function substraction(int32 number1,int32 number2) public  returns (int64) {... */\n      swap3\n      swap2\n      pop\n      pop\n      jump\t// out\n        /* \"code5_5.sol\":1200:1337  function getLastOperation () public view returns (int32,int32,int64,string memory) {... */\n    tag_23:\n        /* \"code5_5.sol\":1250:1255  int32 */\n      0x00\n        /* \"code5_5.sol\":1256:1261  int32 */\n      dup1\n        /* \"code5_5.sol\":1262:1267  int64 */\n      0x00\n        /* \"code5_5.sol\":1268:1281  string memory */\n      0x60\n        /* \"code5_5.sol\":1302:1306  num1 */\n      0x00\n      dup1\n      sload\n      swap1\n      0x0100\n      exp\n      swap1\n      div\n      0x03\n      signextend\n        /* \"code5_5.sol\":1307:1311  num2 */\n      0x00\n      0x04\n      swap1\n      sload\n      swap1\n      0x0100\n      exp\n      swap1\n      div\n      0x03\n      signextend\n        /* \"code5_5.sol\":1312:1318  result */\n      0x00\n      0x08\n      swap1\n      sload\n      swap1\n      0x0100\n      exp\n      swap1\n      div\n      0x07\n      signextend\n        /* \"code5_5.sol\":1319:1328  operation */\n      0x01\n        /* \"code5_5.sol\":1294:1329  return (num1,num2,result,operation) */\n      dup1\n      dup1\n      sload\n      tag_44\n      swap1\n      tag_45\n      jump\t// in\n    tag_44:\n      dup1\n      0x1f\n      add\n      0x20\n      dup1\n      swap2\n      div\n      mul\n      0x20\n      add\n      mload(0x40)\n      swap1\n      dup2\n      add\n      0x40\n      mstore\n      dup1\n      swap3\n      swap2\n      swap1\n      dup2\n      dup2\n      mstore\n      0x20\n      add\n      dup3\n      dup1\n      sload\n      tag_46\n      swap1\n      tag_45\n      jump\t// in\n    tag_46:\n      dup1\n      iszero\n      tag_47\n      jumpi\n      dup1\n      0x1f\n      lt\n      tag_48\n      jumpi\n      0x0100\n      dup1\n      dup4\n      sload\n      div\n      mul\n      dup4\n      mstore\n      swap2\n      0x20\n      add\n      swap2\n      jump(tag_47)\n    tag_48:\n      dup3\n      add\n      swap2\n      swap1\n      0x00\n      mstore\n      keccak256(0x00, 0x20)\n      swap1\n    tag_49:\n      dup2\n      sload\n      dup2\n      mstore\n      swap1\n      0x01\n      add\n      swap1\n      0x20\n      add\n      dup1\n      dup4\n      gt\n      tag_49\n      jumpi\n      dup3\n      swap1\n      sub\n      0x1f\n      and\n      dup3\n      add\n      swap2\n    tag_47:\n      pop\n      pop\n      pop\n      pop\n      pop\n      swap1\n      pop\n      swap4\n      pop\n      swap4\n      pop\n      swap4\n      pop\n      swap4\n      pop\n        /* \"code5_5.sol\":1200:1337  function getLastOperation () public view returns (int32,int32,int64,string memory) {... */\n      swap1\n      swap2\n      swap3\n      swap4\n      jump\t// out\n        /* \"code5_5.sol\":897:1192  function division  (int32 number1,int32 number2) public  returns (int64) {... */\n    tag_28:\n        /* \"code5_5.sol\":963:968  int64 */\n      0x00\n        /* \"code5_5.sol\":1001:1002  0 */\n      dup1\n        /* \"code5_5.sol\":990:997  number2 */\n      dup3\n        /* \"code5_5.sol\":990:1002  number2 != 0 */\n      0x03\n      signextend\n      sub\n        /* \"code5_5.sol\":981:1029  require (number2 != 0, \"can not divide by zero\") */\n      tag_51\n      jumpi\n      mload(0x40)\n      0x08c379a000000000000000000000000000000000000000000000000000000000\n      dup2\n      mstore\n      0x04\n      add\n      tag_52\n      swap1\n      tag_53\n      jump\t// in\n    tag_52:\n      mload(0x40)\n      dup1\n      swap2\n      sub\n      swap1\n      revert\n    tag_51:\n        /* \"code5_5.sol\":1050:1057  number1 */\n      dup3\n        /* \"code5_5.sol\":1043:1047  num1 */\n      0x00\n      dup1\n        /* \"code5_5.sol\":1043:1057  num1 = number1 */\n      0x0100\n      exp\n      dup2\n      sload\n      dup2\n      0xffffffff\n      mul\n      not\n      and\n      swap1\n      dup4\n      0x03\n      signextend\n      0xffffffff\n      and\n      mul\n      or\n      swap1\n      sstore\n      pop\n        /* \"code5_5.sol\":1077:1084  number2 */\n      dup2\n        /* \"code5_5.sol\":1069:1073  num2 */\n      0x00\n      0x04\n        /* \"code5_5.sol\":1069:1084  num2 =  number2 */\n      0x0100\n      exp\n      dup2\n      sload\n      dup2\n      0xffffffff\n      mul\n      not\n      and\n      swap1\n      dup4\n      0x03\n      signextend\n      0xffffffff\n      and\n      mul\n      or\n      swap1\n      sstore\n      pop\n        /* \"code5_5.sol\":1116:1120  num2 */\n      0x00\n      0x04\n      swap1\n      sload\n      swap1\n      0x0100\n      exp\n      swap1\n      div\n      0x03\n      signextend\n        /* \"code5_5.sol\":1111:1115  num1 */\n      0x00\n      dup1\n      sload\n      swap1\n      0x0100\n      exp\n      swap1\n      div\n      0x03\n      signextend\n        /* \"code5_5.sol\":1111:1120  num1/num2 */\n      tag_54\n      swap2\n      swap1\n      tag_55\n      jump\t// in\n    tag_54:\n        /* \"code5_5.sol\":1105:1121  int64(num1/num2) */\n      0x03\n      signextend\n        /* \"code5_5.sol\":1096:1102  result */\n      0x00\n      0x08\n        /* \"code5_5.sol\":1096:1121  result = int64(num1/num2) */\n      0x0100\n      exp\n      dup2\n      sload\n      dup2\n      0xffffffffffffffff\n      mul\n      not\n      and\n      swap1\n      dup4\n      0x07\n      signextend\n      0xffffffffffffffff\n      and\n      mul\n      or\n      swap1\n      sstore\n      pop\n        /* \"code5_5.sol\":1133:1155  operation = \"Division\" */\n      mload(0x40)\n      dup1\n      0x40\n      add\n      0x40\n      mstore\n      dup1\n      0x08\n      dup2\n      mstore\n      0x20\n      add\n      0x4469766973696f6e000000000000000000000000000000000000000000000000\n      dup2\n      mstore\n      pop\n        /* \"code5_5.sol\":1133:1142  operation */\n      0x01\n        /* \"code5_5.sol\":1133:1155  operation = \"Division\" */\n      swap1\n      dup2\n      tag_56\n      swap2\n      swap1\n      tag_34\n      jump\t// in\n    tag_56:\n      pop\n        /* \"code5_5.sol\":1174:1180  result */\n      0x00\n      0x08\n      swap1\n      sload\n      swap1\n      0x0100\n      exp\n      swap1\n      div\n      0x07\n      signextend\n        /* \"code5_5.sol\":1167:1180  return result */\n      swap1\n      pop\n        /* \"code5_5.sol\":897:1192  function division  (int32 number1,int32 number2) public  returns (int64) {... */\n      swap3\n      swap2\n      pop\n      pop\n      jump\t// out\n        /* \"#utility.yul\":88:205   */\n    tag_58:\n        /* \"#utility.yul\":197:198   */\n      0x00\n        /* \"#utility.yul\":194:195   */\n      dup1\n        /* \"#utility.yul\":187:199   */\n      revert\n        /* \"#utility.yul\":334:424   */\n    tag_60:\n        /* \"#utility.yul\":369:376   */\n      0x00\n        /* \"#utility.yul\":412:417   */\n      dup2\n        /* \"#utility.yul\":409:410   */\n      0x03\n        /* \"#utility.yul\":398:418   */\n      signextend\n        /* \"#utility.yul\":387:418   */\n      swap1\n      pop\n        /* \"#utility.yul\":334:424   */\n      swap2\n      swap1\n      pop\n      jump\t// out\n        /* \"#utility.yul\":430:548   */\n    tag_61:\n        /* \"#utility.yul\":501:523   */\n      tag_99\n        /* \"#utility.yul\":517:522   */\n      dup2\n        /* \"#utility.yul\":501:523   */\n      tag_60\n      jump\t// in\n    tag_99:\n        /* \"#utility.yul\":494:499   */\n      dup2\n        /* \"#utility.yul\":491:524   */\n      eq\n        /* \"#utility.yul\":481:542   */\n      tag_100\n      jumpi\n        /* \"#utility.yul\":538:539   */\n      0x00\n        /* \"#utility.yul\":535:536   */\n      dup1\n        /* \"#utility.yul\":528:540   */\n      revert\n        /* \"#utility.yul\":481:542   */\n    tag_100:\n        /* \"#utility.yul\":430:548   */\n      pop\n      jump\t// out\n        /* \"#utility.yul\":554:689   */\n    tag_62:\n        /* \"#utility.yul\":598:603   */\n      0x00\n        /* \"#utility.yul\":636:642   */\n      dup2\n        /* \"#utility.yul\":623:643   */\n      calldataload\n        /* \"#utility.yul\":614:643   */\n      swap1\n      pop\n        /* \"#utility.yul\":652:683   */\n      tag_102\n        /* \"#utility.yul\":677:682   */\n      dup2\n        /* \"#utility.yul\":652:683   */\n      tag_61\n      jump\t// in\n    tag_102:\n        /* \"#utility.yul\":554:689   */\n      swap3\n      swap2\n      pop\n      pop\n      jump\t// out\n        /* \"#utility.yul\":695:1161   */\n    tag_10:\n        /* \"#utility.yul\":759:765   */\n      0x00\n        /* \"#utility.yul\":767:773   */\n      dup1\n        /* \"#utility.yul\":816:818   */\n      0x40\n        /* \"#utility.yul\":804:813   */\n      dup4\n        /* \"#utility.yul\":795:802   */\n      dup6\n        /* \"#utility.yul\":791:814   */\n      sub\n        /* \"#utility.yul\":787:819   */\n      slt\n        /* \"#utility.yul\":784:903   */\n      iszero\n      tag_104\n      jumpi\n        /* \"#utility.yul\":822:901   */\n      tag_105\n      tag_58\n      jump\t// in\n    tag_105:\n        /* \"#utility.yul\":784:903   */\n    tag_104:\n        /* \"#utility.yul\":942:943   */\n      0x00\n        /* \"#utility.yul\":967:1018   */\n      tag_106\n        /* \"#utility.yul\":1010:1017   */\n      dup6\n        /* \"#utility.yul\":1001:1007   */\n      dup3\n        /* \"#utility.yul\":990:999   */\n      dup7\n        /* \"#utility.yul\":986:1008   */\n      add\n        /* \"#utility.yul\":967:1018   */\n      tag_62\n      jump\t// in\n    tag_106:\n        /* \"#utility.yul\":957:1018   */\n      swap3\n      pop\n        /* \"#utility.yul\":913:1028   */\n      pop\n        /* \"#utility.yul\":1067:1069   */\n      0x20\n        /* \"#utility.yul\":1093:1144   */\n      tag_107\n        /* \"#utility.yul\":1136:1143   */\n      dup6\n        /* \"#utility.yul\":1127:1133   */\n      dup3\n        /* \"#utility.yul\":1116:1125   */\n      dup7\n        /* \"#utility.yul\":1112:1134   */\n      add\n        /* \"#utility.yul\":1093:1144   */\n      tag_62\n      jump\t// in\n    tag_107:\n        /* \"#utility.yul\":1083:1144   */\n      swap2\n      pop\n        /* \"#utility.yul\":1038:1154   */\n      pop\n        /* \"#utility.yul\":695:1161   */\n      swap3\n      pop\n      swap3\n      swap1\n      pop\n      jump\t// out\n        /* \"#utility.yul\":1167:1257   */\n    tag_63:\n        /* \"#utility.yul\":1202:1209   */\n      0x00\n        /* \"#utility.yul\":1245:1250   */\n      dup2\n        /* \"#utility.yul\":1242:1243   */\n      0x07\n        /* \"#utility.yul\":1231:1251   */\n      signextend\n        /* \"#utility.yul\":1220:1251   */\n      swap1\n      pop\n        /* \"#utility.yul\":1167:1257   */\n      swap2\n      swap1\n      pop\n      jump\t// out\n        /* \"#utility.yul\":1263:1375   */\n    tag_64:\n        /* \"#utility.yul\":1346:1368   */\n      tag_110\n        /* \"#utility.yul\":1362:1367   */\n      dup2\n        /* \"#utility.yul\":1346:1368   */\n      tag_63\n      jump\t// in\n    tag_110:\n        /* \"#utility.yul\":1341:1344   */\n      dup3\n        /* \"#utility.yul\":1334:1369   */\n      mstore\n        /* \"#utility.yul\":1263:1375   */\n      pop\n      pop\n      jump\t// out\n        /* \"#utility.yul\":1381:1595   */\n    tag_13:\n        /* \"#utility.yul\":1470:1474   */\n      0x00\n        /* \"#utility.yul\":1508:1510   */\n      0x20\n        /* \"#utility.yul\":1497:1506   */\n      dup3\n        /* \"#utility.yul\":1493:1511   */\n      add\n        /* \"#utility.yul\":1485:1511   */\n      swap1\n      pop\n        /* \"#utility.yul\":1521:1588   */\n      tag_112\n        /* \"#utility.yul\":1585:1586   */\n      0x00\n        /* \"#utility.yul\":1574:1583   */\n      dup4\n        /* \"#utility.yul\":1570:1587   */\n      add\n        /* \"#utility.yul\":1561:1567   */\n      dup5\n        /* \"#utility.yul\":1521:1588   */\n      tag_64\n      jump\t// in\n    tag_112:\n        /* \"#utility.yul\":1381:1595   */\n      swap3\n      swap2\n      pop\n      pop\n      jump\t// out\n        /* \"#utility.yul\":1601:1713   */\n    tag_65:\n        /* \"#utility.yul\":1684:1706   */\n      tag_114\n        /* \"#utility.yul\":1700:1705   */\n      dup2\n        /* \"#utility.yul\":1684:1706   */\n      tag_60\n      jump\t// in\n    tag_114:\n        /* \"#utility.yul\":1679:1682   */\n      dup3\n        /* \"#utility.yul\":1672:1707   */\n      mstore\n        /* \"#utility.yul\":1601:1713   */\n      pop\n      pop\n      jump\t// out\n        /* \"#utility.yul\":1719:1818   */\n    tag_66:\n        /* \"#utility.yul\":1771:1777   */\n      0x00\n        /* \"#utility.yul\":1805:1810   */\n      dup2\n        /* \"#utility.yul\":1799:1811   */\n      mload\n        /* \"#utility.yul\":1789:1811   */\n      swap1\n      pop\n        /* \"#utility.yul\":1719:1818   */\n      swap2\n      swap1\n      pop\n      jump\t// out\n        /* \"#utility.yul\":1824:1993   */\n    tag_67:\n        /* \"#utility.yul\":1908:1919   */\n      0x00\n        /* \"#utility.yul\":1942:1948   */\n      dup3\n        /* \"#utility.yul\":1937:1940   */\n      dup3\n        /* \"#utility.yul\":1930:1949   */\n      mstore\n        /* \"#utility.yul\":1982:1986   */\n      0x20\n        /* \"#utility.yul\":1977:1980   */\n      dup3\n        /* \"#utility.yul\":1973:1987   */\n      add\n        /* \"#utility.yul\":1958:1987   */\n      swap1\n      pop\n        /* \"#utility.yul\":1824:1993   */\n      swap3\n      swap2\n      pop\n      pop\n      jump\t// out\n        /* \"#utility.yul\":1999:2138   */\n    tag_68:\n        /* \"#utility.yul\":2088:2094   */\n      dup3\n        /* \"#utility.yul\":2083:2086   */\n      dup2\n        /* \"#utility.yul\":2078:2081   */\n      dup4\n        /* \"#utility.yul\":2072:2095   */\n      mcopy\n        /* \"#utility.yul\":2129:2130   */\n      0x00\n        /* \"#utility.yul\":2120:2126   */\n      dup4\n        /* \"#utility.yul\":2115:2118   */\n      dup4\n        /* \"#utility.yul\":2111:2127   */\n      add\n        /* \"#utility.yul\":2104:2131   */\n      mstore\n        /* \"#utility.yul\":1999:2138   */\n      pop\n      pop\n      pop\n      jump\t// out\n        /* \"#utility.yul\":2144:2246   */\n    tag_69:\n        /* \"#utility.yul\":2185:2191   */\n      0x00\n        /* \"#utility.yul\":2236:2238   */\n      0x1f\n        /* \"#utility.yul\":2232:2239   */\n      not\n        /* \"#utility.yul\":2227:2229   */\n      0x1f\n        /* \"#utility.yul\":2220:2225   */\n      dup4\n        /* \"#utility.yul\":2216:2230   */\n      add\n        /* \"#utility.yul\":2212:2240   */\n      and\n        /* \"#utility.yul\":2202:2240   */\n      swap1\n      pop\n        /* \"#utility.yul\":2144:2246   */\n      swap2\n      swap1\n      pop\n      jump\t// out\n        /* \"#utility.yul\":2252:2629   */\n    tag_70:\n        /* \"#utility.yul\":2340:2343   */\n      0x00\n        /* \"#utility.yul\":2368:2407   */\n      tag_120\n        /* \"#utility.yul\":2401:2406   */\n      dup3\n        /* \"#utility.yul\":2368:2407   */\n      tag_66\n      jump\t// in\n    tag_120:\n        /* \"#utility.yul\":2423:2494   */\n      tag_121\n        /* \"#utility.yul\":2487:2493   */\n      dup2\n        /* \"#utility.yul\":2482:2485   */\n      dup6\n        /* \"#utility.yul\":2423:2494   */\n      tag_67\n      jump\t// in\n    tag_121:\n        /* \"#utility.yul\":2416:2494   */\n      swap4\n      pop\n        /* \"#utility.yul\":2503:2568   */\n      tag_122\n        /* \"#utility.yul\":2561:2567   */\n      dup2\n        /* \"#utility.yul\":2556:2559   */\n      dup6\n        /* \"#utility.yul\":2549:2553   */\n      0x20\n        /* \"#utility.yul\":2542:2547   */\n      dup7\n        /* \"#utility.yul\":2538:2554   */\n      add\n        /* \"#utility.yul\":2503:2568   */\n      tag_68\n      jump\t// in\n    tag_122:\n        /* \"#utility.yul\":2593:2622   */\n      tag_123\n        /* \"#utility.yul\":2615:2621   */\n      dup2\n        /* \"#utility.yul\":2593:2622   */\n      tag_69\n      jump\t// in\n    tag_123:\n        /* \"#utility.yul\":2588:2591   */\n      dup5\n        /* \"#utility.yul\":2584:2623   */\n      add\n        /* \"#utility.yul\":2577:2623   */\n      swap2\n      pop\n        /* \"#utility.yul\":2344:2629   */\n      pop\n        /* \"#utility.yul\":2252:2629   */\n      swap3\n      swap2\n      pop\n      pop\n      jump\t// out\n        /* \"#utility.yul\":2635:3255   */\n    tag_25:\n        /* \"#utility.yul\":2820:2824   */\n      0x00\n        /* \"#utility.yul\":2858:2861   */\n      0x80\n        /* \"#utility.yul\":2847:2856   */\n      dup3\n        /* \"#utility.yul\":2843:2862   */\n      add\n        /* \"#utility.yul\":2835:2862   */\n      swap1\n      pop\n        /* \"#utility.yul\":2872:2939   */\n      tag_125\n        /* \"#utility.yul\":2936:2937   */\n      0x00\n        /* \"#utility.yul\":2925:2934   */\n      dup4\n        /* \"#utility.yul\":2921:2938   */\n      add\n        /* \"#utility.yul\":2912:2918   */\n      dup8\n        /* \"#utility.yul\":2872:2939   */\n      tag_65\n      jump\t// in\n    tag_125:\n        /* \"#utility.yul\":2949:3017   */\n      tag_126\n        /* \"#utility.yul\":3013:3015   */\n      0x20\n        /* \"#utility.yul\":3002:3011   */\n      dup4\n        /* \"#utility.yul\":2998:3016   */\n      add\n        /* \"#utility.yul\":2989:2995   */\n      dup7\n        /* \"#utility.yul\":2949:3017   */\n      tag_65\n      jump\t// in\n    tag_126:\n        /* \"#utility.yul\":3027:3095   */\n      tag_127\n        /* \"#utility.yul\":3091:3093   */\n      0x40\n        /* \"#utility.yul\":3080:3089   */\n      dup4\n        /* \"#utility.yul\":3076:3094   */\n      add\n        /* \"#utility.yul\":3067:3073   */\n      dup6\n        /* \"#utility.yul\":3027:3095   */\n      tag_64\n      jump\t// in\n    tag_127:\n        /* \"#utility.yul\":3142:3151   */\n      dup2\n        /* \"#utility.yul\":3136:3140   */\n      dup2\n        /* \"#utility.yul\":3132:3152   */\n      sub\n        /* \"#utility.yul\":3127:3129   */\n      0x60\n        /* \"#utility.yul\":3116:3125   */\n      dup4\n        /* \"#utility.yul\":3112:3130   */\n      add\n        /* \"#utility.yul\":3105:3153   */\n      mstore\n        /* \"#utility.yul\":3170:3248   */\n      tag_128\n        /* \"#utility.yul\":3243:3247   */\n      dup2\n        /* \"#utility.yul\":3234:3240   */\n      dup5\n        /* \"#utility.yul\":3170:3248   */\n      tag_70\n      jump\t// in\n    tag_128:\n        /* \"#utility.yul\":3162:3248   */\n      swap1\n      pop\n        /* \"#utility.yul\":2635:3255   */\n      swap6\n      swap5\n      pop\n      pop\n      pop\n      pop\n      pop\n      jump\t// out\n        /* \"#utility.yul\":3261:3441   */\n    tag_71:\n        /* \"#utility.yul\":3309:3386   */\n      0x4e487b7100000000000000000000000000000000000000000000000000000000\n        /* \"#utility.yul\":3306:3307   */\n      0x00\n        /* \"#utility.yul\":3299:3387   */\n      mstore\n        /* \"#utility.yul\":3406:3410   */\n      0x11\n        /* \"#utility.yul\":3403:3404   */\n      0x04\n        /* \"#utility.yul\":3396:3411   */\n      mstore\n        /* \"#utility.yul\":3430:3434   */\n      0x24\n        /* \"#utility.yul\":3427:3428   */\n      0x00\n        /* \"#utility.yul\":3420:3435   */\n      revert\n        /* \"#utility.yul\":3447:3758   */\n    tag_32:\n        /* \"#utility.yul\":3485:3488   */\n      0x00\n        /* \"#utility.yul\":3504:3522   */\n      tag_131\n        /* \"#utility.yul\":3520:3521   */\n      dup3\n        /* \"#utility.yul\":3504:3522   */\n      tag_60\n      jump\t// in\n    tag_131:\n        /* \"#utility.yul\":3499:3522   */\n      swap2\n      pop\n        /* \"#utility.yul\":3536:3554   */\n      tag_132\n        /* \"#utility.yul\":3552:3553   */\n      dup4\n        /* \"#utility.yul\":3536:3554   */\n      tag_60\n      jump\t// in\n    tag_132:\n        /* \"#utility.yul\":3531:3554   */\n      swap3\n      pop\n        /* \"#utility.yul\":3577:3578   */\n      dup3\n        /* \"#utility.yul\":3574:3575   */\n      dup3\n        /* \"#utility.yul\":3570:3579   */\n      add\n        /* \"#utility.yul\":3563:3579   */\n      swap1\n      pop\n        /* \"#utility.yul\":3651:3717   */\n      0xffffffffffffffffffffffffffffffffffffffffffffffffffffffff80000000\n        /* \"#utility.yul\":3646:3649   */\n      dup2\n        /* \"#utility.yul\":3642:3718   */\n      slt\n        /* \"#utility.yul\":3617:3627   */\n      0x7fffffff\n        /* \"#utility.yul\":3612:3615   */\n      dup3\n        /* \"#utility.yul\":3608:3628   */\n      sgt\n        /* \"#utility.yul\":3592:3728   */\n      or\n        /* \"#utility.yul\":3589:3751   */\n      iszero\n      tag_133\n      jumpi\n        /* \"#utility.yul\":3731:3749   */\n      tag_134\n      tag_71\n      jump\t// in\n    tag_134:\n        /* \"#utility.yul\":3589:3751   */\n    tag_133:\n        /* \"#utility.yul\":3447:3758   */\n      swap3\n      swap2\n      pop\n      pop\n      jump\t// out\n        /* \"#utility.yul\":3764:3944   */\n    tag_72:\n        /* \"#utility.yul\":3812:3889   */\n      0x4e487b7100000000000000000000000000000000000000000000000000000000\n        /* \"#utility.yul\":3809:3810   */\n      0x00\n        /* \"#utility.yul\":3802:3890   */\n      mstore\n        /* \"#utility.yul\":3909:3913   */\n      0x41\n        /* \"#utility.yul\":3906:3907   */\n      0x04\n        /* \"#utility.yul\":3899:3914   */\n      mstore\n        /* \"#utility.yul\":3933:3937   */\n      0x24\n        /* \"#utility.yul\":3930:3931   */\n      0x00\n        /* \"#utility.yul\":3923:3938   */\n      revert\n        /* \"#utility.yul\":3950:4130   */\n    tag_73:\n        /* \"#utility.yul\":3998:4075   */\n      0x4e487b7100000000000000000000000000000000000000000000000000000000\n        /* \"#utility.yul\":3995:3996   */\n      0x00\n        /* \"#utility.yul\":3988:4076   */\n      mstore\n        /* \"#utility.yul\":4095:4099   */\n      0x22\n        /* \"#utility.yul\":4092:4093   */\n      0x04\n        /* \"#utility.yul\":4085:4100   */\n      mstore\n        /* \"#utility.yul\":4119:4123   */\n      0x24\n        /* \"#utility.yul\":4116:4117   */\n      0x00\n        /* \"#utility.yul\":4109:4124   */\n      revert\n        /* \"#utility.yul\":4136:4456   */\n    tag_45:\n        /* \"#utility.yul\":4180:4186   */\n      0x00\n        /* \"#utility.yul\":4217:4218   */\n      0x02\n        /* \"#utility.yul\":4211:4215   */\n      dup3\n        /* \"#utility.yul\":4207:4219   */\n      div\n        /* \"#utility.yul\":4197:4219   */\n      swap1\n      pop\n        /* \"#utility.yul\":4264:4265   */\n      0x01\n        /* \"#utility.yul\":4258:4262   */\n      dup3\n        /* \"#utility.yul\":4254:4266   */\n      and\n        /* \"#utility.yul\":4285:4303   */\n      dup1\n        /* \"#utility.yul\":4275:4356   */\n      tag_138\n      jumpi\n        /* \"#utility.yul\":4341:4345   */\n      0x7f\n        /* \"#utility.yul\":4333:4339   */\n      dup3\n        /* \"#utility.yul\":4329:4346   */\n      and\n        /* \"#utility.yul\":4319:4346   */\n      swap2\n      pop\n        /* \"#utility.yul\":4275:4356   */\n    tag_138:\n        /* \"#utility.yul\":4403:4405   */\n      0x20\n        /* \"#utility.yul\":4395:4401   */\n      dup3\n        /* \"#utility.yul\":4392:4406   */\n      lt\n        /* \"#utility.yul\":4372:4390   */\n      dup2\n        /* \"#utility.yul\":4369:4407   */\n      sub\n        /* \"#utility.yul\":4366:4450   */\n      tag_139\n      jumpi\n        /* \"#utility.yul\":4422:4440   */\n      tag_140\n      tag_73\n      jump\t// in\n    tag_140:\n        /* \"#utility.yul\":4366:4450   */\n    tag_139:\n        /* \"#utility.yul\":4187:4456   */\n      pop\n        /* \"#utility.yul\":4136:4456   */\n      swap2\n      swap1\n      pop\n      jump\t// out\n        /* \"#utility.yul\":4462:4603   */\n    tag_74:\n        /* \"#utility.yul\":4511:4515   */\n      0x00\n        /* \"#utility.yul\":4534:4537   */\n      dup2\n        /* \"#utility.yul\":4526:4537   */\n      swap1\n      pop\n        /* \"#utility.yul\":4557:4560   */\n      dup2\n        /* \"#utility.yul\":4554:4555   */\n      0x00\n        /* \"#utility.yul\":4547:4561   */\n      mstore\n        /* \"#utility.yul\":4591:4595   */\n      0x20\n        /* \"#utility.yul\":4588:4589   */\n      0x00\n        /* \"#utility.yul\":4578:4596   */\n      keccak256\n        /* \"#utility.yul\":4570:4596   */\n      swap1\n      pop\n        /* \"#utility.yul\":4462:4603   */\n      swap2\n      swap1\n      pop\n      jump\t// out\n        /* \"#utility.yul\":4609:4702   */\n    tag_75:\n        /* \"#utility.yul\":4646:4652   */\n      0x00\n        /* \"#utility.yul\":4693:4695   */\n      0x20\n        /* \"#utility.yul\":4688:4690   */\n      0x1f\n        /* \"#utility.yul\":4681:4686   */\n      dup4\n        /* \"#utility.yul\":4677:4691   */\n      add\n        /* \"#utility.yul\":4673:4696   */\n      div\n        /* \"#utility.yul\":4663:4696   */\n      swap1\n      pop\n        /* \"#utility.yul\":4609:4702   */\n      swap2\n      swap1\n      pop\n      jump\t// out\n        /* \"#utility.yul\":4708:4815   */\n    tag_76:\n        /* \"#utility.yul\":4752:4760   */\n      0x00\n        /* \"#utility.yul\":4802:4807   */\n      dup3\n        /* \"#utility.yul\":4796:4800   */\n      dup3\n        /* \"#utility.yul\":4792:4808   */\n      shl\n        /* \"#utility.yul\":4771:4808   */\n      swap1\n      pop\n        /* \"#utility.yul\":4708:4815   */\n      swap3\n      swap2\n      pop\n      pop\n      jump\t// out\n        /* \"#utility.yul\":4821:5214   */\n    tag_77:\n        /* \"#utility.yul\":4890:4896   */\n      0x00\n        /* \"#utility.yul\":4940:4941   */\n      0x08\n        /* \"#utility.yul\":4928:4938   */\n      dup4\n        /* \"#utility.yul\":4924:4942   */\n      mul\n        /* \"#utility.yul\":4963:5060   */\n      tag_145\n        /* \"#utility.yul\":4993:5059   */\n      0xffffffffffffffffffffffffffffffffffffffffffffffffffffffffffffffff\n        /* \"#utility.yul\":4982:4991   */\n      dup3\n        /* \"#utility.yul\":4963:5060   */\n      tag_76\n      jump\t// in\n    tag_145:\n        /* \"#utility.yul\":5081:5120   */\n      tag_146\n        /* \"#utility.yul\":5111:5119   */\n      dup7\n        /* \"#utility.yul\":5100:5109   */\n      dup4\n        /* \"#utility.yul\":5081:5120   */\n      tag_76\n      jump\t// in\n    tag_146:\n        /* \"#utility.yul\":5069:5120   */\n      swap6\n      pop\n        /* \"#utility.yul\":5153:5157   */\n      dup1\n        /* \"#utility.yul\":5149:5158   */\n      not\n        /* \"#utility.yul\":5142:5147   */\n      dup5\n        /* \"#utility.yul\":5138:5159   */\n      and\n        /* \"#utility.yul\":5129:5159   */\n      swap4\n      pop\n        /* \"#utility.yul\":5202:5206   */\n      dup1\n        /* \"#utility.yul\":5192:5200   */\n      dup7\n        /* \"#utility.yul\":5188:5207   */\n      and\n        /* \"#utility.yul\":5181:5186   */\n      dup5\n        /* \"#utility.yul\":5178:5208   */\n      or\n        /* \"#utility.yul\":5168:5208   */\n      swap3\n      pop\n        /* \"#utility.yul\":4897:5214   */\n      pop\n      pop\n        /* \"#utility.yul\":4821:5214   */\n      swap4\n      swap3\n      pop\n      pop\n      pop\n      jump\t// out\n        /* \"#utility.yul\":5220:5297   */\n    tag_78:\n        /* \"#utility.yul\":5257:5264   */\n      0x00\n        /* \"#utility.yul\":5286:5291   */\n      dup2\n        /* \"#utility.yul\":5275:5291   */\n      swap1\n      pop\n        /* \"#utility.yul\":5220:5297   */\n      swap2\n      swap1\n      pop\n      jump\t// out\n        /* \"#utility.yul\":5303:5363   */\n    tag_79:\n        /* \"#utility.yul\":5331:5334   */\n      0x00\n        /* \"#utility.yul\":5352:5357   */\n      dup2\n        /* \"#utility.yul\":5345:5357   */\n      swap1\n      pop\n        /* \"#utility.yul\":5303:5363   */\n      swap2\n      swap1\n      pop\n      jump\t// out\n        /* \"#utility.yul\":5369:5511   */\n    tag_80:\n        /* \"#utility.yul\":5419:5428   */\n      0x00\n        /* \"#utility.yul\":5452:5505   */\n      tag_150\n        /* \"#utility.yul\":5470:5504   */\n      tag_151\n        /* \"#utility.yul\":5479:5503   */\n      tag_152\n        /* \"#utility.yul\":5497:5502   */\n      dup5\n        /* \"#utility.yul\":5479:5503   */\n      tag_78\n      jump\t// in\n    tag_152:\n        /* \"#utility.yul\":5470:5504   */\n      tag_79\n      jump\t// in\n    tag_151:\n        /* \"#utility.yul\":5452:5505   */\n      tag_78\n      jump\t// in\n    tag_150:\n        /* \"#utility.yul\":5439:5505   */\n      swap1\n      pop\n        /* \"#utility.yul\":5369:5511   */\n      swap2\n      swap1\n      pop\n      jump\t// out\n        /* \"#utility.yul\":5517:5592   */\n    tag_81:\n        /* \"#utility.yul\":5560:5563   */\n      0x00\n        /* \"#utility.yul\":5581:5586   */\n      dup2\n        /* \"#utility.yul\":5574:5586   */\n      swap1\n      pop\n        /* \"#utility.yul\":5517:5592   */\n      swap2\n      swap1\n      pop\n      jump\t// out\n        /* \"#utility.yul\":5598:5867   */\n    tag_82:\n        /* \"#utility.yul\":5708:5747   */\n      tag_155\n        /* \"#utility.yul\":5739:5746   */\n      dup4\n        /* \"#utility.yul\":5708:5747   */\n      tag_80\n      jump\t// in\n    tag_155:\n        /* \"#utility.yul\":5769:5860   */\n      tag_156\n        /* \"#utility.yul\":5818:5859   */\n      tag_157\n        /* \"#utility.yul\":5842:5858   */\n      dup3\n        /* \"#utility.yul\":5818:5859   */\n      tag_81\n      jump\t// in\n    tag_157:\n        /* \"#utility.yul\":5810:5816   */\n      dup5\n        /* \"#utility.yul\":5803:5807   */\n      dup5\n        /* \"#utility.yul\":5797:5808   */\n      sload\n        /* \"#utility.yul\":5769:5860   */\n      tag_77\n      jump\t// in\n    tag_156:\n        /* \"#utility.yul\":5763:5767   */\n      dup3\n        /* \"#utility.yul\":5756:5861   */\n      sstore\n        /* \"#utility.yul\":5674:5867   */\n      pop\n        /* \"#utility.yul\":5598:5867   */\n      pop\n      pop\n      pop\n      jump\t// out\n        /* \"#utility.yul\":5873:5946   */\n    tag_83:\n        /* \"#utility.yul\":5918:5921   */\n      0x00\n        /* \"#utility.yul\":5873:5946   */\n      swap1\n      jump\t// out\n        /* \"#utility.yul\":5952:6141   */\n    tag_84:\n        /* \"#utility.yul\":6029:6061   */\n      tag_160\n      tag_83\n      jump\t// in\n    tag_160:\n        /* \"#utility.yul\":6070:6135   */\n      tag_161\n        /* \"#utility.yul\":6128:6134   */\n      dup2\n        /* \"#utility.yul\":6120:6126   */\n      dup5\n        /* \"#utility.yul\":6114:6118   */\n      dup5\n        /* \"#utility.yul\":6070:6135   */\n      tag_82\n      jump\t// in\n    tag_161:\n        /* \"#utility.yul\":6005:6141   */\n      pop\n        /* \"#utility.yul\":5952:6141   */\n      pop\n      pop\n      jump\t// out\n        /* \"#utility.yul\":6147:6333   */\n    tag_85:\n        /* \"#utility.yul\":6207:6327   */\n    tag_163:\n        /* \"#utility.yul\":6224:6227   */\n      dup2\n        /* \"#utility.yul\":6217:6222   */\n      dup2\n        /* \"#utility.yul\":6214:6228   */\n      lt\n        /* \"#utility.yul\":6207:6327   */\n      iszero\n      tag_165\n      jumpi\n        /* \"#utility.yul\":6278:6317   */\n      tag_166\n        /* \"#utility.yul\":6315:6316   */\n      0x00\n        /* \"#utility.yul\":6308:6313   */\n      dup3\n        /* \"#utility.yul\":6278:6317   */\n      tag_84\n      jump\t// in\n    tag_166:\n        /* \"#utility.yul\":6251:6252   */\n      0x01\n        /* \"#utility.yul\":6244:6249   */\n      dup2\n        /* \"#utility.yul\":6240:6253   */\n      add\n        /* \"#utility.yul\":6231:6253   */\n      swap1\n      pop\n        /* \"#utility.yul\":6207:6327   */\n      jump(tag_163)\n    tag_165:\n        /* \"#utility.yul\":6147:6333   */\n      pop\n      pop\n      jump\t// out\n        /* \"#utility.yul\":6339:6882   */\n    tag_86:\n        /* \"#utility.yul\":6440:6442   */\n      0x1f\n        /* \"#utility.yul\":6435:6438   */\n      dup3\n        /* \"#utility.yul\":6432:6443   */\n      gt\n        /* \"#utility.yul\":6429:6875   */\n      iszero\n      tag_168\n      jumpi\n        /* \"#utility.yul\":6474:6512   */\n      tag_169\n        /* \"#utility.yul\":6506:6511   */\n      dup2\n        /* \"#utility.yul\":6474:6512   */\n      tag_74\n      jump\t// in\n    tag_169:\n        /* \"#utility.yul\":6558:6587   */\n      tag_170\n        /* \"#utility.yul\":6576:6586   */\n      dup5\n        /* \"#utility.yul\":6558:6587   */\n      tag_75\n      jump\t// in\n    tag_170:\n        /* \"#utility.yul\":6548:6556   */\n      dup2\n        /* \"#utility.yul\":6544:6588   */\n      add\n        /* \"#utility.yul\":6741:6743   */\n      0x20\n        /* \"#utility.yul\":6729:6739   */\n      dup6\n        /* \"#utility.yul\":6726:6744   */\n      lt\n        /* \"#utility.yul\":6723:6772   */\n      iszero\n      tag_171\n      jumpi\n        /* \"#utility.yul\":6762:6770   */\n      dup2\n        /* \"#utility.yul\":6747:6770   */\n      swap1\n      pop\n        /* \"#utility.yul\":6723:6772   */\n    tag_171:\n        /* \"#utility.yul\":6785:6865   */\n      tag_172\n        /* \"#utility.yul\":6841:6863   */\n      tag_173\n        /* \"#utility.yul\":6859:6862   */\n      dup6\n        /* \"#utility.yul\":6841:6863   */\n      tag_75\n      jump\t// in\n    tag_173:\n        /* \"#utility.yul\":6831:6839   */\n      dup4\n        /* \"#utility.yul\":6827:6864   */\n      add\n        /* \"#utility.yul\":6814:6825   */\n      dup3\n        /* \"#utility.yul\":6785:6865   */\n      tag_85\n      jump\t// in\n    tag_172:\n        /* \"#utility.yul\":6444:6875   */\n      pop\n      pop\n        /* \"#utility.yul\":6429:6875   */\n    tag_168:\n        /* \"#utility.yul\":6339:6882   */\n      pop\n      pop\n      pop\n      jump\t// out\n        /* \"#utility.yul\":6888:7005   */\n    tag_87:\n        /* \"#utility.yul\":6942:6950   */\n      0x00\n        /* \"#utility.yul\":6992:6997   */\n      dup3\n        /* \"#utility.yul\":6986:6990   */\n      dup3\n        /* \"#utility.yul\":6982:6998   */\n      shr\n        /* \"#utility.yul\":6961:6998   */\n      swap1\n      pop\n        /* \"#utility.yul\":6888:7005   */\n      swap3\n      swap2\n      pop\n      pop\n      jump\t// out\n        /* \"#utility.yul\":7011:7180   */\n    tag_88:\n        /* \"#utility.yul\":7055:7061   */\n      0x00\n        /* \"#utility.yul\":7088:7139   */\n      tag_176\n        /* \"#utility.yul\":7136:7137   */\n      0x00\n        /* \"#utility.yul\":7132:7138   */\n      not\n        /* \"#utility.yul\":7124:7129   */\n      dup5\n        /* \"#utility.yul\":7121:7122   */\n      0x08\n        /* \"#utility.yul\":7117:7130   */\n      mul\n        /* \"#utility.yul\":7088:7139   */\n      tag_87\n      jump\t// in\n    tag_176:\n        /* \"#utility.yul\":7084:7140   */\n      not\n        /* \"#utility.yul\":7169:7173   */\n      dup1\n        /* \"#utility.yul\":7163:7167   */\n      dup4\n        /* \"#utility.yul\":7159:7174   */\n      and\n        /* \"#utility.yul\":7149:7174   */\n      swap2\n      pop\n        /* \"#utility.yul\":7062:7180   */\n      pop\n        /* \"#utility.yul\":7011:7180   */\n      swap3\n      swap2\n      pop\n      pop\n      jump\t// out\n        /* \"#utility.yul\":7185:7480   */\n    tag_89:\n        /* \"#utility.yul\":7261:7265   */\n      0x00\n        /* \"#utility.yul\":7407:7436   */\n      tag_178\n        /* \"#utility.yul\":7432:7435   */\n      dup4\n        /* \"#utility.yul\":7426:7430   */\n      dup4\n        /* \"#utility.yul\":7407:7436   */\n      tag_88\n      jump\t// in\n    tag_178:\n        /* \"#utility.yul\":7399:7436   */\n      swap2\n      pop\n        /* \"#utility.yul\":7469:7472   */\n      dup3\n        /* \"#utility.yul\":7466:7467   */\n      0x02\n        /* \"#utility.yul\":7462:7473   */\n      mul\n        /* \"#utility.yul\":7456:7460   */\n      dup3\n        /* \"#utility.yul\":7453:7474   */\n      or\n        /* \"#utility.yul\":7445:7474   */\n      swap1\n      pop\n        /* \"#utility.yul\":7185:7480   */\n      swap3\n      swap2\n      pop\n      pop\n      jump\t// out\n        /* \"#utility.yul\":7485:8880   */\n    tag_34:\n        /* \"#utility.yul\":7602:7639   */\n      tag_180\n        /* \"#utility.yul\":7635:7638   */\n      dup3\n        /* \"#utility.yul\":7602:7639   */\n      tag_66\n      jump\t// in\n    tag_180:\n        /* \"#utility.yul\":7704:7722   */\n      0xffffffffffffffff\n        /* \"#utility.yul\":7696:7702   */\n      dup2\n        /* \"#utility.yul\":7693:7723   */\n      gt\n        /* \"#utility.yul\":7690:7746   */\n      iszero\n      tag_181\n      jumpi\n        /* \"#utility.yul\":7726:7744   */\n      tag_182\n      tag_72\n      jump\t// in\n    tag_182:\n        /* \"#utility.yul\":7690:7746   */\n    tag_181:\n        /* \"#utility.yul\":7770:7808   */\n      tag_183\n        /* \"#utility.yul\":7802:7806   */\n      dup3\n        /* \"#utility.yul\":7796:7807   */\n      sload\n        /* \"#utility.yul\":7770:7808   */\n      tag_45\n      jump\t// in\n    tag_183:\n        /* \"#utility.yul\":7855:7922   */\n      tag_184\n        /* \"#utility.yul\":7915:7921   */\n      dup3\n        /* \"#utility.yul\":7907:7913   */\n      dup3\n        /* \"#utility.yul\":7901:7905   */\n      dup6\n        /* \"#utility.yul\":7855:7922   */\n      tag_86\n      jump\t// in\n    tag_184:\n        /* \"#utility.yul\":7949:7950   */\n      0x00\n        /* \"#utility.yul\":7973:7977   */\n      0x20\n        /* \"#utility.yul\":7960:7977   */\n      swap1\n      pop\n        /* \"#utility.yul\":8005:8007   */\n      0x1f\n        /* \"#utility.yul\":7997:8003   */\n      dup4\n        /* \"#utility.yul\":7994:8008   */\n      gt\n        /* \"#utility.yul\":8022:8023   */\n      0x01\n        /* \"#utility.yul\":8017:8635   */\n      dup2\n      eq\n      tag_186\n      jumpi\n        /* \"#utility.yul\":8679:8680   */\n      0x00\n        /* \"#utility.yul\":8696:8702   */\n      dup5\n        /* \"#utility.yul\":8693:8770   */\n      iszero\n      tag_187\n      jumpi\n        /* \"#utility.yul\":8745:8754   */\n      dup3\n        /* \"#utility.yul\":8740:8743   */\n      dup8\n        /* \"#utility.yul\":8736:8755   */\n      add\n        /* \"#utility.yul\":8730:8756   */\n      mload\n        /* \"#utility.yul\":8721:8756   */\n      swap1\n      pop\n        /* \"#utility.yul\":8693:8770   */\n    tag_187:\n        /* \"#utility.yul\":8796:8863   */\n      tag_188\n        /* \"#utility.yul\":8856:8862   */\n      dup6\n        /* \"#utility.yul\":8849:8854   */\n      dup3\n        /* \"#utility.yul\":8796:8863   */\n      tag_89\n      jump\t// in\n    tag_188:\n        /* \"#utility.yul\":8790:8794   */\n      dup7\n        /* \"#utility.yul\":8783:8864   */\n      sstore\n        /* \"#utility.yul\":8652:8874   */\n      pop\n        /* \"#utility.yul\":7987:8874   */\n      jump(tag_185)\n        /* \"#utility.yul\":8017:8635   */\n    tag_186:\n        /* \"#utility.yul\":8069:8073   */\n      0x1f\n        /* \"#utility.yul\":8065:8074   */\n      not\n        /* \"#utility.yul\":8057:8063   */\n      dup5\n        /* \"#utility.yul\":8053:8075   */\n      and\n        /* \"#utility.yul\":8103:8140   */\n      tag_189\n        /* \"#utility.yul\":8135:8139   */\n      dup7\n        /* \"#utility.yul\":8103:8140   */\n      tag_74\n      jump\t// in\n    tag_189:\n        /* \"#utility.yul\":8162:8163   */\n      0x00\n        /* \"#utility.yul\":8176:8384   */\n    tag_190:\n        /* \"#utility.yul\":8190:8197   */\n      dup3\n        /* \"#utility.yul\":8187:8188   */\n      dup2\n        /* \"#utility.yul\":8184:8198   */\n      lt\n        /* \"#utility.yul\":8176:8384   */\n      iszero\n      tag_192\n      jumpi\n        /* \"#utility.yul\":8269:8278   */\n      dup5\n        /* \"#utility.yul\":8264:8267   */\n      dup10\n        /* \"#utility.yul\":8260:8279   */\n      add\n        /* \"#utility.yul\":8254:8280   */\n      mload\n        /* \"#utility.yul\":8246:8252   */\n      dup3\n        /* \"#utility.yul\":8239:8281   */\n      sstore\n        /* \"#utility.yul\":8320:8321   */\n      0x01\n        /* \"#utility.yul\":8312:8318   */\n      dup3\n        /* \"#utility.yul\":8308:8322   */\n      add\n        /* \"#utility.yul\":8298:8322   */\n      swap2\n      pop\n        /* \"#utility.yul\":8367:8369   */\n      0x20\n        /* \"#utility.yul\":8356:8365   */\n      dup6\n        /* \"#utility.yul\":8352:8370   */\n      add\n        /* \"#utility.yul\":8339:8370   */\n      swap5\n      pop\n        /* \"#utility.yul\":8213:8217   */\n      0x20\n        /* \"#utility.yul\":8210:8211   */\n      dup2\n        /* \"#utility.yul\":8206:8218   */\n      add\n        /* \"#utility.yul\":8201:8218   */\n      swap1\n      pop\n        /* \"#utility.yul\":8176:8384   */\n      jump(tag_190)\n    tag_192:\n        /* \"#utility.yul\":8412:8418   */\n      dup7\n        /* \"#utility.yul\":8403:8410   */\n      dup4\n        /* \"#utility.yul\":8400:8419   */\n      lt\n        /* \"#utility.yul\":8397:8576   */\n      iszero\n      tag_193\n      jumpi\n        /* \"#utility.yul\":8470:8479   */\n      dup5\n        /* \"#utility.yul\":8465:8468   */\n      dup10\n        /* \"#utility.yul\":8461:8480   */\n      add\n        /* \"#utility.yul\":8455:8481   */\n      mload\n        /* \"#utility.yul\":8513:8561   */\n      tag_194\n        /* \"#utility.yul\":8555:8559   */\n      0x1f\n        /* \"#utility.yul\":8547:8553   */\n      dup10\n        /* \"#utility.yul\":8543:8560   */\n      and\n        /* \"#utility.yul\":8532:8541   */\n      dup3\n        /* \"#utility.yul\":8513:8561   */\n      tag_88\n      jump\t// in\n    tag_194:\n        /* \"#utility.yul\":8505:8511   */\n      dup4\n        /* \"#utility.yul\":8498:8562   */\n      sstore\n        /* \"#utility.yul\":8420:8576   */\n      pop\n        /* \"#utility.yul\":8397:8576   */\n    tag_193:\n        /* \"#utility.yul\":8622:8623   */\n      0x01\n        /* \"#utility.yul\":8618:8619   */\n      0x02\n        /* \"#utility.yul\":8610:8616   */\n      dup9\n        /* \"#utility.yul\":8606:8620   */\n      mul\n        /* \"#utility.yul\":8602:8624   */\n      add\n        /* \"#utility.yul\":8596:8600   */\n      dup9\n        /* \"#utility.yul\":8589:8625   */\n      sstore\n        /* \"#utility.yul\":8024:8635   */\n      pop\n      pop\n      pop\n        /* \"#utility.yul\":7987:8874   */\n    tag_185:\n      pop\n        /* \"#utility.yul\":7577:8880   */\n      pop\n      pop\n      pop\n        /* \"#utility.yul\":7485:8880   */\n      pop\n      pop\n      jump\t// out\n        /* \"#utility.yul\":8886:9157   */\n    tag_37:\n        /* \"#utility.yul\":8924:8931   */\n      0x00\n        /* \"#utility.yul\":8947:8965   */\n      tag_196\n        /* \"#utility.yul\":8963:8964   */\n      dup3\n        /* \"#utility.yul\":8947:8965   */\n      tag_60\n      jump\t// in\n    tag_196:\n        /* \"#utility.yul\":8942:8965   */\n      swap2\n      pop\n        /* \"#utility.yul\":8979:8997   */\n      tag_197\n        /* \"#utility.yul\":8995:8996   */\n      dup4\n        /* \"#utility.yul\":8979:8997   */\n      tag_60\n      jump\t// in\n    tag_197:\n        /* \"#utility.yul\":8974:8997   */\n      swap3\n      pop\n        /* \"#utility.yul\":9032:9033   */\n      dup3\n        /* \"#utility.yul\":9029:9030   */\n      dup3\n        /* \"#utility.yul\":9025:9034   */\n      mul\n        /* \"#utility.yul\":9054:9082   */\n      tag_198\n        /* \"#utility.yul\":9070:9081   */\n      dup2\n        /* \"#utility.yul\":9054:9082   */\n      tag_60\n      jump\t// in\n    tag_198:\n        /* \"#utility.yul\":9043:9082   */\n      swap2\n      pop\n        /* \"#utility.yul\":9114:9125   */\n      dup1\n        /* \"#utility.yul\":9105:9112   */\n      dup3\n        /* \"#utility.yul\":9102:9126   */\n      eq\n        /* \"#utility.yul\":9092:9150   */\n      tag_199\n      jumpi\n        /* \"#utility.yul\":9130:9148   */\n      tag_200\n      tag_71\n      jump\t// in\n    tag_200:\n        /* \"#utility.yul\":9092:9150   */\n    tag_199:\n        /* \"#utility.yul\":8932:9157   */\n      pop\n        /* \"#utility.yul\":8886:9157   */\n      swap3\n      swap2\n      pop\n      pop\n      jump\t// out\n        /* \"#utility.yul\":9163:9478   */\n    tag_41:\n        /* \"#utility.yul\":9201:9205   */\n      0x00\n        /* \"#utility.yul\":9221:9239   */\n      tag_202\n        /* \"#utility.yul\":9237:9238   */\n      dup3\n        /* \"#utility.yul\":9221:9239   */\n      tag_60\n      jump\t// in\n    tag_202:\n        /* \"#utility.yul\":9216:9239   */\n      swap2\n      pop\n        /* \"#utility.yul\":9253:9271   */\n      tag_203\n        /* \"#utility.yul\":9269:9270   */\n      dup4\n        /* \"#utility.yul\":9253:9271   */\n      tag_60\n      jump\t// in\n    tag_203:\n        /* \"#utility.yul\":9248:9271   */\n      swap3\n      pop\n        /* \"#utility.yul\":9295:9296   */\n      dup3\n        /* \"#utility.yul\":9292:9293   */\n      dup3\n        /* \"#utility.yul\":9288:9297   */\n      sub\n        /* \"#utility.yul\":9280:9297   */\n      swap1\n      pop\n        /* \"#utility.yul\":9427:9437   */\n      0x7fffffff\n        /* \"#utility.yul\":9421:9425   */\n      dup2\n        /* \"#utility.yul\":9417:9438   */\n      sgt\n        /* \"#utility.yul\":9336:9402   */\n      0xffffffffffffffffffffffffffffffffffffffffffffffffffffffff80000000\n        /* \"#utility.yul\":9330:9334   */\n      dup3\n        /* \"#utility.yul\":9326:9403   */\n      slt\n        /* \"#utility.yul\":9310:9448   */\n      or\n        /* \"#utility.yul\":9307:9471   */\n      iszero\n      tag_204\n      jumpi\n        /* \"#utility.yul\":9451:9469   */\n      tag_205\n      tag_71\n      jump\t// in\n    tag_205:\n        /* \"#utility.yul\":9307:9471   */\n    tag_204:\n        /* \"#utility.yul\":9163:9478   */\n      swap3\n      swap2\n      pop\n      pop\n      jump\t// out\n        /* \"#utility.yul\":9484:9656   */\n    tag_90:\n        /* \"#utility.yul\":9624:9648   */\n      0x63616e206e6f7420646976696465206279207a65726f00000000000000000000\n        /* \"#utility.yul\":9620:9621   */\n      0x00\n        /* \"#utility.yul\":9612:9618   */\n      dup3\n        /* \"#utility.yul\":9608:9622   */\n      add\n        /* \"#utility.yul\":9601:9649   */\n      mstore\n        /* \"#utility.yul\":9484:9656   */\n      pop\n      jump\t// out\n        /* \"#utility.yul\":9662:10028   */\n    tag_91:\n        /* \"#utility.yul\":9804:9807   */\n      0x00\n        /* \"#utility.yul\":9825:9892   */\n      tag_208\n        /* \"#utility.yul\":9889:9891   */\n      0x16\n        /* \"#utility.yul\":9884:9887   */\n      dup4\n        /* \"#utility.yul\":9825:9892   */\n      tag_67\n      jump\t// in\n    tag_208:\n        /* \"#utility.yul\":9818:9892   */\n      swap2\n      pop\n        /* \"#utility.yul\":9901:9994   */\n      tag_209\n        /* \"#utility.yul\":9990:9993   */\n      dup3\n        /* \"#utility.yul\":9901:9994   */\n      tag_90\n      jump\t// in\n    tag_209:\n        /* \"#utility.yul\":10019:10021   */\n      0x20\n        /* \"#utility.yul\":10014:10017   */\n      dup3\n        /* \"#utility.yul\":10010:10022   */\n      add\n        /* \"#utility.yul\":10003:10022   */\n      swap1\n      pop\n        /* \"#utility.yul\":9662:10028   */\n      swap2\n      swap1\n      pop\n      jump\t// out\n        /* \"#utility.yul\":10034:10453   */\n    tag_53:\n        /* \"#utility.yul\":10200:10204   */\n      0x00\n        /* \"#utility.yul\":10238:10240   */\n      0x20\n        /* \"#utility.yul\":10227:10236   */\n      dup3\n        /* \"#utility.yul\":10223:10241   */\n      add\n        /* \"#utility.yul\":10215:10241   */\n      swap1\n      pop\n        /* \"#utility.yul\":10287:10296   */\n      dup2\n        /* \"#utility.yul\":10281:10285   */\n      dup2\n        /* \"#utility.yul\":10277:10297   */\n      sub\n        /* \"#utility.yul\":10273:10274   */\n      0x00\n        /* \"#utility.yul\":10262:10271   */\n      dup4\n        /* \"#utility.yul\":10258:10275   */\n      add\n        /* \"#utility.yul\":10251:10298   */\n      mstore\n        /* \"#utility.yul\":10315:10446   */\n      tag_211\n        /* \"#utility.yul\":10441:10445   */\n      dup2\n        /* \"#utility.yul\":10315:10446   */\n      tag_91\n      jump\t// in\n    tag_211:\n        /* \"#utility.yul\":10307:10446   */\n      swap1\n      pop\n        /* \"#utility.yul\":10034:10453   */\n      swap2\n      swap1\n      pop\n      jump\t// out\n        /* \"#utility.yul\":10459:10639   */\n    tag_92:\n        /* \"#utility.yul\":10507:10584   */\n      0x4e487b7100000000000000000000000000000000000000000000000000000000\n        /* \"#utility.yul\":10504:10505   */\n      0x00\n        /* \"#utility.yul\":10497:10585   */\n      mstore\n        /* \"#utility.yul\":10604:10608   */\n      0x12\n        /* \"#utility.yul\":10601:10602   */\n      0x04\n        /* \"#utility.yul\":10594:10609   */\n      mstore\n        /* \"#utility.yul\":10628:10632   */\n      0x24\n        /* \"#utility.yul\":10625:10626   */\n      0x00\n        /* \"#utility.yul\":10618:10633   */\n      revert\n        /* \"#utility.yul\":10645:11027   */\n    tag_55:\n        /* \"#utility.yul\":10683:10684   */\n      0x00\n        /* \"#utility.yul\":10700:10718   */\n      tag_214\n        /* \"#utility.yul\":10716:10717   */\n      dup3\n        /* \"#utility.yul\":10700:10718   */\n      tag_60\n      jump\t// in\n    tag_214:\n        /* \"#utility.yul\":10695:10718   */\n      swap2\n      pop\n        /* \"#utility.yul\":10732:10750   */\n      tag_215\n        /* \"#utility.yul\":10748:10749   */\n      dup4\n        /* \"#utility.yul\":10732:10750   */\n      tag_60\n      jump\t// in\n    tag_215:\n        /* \"#utility.yul\":10727:10750   */\n      swap3\n      pop\n        /* \"#utility.yul\":10769:10770   */\n      dup3\n        /* \"#utility.yul\":10759:10794   */\n      tag_216\n      jumpi\n        /* \"#utility.yul\":10774:10792   */\n      tag_217\n      tag_92\n      jump\t// in\n    tag_217:\n        /* \"#utility.yul\":10759:10794   */\n    tag_216:\n        /* \"#utility.yul\":10960:10961   */\n      0x01\n        /* \"#utility.yul\":10957:10958   */\n      0x00\n        /* \"#utility.yul\":10953:10962   */\n      sub\n        /* \"#utility.yul\":10950:10951   */\n      dup4\n        /* \"#utility.yul\":10947:10963   */\n      eq\n        /* \"#utility.yul\":10866:10932   */\n      0xffffffffffffffffffffffffffffffffffffffffffffffffffffffff80000000\n        /* \"#utility.yul\":10863:10864   */\n      dup4\n        /* \"#utility.yul\":10860:10933   */\n      eq\n        /* \"#utility.yul\":10843:10973   */\n      and\n        /* \"#utility.yul\":10840:10996   */\n      iszero\n      tag_218\n      jumpi\n        /* \"#utility.yul\":10976:10994   */\n      tag_219\n      tag_71\n      jump\t// in\n    tag_219:\n        /* \"#utility.yul\":10840:10996   */\n    tag_218:\n        /* \"#utility.yul\":11019:11020   */\n      dup3\n        /* \"#utility.yul\":11016:11017   */\n      dup3\n        /* \"#utility.yul\":11011:11021   */\n      sdiv\n        /* \"#utility.yul\":11006:11021   */\n      swap1\n      pop\n        /* \"#utility.yul\":10645:11027   */\n      swap3\n      swap2\n      pop\n      pop\n      jump\t// out\n\n    auxdata: 0xa26469706673582212206eb0f6304be6325917908725f3974493b17a6ee174f50f3043d467813a51da9264736f6c634300081a0033\n}\n",
				"bytecode": {
					"linkReferences": {},
					"object": "6080604052348015600e575f80fd5b50610ce38061001c5f395ff3fe608060405234801561000f575f80fd5b5060043610610055575f3560e01c80635e1b64ed14610059578063a57d173314610089578063c9fbf851146100b9578063e8e34b57146100e9578063ea4bc64e1461010a575b5f80fd5b610073600480360381019061006e9190610657565b61013a565b60405161008091906106b0565b60405180910390f35b6100a3600480360381019061009e9190610657565b61022f565b6040516100b091906106b0565b60405180910390f35b6100d360048036038101906100ce9190610657565b610324565b6040516100e091906106b0565b60405180910390f35b6100f1610419565b6040516101019493929190610748565b60405180910390f35b610124600480360381019061011f9190610657565b6104e3565b60405161013191906106b0565b60405180910390f35b5f825f806101000a81548163ffffffff021916908360030b63ffffffff160217905550815f60046101000a81548163ffffffff021916908360030b63ffffffff1602179055505f60049054906101000a900460030b5f8054906101000a900460030b6101a691906107bf565b60030b5f60086101000a81548167ffffffffffffffff021916908360070b67ffffffffffffffff1602179055506040518060400160405280600581526020017f53756d6d61000000000000000000000000000000000000000000000000000000815250600190816102179190610a4a565b505f60089054906101000a900460070b905092915050565b5f825f806101000a81548163ffffffff021916908360030b63ffffffff160217905550815f60046101000a81548163ffffffff021916908360030b63ffffffff1602179055505f60049054906101000a900460030b5f8054906101000a900460030b61029b9190610b19565b60030b5f60086101000a81548167ffffffffffffffff021916908360070b67ffffffffffffffff1602179055506040518060400160405280600e81526020017f4d756c7469706c69636174696f6e0000000000000000000000000000000000008152506001908161030c9190610a4a565b505f60089054906101000a900460070b905092915050565b5f825f806101000a81548163ffffffff021916908360030b63ffffffff160217905550815f60046101000a81548163ffffffff021916908360030b63ffffffff1602179055505f60049054906101000a900460030b5f8054906101000a900460030b6103909190610b55565b60030b5f60086101000a81548167ffffffffffffffff021916908360070b67ffffffffffffffff1602179055506040518060400160405280600c81526020017f537562737472616374696f6e0000000000000000000000000000000000000000815250600190816104019190610a4a565b505f60089054906101000a900460070b905092915050565b5f805f60605f8054906101000a900460030b5f60049054906101000a900460030b5f60089054906101000a900460070b600180805461045790610874565b80601f016020809104026020016040519081016040528092919081815260200182805461048390610874565b80156104ce5780601f106104a5576101008083540402835291602001916104ce565b820191905f5260205f20905b8154815290600101906020018083116104b157829003601f168201915b50505050509050935093509350935090919293565b5f808260030b03610529576040517f08c379a000000000000000000000000000000000000000000000000000000000815260040161052090610bfa565b60405180910390fd5b825f806101000a81548163ffffffff021916908360030b63ffffffff160217905550815f60046101000a81548163ffffffff021916908360030b63ffffffff1602179055505f60049054906101000a900460030b5f8054906101000a900460030b6105949190610c45565b60030b5f60086101000a81548167ffffffffffffffff021916908360070b67ffffffffffffffff1602179055506040518060400160405280600881526020017f4469766973696f6e000000000000000000000000000000000000000000000000815250600190816106059190610a4a565b505f60089054906101000a900460070b905092915050565b5f80fd5b5f8160030b9050919050565b61063681610621565b8114610640575f80fd5b50565b5f813590506106518161062d565b92915050565b5f806040838503121561066d5761066c61061d565b5b5f61067a85828601610643565b925050602061068b85828601610643565b9150509250929050565b5f8160070b9050919050565b6106aa81610695565b82525050565b5f6020820190506106c35f8301846106a1565b92915050565b6106d281610621565b82525050565b5f81519050919050565b5f82825260208201905092915050565b8281835e5f83830152505050565b5f601f19601f8301169050919050565b5f61071a826106d8565b61072481856106e2565b93506107348185602086016106f2565b61073d81610700565b840191505092915050565b5f60808201905061075b5f8301876106c9565b61076860208301866106c9565b61077560408301856106a1565b81810360608301526107878184610710565b905095945050505050565b7f4e487b71000000000000000000000000000000000000000000000000000000005f52601160045260245ffd5b5f6107c982610621565b91506107d483610621565b925082820190507fffffffffffffffffffffffffffffffffffffffffffffffffffffffff800000008112637fffffff8213171561081457610813610792565b5b92915050565b7f4e487b71000000000000000000000000000000000000000000000000000000005f52604160045260245ffd5b7f4e487b71000000000000000000000000000000000000000000000000000000005f52602260045260245ffd5b5f600282049050600182168061088b57607f821691505b60208210810361089e5761089d610847565b5b50919050565b5f819050815f5260205f209050919050565b5f6020601f8301049050919050565b5f82821b905092915050565b5f600883026109007fffffffffffffffffffffffffffffffffffffffffffffffffffffffffffffffff826108c5565b61090a86836108c5565b95508019841693508086168417925050509392505050565b5f819050919050565b5f819050919050565b5f61094e61094961094484610922565b61092b565b610922565b9050919050565b5f819050919050565b61096783610934565b61097b61097382610955565b8484546108d1565b825550505050565b5f90565b61098f610983565b61099a81848461095e565b505050565b5b818110156109bd576109b25f82610987565b6001810190506109a0565b5050565b601f821115610a02576109d3816108a4565b6109dc846108b6565b810160208510156109eb578190505b6109ff6109f7856108b6565b83018261099f565b50505b505050565b5f82821c905092915050565b5f610a225f1984600802610a07565b1980831691505092915050565b5f610a3a8383610a13565b9150826002028217905092915050565b610a53826106d8565b67ffffffffffffffff811115610a6c57610a6b61081a565b5b610a768254610874565b610a818282856109c1565b5f60209050601f831160018114610ab2575f8415610aa0578287015190505b610aaa8582610a2f565b865550610b11565b601f198416610ac0866108a4565b5f5b82811015610ae757848901518255600182019150602085019450602081019050610ac2565b86831015610b045784890151610b00601f891682610a13565b8355505b6001600288020188555050505b505050505050565b5f610b2382610621565b9150610b2e83610621565b9250828202610b3c81610621565b9150808214610b4e57610b4d610792565b5b5092915050565b5f610b5f82610621565b9150610b6a83610621565b92508282039050637fffffff81137fffffffffffffffffffffffffffffffffffffffffffffffffffffffff8000000082121715610baa57610ba9610792565b5b92915050565b7f63616e206e6f7420646976696465206279207a65726f000000000000000000005f82015250565b5f610be46016836106e2565b9150610bef82610bb0565b602082019050919050565b5f6020820190508181035f830152610c1181610bd8565b9050919050565b7f4e487b71000000000000000000000000000000000000000000000000000000005f52601260045260245ffd5b5f610c4f82610621565b9150610c5a83610621565b925082610c6a57610c69610c18565b5b60015f0383147fffffffffffffffffffffffffffffffffffffffffffffffffffffffff8000000083141615610ca257610ca1610792565b5b82820590509291505056fea26469706673582212206eb0f6304be6325917908725f3974493b17a6ee174f50f3043d467813a51da9264736f6c634300081a0033",
					"opcodes": "PUSH1 0x80 PUSH1 0x40 MSTORE CALLVALUE DUP1 ISZERO PUSH1 0xE JUMPI PUSH0 DUP1 REVERT JUMPDEST POP PUSH2 0xCE3 DUP1 PUSH2 0x1C PUSH0 CODECOPY PUSH0 RETURN INVALID PUSH1 0x80 PUSH1 0x40 MSTORE CALLVALUE DUP1 ISZERO PUSH2 0xF JUMPI PUSH0 DUP1 REVERT JUMPDEST POP PUSH1 0x4 CALLDATASIZE LT PUSH2 0x55 JUMPI PUSH0 CALLDATALOAD PUSH1 0xE0 SHR DUP1 PUSH4 0x5E1B64ED EQ PUSH2 0x59 JUMPI DUP1 PUSH4 0xA57D1733 EQ PUSH2 0x89 JUMPI DUP1 PUSH4 0xC9FBF851 EQ PUSH2 0xB9 JUMPI DUP1 PUSH4 0xE8E34B57 EQ PUSH2 0xE9 JUMPI DUP1 PUSH4 0xEA4BC64E EQ PUSH2 0x10A JUMPI JUMPDEST PUSH0 DUP1 REVERT JUMPDEST PUSH2 0x73 PUSH1 0x4 DUP1 CALLDATASIZE SUB DUP2 ADD SWAP1 PUSH2 0x6E SWAP2 SWAP1 PUSH2 0x657 JUMP JUMPDEST PUSH2 0x13A JUMP JUMPDEST PUSH1 0x40 MLOAD PUSH2 0x80 SWAP2 SWAP1 PUSH2 0x6B0 JUMP JUMPDEST PUSH1 0x40 MLOAD DUP1 SWAP2 SUB SWAP1 RETURN JUMPDEST PUSH2 0xA3 PUSH1 0x4 DUP1 CALLDATASIZE SUB DUP2 ADD SWAP1 PUSH2 0x9E SWAP2 SWAP1 PUSH2 0x657 JUMP JUMPDEST PUSH2 0x22F JUMP JUMPDEST PUSH1 0x40 MLOAD PUSH2 0xB0 SWAP2 SWAP1 PUSH2 0x6B0 JUMP JUMPDEST PUSH1 0x40 MLOAD DUP1 SWAP2 SUB SWAP1 RETURN JUMPDEST PUSH2 0xD3 PUSH1 0x4 DUP1 CALLDATASIZE SUB DUP2 ADD SWAP1 PUSH2 0xCE SWAP2 SWAP1 PUSH2 0x657 JUMP JUMPDEST PUSH2 0x324 JUMP JUMPDEST PUSH1 0x40 MLOAD PUSH2 0xE0 SWAP2 SWAP1 PUSH2 0x6B0 JUMP JUMPDEST PUSH1 0x40 MLOAD DUP1 SWAP2 SUB SWAP1 RETURN JUMPDEST PUSH2 0xF1 PUSH2 0x419 JUMP JUMPDEST PUSH1 0x40 MLOAD PUSH2 0x101 SWAP5 SWAP4 SWAP3 SWAP2 SWAP1 PUSH2 0x748 JUMP JUMPDEST PUSH1 0x40 MLOAD DUP1 SWAP2 SUB SWAP1 RETURN JUMPDEST PUSH2 0x124 PUSH1 0x4 DUP1 CALLDATASIZE SUB DUP2 ADD SWAP1 PUSH2 0x11F SWAP2 SWAP1 PUSH2 0x657 JUMP JUMPDEST PUSH2 0x4E3 JUMP JUMPDEST PUSH1 0x40 MLOAD PUSH2 0x131 SWAP2 SWAP1 PUSH2 0x6B0 JUMP JUMPDEST PUSH1 0x40 MLOAD DUP1 SWAP2 SUB SWAP1 RETURN JUMPDEST PUSH0 DUP3 PUSH0 DUP1 PUSH2 0x100 EXP DUP2 SLOAD DUP2 PUSH4 0xFFFFFFFF MUL NOT AND SWAP1 DUP4 PUSH1 0x3 SIGNEXTEND PUSH4 0xFFFFFFFF AND MUL OR SWAP1 SSTORE POP DUP2 PUSH0 PUSH1 0x4 PUSH2 0x100 EXP DUP2 SLOAD DUP2 PUSH4 0xFFFFFFFF MUL NOT AND SWAP1 DUP4 PUSH1 0x3 SIGNEXTEND PUSH4 0xFFFFFFFF AND MUL OR SWAP1 SSTORE POP PUSH0 PUSH1 0x4 SWAP1 SLOAD SWAP1 PUSH2 0x100 EXP SWAP1 DIV PUSH1 0x3 SIGNEXTEND PUSH0 DUP1 SLOAD SWAP1 PUSH2 0x100 EXP SWAP1 DIV PUSH1 0x3 SIGNEXTEND PUSH2 0x1A6 SWAP2 SWAP1 PUSH2 0x7BF JUMP JUMPDEST PUSH1 0x3 SIGNEXTEND PUSH0 PUSH1 0x8 PUSH2 0x100 EXP DUP2 SLOAD DUP2 PUSH8 0xFFFFFFFFFFFFFFFF MUL NOT AND SWAP1 DUP4 PUSH1 0x7 SIGNEXTEND PUSH8 0xFFFFFFFFFFFFFFFF AND MUL OR SWAP1 SSTORE POP PUSH1 0x40 MLOAD DUP1 PUSH1 0x40 ADD PUSH1 0x40 MSTORE DUP1 PUSH1 0x5 DUP2 MSTORE PUSH1 0x20 ADD PUSH32 0x53756D6D61000000000000000000000000000000000000000000000000000000 DUP2 MSTORE POP PUSH1 0x1 SWAP1 DUP2 PUSH2 0x217 SWAP2 SWAP1 PUSH2 0xA4A JUMP JUMPDEST POP PUSH0 PUSH1 0x8 SWAP1 SLOAD SWAP1 PUSH2 0x100 EXP SWAP1 DIV PUSH1 0x7 SIGNEXTEND SWAP1 POP SWAP3 SWAP2 POP POP JUMP JUMPDEST PUSH0 DUP3 PUSH0 DUP1 PUSH2 0x100 EXP DUP2 SLOAD DUP2 PUSH4 0xFFFFFFFF MUL NOT AND SWAP1 DUP4 PUSH1 0x3 SIGNEXTEND PUSH4 0xFFFFFFFF AND MUL OR SWAP1 SSTORE POP DUP2 PUSH0 PUSH1 0x4 PUSH2 0x100 EXP DUP2 SLOAD DUP2 PUSH4 0xFFFFFFFF MUL NOT AND SWAP1 DUP4 PUSH1 0x3 SIGNEXTEND PUSH4 0xFFFFFFFF AND MUL OR SWAP1 SSTORE POP PUSH0 PUSH1 0x4 SWAP1 SLOAD SWAP1 PUSH2 0x100 EXP SWAP1 DIV PUSH1 0x3 SIGNEXTEND PUSH0 DUP1 SLOAD SWAP1 PUSH2 0x100 EXP SWAP1 DIV PUSH1 0x3 SIGNEXTEND PUSH2 0x29B SWAP2 SWAP1 PUSH2 0xB19 JUMP JUMPDEST PUSH1 0x3 SIGNEXTEND PUSH0 PUSH1 0x8 PUSH2 0x100 EXP DUP2 SLOAD DUP2 PUSH8 0xFFFFFFFFFFFFFFFF MUL NOT AND SWAP1 DUP4 PUSH1 0x7 SIGNEXTEND PUSH8 0xFFFFFFFFFFFFFFFF AND MUL OR SWAP1 SSTORE POP PUSH1 0x40 MLOAD DUP1 PUSH1 0x40 ADD PUSH1 0x40 MSTORE DUP1 PUSH1 0xE DUP2 MSTORE PUSH1 0x20 ADD PUSH32 0x4D756C7469706C69636174696F6E000000000000000000000000000000000000 DUP2 MSTORE POP PUSH1 0x1 SWAP1 DUP2 PUSH2 0x30C SWAP2 SWAP1 PUSH2 0xA4A JUMP JUMPDEST POP PUSH0 PUSH1 0x8 SWAP1 SLOAD SWAP1 PUSH2 0x100 EXP SWAP1 DIV PUSH1 0x7 SIGNEXTEND SWAP1 POP SWAP3 SWAP2 POP POP JUMP JUMPDEST PUSH0 DUP3 PUSH0 DUP1 PUSH2 0x100 EXP DUP2 SLOAD DUP2 PUSH4 0xFFFFFFFF MUL NOT AND SWAP1 DUP4 PUSH1 0x3 SIGNEXTEND PUSH4 0xFFFFFFFF AND MUL OR SWAP1 SSTORE POP DUP2 PUSH0 PUSH1 0x4 PUSH2 0x100 EXP DUP2 SLOAD DUP2 PUSH4 0xFFFFFFFF MUL NOT AND SWAP1 DUP4 PUSH1 0x3 SIGNEXTEND PUSH4 0xFFFFFFFF AND MUL OR SWAP1 SSTORE POP PUSH0 PUSH1 0x4 SWAP1 SLOAD SWAP1 PUSH2 0x100 EXP SWAP1 DIV PUSH1 0x3 SIGNEXTEND PUSH0 DUP1 SLOAD SWAP1 PUSH2 0x100 EXP SWAP1 DIV PUSH1 0x3 SIGNEXTEND PUSH2 0x390 SWAP2 SWAP1 PUSH2 0xB55 JUMP JUMPDEST PUSH1 0x3 SIGNEXTEND PUSH0 PUSH1 0x8 PUSH2 0x100 EXP DUP2 SLOAD DUP2 PUSH8 0xFFFFFFFFFFFFFFFF MUL NOT AND SWAP1 DUP4 PUSH1 0x7 SIGNEXTEND PUSH8 0xFFFFFFFFFFFFFFFF AND MUL OR SWAP1 SSTORE POP PUSH1 0x40 MLOAD DUP1 PUSH1 0x40 ADD PUSH1 0x40 MSTORE DUP1 PUSH1 0xC DUP2 MSTORE PUSH1 0x20 ADD PUSH32 0x537562737472616374696F6E0000000000000000000000000000000000000000 DUP2 MSTORE POP PUSH1 0x1 SWAP1 DUP2 PUSH2 0x401 SWAP2 SWAP1 PUSH2 0xA4A JUMP JUMPDEST POP PUSH0 PUSH1 0x8 SWAP1 SLOAD SWAP1 PUSH2 0x100 EXP SWAP1 DIV PUSH1 0x7 SIGNEXTEND SWAP1 POP SWAP3 SWAP2 POP POP JUMP JUMPDEST PUSH0 DUP1 PUSH0 PUSH1 0x60 PUSH0 DUP1 SLOAD SWAP1 PUSH2 0x100 EXP SWAP1 DIV PUSH1 0x3 SIGNEXTEND PUSH0 PUSH1 0x4 SWAP1 SLOAD SWAP1 PUSH2 0x100 EXP SWAP1 DIV PUSH1 0x3 SIGNEXTEND PUSH0 PUSH1 0x8 SWAP1 SLOAD SWAP1 PUSH2 0x100 EXP SWAP1 DIV PUSH1 0x7 SIGNEXTEND PUSH1 0x1 DUP1 DUP1 SLOAD PUSH2 0x457 SWAP1 PUSH2 0x874 JUMP JUMPDEST DUP1 PUSH1 0x1F ADD PUSH1 0x20 DUP1 SWAP2 DIV MUL PUSH1 0x20 ADD PUSH1 0x40 MLOAD SWAP1 DUP2 ADD PUSH1 0x40 MSTORE DUP1 SWAP3 SWAP2 SWAP1 DUP2 DUP2 MSTORE PUSH1 0x20 ADD DUP3 DUP1 SLOAD PUSH2 0x483 SWAP1 PUSH2 0x874 JUMP JUMPDEST DUP1 ISZERO PUSH2 0x4CE JUMPI DUP1 PUSH1 0x1F LT PUSH2 0x4A5 JUMPI PUSH2 0x100 DUP1 DUP4 SLOAD DIV MUL DUP4 MSTORE SWAP2 PUSH1 0x20 ADD SWAP2 PUSH2 0x4CE JUMP JUMPDEST DUP3 ADD SWAP2 SWAP1 PUSH0 MSTORE PUSH1 0x20 PUSH0 KECCAK256 SWAP1 JUMPDEST DUP2 SLOAD DUP2 MSTORE SWAP1 PUSH1 0x1 ADD SWAP1 PUSH1 0x20 ADD DUP1 DUP4 GT PUSH2 0x4B1 JUMPI DUP3 SWAP1 SUB PUSH1 0x1F AND DUP3 ADD SWAP2 JUMPDEST POP POP POP POP POP SWAP1 POP SWAP4 POP SWAP4 POP SWAP4 POP SWAP4 POP SWAP1 SWAP2 SWAP3 SWAP4 JUMP JUMPDEST PUSH0 DUP1 DUP3 PUSH1 0x3 SIGNEXTEND SUB PUSH2 0x529 JUMPI PUSH1 0x40 MLOAD PUSH32 0x8C379A000000000000000000000000000000000000000000000000000000000 DUP2 MSTORE PUSH1 0x4 ADD PUSH2 0x520 SWAP1 PUSH2 0xBFA JUMP JUMPDEST PUSH1 0x40 MLOAD DUP1 SWAP2 SUB SWAP1 REVERT JUMPDEST DUP3 PUSH0 DUP1 PUSH2 0x100 EXP DUP2 SLOAD DUP2 PUSH4 0xFFFFFFFF MUL NOT AND SWAP1 DUP4 PUSH1 0x3 SIGNEXTEND PUSH4 0xFFFFFFFF AND MUL OR SWAP1 SSTORE POP DUP2 PUSH0 PUSH1 0x4 PUSH2 0x100 EXP DUP2 SLOAD DUP2 PUSH4 0xFFFFFFFF MUL NOT AND SWAP1 DUP4 PUSH1 0x3 SIGNEXTEND PUSH4 0xFFFFFFFF AND MUL OR SWAP1 SSTORE POP PUSH0 PUSH1 0x4 SWAP1 SLOAD SWAP1 PUSH2 0x100 EXP SWAP1 DIV PUSH1 0x3 SIGNEXTEND PUSH0 DUP1 SLOAD SWAP1 PUSH2 0x100 EXP SWAP1 DIV PUSH1 0x3 SIGNEXTEND PUSH2 0x594 SWAP2 SWAP1 PUSH2 0xC45 JUMP JUMPDEST PUSH1 0x3 SIGNEXTEND PUSH0 PUSH1 0x8 PUSH2 0x100 EXP DUP2 SLOAD DUP2 PUSH8 0xFFFFFFFFFFFFFFFF MUL NOT AND SWAP1 DUP4 PUSH1 0x7 SIGNEXTEND PUSH8 0xFFFFFFFFFFFFFFFF AND MUL OR SWAP1 SSTORE POP PUSH1 0x40 MLOAD DUP1 PUSH1 0x40 ADD PUSH1 0x40 MSTORE DUP1 PUSH1 0x8 DUP2 MSTORE PUSH1 0x20 ADD PUSH32 0x4469766973696F6E000000000000000000000000000000000000000000000000 DUP2 MSTORE POP PUSH1 0x1 SWAP1 DUP2 PUSH2 0x605 SWAP2 SWAP1 PUSH2 0xA4A JUMP JUMPDEST POP PUSH0 PUSH1 0x8 SWAP1 SLOAD SWAP1 PUSH2 0x100 EXP SWAP1 DIV PUSH1 0x7 SIGNEXTEND SWAP1 POP SWAP3 SWAP2 POP POP JUMP JUMPDEST PUSH0 DUP1 REVERT JUMPDEST PUSH0 DUP2 PUSH1 0x3 SIGNEXTEND SWAP1 POP SWAP2 SWAP1 POP JUMP JUMPDEST PUSH2 0x636 DUP2 PUSH2 0x621 JUMP JUMPDEST DUP2 EQ PUSH2 0x640 JUMPI PUSH0 DUP1 REVERT JUMPDEST POP JUMP JUMPDEST PUSH0 DUP2 CALLDATALOAD SWAP1 POP PUSH2 0x651 DUP2 PUSH2 0x62D JUMP JUMPDEST SWAP3 SWAP2 POP POP JUMP JUMPDEST PUSH0 DUP1 PUSH1 0x40 DUP4 DUP6 SUB SLT ISZERO PUSH2 0x66D JUMPI PUSH2 0x66C PUSH2 0x61D JUMP JUMPDEST JUMPDEST PUSH0 PUSH2 0x67A DUP6 DUP3 DUP7 ADD PUSH2 0x643 JUMP JUMPDEST SWAP3 POP POP PUSH1 0x20 PUSH2 0x68B DUP6 DUP3 DUP7 ADD PUSH2 0x643 JUMP JUMPDEST SWAP2 POP POP SWAP3 POP SWAP3 SWAP1 POP JUMP JUMPDEST PUSH0 DUP2 PUSH1 0x7 SIGNEXTEND SWAP1 POP SWAP2 SWAP1 POP JUMP JUMPDEST PUSH2 0x6AA DUP2 PUSH2 0x695 JUMP JUMPDEST DUP3 MSTORE POP POP JUMP JUMPDEST PUSH0 PUSH1 0x20 DUP3 ADD SWAP1 POP PUSH2 0x6C3 PUSH0 DUP4 ADD DUP5 PUSH2 0x6A1 JUMP JUMPDEST SWAP3 SWAP2 POP POP JUMP JUMPDEST PUSH2 0x6D2 DUP2 PUSH2 0x621 JUMP JUMPDEST DUP3 MSTORE POP POP JUMP JUMPDEST PUSH0 DUP2 MLOAD SWAP1 POP SWAP2 SWAP1 POP JUMP JUMPDEST PUSH0 DUP3 DUP3 MSTORE PUSH1 0x20 DUP3 ADD SWAP1 POP SWAP3 SWAP2 POP POP JUMP JUMPDEST DUP3 DUP2 DUP4 MCOPY PUSH0 DUP4 DUP4 ADD MSTORE POP POP POP JUMP JUMPDEST PUSH0 PUSH1 0x1F NOT PUSH1 0x1F DUP4 ADD AND SWAP1 POP SWAP2 SWAP1 POP JUMP JUMPDEST PUSH0 PUSH2 0x71A DUP3 PUSH2 0x6D8 JUMP JUMPDEST PUSH2 0x724 DUP2 DUP6 PUSH2 0x6E2 JUMP JUMPDEST SWAP4 POP PUSH2 0x734 DUP2 DUP6 PUSH1 0x20 DUP7 ADD PUSH2 0x6F2 JUMP JUMPDEST PUSH2 0x73D DUP2 PUSH2 0x700 JUMP JUMPDEST DUP5 ADD SWAP2 POP POP SWAP3 SWAP2 POP POP JUMP JUMPDEST PUSH0 PUSH1 0x80 DUP3 ADD SWAP1 POP PUSH2 0x75B PUSH0 DUP4 ADD DUP8 PUSH2 0x6C9 JUMP JUMPDEST PUSH2 0x768 PUSH1 0x20 DUP4 ADD DUP7 PUSH2 0x6C9 JUMP JUMPDEST PUSH2 0x775 PUSH1 0x40 DUP4 ADD DUP6 PUSH2 0x6A1 JUMP JUMPDEST DUP2 DUP2 SUB PUSH1 0x60 DUP4 ADD MSTORE PUSH2 0x787 DUP2 DUP5 PUSH2 0x710 JUMP JUMPDEST SWAP1 POP SWAP6 SWAP5 POP POP POP POP POP JUMP JUMPDEST PUSH32 0x4E487B7100000000000000000000000000000000000000000000000000000000 PUSH0 MSTORE PUSH1 0x11 PUSH1 0x4 MSTORE PUSH1 0x24 PUSH0 REVERT JUMPDEST PUSH0 PUSH2 0x7C9 DUP3 PUSH2 0x621 JUMP JUMPDEST SWAP2 POP PUSH2 0x7D4 DUP4 PUSH2 0x621 JUMP JUMPDEST SWAP3 POP DUP3 DUP3 ADD SWAP1 POP PUSH32 0xFFFFFFFFFFFFFFFFFFFFFFFFFFFFFFFFFFFFFFFFFFFFFFFFFFFFFFFF80000000 DUP2 SLT PUSH4 0x7FFFFFFF DUP3 SGT OR ISZERO PUSH2 0x814 JUMPI PUSH2 0x813 PUSH2 0x792 JUMP JUMPDEST JUMPDEST SWAP3 SWAP2 POP POP JUMP JUMPDEST PUSH32 0x4E487B7100000000000000000000000000000000000000000000000000000000 PUSH0 MSTORE PUSH1 0x41 PUSH1 0x4 MSTORE PUSH1 0x24 PUSH0 REVERT JUMPDEST PUSH32 0x4E487B7100000000000000000000000000000000000000000000000000000000 PUSH0 MSTORE PUSH1 0x22 PUSH1 0x4 MSTORE PUSH1 0x24 PUSH0 REVERT JUMPDEST PUSH0 PUSH1 0x2 DUP3 DIV SWAP1 POP PUSH1 0x1 DUP3 AND DUP1 PUSH2 0x88B JUMPI PUSH1 0x7F DUP3 AND SWAP2 POP JUMPDEST PUSH1 0x20 DUP3 LT DUP2 SUB PUSH2 0x89E JUMPI PUSH2 0x89D PUSH2 0x847 JUMP JUMPDEST JUMPDEST POP SWAP2 SWAP1 POP JUMP JUMPDEST PUSH0 DUP2 SWAP1 POP DUP2 PUSH0 MSTORE PUSH1 0x20 PUSH0 KECCAK256 SWAP1 POP SWAP2 SWAP1 POP JUMP JUMPDEST PUSH0 PUSH1 0x20 PUSH1 0x1F DUP4 ADD DIV SWAP1 POP SWAP2 SWAP1 POP JUMP JUMPDEST PUSH0 DUP3 DUP3 SHL SWAP1 POP SWAP3 SWAP2 POP POP JUMP JUMPDEST PUSH0 PUSH1 0x8 DUP4 MUL PUSH2 0x900 PUSH32 0xFFFFFFFFFFFFFFFFFFFFFFFFFFFFFFFFFFFFFFFFFFFFFFFFFFFFFFFFFFFFFFFF DUP3 PUSH2 0x8C5 JUMP JUMPDEST PUSH2 0x90A DUP7 DUP4 PUSH2 0x8C5 JUMP JUMPDEST SWAP6 POP DUP1 NOT DUP5 AND SWAP4 POP DUP1 DUP7 AND DUP5 OR SWAP3 POP POP POP SWAP4 SWAP3 POP POP POP JUMP JUMPDEST PUSH0 DUP2 SWAP1 POP SWAP2 SWAP1 POP JUMP JUMPDEST PUSH0 DUP2 SWAP1 POP SWAP2 SWAP1 POP JUMP JUMPDEST PUSH0 PUSH2 0x94E PUSH2 0x949 PUSH2 0x944 DUP5 PUSH2 0x922 JUMP JUMPDEST PUSH2 0x92B JUMP JUMPDEST PUSH2 0x922 JUMP JUMPDEST SWAP1 POP SWAP2 SWAP1 POP JUMP JUMPDEST PUSH0 DUP2 SWAP1 POP SWAP2 SWAP1 POP JUMP JUMPDEST PUSH2 0x967 DUP4 PUSH2 0x934 JUMP JUMPDEST PUSH2 0x97B PUSH2 0x973 DUP3 PUSH2 0x955 JUMP JUMPDEST DUP5 DUP5 SLOAD PUSH2 0x8D1 JUMP JUMPDEST DUP3 SSTORE POP POP POP POP JUMP JUMPDEST PUSH0 SWAP1 JUMP JUMPDEST PUSH2 0x98F PUSH2 0x983 JUMP JUMPDEST PUSH2 0x99A DUP2 DUP5 DUP5 PUSH2 0x95E JUMP JUMPDEST POP POP POP JUMP JUMPDEST JUMPDEST DUP2 DUP2 LT ISZERO PUSH2 0x9BD JUMPI PUSH2 0x9B2 PUSH0 DUP3 PUSH2 0x987 JUMP JUMPDEST PUSH1 0x1 DUP2 ADD SWAP1 POP PUSH2 0x9A0 JUMP JUMPDEST POP POP JUMP JUMPDEST PUSH1 0x1F DUP3 GT ISZERO PUSH2 0xA02 JUMPI PUSH2 0x9D3 DUP2 PUSH2 0x8A4 JUMP JUMPDEST PUSH2 0x9DC DUP5 PUSH2 0x8B6 JUMP JUMPDEST DUP2 ADD PUSH1 0x20 DUP6 LT ISZERO PUSH2 0x9EB JUMPI DUP2 SWAP1 POP JUMPDEST PUSH2 0x9FF PUSH2 0x9F7 DUP6 PUSH2 0x8B6 JUMP JUMPDEST DUP4 ADD DUP3 PUSH2 0x99F JUMP JUMPDEST POP POP JUMPDEST POP POP POP JUMP JUMPDEST PUSH0 DUP3 DUP3 SHR SWAP1 POP SWAP3 SWAP2 POP POP JUMP JUMPDEST PUSH0 PUSH2 0xA22 PUSH0 NOT DUP5 PUSH1 0x8 MUL PUSH2 0xA07 JUMP JUMPDEST NOT DUP1 DUP4 AND SWAP2 POP POP SWAP3 SWAP2 POP POP JUMP JUMPDEST PUSH0 PUSH2 0xA3A DUP4 DUP4 PUSH2 0xA13 JUMP JUMPDEST SWAP2 POP DUP3 PUSH1 0x2 MUL DUP3 OR SWAP1 POP SWAP3 SWAP2 POP POP JUMP JUMPDEST PUSH2 0xA53 DUP3 PUSH2 0x6D8 JUMP JUMPDEST PUSH8 0xFFFFFFFFFFFFFFFF DUP2 GT ISZERO PUSH2 0xA6C JUMPI PUSH2 0xA6B PUSH2 0x81A JUMP JUMPDEST JUMPDEST PUSH2 0xA76 DUP3 SLOAD PUSH2 0x874 JUMP JUMPDEST PUSH2 0xA81 DUP3 DUP3 DUP6 PUSH2 0x9C1 JUMP JUMPDEST PUSH0 PUSH1 0x20 SWAP1 POP PUSH1 0x1F DUP4 GT PUSH1 0x1 DUP2 EQ PUSH2 0xAB2 JUMPI PUSH0 DUP5 ISZERO PUSH2 0xAA0 JUMPI DUP3 DUP8 ADD MLOAD SWAP1 POP JUMPDEST PUSH2 0xAAA DUP6 DUP3 PUSH2 0xA2F JUMP JUMPDEST DUP7 SSTORE POP PUSH2 0xB11 JUMP JUMPDEST PUSH1 0x1F NOT DUP5 AND PUSH2 0xAC0 DUP7 PUSH2 0x8A4 JUMP JUMPDEST PUSH0 JUMPDEST DUP3 DUP2 LT ISZERO PUSH2 0xAE7 JUMPI DUP5 DUP10 ADD MLOAD DUP3 SSTORE PUSH1 0x1 DUP3 ADD SWAP2 POP PUSH1 0x20 DUP6 ADD SWAP5 POP PUSH1 0x20 DUP2 ADD SWAP1 POP PUSH2 0xAC2 JUMP JUMPDEST DUP7 DUP4 LT ISZERO PUSH2 0xB04 JUMPI DUP5 DUP10 ADD MLOAD PUSH2 0xB00 PUSH1 0x1F DUP10 AND DUP3 PUSH2 0xA13 JUMP JUMPDEST DUP4 SSTORE POP JUMPDEST PUSH1 0x1 PUSH1 0x2 DUP9 MUL ADD DUP9 SSTORE POP POP POP JUMPDEST POP POP POP POP POP POP JUMP JUMPDEST PUSH0 PUSH2 0xB23 DUP3 PUSH2 0x621 JUMP JUMPDEST SWAP2 POP PUSH2 0xB2E DUP4 PUSH2 0x621 JUMP JUMPDEST SWAP3 POP DUP3 DUP3 MUL PUSH2 0xB3C DUP2 PUSH2 0x621 JUMP JUMPDEST SWAP2 POP DUP1 DUP3 EQ PUSH2 0xB4E JUMPI PUSH2 0xB4D PUSH2 0x792 JUMP JUMPDEST JUMPDEST POP SWAP3 SWAP2 POP POP JUMP JUMPDEST PUSH0 PUSH2 0xB5F DUP3 PUSH2 0x621 JUMP JUMPDEST SWAP2 POP PUSH2 0xB6A DUP4 PUSH2 0x621 JUMP JUMPDEST SWAP3 POP DUP3 DUP3 SUB SWAP1 POP PUSH4 0x7FFFFFFF DUP2 SGT PUSH32 0xFFFFFFFFFFFFFFFFFFFFFFFFFFFFFFFFFFFFFFFFFFFFFFFFFFFFFFFF80000000 DUP3 SLT OR ISZERO PUSH2 0xBAA JUMPI PUSH2 0xBA9 PUSH2 0x792 JUMP JUMPDEST JUMPDEST SWAP3 SWAP2 POP POP JUMP JUMPDEST PUSH32 0x63616E206E6F7420646976696465206279207A65726F00000000000000000000 PUSH0 DUP3 ADD MSTORE POP JUMP JUMPDEST PUSH0 PUSH2 0xBE4 PUSH1 0x16 DUP4 PUSH2 0x6E2 JUMP JUMPDEST SWAP2 POP PUSH2 0xBEF DUP3 PUSH2 0xBB0 JUMP JUMPDEST PUSH1 0x20 DUP3 ADD SWAP1 POP SWAP2 SWAP1 POP JUMP JUMPDEST PUSH0 PUSH1 0x20 DUP3 ADD SWAP1 POP DUP2 DUP2 SUB PUSH0 DUP4 ADD MSTORE PUSH2 0xC11 DUP2 PUSH2 0xBD8 JUMP JUMPDEST SWAP1 POP SWAP2 SWAP1 POP JUMP JUMPDEST PUSH32 0x4E487B7100000000000000000000000000000000000000000000000000000000 PUSH0 MSTORE PUSH1 0x12 PUSH1 0x4 MSTORE PUSH1 0x24 PUSH0 REVERT JUMPDEST PUSH0 PUSH2 0xC4F DUP3 PUSH2 0x621 JUMP JUMPDEST SWAP2 POP PUSH2 0xC5A DUP4 PUSH2 0x621 JUMP JUMPDEST SWAP3 POP DUP3 PUSH2 0xC6A JUMPI PUSH2 0xC69 PUSH2 0xC18 JUMP JUMPDEST JUMPDEST PUSH1 0x1 PUSH0 SUB DUP4 EQ PUSH32 0xFFFFFFFFFFFFFFFFFFFFFFFFFFFFFFFFFFFFFFFFFFFFFFFFFFFFFFFF80000000 DUP4 EQ AND ISZERO PUSH2 0xCA2 JUMPI PUSH2 0xCA1 PUSH2 0x792 JUMP JUMPDEST JUMPDEST DUP3 DUP3 SDIV SWAP1 POP SWAP3 SWAP2 POP POP JUMP INVALID LOG2 PUSH5 0x6970667358 0x22 SLT KECCAK256 PUSH15 0xB0F6304BE6325917908725F3974493 0xB1 PUSH27 0x6EE174F50F3043D467813A51DA9264736F6C634300081A00330000 "
				},
				"gasEstimates": {
					"creation": {
						"codeDepositCost": "659800",
						"executionCost": "694",
						"totalCost": "660494"
					},
					"external": {
						"division(int32,int32)": "infinite",
						"getLastOperation()": "infinite",
						"multiplication(int32,int32)": "infinite",
						"substraction(int32,int32)": "infinite",
						"summa(int32,int32)": "infinite"
					}
				},
				"methodIdentifiers": {
					"division(int32,int32)": "ea4bc64e",
					"getLastOperation()": "e8e34b57",
					"multiplication(int32,int32)": "a57d1733",
					"substraction(int32,int32)": "c9fbf851",
					"summa(int32,int32)": "5e1b64ed"
				}
			},
			"storageLayout": {
				"storage": [
					{
						"astId": 3,
						"contract": "code5_5.sol:calculator",
						"label": "num1",
						"offset": 0,
						"slot": "0",
						"type": "t_int32"
					},
					{
						"astId": 5,
						"contract": "code5_5.sol:calculator",
						"label": "num2",
						"offset": 4,
						"slot": "0",
						"type": "t_int32"
					},
					{
						"astId": 7,
						"contract": "code5_5.sol:calculator",
						"label": "result",
						"offset": 8,
						"slot": "0",
						"type": "t_int64"
					},
					{
						"astId": 9,
						"contract": "code5_5.sol:calculator",
						"label": "operation",
						"offset": 0,
						"slot": "1",
						"type": "t_string_storage"
					}
				],
				"types": {
					"t_int32": {
						"encoding": "inplace",
						"label": "int32",
						"numberOfBytes": "4"
					},
					"t_int64": {
						"encoding": "inplace",
						"label": "int64",
						"numberOfBytes": "8"
					},
					"t_string_storage": {
						"encoding": "bytes",
						"label": "string",
						"numberOfBytes": "32"
					}
				}
			},
			"userdoc": {
				"kind": "user",
				"methods": {},
				"version": 1
			}
		}
	}
}