{
	"example5_task2.sol": {
		"TwoNumbersContract": {
			"abi": [
				{
					"inputs": [],
					"name": "getNumber16",
					"outputs": [
						{
							"internalType": "int16",
							"name": "",
							"type": "int16"
						}
					],
					"stateMutability": "view",
					"type": "function"
				},
				{
					"inputs": [],
					"name": "getNumber256",
					"outputs": [
						{
							"internalType": "int256",
							"name": "",
							"type": "int256"
						}
					],
					"stateMutability": "view",
					"type": "function"
				},
				{
					"inputs": [],
					"name": "getSum",
					"outputs": [
						{
							"internalType": "int256",
							"name": "",
							"type": "int256"
						}
					],
					"stateMutability": "view",
					"type": "function"
				},
				{
					"inputs": [],
					"name": "number16",
					"outputs": [
						{
							"internalType": "int16",
							"name": "",
							"type": "int16"
						}
					],
					"stateMutability": "view",
					"type": "function"
				},
				{
					"inputs": [],
					"name": "number256",
					"outputs": [
						{
							"internalType": "int256",
							"name": "",
							"type": "int256"
						}
					],
					"stateMutability": "view",
					"type": "function"
				},
				{
					"inputs": [
						{
							"internalType": "int16",
							"name": "_number16",
							"type": "int16"
						}
					],
					"name": "setNumber16",
					"outputs": [],
					"stateMutability": "nonpayable",
					"type": "function"
				},
				{
					"inputs": [
						{
							"internalType": "int256",
							"name": "_number256",
							"type": "int256"
						}
					],
					"name": "setNumber256",
					"outputs": [],
					"stateMutability": "nonpayable",
					"type": "function"
				}
			],
			"devdoc": {
				"kind": "dev",
				"methods": {},
				"version": 1
			},
			"evm": {
				"assembly": "    /* \"example5_task2.sol\":27:811  contract TwoNumbersContract {... */\n  mstore(0x40, 0x80)\n  callvalue\n  dup1\n  iszero\n  tag_1\n  jumpi\n  0x00\n  dup1\n  revert\ntag_1:\n  pop\n  dataSize(sub_0)\n  dup1\n  dataOffset(sub_0)\n  0x00\n  codecopy\n  0x00\n  return\nstop\n\nsub_0: assembly {\n        /* \"example5_task2.sol\":27:811  contract TwoNumbersContract {... */\n      mstore(0x40, 0x80)\n      callvalue\n      dup1\n      iszero\n      tag_1\n      jumpi\n      0x00\n      dup1\n      revert\n    tag_1:\n      pop\n      jumpi(tag_2, lt(calldatasize, 0x04))\n      shr(0xe0, calldataload(0x00))\n      dup1\n      0x7ebf101d\n      gt\n      tag_10\n      jumpi\n      dup1\n      0x7ebf101d\n      eq\n      tag_6\n      jumpi\n      dup1\n      0x96913ff5\n      eq\n      tag_7\n      jumpi\n      dup1\n      0xa68e036c\n      eq\n      tag_8\n      jumpi\n      dup1\n      0xc9e26b01\n      eq\n      tag_9\n      jumpi\n      jump(tag_2)\n    tag_10:\n      dup1\n      0x2339c3e6\n      eq\n      tag_3\n      jumpi\n      dup1\n      0x569c5f6d\n      eq\n      tag_4\n      jumpi\n      dup1\n      0x5e4bc50a\n      eq\n      tag_5\n      jumpi\n    tag_2:\n      0x00\n      dup1\n      revert\n        /* \"example5_task2.sol\":558:646  function getNumber256() public view returns (int256) {... */\n    tag_3:\n      tag_11\n      tag_12\n      jump\t// in\n    tag_11:\n      mload(0x40)\n      tag_13\n      swap2\n      swap1\n      tag_14\n      jump\t// in\n    tag_13:\n      mload(0x40)\n      dup1\n      swap2\n      sub\n      swap1\n      return\n        /* \"example5_task2.sol\":715:808  function getSum() public view returns (int256) {... */\n    tag_4:\n      tag_15\n      tag_16\n      jump\t// in\n    tag_15:\n      mload(0x40)\n      tag_17\n      swap2\n      swap1\n      tag_14\n      jump\t// in\n    tag_17:\n      mload(0x40)\n      dup1\n      swap2\n      sub\n      swap1\n      return\n        /* \"example5_task2.sol\":428:513  function getNumber16() public view returns (int16) {... */\n    tag_5:\n      tag_18\n      tag_19\n      jump\t// in\n    tag_18:\n      mload(0x40)\n      tag_20\n      swap2\n      swap1\n      tag_21\n      jump\t// in\n    tag_20:\n      mload(0x40)\n      dup1\n      swap2\n      sub\n      swap1\n      return\n        /* \"example5_task2.sol\":295:384  function setNumber256(int256 _number256) public {... */\n    tag_6:\n      tag_22\n      0x04\n      dup1\n      calldatasize\n      sub\n      dup2\n      add\n      swap1\n      tag_23\n      swap2\n      swap1\n      tag_24\n      jump\t// in\n    tag_23:\n      tag_25\n      jump\t// in\n    tag_22:\n      stop\n        /* \"example5_task2.sol\":62:83  int16 public number16 */\n    tag_7:\n      tag_26\n      tag_27\n      jump\t// in\n    tag_26:\n      mload(0x40)\n      tag_28\n      swap2\n      swap1\n      tag_21\n      jump\t// in\n    tag_28:\n      mload(0x40)\n      dup1\n      swap2\n      sub\n      swap1\n      return\n        /* \"example5_task2.sol\":90:113  int256 public number256 */\n    tag_8:\n      tag_29\n      tag_30\n      jump\t// in\n    tag_29:\n      mload(0x40)\n      tag_31\n      swap2\n      swap1\n      tag_14\n      jump\t// in\n    tag_31:\n      mload(0x40)\n      dup1\n      swap2\n      sub\n      swap1\n      return\n        /* \"example5_task2.sol\":162:246  function setNumber16(int16 _number16) public {... */\n    tag_9:\n      tag_32\n      0x04\n      dup1\n      calldatasize\n      sub\n      dup2\n      add\n      swap1\n      tag_33\n      swap2\n      swap1\n      tag_34\n      jump\t// in\n    tag_33:\n      tag_35\n      jump\t// in\n    tag_32:\n      stop\n        /* \"example5_task2.sol\":558:646  function getNumber256() public view returns (int256) {... */\n    tag_12:\n        /* \"example5_task2.sol\":603:609  int256 */\n      0x00\n        /* \"example5_task2.sol\":629:638  number256 */\n      sload(0x01)\n        /* \"example5_task2.sol\":622:638  return number256 */\n      swap1\n      pop\n        /* \"example5_task2.sol\":558:646  function getNumber256() public view returns (int256) {... */\n      swap1\n      jump\t// out\n        /* \"example5_task2.sol\":715:808  function getSum() public view returns (int256) {... */\n    tag_16:\n        /* \"example5_task2.sol\":754:760  int256 */\n      0x00\n        /* \"example5_task2.sol\":791:800  number256 */\n      sload(0x01)\n        /* \"example5_task2.sol\":780:788  number16 */\n      0x00\n      dup1\n      sload\n      swap1\n      0x0100\n      exp\n      swap1\n      div\n      0x01\n      signextend\n        /* \"example5_task2.sol\":780:800  number16 + number256 */\n      0x01\n      signextend\n      tag_38\n      swap2\n      swap1\n      tag_39\n      jump\t// in\n    tag_38:\n        /* \"example5_task2.sol\":773:800  return number16 + number256 */\n      swap1\n      pop\n        /* \"example5_task2.sol\":715:808  function getSum() public view returns (int256) {... */\n      swap1\n      jump\t// out\n        /* \"example5_task2.sol\":428:513  function getNumber16() public view returns (int16) {... */\n    tag_19:\n        /* \"example5_task2.sol\":472:477  int16 */\n      0x00\n        /* \"example5_task2.sol\":497:505  number16 */\n      dup1\n      0x00\n      swap1\n      sload\n      swap1\n      0x0100\n      exp\n      swap1\n      div\n      0x01\n      signextend\n        /* \"example5_task2.sol\":490:505  return number16 */\n      swap1\n      pop\n        /* \"example5_task2.sol\":428:513  function getNumber16() public view returns (int16) {... */\n      swap1\n      jump\t// out\n        /* \"example5_task2.sol\":295:384  function setNumber256(int256 _number256) public {... */\n    tag_25:\n        /* \"example5_task2.sol\":366:376  _number256 */\n      dup1\n        /* \"example5_task2.sol\":354:363  number256 */\n      0x01\n        /* \"example5_task2.sol\":354:376  number256 = _number256 */\n      dup2\n      swap1\n      sstore\n      pop\n        /* \"example5_task2.sol\":295:384  function setNumber256(int256 _number256) public {... */\n      pop\n      jump\t// out\n        /* \"example5_task2.sol\":62:83  int16 public number16 */\n    tag_27:\n      0x00\n      dup1\n      sload\n      swap1\n      0x0100\n      exp\n      swap1\n      div\n      0x01\n      signextend\n      dup2\n      jump\t// out\n        /* \"example5_task2.sol\":90:113  int256 public number256 */\n    tag_30:\n      sload(0x01)\n      dup2\n      jump\t// out\n        /* \"example5_task2.sol\":162:246  function setNumber16(int16 _number16) public {... */\n    tag_35:\n        /* \"example5_task2.sol\":229:238  _number16 */\n      dup1\n        /* \"example5_task2.sol\":218:226  number16 */\n      0x00\n      dup1\n        /* \"example5_task2.sol\":218:238  number16 = _number16 */\n      0x0100\n      exp\n      dup2\n      sload\n      dup2\n      0xffff\n      mul\n      not\n      and\n      swap1\n      dup4\n      0x01\n      signextend\n      0xffff\n      and\n      mul\n      or\n      swap1\n      sstore\n      pop\n        /* \"example5_task2.sol\":162:246  function setNumber16(int16 _number16) public {... */\n      pop\n      jump\t// out\n        /* \"#utility.yul\":7:83   */\n    tag_43:\n        /* \"#utility.yul\":43:50   */\n      0x00\n        /* \"#utility.yul\":72:77   */\n      dup2\n        /* \"#utility.yul\":61:77   */\n      swap1\n      pop\n        /* \"#utility.yul\":7:83   */\n      swap2\n      swap1\n      pop\n      jump\t// out\n        /* \"#utility.yul\":89:204   */\n    tag_44:\n        /* \"#utility.yul\":174:197   */\n      tag_58\n        /* \"#utility.yul\":191:196   */\n      dup2\n        /* \"#utility.yul\":174:197   */\n      tag_43\n      jump\t// in\n    tag_58:\n        /* \"#utility.yul\":169:172   */\n      dup3\n        /* \"#utility.yul\":162:198   */\n      mstore\n        /* \"#utility.yul\":89:204   */\n      pop\n      pop\n      jump\t// out\n        /* \"#utility.yul\":210:428   */\n    tag_14:\n        /* \"#utility.yul\":301:305   */\n      0x00\n        /* \"#utility.yul\":339:341   */\n      0x20\n        /* \"#utility.yul\":328:337   */\n      dup3\n        /* \"#utility.yul\":324:342   */\n      add\n        /* \"#utility.yul\":316:342   */\n      swap1\n      pop\n        /* \"#utility.yul\":352:421   */\n      tag_60\n        /* \"#utility.yul\":418:419   */\n      0x00\n        /* \"#utility.yul\":407:416   */\n      dup4\n        /* \"#utility.yul\":403:420   */\n      add\n        /* \"#utility.yul\":394:400   */\n      dup5\n        /* \"#utility.yul\":352:421   */\n      tag_44\n      jump\t// in\n    tag_60:\n        /* \"#utility.yul\":210:428   */\n      swap3\n      swap2\n      pop\n      pop\n      jump\t// out\n        /* \"#utility.yul\":434:524   */\n    tag_45:\n        /* \"#utility.yul\":469:476   */\n      0x00\n        /* \"#utility.yul\":512:517   */\n      dup2\n        /* \"#utility.yul\":509:510   */\n      0x01\n        /* \"#utility.yul\":498:518   */\n      signextend\n        /* \"#utility.yul\":487:518   */\n      swap1\n      pop\n        /* \"#utility.yul\":434:524   */\n      swap2\n      swap1\n      pop\n      jump\t// out\n        /* \"#utility.yul\":530:642   */\n    tag_46:\n        /* \"#utility.yul\":613:635   */\n      tag_63\n        /* \"#utility.yul\":629:634   */\n      dup2\n        /* \"#utility.yul\":613:635   */\n      tag_45\n      jump\t// in\n    tag_63:\n        /* \"#utility.yul\":608:611   */\n      dup3\n        /* \"#utility.yul\":601:636   */\n      mstore\n        /* \"#utility.yul\":530:642   */\n      pop\n      pop\n      jump\t// out\n        /* \"#utility.yul\":648:862   */\n    tag_21:\n        /* \"#utility.yul\":737:741   */\n      0x00\n        /* \"#utility.yul\":775:777   */\n      0x20\n        /* \"#utility.yul\":764:773   */\n      dup3\n        /* \"#utility.yul\":760:778   */\n      add\n        /* \"#utility.yul\":752:778   */\n      swap1\n      pop\n        /* \"#utility.yul\":788:855   */\n      tag_65\n        /* \"#utility.yul\":852:853   */\n      0x00\n        /* \"#utility.yul\":841:850   */\n      dup4\n        /* \"#utility.yul\":837:854   */\n      add\n        /* \"#utility.yul\":828:834   */\n      dup5\n        /* \"#utility.yul\":788:855   */\n      tag_46\n      jump\t// in\n    tag_65:\n        /* \"#utility.yul\":648:862   */\n      swap3\n      swap2\n      pop\n      pop\n      jump\t// out\n        /* \"#utility.yul\":949:1066   */\n    tag_48:\n        /* \"#utility.yul\":1058:1059   */\n      0x00\n        /* \"#utility.yul\":1055:1056   */\n      dup1\n        /* \"#utility.yul\":1048:1060   */\n      revert\n        /* \"#utility.yul\":1195:1315   */\n    tag_50:\n        /* \"#utility.yul\":1267:1290   */\n      tag_70\n        /* \"#utility.yul\":1284:1289   */\n      dup2\n        /* \"#utility.yul\":1267:1290   */\n      tag_43\n      jump\t// in\n    tag_70:\n        /* \"#utility.yul\":1260:1265   */\n      dup2\n        /* \"#utility.yul\":1257:1291   */\n      eq\n        /* \"#utility.yul\":1247:1309   */\n      tag_71\n      jumpi\n        /* \"#utility.yul\":1305:1306   */\n      0x00\n        /* \"#utility.yul\":1302:1303   */\n      dup1\n        /* \"#utility.yul\":1295:1307   */\n      revert\n        /* \"#utility.yul\":1247:1309   */\n    tag_71:\n        /* \"#utility.yul\":1195:1315   */\n      pop\n      jump\t// out\n        /* \"#utility.yul\":1321:1458   */\n    tag_51:\n        /* \"#utility.yul\":1366:1371   */\n      0x00\n        /* \"#utility.yul\":1404:1410   */\n      dup2\n        /* \"#utility.yul\":1391:1411   */\n      calldataload\n        /* \"#utility.yul\":1382:1411   */\n      swap1\n      pop\n        /* \"#utility.yul\":1420:1452   */\n      tag_73\n        /* \"#utility.yul\":1446:1451   */\n      dup2\n        /* \"#utility.yul\":1420:1452   */\n      tag_50\n      jump\t// in\n    tag_73:\n        /* \"#utility.yul\":1321:1458   */\n      swap3\n      swap2\n      pop\n      pop\n      jump\t// out\n        /* \"#utility.yul\":1464:1791   */\n    tag_24:\n        /* \"#utility.yul\":1522:1528   */\n      0x00\n        /* \"#utility.yul\":1571:1573   */\n      0x20\n        /* \"#utility.yul\":1559:1568   */\n      dup3\n        /* \"#utility.yul\":1550:1557   */\n      dup5\n        /* \"#utility.yul\":1546:1569   */\n      sub\n        /* \"#utility.yul\":1542:1574   */\n      slt\n        /* \"#utility.yul\":1539:1658   */\n      iszero\n      tag_75\n      jumpi\n        /* \"#utility.yul\":1577:1656   */\n      tag_76\n      tag_48\n      jump\t// in\n    tag_76:\n        /* \"#utility.yul\":1539:1658   */\n    tag_75:\n        /* \"#utility.yul\":1697:1698   */\n      0x00\n        /* \"#utility.yul\":1722:1774   */\n      tag_77\n        /* \"#utility.yul\":1766:1773   */\n      dup5\n        /* \"#utility.yul\":1757:1763   */\n      dup3\n        /* \"#utility.yul\":1746:1755   */\n      dup6\n        /* \"#utility.yul\":1742:1764   */\n      add\n        /* \"#utility.yul\":1722:1774   */\n      tag_51\n      jump\t// in\n    tag_77:\n        /* \"#utility.yul\":1712:1774   */\n      swap2\n      pop\n        /* \"#utility.yul\":1668:1784   */\n      pop\n        /* \"#utility.yul\":1464:1791   */\n      swap3\n      swap2\n      pop\n      pop\n      jump\t// out\n        /* \"#utility.yul\":1797:1915   */\n    tag_52:\n        /* \"#utility.yul\":1868:1890   */\n      tag_79\n        /* \"#utility.yul\":1884:1889   */\n      dup2\n        /* \"#utility.yul\":1868:1890   */\n      tag_45\n      jump\t// in\n    tag_79:\n        /* \"#utility.yul\":1861:1866   */\n      dup2\n        /* \"#utility.yul\":1858:1891   */\n      eq\n        /* \"#utility.yul\":1848:1909   */\n      tag_80\n      jumpi\n        /* \"#utility.yul\":1905:1906   */\n      0x00\n        /* \"#utility.yul\":1902:1903   */\n      dup1\n        /* \"#utility.yul\":1895:1907   */\n      revert\n        /* \"#utility.yul\":1848:1909   */\n    tag_80:\n        /* \"#utility.yul\":1797:1915   */\n      pop\n      jump\t// out\n        /* \"#utility.yul\":1921:2056   */\n    tag_53:\n        /* \"#utility.yul\":1965:1970   */\n      0x00\n        /* \"#utility.yul\":2003:2009   */\n      dup2\n        /* \"#utility.yul\":1990:2010   */\n      calldataload\n        /* \"#utility.yul\":1981:2010   */\n      swap1\n      pop\n        /* \"#utility.yul\":2019:2050   */\n      tag_82\n        /* \"#utility.yul\":2044:2049   */\n      dup2\n        /* \"#utility.yul\":2019:2050   */\n      tag_52\n      jump\t// in\n    tag_82:\n        /* \"#utility.yul\":1921:2056   */\n      swap3\n      swap2\n      pop\n      pop\n      jump\t// out\n        /* \"#utility.yul\":2062:2387   */\n    tag_34:\n        /* \"#utility.yul\":2119:2125   */\n      0x00\n        /* \"#utility.yul\":2168:2170   */\n      0x20\n        /* \"#utility.yul\":2156:2165   */\n      dup3\n        /* \"#utility.yul\":2147:2154   */\n      dup5\n        /* \"#utility.yul\":2143:2166   */\n      sub\n        /* \"#utility.yul\":2139:2171   */\n      slt\n        /* \"#utility.yul\":2136:2255   */\n      iszero\n      tag_84\n      jumpi\n        /* \"#utility.yul\":2174:2253   */\n      tag_85\n      tag_48\n      jump\t// in\n    tag_85:\n        /* \"#utility.yul\":2136:2255   */\n    tag_84:\n        /* \"#utility.yul\":2294:2295   */\n      0x00\n        /* \"#utility.yul\":2319:2370   */\n      tag_86\n        /* \"#utility.yul\":2362:2369   */\n      dup5\n        /* \"#utility.yul\":2353:2359   */\n      dup3\n        /* \"#utility.yul\":2342:2351   */\n      dup6\n        /* \"#utility.yul\":2338:2360   */\n      add\n        /* \"#utility.yul\":2319:2370   */\n      tag_53\n      jump\t// in\n    tag_86:\n        /* \"#utility.yul\":2309:2370   */\n      swap2\n      pop\n        /* \"#utility.yul\":2265:2380   */\n      pop\n        /* \"#utility.yul\":2062:2387   */\n      swap3\n      swap2\n      pop\n      pop\n      jump\t// out\n        /* \"#utility.yul\":2393:2573   */\n    tag_54:\n        /* \"#utility.yul\":2441:2518   */\n      0x4e487b7100000000000000000000000000000000000000000000000000000000\n        /* \"#utility.yul\":2438:2439   */\n      0x00\n        /* \"#utility.yul\":2431:2519   */\n      mstore\n        /* \"#utility.yul\":2538:2542   */\n      0x11\n        /* \"#utility.yul\":2535:2536   */\n      0x04\n        /* \"#utility.yul\":2528:2543   */\n      mstore\n        /* \"#utility.yul\":2562:2566   */\n      0x24\n        /* \"#utility.yul\":2559:2560   */\n      0x00\n        /* \"#utility.yul\":2552:2567   */\n      revert\n        /* \"#utility.yul\":2579:2954   */\n    tag_39:\n        /* \"#utility.yul\":2618:2621   */\n      0x00\n        /* \"#utility.yul\":2637:2656   */\n      tag_89\n        /* \"#utility.yul\":2654:2655   */\n      dup3\n        /* \"#utility.yul\":2637:2656   */\n      tag_43\n      jump\t// in\n    tag_89:\n        /* \"#utility.yul\":2632:2656   */\n      swap2\n      pop\n        /* \"#utility.yul\":2670:2689   */\n      tag_90\n        /* \"#utility.yul\":2687:2688   */\n      dup4\n        /* \"#utility.yul\":2670:2689   */\n      tag_43\n      jump\t// in\n    tag_90:\n        /* \"#utility.yul\":2665:2689   */\n      swap3\n      pop\n        /* \"#utility.yul\":2712:2713   */\n      dup3\n        /* \"#utility.yul\":2709:2710   */\n      dup3\n        /* \"#utility.yul\":2705:2714   */\n      add\n        /* \"#utility.yul\":2698:2714   */\n      swap1\n      pop\n        /* \"#utility.yul\":2910:2911   */\n      dup3\n        /* \"#utility.yul\":2905:2908   */\n      dup2\n        /* \"#utility.yul\":2901:2912   */\n      slt\n        /* \"#utility.yul\":2894:2913   */\n      iszero\n        /* \"#utility.yul\":2890:2891   */\n      0x00\n        /* \"#utility.yul\":2887:2888   */\n      dup4\n        /* \"#utility.yul\":2883:2892   */\n      slt\n        /* \"#utility.yul\":2879:2914   */\n      and\n        /* \"#utility.yul\":2862:2863   */\n      dup4\n        /* \"#utility.yul\":2857:2860   */\n      dup3\n        /* \"#utility.yul\":2853:2864   */\n      slt\n        /* \"#utility.yul\":2848:2849   */\n      0x00\n        /* \"#utility.yul\":2845:2846   */\n      dup5\n        /* \"#utility.yul\":2841:2850   */\n      slt\n        /* \"#utility.yul\":2834:2851   */\n      iszero\n        /* \"#utility.yul\":2830:2865   */\n      and\n        /* \"#utility.yul\":2814:2924   */\n      or\n        /* \"#utility.yul\":2811:2947   */\n      iszero\n      tag_91\n      jumpi\n        /* \"#utility.yul\":2927:2945   */\n      tag_92\n      tag_54\n      jump\t// in\n    tag_92:\n        /* \"#utility.yul\":2811:2947   */\n    tag_91:\n        /* \"#utility.yul\":2579:2954   */\n      swap3\n      swap2\n      pop\n      pop\n      jump\t// out\n\n    auxdata: 0xa264697066735822122094f44d6614fc2982175a231d6edda72804345fb7cdd8abcfb243c7b9b7eea50964736f6c634300081a0033\n}\n",
				"bytecode": {
					"linkReferences": {},
					"object": "6080604052348015600e575f80fd5b506103858061001c5f395ff3fe608060405234801561000f575f80fd5b506004361061007b575f3560e01c80637ebf101d116100595780637ebf101d146100d957806396913ff5146100f5578063a68e036c14610113578063c9e26b01146101315761007b565b80632339c3e61461007f578063569c5f6d1461009d5780635e4bc50a146100bb575b5f80fd5b61008761014d565b60405161009491906101e6565b60405180910390f35b6100a5610156565b6040516100b291906101e6565b60405180910390f35b6100c3610179565b6040516100d0919061021a565b60405180910390f35b6100f360048036038101906100ee9190610261565b61018d565b005b6100fd610197565b60405161010a919061021a565b60405180910390f35b61011b6101a7565b60405161012891906101e6565b60405180910390f35b61014b600480360381019061014691906102b6565b6101ad565b005b5f600154905090565b5f6001545f8054906101000a900460010b60010b610174919061030e565b905090565b5f805f9054906101000a900460010b905090565b8060018190555050565b5f8054906101000a900460010b81565b60015481565b805f806101000a81548161ffff021916908360010b61ffff16021790555050565b5f819050919050565b6101e0816101ce565b82525050565b5f6020820190506101f95f8301846101d7565b92915050565b5f8160010b9050919050565b610214816101ff565b82525050565b5f60208201905061022d5f83018461020b565b92915050565b5f80fd5b610240816101ce565b811461024a575f80fd5b50565b5f8135905061025b81610237565b92915050565b5f6020828403121561027657610275610233565b5b5f6102838482850161024d565b91505092915050565b610295816101ff565b811461029f575f80fd5b50565b5f813590506102b08161028c565b92915050565b5f602082840312156102cb576102ca610233565b5b5f6102d8848285016102a2565b91505092915050565b7f4e487b71000000000000000000000000000000000000000000000000000000005f52601160045260245ffd5b5f610318826101ce565b9150610323836101ce565b92508282019050828112155f8312168382125f841215161715610349576103486102e1565b5b9291505056fea264697066735822122094f44d6614fc2982175a231d6edda72804345fb7cdd8abcfb243c7b9b7eea50964736f6c634300081a0033",
					"opcodes": "PUSH1 0x80 PUSH1 0x40 MSTORE CALLVALUE DUP1 ISZERO PUSH1 0xE JUMPI PUSH0 DUP1 REVERT JUMPDEST POP PUSH2 0x385 DUP1 PUSH2 0x1C PUSH0 CODECOPY PUSH0 RETURN INVALID PUSH1 0x80 PUSH1 0x40 MSTORE CALLVALUE DUP1 ISZERO PUSH2 0xF JUMPI PUSH0 DUP1 REVERT JUMPDEST POP PUSH1 0x4 CALLDATASIZE LT PUSH2 0x7B JUMPI PUSH0 CALLDATALOAD PUSH1 0xE0 SHR DUP1 PUSH4 0x7EBF101D GT PUSH2 0x59 JUMPI DUP1 PUSH4 0x7EBF101D EQ PUSH2 0xD9 JUMPI DUP1 PUSH4 0x96913FF5 EQ PUSH2 0xF5 JUMPI DUP1 PUSH4 0xA68E036C EQ PUSH2 0x113 JUMPI DUP1 PUSH4 0xC9E26B01 EQ PUSH2 0x131 JUMPI PUSH2 0x7B JUMP JUMPDEST DUP1 PUSH4 0x2339C3E6 EQ PUSH2 0x7F JUMPI DUP1 PUSH4 0x569C5F6D EQ PUSH2 0x9D JUMPI DUP1 PUSH4 0x5E4BC50A EQ PUSH2 0xBB JUMPI JUMPDEST PUSH0 DUP1 REVERT JUMPDEST PUSH2 0x87 PUSH2 0x14D JUMP JUMPDEST PUSH1 0x40 MLOAD PUSH2 0x94 SWAP2 SWAP1 PUSH2 0x1E6 JUMP JUMPDEST PUSH1 0x40 MLOAD DUP1 SWAP2 SUB SWAP1 RETURN JUMPDEST PUSH2 0xA5 PUSH2 0x156 JUMP JUMPDEST PUSH1 0x40 MLOAD PUSH2 0xB2 SWAP2 SWAP1 PUSH2 0x1E6 JUMP JUMPDEST PUSH1 0x40 MLOAD DUP1 SWAP2 SUB SWAP1 RETURN JUMPDEST PUSH2 0xC3 PUSH2 0x179 JUMP JUMPDEST PUSH1 0x40 MLOAD PUSH2 0xD0 SWAP2 SWAP1 PUSH2 0x21A JUMP JUMPDEST PUSH1 0x40 MLOAD DUP1 SWAP2 SUB SWAP1 RETURN JUMPDEST PUSH2 0xF3 PUSH1 0x4 DUP1 CALLDATASIZE SUB DUP2 ADD SWAP1 PUSH2 0xEE SWAP2 SWAP1 PUSH2 0x261 JUMP JUMPDEST PUSH2 0x18D JUMP JUMPDEST STOP JUMPDEST PUSH2 0xFD PUSH2 0x197 JUMP JUMPDEST PUSH1 0x40 MLOAD PUSH2 0x10A SWAP2 SWAP1 PUSH2 0x21A JUMP JUMPDEST PUSH1 0x40 MLOAD DUP1 SWAP2 SUB SWAP1 RETURN JUMPDEST PUSH2 0x11B PUSH2 0x1A7 JUMP JUMPDEST PUSH1 0x40 MLOAD PUSH2 0x128 SWAP2 SWAP1 PUSH2 0x1E6 JUMP JUMPDEST PUSH1 0x40 MLOAD DUP1 SWAP2 SUB SWAP1 RETURN JUMPDEST PUSH2 0x14B PUSH1 0x4 DUP1 CALLDATASIZE SUB DUP2 ADD SWAP1 PUSH2 0x146 SWAP2 SWAP1 PUSH2 0x2B6 JUMP JUMPDEST PUSH2 0x1AD JUMP JUMPDEST STOP JUMPDEST PUSH0 PUSH1 0x1 SLOAD SWAP1 POP SWAP1 JUMP JUMPDEST PUSH0 PUSH1 0x1 SLOAD PUSH0 DUP1 SLOAD SWAP1 PUSH2 0x100 EXP SWAP1 DIV PUSH1 0x1 SIGNEXTEND PUSH1 0x1 SIGNEXTEND PUSH2 0x174 SWAP2 SWAP1 PUSH2 0x30E JUMP JUMPDEST SWAP1 POP SWAP1 JUMP JUMPDEST PUSH0 DUP1 PUSH0 SWAP1 SLOAD SWAP1 PUSH2 0x100 EXP SWAP1 DIV PUSH1 0x1 SIGNEXTEND SWAP1 POP SWAP1 JUMP JUMPDEST DUP1 PUSH1 0x1 DUP2 SWAP1 SSTORE POP POP JUMP JUMPDEST PUSH0 DUP1 SLOAD SWAP1 PUSH2 0x100 EXP SWAP1 DIV PUSH1 0x1 SIGNEXTEND DUP2 JUMP JUMPDEST PUSH1 0x1 SLOAD DUP2 JUMP JUMPDEST DUP1 PUSH0 DUP1 PUSH2 0x100 EXP DUP2 SLOAD DUP2 PUSH2 0xFFFF MUL NOT AND SWAP1 DUP4 PUSH1 0x1 SIGNEXTEND PUSH2 0xFFFF AND MUL OR SWAP1 SSTORE POP POP JUMP JUMPDEST PUSH0 DUP2 SWAP1 POP SWAP2 SWAP1 POP JUMP JUMPDEST PUSH2 0x1E0 DUP2 PUSH2 0x1CE JUMP JUMPDEST DUP3 MSTORE POP POP JUMP JUMPDEST PUSH0 PUSH1 0x20 DUP3 ADD SWAP1 POP PUSH2 0x1F9 PUSH0 DUP4 ADD DUP5 PUSH2 0x1D7 JUMP JUMPDEST SWAP3 SWAP2 POP POP JUMP JUMPDEST PUSH0 DUP2 PUSH1 0x1 SIGNEXTEND SWAP1 POP SWAP2 SWAP1 POP JUMP JUMPDEST PUSH2 0x214 DUP2 PUSH2 0x1FF JUMP JUMPDEST DUP3 MSTORE POP POP JUMP JUMPDEST PUSH0 PUSH1 0x20 DUP3 ADD SWAP1 POP PUSH2 0x22D PUSH0 DUP4 ADD DUP5 PUSH2 0x20B JUMP JUMPDEST SWAP3 SWAP2 POP POP JUMP JUMPDEST PUSH0 DUP1 REVERT JUMPDEST PUSH2 0x240 DUP2 PUSH2 0x1CE JUMP JUMPDEST DUP2 EQ PUSH2 0x24A JUMPI PUSH0 DUP1 REVERT JUMPDEST POP JUMP JUMPDEST PUSH0 DUP2 CALLDATALOAD SWAP1 POP PUSH2 0x25B DUP2 PUSH2 0x237 JUMP JUMPDEST SWAP3 SWAP2 POP POP JUMP JUMPDEST PUSH0 PUSH1 0x20 DUP3 DUP5 SUB SLT ISZERO PUSH2 0x276 JUMPI PUSH2 0x275 PUSH2 0x233 JUMP JUMPDEST JUMPDEST PUSH0 PUSH2 0x283 DUP5 DUP3 DUP6 ADD PUSH2 0x24D JUMP JUMPDEST SWAP2 POP POP SWAP3 SWAP2 POP POP JUMP JUMPDEST PUSH2 0x295 DUP2 PUSH2 0x1FF JUMP JUMPDEST DUP2 EQ PUSH2 0x29F JUMPI PUSH0 DUP1 REVERT JUMPDEST POP JUMP JUMPDEST PUSH0 DUP2 CALLDATALOAD SWAP1 POP PUSH2 0x2B0 DUP2 PUSH2 0x28C JUMP JUMPDEST SWAP3 SWAP2 POP POP JUMP JUMPDEST PUSH0 PUSH1 0x20 DUP3 DUP5 SUB SLT ISZERO PUSH2 0x2CB JUMPI PUSH2 0x2CA PUSH2 0x233 JUMP JUMPDEST JUMPDEST PUSH0 PUSH2 0x2D8 DUP5 DUP3 DUP6 ADD PUSH2 0x2A2 JUMP JUMPDEST SWAP2 POP POP SWAP3 SWAP2 POP POP JUMP JUMPDEST PUSH32 0x4E487B7100000000000000000000000000000000000000000000000000000000 PUSH0 MSTORE PUSH1 0x11 PUSH1 0x4 MSTORE PUSH1 0x24 PUSH0 REVERT JUMPDEST PUSH0 PUSH2 0x318 DUP3 PUSH2 0x1CE JUMP JUMPDEST SWAP2 POP PUSH2 0x323 DUP4 PUSH2 0x1CE JUMP JUMPDEST SWAP3 POP DUP3 DUP3 ADD SWAP1 POP DUP3 DUP2 SLT ISZERO PUSH0 DUP4 SLT AND DUP4 DUP3 SLT PUSH0 DUP5 SLT ISZERO AND OR ISZERO PUSH2 0x349 JUMPI PUSH2 0x348 PUSH2 0x2E1 JUMP JUMPDEST JUMPDEST SWAP3 SWAP2 POP POP JUMP INVALID LOG2 PUSH5 0x6970667358 0x22 SLT KECCAK256 SWAP5 DELEGATECALL 0x4D PUSH7 0x14FC2982175A23 SAR PUSH15 0xDDA72804345FB7CDD8ABCFB243C7B9 0xB7 0xEE 0xA5 MULMOD PUSH5 0x736F6C6343 STOP ADDMOD BYTE STOP CALLER "
				},
				"gasEstimates": {
					"creation": {
						"codeDepositCost": "180200",
						"executionCost": "224",
						"totalCost": "180424"
					},
					"external": {
						"getNumber16()": "2522",
						"getNumber256()": "2433",
						"getSum()": "infinite",
						"number16()": "2489",
						"number256()": "2469",
						"setNumber16(int16)": "24749",
						"setNumber256(int256)": "22515"
					}
				},
				"methodIdentifiers": {
					"getNumber16()": "5e4bc50a",
					"getNumber256()": "2339c3e6",
					"getSum()": "569c5f6d",
					"number16()": "96913ff5",
					"number256()": "a68e036c",
					"setNumber16(int16)": "c9e26b01",
					"setNumber256(int256)": "7ebf101d"
				}
			},
			"storageLayout": {
				"storage": [
					{
						"astId": 3,
						"contract": "example5_task2.sol:TwoNumbersContract",
						"label": "number16",
						"offset": 0,
						"slot": "0",
						"type": "t_int16"
					},
					{
						"astId": 5,
						"contract": "example5_task2.sol:TwoNumbersContract",
						"label": "number256",
						"offset": 0,
						"slot": "1",
						"type": "t_int256"
					}
				],
				"types": {
					"t_int16": {
						"encoding": "inplace",
						"label": "int16",
						"numberOfBytes": "2"
					},
					"t_int256": {
						"encoding": "inplace",
						"label": "int256",
						"numberOfBytes": "32"
					}
				}
			},
			"userdoc": {
				"kind": "user",
				"methods": {},
				"version": 1
			}
		}
	}
}