{
	"data": {
		"bytecode": {
			"linkReferences": {},
			"object": "6080604052348015600e575f80fd5b506106578061001c5f395ff3fe608060405234801561000f575f80fd5b506004361061007b575f3560e01c80634f5d8104116100595780634f5d8104146100e957806362f6361214610119578063839ad59514610149578063b2f1669d146101795761007b565b80631679e1491461007f57806331906273146100af5780633fa4f245146100cb575b5f80fd5b6100996004803603810190610094919061035a565b6101a9565b6040516100a69190610394565b60405180910390f35b6100c960048036038101906100c4919061035a565b6101c9565b005b6100d3610206565b6040516100e09190610394565b60405180910390f35b61010360048036038101906100fe919061035a565b610216565b6040516101109190610394565b60405180910390f35b610133600480360381019061012e919061035a565b610236565b6040516101409190610394565b60405180910390f35b610163600480360381019061015e919061035a565b61029b565b6040516101709190610394565b60405180910390f35b610193600480360381019061018e919061035a565b6102bb565b6040516101a09190610394565b60405180910390f35b5f815f8054906101000a9004600f0b6101c291906103da565b9050919050565b805f806101000a8154816fffffffffffffffffffffffffffffffff0219169083600f0b6fffffffffffffffffffffffffffffffff16021790555050565b5f8054906101000a9004600f0b81565b5f815f8054906101000a9004600f0b61022f9190610416565b9050919050565b5f8082600f0b0361027c576040517f08c379a0000000000000000000000000000000000000000000000000000000008152600401610273906104d7565b60405180910390fd5b815f8054906101000a9004600f0b6102949190610522565b9050919050565b5f815f8054906101000a9004600f0b6102b49190610552565b9050919050565b5f8082600f0b03610301576040517f08c379a00000000000000000000000000000000000000000000000000000000081526004016102f8906104d7565b60405180910390fd5b815f8054906101000a9004600f0b61031991906105b9565b9050919050565b5f80fd5b5f81600f0b9050919050565b61033981610324565b8114610343575f80fd5b50565b5f8135905061035481610330565b92915050565b5f6020828403121561036f5761036e610320565b5b5f61037c84828501610346565b91505092915050565b61038e81610324565b82525050565b5f6020820190506103a75f830184610385565b92915050565b7f4e487b71000000000000000000000000000000000000000000000000000000005f52601160045260245ffd5b5f6103e482610324565b91506103ef83610324565b92508282026103fd81610324565b915080821461040f5761040e6103ad565b5b5092915050565b5f61042082610324565b915061042b83610324565b925082820390506f7fffffffffffffffffffffffffffffff81137fffffffffffffffffffffffffffffffff8000000000000000000000000000000082121715610477576104766103ad565b5b92915050565b5f82825260208201905092915050565b7f4469766973696f6e206279207a65726f000000000000000000000000000000005f82015250565b5f6104c160108361047d565b91506104cc8261048d565b602082019050919050565b5f6020820190508181035f8301526104ee816104b5565b9050919050565b7f4e487b71000000000000000000000000000000000000000000000000000000005f52601260045260245ffd5b5f61052c82610324565b915061053783610324565b925082610547576105466104f5565b5b828207905092915050565b5f61055c82610324565b915061056783610324565b925082820190507fffffffffffffffffffffffffffffffff8000000000000000000000000000000081126f7fffffffffffffffffffffffffffffff821317156105b3576105b26103ad565b5b92915050565b5f6105c382610324565b91506105ce83610324565b9250826105de576105dd6104f5565b5b60015f0383147fffffffffffffffffffffffffffffffff8000000000000000000000000000000083141615610616576106156103ad565b5b82820590509291505056fea264697066735822122068f998cdfe2f4d98a0691ccb2fcd9d0eeb5bfb0166cb0651640b917594f833e164736f6c634300081a0033",
			"opcodes": "PUSH1 0x80 PUSH1 0x40 MSTORE CALLVALUE DUP1 ISZERO PUSH1 0xE JUMPI PUSH0 DUP1 REVERT JUMPDEST POP PUSH2 0x657 DUP1 PUSH2 0x1C PUSH0 CODECOPY PUSH0 RETURN INVALID PUSH1 0x80 PUSH1 0x40 MSTORE CALLVALUE DUP1 ISZERO PUSH2 0xF JUMPI PUSH0 DUP1 REVERT JUMPDEST POP PUSH1 0x4 CALLDATASIZE LT PUSH2 0x7B JUMPI PUSH0 CALLDATALOAD PUSH1 0xE0 SHR DUP1 PUSH4 0x4F5D8104 GT PUSH2 0x59 JUMPI DUP1 PUSH4 0x4F5D8104 EQ PUSH2 0xE9 JUMPI DUP1 PUSH4 0x62F63612 EQ PUSH2 0x119 JUMPI DUP1 PUSH4 0x839AD595 EQ PUSH2 0x149 JUMPI DUP1 PUSH4 0xB2F1669D EQ PUSH2 0x179 JUMPI PUSH2 0x7B JUMP JUMPDEST DUP1 PUSH4 0x1679E149 EQ PUSH2 0x7F JUMPI DUP1 PUSH4 0x31906273 EQ PUSH2 0xAF JUMPI DUP1 PUSH4 0x3FA4F245 EQ PUSH2 0xCB JUMPI JUMPDEST PUSH0 DUP1 REVERT JUMPDEST PUSH2 0x99 PUSH1 0x4 DUP1 CALLDATASIZE SUB DUP2 ADD SWAP1 PUSH2 0x94 SWAP2 SWAP1 PUSH2 0x35A JUMP JUMPDEST PUSH2 0x1A9 JUMP JUMPDEST PUSH1 0x40 MLOAD PUSH2 0xA6 SWAP2 SWAP1 PUSH2 0x394 JUMP JUMPDEST PUSH1 0x40 MLOAD DUP1 SWAP2 SUB SWAP1 RETURN JUMPDEST PUSH2 0xC9 PUSH1 0x4 DUP1 CALLDATASIZE SUB DUP2 ADD SWAP1 PUSH2 0xC4 SWAP2 SWAP1 PUSH2 0x35A JUMP JUMPDEST PUSH2 0x1C9 JUMP JUMPDEST STOP JUMPDEST PUSH2 0xD3 PUSH2 0x206 JUMP JUMPDEST PUSH1 0x40 MLOAD PUSH2 0xE0 SWAP2 SWAP1 PUSH2 0x394 JUMP JUMPDEST PUSH1 0x40 MLOAD DUP1 SWAP2 SUB SWAP1 RETURN JUMPDEST PUSH2 0x103 PUSH1 0x4 DUP1 CALLDATASIZE SUB DUP2 ADD SWAP1 PUSH2 0xFE SWAP2 SWAP1 PUSH2 0x35A JUMP JUMPDEST PUSH2 0x216 JUMP JUMPDEST PUSH1 0x40 MLOAD PUSH2 0x110 SWAP2 SWAP1 PUSH2 0x394 JUMP JUMPDEST PUSH1 0x40 MLOAD DUP1 SWAP2 SUB SWAP1 RETURN JUMPDEST PUSH2 0x133 PUSH1 0x4 DUP1 CALLDATASIZE SUB DUP2 ADD SWAP1 PUSH2 0x12E SWAP2 SWAP1 PUSH2 0x35A JUMP JUMPDEST PUSH2 0x236 JUMP JUMPDEST PUSH1 0x40 MLOAD PUSH2 0x140 SWAP2 SWAP1 PUSH2 0x394 JUMP JUMPDEST PUSH1 0x40 MLOAD DUP1 SWAP2 SUB SWAP1 RETURN JUMPDEST PUSH2 0x163 PUSH1 0x4 DUP1 CALLDATASIZE SUB DUP2 ADD SWAP1 PUSH2 0x15E SWAP2 SWAP1 PUSH2 0x35A JUMP JUMPDEST PUSH2 0x29B JUMP JUMPDEST PUSH1 0x40 MLOAD PUSH2 0x170 SWAP2 SWAP1 PUSH2 0x394 JUMP JUMPDEST PUSH1 0x40 MLOAD DUP1 SWAP2 SUB SWAP1 RETURN JUMPDEST PUSH2 0x193 PUSH1 0x4 DUP1 CALLDATASIZE SUB DUP2 ADD SWAP1 PUSH2 0x18E SWAP2 SWAP1 PUSH2 0x35A JUMP JUMPDEST PUSH2 0x2BB JUMP JUMPDEST PUSH1 0x40 MLOAD PUSH2 0x1A0 SWAP2 SWAP1 PUSH2 0x394 JUMP JUMPDEST PUSH1 0x40 MLOAD DUP1 SWAP2 SUB SWAP1 RETURN JUMPDEST PUSH0 DUP2 PUSH0 DUP1 SLOAD SWAP1 PUSH2 0x100 EXP SWAP1 DIV PUSH1 0xF SIGNEXTEND PUSH2 0x1C2 SWAP2 SWAP1 PUSH2 0x3DA JUMP JUMPDEST SWAP1 POP SWAP2 SWAP1 POP JUMP JUMPDEST DUP1 PUSH0 DUP1 PUSH2 0x100 EXP DUP2 SLOAD DUP2 PUSH16 0xFFFFFFFFFFFFFFFFFFFFFFFFFFFFFFFF MUL NOT AND SWAP1 DUP4 PUSH1 0xF SIGNEXTEND PUSH16 0xFFFFFFFFFFFFFFFFFFFFFFFFFFFFFFFF AND MUL OR SWAP1 SSTORE POP POP JUMP JUMPDEST PUSH0 DUP1 SLOAD SWAP1 PUSH2 0x100 EXP SWAP1 DIV PUSH1 0xF SIGNEXTEND DUP2 JUMP JUMPDEST PUSH0 DUP2 PUSH0 DUP1 SLOAD SWAP1 PUSH2 0x100 EXP SWAP1 DIV PUSH1 0xF SIGNEXTEND PUSH2 0x22F SWAP2 SWAP1 PUSH2 0x416 JUMP JUMPDEST SWAP1 POP SWAP2 SWAP1 POP JUMP JUMPDEST PUSH0 DUP1 DUP3 PUSH1 0xF SIGNEXTEND SUB PUSH2 0x27C JUMPI PUSH1 0x40 MLOAD PUSH32 0x8C379A000000000000000000000000000000000000000000000000000000000 DUP2 MSTORE PUSH1 0x4 ADD PUSH2 0x273 SWAP1 PUSH2 0x4D7 JUMP JUMPDEST PUSH1 0x40 MLOAD DUP1 SWAP2 SUB SWAP1 REVERT JUMPDEST DUP2 PUSH0 DUP1 SLOAD SWAP1 PUSH2 0x100 EXP SWAP1 DIV PUSH1 0xF SIGNEXTEND PUSH2 0x294 SWAP2 SWAP1 PUSH2 0x522 JUMP JUMPDEST SWAP1 POP SWAP2 SWAP1 POP JUMP JUMPDEST PUSH0 DUP2 PUSH0 DUP1 SLOAD SWAP1 PUSH2 0x100 EXP SWAP1 DIV PUSH1 0xF SIGNEXTEND PUSH2 0x2B4 SWAP2 SWAP1 PUSH2 0x552 JUMP JUMPDEST SWAP1 POP SWAP2 SWAP1 POP JUMP JUMPDEST PUSH0 DUP1 DUP3 PUSH1 0xF SIGNEXTEND SUB PUSH2 0x301 JUMPI PUSH1 0x40 MLOAD PUSH32 0x8C379A000000000000000000000000000000000000000000000000000000000 DUP2 MSTORE PUSH1 0x4 ADD PUSH2 0x2F8 SWAP1 PUSH2 0x4D7 JUMP JUMPDEST PUSH1 0x40 MLOAD DUP1 SWAP2 SUB SWAP1 REVERT JUMPDEST DUP2 PUSH0 DUP1 SLOAD SWAP1 PUSH2 0x100 EXP SWAP1 DIV PUSH1 0xF SIGNEXTEND PUSH2 0x319 SWAP2 SWAP1 PUSH2 0x5B9 JUMP JUMPDEST SWAP1 POP SWAP2 SWAP1 POP JUMP JUMPDEST PUSH0 DUP1 REVERT JUMPDEST PUSH0 DUP2 PUSH1 0xF SIGNEXTEND SWAP1 POP SWAP2 SWAP1 POP JUMP JUMPDEST PUSH2 0x339 DUP2 PUSH2 0x324 JUMP JUMPDEST DUP2 EQ PUSH2 0x343 JUMPI PUSH0 DUP1 REVERT JUMPDEST POP JUMP JUMPDEST PUSH0 DUP2 CALLDATALOAD SWAP1 POP PUSH2 0x354 DUP2 PUSH2 0x330 JUMP JUMPDEST SWAP3 SWAP2 POP POP JUMP JUMPDEST PUSH0 PUSH1 0x20 DUP3 DUP5 SUB SLT ISZERO PUSH2 0x36F JUMPI PUSH2 0x36E PUSH2 0x320 JUMP JUMPDEST JUMPDEST PUSH0 PUSH2 0x37C DUP5 DUP3 DUP6 ADD PUSH2 0x346 JUMP JUMPDEST SWAP2 POP POP SWAP3 SWAP2 POP POP JUMP JUMPDEST PUSH2 0x38E DUP2 PUSH2 0x324 JUMP JUMPDEST DUP3 MSTORE POP POP JUMP JUMPDEST PUSH0 PUSH1 0x20 DUP3 ADD SWAP1 POP PUSH2 0x3A7 PUSH0 DUP4 ADD DUP5 PUSH2 0x385 JUMP JUMPDEST SWAP3 SWAP2 POP POP JUMP JUMPDEST PUSH32 0x4E487B7100000000000000000000000000000000000000000000000000000000 PUSH0 MSTORE PUSH1 0x11 PUSH1 0x4 MSTORE PUSH1 0x24 PUSH0 REVERT JUMPDEST PUSH0 PUSH2 0x3E4 DUP3 PUSH2 0x324 JUMP JUMPDEST SWAP2 POP PUSH2 0x3EF DUP4 PUSH2 0x324 JUMP JUMPDEST SWAP3 POP DUP3 DUP3 MUL PUSH2 0x3FD DUP2 PUSH2 0x324 JUMP JUMPDEST SWAP2 POP DUP1 DUP3 EQ PUSH2 0x40F JUMPI PUSH2 0x40E PUSH2 0x3AD JUMP JUMPDEST JUMPDEST POP SWAP3 SWAP2 POP POP JUMP JUMPDEST PUSH0 PUSH2 0x420 DUP3 PUSH2 0x324 JUMP JUMPDEST SWAP2 POP PUSH2 0x42B DUP4 PUSH2 0x324 JUMP JUMPDEST SWAP3 POP DUP3 DUP3 SUB SWAP1 POP PUSH16 0x7FFFFFFFFFFFFFFFFFFFFFFFFFFFFFFF DUP2 SGT PUSH32 0xFFFFFFFFFFFFFFFFFFFFFFFFFFFFFFFF80000000000000000000000000000000 DUP3 SLT OR ISZERO PUSH2 0x477 JUMPI PUSH2 0x476 PUSH2 0x3AD JUMP JUMPDEST JUMPDEST SWAP3 SWAP2 POP POP JUMP JUMPDEST PUSH0 DUP3 DUP3 MSTORE PUSH1 0x20 DUP3 ADD SWAP1 POP SWAP3 SWAP2 POP POP JUMP JUMPDEST PUSH32 0x4469766973696F6E206279207A65726F00000000000000000000000000000000 PUSH0 DUP3 ADD MSTORE POP JUMP JUMPDEST PUSH0 PUSH2 0x4C1 PUSH1 0x10 DUP4 PUSH2 0x47D JUMP JUMPDEST SWAP2 POP PUSH2 0x4CC DUP3 PUSH2 0x48D JUMP JUMPDEST PUSH1 0x20 DUP3 ADD SWAP1 POP SWAP2 SWAP1 POP JUMP JUMPDEST PUSH0 PUSH1 0x20 DUP3 ADD SWAP1 POP DUP2 DUP2 SUB PUSH0 DUP4 ADD MSTORE PUSH2 0x4EE DUP2 PUSH2 0x4B5 JUMP JUMPDEST SWAP1 POP SWAP2 SWAP1 POP JUMP JUMPDEST PUSH32 0x4E487B7100000000000000000000000000000000000000000000000000000000 PUSH0 MSTORE PUSH1 0x12 PUSH1 0x4 MSTORE PUSH1 0x24 PUSH0 REVERT JUMPDEST PUSH0 PUSH2 0x52C DUP3 PUSH2 0x324 JUMP JUMPDEST SWAP2 POP PUSH2 0x537 DUP4 PUSH2 0x324 JUMP JUMPDEST SWAP3 POP DUP3 PUSH2 0x547 JUMPI PUSH2 0x546 PUSH2 0x4F5 JUMP JUMPDEST JUMPDEST DUP3 DUP3 SMOD SWAP1 POP SWAP3 SWAP2 POP POP JUMP JUMPDEST PUSH0 PUSH2 0x55C DUP3 PUSH2 0x324 JUMP JUMPDEST SWAP2 POP PUSH2 0x567 DUP4 PUSH2 0x324 JUMP JUMPDEST SWAP3 POP DUP3 DUP3 ADD SWAP1 POP PUSH32 0xFFFFFFFFFFFFFFFFFFFFFFFFFFFFFFFF80000000000000000000000000000000 DUP2 SLT PUSH16 0x7FFFFFFFFFFFFFFFFFFFFFFFFFFFFFFF DUP3 SGT OR ISZERO PUSH2 0x5B3 JUMPI PUSH2 0x5B2 PUSH2 0x3AD JUMP JUMPDEST JUMPDEST SWAP3 SWAP2 POP POP JUMP JUMPDEST PUSH0 PUSH2 0x5C3 DUP3 PUSH2 0x324 JUMP JUMPDEST SWAP2 POP PUSH2 0x5CE DUP4 PUSH2 0x324 JUMP JUMPDEST SWAP3 POP DUP3 PUSH2 0x5DE JUMPI PUSH2 0x5DD PUSH2 0x4F5 JUMP JUMPDEST JUMPDEST PUSH1 0x1 PUSH0 SUB DUP4 EQ PUSH32 0xFFFFFFFFFFFFFFFFFFFFFFFFFFFFFFFF80000000000000000000000000000000 DUP4 EQ AND ISZERO PUSH2 0x616 JUMPI PUSH2 0x615 PUSH2 0x3AD JUMP JUMPDEST JUMPDEST DUP3 DUP3 SDIV SWAP1 POP SWAP3 SWAP2 POP POP JUMP INVALID LOG2 PUSH5 0x6970667358 0x22 SLT KECCAK256 PUSH9 0xF998CDFE2F4D98A069 SHR 0xCB 0x2F 0xCD SWAP14 0xE 0xEB JUMPDEST 0xFB ADD PUSH7 0xCB0651640B9175 SWAP5 0xF8 CALLER 0xE1 PUSH5 0x736F6C6343 STOP ADDMOD BYTE STOP CALLER "
		},
		"gasEstimates": {
			"creation": {
				"codeDepositCost": "324600",
				"executionCost": "360",
				"totalCost": "324960"
			},
			"external": {
				"difference(int128)": "infinite",
				"division(int128)": "infinite",
				"product(int128)": "infinite",
				"remainder(int128)": "infinite",
				"setValue(int128)": "24706",
				"sum(int128)": "infinite",
				"value()": "2512"
			}
		},
		"methodIdentifiers": {
			"difference(int128)": "4f5d8104",
			"division(int128)": "b2f1669d",
			"product(int128)": "1679e149",
			"remainder(int128)": "62f63612",
			"setValue(int128)": "31906273",
			"sum(int128)": "839ad595",
			"value()": "3fa4f245"
		}
	},
	"abi": [
		{
			"inputs": [
				{
					"internalType": "int128",
					"name": "_number",
					"type": "int128"
				}
			],
			"name": "difference",
			"outputs": [
				{
					"internalType": "int128",
					"name": "",
					"type": "int128"
				}
			],
			"stateMutability": "view",
			"type": "function"
		},
		{
			"inputs": [
				{
					"internalType": "int128",
					"name": "_number",
					"type": "int128"
				}
			],
			"name": "division",
			"outputs": [
				{
					"internalType": "int128",
					"name": "",
					"type": "int128"
				}
			],
			"stateMutability": "view",
			"type": "function"
		},
		{
			"inputs": [
				{
					"internalType": "int128",
					"name": "_number",
					"type": "int128"
				}
			],
			"name": "product",
			"outputs": [
				{
					"internalType": "int128",
					"name": "",
					"type": "int128"
				}
			],
			"stateMutability": "view",
			"type": "function"
		},
		{
			"inputs": [
				{
					"internalType": "int128",
					"name": "_number",
					"type": "int128"
				}
			],
			"name": "remainder",
			"outputs": [
				{
					"internalType": "int128",
					"name": "",
					"type": "int128"
				}
			],
			"stateMutability": "view",
			"type": "function"
		},
		{
			"inputs": [
				{
					"internalType": "int128",
					"name": "_value",
					"type": "int128"
				}
			],
			"name": "setValue",
			"outputs": [],
			"stateMutability": "nonpayable",
			"type": "function"
		},
		{
			"inputs": [
				{
					"internalType": "int128",
					"name": "_number",
					"type": "int128"
				}
			],
			"name": "sum",
			"outputs": [
				{
					"internalType": "int128",
					"name": "",
					"type": "int128"
				}
			],
			"stateMutability": "view",
			"type": "function"
		},
		{
			"inputs": [],
			"name": "value",
			"outputs": [
				{
					"internalType": "int128",
					"name": "",
					"type": "int128"
				}
			],
			"stateMutability": "view",
			"type": "function"
		}
	]
}