{
	"data": {
		"bytecode": {
			"linkReferences": {},
			"object": "6080604052348015600e575f80fd5b506102708061001c5f395ff3fe608060405234801561000f575f80fd5b506004361061004a575f3560e01c80630c0399a41461004e5780633fb5c1cb1461006c5780638381f58a1461009c578063fddcc148146100ba575b5f80fd5b6100566100d8565b6040516100639190610137565b60405180910390f35b61008660048036038101906100819190610187565b6100f9565b6040516100939190610137565b60405180910390f35b6100a4610114565b6040516100b191906101c1565b60405180910390f35b6100c2610119565b6040516100cf91906101c1565b60405180910390f35b5f6001805f8282546100ea9190610207565b92505081905550600154905090565b5f815f819055505f6101096100d8565b905080915050919050565b5f5481565b60015481565b5f819050919050565b6101318161011f565b82525050565b5f60208201905061014a5f830184610128565b92915050565b5f80fd5b5f819050919050565b61016681610154565b8114610170575f80fd5b50565b5f813590506101818161015d565b92915050565b5f6020828403121561019c5761019b610150565b5b5f6101a984828501610173565b91505092915050565b6101bb81610154565b82525050565b5f6020820190506101d45f8301846101b2565b92915050565b7f4e487b71000000000000000000000000000000000000000000000000000000005f52601160045260245ffd5b5f61021182610154565b915061021c83610154565b9250828201905080821115610234576102336101da565b5b9291505056fea2646970667358221220f23d354c203f9718d6d4d336864452ef1cfb6312579132775823e16d40ef15b164736f6c634300081a0033",
			"opcodes": "PUSH1 0x80 PUSH1 0x40 MSTORE CALLVALUE DUP1 ISZERO PUSH1 0xE JUMPI PUSH0 DUP1 REVERT JUMPDEST POP PUSH2 0x270 DUP1 PUSH2 0x1C PUSH0 CODECOPY PUSH0 RETURN INVALID PUSH1 0x80 PUSH1 0x40 MSTORE CALLVALUE DUP1 ISZERO PUSH2 0xF JUMPI PUSH0 DUP1 REVERT JUMPDEST POP PUSH1 0x4 CALLDATASIZE LT PUSH2 0x4A JUMPI PUSH0 CALLDATALOAD PUSH1 0xE0 SHR DUP1 PUSH4 0xC0399A4 EQ PUSH2 0x4E JUMPI DUP1 PUSH4 0x3FB5C1CB EQ PUSH2 0x6C JUMPI DUP1 PUSH4 0x8381F58A EQ PUSH2 0x9C JUMPI DUP1 PUSH4 0xFDDCC148 EQ PUSH2 0xBA JUMPI JUMPDEST PUSH0 DUP1 REVERT JUMPDEST PUSH2 0x56 PUSH2 0xD8 JUMP JUMPDEST PUSH1 0x40 MLOAD PUSH2 0x63 SWAP2 SWAP1 PUSH2 0x137 JUMP JUMPDEST PUSH1 0x40 MLOAD DUP1 SWAP2 SUB SWAP1 RETURN JUMPDEST PUSH2 0x86 PUSH1 0x4 DUP1 CALLDATASIZE SUB DUP2 ADD SWAP1 PUSH2 0x81 SWAP2 SWAP1 PUSH2 0x187 JUMP JUMPDEST PUSH2 0xF9 JUMP JUMPDEST PUSH1 0x40 MLOAD PUSH2 0x93 SWAP2 SWAP1 PUSH2 0x137 JUMP JUMPDEST PUSH1 0x40 MLOAD DUP1 SWAP2 SUB SWAP1 RETURN JUMPDEST PUSH2 0xA4 PUSH2 0x114 JUMP JUMPDEST PUSH1 0x40 MLOAD PUSH2 0xB1 SWAP2 SWAP1 PUSH2 0x1C1 JUMP JUMPDEST PUSH1 0x40 MLOAD DUP1 SWAP2 SUB SWAP1 RETURN JUMPDEST PUSH2 0xC2 PUSH2 0x119 JUMP JUMPDEST PUSH1 0x40 MLOAD PUSH2 0xCF SWAP2 SWAP1 PUSH2 0x1C1 JUMP JUMPDEST PUSH1 0x40 MLOAD DUP1 SWAP2 SUB SWAP1 RETURN JUMPDEST PUSH0 PUSH1 0x1 DUP1 PUSH0 DUP3 DUP3 SLOAD PUSH2 0xEA SWAP2 SWAP1 PUSH2 0x207 JUMP JUMPDEST SWAP3 POP POP DUP2 SWAP1 SSTORE POP PUSH1 0x1 SLOAD SWAP1 POP SWAP1 JUMP JUMPDEST PUSH0 DUP2 PUSH0 DUP2 SWAP1 SSTORE POP PUSH0 PUSH2 0x109 PUSH2 0xD8 JUMP JUMPDEST SWAP1 POP DUP1 SWAP2 POP POP SWAP2 SWAP1 POP JUMP JUMPDEST PUSH0 SLOAD DUP2 JUMP JUMPDEST PUSH1 0x1 SLOAD DUP2 JUMP JUMPDEST PUSH0 DUP2 SWAP1 POP SWAP2 SWAP1 POP JUMP JUMPDEST PUSH2 0x131 DUP2 PUSH2 0x11F JUMP JUMPDEST DUP3 MSTORE POP POP JUMP JUMPDEST PUSH0 PUSH1 0x20 DUP3 ADD SWAP1 POP PUSH2 0x14A PUSH0 DUP4 ADD DUP5 PUSH2 0x128 JUMP JUMPDEST SWAP3 SWAP2 POP POP JUMP JUMPDEST PUSH0 DUP1 REVERT JUMPDEST PUSH0 DUP2 SWAP1 POP SWAP2 SWAP1 POP JUMP JUMPDEST PUSH2 0x166 DUP2 PUSH2 0x154 JUMP JUMPDEST DUP2 EQ PUSH2 0x170 JUMPI PUSH0 DUP1 REVERT JUMPDEST POP JUMP JUMPDEST PUSH0 DUP2 CALLDATALOAD SWAP1 POP PUSH2 0x181 DUP2 PUSH2 0x15D JUMP JUMPDEST SWAP3 SWAP2 POP POP JUMP JUMPDEST PUSH0 PUSH1 0x20 DUP3 DUP5 SUB SLT ISZERO PUSH2 0x19C JUMPI PUSH2 0x19B PUSH2 0x150 JUMP JUMPDEST JUMPDEST PUSH0 PUSH2 0x1A9 DUP5 DUP3 DUP6 ADD PUSH2 0x173 JUMP JUMPDEST SWAP2 POP POP SWAP3 SWAP2 POP POP JUMP JUMPDEST PUSH2 0x1BB DUP2 PUSH2 0x154 JUMP JUMPDEST DUP3 MSTORE POP POP JUMP JUMPDEST PUSH0 PUSH1 0x20 DUP3 ADD SWAP1 POP PUSH2 0x1D4 PUSH0 DUP4 ADD DUP5 PUSH2 0x1B2 JUMP JUMPDEST SWAP3 SWAP2 POP POP JUMP JUMPDEST PUSH32 0x4E487B7100000000000000000000000000000000000000000000000000000000 PUSH0 MSTORE PUSH1 0x11 PUSH1 0x4 MSTORE PUSH1 0x24 PUSH0 REVERT JUMPDEST PUSH0 PUSH2 0x211 DUP3 PUSH2 0x154 JUMP JUMPDEST SWAP2 POP PUSH2 0x21C DUP4 PUSH2 0x154 JUMP JUMPDEST SWAP3 POP DUP3 DUP3 ADD SWAP1 POP DUP1 DUP3 GT ISZERO PUSH2 0x234 JUMPI PUSH2 0x233 PUSH2 0x1DA JUMP JUMPDEST JUMPDEST SWAP3 SWAP2 POP POP JUMP INVALID LOG2 PUSH5 0x6970667358 0x22 SLT KECCAK256 CALLCODE RETURNDATASIZE CALLDATALOAD 0x4C KECCAK256 EXTCODEHASH SWAP8 XOR 0xD6 0xD4 0xD3 CALLDATASIZE DUP7 PREVRANDAO MSTORE 0xEF SHR 0xFB PUSH4 0x12579132 PUSH24 0x5823E16D40EF15B164736F6C634300081A00330000000000 "
		},
		"gasEstimates": {
			"creation": {
				"codeDepositCost": "124800",
				"executionCost": "169",
				"totalCost": "124969"
			},
			"external": {
				"iteration()": "infinite",
				"iterator()": "2469",
				"number()": "2446",
				"setNumber(uint256)": "infinite"
			}
		},
		"methodIdentifiers": {
			"iteration()": "0c0399a4",
			"iterator()": "fddcc148",
			"number()": "8381f58a",
			"setNumber(uint256)": "3fb5c1cb"
		}
	},
	"abi": [
		{
			"inputs": [],
			"name": "iteration",
			"outputs": [
				{
					"internalType": "int256",
					"name": "",
					"type": "int256"
				}
			],
			"stateMutability": "nonpayable",
			"type": "function"
		},
		{
			"inputs": [],
			"name": "iterator",
			"outputs": [
				{
					"internalType": "uint256",
					"name": "",
					"type": "uint256"
				}
			],
			"stateMutability": "view",
			"type": "function"
		},
		{
			"inputs": [],
			"name": "number",
			"outputs": [
				{
					"internalType": "uint256",
					"name": "",
					"type": "uint256"
				}
			],
			"stateMutability": "view",
			"type": "function"
		},
		{
			"inputs": [
				{
					"internalType": "uint256",
					"name": "_number",
					"type": "uint256"
				}
			],
			"name": "setNumber",
			"outputs": [
				{
					"internalType": "int256",
					"name": "",
					"type": "int256"
				}
			],
			"stateMutability": "nonpayable",
			"type": "function"
		}
	]
}