{
	"data": {
		"bytecode": {
			"linkReferences": {},
			"object": "6080604052348015600e575f80fd5b5061055d8061001c5f395ff3fe608060405234801561000f575f80fd5b5060043610610055575f3560e01c8063853255cc146100595780639200dac314610077578063c54124be146100aa578063e879a13e146100c8578063f9fa48c3146100e6575b5f80fd5b610061610104565b60405161006e919061022e565b60405180910390f35b610091600480360381019061008c9190610275565b610109565b6040516100a194939291906102b3565b60405180910390f35b6100b261014e565b6040516100bf919061022e565b60405180910390f35b6100d0610154565b6040516100dd919061022e565b60405180910390f35b6100ee61015a565b6040516100fb919061022e565b60405180910390f35b5f5481565b5f805f806101178686610160565b6101218686610175565b61012b868661018b565b61013586866101a1565b61013d6101f9565b935093509350935092959194509250565b60015481565b60025481565b60035481565b808261016c9190610323565b5f819055505050565b80826101819190610364565b6001819055505050565b808261019791906103a4565b6002819055505050565b5f81036101e3576040517f08c379a00000000000000000000000000000000000000000000000000000000081526004016101da90610474565b60405180910390fd5b80826101ef91906104bf565b6003819055505050565b5f805f805f54600154600254600354935093509350935090919293565b5f819050919050565b61022881610216565b82525050565b5f6020820190506102415f83018461021f565b92915050565b5f80fd5b61025481610216565b811461025e575f80fd5b50565b5f8135905061026f8161024b565b92915050565b5f806040838503121561028b5761028a610247565b5b5f61029885828601610261565b92505060206102a985828601610261565b9150509250929050565b5f6080820190506102c65f83018761021f565b6102d3602083018661021f565b6102e0604083018561021f565b6102ed606083018461021f565b95945050505050565b7f4e487b71000000000000000000000000000000000000000000000000000000005f52601160045260245ffd5b5f61032d82610216565b915061033883610216565b92508282019050828112155f8312168382125f84121516171561035e5761035d6102f6565b5b92915050565b5f61036e82610216565b915061037983610216565b925082820390508181125f8412168282135f85121516171561039e5761039d6102f6565b5b92915050565b5f6103ae82610216565b91506103b983610216565b92508282026103c781610216565b91507f800000000000000000000000000000000000000000000000000000000000000084145f841216156103fe576103fd6102f6565b5b8282058414831517610413576104126102f6565b5b5092915050565b5f82825260208201905092915050565b7f4469766973696f6e206279207a65726f000000000000000000000000000000005f82015250565b5f61045e60108361041a565b91506104698261042a565b602082019050919050565b5f6020820190508181035f83015261048b81610452565b9050919050565b7f4e487b71000000000000000000000000000000000000000000000000000000005f52601260045260245ffd5b5f6104c982610216565b91506104d483610216565b9250826104e4576104e3610492565b5b60015f0383147f80000000000000000000000000000000000000000000000000000000000000008314161561051c5761051b6102f6565b5b82820590509291505056fea2646970667358221220d3dffb6e0ceb2b0e6a2faa2a834db717253bf4bd84a394e24740c2738e63b57064736f6c634300081a0033",
			"opcodes": "PUSH1 0x80 PUSH1 0x40 MSTORE CALLVALUE DUP1 ISZERO PUSH1 0xE JUMPI PUSH0 DUP1 REVERT JUMPDEST POP PUSH2 0x55D DUP1 PUSH2 0x1C PUSH0 CODECOPY PUSH0 RETURN INVALID PUSH1 0x80 PUSH1 0x40 MSTORE CALLVALUE DUP1 ISZERO PUSH2 0xF JUMPI PUSH0 DUP1 REVERT JUMPDEST POP PUSH1 0x4 CALLDATASIZE LT PUSH2 0x55 JUMPI PUSH0 CALLDATALOAD PUSH1 0xE0 SHR DUP1 PUSH4 0x853255CC EQ PUSH2 0x59 JUMPI DUP1 PUSH4 0x9200DAC3 EQ PUSH2 0x77 JUMPI DUP1 PUSH4 0xC54124BE EQ PUSH2 0xAA JUMPI DUP1 PUSH4 0xE879A13E EQ PUSH2 0xC8 JUMPI DUP1 PUSH4 0xF9FA48C3 EQ PUSH2 0xE6 JUMPI JUMPDEST PUSH0 DUP1 REVERT JUMPDEST PUSH2 0x61 PUSH2 0x104 JUMP JUMPDEST PUSH1 0x40 MLOAD PUSH2 0x6E SWAP2 SWAP1 PUSH2 0x22E JUMP JUMPDEST PUSH1 0x40 MLOAD DUP1 SWAP2 SUB SWAP1 RETURN JUMPDEST PUSH2 0x91 PUSH1 0x4 DUP1 CALLDATASIZE SUB DUP2 ADD SWAP1 PUSH2 0x8C SWAP2 SWAP1 PUSH2 0x275 JUMP JUMPDEST PUSH2 0x109 JUMP JUMPDEST PUSH1 0x40 MLOAD PUSH2 0xA1 SWAP5 SWAP4 SWAP3 SWAP2 SWAP1 PUSH2 0x2B3 JUMP JUMPDEST PUSH1 0x40 MLOAD DUP1 SWAP2 SUB SWAP1 RETURN JUMPDEST PUSH2 0xB2 PUSH2 0x14E JUMP JUMPDEST PUSH1 0x40 MLOAD PUSH2 0xBF SWAP2 SWAP1 PUSH2 0x22E JUMP JUMPDEST PUSH1 0x40 MLOAD DUP1 SWAP2 SUB SWAP1 RETURN JUMPDEST PUSH2 0xD0 PUSH2 0x154 JUMP JUMPDEST PUSH1 0x40 MLOAD PUSH2 0xDD SWAP2 SWAP1 PUSH2 0x22E JUMP JUMPDEST PUSH1 0x40 MLOAD DUP1 SWAP2 SUB SWAP1 RETURN JUMPDEST PUSH2 0xEE PUSH2 0x15A JUMP JUMPDEST PUSH1 0x40 MLOAD PUSH2 0xFB SWAP2 SWAP1 PUSH2 0x22E JUMP JUMPDEST PUSH1 0x40 MLOAD DUP1 SWAP2 SUB SWAP1 RETURN JUMPDEST PUSH0 SLOAD DUP2 JUMP JUMPDEST PUSH0 DUP1 PUSH0 DUP1 PUSH2 0x117 DUP7 DUP7 PUSH2 0x160 JUMP JUMPDEST PUSH2 0x121 DUP7 DUP7 PUSH2 0x175 JUMP JUMPDEST PUSH2 0x12B DUP7 DUP7 PUSH2 0x18B JUMP JUMPDEST PUSH2 0x135 DUP7 DUP7 PUSH2 0x1A1 JUMP JUMPDEST PUSH2 0x13D PUSH2 0x1F9 JUMP JUMPDEST SWAP4 POP SWAP4 POP SWAP4 POP SWAP4 POP SWAP3 SWAP6 SWAP2 SWAP5 POP SWAP3 POP JUMP JUMPDEST PUSH1 0x1 SLOAD DUP2 JUMP JUMPDEST PUSH1 0x2 SLOAD DUP2 JUMP JUMPDEST PUSH1 0x3 SLOAD DUP2 JUMP JUMPDEST DUP1 DUP3 PUSH2 0x16C SWAP2 SWAP1 PUSH2 0x323 JUMP JUMPDEST PUSH0 DUP2 SWAP1 SSTORE POP POP POP JUMP JUMPDEST DUP1 DUP3 PUSH2 0x181 SWAP2 SWAP1 PUSH2 0x364 JUMP JUMPDEST PUSH1 0x1 DUP2 SWAP1 SSTORE POP POP POP JUMP JUMPDEST DUP1 DUP3 PUSH2 0x197 SWAP2 SWAP1 PUSH2 0x3A4 JUMP JUMPDEST PUSH1 0x2 DUP2 SWAP1 SSTORE POP POP POP JUMP JUMPDEST PUSH0 DUP2 SUB PUSH2 0x1E3 JUMPI PUSH1 0x40 MLOAD PUSH32 0x8C379A000000000000000000000000000000000000000000000000000000000 DUP2 MSTORE PUSH1 0x4 ADD PUSH2 0x1DA SWAP1 PUSH2 0x474 JUMP JUMPDEST PUSH1 0x40 MLOAD DUP1 SWAP2 SUB SWAP1 REVERT JUMPDEST DUP1 DUP3 PUSH2 0x1EF SWAP2 SWAP1 PUSH2 0x4BF JUMP JUMPDEST PUSH1 0x3 DUP2 SWAP1 SSTORE POP POP POP JUMP JUMPDEST PUSH0 DUP1 PUSH0 DUP1 PUSH0 SLOAD PUSH1 0x1 SLOAD PUSH1 0x2 SLOAD PUSH1 0x3 SLOAD SWAP4 POP SWAP4 POP SWAP4 POP SWAP4 POP SWAP1 SWAP2 SWAP3 SWAP4 JUMP JUMPDEST PUSH0 DUP2 SWAP1 POP SWAP2 SWAP1 POP JUMP JUMPDEST PUSH2 0x228 DUP2 PUSH2 0x216 JUMP JUMPDEST DUP3 MSTORE POP POP JUMP JUMPDEST PUSH0 PUSH1 0x20 DUP3 ADD SWAP1 POP PUSH2 0x241 PUSH0 DUP4 ADD DUP5 PUSH2 0x21F JUMP JUMPDEST SWAP3 SWAP2 POP POP JUMP JUMPDEST PUSH0 DUP1 REVERT JUMPDEST PUSH2 0x254 DUP2 PUSH2 0x216 JUMP JUMPDEST DUP2 EQ PUSH2 0x25E JUMPI PUSH0 DUP1 REVERT JUMPDEST POP JUMP JUMPDEST PUSH0 DUP2 CALLDATALOAD SWAP1 POP PUSH2 0x26F DUP2 PUSH2 0x24B JUMP JUMPDEST SWAP3 SWAP2 POP POP JUMP JUMPDEST PUSH0 DUP1 PUSH1 0x40 DUP4 DUP6 SUB SLT ISZERO PUSH2 0x28B JUMPI PUSH2 0x28A PUSH2 0x247 JUMP JUMPDEST JUMPDEST PUSH0 PUSH2 0x298 DUP6 DUP3 DUP7 ADD PUSH2 0x261 JUMP JUMPDEST SWAP3 POP POP PUSH1 0x20 PUSH2 0x2A9 DUP6 DUP3 DUP7 ADD PUSH2 0x261 JUMP JUMPDEST SWAP2 POP POP SWAP3 POP SWAP3 SWAP1 POP JUMP JUMPDEST PUSH0 PUSH1 0x80 DUP3 ADD SWAP1 POP PUSH2 0x2C6 PUSH0 DUP4 ADD DUP8 PUSH2 0x21F JUMP JUMPDEST PUSH2 0x2D3 PUSH1 0x20 DUP4 ADD DUP7 PUSH2 0x21F JUMP JUMPDEST PUSH2 0x2E0 PUSH1 0x40 DUP4 ADD DUP6 PUSH2 0x21F JUMP JUMPDEST PUSH2 0x2ED PUSH1 0x60 DUP4 ADD DUP5 PUSH2 0x21F JUMP JUMPDEST SWAP6 SWAP5 POP POP POP POP POP JUMP JUMPDEST PUSH32 0x4E487B7100000000000000000000000000000000000000000000000000000000 PUSH0 MSTORE PUSH1 0x11 PUSH1 0x4 MSTORE PUSH1 0x24 PUSH0 REVERT JUMPDEST PUSH0 PUSH2 0x32D DUP3 PUSH2 0x216 JUMP JUMPDEST SWAP2 POP PUSH2 0x338 DUP4 PUSH2 0x216 JUMP JUMPDEST SWAP3 POP DUP3 DUP3 ADD SWAP1 POP DUP3 DUP2 SLT ISZERO PUSH0 DUP4 SLT AND DUP4 DUP3 SLT PUSH0 DUP5 SLT ISZERO AND OR ISZERO PUSH2 0x35E JUMPI PUSH2 0x35D PUSH2 0x2F6 JUMP JUMPDEST JUMPDEST SWAP3 SWAP2 POP POP JUMP JUMPDEST PUSH0 PUSH2 0x36E DUP3 PUSH2 0x216 JUMP JUMPDEST SWAP2 POP PUSH2 0x379 DUP4 PUSH2 0x216 JUMP JUMPDEST SWAP3 POP DUP3 DUP3 SUB SWAP1 POP DUP2 DUP2 SLT PUSH0 DUP5 SLT AND DUP3 DUP3 SGT PUSH0 DUP6 SLT ISZERO AND OR ISZERO PUSH2 0x39E JUMPI PUSH2 0x39D PUSH2 0x2F6 JUMP JUMPDEST JUMPDEST SWAP3 SWAP2 POP POP JUMP JUMPDEST PUSH0 PUSH2 0x3AE DUP3 PUSH2 0x216 JUMP JUMPDEST SWAP2 POP PUSH2 0x3B9 DUP4 PUSH2 0x216 JUMP JUMPDEST SWAP3 POP DUP3 DUP3 MUL PUSH2 0x3C7 DUP2 PUSH2 0x216 JUMP JUMPDEST SWAP2 POP PUSH32 0x8000000000000000000000000000000000000000000000000000000000000000 DUP5 EQ PUSH0 DUP5 SLT AND ISZERO PUSH2 0x3FE JUMPI PUSH2 0x3FD PUSH2 0x2F6 JUMP JUMPDEST JUMPDEST DUP3 DUP3 SDIV DUP5 EQ DUP4 ISZERO OR PUSH2 0x413 JUMPI PUSH2 0x412 PUSH2 0x2F6 JUMP JUMPDEST JUMPDEST POP SWAP3 SWAP2 POP POP JUMP JUMPDEST PUSH0 DUP3 DUP3 MSTORE PUSH1 0x20 DUP3 ADD SWAP1 POP SWAP3 SWAP2 POP POP JUMP JUMPDEST PUSH32 0x4469766973696F6E206279207A65726F00000000000000000000000000000000 PUSH0 DUP3 ADD MSTORE POP JUMP JUMPDEST PUSH0 PUSH2 0x45E PUSH1 0x10 DUP4 PUSH2 0x41A JUMP JUMPDEST SWAP2 POP PUSH2 0x469 DUP3 PUSH2 0x42A JUMP JUMPDEST PUSH1 0x20 DUP3 ADD SWAP1 POP SWAP2 SWAP1 POP JUMP JUMPDEST PUSH0 PUSH1 0x20 DUP3 ADD SWAP1 POP DUP2 DUP2 SUB PUSH0 DUP4 ADD MSTORE PUSH2 0x48B DUP2 PUSH2 0x452 JUMP JUMPDEST SWAP1 POP SWAP2 SWAP1 POP JUMP JUMPDEST PUSH32 0x4E487B7100000000000000000000000000000000000000000000000000000000 PUSH0 MSTORE PUSH1 0x12 PUSH1 0x4 MSTORE PUSH1 0x24 PUSH0 REVERT JUMPDEST PUSH0 PUSH2 0x4C9 DUP3 PUSH2 0x216 JUMP JUMPDEST SWAP2 POP PUSH2 0x4D4 DUP4 PUSH2 0x216 JUMP JUMPDEST SWAP3 POP DUP3 PUSH2 0x4E4 JUMPI PUSH2 0x4E3 PUSH2 0x492 JUMP JUMPDEST JUMPDEST PUSH1 0x1 PUSH0 SUB DUP4 EQ PUSH32 0x8000000000000000000000000000000000000000000000000000000000000000 DUP4 EQ AND ISZERO PUSH2 0x51C JUMPI PUSH2 0x51B PUSH2 0x2F6 JUMP JUMPDEST JUMPDEST DUP3 DUP3 SDIV SWAP1 POP SWAP3 SWAP2 POP POP JUMP INVALID LOG2 PUSH5 0x6970667358 0x22 SLT KECCAK256 0xD3 0xDF 0xFB PUSH15 0xCEB2B0E6A2FAA2A834DB717253BF4 0xBD DUP5 LOG3 SWAP5 0xE2 SELFBALANCE BLOCKHASH 0xC2 PUSH20 0x8E63B57064736F6C634300081A00330000000000 "
		},
		"gasEstimates": {
			"creation": {
				"codeDepositCost": "274600",
				"executionCost": "310",
				"totalCost": "274910"
			},
			"external": {
				"div()": "2491",
				"mult()": "2469",
				"start(int256,int256)": "infinite",
				"sub()": "2447",
				"sum()": "2402"
			},
			"internal": {
				"addition(int256,int256)": "infinite",
				"division(int256,int256)": "infinite",
				"getResult()": "8462",
				"multiplication(int256,int256)": "infinite",
				"subtraction(int256,int256)": "infinite"
			}
		},
		"methodIdentifiers": {
			"div()": "f9fa48c3",
			"mult()": "e879a13e",
			"start(int256,int256)": "9200dac3",
			"sub()": "c54124be",
			"sum()": "853255cc"
		}
	},
	"abi": [
		{
			"inputs": [],
			"name": "div",
			"outputs": [
				{
					"internalType": "int256",
					"name": "",
					"type": "int256"
				}
			],
			"stateMutability": "view",
			"type": "function"
		},
		{
			"inputs": [],
			"name": "mult",
			"outputs": [
				{
					"internalType": "int256",
					"name": "",
					"type": "int256"
				}
			],
			"stateMutability": "view",
			"type": "function"
		},
		{
			"inputs": [
				{
					"internalType": "int256",
					"name": "number1",
					"type": "int256"
				},
				{
					"internalType": "int256",
					"name": "number2",
					"type": "int256"
				}
			],
			"name": "start",
			"outputs": [
				{
					"internalType": "int256",
					"name": "",
					"type": "int256"
				},
				{
					"internalType": "int256",
					"name": "",
					"type": "int256"
				},
				{
					"internalType": "int256",
					"name": "",
					"type": "int256"
				},
				{
					"internalType": "int256",
					"name": "",
					"type": "int256"
				}
			],
			"stateMutability": "nonpayable",
			"type": "function"
		},
		{
			"inputs": [],
			"name": "sub",
			"outputs": [
				{
					"internalType": "int256",
					"name": "",
					"type": "int256"
				}
			],
			"stateMutability": "view",
			"type": "function"
		},
		{
			"inputs": [],
			"name": "sum",
			"outputs": [
				{
					"internalType": "int256",
					"name": "",
					"type": "int256"
				}
			],
			"stateMutability": "view",
			"type": "function"
		}
	]
}