{
	"data": {
		"bytecode": {
			"linkReferences": {},
			"object": "6080604052348015600e575f80fd5b506102b48061001c5f395ff3fe608060405234801561000f575f80fd5b5060043610610029575f3560e01c80639d2b7e841461002d575b5f80fd5b61004760048036038101906100429190610122565b61005d565b6040516100549190610167565b60405180910390f35b5f8061006883610080565b905082818261007791906101ad565b14915050919050565b5f808290505f60028285610094919061021b565b8361009f919061024b565b6100a9919061021b565b90505b818110156100e157809150600282856100c5919061021b565b836100d0919061024b565b6100da919061021b565b90506100ac565b8192505050919050565b5f80fd5b5f819050919050565b610101816100ef565b811461010b575f80fd5b50565b5f8135905061011c816100f8565b92915050565b5f60208284031215610137576101366100eb565b5b5f6101448482850161010e565b91505092915050565b5f8115159050919050565b6101618161014d565b82525050565b5f60208201905061017a5f830184610158565b92915050565b7f4e487b71000000000000000000000000000000000000000000000000000000005f52601160045260245ffd5b5f6101b7826100ef565b91506101c2836100ef565b92508282026101d0816100ef565b915082820484148315176101e7576101e6610180565b5b5092915050565b7f4e487b71000000000000000000000000000000000000000000000000000000005f52601260045260245ffd5b5f610225826100ef565b9150610230836100ef565b9250826102405761023f6101ee565b5b828204905092915050565b5f610255826100ef565b9150610260836100ef565b925082820190508082111561027857610277610180565b5b9291505056fea26469706673582212206697d756dceb8172bcc7879872d823cdbb0b02e303e9e67dda896d90d072531364736f6c634300081a0033",
			"opcodes": "PUSH1 0x80 PUSH1 0x40 MSTORE CALLVALUE DUP1 ISZERO PUSH1 0xE JUMPI PUSH0 DUP1 REVERT JUMPDEST POP PUSH2 0x2B4 DUP1 PUSH2 0x1C PUSH0 CODECOPY PUSH0 RETURN INVALID PUSH1 0x80 PUSH1 0x40 MSTORE CALLVALUE DUP1 ISZERO PUSH2 0xF JUMPI PUSH0 DUP1 REVERT JUMPDEST POP PUSH1 0x4 CALLDATASIZE LT PUSH2 0x29 JUMPI PUSH0 CALLDATALOAD PUSH1 0xE0 SHR DUP1 PUSH4 0x9D2B7E84 EQ PUSH2 0x2D JUMPI JUMPDEST PUSH0 DUP1 REVERT JUMPDEST PUSH2 0x47 PUSH1 0x4 DUP1 CALLDATASIZE SUB DUP2 ADD SWAP1 PUSH2 0x42 SWAP2 SWAP1 PUSH2 0x122 JUMP JUMPDEST PUSH2 0x5D JUMP JUMPDEST PUSH1 0x40 MLOAD PUSH2 0x54 SWAP2 SWAP1 PUSH2 0x167 JUMP JUMPDEST PUSH1 0x40 MLOAD DUP1 SWAP2 SUB SWAP1 RETURN JUMPDEST PUSH0 DUP1 PUSH2 0x68 DUP4 PUSH2 0x80 JUMP JUMPDEST SWAP1 POP DUP3 DUP2 DUP3 PUSH2 0x77 SWAP2 SWAP1 PUSH2 0x1AD JUMP JUMPDEST EQ SWAP2 POP POP SWAP2 SWAP1 POP JUMP JUMPDEST PUSH0 DUP1 DUP3 SWAP1 POP PUSH0 PUSH1 0x2 DUP3 DUP6 PUSH2 0x94 SWAP2 SWAP1 PUSH2 0x21B JUMP JUMPDEST DUP4 PUSH2 0x9F SWAP2 SWAP1 PUSH2 0x24B JUMP JUMPDEST PUSH2 0xA9 SWAP2 SWAP1 PUSH2 0x21B JUMP JUMPDEST SWAP1 POP JUMPDEST DUP2 DUP2 LT ISZERO PUSH2 0xE1 JUMPI DUP1 SWAP2 POP PUSH1 0x2 DUP3 DUP6 PUSH2 0xC5 SWAP2 SWAP1 PUSH2 0x21B JUMP JUMPDEST DUP4 PUSH2 0xD0 SWAP2 SWAP1 PUSH2 0x24B JUMP JUMPDEST PUSH2 0xDA SWAP2 SWAP1 PUSH2 0x21B JUMP JUMPDEST SWAP1 POP PUSH2 0xAC JUMP JUMPDEST DUP2 SWAP3 POP POP POP SWAP2 SWAP1 POP JUMP JUMPDEST PUSH0 DUP1 REVERT JUMPDEST PUSH0 DUP2 SWAP1 POP SWAP2 SWAP1 POP JUMP JUMPDEST PUSH2 0x101 DUP2 PUSH2 0xEF JUMP JUMPDEST DUP2 EQ PUSH2 0x10B JUMPI PUSH0 DUP1 REVERT JUMPDEST POP JUMP JUMPDEST PUSH0 DUP2 CALLDATALOAD SWAP1 POP PUSH2 0x11C DUP2 PUSH2 0xF8 JUMP JUMPDEST SWAP3 SWAP2 POP POP JUMP JUMPDEST PUSH0 PUSH1 0x20 DUP3 DUP5 SUB SLT ISZERO PUSH2 0x137 JUMPI PUSH2 0x136 PUSH2 0xEB JUMP JUMPDEST JUMPDEST PUSH0 PUSH2 0x144 DUP5 DUP3 DUP6 ADD PUSH2 0x10E JUMP JUMPDEST SWAP2 POP POP SWAP3 SWAP2 POP POP JUMP JUMPDEST PUSH0 DUP2 ISZERO ISZERO SWAP1 POP SWAP2 SWAP1 POP JUMP JUMPDEST PUSH2 0x161 DUP2 PUSH2 0x14D JUMP JUMPDEST DUP3 MSTORE POP POP JUMP JUMPDEST PUSH0 PUSH1 0x20 DUP3 ADD SWAP1 POP PUSH2 0x17A PUSH0 DUP4 ADD DUP5 PUSH2 0x158 JUMP JUMPDEST SWAP3 SWAP2 POP POP JUMP JUMPDEST PUSH32 0x4E487B7100000000000000000000000000000000000000000000000000000000 PUSH0 MSTORE PUSH1 0x11 PUSH1 0x4 MSTORE PUSH1 0x24 PUSH0 REVERT JUMPDEST PUSH0 PUSH2 0x1B7 DUP3 PUSH2 0xEF JUMP JUMPDEST SWAP2 POP PUSH2 0x1C2 DUP4 PUSH2 0xEF JUMP JUMPDEST SWAP3 POP DUP3 DUP3 MUL PUSH2 0x1D0 DUP2 PUSH2 0xEF JUMP JUMPDEST SWAP2 POP DUP3 DUP3 DIV DUP5 EQ DUP4 ISZERO OR PUSH2 0x1E7 JUMPI PUSH2 0x1E6 PUSH2 0x180 JUMP JUMPDEST JUMPDEST POP SWAP3 SWAP2 POP POP JUMP JUMPDEST PUSH32 0x4E487B7100000000000000000000000000000000000000000000000000000000 PUSH0 MSTORE PUSH1 0x12 PUSH1 0x4 MSTORE PUSH1 0x24 PUSH0 REVERT JUMPDEST PUSH0 PUSH2 0x225 DUP3 PUSH2 0xEF JUMP JUMPDEST SWAP2 POP PUSH2 0x230 DUP4 PUSH2 0xEF JUMP JUMPDEST SWAP3 POP DUP3 PUSH2 0x240 JUMPI PUSH2 0x23F PUSH2 0x1EE JUMP JUMPDEST JUMPDEST DUP3 DUP3 DIV SWAP1 POP SWAP3 SWAP2 POP POP JUMP JUMPDEST PUSH0 PUSH2 0x255 DUP3 PUSH2 0xEF JUMP JUMPDEST SWAP2 POP PUSH2 0x260 DUP4 PUSH2 0xEF JUMP JUMPDEST SWAP3 POP DUP3 DUP3 ADD SWAP1 POP DUP1 DUP3 GT ISZERO PUSH2 0x278 JUMPI PUSH2 0x277 PUSH2 0x180 JUMP JUMPDEST JUMPDEST SWAP3 SWAP2 POP POP JUMP INVALID LOG2 PUSH5 0x6970667358 0x22 SLT KECCAK256 PUSH7 0x97D756DCEB8172 0xBC 0xC7 DUP8 SWAP9 PUSH19 0xD823CDBB0B02E303E9E67DDA896D90D0725313 PUSH5 0x736F6C6343 STOP ADDMOD BYTE STOP CALLER "
		},
		"gasEstimates": {
			"creation": {
				"codeDepositCost": "138400",
				"executionCost": "181",
				"totalCost": "138581"
			},
			"external": {
				"isPerfectSquare(uint256)": "infinite"
			},
			"internal": {
				"sqrtUint(uint256)": "infinite"
			}
		},
		"methodIdentifiers": {
			"isPerfectSquare(uint256)": "9d2b7e84"
		}
	},
	"abi": [
		{
			"inputs": [
				{
					"internalType": "uint256",
					"name": "n",
					"type": "uint256"
				}
			],
			"name": "isPerfectSquare",
			"outputs": [
				{
					"internalType": "bool",
					"name": "",
					"type": "bool"
				}
			],
			"stateMutability": "pure",
			"type": "function"
		}
	]
}