{
	"data": {
		"bytecode": {
			"linkReferences": {},
			"object": "6080604052348015600e575f80fd5b506104e08061001c5f395ff3fe608060405234801561000f575f80fd5b5060043610610029575f3560e01c8063faefc6911461002d575b5f80fd5b6100476004803603810190610042919061024d565b61005d565b604051610054919061032f565b60405180910390f35b60605f8267ffffffffffffffff81111561007a5761007961034f565b5b6040519080825280602002602001820160405280156100a85781602001602082028036833780820191505090505b5090505f80600290505b848111610109576100c2816101b3565b156100f657808383815181106100db576100da61037c565b5b60200260200101818152505081806100f2906103d6565b9250505b8080610101906103d6565b9150506100b2565b505f8167ffffffffffffffff8111156101255761012461034f565b5b6040519080825280602002602001820160405280156101535781602001602082028036833780820191505090505b5090505f5b828110156101a7578381815181106101735761017261037c565b5b602002602001015182828151811061018e5761018d61037c565b5b6020026020010181815250508080600101915050610158565b50809350505050919050565b5f600182116101c4575f9050610211565b5f600290505b6002836101d7919061044a565b811161020b575f81846101ea919061047a565b036101f8575f915050610211565b8080610203906103d6565b9150506101ca565b50600190505b919050565b5f80fd5b5f819050919050565b61022c8161021a565b8114610236575f80fd5b50565b5f8135905061024781610223565b92915050565b5f6020828403121561026257610261610216565b5b5f61026f84828501610239565b91505092915050565b5f81519050919050565b5f82825260208201905092915050565b5f819050602082019050919050565b6102aa8161021a565b82525050565b5f6102bb83836102a1565b60208301905092915050565b5f602082019050919050565b5f6102dd82610278565b6102e78185610282565b93506102f283610292565b805f5b8381101561032257815161030988826102b0565b9750610314836102c7565b9250506001810190506102f5565b5085935050505092915050565b5f6020820190508181035f83015261034781846102d3565b905092915050565b7f4e487b71000000000000000000000000000000000000000000000000000000005f52604160045260245ffd5b7f4e487b71000000000000000000000000000000000000000000000000000000005f52603260045260245ffd5b7f4e487b71000000000000000000000000000000000000000000000000000000005f52601160045260245ffd5b5f6103e08261021a565b91507fffffffffffffffffffffffffffffffffffffffffffffffffffffffffffffffff8203610412576104116103a9565b5b600182019050919050565b7f4e487b71000000000000000000000000000000000000000000000000000000005f52601260045260245ffd5b5f6104548261021a565b915061045f8361021a565b92508261046f5761046e61041d565b5b828204905092915050565b5f6104848261021a565b915061048f8361021a565b92508261049f5761049e61041d565b5b82820690509291505056fea26469706673582212204630486f60db561521616de71d2d7cc1ce00f502a955ef1e148265f3c8d5ee3164736f6c634300081a0033",
			"opcodes": "PUSH1 0x80 PUSH1 0x40 MSTORE CALLVALUE DUP1 ISZERO PUSH1 0xE JUMPI PUSH0 DUP1 REVERT JUMPDEST POP PUSH2 0x4E0 DUP1 PUSH2 0x1C PUSH0 CODECOPY PUSH0 RETURN INVALID PUSH1 0x80 PUSH1 0x40 MSTORE CALLVALUE DUP1 ISZERO PUSH2 0xF JUMPI PUSH0 DUP1 REVERT JUMPDEST POP PUSH1 0x4 CALLDATASIZE LT PUSH2 0x29 JUMPI PUSH0 CALLDATALOAD PUSH1 0xE0 SHR DUP1 PUSH4 0xFAEFC691 EQ PUSH2 0x2D JUMPI JUMPDEST PUSH0 DUP1 REVERT JUMPDEST PUSH2 0x47 PUSH1 0x4 DUP1 CALLDATASIZE SUB DUP2 ADD SWAP1 PUSH2 0x42 SWAP2 SWAP1 PUSH2 0x24D JUMP JUMPDEST PUSH2 0x5D JUMP JUMPDEST PUSH1 0x40 MLOAD PUSH2 0x54 SWAP2 SWAP1 PUSH2 0x32F JUMP JUMPDEST PUSH1 0x40 MLOAD DUP1 SWAP2 SUB SWAP1 RETURN JUMPDEST PUSH1 0x60 PUSH0 DUP3 PUSH8 0xFFFFFFFFFFFFFFFF DUP2 GT ISZERO PUSH2 0x7A JUMPI PUSH2 0x79 PUSH2 0x34F JUMP JUMPDEST JUMPDEST PUSH1 0x40 MLOAD SWAP1 DUP1 DUP3 MSTORE DUP1 PUSH1 0x20 MUL PUSH1 0x20 ADD DUP3 ADD PUSH1 0x40 MSTORE DUP1 ISZERO PUSH2 0xA8 JUMPI DUP2 PUSH1 0x20 ADD PUSH1 0x20 DUP3 MUL DUP1 CALLDATASIZE DUP4 CALLDATACOPY DUP1 DUP3 ADD SWAP2 POP POP SWAP1 POP JUMPDEST POP SWAP1 POP PUSH0 DUP1 PUSH1 0x2 SWAP1 POP JUMPDEST DUP5 DUP2 GT PUSH2 0x109 JUMPI PUSH2 0xC2 DUP2 PUSH2 0x1B3 JUMP JUMPDEST ISZERO PUSH2 0xF6 JUMPI DUP1 DUP4 DUP4 DUP2 MLOAD DUP2 LT PUSH2 0xDB JUMPI PUSH2 0xDA PUSH2 0x37C JUMP JUMPDEST JUMPDEST PUSH1 0x20 MUL PUSH1 0x20 ADD ADD DUP2 DUP2 MSTORE POP POP DUP2 DUP1 PUSH2 0xF2 SWAP1 PUSH2 0x3D6 JUMP JUMPDEST SWAP3 POP POP JUMPDEST DUP1 DUP1 PUSH2 0x101 SWAP1 PUSH2 0x3D6 JUMP JUMPDEST SWAP2 POP POP PUSH2 0xB2 JUMP JUMPDEST POP PUSH0 DUP2 PUSH8 0xFFFFFFFFFFFFFFFF DUP2 GT ISZERO PUSH2 0x125 JUMPI PUSH2 0x124 PUSH2 0x34F JUMP JUMPDEST JUMPDEST PUSH1 0x40 MLOAD SWAP1 DUP1 DUP3 MSTORE DUP1 PUSH1 0x20 MUL PUSH1 0x20 ADD DUP3 ADD PUSH1 0x40 MSTORE DUP1 ISZERO PUSH2 0x153 JUMPI DUP2 PUSH1 0x20 ADD PUSH1 0x20 DUP3 MUL DUP1 CALLDATASIZE DUP4 CALLDATACOPY DUP1 DUP3 ADD SWAP2 POP POP SWAP1 POP JUMPDEST POP SWAP1 POP PUSH0 JUMPDEST DUP3 DUP2 LT ISZERO PUSH2 0x1A7 JUMPI DUP4 DUP2 DUP2 MLOAD DUP2 LT PUSH2 0x173 JUMPI PUSH2 0x172 PUSH2 0x37C JUMP JUMPDEST JUMPDEST PUSH1 0x20 MUL PUSH1 0x20 ADD ADD MLOAD DUP3 DUP3 DUP2 MLOAD DUP2 LT PUSH2 0x18E JUMPI PUSH2 0x18D PUSH2 0x37C JUMP JUMPDEST JUMPDEST PUSH1 0x20 MUL PUSH1 0x20 ADD ADD DUP2 DUP2 MSTORE POP POP DUP1 DUP1 PUSH1 0x1 ADD SWAP2 POP POP PUSH2 0x158 JUMP JUMPDEST POP DUP1 SWAP4 POP POP POP POP SWAP2 SWAP1 POP JUMP JUMPDEST PUSH0 PUSH1 0x1 DUP3 GT PUSH2 0x1C4 JUMPI PUSH0 SWAP1 POP PUSH2 0x211 JUMP JUMPDEST PUSH0 PUSH1 0x2 SWAP1 POP JUMPDEST PUSH1 0x2 DUP4 PUSH2 0x1D7 SWAP2 SWAP1 PUSH2 0x44A JUMP JUMPDEST DUP2 GT PUSH2 0x20B JUMPI PUSH0 DUP2 DUP5 PUSH2 0x1EA SWAP2 SWAP1 PUSH2 0x47A JUMP JUMPDEST SUB PUSH2 0x1F8 JUMPI PUSH0 SWAP2 POP POP PUSH2 0x211 JUMP JUMPDEST DUP1 DUP1 PUSH2 0x203 SWAP1 PUSH2 0x3D6 JUMP JUMPDEST SWAP2 POP POP PUSH2 0x1CA JUMP JUMPDEST POP PUSH1 0x1 SWAP1 POP JUMPDEST SWAP2 SWAP1 POP JUMP JUMPDEST PUSH0 DUP1 REVERT JUMPDEST PUSH0 DUP2 SWAP1 POP SWAP2 SWAP1 POP JUMP JUMPDEST PUSH2 0x22C DUP2 PUSH2 0x21A JUMP JUMPDEST DUP2 EQ PUSH2 0x236 JUMPI PUSH0 DUP1 REVERT JUMPDEST POP JUMP JUMPDEST PUSH0 DUP2 CALLDATALOAD SWAP1 POP PUSH2 0x247 DUP2 PUSH2 0x223 JUMP JUMPDEST SWAP3 SWAP2 POP POP JUMP JUMPDEST PUSH0 PUSH1 0x20 DUP3 DUP5 SUB SLT ISZERO PUSH2 0x262 JUMPI PUSH2 0x261 PUSH2 0x216 JUMP JUMPDEST JUMPDEST PUSH0 PUSH2 0x26F DUP5 DUP3 DUP6 ADD PUSH2 0x239 JUMP JUMPDEST SWAP2 POP POP SWAP3 SWAP2 POP POP JUMP JUMPDEST PUSH0 DUP2 MLOAD SWAP1 POP SWAP2 SWAP1 POP JUMP JUMPDEST PUSH0 DUP3 DUP3 MSTORE PUSH1 0x20 DUP3 ADD SWAP1 POP SWAP3 SWAP2 POP POP JUMP JUMPDEST PUSH0 DUP2 SWAP1 POP PUSH1 0x20 DUP3 ADD SWAP1 POP SWAP2 SWAP1 POP JUMP JUMPDEST PUSH2 0x2AA DUP2 PUSH2 0x21A JUMP JUMPDEST DUP3 MSTORE POP POP JUMP JUMPDEST PUSH0 PUSH2 0x2BB DUP4 DUP4 PUSH2 0x2A1 JUMP JUMPDEST PUSH1 0x20 DUP4 ADD SWAP1 POP SWAP3 SWAP2 POP POP JUMP JUMPDEST PUSH0 PUSH1 0x20 DUP3 ADD SWAP1 POP SWAP2 SWAP1 POP JUMP JUMPDEST PUSH0 PUSH2 0x2DD DUP3 PUSH2 0x278 JUMP JUMPDEST PUSH2 0x2E7 DUP2 DUP6 PUSH2 0x282 JUMP JUMPDEST SWAP4 POP PUSH2 0x2F2 DUP4 PUSH2 0x292 JUMP JUMPDEST DUP1 PUSH0 JUMPDEST DUP4 DUP2 LT ISZERO PUSH2 0x322 JUMPI DUP2 MLOAD PUSH2 0x309 DUP9 DUP3 PUSH2 0x2B0 JUMP JUMPDEST SWAP8 POP PUSH2 0x314 DUP4 PUSH2 0x2C7 JUMP JUMPDEST SWAP3 POP POP PUSH1 0x1 DUP2 ADD SWAP1 POP PUSH2 0x2F5 JUMP JUMPDEST POP DUP6 SWAP4 POP POP POP POP SWAP3 SWAP2 POP POP JUMP JUMPDEST PUSH0 PUSH1 0x20 DUP3 ADD SWAP1 POP DUP2 DUP2 SUB PUSH0 DUP4 ADD MSTORE PUSH2 0x347 DUP2 DUP5 PUSH2 0x2D3 JUMP JUMPDEST SWAP1 POP SWAP3 SWAP2 POP POP JUMP JUMPDEST PUSH32 0x4E487B7100000000000000000000000000000000000000000000000000000000 PUSH0 MSTORE PUSH1 0x41 PUSH1 0x4 MSTORE PUSH1 0x24 PUSH0 REVERT JUMPDEST PUSH32 0x4E487B7100000000000000000000000000000000000000000000000000000000 PUSH0 MSTORE PUSH1 0x32 PUSH1 0x4 MSTORE PUSH1 0x24 PUSH0 REVERT JUMPDEST PUSH32 0x4E487B7100000000000000000000000000000000000000000000000000000000 PUSH0 MSTORE PUSH1 0x11 PUSH1 0x4 MSTORE PUSH1 0x24 PUSH0 REVERT JUMPDEST PUSH0 PUSH2 0x3E0 DUP3 PUSH2 0x21A JUMP JUMPDEST SWAP2 POP PUSH32 0xFFFFFFFFFFFFFFFFFFFFFFFFFFFFFFFFFFFFFFFFFFFFFFFFFFFFFFFFFFFFFFFF DUP3 SUB PUSH2 0x412 JUMPI PUSH2 0x411 PUSH2 0x3A9 JUMP JUMPDEST JUMPDEST PUSH1 0x1 DUP3 ADD SWAP1 POP SWAP2 SWAP1 POP JUMP JUMPDEST PUSH32 0x4E487B7100000000000000000000000000000000000000000000000000000000 PUSH0 MSTORE PUSH1 0x12 PUSH1 0x4 MSTORE PUSH1 0x24 PUSH0 REVERT JUMPDEST PUSH0 PUSH2 0x454 DUP3 PUSH2 0x21A JUMP JUMPDEST SWAP2 POP PUSH2 0x45F DUP4 PUSH2 0x21A JUMP JUMPDEST SWAP3 POP DUP3 PUSH2 0x46F JUMPI PUSH2 0x46E PUSH2 0x41D JUMP JUMPDEST JUMPDEST DUP3 DUP3 DIV SWAP1 POP SWAP3 SWAP2 POP POP JUMP JUMPDEST PUSH0 PUSH2 0x484 DUP3 PUSH2 0x21A JUMP JUMPDEST SWAP2 POP PUSH2 0x48F DUP4 PUSH2 0x21A JUMP JUMPDEST SWAP3 POP DUP3 PUSH2 0x49F JUMPI PUSH2 0x49E PUSH2 0x41D JUMP JUMPDEST JUMPDEST DUP3 DUP3 MOD SWAP1 POP SWAP3 SWAP2 POP POP JUMP INVALID LOG2 PUSH5 0x6970667358 0x22 SLT KECCAK256 CHAINID ADDRESS BASEFEE PUSH16 0x60DB561521616DE71D2D7CC1CE00F502 0xA9 SSTORE 0xEF 0x1E EQ DUP3 PUSH6 0xF3C8D5EE3164 PUSH20 0x6F6C634300081A00330000000000000000000000 "
		},
		"gasEstimates": {
			"creation": {
				"codeDepositCost": "249600",
				"executionCost": "285",
				"totalCost": "249885"
			},
			"external": {
				"getPrimes(uint256)": "infinite"
			},
			"internal": {
				"isPrime(uint256)": "infinite"
			}
		},
		"methodIdentifiers": {
			"getPrimes(uint256)": "faefc691"
		}
	},
	"abi": [
		{
			"inputs": [
				{
					"internalType": "uint256",
					"name": "n",
					"type": "uint256"
				}
			],
			"name": "getPrimes",
			"outputs": [
				{
					"internalType": "uint256[]",
					"name": "",
					"type": "uint256[]"
				}
			],
			"stateMutability": "pure",
			"type": "function"
		}
	]
}