{
	"data": {
		"bytecode": {
			"linkReferences": {},
			"object": "6080604052348015600e575f80fd5b5061028c8061001c5f395ff3fe608060405234801561000f575f80fd5b5060043610610029575f3560e01c8063427034941461002d575b5f80fd5b610047600480360381019061004291906100f7565b61005d565b604051610054919061013c565b60405180910390f35b5f6001821161006e575f90506100bb565b5f600290505b60028361008191906101af565b81116100b5575f818461009491906101df565b036100a2575f9150506100bb565b80806100ad9061020f565b915050610074565b50600190505b919050565b5f80fd5b5f819050919050565b6100d6816100c4565b81146100e0575f80fd5b50565b5f813590506100f1816100cd565b92915050565b5f6020828403121561010c5761010b6100c0565b5b5f610119848285016100e3565b91505092915050565b5f8115159050919050565b61013681610122565b82525050565b5f60208201905061014f5f83018461012d565b92915050565b7f4e487b71000000000000000000000000000000000000000000000000000000005f52601260045260245ffd5b7f4e487b71000000000000000000000000000000000000000000000000000000005f52601160045260245ffd5b5f6101b9826100c4565b91506101c4836100c4565b9250826101d4576101d3610155565b5b828204905092915050565b5f6101e9826100c4565b91506101f4836100c4565b92508261020457610203610155565b5b828206905092915050565b5f610219826100c4565b91507fffffffffffffffffffffffffffffffffffffffffffffffffffffffffffffffff820361024b5761024a610182565b5b60018201905091905056fea26469706673582212209538fe49941486bcee1c2e9fde01868c622954f671f012aa9a4e8615d529a81664736f6c634300081a0033",
			"opcodes": "PUSH1 0x80 PUSH1 0x40 MSTORE CALLVALUE DUP1 ISZERO PUSH1 0xE JUMPI PUSH0 DUP1 REVERT JUMPDEST POP PUSH2 0x28C DUP1 PUSH2 0x1C PUSH0 CODECOPY PUSH0 RETURN INVALID PUSH1 0x80 PUSH1 0x40 MSTORE CALLVALUE DUP1 ISZERO PUSH2 0xF JUMPI PUSH0 DUP1 REVERT JUMPDEST POP PUSH1 0x4 CALLDATASIZE LT PUSH2 0x29 JUMPI PUSH0 CALLDATALOAD PUSH1 0xE0 SHR DUP1 PUSH4 0x42703494 EQ PUSH2 0x2D JUMPI JUMPDEST PUSH0 DUP1 REVERT JUMPDEST PUSH2 0x47 PUSH1 0x4 DUP1 CALLDATASIZE SUB DUP2 ADD SWAP1 PUSH2 0x42 SWAP2 SWAP1 PUSH2 0xF7 JUMP JUMPDEST PUSH2 0x5D JUMP JUMPDEST PUSH1 0x40 MLOAD PUSH2 0x54 SWAP2 SWAP1 PUSH2 0x13C JUMP JUMPDEST PUSH1 0x40 MLOAD DUP1 SWAP2 SUB SWAP1 RETURN JUMPDEST PUSH0 PUSH1 0x1 DUP3 GT PUSH2 0x6E JUMPI PUSH0 SWAP1 POP PUSH2 0xBB JUMP JUMPDEST PUSH0 PUSH1 0x2 SWAP1 POP JUMPDEST PUSH1 0x2 DUP4 PUSH2 0x81 SWAP2 SWAP1 PUSH2 0x1AF JUMP JUMPDEST DUP2 GT PUSH2 0xB5 JUMPI PUSH0 DUP2 DUP5 PUSH2 0x94 SWAP2 SWAP1 PUSH2 0x1DF JUMP JUMPDEST SUB PUSH2 0xA2 JUMPI PUSH0 SWAP2 POP POP PUSH2 0xBB JUMP JUMPDEST DUP1 DUP1 PUSH2 0xAD SWAP1 PUSH2 0x20F JUMP JUMPDEST SWAP2 POP POP PUSH2 0x74 JUMP JUMPDEST POP PUSH1 0x1 SWAP1 POP JUMPDEST SWAP2 SWAP1 POP JUMP JUMPDEST PUSH0 DUP1 REVERT JUMPDEST PUSH0 DUP2 SWAP1 POP SWAP2 SWAP1 POP JUMP JUMPDEST PUSH2 0xD6 DUP2 PUSH2 0xC4 JUMP JUMPDEST DUP2 EQ PUSH2 0xE0 JUMPI PUSH0 DUP1 REVERT JUMPDEST POP JUMP JUMPDEST PUSH0 DUP2 CALLDATALOAD SWAP1 POP PUSH2 0xF1 DUP2 PUSH2 0xCD JUMP JUMPDEST SWAP3 SWAP2 POP POP JUMP JUMPDEST PUSH0 PUSH1 0x20 DUP3 DUP5 SUB SLT ISZERO PUSH2 0x10C JUMPI PUSH2 0x10B PUSH2 0xC0 JUMP JUMPDEST JUMPDEST PUSH0 PUSH2 0x119 DUP5 DUP3 DUP6 ADD PUSH2 0xE3 JUMP JUMPDEST SWAP2 POP POP SWAP3 SWAP2 POP POP JUMP JUMPDEST PUSH0 DUP2 ISZERO ISZERO SWAP1 POP SWAP2 SWAP1 POP JUMP JUMPDEST PUSH2 0x136 DUP2 PUSH2 0x122 JUMP JUMPDEST DUP3 MSTORE POP POP JUMP JUMPDEST PUSH0 PUSH1 0x20 DUP3 ADD SWAP1 POP PUSH2 0x14F PUSH0 DUP4 ADD DUP5 PUSH2 0x12D JUMP JUMPDEST SWAP3 SWAP2 POP POP JUMP JUMPDEST PUSH32 0x4E487B7100000000000000000000000000000000000000000000000000000000 PUSH0 MSTORE PUSH1 0x12 PUSH1 0x4 MSTORE PUSH1 0x24 PUSH0 REVERT JUMPDEST PUSH32 0x4E487B7100000000000000000000000000000000000000000000000000000000 PUSH0 MSTORE PUSH1 0x11 PUSH1 0x4 MSTORE PUSH1 0x24 PUSH0 REVERT JUMPDEST PUSH0 PUSH2 0x1B9 DUP3 PUSH2 0xC4 JUMP JUMPDEST SWAP2 POP PUSH2 0x1C4 DUP4 PUSH2 0xC4 JUMP JUMPDEST SWAP3 POP DUP3 PUSH2 0x1D4 JUMPI PUSH2 0x1D3 PUSH2 0x155 JUMP JUMPDEST JUMPDEST DUP3 DUP3 DIV SWAP1 POP SWAP3 SWAP2 POP POP JUMP JUMPDEST PUSH0 PUSH2 0x1E9 DUP3 PUSH2 0xC4 JUMP JUMPDEST SWAP2 POP PUSH2 0x1F4 DUP4 PUSH2 0xC4 JUMP JUMPDEST SWAP3 POP DUP3 PUSH2 0x204 JUMPI PUSH2 0x203 PUSH2 0x155 JUMP JUMPDEST JUMPDEST DUP3 DUP3 MOD SWAP1 POP SWAP3 SWAP2 POP POP JUMP JUMPDEST PUSH0 PUSH2 0x219 DUP3 PUSH2 0xC4 JUMP JUMPDEST SWAP2 POP PUSH32 0xFFFFFFFFFFFFFFFFFFFFFFFFFFFFFFFFFFFFFFFFFFFFFFFFFFFFFFFFFFFFFFFF DUP3 SUB PUSH2 0x24B JUMPI PUSH2 0x24A PUSH2 0x182 JUMP JUMPDEST JUMPDEST PUSH1 0x1 DUP3 ADD SWAP1 POP SWAP2 SWAP1 POP JUMP INVALID LOG2 PUSH5 0x6970667358 0x22 SLT KECCAK256 SWAP6 CODESIZE INVALID BLOBHASH SWAP5 EQ DUP7 0xBC 0xEE SHR 0x2E SWAP16 0xDE ADD DUP7 DUP13 PUSH3 0x2954F6 PUSH18 0xF012AA9A4E8615D529A81664736F6C634300 ADDMOD BYTE STOP CALLER "
		},
		"gasEstimates": {
			"creation": {
				"codeDepositCost": "130400",
				"executionCost": "175",
				"totalCost": "130575"
			},
			"external": {
				"isPrime(uint256)": "infinite"
			}
		},
		"methodIdentifiers": {
			"isPrime(uint256)": "42703494"
		}
	},
	"abi": [
		{
			"inputs": [
				{
					"internalType": "uint256",
					"name": "number",
					"type": "uint256"
				}
			],
			"name": "isPrime",
			"outputs": [
				{
					"internalType": "bool",
					"name": "",
					"type": "bool"
				}
			],
			"stateMutability": "pure",
			"type": "function"
		}
	]
}