{
	"data": {
		"bytecode": {
			"linkReferences": {},
			"object": "6080604052348015600e575f80fd5b506105b38061001c5f395ff3fe608060405234801561000f575f80fd5b506004361061003f575f3560e01c806362dc146b14610043578063c38457921461005f578063c7ef6bfb1461007b575b5f80fd5b61005d6004803603810190610058919061044c565b6100ab565b005b6100796004803603810190610074919061044c565b61016a565b005b610095600480360381019061009091906104a6565b6101cf565b6040516100a291906104fc565b60405180910390f35b60405180604001604052808260ff1681526020015f67ffffffffffffffff8111156100d9576100d86102f2565b5b6040519080825280602002602001820160405280156101075781602001602082028036833780820191505090505b508152505f8360405161011a9190610567565b90815260200160405180910390205f820151815f015f6101000a81548160ff021916908360ff160217905550602082015181600101908051906020019061016292919061020c565b509050505050565b5f826040516101799190610567565b908152602001604051809103902060010181908060018154018082558091505060019003905f5260205f2090602091828204019190069091909190916101000a81548160ff021916908360ff1602179055505050565b5f818051602081018201805184825260208301602085012081835280955050505050505f91509050805f015f9054906101000a900460ff16905081565b828054828255905f5260205f2090601f0160209004810192821561029d579160200282015f5b8382111561026f57835183826101000a81548160ff021916908360ff16021790555092602001926001016020815f01049283019260010302610232565b801561029b5782816101000a81549060ff02191690556001016020815f0104928301926001030261026f565b505b5090506102aa91906102ae565b5090565b5b808211156102c5575f815f9055506001016102af565b5090565b5f604051905090565b5f80fd5b5f80fd5b5f80fd5b5f80fd5b5f601f19601f8301169050919050565b7f4e487b71000000000000000000000000000000000000000000000000000000005f52604160045260245ffd5b610328826102e2565b810181811067ffffffffffffffff82111715610347576103466102f2565b5b80604052505050565b5f6103596102c9565b9050610365828261031f565b919050565b5f67ffffffffffffffff821115610384576103836102f2565b5b61038d826102e2565b9050602081019050919050565b828183375f83830152505050565b5f6103ba6103b58461036a565b610350565b9050828152602081018484840111156103d6576103d56102de565b5b6103e184828561039a565b509392505050565b5f82601f8301126103fd576103fc6102da565b5b813561040d8482602086016103a8565b91505092915050565b5f60ff82169050919050565b61042b81610416565b8114610435575f80fd5b50565b5f8135905061044681610422565b92915050565b5f8060408385031215610462576104616102d2565b5b5f83013567ffffffffffffffff81111561047f5761047e6102d6565b5b61048b858286016103e9565b925050602061049c85828601610438565b9150509250929050565b5f602082840312156104bb576104ba6102d2565b5b5f82013567ffffffffffffffff8111156104d8576104d76102d6565b5b6104e4848285016103e9565b91505092915050565b6104f681610416565b82525050565b5f60208201905061050f5f8301846104ed565b92915050565b5f81519050919050565b5f81905092915050565b8281835e5f83830152505050565b5f61054182610515565b61054b818561051f565b935061055b818560208601610529565b80840191505092915050565b5f6105728284610537565b91508190509291505056fea2646970667358221220e1e204459b8e95446c40fd242e9d65ed6bf1b58d90eb830ad44f39f3f2fc6b7f64736f6c634300081a0033",
			"opcodes": "PUSH1 0x80 PUSH1 0x40 MSTORE CALLVALUE DUP1 ISZERO PUSH1 0xE JUMPI PUSH0 DUP1 REVERT JUMPDEST POP PUSH2 0x5B3 DUP1 PUSH2 0x1C PUSH0 CODECOPY PUSH0 RETURN INVALID PUSH1 0x80 PUSH1 0x40 MSTORE CALLVALUE DUP1 ISZERO PUSH2 0xF JUMPI PUSH0 DUP1 REVERT JUMPDEST POP PUSH1 0x4 CALLDATASIZE LT PUSH2 0x3F JUMPI PUSH0 CALLDATALOAD PUSH1 0xE0 SHR DUP1 PUSH4 0x62DC146B EQ PUSH2 0x43 JUMPI DUP1 PUSH4 0xC3845792 EQ PUSH2 0x5F JUMPI DUP1 PUSH4 0xC7EF6BFB EQ PUSH2 0x7B JUMPI JUMPDEST PUSH0 DUP1 REVERT JUMPDEST PUSH2 0x5D PUSH1 0x4 DUP1 CALLDATASIZE SUB DUP2 ADD SWAP1 PUSH2 0x58 SWAP2 SWAP1 PUSH2 0x44C JUMP JUMPDEST PUSH2 0xAB JUMP JUMPDEST STOP JUMPDEST PUSH2 0x79 PUSH1 0x4 DUP1 CALLDATASIZE SUB DUP2 ADD SWAP1 PUSH2 0x74 SWAP2 SWAP1 PUSH2 0x44C JUMP JUMPDEST PUSH2 0x16A JUMP JUMPDEST STOP JUMPDEST PUSH2 0x95 PUSH1 0x4 DUP1 CALLDATASIZE SUB DUP2 ADD SWAP1 PUSH2 0x90 SWAP2 SWAP1 PUSH2 0x4A6 JUMP JUMPDEST PUSH2 0x1CF JUMP JUMPDEST PUSH1 0x40 MLOAD PUSH2 0xA2 SWAP2 SWAP1 PUSH2 0x4FC JUMP JUMPDEST PUSH1 0x40 MLOAD DUP1 SWAP2 SUB SWAP1 RETURN JUMPDEST PUSH1 0x40 MLOAD DUP1 PUSH1 0x40 ADD PUSH1 0x40 MSTORE DUP1 DUP3 PUSH1 0xFF AND DUP2 MSTORE PUSH1 0x20 ADD PUSH0 PUSH8 0xFFFFFFFFFFFFFFFF DUP2 GT ISZERO PUSH2 0xD9 JUMPI PUSH2 0xD8 PUSH2 0x2F2 JUMP JUMPDEST JUMPDEST PUSH1 0x40 MLOAD SWAP1 DUP1 DUP3 MSTORE DUP1 PUSH1 0x20 MUL PUSH1 0x20 ADD DUP3 ADD PUSH1 0x40 MSTORE DUP1 ISZERO PUSH2 0x107 JUMPI DUP2 PUSH1 0x20 ADD PUSH1 0x20 DUP3 MUL DUP1 CALLDATASIZE DUP4 CALLDATACOPY DUP1 DUP3 ADD SWAP2 POP POP SWAP1 POP JUMPDEST POP DUP2 MSTORE POP PUSH0 DUP4 PUSH1 0x40 MLOAD PUSH2 0x11A SWAP2 SWAP1 PUSH2 0x567 JUMP JUMPDEST SWAP1 DUP2 MSTORE PUSH1 0x20 ADD PUSH1 0x40 MLOAD DUP1 SWAP2 SUB SWAP1 KECCAK256 PUSH0 DUP3 ADD MLOAD DUP2 PUSH0 ADD PUSH0 PUSH2 0x100 EXP DUP2 SLOAD DUP2 PUSH1 0xFF MUL NOT AND SWAP1 DUP4 PUSH1 0xFF AND MUL OR SWAP1 SSTORE POP PUSH1 0x20 DUP3 ADD MLOAD DUP2 PUSH1 0x1 ADD SWAP1 DUP1 MLOAD SWAP1 PUSH1 0x20 ADD SWAP1 PUSH2 0x162 SWAP3 SWAP2 SWAP1 PUSH2 0x20C JUMP JUMPDEST POP SWAP1 POP POP POP POP JUMP JUMPDEST PUSH0 DUP3 PUSH1 0x40 MLOAD PUSH2 0x179 SWAP2 SWAP1 PUSH2 0x567 JUMP JUMPDEST SWAP1 DUP2 MSTORE PUSH1 0x20 ADD PUSH1 0x40 MLOAD DUP1 SWAP2 SUB SWAP1 KECCAK256 PUSH1 0x1 ADD DUP2 SWAP1 DUP1 PUSH1 0x1 DUP2 SLOAD ADD DUP1 DUP3 SSTORE DUP1 SWAP2 POP POP PUSH1 0x1 SWAP1 SUB SWAP1 PUSH0 MSTORE PUSH1 0x20 PUSH0 KECCAK256 SWAP1 PUSH1 0x20 SWAP2 DUP3 DUP3 DIV ADD SWAP2 SWAP1 MOD SWAP1 SWAP2 SWAP1 SWAP2 SWAP1 SWAP2 PUSH2 0x100 EXP DUP2 SLOAD DUP2 PUSH1 0xFF MUL NOT AND SWAP1 DUP4 PUSH1 0xFF AND MUL OR SWAP1 SSTORE POP POP POP JUMP JUMPDEST PUSH0 DUP2 DUP1 MLOAD PUSH1 0x20 DUP2 ADD DUP3 ADD DUP1 MLOAD DUP5 DUP3 MSTORE PUSH1 0x20 DUP4 ADD PUSH1 0x20 DUP6 ADD KECCAK256 DUP2 DUP4 MSTORE DUP1 SWAP6 POP POP POP POP POP POP PUSH0 SWAP2 POP SWAP1 POP DUP1 PUSH0 ADD PUSH0 SWAP1 SLOAD SWAP1 PUSH2 0x100 EXP SWAP1 DIV PUSH1 0xFF AND SWAP1 POP DUP2 JUMP JUMPDEST DUP3 DUP1 SLOAD DUP3 DUP3 SSTORE SWAP1 PUSH0 MSTORE PUSH1 0x20 PUSH0 KECCAK256 SWAP1 PUSH1 0x1F ADD PUSH1 0x20 SWAP1 DIV DUP2 ADD SWAP3 DUP3 ISZERO PUSH2 0x29D JUMPI SWAP2 PUSH1 0x20 MUL DUP3 ADD PUSH0 JUMPDEST DUP4 DUP3 GT ISZERO PUSH2 0x26F JUMPI DUP4 MLOAD DUP4 DUP3 PUSH2 0x100 EXP DUP2 SLOAD DUP2 PUSH1 0xFF MUL NOT AND SWAP1 DUP4 PUSH1 0xFF AND MUL OR SWAP1 SSTORE POP SWAP3 PUSH1 0x20 ADD SWAP3 PUSH1 0x1 ADD PUSH1 0x20 DUP2 PUSH0 ADD DIV SWAP3 DUP4 ADD SWAP3 PUSH1 0x1 SUB MUL PUSH2 0x232 JUMP JUMPDEST DUP1 ISZERO PUSH2 0x29B JUMPI DUP3 DUP2 PUSH2 0x100 EXP DUP2 SLOAD SWAP1 PUSH1 0xFF MUL NOT AND SWAP1 SSTORE PUSH1 0x1 ADD PUSH1 0x20 DUP2 PUSH0 ADD DIV SWAP3 DUP4 ADD SWAP3 PUSH1 0x1 SUB MUL PUSH2 0x26F JUMP JUMPDEST POP JUMPDEST POP SWAP1 POP PUSH2 0x2AA SWAP2 SWAP1 PUSH2 0x2AE JUMP JUMPDEST POP SWAP1 JUMP JUMPDEST JUMPDEST DUP1 DUP3 GT ISZERO PUSH2 0x2C5 JUMPI PUSH0 DUP2 PUSH0 SWAP1 SSTORE POP PUSH1 0x1 ADD PUSH2 0x2AF JUMP JUMPDEST POP SWAP1 JUMP JUMPDEST PUSH0 PUSH1 0x40 MLOAD SWAP1 POP SWAP1 JUMP JUMPDEST PUSH0 DUP1 REVERT JUMPDEST PUSH0 DUP1 REVERT JUMPDEST PUSH0 DUP1 REVERT JUMPDEST PUSH0 DUP1 REVERT JUMPDEST PUSH0 PUSH1 0x1F NOT PUSH1 0x1F DUP4 ADD AND SWAP1 POP SWAP2 SWAP1 POP JUMP JUMPDEST PUSH32 0x4E487B7100000000000000000000000000000000000000000000000000000000 PUSH0 MSTORE PUSH1 0x41 PUSH1 0x4 MSTORE PUSH1 0x24 PUSH0 REVERT JUMPDEST PUSH2 0x328 DUP3 PUSH2 0x2E2 JUMP JUMPDEST DUP2 ADD DUP2 DUP2 LT PUSH8 0xFFFFFFFFFFFFFFFF DUP3 GT OR ISZERO PUSH2 0x347 JUMPI PUSH2 0x346 PUSH2 0x2F2 JUMP JUMPDEST JUMPDEST DUP1 PUSH1 0x40 MSTORE POP POP POP JUMP JUMPDEST PUSH0 PUSH2 0x359 PUSH2 0x2C9 JUMP JUMPDEST SWAP1 POP PUSH2 0x365 DUP3 DUP3 PUSH2 0x31F JUMP JUMPDEST SWAP2 SWAP1 POP JUMP JUMPDEST PUSH0 PUSH8 0xFFFFFFFFFFFFFFFF DUP3 GT ISZERO PUSH2 0x384 JUMPI PUSH2 0x383 PUSH2 0x2F2 JUMP JUMPDEST JUMPDEST PUSH2 0x38D DUP3 PUSH2 0x2E2 JUMP JUMPDEST SWAP1 POP PUSH1 0x20 DUP2 ADD SWAP1 POP SWAP2 SWAP1 POP JUMP JUMPDEST DUP3 DUP2 DUP4 CALLDATACOPY PUSH0 DUP4 DUP4 ADD MSTORE POP POP POP JUMP JUMPDEST PUSH0 PUSH2 0x3BA PUSH2 0x3B5 DUP5 PUSH2 0x36A JUMP JUMPDEST PUSH2 0x350 JUMP JUMPDEST SWAP1 POP DUP3 DUP2 MSTORE PUSH1 0x20 DUP2 ADD DUP5 DUP5 DUP5 ADD GT ISZERO PUSH2 0x3D6 JUMPI PUSH2 0x3D5 PUSH2 0x2DE JUMP JUMPDEST JUMPDEST PUSH2 0x3E1 DUP5 DUP3 DUP6 PUSH2 0x39A JUMP JUMPDEST POP SWAP4 SWAP3 POP POP POP JUMP JUMPDEST PUSH0 DUP3 PUSH1 0x1F DUP4 ADD SLT PUSH2 0x3FD JUMPI PUSH2 0x3FC PUSH2 0x2DA JUMP JUMPDEST JUMPDEST DUP2 CALLDATALOAD PUSH2 0x40D DUP5 DUP3 PUSH1 0x20 DUP7 ADD PUSH2 0x3A8 JUMP JUMPDEST SWAP2 POP POP SWAP3 SWAP2 POP POP JUMP JUMPDEST PUSH0 PUSH1 0xFF DUP3 AND SWAP1 POP SWAP2 SWAP1 POP JUMP JUMPDEST PUSH2 0x42B DUP2 PUSH2 0x416 JUMP JUMPDEST DUP2 EQ PUSH2 0x435 JUMPI PUSH0 DUP1 REVERT JUMPDEST POP JUMP JUMPDEST PUSH0 DUP2 CALLDATALOAD SWAP1 POP PUSH2 0x446 DUP2 PUSH2 0x422 JUMP JUMPDEST SWAP3 SWAP2 POP POP JUMP JUMPDEST PUSH0 DUP1 PUSH1 0x40 DUP4 DUP6 SUB SLT ISZERO PUSH2 0x462 JUMPI PUSH2 0x461 PUSH2 0x2D2 JUMP JUMPDEST JUMPDEST PUSH0 DUP4 ADD CALLDATALOAD PUSH8 0xFFFFFFFFFFFFFFFF DUP2 GT ISZERO PUSH2 0x47F JUMPI PUSH2 0x47E PUSH2 0x2D6 JUMP JUMPDEST JUMPDEST PUSH2 0x48B DUP6 DUP3 DUP7 ADD PUSH2 0x3E9 JUMP JUMPDEST SWAP3 POP POP PUSH1 0x20 PUSH2 0x49C DUP6 DUP3 DUP7 ADD PUSH2 0x438 JUMP JUMPDEST SWAP2 POP POP SWAP3 POP SWAP3 SWAP1 POP JUMP JUMPDEST PUSH0 PUSH1 0x20 DUP3 DUP5 SUB SLT ISZERO PUSH2 0x4BB JUMPI PUSH2 0x4BA PUSH2 0x2D2 JUMP JUMPDEST JUMPDEST PUSH0 DUP3 ADD CALLDATALOAD PUSH8 0xFFFFFFFFFFFFFFFF DUP2 GT ISZERO PUSH2 0x4D8 JUMPI PUSH2 0x4D7 PUSH2 0x2D6 JUMP JUMPDEST JUMPDEST PUSH2 0x4E4 DUP5 DUP3 DUP6 ADD PUSH2 0x3E9 JUMP JUMPDEST SWAP2 POP POP SWAP3 SWAP2 POP POP JUMP JUMPDEST PUSH2 0x4F6 DUP2 PUSH2 0x416 JUMP JUMPDEST DUP3 MSTORE POP POP JUMP JUMPDEST PUSH0 PUSH1 0x20 DUP3 ADD SWAP1 POP PUSH2 0x50F PUSH0 DUP4 ADD DUP5 PUSH2 0x4ED JUMP JUMPDEST SWAP3 SWAP2 POP POP JUMP JUMPDEST PUSH0 DUP2 MLOAD SWAP1 POP SWAP2 SWAP1 POP JUMP JUMPDEST PUSH0 DUP2 SWAP1 POP SWAP3 SWAP2 POP POP JUMP JUMPDEST DUP3 DUP2 DUP4 MCOPY PUSH0 DUP4 DUP4 ADD MSTORE POP POP POP JUMP JUMPDEST PUSH0 PUSH2 0x541 DUP3 PUSH2 0x515 JUMP JUMPDEST PUSH2 0x54B DUP2 DUP6 PUSH2 0x51F JUMP JUMPDEST SWAP4 POP PUSH2 0x55B DUP2 DUP6 PUSH1 0x20 DUP7 ADD PUSH2 0x529 JUMP JUMPDEST DUP1 DUP5 ADD SWAP2 POP POP SWAP3 SWAP2 POP POP JUMP JUMPDEST PUSH0 PUSH2 0x572 DUP3 DUP5 PUSH2 0x537 JUMP JUMPDEST SWAP2 POP DUP2 SWAP1 POP SWAP3 SWAP2 POP POP JUMP INVALID LOG2 PUSH5 0x6970667358 0x22 SLT KECCAK256 0xE1 0xE2 DIV GASLIMIT SWAP12 DUP15 SWAP6 PREVRANDAO PUSH13 0x40FD242E9D65ED6BF1B58D90EB DUP4 EXP 0xD4 0x4F CODECOPY RETURN CALLCODE 0xFC PUSH12 0x7F64736F6C634300081A0033 "
		},
		"gasEstimates": {
			"creation": {
				"codeDepositCost": "291800",
				"executionCost": "329",
				"totalCost": "292129"
			},
			"external": {
				"addGrade(string,uint8)": "infinite",
				"addStudent(string,uint8)": "infinite",
				"students(string)": "infinite"
			}
		},
		"methodIdentifiers": {
			"addGrade(string,uint8)": "c3845792",
			"addStudent(string,uint8)": "62dc146b",
			"students(string)": "c7ef6bfb"
		}
	},
	"abi": [
		{
			"inputs": [
				{
					"internalType": "string",
					"name": "name",
					"type": "string"
				},
				{
					"internalType": "uint8",
					"name": "grade",
					"type": "uint8"
				}
			],
			"name": "addGrade",
			"outputs": [],
			"stateMutability": "nonpayable",
			"type": "function"
		},
		{
			"inputs": [
				{
					"internalType": "string",
					"name": "name",
					"type": "string"
				},
				{
					"internalType": "uint8",
					"name": "age",
					"type": "uint8"
				}
			],
			"name": "addStudent",
			"outputs": [],
			"stateMutability": "nonpayable",
			"type": "function"
		},
		{
			"inputs": [
				{
					"internalType": "string",
					"name": "",
					"type": "string"
				}
			],
			"name": "students",
			"outputs": [
				{
					"internalType": "uint8",
					"name": "age",
					"type": "uint8"
				}
			],
			"stateMutability": "view",
			"type": "function"
		}
	]
}