{
	"data": {
		"bytecode": {
			"linkReferences": {},
			"object": "6080604052348015600e575f80fd5b5061050c8061001c5f395ff3fe608060405234801561000f575f80fd5b5060043610610060575f3560e01c806332dfa7311461006457806362f636121461009457806364890207146100c45780639360894b146100f4578063b2f1669d14610110578063e06226e514610140575b5f80fd5b61007e60048036038101906100799190610287565b610170565b60405161008b91906102c1565b60405180910390f35b6100ae60048036038101906100a99190610287565b610190565b6040516100bb91906102c1565b60405180910390f35b6100de60048036038101906100d99190610287565b6101b0565b6040516100eb91906102c1565b60405180910390f35b61010e60048036038101906101099190610287565b6101d0565b005b61012a60048036038101906101259190610287565b61020d565b60405161013791906102c1565b60405180910390f35b61015a60048036038101906101559190610287565b61022d565b60405161016791906102c1565b60405180910390f35b5f815f8054906101000a9004600f0b6101899190610307565b9050919050565b5f815f8054906101000a9004600f0b6101a99190610370565b9050919050565b5f815f8054906101000a9004600f0b6101c991906103a0565b9050919050565b805f806101000a8154816fffffffffffffffffffffffffffffffff0219169083600f0b6fffffffffffffffffffffffffffffffff16021790555050565b5f815f8054906101000a9004600f0b6102269190610407565b9050919050565b5f815f8054906101000a9004600f0b610246919061046f565b9050919050565b5f80fd5b5f81600f0b9050919050565b61026681610251565b8114610270575f80fd5b50565b5f813590506102818161025d565b92915050565b5f6020828403121561029c5761029b61024d565b5b5f6102a984828501610273565b91505092915050565b6102bb81610251565b82525050565b5f6020820190506102d45f8301846102b2565b92915050565b7f4e487b71000000000000000000000000000000000000000000000000000000005f52601160045260245ffd5b5f61031182610251565b915061031c83610251565b925082820261032a81610251565b915080821461033c5761033b6102da565b5b5092915050565b7f4e487b71000000000000000000000000000000000000000000000000000000005f52601260045260245ffd5b5f61037a82610251565b915061038583610251565b92508261039557610394610343565b5b828207905092915050565b5f6103aa82610251565b91506103b583610251565b925082820190507fffffffffffffffffffffffffffffffff8000000000000000000000000000000081126f7fffffffffffffffffffffffffffffff82131715610401576104006102da565b5b92915050565b5f61041182610251565b915061041c83610251565b92508261042c5761042b610343565b5b60015f0383147fffffffffffffffffffffffffffffffff8000000000000000000000000000000083141615610464576104636102da565b5b828205905092915050565b5f61047982610251565b915061048483610251565b925082820390506f7fffffffffffffffffffffffffffffff81137fffffffffffffffffffffffffffffffff80000000000000000000000000000000821217156104d0576104cf6102da565b5b9291505056fea2646970667358221220c9ad728f1879f8b2f7308698a360518ccff01af49038fd8b1b3dd9453e653e6764736f6c634300081a0033",
			"opcodes": "PUSH1 0x80 PUSH1 0x40 MSTORE CALLVALUE DUP1 ISZERO PUSH1 0xE JUMPI PUSH0 DUP1 REVERT JUMPDEST POP PUSH2 0x50C DUP1 PUSH2 0x1C PUSH0 CODECOPY PUSH0 RETURN INVALID PUSH1 0x80 PUSH1 0x40 MSTORE CALLVALUE DUP1 ISZERO PUSH2 0xF JUMPI PUSH0 DUP1 REVERT JUMPDEST POP PUSH1 0x4 CALLDATASIZE LT PUSH2 0x60 JUMPI PUSH0 CALLDATALOAD PUSH1 0xE0 SHR DUP1 PUSH4 0x32DFA731 EQ PUSH2 0x64 JUMPI DUP1 PUSH4 0x62F63612 EQ PUSH2 0x94 JUMPI DUP1 PUSH4 0x64890207 EQ PUSH2 0xC4 JUMPI DUP1 PUSH4 0x9360894B EQ PUSH2 0xF4 JUMPI DUP1 PUSH4 0xB2F1669D EQ PUSH2 0x110 JUMPI DUP1 PUSH4 0xE06226E5 EQ PUSH2 0x140 JUMPI JUMPDEST PUSH0 DUP1 REVERT JUMPDEST PUSH2 0x7E PUSH1 0x4 DUP1 CALLDATASIZE SUB DUP2 ADD SWAP1 PUSH2 0x79 SWAP2 SWAP1 PUSH2 0x287 JUMP JUMPDEST PUSH2 0x170 JUMP JUMPDEST PUSH1 0x40 MLOAD PUSH2 0x8B SWAP2 SWAP1 PUSH2 0x2C1 JUMP JUMPDEST PUSH1 0x40 MLOAD DUP1 SWAP2 SUB SWAP1 RETURN JUMPDEST PUSH2 0xAE PUSH1 0x4 DUP1 CALLDATASIZE SUB DUP2 ADD SWAP1 PUSH2 0xA9 SWAP2 SWAP1 PUSH2 0x287 JUMP JUMPDEST PUSH2 0x190 JUMP JUMPDEST PUSH1 0x40 MLOAD PUSH2 0xBB SWAP2 SWAP1 PUSH2 0x2C1 JUMP JUMPDEST PUSH1 0x40 MLOAD DUP1 SWAP2 SUB SWAP1 RETURN JUMPDEST PUSH2 0xDE PUSH1 0x4 DUP1 CALLDATASIZE SUB DUP2 ADD SWAP1 PUSH2 0xD9 SWAP2 SWAP1 PUSH2 0x287 JUMP JUMPDEST PUSH2 0x1B0 JUMP JUMPDEST PUSH1 0x40 MLOAD PUSH2 0xEB SWAP2 SWAP1 PUSH2 0x2C1 JUMP JUMPDEST PUSH1 0x40 MLOAD DUP1 SWAP2 SUB SWAP1 RETURN JUMPDEST PUSH2 0x10E PUSH1 0x4 DUP1 CALLDATASIZE SUB DUP2 ADD SWAP1 PUSH2 0x109 SWAP2 SWAP1 PUSH2 0x287 JUMP JUMPDEST PUSH2 0x1D0 JUMP JUMPDEST STOP JUMPDEST PUSH2 0x12A PUSH1 0x4 DUP1 CALLDATASIZE SUB DUP2 ADD SWAP1 PUSH2 0x125 SWAP2 SWAP1 PUSH2 0x287 JUMP JUMPDEST PUSH2 0x20D JUMP JUMPDEST PUSH1 0x40 MLOAD PUSH2 0x137 SWAP2 SWAP1 PUSH2 0x2C1 JUMP JUMPDEST PUSH1 0x40 MLOAD DUP1 SWAP2 SUB SWAP1 RETURN JUMPDEST PUSH2 0x15A PUSH1 0x4 DUP1 CALLDATASIZE SUB DUP2 ADD SWAP1 PUSH2 0x155 SWAP2 SWAP1 PUSH2 0x287 JUMP JUMPDEST PUSH2 0x22D JUMP JUMPDEST PUSH1 0x40 MLOAD PUSH2 0x167 SWAP2 SWAP1 PUSH2 0x2C1 JUMP JUMPDEST PUSH1 0x40 MLOAD DUP1 SWAP2 SUB SWAP1 RETURN JUMPDEST PUSH0 DUP2 PUSH0 DUP1 SLOAD SWAP1 PUSH2 0x100 EXP SWAP1 DIV PUSH1 0xF SIGNEXTEND PUSH2 0x189 SWAP2 SWAP1 PUSH2 0x307 JUMP JUMPDEST SWAP1 POP SWAP2 SWAP1 POP JUMP JUMPDEST PUSH0 DUP2 PUSH0 DUP1 SLOAD SWAP1 PUSH2 0x100 EXP SWAP1 DIV PUSH1 0xF SIGNEXTEND PUSH2 0x1A9 SWAP2 SWAP1 PUSH2 0x370 JUMP JUMPDEST SWAP1 POP SWAP2 SWAP1 POP JUMP JUMPDEST PUSH0 DUP2 PUSH0 DUP1 SLOAD SWAP1 PUSH2 0x100 EXP SWAP1 DIV PUSH1 0xF SIGNEXTEND PUSH2 0x1C9 SWAP2 SWAP1 PUSH2 0x3A0 JUMP JUMPDEST SWAP1 POP SWAP2 SWAP1 POP JUMP JUMPDEST DUP1 PUSH0 DUP1 PUSH2 0x100 EXP DUP2 SLOAD DUP2 PUSH16 0xFFFFFFFFFFFFFFFFFFFFFFFFFFFFFFFF MUL NOT AND SWAP1 DUP4 PUSH1 0xF SIGNEXTEND PUSH16 0xFFFFFFFFFFFFFFFFFFFFFFFFFFFFFFFF AND MUL OR SWAP1 SSTORE POP POP JUMP JUMPDEST PUSH0 DUP2 PUSH0 DUP1 SLOAD SWAP1 PUSH2 0x100 EXP SWAP1 DIV PUSH1 0xF SIGNEXTEND PUSH2 0x226 SWAP2 SWAP1 PUSH2 0x407 JUMP JUMPDEST SWAP1 POP SWAP2 SWAP1 POP JUMP JUMPDEST PUSH0 DUP2 PUSH0 DUP1 SLOAD SWAP1 PUSH2 0x100 EXP SWAP1 DIV PUSH1 0xF SIGNEXTEND PUSH2 0x246 SWAP2 SWAP1 PUSH2 0x46F JUMP JUMPDEST SWAP1 POP SWAP2 SWAP1 POP JUMP JUMPDEST PUSH0 DUP1 REVERT JUMPDEST PUSH0 DUP2 PUSH1 0xF SIGNEXTEND SWAP1 POP SWAP2 SWAP1 POP JUMP JUMPDEST PUSH2 0x266 DUP2 PUSH2 0x251 JUMP JUMPDEST DUP2 EQ PUSH2 0x270 JUMPI PUSH0 DUP1 REVERT JUMPDEST POP JUMP JUMPDEST PUSH0 DUP2 CALLDATALOAD SWAP1 POP PUSH2 0x281 DUP2 PUSH2 0x25D JUMP JUMPDEST SWAP3 SWAP2 POP POP JUMP JUMPDEST PUSH0 PUSH1 0x20 DUP3 DUP5 SUB SLT ISZERO PUSH2 0x29C JUMPI PUSH2 0x29B PUSH2 0x24D JUMP JUMPDEST JUMPDEST PUSH0 PUSH2 0x2A9 DUP5 DUP3 DUP6 ADD PUSH2 0x273 JUMP JUMPDEST SWAP2 POP POP SWAP3 SWAP2 POP POP JUMP JUMPDEST PUSH2 0x2BB DUP2 PUSH2 0x251 JUMP JUMPDEST DUP3 MSTORE POP POP JUMP JUMPDEST PUSH0 PUSH1 0x20 DUP3 ADD SWAP1 POP PUSH2 0x2D4 PUSH0 DUP4 ADD DUP5 PUSH2 0x2B2 JUMP JUMPDEST SWAP3 SWAP2 POP POP JUMP JUMPDEST PUSH32 0x4E487B7100000000000000000000000000000000000000000000000000000000 PUSH0 MSTORE PUSH1 0x11 PUSH1 0x4 MSTORE PUSH1 0x24 PUSH0 REVERT JUMPDEST PUSH0 PUSH2 0x311 DUP3 PUSH2 0x251 JUMP JUMPDEST SWAP2 POP PUSH2 0x31C DUP4 PUSH2 0x251 JUMP JUMPDEST SWAP3 POP DUP3 DUP3 MUL PUSH2 0x32A DUP2 PUSH2 0x251 JUMP JUMPDEST SWAP2 POP DUP1 DUP3 EQ PUSH2 0x33C JUMPI PUSH2 0x33B PUSH2 0x2DA JUMP JUMPDEST JUMPDEST POP SWAP3 SWAP2 POP POP JUMP JUMPDEST PUSH32 0x4E487B7100000000000000000000000000000000000000000000000000000000 PUSH0 MSTORE PUSH1 0x12 PUSH1 0x4 MSTORE PUSH1 0x24 PUSH0 REVERT JUMPDEST PUSH0 PUSH2 0x37A DUP3 PUSH2 0x251 JUMP JUMPDEST SWAP2 POP PUSH2 0x385 DUP4 PUSH2 0x251 JUMP JUMPDEST SWAP3 POP DUP3 PUSH2 0x395 JUMPI PUSH2 0x394 PUSH2 0x343 JUMP JUMPDEST JUMPDEST DUP3 DUP3 SMOD SWAP1 POP SWAP3 SWAP2 POP POP JUMP JUMPDEST PUSH0 PUSH2 0x3AA DUP3 PUSH2 0x251 JUMP JUMPDEST SWAP2 POP PUSH2 0x3B5 DUP4 PUSH2 0x251 JUMP JUMPDEST SWAP3 POP DUP3 DUP3 ADD SWAP1 POP PUSH32 0xFFFFFFFFFFFFFFFFFFFFFFFFFFFFFFFF80000000000000000000000000000000 DUP2 SLT PUSH16 0x7FFFFFFFFFFFFFFFFFFFFFFFFFFFFFFF DUP3 SGT OR ISZERO PUSH2 0x401 JUMPI PUSH2 0x400 PUSH2 0x2DA JUMP JUMPDEST JUMPDEST SWAP3 SWAP2 POP POP JUMP JUMPDEST PUSH0 PUSH2 0x411 DUP3 PUSH2 0x251 JUMP JUMPDEST SWAP2 POP PUSH2 0x41C DUP4 PUSH2 0x251 JUMP JUMPDEST SWAP3 POP DUP3 PUSH2 0x42C JUMPI PUSH2 0x42B PUSH2 0x343 JUMP JUMPDEST JUMPDEST PUSH1 0x1 PUSH0 SUB DUP4 EQ PUSH32 0xFFFFFFFFFFFFFFFFFFFFFFFFFFFFFFFF80000000000000000000000000000000 DUP4 EQ AND ISZERO PUSH2 0x464 JUMPI PUSH2 0x463 PUSH2 0x2DA JUMP JUMPDEST JUMPDEST DUP3 DUP3 SDIV SWAP1 POP SWAP3 SWAP2 POP POP JUMP JUMPDEST PUSH0 PUSH2 0x479 DUP3 PUSH2 0x251 JUMP JUMPDEST SWAP2 POP PUSH2 0x484 DUP4 PUSH2 0x251 JUMP JUMPDEST SWAP3 POP DUP3 DUP3 SUB SWAP1 POP PUSH16 0x7FFFFFFFFFFFFFFFFFFFFFFFFFFFFFFF DUP2 SGT PUSH32 0xFFFFFFFFFFFFFFFFFFFFFFFFFFFFFFFF80000000000000000000000000000000 DUP3 SLT OR ISZERO PUSH2 0x4D0 JUMPI PUSH2 0x4CF PUSH2 0x2DA JUMP JUMPDEST JUMPDEST SWAP3 SWAP2 POP POP JUMP INVALID LOG2 PUSH5 0x6970667358 0x22 SLT KECCAK256 0xC9 0xAD PUSH19 0x8F1879F8B2F7308698A360518CCFF01AF49038 REVERT DUP12 SHL RETURNDATASIZE 0xD9 GASLIMIT RETURNDATACOPY PUSH6 0x3E6764736F6C PUSH4 0x4300081A STOP CALLER "
		},
		"gasEstimates": {
			"creation": {
				"codeDepositCost": "258400",
				"executionCost": "298",
				"totalCost": "258698"
			},
			"external": {
				"division(int128)": "infinite",
				"multiplication(int128)": "infinite",
				"remainder(int128)": "infinite",
				"saveValue(int128)": "24727",
				"substraction(int128)": "infinite",
				"summa(int128)": "infinite"
			}
		},
		"methodIdentifiers": {
			"division(int128)": "b2f1669d",
			"multiplication(int128)": "32dfa731",
			"remainder(int128)": "62f63612",
			"saveValue(int128)": "9360894b",
			"substraction(int128)": "e06226e5",
			"summa(int128)": "64890207"
		}
	},
	"abi": [
		{
			"inputs": [
				{
					"internalType": "int128",
					"name": "number",
					"type": "int128"
				}
			],
			"name": "division",
			"outputs": [
				{
					"internalType": "int128",
					"name": "",
					"type": "int128"
				}
			],
			"stateMutability": "view",
			"type": "function"
		},
		{
			"inputs": [
				{
					"internalType": "int128",
					"name": "number",
					"type": "int128"
				}
			],
			"name": "multiplication",
			"outputs": [
				{
					"internalType": "int128",
					"name": "",
					"type": "int128"
				}
			],
			"stateMutability": "view",
			"type": "function"
		},
		{
			"inputs": [
				{
					"internalType": "int128",
					"name": "number",
					"type": "int128"
				}
			],
			"name": "remainder",
			"outputs": [
				{
					"internalType": "int128",
					"name": "",
					"type": "int128"
				}
			],
			"stateMutability": "view",
			"type": "function"
		},
		{
			"inputs": [
				{
					"internalType": "int128",
					"name": "number",
					"type": "int128"
				}
			],
			"name": "saveValue",
			"outputs": [],
			"stateMutability": "nonpayable",
			"type": "function"
		},
		{
			"inputs": [
				{
					"internalType": "int128",
					"name": "number",
					"type": "int128"
				}
			],
			"name": "substraction",
			"outputs": [
				{
					"internalType": "int128",
					"name": "",
					"type": "int128"
				}
			],
			"stateMutability": "view",
			"type": "function"
		},
		{
			"inputs": [
				{
					"internalType": "int128",
					"name": "number",
					"type": "int128"
				}
			],
			"name": "summa",
			"outputs": [
				{
					"internalType": "int128",
					"name": "",
					"type": "int128"
				}
			],
			"stateMutability": "view",
			"type": "function"
		}
	]
}